0149643870999992014010100004-01969+030139FM-15+148199999V0209999C00001030481CN008000199+01701+01701999999ADDGA1021+007621991GA2041+030481991GF199999021990007621991991MA1101901999990REMMET064METAR HRYR 010000Z 00000KT 8000 FEW025 SCT100 17/17 Q1019 NOSIG=
0149643870999992014010100304-01969+030139FM-15+148199999V0209999C00001030481CN008000199+01701+01701999999ADDGA1021+007621991GA2041+030481991GF199999021990007621991991MA1101901999990REMMET064METAR HRYR 010030Z 00000KT 8000 FEW025 SCT100 17/17 Q1019 NOSIG=
0149643870999992014010101004-01969+030139FM-15+148199999V0209999C00001030481CN008000199+01701+01701999999ADDGA1041+007621991GA2041+030481991GF199999041990007621991991MA1101801999990REMMET064METAR HRYR 010100Z 00000KT 8000 SCT025 SCT100 17/17 Q1018 NOSIG=
0149643870999992014010101304-01969+030139FM-15+148199999V0209999C00001030481CN008000199+01701+01701999999ADDGA1041+007621991GA2041+030481991GF199999041990007621991991MA1101801999990REMMET064METAR HRYR 010130Z 00000KT 8000 SCT025 SCT100 17/17 Q1018 NOSIG=
0149643870999992014010102004-01969+030139FM-15+148199999V0209999C00001030481CN008000199+01701+01701999999ADDGA1041+007621991GA2041+030481991GF199999041990007621991991MA1101801999990REMMET064METAR HRYR 010200Z 00000KT 8000 SCT025 SCT100 17/17 Q1018 NOSIG=
0149643870999992014010102304-01969+030139FM-15+148199999V0209999C00001030481CN005000199+01701+01701999999ADDGA1041+007621991GA2041+030481991GF199999041990007621991991MA1101801999990REMMET064METAR HRYR 010230Z 00000KT 5000 SCT025 SCT100 17/17 Q1018 NOSIG=
0149643870999992014010103004-01969+030139FM-15+148199999V0209999C00001030481CN005000199+01701+01701999999ADDGA1041+007621991GA2041+030481991GF199999041990007621991991MA1101901999990REMMET064METAR HRYR 010300Z 00000KT 5000 SCT025 SCT100 17/17 Q1019 NOSIG=
0149643870999992014010103304-01969+030139FM-15+148199999V0209999C00001030481CN005000199+01701+01701999999ADDGA1041+007621991GA2041+030481991GF199999041990007621991991MA1101901999990REMMET064METAR HRYR 010330Z 00000KT 5000 SCT025 SCT100 17/17 Q1019 NOSIG=
0149643870999992014010104004-01969+030139FM-15+148199999V0209999C000010076219N005000199+01701+01701999999ADDGA1071+007621991GA2041+030481991GF199999071990007621991991MA1101901999990REMMET064METAR HRYR 010400Z 00000KT 5000 BKN025 SCT100 17/17 Q1019 NOSIG=
0149643870999992014010104304-01969+030139FM-15+148199999V0209999C000010070119N005000199+01701+01701999999ADDGA1071+007011991GA2041+030481991GF199999071990007011991991MA1101901999990REMMET064METAR HRYR 010430Z 00000KT 5000 BKN023 SCT100 17/17 Q1019 NOSIG=
0149643870999992014010105004-01969+030139FM-15+148199999V0209999C000010070119N005000199+01701+01701999999ADDGA1071+007011991GA2041+030481991GF199999071990007011991991MA1101901999990REMMET064METAR HRYR 010500Z 00000KT 5000 BKN023 SCT100 17/17 Q1019 NOSIG=
0149643870999992014010105304-01969+030139FM-15+148199999V0209999C000010070119N005000199+01701+01701999999ADDGA1071+007011991GA2041+030481991GF199999071990007011991991MA1102001999990REMMET064METAR HRYR 010530Z 00000KT 5000 BKN023 SCT100 17/17 Q1020 NOSIG=
0149643870999992014010106004-01969+030139FM-15+148199999V0209999C000010070119N005000199+01801+01801999999ADDGA1071+007011991GA2041+030481991GF199999071990007011991991MA1102001999990REMMET064METAR HRYR 010600Z 00000KT 5000 BKN023 SCT100 18/18 Q1020 NOSIG=
0149643870999992014010106304-01969+030139FM-15+148199999V0209999C000010070119N006000199+01901+01801999999ADDGA1071+007011991GA2041+030481991GF199999071990007011991991MA1102101999990REMMET064METAR HRYR 010630Z 00000KT 6000 BKN023 SCT100 19/18 Q1021 NOSIG=
0149643870999992014010107004-01969+030139FM-15+148199999V0209999C00001030481CN007000199+02101+01801999999ADDGA1041+007011991GA2041+030481991GF199999041990007011991991MA1102101999990REMMET064METAR HRYR 010700Z 00000KT 7000 SCT023 SCT100 21/18 Q1021 NOSIG=
0149643870999992014010107304-01969+030139FM-15+148199999V0209999C00001030481CN008000199+02201+01901999999ADDGA1041+007011991GA2041+030481991GF199999041990007011991991MA1102101999990REMMET064METAR HRYR 010730Z 00000KT 8000 SCT023 SCT100 22/19 Q1021 NOSIG=
0148643870999992014010108004-01969+030139FM-15+148199999V0209999C000019999999N009000199+02101+01801999999ADDGA1041+030481991GA2021+999991991GF199999041990030481991991MA1102101999990REMMET063METAR HRYR 010800Z 00000KT 9000 FEW23 SCT100 21/18 Q1021 NOSIG=
0148643870999992014010108304-01969+030139FM-15+148199999V0209999C000019999999N009000199+02201+01801999999ADDGA1041+030481991GA2021+999991991GF199999041990030481991991MA1102001999990REMMET063METAR HRYR 010830Z 00000KT 9000 FEW23 SCT100 22/18 Q1020 NOSIG=
0148643870999992014010109004-01969+030139FM-15+148199999V0209999C000019999999N009999199+02301+01801999999ADDGA1041+030481991GA2021+999991991GF199999041990030481991991MA1102001999990REMMET063METAR HRYR 010900Z 00000KT 9999 FEW23 SCT100 23/18 Q1020 NOSIG=
0149643870999992014010110004-01969+030139FM-15+148199999V0202001N00151030481CN009999199+02301+01701999999ADDGA1041+007011991GA2041+030481991GF199999041990007011991991MA1101901999990REMMET064METAR HRYR 011000Z 20003KT 9999 SCT023 SCT100 23/17 Q1019 NOSIG=
0149643870999992014010110304-01969+030139FM-15+148199999V0200901N00261030481CN009999199+02401+01701999999ADDGA1041+007011991GA2041+030481991GF199999041990007011991991MA1101901999990REMMET064METAR HRYR 011030Z 09005KT 9999 SCT023 SCT100 24/17 Q1019 NOSIG=
0151643870999992014010111004-01969+030139FM-15+148199999V0201001N003610076219N009999199+02401+01801999999ADDGA1021+007011091GA2071+007621991GF199999021990007011991991MA1101801999990REMMET066METAR HRYR 011100Z 10007KT 9999 FEW023CB BKN025 24/18 Q1018 NOSIG=
0151643870999992014010111304-01969+030139FM-15+148199999V0200901N004610076219N009999199+02401+01801999999ADDGA1021+007011091GA2071+007621991GF199999021990007011991991MA1101801999990REMMET066METAR HRYR 011130Z 09009KT 9999 FEW023CB BKN025 24/18 Q1018 NOSIG=
0151643870999992014010112004-01969+030139FM-15+148199999V0201001N004110076219N009999199+02401+01901999999ADDGA1021+007011091GA2071+007621991GF199999021990007011991991MA1101701999990REMMET066METAR HRYR 011200Z 10008KT 9999 FEW023CB BKN025 24/19 Q1017 NOSIG=
0151643870999992014010112304-01969+030139FM-15+148199999V0200901N004110076219N009999199+02401+01901999999ADDGA1021+007011091GA2071+007621991GF199999021990007011991991MA1101701999990REMMET066METAR HRYR 011230Z 09008KT 9999 FEW023CB BKN025 24/19 Q1017 NOSIG=
0151643870999992014010113004-01969+030139FM-15+148199999V0200701N005110076219N009999199+02401+01801999999ADDGA1021+007011091GA2071+007621991GF199999021990007011991991MA1101701999990REMMET066METAR HRYR 011300Z 07010KT 9999 FEW023CB BKN025 24/18 Q1017 NOSIG=
0151643870999992014010113304-01969+030139FM-15+148199999V0200701N007210076219N009999199+02401+01701999999ADDGA1021+007011091GA2071+007621991GF199999021990007011991991MA1101601999990REMMET066METAR HRYR 011330Z 07014KT 9999 FEW023CB BKN025 24/17 Q1016 NOSIG=
0151643870999992014010114004-01969+030139FM-15+148199999V0200501N006710076219N009999199+02401+01801999999ADDGA1021+007011091GA2071+007621991GF199999021990007011991991MA1101601999990REMMET066METAR HRYR 011400Z 05013KT 9999 FEW023CB BKN025 24/18 Q1016 NOSIG=
0151643870999992014010114304-01969+030139FM-15+148199999V0200401N006210076219N009999199+02401+01801999999ADDGA1021+007011091GA2071+007621991GF199999021990007011991991MA1101601999990REMMET066METAR HRYR 011430Z 04012KT 9999 FEW023CB BKN025 24/18 Q1016 NOSIG=
0149643870999992014010115004-01969+030139FM-15+148199999V0200401N00411091441CN009999199+02301+01701999999ADDGA1041+007621991GA2041+091441991GF199999041990007621991991MA1101701999990REMMET064METAR HRYR 011500Z 04008KT 9999 SCT025 SCT300 23/17 Q1017 NOSIG=
0149643870999992014010115304-01969+030139FM-15+148199999V0200301N00361091441CN009999199+02201+01801999999ADDGA1041+007621991GA2041+091441991GF199999041990007621991991MA1101701999990REMMET064METAR HRYR 011530Z 03007KT 9999 SCT025 SCT300 22/18 Q1017 NOSIG=
0149643870999992014010116004-01969+030139FM-15+148199999V0200301N00411091441CN009999199+02101+01801999999ADDGA1041+007621991GA2041+091441991GF199999041990007621991991MA1101701999990REMMET064METAR HRYR 011600Z 03008KT 9999 SCT025 SCT300 21/18 Q1017 NOSIG=
0149643870999992014010116304-01969+030139FM-15+148199999V0200201N003110076219N009999199+02101+01701999999ADDGA1071+007621991GA2071+030481991GF199999071990007621991991MA1101701999990REMMET064METAR HRYR 011630Z 02006KT 9999 BKN025 BKN100 21/17 Q1017 NOSIG=
0149643870999992014010117004-01969+030139FM-15+148199999V0200201N002610076219N009999199+02101+01701999999ADDGA1071+007621991GA2071+030481991GF199999071990007621991991MA1101801999990REMMET064METAR HRYR 011700Z 02005KT 9999 BKN025 BKN100 21/17 Q1018 NOSIG=
0149643870999992014010117304-01969+030139FM-15+148199999V0200301N002610076219N009999199+02101+01701999999ADDGA1071+007621991GA2071+030481991GF199999071990007621991991MA1101801999990REMMET064METAR HRYR 011730Z 03005KT 9999 BKN025 BKN100 21/17 Q1018 NOSIG=
0149643870999992014010118004-01969+030139FM-15+148199999V0200201N002110076219N009999199+02001+01701999999ADDGA1071+007621991GA2071+091441991GF199999071990007621991991MA1101801999990REMMET064METAR HRYR 011800Z 02004KT 9999 BKN025 BKN300 20/17 Q1018 NOSIG=
0149643870999992014010118304-01969+030139FM-15+148199999V0203601N002110304819N009999199+02001+01801999999ADDGA1041+007621991GA2071+030481991GF199999041990007621991991MA1101901999990REMMET064METAR HRYR 011830Z 36004KT 9999 SCT025 BKN100 20/18 Q1019 NOSIG=
0149643870999992014010119004-01969+030139FM-15+148199999V0203501N002110914419N009999199+02001+01801999999ADDGA1041+007621991GA2071+091441991GF199999041990007621991991MA1101901999990REMMET064METAR HRYR 011900Z 35004KT 9999 SCT025 BKN300 20/18 Q1019 NOSIG=
0149643870999992014010119304-01969+030139FM-15+148199999V0203301N002110304819N009999199+02001+01801999999ADDGA1041+007621991GA2071+030481991GF199999041990007621991991MA1102001999990REMMET064METAR HRYR 011930Z 33004KT 9999 SCT025 BKN100 20/18 Q1020 NOSIG=
0149643870999992014010120004-01969+030139FM-15+148199999V0203101N002110304819N009999199+01901+01801999999ADDGA1041+007621991GA2071+030481991GF199999041990007621991991MA1102001999990REMMET064METAR HRYR 012000Z 31004KT 9999 SCT025 BKN100 19/18 Q1020 NOSIG=
0149643870999992014010120304-01969+030139FM-15+148199999V0202901N001510304819N009999199+01901+01801999999ADDGA1041+007621991GA2071+030481991GF199999041990007621991991MA1102001999990REMMET064METAR HRYR 012030Z 29003KT 9999 SCT025 BKN100 19/18 Q1020 NOSIG=
0149643870999992014010121004-01969+030139FM-15+148199999V0200101N002110304819N009999199+01901+01801999999ADDGA1041+007621991GA2071+030481991GF199999041990007621991991MA1102001999990REMMET064METAR HRYR 012100Z 01004KT 9999 SCT025 BKN100 19/18 Q1020 NOSIG=
0149643870999992014010121304-01969+030139FM-15+148199999V0209999C000010304819N009999199+01901+01801999999ADDGA1041+007621991GA2071+030481991GF199999041990007621991991MA1101901999990REMMET064METAR HRYR 012130Z 00000KT 9999 SCT025 BKN100 19/18 Q1019 NOSIG=
0149643870999992014010122004-01969+030139FM-15+148199999V0209999C000010304819N009999199+01801+01801999999ADDGA1041+007621991GA2071+030481991GF199999041990007621991991MA1101901999990REMMET064METAR HRYR 012200Z 00000KT 9999 SCT025 BKN100 18/18 Q1019 NOSIG=
0149643870999992014010123004-01969+030139FM-15+148199999V0209999C00001030481CN009999199+01801+01801999999ADDGA1041+007621991GA2041+030481991GF199999041990007621991991MA1101901999990REMMET064METAR HRYR 012300Z 00000KT 9999 SCT025 SCT100 18/18 Q1019 NOSIG=
0149643870999992014010123304-01969+030139FM-15+148199999V0209999C00001030481CN009999199+01801+01801999999ADDGA1041+007621991GA2041+030481991GF199999041990007621991991MA1101801999990REMMET064METAR HRYR 012330Z 00000KT 9999 SCT025 SCT100 18/18 Q1018 NOSIG=
0149643870999992014010200004-01969+030139FM-15+148199999V0209999C000010304819N009999199+01801+01801999999ADDGA1041+007621991GA2071+030481991GF199999041990007621991991MA1101801999990REMMET064METAR HRYR 020000Z 00000KT 9999 SCT025 BKN100 18/18 Q1018 NOSIG=
0149643870999992014010200304-01969+030139FM-15+148199999V0209999C000010304819N009999199+01801+01801999999ADDGA1041+007621991GA2071+030481991GF199999041990007621991991MA1101801999990REMMET064METAR HRYR 020030Z 00000KT 9999 SCT025 BKN100 18/18 Q1018 NOSIG=
0149643870999992014010201004-01969+030139FM-15+148199999V0209999C000010304819N009999199+01801+01801999999ADDGA1041+007621991GA2071+030481991GF199999041990007621991991MA1101801999990REMMET064METAR HRYR 020100Z 00000KT 9999 SCT025 BKN100 18/18 Q1018 NOSIG=
0149643870999992014010201304-01969+030139FM-15+148199999V0209999C000010304819N009999199+01801+01801999999ADDGA1041+007621991GA2071+030481991GF199999041990007621991991MA1101801999990REMMET064METAR HRYR 020130Z 00000KT 9999 SCT025 BKN100 18/18 Q1018 NOSIG=
0149643870999992014010202004-01969+030139FM-15+148199999V0209999C000010304819N009999199+01701+01701999999ADDGA1041+007621991GA2071+030481991GF199999041990007621991991MA1101801999990REMMET064METAR HRYR 020200Z 00000KT 9999 SCT025 BKN100 17/17 Q1018 NOSIG=
0149643870999992014010202304-01969+030139FM-15+148199999V0209999C000010304819N009999199+01801+01801999999ADDGA1041+007621991GA2071+030481991GF199999041990007621991991MA1101801999990REMMET064METAR HRYR 020230Z 00000KT 9999 SCT025 BKN100 18/18 Q1018 NOSIG=
0149643870999992014010203004-01969+030139FM-15+148199999V0209999C000010304819N009999199+01801+01801999999ADDGA1041+007621991GA2071+030481991GF199999041990007621991991MA1101901999990REMMET064METAR HRYR 020300Z 00000KT 9999 SCT025 BKN100 18/18 Q1019 NOSIG=
0149643870999992014010203304-01969+030139FM-15+148199999V0209999C000010304819N009999199+01701+01701999999ADDGA1041+007621991GA2071+030481991GF199999041990007621991991MA1101901999990REMMET064METAR HRYR 020330Z 00000KT 9999 SCT025 BKN100 17/17 Q1019 NOSIG=
0149643870999992014010204004-01969+030139FM-15+148199999V0209999C000010304819N007000199+01801+01801999999ADDGA1041+007621991GA2071+030481991GF199999041990007621991991MA1101901999990REMMET064METAR HRYR 020400Z 00000KT 7000 SCT025 BKN100 18/18 Q1019 NOSIG=
0160643870999992014010204104-01969+030139FM-16+148199999V0209999C000010304819N004000199+01801+01801999999ADDGA1041+007621991GA2071+030481991GF199999041990007621991991MA1101901999990MW1401REMMET069SPECI HRYR 020410Z 00000KT 4000 VCFG SCT025 BKN100 18/18 Q1019 NOSIG=
0160643870999992014010204304-01969+030139FM-15+148199999V0209999C000010076219N004000199+01801+01801999999ADDGA1071+007621991GA2071+030481991GF199999071990007621991991MA1101901999990MW1401REMMET069METAR HRYR 020430Z 00000KT 4000 VCFG BKN025 BKN100 18/18 Q1019 NOSIG=
0160643870999992014010205004-01969+030139FM-15+148199999V0209999C000010076219N004000199+01801+01801999999ADDGA1071+007621991GA2071+030481991GF199999071990007621991991MA1102001999990MW1401REMMET069METAR HRYR 020500Z 00000KT 4000 VCFG BKN025 BKN100 18/18 Q1020 NOSIG=
0160643870999992014010205304-01969+030139FM-15+148199999V0209999C000010076219N004000199+01801+01801999999ADDGA1071+007621991GA2071+030481991GF199999071990007621991991MA1102001999990MW1401REMMET069METAR HRYR 020530Z 00000KT 4000 VCFG BKN025 BKN100 18/18 Q1020 NOSIG=
0242643870999992014010206004-01967+030117FM-12+149799999V0209999C000010075019N004000199+01821+01821999999ADDAY121021AY221021GA1051+007501081GA2051+030001031GF108991051990007501991991KA1240M+02471KA2240N+01741MA1999990085251ME1315199MW1101REMSYN10064387 21540 80000 10182 20182 38525 48519 71022 8523/ 333 01400 10247 20174 50264 58002 85825 85360=
0158643870999992014010206004-01969+030139FM-15+148199999V0209999C000010076219N004000199+01801+01801999999ADDGA1071+007621991GA2071+030481991GF199999071990007621991991MA1102001999990MW1101REMMET067METAR HRYR 020600Z 00000KT 4000 BR BKN025 BKN100 18/18 Q1020 NOSIG=
0158643870999992014010206304-01969+030139FM-15+148199999V0203601N001510076219N004000199+01901+01901999999ADDGA1071+007621991GA2071+030481991GF199999071990007621991991MA1102001999990MW1101REMMET067METAR HRYR 020630Z 36003KT 4000 BR BKN025 BKN100 19/19 Q1020 NOSIG=
0149643870999992014010207004-01969+030139FM-15+148199999V0209999C000010304819N006000199+02001+01901999999ADDGA1041+007621991GA2071+030481991GF199999041990007621991991MA1102101999990REMMET064METAR HRYR 020700Z 00000KT 6000 SCT025 BKN100 20/19 Q1021 NOSIG=
0149643870999992014010207304-01969+030139FM-15+148199999V0209999C000010304819N007000199+02201+01901999999ADDGA1041+007621991GA2071+030481991GF199999041990007621991991MA1102001999990REMMET064METAR HRYR 020730Z 00000KT 7000 SCT025 BKN100 22/19 Q1020 NOSIG=
0149643870999992014010208004-01969+030139FM-15+148199999V0209999C00001030481CN007000199+02301+01801999999ADDGA1041+006101991GA2041+030481991GF199999041990006101991991MA1102001999990REMMET064METAR HRYR 020800Z 00000KT 7000 SCT020 SCT100 23/18 Q1020 NOSIG=
0149643870999992014010208304-01969+030139FM-15+148199999V0209999C00001030481CN008000199+02401+01901999999ADDGA1041+007011991GA2041+030481991GF199999041990007011991991MA1102001999990REMMET064METAR HRYR 020830Z 00000KT 8000 SCT023 SCT100 24/19 Q1020 NOSIG=
0149643870999992014010209004-01969+030139FM-15+148199999V0201901N00311030481CN009000199+02501+01801999999ADDGA1041+007011991GA2041+030481991GF199999041990007011991991MA1102001999990REMMET064METAR HRYR 020900Z 19006KT 9000 SCT023 SCT100 25/18 Q1020 NOSIG=
0149643870999992014010210004-01969+030139FM-15+148199999V0201201N002610792519N009999199+02601+01701999999ADDGA1041+007011991GA2071+079251991GF199999041990007011991991MA1101901999990REMMET064METAR HRYR 021000Z 12005KT 9999 SCT023 BKN260 26/17 Q1019 NOSIG=
0149643870999992014010210304-01969+030139FM-15+148199999V0200901N00211079251CN009999199+02601+01601999999ADDGA1041+007011991GA2041+079251991GF199999041990007011991991MA1101801999990REMMET064METAR HRYR 021030Z 09004KT 9999 SCT023 SCT260 26/16 Q1018 NOSIG=
0126643870999992014010211004-01969+030139FM-15+148199999V0201201N003610070119N009999199+02801+01601999999ADDGA1071+007011991GF199999071990007011991991MA1101701999990REMMET057METAR HRYR 021100Z 12007KT 9999 BKN023 28/16 Q1017 NOSIG=
0126643870999992014010211304-01969+030139FM-15+148199999V0200501N003110070119N009999199+02801+01601999999ADDGA1071+007011991GF199999071990007011991991MA1101701999990REMMET057METAR HRYR 021130Z 05006KT 9999 BKN023 28/16 Q1017 NOSIG=
0196643870999992014010212004-01967+030117FM-12+149799999V0200401N00511007501CN010000199+02791+01621999999ADDGA1011+006901091GA2051+007501081GF107991011990006901991991MA1999990084861MD1909990-0091ME1314809REMSYN08864387 32560 70410 10279 20162 38486 48480 8693/ 333 59009 81923 85825 94963 Q1015 .9HPA=
0151643870999992014010212004-01969+030139FM-15+148199999V0200501N003110076219N009999199+02801+01601999999ADDGA1021+007011091GA2071+007621991GF199999021990007011991991MA1101601999990REMMET066METAR HRYR 021200Z 05006KT 9999 FEW023CB BKN025 28/16 Q1016 NOSIG=
0151643870999992014010212304-01969+030139FM-15+148199999V0200301N005110076219N009999199+02701+01701999999ADDGA1021+007011091GA2071+007621991GF199999021990007011991991MA1101601999990REMMET066METAR HRYR 021230Z 03010KT 9999 FEW023CB BKN025 27/17 Q1016 NOSIG=
0151643870999992014010213004-01969+030139FM-15+148199999V0200601N006210076219N009999199+02601+01701999999ADDGA1021+007011091GA2071+007621991GF199999021990007011991991MA1101601999990REMMET066METAR HRYR 021300Z 06012KT 9999 FEW023CB BKN025 26/17 Q1016 NOSIG=
0151643870999992014010213304-01969+030139FM-15+148199999V0200601N006210076219N008000199+02501+01801999999ADDGA1021+007011091GA2071+007621991GF199999021990007011991991MA1101601999990REMMET066METAR HRYR 021330Z 06012KT 8000 FEW023CB BKN025 25/18 Q1016 NOSIG=
0149643870999992014010214004-01969+030139FM-15+148199999V0200601N006710076219N009999199+02401+01801999999ADDGA1071+007621991GA2041+091441991GF199999071990007621991991MA1101601999990REMMET064METAR HRYR 021400Z 06013KT 9999 BKN025 SCT300 24/18 Q1016 NOSIG=
0179643870999992014010214304-01969+030139FM-15+148199999V0200701N003610076219N009999199+02301+01801999999ADDGA1021+007011091GA2071+007621991GA3041+091441991GF199999021990007011991991MA1101601999990REMMET078METAR HRYR 021430Z 07007KT 9999 FEW023CB BKN025 SCT300 23/18 Q1016      NOSIG=
0179643870999992014010215004-01969+030139FM-15+148199999V0200701N003110076219N009999199+02301+01801999999ADDGA1021+007011091GA2071+007621991GA3041+091441991GF199999021990007011991991MA1101601999990REMMET078METAR HRYR 021500Z 07006KT 9999 FEW023CB BKN025 SCT300 23/18 Q1016      NOSIG=
0179643870999992014010215304-01969+030139FM-15+148199999V0200801N001510076219N009999199+02301+01701999999ADDGA1021+007011091GA2071+007621991GA3041+091441991GF199999021990007011991991MA1101601999990REMMET078METAR HRYR 021530Z 08003KT 9999 FEW023CB BKN025 SCT300 23/17 Q1016      NOSIG=
0149643870999992014010216004-01969+030139FM-15+148199999V0209999C000010076219N009999199+02201+01701999999ADDGA1071+007621991GA2041+091441991GF199999071990007621991991MA1101701999990REMMET064METAR HRYR 021600Z 00000KT 9999 BKN025 SCT300 22/17 Q1017 NOSIG=
0149643870999992014010216304-01969+030139FM-15+148199999V0201001N00151030481CN009999199+02201+01701999999ADDGA1041+007621991GA2041+030481991GF199999041990007621991991MA1101701999990REMMET064METAR HRYR 021630Z 10003KT 9999 SCT025 SCT100 22/17 Q1017 NOSIG=
0149643870999992014010217004-01969+030139FM-15+148199999V0209999C00001030481CN009999199+02201+01801999999ADDGA1041+007621991GA2041+030481991GF199999041990007621991991MA1101701999990REMMET064METAR HRYR 021700Z 00000KT 9999 SCT025 SCT100 22/18 Q1017 NOSIG=
0149643870999992014010217304-01969+030139FM-15+148199999V0200801N001510304819N009999199+02101+01801999999ADDGA1041+007621991GA2071+030481991GF199999041990007621991991MA1101801999990REMMET064METAR HRYR 021730Z 08003KT 9999 SCT025 BKN100 21/18 Q1018 NOSIG=
0149643870999992014010218004-01969+030139FM-15+148199999V0201701N001510304819N009999199+02101+01801999999ADDGA1041+007621991GA2071+030481991GF199999041990007621991991MA1101901999990REMMET064METAR HRYR 021800Z 17003KT 9999 SCT025 BKN100 21/18 Q1019 NOSIG=
0149643870999992014010218304-01969+030139FM-15+148199999V0201801N001510304819N009999199+02001+01801999999ADDGA1041+007621991GA2071+030481991GF199999041990007621991991MA1101901999990REMMET064METAR HRYR 021830Z 18003KT 9999 SCT025 BKN100 20/18 Q1019 NOSIG=
0149643870999992014010219004-01969+030139FM-15+148199999V0209999C000010304819N009999199+02001+01801999999ADDGA1041+007621991GA2071+030481991GF199999041990007621991991MA1102001999990REMMET064METAR HRYR 021900Z 00000KT 9999 SCT025 BKN100 20/18 Q1020 NOSIG=
0149643870999992014010219304-01969+030139FM-15+148199999V0202001N001510304819N009999199+02001+01801999999ADDGA1041+007621991GA2071+030481991GF199999041990007621991991MA1102001999990REMMET064METAR HRYR 021930Z 20003KT 9999 SCT025 BKN100 20/18 Q1020 NOSIG=
0149643870999992014010220004-01969+030139FM-15+148199999V0202201N002610304819N009999199+02001+01801999999ADDGA1041+007621991GA2071+030481991GF199999041990007621991991MA1102001999990REMMET064METAR HRYR 022000Z 22005KT 9999 SCT025 BKN100 20/18 Q1020 NOSIG=
0149643870999992014010220304-01969+030139FM-15+148199999V0202001N002110304819N009999199+02001+01901999999ADDGA1041+007621991GA2071+030481991GF199999041990007621991991MA1102001999990REMMET064METAR HRYR 022030Z 20004KT 9999 SCT025 BKN100 20/19 Q1020 NOSIG=
0149643870999992014010221004-01969+030139FM-15+148199999V0202201N00211030481CN009999199+02001+01901999999ADDGA1041+007621991GA2041+030481991GF199999041990007621991991MA1102001999990REMMET064METAR HRYR 022100Z 22004KT 9999 SCT025 SCT100 20/19 Q1020 NOSIG=
0149643870999992014010221304-01969+030139FM-15+148199999V0209999C00001030481CN009999199+01901+01901999999ADDGA1041+007621991GA2041+030481991GF199999041990007621991991MA1102001999990REMMET064METAR HRYR 022130Z 00000KT 9999 SCT025 SCT100 19/19 Q1020 NOSIG=
0149643870999992014010222004-01969+030139FM-15+148199999V0200501N00151030481CN009999199+01901+01901999999ADDGA1041+007621991GA2041+030481991GF199999041990007621991991MA1101901999990REMMET064METAR HRYR 022200Z 05003KT 9999 SCT025 SCT100 19/19 Q1019 NOSIG=
0149643870999992014010222304-01969+030139FM-15+148199999V0209999C00001030481CN009999199+01901+01901999999ADDGA1041+007621991GA2041+030481991GF199999041990007621991991MA1101901999990REMMET064METAR HRYR 022230Z 00000KT 9999 SCT025 SCT100 19/19 Q1019 NOSIG=
0126643870999992014010223004-01969+030139FM-15+148199999V0209999C000019999999N009999199+01901+01901999999ADDGA1041+007621991GF199999041990007621991991MA1101901999990REMMET057METAR HRYR 022300Z 00000KT 9999 SCT025 19/19 Q1019 NOSIG=
0126643870999992014010223304-01969+030139FM-15+148199999V0200401N002119999999N009999199+01801+01801999999ADDGA1041+007621991GF199999041990007621991991MA1101801999990REMMET057METAR HRYR 022330Z 04004KT 9999 SCT025 18/18 Q1018 NOSIG=
0126643870999992014010300004-01969+030139FM-15+148199999V0209999C000019999999N009999199+01801+01801999999ADDGA1041+007621991GF199999041990007621991991MA1101801999990REMMET057METAR HRYR 030000Z 00000KT 9999 SCT025 18/18 Q1018 NOSIG=
0126643870999992014010300304-01969+030139FM-15+148199999V0209999C000019999999N009999199+01801+01801999999ADDGA1041+007621991GF199999041990007621991991MA1101801999990REMMET057METAR HRYR 030030Z 00000KT 9999 SCT025 18/18 Q1018 NOSIG=
0126643870999992014010301004-01969+030139FM-15+148199999V0200601N002119999999N009999199+01801+01801999999ADDGA1041+007621991GF199999041990007621991991MA1101801999990REMMET057METAR HRYR 030100Z 06004KT 9999 SCT025 18/18 Q1018 NOSIG=
0126643870999992014010301304-01969+030139FM-15+148199999V0200601N002119999999N009999199+01801+01801999999ADDGA1041+007621991GF199999041990007621991991MA1101801999990REMMET057METAR HRYR 030130Z 06004KT 9999 SCT025 18/18 Q1018 NOSIG=
0126643870999992014010302004-01969+030139FM-15+148199999V0200201N002119999999N009999199+01701+01701999999ADDGA1041+007621991GF199999041990007621991991MA1101801999990REMMET057METAR HRYR 030200Z 02004KT 9999 SCT025 17/17 Q1018 NOSIG=
0126643870999992014010302304-01969+030139FM-15+148199999V0200201N002119999999N009999199+01701+01701999999ADDGA1041+007621991GF199999041990007621991991MA1101801999990REMMET057METAR HRYR 030230Z 02004KT 9999 SCT025 17/17 Q1018 NOSIG=
0149643870999992014010303004-01969+030139FM-15+148199999V0200501N00211030481CN009999199+01701+01701999999ADDGA1041+007621991GA2041+030481991GF199999041990007621991991MA1101901999990REMMET064METAR HRYR 030300Z 05004KT 9999 SCT025 SCT100 17/17 Q1019 NOSIG=
0126643870999992014010303304-01969+030139FM-15+148199999V0200501N002119999999N009999199+01701+01701999999ADDGA1041+007621991GF199999041990007621991991MA1101901999990REMMET057METAR HRYR 030330Z 05004KT 9999 SCT025 17/17 Q1019 NOSIG=
0126643870999992014010304004-01969+030139FM-15+148199999V0200501N002119999999N008000199+01701+01701999999ADDGA1041+007621991GF199999041990007621991991MA1101901999990REMMET057METAR HRYR 030400Z 05004KT 8000 SCT025 17/17 Q1019 NOSIG=
0160643870999992014010304304-01969+030139FM-15+148199999V0209999C00001007621CN002000199+01701+01701999999ADDGA1021+004571991GA2041+007621991GF199999021990004571991991MA1102001999990MW1401REMMET069METAR HRYR 030430Z 00000KT 2000 VCFG FEW015 SCT025 17/17 Q1020 NOSIG=
0173643870999992014010305004-01969+030139FM-15+148199999V0209999C00001007011CN003000199+01801+01801999999ADDGA1021+003051991GA2041+007011991GF199999021990003051991991MA1102001999990MW1401REMMET082METAR HRYR 030500Z 00000KT 3000 VCFG FEW010 SCT023 18/18 Q1020 BECM      VIS 8000=
0188643870999992014010305304-01969+030139FM-15+148199999V0209999C00001007621CN003000199+01801+01801999999ADDGA1021+004571991GA2041+007621991GA3071+030481991GF199999021990004571991991MA1102001999990MW1401REMMET081METAR HRYR 030530Z 00000KT 3000 VCFG FEW015 SCT025 BKN100 18/18 Q1020      NOSIG=
0242643870999992014010306004-01967+030117FM-12+149799999V0209999C00001030001CN003000199+01851+01851999999ADDAY121021AY221021GA1031+007501081GA2051+030001031GF107991031990007501991991KA1240M+02841KA2240N+01591MA1999990085251ME1315199MW1401REMSYN10064387 32530 70000 10185 20185 38525 48519 74022 8323/ 333 01400 10284 20159 50314 58000 83825 85360=
0160643870999992014010306004-01969+030139FM-15+148199999V0209999C000010304819N003000199+01901+01901999999ADDGA1041+007621991GA2071+030481991GF199999041990007621991991MA1102001999990MW1401REMMET069METAR HRYR 030600Z 00000KT 3000 VCFG SCT025 BKN100 19/19 Q1020 NOSIG=
0160643870999992014010306304-01969+030139FM-15+148199999V0209999C000010304819N003000199+02001+02001999999ADDGA1041+007621991GA2071+030481991GF199999041990007621991991MA1102001999990MW1401REMMET069METAR HRYR 030630Z 00000KT 3000 VCFG SCT025 BKN100 20/20 Q1020 NOSIG=
0149643870999992014010307004-01969+030139FM-15+148199999V0209999C00001030481CN006000199+02201+02001999999ADDGA1021+006101991GA2041+030481991GF199999021990006101991991MA1102101999990REMMET064METAR HRYR 030700Z 00000KT 6000 FEW020 SCT100 22/20 Q1021 NOSIG=
0149643870999992014010307304-01969+030139FM-15+148199999V0209999C00001030481CN007000199+02301+01901999999ADDGA1021+006101991GA2041+030481991GF199999021990006101991991MA1102101999990REMMET064METAR HRYR 030730Z 00000KT 7000 FEW020 SCT100 23/19 Q1021 NOSIG=
0149643870999992014010308004-01969+030139FM-15+148199999V0209999C00001030481CN007000199+02401+02001999999ADDGA1041+007011991GA2041+030481991GF199999041990007011991991MA1102101999990REMMET064METAR HRYR 030800Z 00000KT 7000 SCT023 SCT100 24/20 Q1021 NOSIG=
0149643870999992014010309004-01969+030139FM-15+148199999V0209999C000010070119N008000199+02501+01901999999ADDGA1071+007011991GA2041+030481991GF199999071990007011991991MA1102001999990REMMET064METAR HRYR 030900Z 00000KT 8000 BKN023 SCT100 25/19 Q1020 NOSIG=
0149643870999992014010309304-01969+030139FM-15+148199999V0209999C000010070119N008000199+02401+01901999999ADDGA1071+007011991GA2041+030481991GF199999071990007011991991MA1102001999990REMMET064METAR HRYR 030930Z 00000KT 8000 BKN023 SCT100 24/19 Q1020 NOSIG=
0126643870999992014010310004-01969+030139FM-15+148199999V0209999C000010070119N008000199+02401+01901999999ADDGA1071+007011991GF199999071990007011991991MA1101901999990REMMET057METAR HRYR 031000Z 00000KT 8000 BKN023 24/19 Q1019 NOSIG=
0126643870999992014010310304-01969+030139FM-15+148199999V0209999C000010070119N009000199+02601+01901999999ADDGA1071+007011991GF199999071990007011991991MA1102001999990REMMET057METAR HRYR 031030Z 00000KT 9000 BKN023 26/19 Q1020 NOSIG=
0154643870999992014010311004-01969+030139FM-15+148199999V0200301N003610076219N009999199+02601+01801999999ADDGA1021+007011091GA2071+007621991GF199999021990007011991991MA1101801999990REMMET069METAR HRYR 031100Z 03007KT 9999 FEW023CB BKN025 26/18 Q1018 TEMPO TS=
0154643870999992014010311304-01969+030139FM-15+148199999V0200501N002110076219N009999199+02601+01701999999ADDGA1021+007011091GA2071+007621991GF199999021990007011991991MA1101801999990REMMET069METAR HRYR 031130Z 05004KT 9999 FEW023CB BKN025 26/17 Q1018 TEMPO TS=
0157643870999992014010312004-01969+030139FM-15+148199999V0200301N002610076219N009999199+02601+01701999999ADDGA1021+007011091GA2071+007621991GF199999021990007011991991MA1101801999990REMMET072METAR HRYR 031200Z 03005KT 9999 FEW023CB BKN025 26/17 Q1018 TEMPO -TSRA=
0151643870999992014010312304-01969+030139FM-15+148199999V0200401N00211007621CN009999199+02701+01701999999ADDGA1021+007011091GA2041+007621991GF199999021990007011991991MA1101701999990REMMET066METAR HRYR 031230Z 04004KT 9999 FEW023CB SCT025 27/17 Q1017 NOSIG=
0151643870999992014010313004-01969+030139FM-15+148199999V0200401N00151007621CN009999199+02801+01701999999ADDGA1021+007011091GA2041+007621991GF199999021990007011991991MA1101601999990REMMET066METAR HRYR 031300Z 04003KT 9999 FEW023CB SCT025 28/17 Q1016 NOSIG=
0151643870999992014010313304-01969+030139FM-15+148199999V0200801N00261007621CN009999199+02901+01801999999ADDGA1021+007011091GA2041+007621991GF199999021990007011991991MA1101601999990REMMET066METAR HRYR 031330Z 08005KT 9999 FEW023CB SCT025 29/18 Q1016 NOSIG=
0151643870999992014010314004-01969+030139FM-15+148199999V0200901N003619999999N009999199+02801+01501999999ADDGA1041+007011991GA2021+007621091GF199999041990007011991991MA1101601999990REMMET066METAR HRYR 031400Z 09007KT 9999 SCT023 FEW025CB 28/15 Q1016 NOSIG=
0151643870999992014010314304-01969+030139FM-15+148199999V0200701N00411007621CN009999199+02801+01701999999ADDGA1021+007011091GA2041+007621991GF199999021990007011991991MA1101601999990REMMET066METAR HRYR 031430Z 07008KT 9999 FEW023CB SCT025 28/17 Q1016 NOSIG=
0151643870999992014010315004-01969+030139FM-15+148199999V0200301N00361007621CN009999199+02701+01701999999ADDGA1021+007011091GA2041+007621991GF199999021990007011991991MA1101601999990REMMET066METAR HRYR 031500Z 03007KT 9999 FEW023CB SCT025 27/17 Q1016 NOSIG=
0154643870999992014010315304-01969+030139FM-15+148199999V0200601N00881007621CN009999199+02701+01801999999ADDGA1021+007011091GA2041+007621991GF199999021990007011991991MA1101701999990REMMET069METAR HRYR 031530Z 06017KT 9999 FEW023CB SCT025 27/18 Q1017 TEMPO TS=
0151643870999992014010316004-01969+030139FM-15+148199999V0200401N00671007621CN009999199+02401+01801999999ADDGA1021+007011091GA2041+007621991GF199999021990007011991991MA1101701999990REMMET066METAR HRYR 031600Z 04013KT 9999 FEW023CB SCT025 24/18 Q1017 NOSIG=
0151643870999992014010316304-01969+030139FM-15+148199999V0200601N00511007621CN009999199+02401+01801999999ADDGA1021+007011091GA2041+007621991GF199999021990007011991991MA1101701999990REMMET066METAR HRYR 031630Z 06010KT 9999 FEW023CB SCT025 24/18 Q1017 NOSIG=
0151643870999992014010317004-01969+030139FM-15+148199999V0200501N00411007621CN009999199+02301+01701999999ADDGA1021+007011091GA2041+007621991GF199999021990007011991991MA1101801999990REMMET066METAR HRYR 031700Z 05008KT 9999 FEW023CB SCT025 23/17 Q1018 NOSIG=
0126643870999992014010318004-01969+030139FM-15+148199999V0209999C000019999999N009999199+02201+01701999999ADDGA1041+007621991GF199999041990007621991991MA1101801999990REMMET057METAR HRYR 031800Z 00000KT 9999 SCT025 22/17 Q1018 NOSIG=
0126643870999992014010319004-01969+030139FM-15+148199999V0209999C000019999999N009999199+02101+01701999999ADDGA1041+007621991GF199999041990007621991991MA1101901999990REMMET057METAR HRYR 031900Z 00000KT 9999 SCT025 21/17 Q1019 NOSIG=
0126643870999992014010319304-01969+030139FM-15+148199999V0209999C000019999999N009999199+02101+01701999999ADDGA1041+007621991GF199999041990007621991991MA1101901999990REMMET057METAR HRYR 031930Z 00000KT 9999 SCT025 21/17 Q1019 NOSIG=
0126643870999992014010320004-01969+030139FM-15+148199999V0209999C000019999999N009999199+02101+01701999999ADDGA1041+007621991GF199999041990007621991991MA1101901999990REMMET057METAR HRYR 032000Z 00000KT 9999 SCT025 21/17 Q1019 NOSIG=
0126643870999992014010320304-01969+030139FM-15+148199999V0209999C000019999999N009999199+02101+01701999999ADDGA1041+007621991GF199999041990007621991991MA1101901999990REMMET057METAR HRYR 032030Z 00000KT 9999 SCT025 21/17 Q1019 NOSIG=
0126643870999992014010321004-01969+030139FM-15+148199999V0209999C000019999999N009999199+02001+01701999999ADDGA1041+007621991GF199999041990007621991991MA1101901999990REMMET057METAR HRYR 032100Z 00000KT 9999 SCT025 20/17 Q1019 NOSIG=
0126643870999992014010321304-01969+030139FM-15+148199999V0203401N002619999999N009999199+02001+01701999999ADDGA1041+007621991GF199999041990007621991991MA1101901999990REMMET057METAR HRYR 032130Z 34005KT 9999 SCT025 20/17 Q1019 NOSIG=
0126643870999992014010322004-01969+030139FM-15+148199999V0203301N001519999999N009999199+01901+01701999999ADDGA1041+007621991GF199999041990007621991991MA1101901999990REMMET057METAR HRYR 032200Z 33003KT 9999 SCT025 19/17 Q1019 NOSIG=
0126643870999992014010322304-01969+030139FM-15+148199999V0203301N001519999999N009999199+01901+01701999999ADDGA1021+007621991GF199999021990007621991991MA1101801999990REMMET057METAR HRYR 032230Z 33003KT 9999 FEW025 19/17 Q1018 NOSIG=
0126643870999992014010323004-01969+030139FM-15+148199999V0203301N002619999999N009999199+01901+01701999999ADDGA1021+007621991GF199999021990007621991991MA1101801999990REMMET057METAR HRYR 032300Z 33005KT 9999 FEW025 19/17 Q1018 NOSIG=
0103643870999992014010323304-01969+030139FM-15+148199999V0209999N999999999999N011265199+01801+01701999999ADDMA1101801999990REMMET057METAR HRYR 032330Z 0000OKT 9999 FEW025 18/17 Q1018 NOSIG=EQDD01      0ADE693
0126643870999992014010400004-01969+030139FM-15+148199999V0202301N001519999999N009999199+01801+01701999999ADDGA1021+007621991GF199999021990007621991991MA1101801999990REMMET057METAR HRYR 040000Z 23003KT 9999 FEW025 18/17 Q1018 NOSIG=
0126643870999992014010400304-01969+030139FM-15+148199999V0209999C000019999999N009999199+01801+01701999999ADDGA1021+007621991GF199999021990007621991991MA1101801999990REMMET057METAR HRYR 040030Z 00000KT 9999 FEW025 18/17 Q1018 NOSIG=
0126643870999992014010401004-01969+030139FM-15+148199999V0209999C000019999999N009999199+01701+01701999999ADDGA1041+007621991GF199999041990007621991991MA1101801999990REMMET057METAR HRYR 040100Z 00000KT 9999 SCT025 17/17 Q1018 NOSIG=
0149643870999992014010401304-01969+030139FM-15+148199999V0209999C00001091441CN009999199+01701+01701999999ADDGA1021+007621991GA2041+091441991GF199999021990007621991991MA1101801999990REMMET064METAR HRYR 040130Z 00000KT 9999 FEW025 SCT300 17/17 Q1018 NOSIG=
0149643870999992014010402004-01969+030139FM-15+148199999V0203601N00211091441CN008000199+01601+01601999999ADDGA1021+007621991GA2041+091441991GF199999021990007621991991MA1101801999990REMMET064METAR HRYR 040200Z 36004KT 8000 FEW025 SCT300 16/16 Q1018 NOSIG=
0149643870999992014010402304-01969+030139FM-15+148199999V0203101N00261091441CN008000199+01601+01601999999ADDGA1021+007011991GA2041+091441991GF199999021990007011991991MA1101801999990REMMET064METAR HRYR 040230Z 31005KT 8000 FEW023 SCT300 16/16 Q1018 NOSIG=
0149643870999992014010403004-01969+030139FM-15+148199999V0209999C00001091441CN008000199+01601+01601999999ADDGA1021+007011991GA2041+091441991GF199999021990007011991991MA1101801999990REMMET064METAR HRYR 040300Z 00000KT 8000 FEW023 SCT300 16/16 Q1018 NOSIG=
0149643870999992014010403304-01969+030139FM-15+148199999V0203201N00211091441CN008000199+01501+01501999999ADDGA1021+007011991GA2041+091441991GF199999021990007011991991MA1101901999990REMMET064METAR HRYR 040330Z 32004KT 8000 FEW023 SCT300 15/15 Q1019 NOSIG=
0126643870999992014010404004-01969+030139FM-15+148199999V0203601N002619999999N008000199+01601+01601999999ADDGA1021+006711991GF199999021990006711991991MA1101901999990REMMET057METAR HRYR 040400Z 36005KT 8000 FEW022 16/16 Q1019 NOSIG=
0126643870999992014010404304-01969+030139FM-15+148199999V0203501N001519999999N009999199+01601+01601999999ADDGA1021+006711991GF199999021990006711991991MA1101901999990REMMET057METAR HRYR 040430Z 35003KT 9999 FEW022 16/16 Q1019 NOSIG=
0126643870999992014010405004-01969+030139FM-15+148199999V0209999C000019999999N009999199+01701+01701999999ADDGA1021+006711991GF199999021990006711991991MA1102001999990REMMET057METAR HRYR 040500Z 00000KT 9999 FEW022 17/17 Q1020 NOSIG=
0126643870999992014010405304-01969+030139FM-15+148199999V0209999C000019999999N009999199+01801+01701999999ADDGA1041+007621991GF199999041990007621991991MA1102001999990REMMET057METAR HRYR 040530Z 00000KT 9999 SCT025 18/17 Q1020 NOSIG=
0126643870999992014010406004-01969+030139FM-15+148199999V0209999C000019999999N009999199+01901+01701999999ADDGA1041+007621991GF199999041990007621991991MA1102001999990REMMET057METAR HRYR 040600Z 00000KT 9999 SCT025 19/17 Q1020 NOSIG=
0126643870999992014010406304-01969+030139FM-15+148199999V0209999C000019999999N009999199+02101+01901999999ADDGA1041+007621991GF199999041990007621991991MA1102001999990REMMET057METAR HRYR 040630Z 00000KT 9999 SCT025 21/19 Q1020 NOSIG=
0126643870999992014010407004-01969+030139FM-15+148199999V0209999C000019999999N009999199+02301+01801999999ADDGA1041+007621991GF199999041990007621991991MA1102101999990REMMET057METAR HRYR 040700Z 00000KT 9999 SCT025 23/18 Q1021 NOSIG=
0126643870999992014010407304-01969+030139FM-15+148199999V0202401N002119999999N009999199+02401+01801999999ADDGA1041+007621991GF199999041990007621991991MA1102101999990REMMET057METAR HRYR 040730Z 24004KT 9999 SCT025 24/18 Q1021 NOSIG=
0126643870999992014010408004-01969+030139FM-15+148199999V0202701N001519999999N009999199+02501+01801999999ADDGA1041+007621991GF199999041990007621991991MA1102001999990REMMET057METAR HRYR 040800Z 27003KT 9999 SCT025 25/18 Q1020 NOSIG=
0126643870999992014010408304-01969+030139FM-15+148199999V0209999C000019999999N009999199+02501+01801999999ADDGA1041+007621991GF199999041990007621991991MA1102001999990REMMET057METAR HRYR 040830Z 00000KT 9999 SCT025 25/18 Q1020 NOSIG=
0126643870999992014010409004-01969+030139FM-15+148199999V0209999C000019999999N009999199+02801+01801999999ADDGA1041+007621991GF199999041990007621991991MA1102001999990REMMET057METAR HRYR 040900Z 00000KT 9999 SCT025 28/18 Q1020 NOSIG=
0126643870999992014010413004-01969+030139FM-15+148199999V0202401N003110070119N009999199+02901+01501999999ADDGA1071+007011991GF199999071990007011991991MA1101601999990REMMET057METAR HRYR 041300Z 24006KT 9999 BKN023 29/15 Q1016 NOSIG=
0126643870999992014010414304-01969+030139FM-15+148199999V0201401N003119999999N009999199+03001+01601999999ADDGA1041+007011991GF199999041990007011991991MA1101501999990REMMET057METAR HRYR 041430Z 14006KT 9999 SCT023 30/16 Q1015 NOSIG=
0126643870999992014010415004-01969+030139FM-15+148199999V0201601N003119999999N009999199+02901+01601999999ADDGA1041+007011991GF199999041990007011991991MA1101501999990REMMET057METAR HRYR 041500Z 16006KT 9999 SCT023 29/16 Q1015 NOSIG=
0126643870999992014010415304-01969+030139FM-15+148199999V0201601N003119999999N009999199+02801+01601999999ADDGA1041+007011991GF199999041990007011991991MA1101501999990REMMET057METAR HRYR 041530Z 16006KT 9999 SCT023 28/16 Q1015 NOSIG=
0128643870999992014010416004-01969+030139FM-15+148199999V0201801N002119999999N009999199+02701+01601999999ADDGA1021+007011091GF199999021990007011991991MA1101501999990REMMET059METAR HRYR 041600Z 18004KT 9999 FEW023CB 27/16 Q1015 NOSIG=
0128643870999992014010416304-01969+030139FM-15+148199999V0201601N002119999999N009999199+02601+01701999999ADDGA1021+007011091GF199999021990007011991991MA1101601999990REMMET059METAR HRYR 041630Z 16004KT 9999 FEW023CB 26/17 Q1016 NOSIG=
0128643870999992014010417004-01969+030139FM-15+148199999V0201201N001519999999N009999199+02601+01601999999ADDGA1021+007011091GF199999021990007011991991MA1101601999990REMMET059METAR HRYR 041700Z 12003KT 9999 FEW023CB 26/16 Q1016 NOSIG=
0128643870999992014010417304-01969+030139FM-15+148199999V0200401N002619999999N009999199+02601+01601999999ADDGA1021+007011091GF199999021990007011991991MA1101601999990REMMET059METAR HRYR 041730Z 04005KT 9999 FEW023CB 26/16 Q1016 NOSIG=
0126643870999992014010418004-01969+030139FM-15+148199999V0201101N002119999999N009999199+02501+01601999999ADDGA1021+007621991GF199999021990007621991991MA1101701999990REMMET057METAR HRYR 041800Z 11004KT 9999 FEW025 25/16 Q1017 NOSIG=
0126643870999992014010418304-01969+030139FM-15+148199999V0200501N002119999999N009999199+02501+01601999999ADDGA1021+007621991GF199999021990007621991991MA1101701999990REMMET057METAR HRYR 041830Z 05004KT 9999 FEW025 25/16 Q1017 NOSIG=
0126643870999992014010419004-01969+030139FM-15+148199999V0200501N002119999999N009999199+02401+01601999999ADDGA1021+007621991GF199999021990007621991991MA1101801999990REMMET057METAR HRYR 041900Z 05004KT 9999 FEW025 24/16 Q1018 NOSIG=
0126643870999992014010419304-01969+030139FM-15+148199999V0200401N003619999999N009999199+02301+01601999999ADDGA1021+007621991GF199999021990007621991991MA1101801999990REMMET057METAR HRYR 041930Z 04007KT 9999 FEW025 23/16 Q1018 NOSIG=
0126643870999992014010420004-01969+030139FM-15+148199999V0200101N002619999999N009999199+02201+01601999999ADDGA1021+007921991GF199999021990007921991991MA1101801999990REMMET057METAR HRYR 042000Z 01005KT 9999 FEW026 22/16 Q1018 NOSIG=
0126643870999992014010420304-01969+030139FM-15+148199999V0203401N002619999999N009999199+02201+01601999999ADDGA1021+007921991GF199999021990007921991991MA1101801999990REMMET057METAR HRYR 042030Z 34005KT 9999 FEW026 22/16 Q1018 NOSIG=
0126643870999992014010421004-01969+030139FM-15+148199999V0200101N003119999999N009999199+02101+01601999999ADDGA1021+007921991GF199999021990007921991991MA1101801999990REMMET057METAR HRYR 042100Z 01006KT 9999 FEW026 21/16 Q1018 NOSIG=
0126643870999992014010421304-01969+030139FM-15+148199999V0200101N001519999999N009999199+02101+01601999999ADDGA1021+007921991GF199999021990007921991991MA1101801999990REMMET057METAR HRYR 042130Z 01003KT 9999 FEW026 21/16 Q1018 NOSIG=
0078643870999992014010422004-01969+030139FM-15+148199999V0200101N002119999999Y999999999+02101+01701999999ADDMA1101801999990REMMET051METAR HRYR 042200Z 01004KT CAVOK 21/17 Q1018 NOSIG=
0078643870999992014010422304-01969+030139FM-15+148199999V0200101N002619999999Y999999999+02001+01601999999ADDMA1101801999990REMMET051METAR HRYR 042230Z 01005KT CAVOK 20/16 Q1018 NOSIG=
0078643870999992014010423004-01969+030139FM-15+148199999V0203301N001519999999Y999999999+02001+01701999999ADDMA1101801999990REMMET051METAR HRYR 042300Z 33003KT CAVOK 20/17 Q1018 NOSIG=
0078643870999992014010423304-01969+030139FM-15+148199999V0203501N002619999999Y999999999+02001+01701999999ADDMA1101701999990REMMET051METAR HRYR 042330Z 35005KT CAVOK 20/17 Q1017 NOSIG=
0126643870999992014010500004-01969+030139FM-15+148199999V0203101N002119999999N009999199+02001+01701999999ADDGA1021+007621991GF199999021990007621991991MA1101701999990REMMET057METAR HRYR 050000Z 31004KT 9999 FEW025 20/17 Q1017 NOSIG=
0126643870999992014010500304-01969+030139FM-15+148199999V0203201N002619999999N009999199+01901+01701999999ADDGA1021+007621991GF199999021990007621991991MA1101701999990REMMET057METAR HRYR 050030Z 32005KT 9999 FEW025 19/17 Q1017 NOSIG=
0126643870999992014010501004-01969+030139FM-15+148199999V0203501N002619999999N009999199+01901+01701999999ADDGA1021+007621991GF199999021990007621991991MA1101701999990REMMET057METAR HRYR 050100Z 35005KT 9999 FEW025 19/17 Q1017 NOSIG=
0126643870999992014010501304-01969+030139FM-15+148199999V0203401N003119999999N009999199+01901+01701999999ADDGA1021+007621991GF199999021990007621991991MA1101701999990REMMET057METAR HRYR 050130Z 34006KT 9999 FEW025 19/17 Q1017 NOSIG=
0126643870999992014010502004-01969+030139FM-15+148199999V0209999C000019999999N009999199+01901+01701999999ADDGA1021+007621991GF199999021990007621991991MA1101701999990REMMET057METAR HRYR 050200Z 00000KT 9999 FEW025 19/17 Q1017 NOSIG=
0126643870999992014010502304-01969+030139FM-15+148199999V0209999C000019999999N009999199+01801+01701999999ADDGA1021+007621991GF199999021990007621991991MA1101701999990REMMET057METAR HRYR 050230Z 00000KT 9999 FEW025 18/17 Q1017 NOSIG=
0126643870999992014010503004-01969+030139FM-15+148199999V0202101N001519999999N009999199+01701+01701999999ADDGA1021+007621991GF199999021990007621991991MA1101801999990REMMET057METAR HRYR 050300Z 21003KT 9999 FEW025 17/17 Q1018 NOSIG=
0126643870999992014010503304-01969+030139FM-15+148199999V0202301N001519999999N009999199+01701+01701999999ADDGA1021+007621991GF199999021990007621991991MA1101801999990REMMET057METAR HRYR 050330Z 23003KT 9999 FEW025 17/17 Q1018 NOSIG=
0126643870999992014010504004-01969+030139FM-15+148199999V0200101N001519999999N009999199+01701+01701999999ADDGA1021+007621991GF199999021990007621991991MA1101801999990REMMET057METAR HRYR 050400Z 01003KT 9999 FEW025 17/17 Q1018 NOSIG=
0126643870999992014010504304-01969+030139FM-15+148199999V0200301N003119999999N009999199+01701+01701999999ADDGA1021+007621991GF199999021990007621991991MA1101801999990REMMET057METAR HRYR 050430Z 03006KT 9999 FEW025 17/17 Q1018 NOSIG=
0126643870999992014010505004-01969+030139FM-15+148199999V0200501N002619999999N009999199+01901+01701999999ADDGA1021+007621991GF199999021990007621991991MA1101901999990REMMET057METAR HRYR 050500Z 05005KT 9999 FEW025 19/17 Q1019 NOSIG=
0126643870999992014010505304-01969+030139FM-15+148199999V0200301N002619999999N009999199+02101+01801999999ADDGA1021+007621991GF199999021990007621991991MA1101901999990REMMET057METAR HRYR 050530Z 03005KT 9999 FEW025 21/18 Q1019 NOSIG=
0126643870999992014010506004-01969+030139FM-15+148199999V0201601N002119999999N009999199+02201+01801999999ADDGA1021+007621991GF199999021990007621991991MA1101901999990REMMET057METAR HRYR 050600Z 16004KT 9999 FEW025 22/18 Q1019 NOSIG=
0126643870999992014010506304-01969+030139FM-15+148199999V0201601N002119999999N009999199+02201+01801999999ADDGA1021+007621991GF199999021990007621991991MA1101901999990REMMET057METAR HRYR 050630Z 16004KT 9999 FEW025 22/18 Q1019 NOSIG=
0126643870999992014010507004-01969+030139FM-15+148199999V0201601N002119999999N009999199+02601+01901999999ADDGA1021+007621991GF199999021990007621991991MA1101901999990REMMET057METAR HRYR 050700Z 16004KT 9999 FEW025 26/19 Q1019 NOSIG=
0126643870999992014010507304-01969+030139FM-15+148199999V0201801N002119999999N009999199+02601+01901999999ADDGA1021+007621991GF199999021990007621991991MA1101901999990REMMET057METAR HRYR 050730Z 18004KT 9999 FEW025 26/19 Q1019 NOSIG=
0126643870999992014010508004-01969+030139FM-15+148199999V0201801N002119999999N009999199+02601+01801999999ADDGA1021+007621991GF199999021990007621991991MA1101801999990REMMET057METAR HRYR 050800Z 18004KT 9999 FEW025 26/18 Q1018 NOSIG=
0126643870999992014010508304-01969+030139FM-15+148199999V0201201N002119999999N009999199+02701+01801999999ADDGA1021+007621991GF199999021990007621991991MA1101801999990REMMET057METAR HRYR 050830Z 12004KT 9999 FEW025 27/18 Q1018 NOSIG=
0126643870999992014010509004-01969+030139FM-15+148199999V0201201N003119999999N009999199+02801+01701999999ADDGA1041+007011991GF199999041990007011991991MA1101801999990REMMET057METAR HRYR 050900Z 12006KT 9999 SCT023 28/17 Q1018 NOSIG=
0126643870999992014010509304-01969+030139FM-15+148199999V0200601N003119999999N009999199+02801+01601999999ADDGA1041+007011991GF199999041990007011991991MA1101801999990REMMET057METAR HRYR 050930Z 06006KT 9999 SCT023 28/16 Q1018 NOSIG=
0126643870999992014010510004-01969+030139FM-15+148199999V0200601N004110070119N009999199+02901+01401999999ADDGA1071+007011991GF199999071990007011991991MA1101701999990REMMET057METAR HRYR 051000Z 06008KT 9999 BKN023 29/14 Q1017 NOSIG=
0126643870999992014010511004-01969+030139FM-15+148199999V0200501N005110070119N009999199+03101+01501999999ADDGA1071+007011991GF199999071990007011991991MA1101601999990REMMET057METAR HRYR 051100Z 05010KT 9999 BKN023 31/15 Q1016 NOSIG=
0126643870999992014010511304-01969+030139FM-15+148199999V0200501N005110070119N009999199+03101+01601999999ADDGA1071+007011991GF199999071990007011991991MA1101501999990REMMET057METAR HRYR 051130Z 05010KT 9999 BKN023 31/16 Q1015 NOSIG=
0126643870999992014010512004-01969+030139FM-15+148199999V0200601N004619999999N009999199+03001+01501999999ADDGA1041+007011991GF199999041990007011991991MA1101401999990REMMET057METAR HRYR 051200Z 06009KT 9999 SCT023 30/15 Q1014 NOSIG=
0126643870999992014010512304-01969+030139FM-15+148199999V0200501N003119999999N009999199+03101+01501999999ADDGA1041+007011991GF199999041990007011991991MA1101401999990REMMET057METAR HRYR 051230Z 05006KT 9999 SCT023 31/15 Q1014 NOSIG=
0126643870999992014010513304-01969+030139FM-15+148199999V0200601N004619999999N009999199+03001+01601999999ADDGA1041+007011991GF199999041990007011991991MA1101301999990REMMET057METAR HRYR 051330Z 06009KT 9999 SCT023 30/16 Q1013 NOSIG=
0126643870999992014010514004-01969+030139FM-15+148199999V0200501N004619999999N009999199+03101+01501999999ADDGA1041+007011991GF199999041990007011991991MA1101401999990REMMET057METAR HRYR 051400Z 05009KT 9999 SCT023 31/15 Q1014 NOSIG=
0126643870999992014010514304-01969+030139FM-15+148199999V0200501N004619999999N009999199+03101+01401999999ADDGA1041+007011991GF199999041990007011991991MA1101401999990REMMET057METAR HRYR 051430Z 05009KT 9999 SCT023 31/14 Q1014 NOSIG=
0126643870999992014010515004-01969+030139FM-15+148199999V0200501N003619999999N009999199+03001+01601999999ADDGA1041+007011991GF199999041990007011991991MA1101401999990REMMET057METAR HRYR 051500Z 05007KT 9999 SCT023 30/16 Q1014 NOSIG=
0126643870999992014010515304-01969+030139FM-15+148199999V0200301N003119999999N009999199+02901+01701999999ADDGA1041+007011991GF199999041990007011991991MA1101401999990REMMET057METAR HRYR 051530Z 03006KT 9999 SCT023 29/17 Q1014 NOSIG=
0126643870999992014010516004-01969+030139FM-15+148199999V0200301N002619999999N009999199+02801+01601999999ADDGA1041+007011991GF199999041990007011991991MA1101401999990REMMET057METAR HRYR 051600Z 03005KT 9999 SCT023 28/16 Q1014 NOSIG=
0149643870999992014010516304-01969+030139FM-15+148199999V0200201N00311030481CN009999199+02601+01601999999ADDGA1041+007011991GA2041+030481991GF199999041990007011991991MA1101401999990REMMET064METAR HRYR 051630Z 02006KT 9999 SCT023 SCT100 26/16 Q1014 NOSIG=
0149643870999992014010517004-01969+030139FM-15+148199999V0200301N00211030481CN009999199+02501+01601999999ADDGA1041+007011991GA2041+030481991GF199999041990007011991991MA1101501999990REMMET064METAR HRYR 051700Z 03004KT 9999 SCT023 SCT100 25/16 Q1015 NOSIG=
0149643870999992014010518004-01969+030139FM-15+148199999V0200101N00311030481CN009999199+02501+01601999999ADDGA1041+007621991GA2041+030481991GF199999041990007621991991MA1101601999990REMMET064METAR HRYR 051800Z 01006KT 9999 SCT025 SCT100 25/16 Q1016 NOSIG=
0149643870999992014010518304-01969+030139FM-15+148199999V0203401N00361030481CN009999199+02401+01601999999ADDGA1041+007621991GA2041+030481991GF199999041990007621991991MA1101601999990REMMET064METAR HRYR 051830Z 34007KT 9999 SCT025 SCT100 24/16 Q1016 NOSIG=
0159643870999992014010519004-01969+030139FM-15+148199999V0201501N002110304819N009999199+02401+01701999999ADDGA1041+007621991GA2071+030481991GF199999041990007621991991MA1101701999990MW1611REMMET068METAR HRYR 051900Z 15004KT 9999 -RA SCT025 BKN100 24/17 Q1017 NOSIG=
0149643870999992014010519304-01969+030139FM-15+148199999V0201601N002610304819N009999199+02301+01801999999ADDGA1041+007621991GA2071+030481991GF199999041990007621991991MA1101701999990REMMET064METAR HRYR 051930Z 16005KT 9999 SCT025 BKN100 23/18 Q1017 NOSIG=
0149643870999992014010520004-01969+030139FM-15+148199999V0203201N00151030481CN009999199+02201+01801999999ADDGA1041+007621991GA2041+030481991GF199999041990007621991991MA1101801999990REMMET064METAR HRYR 052000Z 32003KT 9999 SCT025 SCT100 22/18 Q1018 NOSIG=
0149643870999992014010520304-01969+030139FM-15+148199999V0202301N001510304819N009999199+02201+01701999999ADDGA1041+007621991GA2071+030481991GF199999041990007621991991MA1101801999990REMMET064METAR HRYR 052030Z 23003KT 9999 SCT025 BKN100 22/17 Q1018 NOSIG=
0149643870999992014010521004-01969+030139FM-15+148199999V0202201N00151030481CN009999199+02201+01701999999ADDGA1041+007621991GA2041+030481991GF199999041990007621991991MA1101801999990REMMET064METAR HRYR 052100Z 22003KT 9999 SCT025 SCT100 22/17 Q1018 NOSIG=
0149643870999992014010521304-01969+030139FM-15+148199999V0201401N00151030481CN009999199+02201+01701999999ADDGA1041+007621991GA2041+030481991GF199999041990007621991991MA1101801999990REMMET064METAR HRYR 052130Z 14003KT 9999 SCT025 SCT100 22/17 Q1018 NOSIG=
0149643870999992014010522004-01969+030139FM-15+148199999V0201501N00211030481CN009999199+02201+01801999999ADDGA1021+007621991GA2041+030481991GF199999021990007621991991MA1101801999990REMMET064METAR HRYR 052200Z 15004KT 9999 FEW025 SCT100 22/18 Q1018 NOSIG=
0149643870999992014010523004-01969+030139FM-15+148199999V0202101N00311030481CN009999199+02001+01801999999ADDGA1021+007621991GA2041+030481991GF199999021990007621991991MA1101801999990REMMET064METAR HRYR 052300Z 21006KT 9999 FEW025 SCT100 20/18 Q1018 NOSIG=
0149643870999992014010523304-01969+030139FM-15+148199999V0202201N00151030481CN009999199+02001+01901999999ADDGA1021+007921991GA2041+030481991GF199999021990007921991991MA1101801999990REMMET064METAR HRYR 052330Z 22003KT 9999 FEW026 SCT100 20/19 Q1018 NOSIG=
0149643870999992014010600004-01969+030139FM-15+148199999V0200301N00211030481CN009999199+02001+01901999999ADDGA1021+007921991GA2041+030481991GF199999021990007921991991MA1101701999990REMMET064METAR HRYR 060000Z 03004KT 9999 FEW026 SCT100 20/19 Q1017 NOSIG=
0149643870999992014010600304-01969+030139FM-15+148199999V0202401N00151030481CN009999199+01901+01801999999ADDGA1021+007921991GA2041+030481991GF199999021990007921991991MA1101701999990REMMET064METAR HRYR 060030Z 24003KT 9999 FEW026 SCT100 19/18 Q1017 NOSIG=
0149643870999992014010602004-01969+030139FM-15+148199999V0202901N00261030481CN009999199+01801+01801999999ADDGA1041+007921991GA2041+030481991GF199999041990007921991991MA1101701999990REMMET064METAR HRYR 060200Z 29005KT 9999 SCT026 SCT100 18/18 Q1017 NOSIG=
0149643870999992014010602304-01969+030139FM-15+148199999V0203301N00151030481CN009999199+01801+01801999999ADDGA1041+007921991GA2041+030481991GF199999041990007921991991MA1101701999990REMMET064METAR HRYR 060230Z 33003KT 9999 SCT026 SCT100 18/18 Q1017 NOSIG=
0126643870999992014010604004-01969+030139FM-15+148199999V0200901N002119999999N008000199+01801+01801999999ADDGA1021+007921991GF199999021990007921991991MA1101901999990REMMET057METAR HRYR 060400Z 09004KT 8000 FEW026 18/18 Q1019 NOSIG=
0149643870999992014010605004-01969+030139FM-15+148199999V0209999C00001091441CN008000199+01801+01801999999ADDGA1021+007921991GA2041+091441991GF199999021990007921991991MA1101901999990REMMET064METAR HRYR 060500Z 00000KT 8000 FEW026 SCT300 18/18 Q1019 NOSIG=
0126643870999992014010605304-01969+030139FM-15+148199999V0209999C000019999999N008000199+01901+01901999999ADDGA1021+007921991GF199999021990007921991991MA1102001999990REMMET057METAR HRYR 060530Z 00000KT 8000 FEW026 19/19 Q1020 NOSIG=
0259643870999992014010606004-01967+030117FM-12+149799999V0200301N00151090001CN010000199+02131+01771999999ADDAA124000021GA1031+007501081GA2031+090001001GA3991+999991001GF105991031990007501991991KA1240M+03121KA2240N+01731MA1999990085201ME1315159REMSYN11264387 12560 50303 10213 20177 38520 48515 69904 82332 333 01458 10312 20173 50594 58006 83825 83080 Q1019 .9HPA=
0149643870999992014010606004-01969+030139FM-15+148199999V0200301N00151091441CN009999199+02101+01801999999ADDGA1021+007621991GA2041+091441991GF199999021990007621991991MA1102001999990REMMET064METAR HRYR 060600Z 03003KT 9999 FEW025 SCT300 21/18 Q1020 NOSIG=
0126643870999992014010606304-01969+030139FM-15+148199999V0200501N001519999999N009999199+02201+01901999999ADDGA1041+007621991GF199999041990007621991991MA1102001999990REMMET057METAR HRYR 060630Z 05003KT 9999 SCT025 22/19 Q1020 NOSIG=
0126643870999992014010607004-01969+030139FM-15+148199999V0209999C000019999999N009999199+02301+01901999999ADDGA1041+007621991GF199999041990007621991991MA1102001999990REMMET057METAR HRYR 060700Z 00000KT 9999 SCT025 23/19 Q1020 NOSIG=
0126643870999992014010607304-01969+030139FM-15+148199999V0209999C000019999999N009999199+02401+01801999999ADDGA1021+007011991GF199999021990007011991991MA1102001999990REMMET057METAR HRYR 060730Z 00000KT 9999 FEW023 24/18 Q1020 NOSIG=
0126643870999992014010608004-01969+030139FM-15+148199999V0201601N002119999999N009999199+02401+01801999999ADDGA1021+007011991GF199999021990007011991991MA1102001999990REMMET057METAR HRYR 060800Z 16004KT 9999 FEW023 24/18 Q1020 NOSIG=
0149643870999992014010609004-01969+030139FM-15+148199999V0201401N00261091441CN009999199+02601+01801999999ADDGA1041+007621991GA2041+091441991GF199999041990007621991991MA1101901999990REMMET064METAR HRYR 060900Z 14005KT 9999 SCT025 SCT300 26/18 Q1019 NOSIG=
0126643870999992014010609304-01969+030139FM-15+148199999V0202501N001519999999N009999199+02601+01901999999ADDGA1041+007011991GF199999041990007011991991MA1101801999990REMMET057METAR HRYR 060930Z 25003KT 9999 SCT023 26/19 Q1018 NOSIG=
0129643870999992014010610004-01969+030139FM-15+148199999V0202201N003110070119N009999199+02701+01801999999ADDGA1071+007011081GF199999071990007011991991MA1101801999990REMMET060METAR HRYR 061000Z 22006KT 9999 BKN023TCU 27/18 Q1018 NOSIG=
0129643870999992014010610304-01969+030139FM-15+148199999V0201701N002110070119N009999199+02701+01801999999ADDGA1071+007011081GF199999071990007011991991MA1101701999990REMMET060METAR HRYR 061030Z 17004KT 9999 BKN023TCU 27/18 Q1017 NOSIG=
0129643870999992014010611004-01969+030139FM-15+148199999V0200801N002110070119N009999199+02801+01801999999ADDGA1071+007011081GF199999071990007011991991MA1101601999990REMMET060METAR HRYR 061100Z 08004KT 9999 BKN023TCU 28/18 Q1016 NOSIG=
0129643870999992014010611304-01969+030139FM-15+148199999V0200701N004610070119N009999199+02801+01601999999ADDGA1071+007011081GF199999071990007011991991MA1101601999990REMMET060METAR HRYR 061130Z 07009KT 9999 BKN023TCU 28/16 Q1016 NOSIG=
0184643870999992014010612004-01967+030117FM-12+149799999V0200701N003610075019N010000199+02761+01621999999ADDGA1051+007501081GA2991+999991031GF107991051990007501991991MA1999990084781MD1909990+0041ME1314719REMSYN07664387 32560 70707 10276 20162 38478 48471 85230 333 58004 85825 Q1014 .3HPA=
0129643870999992014010612004-01969+030139FM-15+148199999V0200301N002610070119N009999199+02801+01601999999ADDGA1071+007011081GF199999071990007011991991MA1101501999990REMMET060METAR HRYR 061200Z 03005KT 9999 BKN023TCU 28/16 Q1015 NOSIG=
0129643870999992014010612304-01969+030139FM-15+148199999V0200401N005110070119N009999199+02901+01601999999ADDGA1071+007011081GF199999071990007011991991MA1101401999990REMMET060METAR HRYR 061230Z 04010KT 9999 BKN023TCU 29/16 Q1014 NOSIG=
0129643870999992014010613004-01969+030139FM-15+148199999V0200601N005710070119N009999199+02801+01601999999ADDGA1071+007011081GF199999071990007011991991MA1101401999990REMMET060METAR HRYR 061300Z 06011KT 9999 BKN023TCU 28/16 Q1014 NOSIG=
0151643870999992014010613304-01969+030139FM-15+148199999V0200501N00621007621CN009999199+02701+01601999999ADDGA1021+007011091GA2041+007621991GF199999021990007011991991MA1101401999990REMMET066METAR HRYR 061330Z 05012KT 9999 FEW023CB SCT025 27/16 Q1014 NOSIG=
0154643870999992014010614004-01969+030139FM-15+148199999V0200401N008819999999N009999199+02801+01601999999ADDGA1041+007011081GA2021+007011091GF199999041990007011991991MA1101401999990REMMET069METAR HRYR 061400Z 04017KT 9999 FEW023CB SCT023TCU 28/16 Q1014 NOSIG=
0151643870999992014010614304-01969+030139FM-15+148199999V0200401N00571007621CN009999199+02801+01701999999ADDGA1021+007011091GA2041+007621991GF199999021990007011991991MA1101401999990REMMET066METAR HRYR 061430Z 04011KT 9999 FEW023CB SCT025 28/17 Q1014 NOSIG=
0151643870999992014010615004-01969+030139FM-15+148199999V0200301N00461007621CN009999199+02701+01601999999ADDGA1021+007011091GA2041+007621991GF199999021990007011991991MA1101501999990REMMET066METAR HRYR 061500Z 03009KT 9999 FEW023CB SCT025 27/16 Q1015 NOSIG=
0151643870999992014010615304-01969+030139FM-15+148199999V0200401N00411007621CN009999199+02601+01501999999ADDGA1021+007011091GA2041+007621991GF199999021990007011991991MA1101501999990REMMET066METAR HRYR 061530Z 04008KT 9999 FEW023CB SCT025 26/15 Q1015 NOSIG=
0151643870999992014010616004-01969+030139FM-15+148199999V0200401N00511007621CN009999199+02501+01601999999ADDGA1021+007011091GA2041+007621991GF199999021990007011991991MA1101501999990REMMET066METAR HRYR 061600Z 04010KT 9999 FEW023CB SCT025 25/16 Q1015 NOSIG=
0151643870999992014010616304-01969+030139FM-15+148199999V0200501N00411007621CN009999199+02401+01601999999ADDGA1021+007011091GA2041+007621991GF199999021990007011991991MA1101501999990REMMET066METAR HRYR 061630Z 05008KT 9999 FEW023CB SCT025 24/16 Q1015 NOSIG=
0126643870999992014010617004-01969+030139FM-15+148199999V0200501N004619999999N009999199+02301+01601999999ADDGA1041+007621991GF199999041990007621991991MA1101501999990REMMET057METAR HRYR 061700Z 05009KT 9999 SCT025 23/16 Q1015 NOSIG=
0126643870999992014010617304-01969+030139FM-15+148199999V0200401N003619999999N009999199+02301+01601999999ADDGA1041+007621991GF199999041990007621991991MA1101601999990REMMET057METAR HRYR 061730Z 04007KT 9999 SCT025 23/16 Q1016 NOSIG=
0126643870999992014010618304-01969+030139FM-15+148199999V0200501N002119999999N009999199+02301+01601999999ADDGA1041+007621991GF199999041990007621991991MA1101701999990REMMET057METAR HRYR 061830Z 05004KT 9999 SCT025 23/16 Q1017 NOSIG=
0126643870999992014010619004-01969+030139FM-15+148199999V0200501N002119999999N009999199+02301+01601999999ADDGA1041+007621991GF199999041990007621991991MA1101701999990REMMET057METAR HRYR 061900Z 05004KT 9999 SCT025 23/16 Q1017 NOSIG=
0126643870999992014010619304-01969+030139FM-15+148199999V0200201N002119999999N009999199+02301+01701999999ADDGA1041+007621991GF199999041990007621991991MA1101701999990REMMET057METAR HRYR 061930Z 02004KT 9999 SCT025 23/17 Q1017 NOSIG=
0149643870999992014010620004-01969+030139FM-15+148199999V0209999C000010076219N009999199+02201+01601999999ADDGA1071+007621991GA2041+030481991GF199999071990007621991991MA1101701999990REMMET064METAR HRYR 062000Z 00000KT 9999 BKN025 SCT100 22/16 Q1017 NOSIG=
0149643870999992014010620304-01969+030139FM-15+148199999V0200401N001510076219N009999199+02301+01601999999ADDGA1071+007621991GA2041+030481991GF199999071990007621991991MA1101701999990REMMET064METAR HRYR 062030Z 04003KT 9999 BKN025 SCT100 23/16 Q1017 NOSIG=
0149643870999992014010621004-01969+030139FM-15+148199999V0209999C000010076219N009999199+02301+01601999999ADDGA1071+007621991GA2041+030481991GF199999071990007621991991MA1101701999990REMMET064METAR HRYR 062100Z 00000KT 9999 BKN025 SCT100 23/16 Q1017 NOSIG=
0149643870999992014010621304-01969+030139FM-15+148199999V0209999C000010076219N009999199+02201+01701999999ADDGA1071+007621991GA2041+030481991GF199999071990007621991991MA1101601999990REMMET064METAR HRYR 062130Z 00000KT 9999 BKN025 SCT100 22/17 Q1016 NOSIG=
0149643870999992014010622004-01969+030139FM-15+148199999V0202201N001510076219N009999199+02101+01701999999ADDGA1071+007621991GA2041+030481991GF199999071990007621991991MA1101601999990REMMET064METAR HRYR 062200Z 22003KT 9999 BKN025 SCT100 21/17 Q1016 NOSIG=
0149643870999992014010622304-01969+030139FM-15+148199999V0202201N001510076219N009999199+02101+01701999999ADDGA1071+007621991GA2041+030481991GF199999071990007621991991MA1101601999990REMMET064METAR HRYR 062230Z 22003KT 9999 BKN025 SCT100 21/17 Q1016 NOSIG=
0126643870999992014010623004-01969+030139FM-15+148199999V0209999C000019999999N009999199+02001+01601999999ADDGA1041+007621991GF199999041990007621991991MA1101601999990REMMET057METAR HRYR 062300Z 00000KT 9999 SCT025 20/16 Q1016 NOSIG=
0126643870999992014010623304-01969+030139FM-15+148199999V0209999C000019999999N009999199+02101+01601999999ADDGA1041+007621991GF199999041990007621991991MA1101601999990REMMET057METAR HRYR 062330Z 00000KT 9999 SCT025 21/16 Q1016 NOSIG=
0126643870999992014010700004-01969+030139FM-15+148199999V0209999C000019999999N009999199+02101+01601999999ADDGA1041+007621991GF199999041990007621991991MA1101601999990REMMET057METAR HRYR 070000Z 00000KT 9999 SCT025 21/16 Q1016 NOSIG=
0126643870999992014010700304-01969+030139FM-15+148199999V0209999C000019999999N009999199+02001+01601999999ADDGA1041+007621991GF199999041990007621991991MA1101601999990REMMET057METAR HRYR 070030Z 00000KT 9999 SCT025 20/16 Q1016 NOSIG=
0126643870999992014010701004-01969+030139FM-15+148199999V0200301N002119999999N009999199+01901+01701999999ADDGA1041+007621991GF199999041990007621991991MA1101601999990REMMET057METAR HRYR 070100Z 03004KT 9999 SCT025 19/17 Q1016 NOSIG=
0126643870999992014010702004-01969+030139FM-15+148199999V0200301N002119999999N009999199+01801+01701999999ADDGA1041+007621991GF199999041990007621991991MA1101601999990REMMET057METAR HRYR 070200Z 03004KT 9999 SCT025 18/17 Q1016 NOSIG=
0126643870999992014010702304-01969+030139FM-15+148199999V0202301N002119999999N009999199+01801+01801999999ADDGA1041+007621991GF199999041990007621991991MA1101701999990REMMET057METAR HRYR 070230Z 23004KT 9999 SCT025 18/18 Q1017 NOSIG=
0126643870999992014010703004-01969+030139FM-15+148199999V0202601N002119999999N009999199+01701+01701999999ADDGA1041+007621991GF199999041990007621991991MA1101701999990REMMET057METAR HRYR 070300Z 26004KT 9999 SCT025 17/17 Q1017 NOSIG=
0126643870999992014010703304-01969+030139FM-15+148199999V0202601N002119999999N009999199+01701+01701999999ADDGA1041+007621991GF199999041990007621991991MA1101701999990REMMET057METAR HRYR 070330Z 26004KT 9999 SCT025 17/17 Q1017 NOSIG=
0126643870999992014010704004-01969+030139FM-15+148199999V0202601N002119999999N008000199+01701+01601999999ADDGA1041+007621991GF199999041990007621991991MA1101801999990REMMET057METAR HRYR 070400Z 26004KT 8000 SCT025 17/16 Q1018 NOSIG=
0126643870999992014010704304-01969+030139FM-15+148199999V0202601N002119999999N008000199+01701+01701999999ADDGA1041+007621991GF199999041990007621991991MA1101801999990REMMET057METAR HRYR 070430Z 26004KT 8000 SCT025 17/17 Q1018 NOSIG=
0126643870999992014010705004-01969+030139FM-15+148199999V0203201N001519999999N008000199+01701+01701999999ADDGA1041+007621991GF199999041990007621991991MA1101801999990REMMET057METAR HRYR 070500Z 32003KT 8000 SCT025 17/17 Q1018 NOSIG=
0126643870999992014010705304-01969+030139FM-15+148199999V0203101N001519999999N008000199+01901+01701999999ADDGA1041+007621991GF199999041990007621991991MA1101801999990REMMET057METAR HRYR 070530Z 31003KT 8000 SCT025 19/17 Q1018 NOSIG=
0172643870999992014010706004-01967+030117FM-12+149799999V0200701N003610075019N010000199+02762+01621999999ADDGA1051+007501081GA2991+999991031GF107991051990007501991991MA1999990084781MD1909990+0041ME1314719REMSYN06464387 32560 70707 10276 20162 38478 48471 85230 333 58004 85825=
0126643870999992014010706004-01969+030139FM-15+148199999V0209999C000019999999N008000199+02001+01701999999ADDGA1021+007621991GF199999021990007621991991MA1101901999990REMMET057METAR HRYR 070600Z 00000KT 8000 FEW025 20/17 Q1019 NOSIG=
0126643870999992014010706304-01969+030139FM-15+148199999V0209999C000019999999N008000199+02301+01601999999ADDGA1021+007621991GF199999021990007621991991MA1101901999990REMMET057METAR HRYR 070630Z 00000KT 8000 FEW025 23/16 Q1019 NOSIG=
0126643870999992014010707004-01969+030139FM-15+148199999V0201501N001519999999N008000199+02501+01701999999ADDGA1041+007621991GF199999041990007621991991MA1101901999990REMMET057METAR HRYR 070700Z 15003KT 8000 SCT025 25/17 Q1019 NOSIG=
0126643870999992014010707304-01969+030139FM-15+148199999V0200501N002119999999N008000199+02501+01901999999ADDGA1041+007621991GF199999041990007621991991MA1101901999990REMMET057METAR HRYR 070730Z 05004KT 8000 SCT025 25/19 Q1019 NOSIG=
0126643870999992014010708004-01969+030139FM-15+148199999V0200801N001519999999N008000199+02601+01801999999ADDGA1041+007621991GF199999041990007621991991MA1101801999990REMMET057METAR HRYR 070800Z 08003KT 8000 SCT025 26/18 Q1018 NOSIG=
0126643870999992014010708304-01969+030139FM-15+148199999V0209999C000019999999N008000199+02601+01801999999ADDGA1041+007621991GF199999041990007621991991MA1101801999990REMMET057METAR HRYR 070830Z 00000KT 8000 SCT025 26/18 Q1018 NOSIG=
0126643870999992014010709004-01969+030139FM-15+148199999V0200701N003110076219N009999199+02701+01801999999ADDGA1071+007621991GF199999071990007621991991MA1101801999990REMMET057METAR HRYR 070900Z 07006KT 9999 BKN025 27/18 Q1018 NOSIG=
0126643870999992014010709304-01969+030139FM-15+148199999V0200401N004610076219N009999199+02601+01701999999ADDGA1071+007621991GF199999071990007621991991MA1101701999990REMMET057METAR HRYR 070930Z 04009KT 9999 BKN025 26/17 Q1017 NOSIG=
0151643870999992014010710004-01969+030139FM-15+148199999V0201101N001510076219N009999199+02601+01601999999ADDGA1021+007011091GA2071+007621991GF199999021990007011991991MA1101701999990REMMET066METAR HRYR 071000Z 11003KT 9999 FEW023CB BKN025 26/16 Q1017 NOSIG=
0151643870999992014010710304-01969+030139FM-15+148199999V0209999C000010076219N009999199+02601+01501999999ADDGA1021+007011091GA2071+007621991GF199999021990007011991991MA1101701999990REMMET066METAR HRYR 071030Z 00000KT 9999 FEW023CB BKN025 26/15 Q1017 NOSIG=
0151643870999992014010711004-01969+030139FM-15+148199999V0201501N002610076219N009999199+02601+01601999999ADDGA1021+007011091GA2071+007621991GF199999021990007011991991MA1101601999990REMMET066METAR HRYR 071100Z 15005KT 9999 FEW023CB BKN025 26/16 Q1016 NOSIG=
0151643870999992014010711304-01969+030139FM-15+148199999V0200401N006210076219N008000199+02501+01701999999ADDGA1021+007011091GA2071+007621991GF199999021990007011991991MA1101601999990REMMET066METAR HRYR 071130Z 04012KT 8000 FEW023CB BKN025 25/17 Q1016 NOSIG=
0184643870999992014010712004-01967+030117FM-12+149799999V0200401N00721007501CN008000199+02741+01671999999ADDGA1011+006901091GA2051+007501081GF107991011990006901991991MA1999990084771MD1909990-0011ME1314709REMSYN07664387 32558 70414 10274 20167 38477 48470 8693/ 333 59001 81923 85825 94963=
0151643870999992014010712004-01969+030139FM-15+148199999V0200401N007210076219N008000199+02701+01701999999ADDGA1021+007011091GA2071+007621991GF199999021990007011991991MA1101501999990REMMET066METAR HRYR 071200Z 04014KT 8000 FEW023CB BKN025 27/17 Q1015 NOSIG=
0126643870999992014010712304-01969+030139FM-15+148199999V0200301N006210076219N008000199+02601+01501999999ADDGA1071+007621991GF199999071990007621991991MA1101401999990REMMET057METAR HRYR 071230Z 03012KT 8000 BKN025 26/15 Q1014 NOSIG=
0149643870999992014010713004-01969+030139FM-15+148199999V0200301N00511030481CN009999199+02701+01601999999ADDGA1041+007621991GA2041+030481991GF199999041990007621991991MA1101401999990REMMET064METAR HRYR 071300Z 03010KT 9999 SCT025 SCT100 27/16 Q1014 NOSIG=
0149643870999992014010714004-01969+030139FM-15+148199999V0200201N00621030481CN009999199+02801+01601999999ADDGA1041+007621991GA2041+030481991GF199999041990007621991991MA1101401999990REMMET064METAR HRYR 071400Z 02012KT 9999 SCT025 SCT100 28/16 Q1014 NOSIG=
0149643870999992014010714304-01969+030139FM-15+148199999V0200201N00511030481CN009999199+02801+01501999999ADDGA1021+007621991GA2041+030481991GF199999021990007621991991MA1101401999990REMMET064METAR HRYR 071430Z 02010KT 9999 FEW025 SCT100 28/15 Q1014 NOSIG=
0149643870999992014010715004-01969+030139FM-15+148199999V0203001N00461030481CN009999199+02701+01401999999ADDGA1041+007921991GA2041+030481991GF199999041990007921991991MA1101401999990REMMET064METAR HRYR 071500Z 30009KT 9999 SCT026 SCT100 27/14 Q1014 NOSIG=
0149643870999992014010715304-01969+030139FM-15+148199999V0200301N00461030481CN009999199+02601+01401999999ADDGA1021+007921991GA2041+030481991GF199999021990007921991991MA1101501999990REMMET064METAR HRYR 071530Z 03009KT 9999 FEW026 SCT100 26/14 Q1015 NOSIG=
0149643870999992014010716004-01969+030139FM-15+148199999V0200401N00211030481CN009999199+02501+01401999999ADDGA1041+007621991GA2041+030481991GF199999041990007621991991MA1101501999990REMMET064METAR HRYR 071600Z 04004KT 9999 SCT025 SCT100 25/14 Q1015 NOSIG=
0149643870999992014010716304-01969+030139FM-15+148199999V0200401N00211030481CN009999199+02501+01401999999ADDGA1041+007621991GA2041+030481991GF199999041990007621991991MA1101601999990REMMET064METAR HRYR 071630Z 04004KT 9999 SCT025 SCT100 25/14 Q1016 NOSIG=
0149643870999992014010717004-01969+030139FM-15+148199999V0200401N00311030481CN009999199+02401+01401999999ADDGA1041+007621991GA2041+030481991GF199999041990007621991991MA1101601999990REMMET064METAR HRYR 071700Z 04006KT 9999 SCT025 SCT100 24/14 Q1016 NOSIG=
0149643870999992014010717304-01969+030139FM-15+148199999V0200501N00361030481CN009999199+02301+01501999999ADDGA1041+007621991GA2041+030481991GF199999041990007621991991MA1101701999990REMMET064METAR HRYR 071730Z 05007KT 9999 SCT025 SCT100 23/15 Q1017 NOSIG=
0149643870999992014010718004-01969+030139FM-15+148199999V0200501N004110304819N009999199+02301+01501999999ADDGA1041+007621991GA2071+030481991GF199999041990007621991991MA1101701999990REMMET064METAR HRYR 071800Z 05008KT 9999 SCT025 BKN100 23/15 Q1017 NOSIG=
0149643870999992014010718304-01969+030139FM-15+148199999V0209999C000010304819N009999199+02301+01601999999ADDGA1041+007621991GA2071+030481991GF199999041990007621991991MA1101701999990REMMET064METAR HRYR 071830Z 00000KT 9999 SCT025 BKN100 23/16 Q1017 NOSIG=
0149643870999992014010719004-01969+030139FM-15+148199999V0209999C000010304819N009999199+02201+01601999999ADDGA1041+007621991GA2071+030481991GF199999041990007621991991MA1101801999990REMMET064METAR HRYR 071900Z 00000KT 9999 SCT025 BKN100 22/16 Q1018 NOSIG=
0149643870999992014010719304-01969+030139FM-15+148199999V0201601N001510304819N009999199+02201+01601999999ADDGA1041+007621991GA2071+030481991GF199999041990007621991991MA1101801999990REMMET064METAR HRYR 071930Z 16003KT 9999 SCT025 BKN100 22/16 Q1018 NOSIG=
0149643870999992014010720004-01969+030139FM-15+148199999V0200701N001510304819N009999199+02201+01601999999ADDGA1041+007621991GA2071+030481991GF199999041990007621991991MA1101801999990REMMET064METAR HRYR 072000Z 07003KT 9999 SCT025 BKN100 22/16 Q1018 NOSIG=
0149643870999992014010720304-01969+030139FM-15+148199999V0209999C00001030481CN009999199+02201+01701999999ADDGA1041+007621991GA2041+030481991GF199999041990007621991991MA1101801999990REMMET064METAR HRYR 072030Z 00000KT 9999 SCT025 SCT100 22/17 Q1018 NOSIG=
0149643870999992014010721004-01969+030139FM-15+148199999V0202301N00211030481CN009999199+02101+01701999999ADDGA1041+007621991GA2041+030481991GF199999041990007621991991MA1101801999990REMMET064METAR HRYR 072100Z 23004KT 9999 SCT025 SCT100 21/17 Q1018 NOSIG=
0149643870999992014010721304-01969+030139FM-15+148199999V0202201N00261030481CN009999199+02101+01601999999ADDGA1041+007621991GA2041+030481991GF199999041990007621991991MA1101801999990REMMET064METAR HRYR 072130Z 22005KT 9999 SCT025 SCT100 21/16 Q1018 NOSIG=
0149643870999992014010722004-01969+030139FM-15+148199999V0202901N00151030481CN009999199+02001+01601999999ADDGA1041+007621991GA2041+030481991GF199999041990007621991991MA1101801999990REMMET064METAR HRYR 072200Z 29003KT 9999 SCT025 SCT100 20/16 Q1018 NOSIG=
0149643870999992014010722304-01969+030139FM-15+148199999V0209999C00001030481CN009999199+02001+01701999999ADDGA1041+007621991GA2041+030481991GF199999041990007621991991MA1101801999990REMMET064METAR HRYR 072230Z 00000KT 9999 SCT025 SCT100 20/17 Q1018 NOSIG=
0149643870999992014010723004-01969+030139FM-15+148199999V0201601N00211030481CN009999199+02101+01701999999ADDGA1041+007921991GA2041+030481991GF199999041990007921991991MA1101701999990REMMET064METAR HRYR 072300Z 16004KT 9999 SCT026 SCT100 21/17 Q1017 NOSIG=
0149643870999992014010723304-01969+030139FM-15+148199999V0209999C00001030481CN009999199+02001+01701999999ADDGA1041+007921991GA2041+030481991GF199999041990007921991991MA1101701999990REMMET064METAR HRYR 072330Z 00000KT 9999 SCT026 SCT100 20/17 Q1017 NOSIG=
0126643870999992014010800004-01969+030139FM-15+148199999V0209999C000019999999N009999199+02001+01701999999ADDGA1041+007921991GF199999041990007921991991MA1101701999990REMMET057METAR HRYR 080000Z 00000KT 9999 SCT026 20/17 Q1017 NOSIG=
0126643870999992014010800304-01969+030139FM-15+148199999V0209999C000019999999N009999199+02001+01701999999ADDGA1041+007921991GF199999041990007921991991MA1101701999990REMMET057METAR HRYR 080030Z 00000KT 9999 SCT026 20/17 Q1017 NOSIG=
0126643870999992014010801004-01969+030139FM-15+148199999V0209999C000019999999N009999199+02001+01701999999ADDGA1041+007921991GF199999041990007921991991MA1101701999990REMMET057METAR HRYR 080100Z 00000KT 9999 SCT026 20/17 Q1017 NOSIG=
0126643870999992014010801304-01969+030139FM-15+148199999V0209999C000019999999N009999199+01901+01701999999ADDGA1041+007921991GF199999041990007921991991MA1101701999990REMMET057METAR HRYR 080130Z 00000KT 9999 SCT026 19/17 Q1017 NOSIG=
0126643870999992014010802004-01969+030139FM-15+148199999V0209999C000019999999N009999199+01801+01701999999ADDGA1041+007921991GF199999041990007921991991MA1101701999990REMMET057METAR HRYR 080200Z 00000KT 9999 SCT026 18/17 Q1017 NOSIG=
0126643870999992014010802304-01969+030139FM-15+148199999V0209999C000019999999N009999199+01801+01701999999ADDGA1041+007921991GF199999041990007921991991MA1101701999990REMMET057METAR HRYR 080230Z 00000KT 9999 SCT026 18/17 Q1017 NOSIG=
0149643870999992014010803004-01969+030139FM-15+148199999V0209999C00001030481CN009999199+01801+01801999999ADDGA1041+007921991GA2041+030481991GF199999041990007921991991MA1101801999990REMMET064METAR HRYR 080300Z 00000KT 9999 SCT026 SCT100 18/18 Q1018 NOSIG=
0149643870999992014010803304-01969+030139FM-15+148199999V0209999C00001030481CN009999199+01801+01701999999ADDGA1041+007921991GA2041+030481991GF199999041990007921991991MA1101801999990REMMET064METAR HRYR 080330Z 00000KT 9999 SCT026 SCT100 18/17 Q1018 NOSIG=
0149643870999992014010804004-01969+030139FM-15+148199999V0202701N001510304819N009999199+01801+01801999999ADDGA1041+007921991GA2071+030481991GF199999041990007921991991MA1101801999990REMMET064METAR HRYR 080400Z 27003KT 9999 SCT026 BKN100 18/18 Q1018 NOSIG=
0149643870999992014010804304-01969+030139FM-15+148199999V0202701N001510304819N009999199+01801+01701999999ADDGA1041+007921991GA2071+030481991GF199999041990007921991991MA1101901999990REMMET064METAR HRYR 080430Z 27003KT 9999 SCT026 BKN100 18/17 Q1019 NOSIG=
0149643870999992014010805004-01969+030139FM-15+148199999V0202701N001510304819N009999199+01801+01701999999ADDGA1041+007921991GA2071+030481991GF199999041990007921991991MA1101901999990REMMET064METAR HRYR 080500Z 27003KT 9999 SCT026 BKN100 18/17 Q1019 NOSIG=
0149643870999992014010805304-01969+030139FM-15+148199999V0209999C000010304819N007000199+01901+01701999999ADDGA1041+007921991GA2071+030481991GF199999041990007921991991MA1101901999990REMMET064METAR HRYR 080530Z 00000KT 7000 SCT026 BKN100 19/17 Q1019 NOSIG=
0214643870999992014010806004-01967+030117FM-12+149799999V0201301N001510300019N007000199+01971+01781999999ADDGA1041+007501081GA2051+030001031GF107991041990007501991991KA1240M+02771KA2240N+01671MA1999990085181ME1315129REMSYN09464387 32557 71303 10197 20178 38518 48512 8423/ 333 01200 10277 20167 50414 58008 84825 85360=
0149643870999992014010806004-01969+030139FM-15+148199999V0201301N001510304819N007000199+02001+01801999999ADDGA1041+007621991GA2071+030481991GF199999041990007621991991MA1102001999990REMMET064METAR HRYR 080600Z 13003KT 7000 SCT025 BKN100 20/18 Q1020 NOSIG=
0149643870999992014010806304-01969+030139FM-15+148199999V0209999C000010304819N007000199+02101+01901999999ADDGA1041+007621991GA2071+030481991GF199999041990007621991991MA1102001999990REMMET064METAR HRYR 080630Z 00000KT 7000 SCT025 BKN100 21/19 Q1020 NOSIG=
0149643870999992014010807004-01969+030139FM-15+148199999V0209999C000010304819N008000199+02201+01801999999ADDGA1041+007621991GA2071+030481991GF199999041990007621991991MA1102001999990REMMET064METAR HRYR 080700Z 00000KT 8000 SCT025 BKN100 22/18 Q1020 NOSIG=
0149643870999992014010807304-01969+030139FM-15+148199999V0209999C000010304819N008000199+02301+01801999999ADDGA1041+007621991GA2071+030481991GF199999041990007621991991MA1102001999990REMMET064METAR HRYR 080730Z 00000KT 8000 SCT025 BKN100 23/18 Q1020 NOSIG=
0126643870999992014010808004-01969+030139FM-15+148199999V0201701N001510076219N008000199+02201+01801999999ADDGA1071+007621991GF199999071990007621991991MA1102001999990REMMET057METAR HRYR 080800Z 17003KT 8000 BKN025 22/18 Q1020 NOSIG=
0126643870999992014010808304-01969+030139FM-15+148199999V0202001N001510076219N008000199+02401+01801999999ADDGA1071+007621991GF199999071990007621991991MA1102001999990REMMET057METAR HRYR 080830Z 20003KT 8000 BKN025 24/18 Q1020 NOSIG=
0149643870999992014010809004-01969+030139FM-15+148199999V0200901N002610076219N008000199+02501+01801999999ADDGA1071+007621991GA2041+030481991GF199999071990007621991991MA1101901999990REMMET064METAR HRYR 080900Z 09005KT 8000 BKN025 SCT100 25/18 Q1019 NOSIG=
0126643870999992014010809304-01969+030139FM-15+148199999V0201501N004110076219N008000199+02501+01801999999ADDGA1071+007621991GF199999071990007621991991MA1101901999990REMMET057METAR HRYR 080930Z 15008KT 8000 BKN025 25/18 Q1019 NOSIG=
0126643870999992014010810004-01969+030139FM-15+148199999V0201601N002610076219N008000199+02501+01801999999ADDGA1071+007621991GF199999071990007621991991MA1101901999990REMMET057METAR HRYR 081000Z 16005KT 8000 BKN025 25/18 Q1019 NOSIG=
0126643870999992014010810304-01969+030139FM-15+148199999V0201301N002110076219N008000199+02501+01801999999ADDGA1071+007621991GF199999071990007621991991MA1101801999990REMMET057METAR HRYR 081030Z 13004KT 8000 BKN025 25/18 Q1018 NOSIG=
0126643870999992014010811004-01969+030139FM-15+148199999V0201001N003110079219N008000199+02701+01801999999ADDGA1071+007921991GF199999071990007921991991MA1101701999990REMMET057METAR HRYR 081100Z 10006KT 8000 BKN026 27/18 Q1017 NOSIG=
0184643870999992014010812004-01967+030117FM-12+149799999V0200201N00671007501CN010000199+02921+01421999999ADDGA1011+006901091GA2051+007501081GF107991011990006901991991MA1999990084831MD1909990+0061ME1314779REMSYN07664387 32560 70213 10292 20142 38483 48477 8693/ 333 58006 81923 85825 94963=
0151643870999992014010812004-01969+030139FM-15+148199999V0200201N006710076219N009999199+02901+01501999999ADDGA1021+007011091GA2071+007621991GF199999021990007011991991MA1101601999990REMMET066METAR HRYR 081200Z 02013KT 9999 FEW023CB BKN025 29/15 Q1016 NOSIG=
0126643870999992014010812304-01969+030139FM-15+148199999V0200201N004110076219N009999199+03001+01501999999ADDGA1071+007621991GF199999071990007621991991MA1101501999990REMMET057METAR HRYR 081230Z 02008KT 9999 BKN025 30/15 Q1015 NOSIG=
0151643870999992014010813004-01969+030139FM-15+148199999V0203401N001510076219N009999199+02901+01401999999ADDGA1021+007011091GA2071+007621991GF199999021990007011991991MA1101501999990REMMET066METAR HRYR 081300Z 34003KT 9999 FEW023CB BKN025 29/14 Q1015 NOSIG=
0170643870999992014010813304-01969+030139FM-15+148199999V0200901N004610076219N009999199+02701+01601999999ADDGA1021+007011091GA2071+007621991GF199999021990007011991991MA1101501999990MW1171REMMET079METAR HRYR 081330Z 09009KT 9999 TS FEW023CB BKN025 27/16 Q1015 TEMPO      TSRA=
0151643870999992014010814004-01969+030139FM-15+148199999V0201401N004610076219N009999199+02601+01701999999ADDGA1021+007011091GA2071+007621991GF199999021990007011991991MA1101501999990REMMET066METAR HRYR 081400Z 14009KT 9999 FEW023CB BKN025 26/17 Q1015 NOSIG=
0151643870999992014010814304-01969+030139FM-15+148199999V0201201N003110076219N009999199+02401+01701999999ADDGA1021+007011091GA2071+007621991GF199999021990007011991991MA1101501999990REMMET066METAR HRYR 081430Z 12006KT 9999 FEW023CB BKN025 24/17 Q1015 NOSIG=
0149643870999992014010815004-01969+030139FM-15+148199999V0201401N002110076219N009999199+02301+01801999999ADDGA1071+007621991GA2041+030481991GF199999071990007621991991MA1101501999990REMMET064METAR HRYR 081500Z 14004KT 9999 BKN025 SCT100 23/18 Q1015 NOSIG=
0149643870999992014010815304-01969+030139FM-15+148199999V0209999C000010076219N009999199+02301+01801999999ADDGA1071+007621991GA2041+030481991GF199999071990007621991991MA1101601999990REMMET064METAR HRYR 081530Z 00000KT 9999 BKN025 SCT100 23/18 Q1016 NOSIG=
0126643870999992014010816004-01969+030139FM-15+148199999V0200801N003119999999N008000199+02301+01701999999ADDGA1041+007621991GF199999041990007621991991MA1101601999990REMMET057METAR HRYR 081600Z 08006KT 8000 SCT025 23/17 Q1016 NOSIG=
0149643870999992014010816304-01969+030139FM-15+148199999V0209999C00001030481CN008000199+02301+01801999999ADDGA1041+007621991GA2041+030481991GF199999041990007621991991MA1101701999990REMMET064METAR HRYR 081630Z 00000KT 8000 SCT025 SCT100 23/18 Q1017 NOSIG=
0149643870999992014010817004-01969+030139FM-15+148199999V0201901N001510304819N008000199+02201+01801999999ADDGA1041+007621991GA2071+030481991GF199999041990007621991991MA1101801999990REMMET064METAR HRYR 081700Z 19003KT 8000 SCT025 BKN100 22/18 Q1018 NOSIG=
0149643870999992014010817304-01969+030139FM-15+148199999V0202201N002610304819N008000199+02101+01901999999ADDGA1041+007621991GA2071+030481991GF199999041990007621991991MA1101801999990REMMET064METAR HRYR 081730Z 22005KT 8000 SCT025 BKN100 21/19 Q1018 NOSIG=
0149643870999992014010818004-01969+030139FM-15+148199999V0202201N001510304819N008000199+02101+01801999999ADDGA1041+007621991GA2071+030481991GF199999041990007621991991MA1101901999990REMMET064METAR HRYR 081800Z 22003KT 8000 SCT025 BKN100 21/18 Q1019 NOSIG=
0149643870999992014010819004-01969+030139FM-15+148199999V0202101N001510304819N008000199+02001+01801999999ADDGA1041+007621991GA2071+030481991GF199999041990007621991991MA1101901999990REMMET064METAR HRYR 081900Z 21003KT 8000 SCT025 BKN100 20/18 Q1019 NOSIG=
0149643870999992014010819304-01969+030139FM-15+148199999V0201901N001510304819N008000199+02001+01801999999ADDGA1041+007621991GA2071+030481991GF199999041990007621991991MA1101901999990REMMET064METAR HRYR 081930Z 19003KT 8000 SCT025 BKN100 20/18 Q1019 NOSIG=
0149643870999992014010820004-01969+030139FM-15+148199999V0201901N002110304819N008000199+02001+01801999999ADDGA1041+007621991GA2071+030481991GF199999041990007621991991MA1101901999990REMMET064METAR HRYR 082000Z 19004KT 8000 SCT025 BKN100 20/18 Q1019 NOSIG=
0149643870999992014010820304-01969+030139FM-15+148199999V0202001N003110304819N008000199+02001+01801999999ADDGA1041+007621991GA2071+030481991GF199999041990007621991991MA1102001999990REMMET064METAR HRYR 082030Z 20006KT 8000 SCT025 BKN100 20/18 Q1020 NOSIG=
0149643870999992014010821004-01969+030139FM-15+148199999V0201901N00261030481CN008000199+01901+01801999999ADDGA1041+007621991GA2041+030481991GF199999041990007621991991MA1102001999990REMMET064METAR HRYR 082100Z 19005KT 8000 SCT025 SCT100 19/18 Q1020 NOSIG=
0149643870999992014010821304-01969+030139FM-15+148199999V0202001N00211030481CN008000199+01901+01901999999ADDGA1041+007621991GA2041+030481991GF199999041990007621991991MA1101901999990REMMET064METAR HRYR 082130Z 20004KT 8000 SCT025 SCT100 19/19 Q1019 NOSIG=
0149643870999992014010823004-01969+030139FM-15+148199999V0209999C00001030481CN008000199+01901+01801999999ADDGA1021+007621991GA2041+030481991GF199999021990007621991991MA1101901999990REMMET064METAR HRYR 082300Z 00000KT 8000 FEW025 SCT100 19/18 Q1019 NOSIG=
0149643870999992014010823304-01969+030139FM-15+148199999V0209999C00001030481CN008000199+01901+01801999999ADDGA1021+007621991GA2041+030481991GF199999021990007621991991MA1101901999990REMMET064METAR HRYR 082330Z 00000KT 8000 FEW025 SCT100 19/18 Q1019 NOSIG=
0149643870999992014010900004-01969+030139FM-15+148199999V0209999C00001030481CN008000199+01801+01801999999ADDGA1021+007621991GA2041+030481991GF199999021990007621991991MA1101901999990REMMET064METAR HRYR 090000Z 00000KT 8000 FEW025 SCT100 18/18 Q1019 NOSIG=
0149643870999992014010901004-01969+030139FM-15+148199999V0209999C00001030481CN008000199+01801+01801999999ADDGA1021+007621991GA2041+030481991GF199999021990007621991991MA1101801999990REMMET064METAR HRYR 090100Z 00000KT 8000 FEW025 SCT100 18/18 Q1018 NOSIG=
0149643870999992014010901304-01969+030139FM-15+148199999V0200301N00211030481CN008000199+01801+01801999999ADDGA1021+007621991GA2041+030481991GF199999021990007621991991MA1101801999990REMMET064METAR HRYR 090130Z 03004KT 8000 FEW025 SCT100 18/18 Q1018 NOSIG=
0149643870999992014010902004-01969+030139FM-15+148199999V0200301N00211030481CN008000199+01801+01801999999ADDGA1021+007621991GA2041+030481991GF199999021990007621991991MA1101801999990REMMET064METAR HRYR 090200Z 03004KT 8000 FEW025 SCT100 18/18 Q1018 NOSIG=
0149643870999992014010902304-01969+030139FM-15+148199999V0200301N002119999999N008000199+01801+01801999999ADDGA1041+007621991GA2021+007621991GF199999041990007621991991MA1101801999990REMMET064METAR HRYR 090230Z 03004KT 8000 FEW025 SCT025 18/18 Q1018 NOSIG=
0118643870999992014010903004-01969+030139FM-15+148199999V0209999N999999999999N008000199+01801+01801999999ADDMA1101901999990REMMET072METAR HRYR 090300Z 090300Z 03004KT 8000 SCT025 SCT025 18/18 Q1019 NOSIG=EQDD01      0ADE539
0149643870999992014010903304-01969+030139FM-15+148199999V0200301N002110070119N007000199+01801+01801999999ADDGA1071+007011991GA2041+007621991GF199999071990007011991991MA1102001999990REMMET064METAR HRYR 090330Z 03004KT 7000 BKN023 SCT025 18/18 Q1020 NOSIG=
0149643870999992014010904004-01969+030139FM-15+148199999V0200501N002110070119N007000199+01801+01801999999ADDGA1071+007011991GA2041+007621991GF199999071990007011991991MA1102001999990REMMET064METAR HRYR 090400Z 05004KT 7000 BKN023 SCT025 18/18 Q1020 NOSIG=
0149643870999992014010904304-01969+030139FM-15+148199999V0200501N00211007621CN007000199+01801+01801999999ADDGA1041+007011991GA2041+007621991GF199999041990007011991991MA1102001999990REMMET064METAR HRYR 090430Z 05004KT 7000 SCT023 SCT025 18/18 Q1020 NOSIG=
0149643870999992014010905004-01969+030139FM-15+148199999V0202801N002110070119N007000199+01801+01801999999ADDGA1071+007011991GA2041+007621991GF199999071990007011991991MA1102101999990REMMET064METAR HRYR 090500Z 28004KT 7000 BKN023 SCT025 18/18 Q1021 NOSIG=
0149643870999992014010905304-01969+030139FM-15+148199999V0209999C000010070119N007000199+01801+01801999999ADDGA1071+007011991GA2041+007621991GF199999071990007011991991MA1102101999990REMMET064METAR HRYR 090530Z 00000KT 7000 BKN023 SCT025 18/18 Q1021 NOSIG=
0188643870999992014010906004-01969+030139FM-15+148199999V0209999C000010070119N004000199+01901+01901999999ADDGA1021+004881991GA2071+007011991GA3041+007621991GF199999021990004881991991MA1102101999990MW1401REMMET081METAR HRYR 090600Z 00000KT 4000 VCFG FEW016 BKN023 SCT025 19/19 Q1021      NOSIG=
0188643870999992014010906304-01969+030139FM-15+148199999V0209999C000010070119N003000199+01901+01901999999ADDGA1021+003051991GA2071+007011991GA3041+007621991GF199999021990003051991991MA1102101999990MW1401REMMET081METAR HRYR 090630Z 00000KT 3000 VCFG FEW010 BKN023 SCT025 19/19 Q1021      NOSIG=
0188643870999992014010907004-01969+030139FM-15+148199999V0200701N001510070119N003000199+02001+01901999999ADDGA1021+003051991GA2071+007011991GA3041+007621991GF199999021990003051991991MA1102201999990MW1401REMMET081METAR HRYR 090700Z 07003KT 3000 VCFG FEW010 BKN023 SCT025 20/19 Q1022      NOSIG=
0149643870999992014010907304-01969+030139FM-15+148199999V0200701N001510070119N008000199+02001+01901999999ADDGA1071+007011991GA2041+030481991GF199999071990007011991991MA1102201999990REMMET064METAR HRYR 090730Z 07003KT 8000 BKN023 SCT100 20/19 Q1022 NOSIG=
0149643870999992014010908004-01969+030139FM-15+148199999V0200801N001510070119N008000199+02001+01901999999ADDGA1071+007011991GA2041+030481991GF199999071990007011991991MA1102201999990REMMET064METAR HRYR 090800Z 08003KT 8000 BKN023 SCT100 20/19 Q1022 NOSIG=
0149643870999992014010908304-01969+030139FM-15+148199999V0209999C000010070119N008000199+02101+01901999999ADDGA1071+007011991GA2041+030481991GF199999071990007011991991MA1102201999990REMMET064METAR HRYR 090830Z 00000KT 8000 BKN023 SCT100 21/19 Q1022 NOSIG=
0149643870999992014010909004-01969+030139FM-15+148199999V0201801N002110070119N008000199+02201+01901999999ADDGA1071+007011991GA2041+030481991GF199999071990007011991991MA1102101999990REMMET064METAR HRYR 090900Z 18004KT 8000 BKN023 SCT100 22/19 Q1021 NOSIG=
0149643870999992014010909304-01969+030139FM-15+148199999V0201501N002110070119N009999199+02201+01901999999ADDGA1071+007011991GA2041+030481991GF199999071990007011991991MA1102101999990REMMET064METAR HRYR 090930Z 15004KT 9999 BKN023 SCT100 22/19 Q1021 NOSIG=
0179643870999992014010910004-01969+030139FM-15+148199999V0201301N002610076219N009999199+02201+01901999999ADDGA1021+007011091GA2071+007621991GA3041+030481991GF199999021990007011991991MA1102101999990REMMET078METAR HRYR 091000Z 13005KT 9999 FEW023CB BKN025 SCT100 22/19 Q1021      NOSIG=
0189643870999992014010910304-01969+030139FM-15+148199999V0201101N002610070119N009999199+02201+01801999999ADDGA1021+006711091GA2071+007011991GA3041+030481991GF199999021990006711991991MA1102001999990MW1611REMMET082METAR HRYR 091030Z 11005KT 9999 -RA FEW022CB BKN023 SCT100 22/18 Q1020      NOSIG=
0179643870999992014010911004-01969+030139FM-15+148199999V0201301N002110076219N009999199+02201+01801999999ADDGA1021+007011091GA2071+007621991GA3041+030481991GF199999021990007011991991MA1101901999990REMMET078METAR HRYR 091100Z 13004KT 9999 FEW023CB BKN025 SCT100 22/18 Q1019      NOSIG=
0179643870999992014010911304-01969+030139FM-15+148199999V0201701N002610076219N009999199+02301+01801999999ADDGA1021+007011091GA2071+007621991GA3041+030481991GF199999021990007011991991MA1101901999990REMMET078METAR HRYR 091130Z 17005KT 9999 FEW023CB BKN025 SCT100 23/18 Q1019      NOSIG=
0151643870999992014010912004-01969+030139FM-15+148199999V0202101N00151007621CN009999199+02501+01801999999ADDGA1021+007011091GA2041+007621991GF199999021990007011991991MA1101801999990REMMET066METAR HRYR 091200Z 21003KT 9999 FEW023CB SCT025 25/18 Q1018 NOSIG=
0151643870999992014010912304-01969+030139FM-15+148199999V0201201N00311007621CN009999199+02501+01801999999ADDGA1021+007011091GA2041+007621991GF199999021990007011991991MA1101701999990REMMET066METAR HRYR 091230Z 12006KT 9999 FEW023CB SCT025 25/18 Q1017 NOSIG=
0151643870999992014010913004-01969+030139FM-15+148199999V0201401N00211007621CN009999199+02501+01801999999ADDGA1021+007011091GA2041+007621991GF199999021990007011991991MA1101601999990REMMET066METAR HRYR 091300Z 14004KT 9999 FEW023CB SCT025 25/18 Q1016 NOSIG=
0161643870999992014010913304-01969+030139FM-15+148199999V0201101N00261007621CN009999199+02401+01901999999ADDGA1021+007011091GA2041+007621991GF199999021990007011991991MA1101601999990MW1611REMMET070METAR HRYR 091330Z 11005KT 9999 -RA FEW023CB SCT025 24/19 Q1016 NOSIG=
0112643870999992014010914004-01969+030139FM-15+148199999V0209999N999999999999N011265199+02401+01901999999ADDMA1101601999990REMMET066METAR HRYR 091400Z 0000OKT 9999 FEW023CB SCT025 24/19 Q1016 NOSIG=EQDD01      0ADE539
0154643870999992014010914304-01969+030139FM-15+148199999V0200201N007710076219N009999199+02401+01801999999ADDGA1021+006401091GA2071+007621991GF199999021990006401991991MA1101601999990REMMET069METAR HRYR 091430Z 02015KT 9999 FEW021CB BKN025 24/18 Q1016 TEMPO TS=
0154643870999992014010915004-01969+030139FM-15+148199999V0203401N003610076219N009999199+02101+01701999999ADDGA1021+006401091GA2071+007621991GF199999021990006401991991MA1101701999990REMMET069METAR HRYR 091500Z 34007KT 9999 FEW021CB BKN025 21/17 Q1017 TEMPO TS=
0151643870999992014010915304-01969+030139FM-15+148199999V0203301N00361007621CN009999199+02101+01701999999ADDGA1021+007011091GA2041+007621991GF199999021990007011991991MA1101701999990REMMET066METAR HRYR 091530Z 33007KT 9999 FEW023CB SCT025 21/17 Q1017 NOSIG=
0151643870999992014010916004-01969+030139FM-15+148199999V0203401N00411007621CN009999199+02101+01601999999ADDGA1021+007011091GA2041+007621991GF199999021990007011991991MA1101701999990REMMET066METAR HRYR 091600Z 34008KT 9999 FEW023CB SCT025 21/16 Q1017 NOSIG=
0151643870999992014010916304-01969+030139FM-15+148199999V0203401N00411007621CN009999199+02101+01601999999ADDGA1021+007011091GA2041+007621991GF199999021990007011991991MA1101701999990REMMET066METAR HRYR 091630Z 34008KT 9999 FEW023CB SCT025 21/16 Q1017 NOSIG=
0126643870999992014010917004-01969+030139FM-15+148199999V0203301N002119999999N009999199+02001+01601999999ADDGA1041+007621991GF199999041990007621991991MA1101801999990REMMET057METAR HRYR 091700Z 33004KT 9999 SCT025 20/16 Q1018 NOSIG=
0126643870999992014010917304-01969+030139FM-15+148199999V0200301N002119999999N009999199+01901+01601999999ADDGA1041+007621991GF199999041990007621991991MA1101801999990REMMET057METAR HRYR 091730Z 03004KT 9999 SCT025 19/16 Q1018 NOSIG=
0126643870999992014010918004-01969+030139FM-15+148199999V0203401N002119999999N009999199+02001+01501999999ADDGA1041+007621991GF199999041990007621991991MA1101901999990REMMET057METAR HRYR 091800Z 34004KT 9999 SCT025 20/15 Q1019 NOSIG=
0126643870999992014010918304-01969+030139FM-15+148199999V0209999C000019999999N009999199+01901+01601999999ADDGA1041+007621991GF199999041990007621991991MA1101901999990REMMET057METAR HRYR 091830Z 00000KT 9999 SCT025 19/16 Q1019 NOSIG=
0126643870999992014010919004-01969+030139FM-15+148199999V0203301N002619999999N009999199+01901+01601999999ADDGA1041+007621991GF199999041990007621991991MA1101901999990REMMET057METAR HRYR 091900Z 33005KT 9999 SCT025 19/16 Q1019 NOSIG=
0126643870999992014010919304-01969+030139FM-15+148199999V0203101N001519999999N009999199+01901+01601999999ADDGA1041+007621991GF199999041990007621991991MA1102001999990REMMET057METAR HRYR 091930Z 31003KT 9999 SCT025 19/16 Q1020 NOSIG=
0126643870999992014010920004-01969+030139FM-15+148199999V0209999C000019999999N009999199+01901+01601999999ADDGA1041+007621991GF199999041990007621991991MA1102001999990REMMET057METAR HRYR 092000Z 00000KT 9999 SCT025 19/16 Q1020 NOSIG=
