0058712230999992014010101004+51930-110720SAO  +077299999V020060190005199999999999999999-02291-02541999999REMAWY049XCS SA 0100 AUTO8 M M M M/-23/-25/0601/M/ M 94MM=
0058712230999992014010102004+51930-110720SAO  +077299999V020340190010199999999999999999-02481-02761999999REMAWY049XCS SA 0200 AUTO8 M M M M/-25/-28/3402/M/ M 86MM=
0058712230999992014010103004+51930-110720SAO  +077299999V020320190015199999999999999999-02481-02741999999REMAWY049XCS SA 0300 AUTO8 M M M M/-25/-27/3203/M/ M 84MM=
0058712230999992014010104004+51930-110720SAO  +077299999V020320190021199999999999999999-02531-02811999999REMAWY049XCS SA 0400 AUTO8 M M M M/-25/-28/3204/M/ M 31MM=
0058712230999992014010105004+51930-110720SAO  +077299999V020300190021199999999999999999-02621-02901999999REMAWY049XCS SA 0500 AUTO8 M M M M/-26/-29/3004/M/ M 20MM=
0118712230999992014010106004+51933-110700FM-12+077299999V0203201N002619999999N999999999-02551-02831999999ADDAA106000091AA224999919KA1240M-01951KA2240N-02641REMSYN05871223 15/// /3205 11255 21283 60001 333 11195 21264 7////=
0058712230999992014010106004+51930-110720SAO  +077299999V020320190026199999999999999999-02551-02831999999REMAWY049XCS SA 0600 AUTO8 M M M M/-26/-28/3205/M/ M 53MM=
0058712230999992014010107004+51930-110720SAO  +077299999V020240190010199999999999999999-02491-02761999999REMAWY049XCS SA 0700 AUTO8 M M M M/-25/-28/2402/M/ M 96MM=
0058712230999992014010108004+51930-110720SAO  +077299999V020310190021199999999999999999-02461-02731999999REMAWY049XCS SA 0800 AUTO8 M M M M/-25/-27/3104/M/ M 63MM=
0058712230999992014010109004+51930-110720SAO  +077299999V020300190010199999999999999999-02391-02551999999REMAWY049XCS SA 0900 AUTO8 M M M M/-24/-26/3002/M/ M 95MM=
0058712230999992014010110004+51930-110720SAO  +077299999V020250190010199999999999999999-02231-02491999999REMAWY049XCS SA 1000 AUTO8 M M M M/-22/-25/2502/M/ M 39MM=
0058712230999992014010111004+51930-110720SAO  +077299999V020210190010199999999999999999-02351-02611999999REMAWY049XCS SA 1100 AUTO8 M M M M/-24/-26/2102/M/ M 51MM=
0118712230999992014010112004+51933-110700FM-12+077299999V0202201N001519999999N999999999-02291-02541999999ADDAA106000091AA224999919KA1240M-01951KA2240N-02641REMSYN05871223 15/// /2203 11229 21254 60001 333 11195 21264 7////=
0058712230999992014010112004+51930-110720SAO  +077299999V020220190015199999999999999999-02291-02541999999REMAWY049XCS SA 1200 AUTO8 M M M M/-23/-25/2203/M/ M 94MM=
0058712230999992014010113004+51930-110720SAO  +077299999V020230190021199999999999999999-02271-02521999999REMAWY049XCS SA 1300 AUTO8 M M M M/-23/-25/2304/M/ M 72MM=
0058712230999992014010114004+51930-110720SAO  +077299999V020230190021199999999999999999-02181-02421999999REMAWY049XCS SA 1400 AUTO8 M M M M/-22/-24/2304/M/ M 82MM=
0058712230999992014010115004+51930-110720SAO  +077299999V020240190010199999999999999999-02101-02331999999REMAWY049XCS SA 1500 AUTO8 M M M M/-21/-23/2402/M/ M 03MM=
0058712230999992014010116004+51930-110720SAO  +077299999V020190190010199999999999999999-02001-02231999999REMAWY049XCS SA 1600 AUTO8 M M M M/-20/-22/1902/M/ M 03MM=
0058712230999992014010117004+51930-110720SAO  +077299999V020120190005199999999999999999-01921-02141999999REMAWY049XCS SA 1700 AUTO8 M M M M/-19/-21/1201/M/ M 24MM=
0118712230999992014010118004+51933-110700FM-12+077299999V0200701N002119999999N999999999-01921-02161999999ADDAA106000091AA224999919KA1120M-01851KA2120N-02641REMSYN05871223 15/// /0704 11192 21216 60001 333 11185 21264 7////=
0058712230999992014010118004+51930-110720SAO  +077299999V020070190021199999999999999999-01921-02161999999REMAWY049XCS SA 1800 AUTO8 M M M M/-19/-22/0704/M/ M 26MM=
0058712230999992014010119004+51930-110720SAO  +077299999V020100190015199999999999999999-01921-02141999999REMAWY049XCS SA 1900 AUTO8 M M M M/-19/-21/1003/M/ M 24MM=
0058712230999992014010120004+51930-110720SAO  +077299999V020100190015199999999999999999-01831-02061999999REMAWY049XCS SA 2000 AUTO8 M M M M/-18/-21/1003/M/ M 36MM=
0058712230999992014010121004+51930-110720SAO  +077299999V020080190015199999999999999999-01801-02031999999REMAWY049XCS SA 2100 AUTO8 M M M M/-18/-20/0803/M/ M 03MM=
0058712230999992014010122004+51930-110720SAO  +077299999V020090190021199999999999999999-01791-02011999999REMAWY049XCS SA 2200 AUTO8 M M M M/-18/-20/0904/M/ M 91MM=
0058712230999992014010123004+51930-110720SAO  +077299999V020100190021199999999999999999-01771-01971999999REMAWY049XCS SA 2300 AUTO8 M M M M/-18/-20/1004/M/ M 77MM=
0118712230999992014010200004+51933-110700FM-12+077299999V0200901N002619999999N999999999-01811-02011999999ADDAA106000091AA224000091KA1120M-01771KA2120N-02591REMSYN05871223 15/// /0905 11181 21201 60001 333 11177 21259 70000=
0058712230999992014010200004+51930-110720SAO  +077299999V020090190026199999999999999999-01811-02011999999REMAWY049XCS SA 0000 AUTO8 M M M M/-18/-20/0905/M/ M 11MM=
0058712230999992014010201004+51930-110720SAO  +077299999V020090190031199999999999999999-01801-02001999999REMAWY049XCS SA 0100 AUTO8 M M M M/-18/-20/0906/M/ M 00MM=
0058712230999992014010202004+51930-110720SAO  +077299999V020110190031199999999999999999-01761-01951999999REMAWY049XCS SA 0200 AUTO8 M M M M/-18/-20/1106/M/ M 65MM=
0058712230999992014010203004+51930-110720SAO  +077299999V020140190021199999999999999999-01711-01901999999REMAWY049XCS SA 0300 AUTO8 M M M M/-17/-19/1404/M/ M 10MM=
0058712230999992014010204004+51930-110720SAO  +077299999V020110190031199999999999999999-01841-02041999999REMAWY049XCS SA 0400 AUTO8 M M M M/-18/-20/1106/M/ M 44MM=
0058712230999992014010205004+51930-110720SAO  +077299999V020140190031199999999999999999-01861-02071999999REMAWY049XCS SA 0500 AUTO8 M M M M/-19/-21/1406/M/ M 67MM=
0118712230999992014010206004+51933-110700FM-12+077299999V0201801N003619999999N999999999-01931-02161999999ADDAA106000091AA224000091KA1240M-01701KA2240N-02591REMSYN05871223 15/// /1807 11193 21216 60001 333 11170 21259 70000=
0058712230999992014010206004+51930-110720SAO  +077299999V020180190036199999999999999999-01931-02161999999REMAWY049XCS SA 0600 AUTO8 M M M M/-19/-22/1807/M/ M 36MM=
0058712230999992014010207004+51930-110720SAO  +077299999V020180190046199999999999999999-01901-02111999999REMAWY049XCS SA 0700 AUTO8 M M M M/-19/-21/1809/M/ M 01MM=
0058712230999992014010208004+51930-110720SAO  +077299999V020160190041199999999999999999-01791-01981999999REMAWY049XCS SA 0800 AUTO8 M M M M/-18/-20/1608/M/ M 98MM=
0058712230999992014010209004+51930-110720SAO  +077299999V020170190041199999999999999999-01641-01821999999REMAWY049XCS SA 0900 AUTO8 M M M M/-16/-18/1708/M/ M 42MM=
0058712230999992014010210004+51930-110720SAO  +077299999V020110190031199999999999999999-01811-02001999999REMAWY049XCS SA 1000 AUTO8 M M M M/-18/-20/1106/M/ M 10MM=
0058712230999992014010211004+51930-110720SAO  +077299999V020130190026199999999999999999-01581-01741999999REMAWY049XCS SA 1100 AUTO8 M M M M/-16/-17/1305/M/ M 84MM=
0124712230999992014010212004+51933-110700FM-12+077299999V0201601N004619999999N999999999-01381-01541999999ADDAA106000091AA224000091KA1240N-01901REMSYN05871223 15/// /1609 11138 21154 60001 333 11170 21194 70000=EQDQ01-17   2EATMX 
0058712230999992014010212004+51930-110720SAO  +077299999V020160190046199999999999999999-01381-01541999999REMAWY049XCS SA 1200 AUTO8 M M M M/-14/-15/1609/M/ M 84MM=
0058712230999992014010213004+51930-110720SAO  +077299999V020110190041199999999999999999-01391-01541999999REMAWY049XCS SA 1300 AUTO8 M M M M/-14/-15/1108/M/ M 94MM=
0058712230999992014010214004+51930-110720SAO  +077299999V020120190041199999999999999999-01401-01551999999REMAWY049XCS SA 1400 AUTO8 M M M M/-14/-16/1208/M/ M 05MM=
0058712230999992014010215004+51930-110720SAO  +077299999V020100190026199999999999999999-01451-01611999999REMAWY049XCS SA 1500 AUTO8 M M M M/-15/-16/1005/M/ M 51MM=
0058712230999992014010216004+51930-110720SAO  +077299999V020210190021199999999999999999-01171-01281999999REMAWY049XCS SA 1600 AUTO8 M M M M/-12/-13/2104/M/ M 78MM=
0058712230999992014010217004+51930-110720SAO  +077299999V020130190015199999999999999999-01151-01381999999REMAWY049XCS SA 1700 AUTO8 M M M M/-12/-14/1303/M/ M 58MM=
0118712230999992014010218004+51933-110700FM-12+077299999V0202101N003119999999N999999999-01051-01171999999ADDAA106000091AA224000091KA1120M-01051KA2120N-01981REMSYN05871223 15/// /2106 11105 21117 60001 333 11105 21198 70000=
0058712230999992014010218004+51930-110720SAO  +077299999V020210190031199999999999999999-00951-01171999999REMAWY049XCS SA 1800 AUTO8 M M M M/-10/-12/2106/M/ M 57MM=
0058712230999992014010219004+51930-110720SAO  +077299999V020230190041199999999999999999-00961-01091999999REMAWY049XCS SA 1900 AUTO8 M M M M/-10/-11/2308/M/ M 69MM=
0058712230999992014010220004+51930-110720SAO  +077299999V020250190031199999999999999999-00841-01001999999REMAWY049XCS SA 2000 AUTO8 M M M M/-08/-10/2506/M/ M 40MM=
0058712230999992014010221004+51930-110720SAO  +077299999V020250190026199999999999999999-00811-00961999999REMAWY049XCS SA 2100 AUTO8 M M M M/-08/-10/2505/M/ M 16MM=
0058712230999992014010222004+51930-110720SAO  +077299999V020210190031199999999999999999-00821-00971999999REMAWY049XCS SA 2200 AUTO8 M M M M/-08/-10/2106/M/ M 27MM=
0058712230999992014010223004+51930-110720SAO  +077299999V020300190015199999999999999999-00691-00751999999REMAWY049XCS SA 2300 AUTO8 M M M M/-07/-08/3003/M/ M 95MM=
0118712230999992014010300004+51933-110700FM-12+077299999V0203101N003119999999N999999999-00881-01051999999ADDAA106000091AA224000091KA1120M-00661KA2120N-01931REMSYN05871223 15/// /3106 11088 21105 60001 333 11066 21193 70000=
0058712230999992014010300004+51930-110720SAO  +077299999V020310190031199999999999999999-00881-00951999999REMAWY049XCS SA 0000 AUTO8 M M M M/-09/-10/3106/M/ M 85MM=
0058712230999992014010301004+51930-110720SAO  +077299999V020240190021199999999999999999-00791-00881999999REMAWY049XCS SA 0100 AUTO8 M M M M/-08/-09/2404/M/ M 98MM=
0058712230999992014010302004+51930-110720SAO  +077299999V020240190021199999999999999999-00831-00981999999REMAWY049XCS SA 0200 AUTO8 M M M M/-08/-10/2404/M/ M 38MM=
0058712230999992014010303004+51930-110720SAO  +077299999V020300190026199999999999999999-00801-00951999999REMAWY049XCS SA 0300 AUTO8 M M M M/-08/-10/3005/M/ M 05MM=
0058712230999992014010304004+51930-110720SAO  +077299999V020310190021199999999999999999-00591-00681999999REMAWY049XCS SA 0400 AUTO8 M M M M/-06/-07/3104/M/ M 98MM=
0058712230999992014010305004+51930-110720SAO  +077299999V020340190021199999999999999999-00651-00761999999REMAWY049XCS SA 0500 AUTO8 M M M M/-07/-08/3404/M/ M 56MM=
0118712230999992014010306004+51933-110700FM-12+077299999V0200501N002619999999N999999999-00511-00601999999ADDAA106000091AA224000091KA1240M-00241KA2240N-01931REMSYN05871223 15/// /0505 11051 21060 60001 333 11024 21193 70000=
0058712230999992014010306004+51930-110720SAO  +077299999V020050190026199999999999999999-00511-00601999999REMAWY049XCS SA 0600 AUTO8 M M M M/-05/-06/0505/M/ M 10MM=
0058712230999992014010307004+51930-110720SAO  +077299999V020050190036199999999999999999-00241-00291999999REMAWY049XCS SA 0700 AUTO8 M M M M/-02/-03/0507/M/ M 49MM=
0077712230999992014010308004+51930-110720SAO  +077299999V020060190041199999999999999999-00371-00415999999REMAWY049XCS SA 0800 AUTO8 M M M M/-04/-04/0608/M/ M 71MM=EQDQ01-4.1  2ATOD  
0058712230999992014010309004+51930-110720SAO  +077299999V020060190051199999999999999999-00311-00351999999REMAWY049XCS SA 0900 AUTO8 M M M M/-03/-04/0610/M/ M 15MM=
0114712230999992014010310004+51930-110720SAO  +077299999V020060190046199999999999999999-00291-00335999999ADDAA101000831REMAWY072XCS SA 1000 AUTO8 M M M M/-03/-03/0609/M/0008 PCPN 0.8MM PAST HR M 93MM=EQDQ01-3.3  2ATOD  
0114712230999992014010311004+51930-110720SAO  +077299999V020040190051199999999999999999-00381-00435999999ADDAA101000531REMAWY072XCS SA 1100 AUTO8 M M M M/-04/-04/0410/M/0013 PCPN 0.5MM PAST HR M 83MM=EQDQ01-4.3  2ATOD  
0132712230999992014010312004+51933-110700FM-12+077299999V0200201N009819999999N999999999-00371-00411999999ADDAA106001031AA224001331AZ141021KA1240M-00241KA2240N-01001REMSYN06471223 17/// /0219 11037 21041 60011 7//4/ 333 11024 21100 70013=
0116712230999992014010312004+51930-110720SAO  +077299999V020030190098199999999999999999-00371-00415999999ADDOD130101281030REMAWY071XCS SA 1200 AUTO8 M M M M/-04/-04/0319/M/0013 PK WND 0325 1153Z M 71MM=EQDQ01-4.1  2ATOD  
0112712230999992014010313004+51930-110720SAO  +077299999V020020190103199999999999999999-00361-00405999999ADDOD130101391040REMAWY067XCS SA 1300 AUTO8 M M M M/-04/-04/0220/M/ PK WND 0427 1231Z M 60MM=EQDQ01-4.0  2ATOD  
0146712230999992014010314004+51930-110720SAO  +077299999V020030190093199999999999999999-00371-00425999999ADDAA101000531OD130101441030REMAWY090XCS SA 1400 AUTO8 M M M M/-04/-04/0318/M/0005 PCPN 0.5MM PAST HR PK WND 0328 1322Z M 72MM=EQDQ01-4.2  2ATOD  
0097712230999992014010315004+51930-110720SAO  +077299999V020020190077199999999999999999-00371-00481999999ADDOD130101181020REMAWY071XCS SA 1500 AUTO8 M M M M/-04/-05/0215/M/0005 PK WND 0223 1434Z M 78MM=
0097712230999992014010316004+51930-110720SAO  +077299999V020350190062199999999999999999-00411-00561999999ADDOD130100871020REMAWY071XCS SA 1600 AUTO8 M M M M/-04/-06/3512/M/0005 PK WND 0217 1506Z M 16MM=
0097712230999992014010317004+51930-110720SAO  +077299999V020350190087199999999999999999-00471-00621999999ADDOD130101131350REMAWY071XCS SA 1700 AUTO8 M M M M/-05/-06/3517/M/0005 PK WND 3522 1614Z M 72MM=
0132712230999992014010318004+51933-110700FM-12+077299999V0203501N009319999999N999999999-00641-00841999999ADDAA106000531AA224001731AZ141021KA1120M-00191KA2120N-01051REMSYN06471223 17/// /3518 11064 21084 69951 7//4/ 333 11019 21105 70017=
0097712230999992014010318004+51930-110720SAO  +077299999V020350190093199999999999999999-00641-00841999999ADDOD130101181360REMAWY071XCS SA 1800 AUTO8 M M M M/-06/-08/3518/M/0005 PK WND 0023 1742Z M 44MM=
0093712230999992014010319004+51930-110720SAO  +077299999V020340190103199999999999999999-00771-00941999999ADDOD130101341340REMAWY067XCS SA 1900 AUTO8 M M M M/-08/-09/3420/M/ PK WND 3426 1852Z M 74MM=
0093712230999992014010320004+51930-110720SAO  +077299999V020340190077199999999999999999-00821-00971999999ADDOD130101441350REMAWY067XCS SA 2000 AUTO8 M M M M/-08/-10/3415/M/ PK WND 3528 1909Z M 27MM=
0093712230999992014010321004+51930-110720SAO  +077299999V020340190082199999999999999999-00881-00951999999ADDOD130101181340REMAWY067XCS SA 2100 AUTO8 M M M M/-09/-10/3416/M/ PK WND 3423 2022Z M 85MM=
0093712230999992014010322004+51930-110720SAO  +077299999V020340190082199999999999999999-00891-01081999999ADDOD130101281340REMAWY067XCS SA 2200 AUTO8 M M M M/-09/-11/3416/M/ PK WND 3425 2118Z M 98MM=
0093712230999992014010323004+51930-110720SAO  +077299999V020340190072199999999999999999-01051-01291999999ADDOD130101231340REMAWY067XCS SA 2300 AUTO8 M M M M/-11/-13/3414/M/ PK WND 3424 2232Z M 59MM=
0118712230999992014010400004+51933-110700FM-12+077299999V0203301N009819999999N999999999-01361-01591999999ADDAA106000091AA224001731KA1120M-00331KA2120N-01361REMSYN05871223 15/// /3319 11136 21159 60001 333 11033 21136 70017=
0093712230999992014010400004+51930-110720SAO  +077299999V020330190098199999999999999999-01361-01591999999ADDOD130101231330REMAWY067XCS SA 0000 AUTO8 M M M M/-14/-16/3319/M/ PK WND 3324 2353Z M 69MM=
0093712230999992014010401004+51930-110720SAO  +077299999V020330190093199999999999999999-01581-01891999999ADDOD130101231340REMAWY067XCS SA 0100 AUTO8 M M M M/-16/-19/3318/M/ PK WND 3424 0003Z M 89MM=
0093712230999992014010402004+51930-110720SAO  +077299999V020340190062199999999999999999-01711-02041999999ADDOD130101131340REMAWY067XCS SA 0200 AUTO8 M M M M/-17/-20/3412/M/ PK WND 3422 0107Z M 14MM=
0058712230999992014010403004+51930-110720SAO  +077299999V020350190041199999999999999999-01741-02061999999REMAWY049XCS SA 0300 AUTO8 M M M M/-17/-21/3508/M/ M 46MM=
0058712230999992014010404004+51930-110720SAO  +077299999V020330190046199999999999999999-01771-02081999999REMAWY049XCS SA 0400 AUTO8 M M M M/-18/-21/3309/M/ M 78MM=
0058712230999992014010405004+51930-110720SAO  +077299999V020340190062199999999999999999-01721-01951999999REMAWY049XCS SA 0500 AUTO8 M M M M/-17/-20/3412/M/ M 25MM=
0134712230999992014010406004+51933-110700FM-12+077299999V0203401N005719999999N999999999-01741-01971999999ADDAA106000091AA224001731KA1240M-00191KA2240N-01781REMSYN07471223 15/// /3411 11174 21197 60001 333 11019 21178 70017 555 30328 40141=
0093712230999992014010406004+51930-110720SAO  +077299999V020340190057199999999999999999-01741-01971999999ADDOD130100871340REMAWY067XCS SA 0600 AUTO8 M M M M/-17/-20/3411/M/ PK WND 3417 0530Z M 47MM=
0058712230999992014010407004+51930-110720SAO  +077299999V020340190057199999999999999999-01821-02081999999REMAWY049XCS SA 0700 AUTO8 M M M M/-18/-21/3411/M/ M 28MM=
0093712230999992014010408004+51930-110720SAO  +077299999V020340190067199999999999999999-01911-02161999999ADDOD130101031330REMAWY067XCS SA 0800 AUTO8 M M M M/-19/-22/3413/M/ PK WND 3320 0736Z M 16MM=
0058712230999992014010409004+51930-110720SAO  +077299999V020330190051199999999999999999-02021-02281999999REMAWY049XCS SA 0900 AUTO8 M M M M/-20/-23/3310/M/ M 28MM=
0058712230999992014010410004+51930-110720SAO  +077299999V020330190062199999999999999999-02081-02341999999REMAWY049XCS SA 1000 AUTO8 M M M M/-21/-23/3312/M/ M 84MM=
0093712230999992014010411004+51930-110720SAO  +077299999V020330190051199999999999999999-02301-02611999999ADDOD130100871330REMAWY067XCS SA 1100 AUTO8 M M M M/-23/-26/3310/M/ PK WND 3317 1008Z M 01MM=
0118712230999992014010412004+51933-110700FM-12+077299999V0203001N007219999999N999999999-02401-02691999999ADDAA106000091AA224000531KA1240M-00191KA2240N-02451REMSYN05871223 15/// /3014 11240 21269 60001 333 11019 21245 70005=
0058712230999992014010412004+51930-110720SAO  +077299999V020300190072199999999999999999-02401-02691999999REMAWY049XCS SA 1200 AUTO8 M M M M/-24/-27/3014/M/ M 09MM=
0093712230999992014010413004+51930-110720SAO  +077299999V020310190093199999999999999999-02431-02731999999ADDOD130101131310REMAWY067XCS SA 1300 AUTO8 M M M M/-24/-27/3118/M/ PK WND 3122 1225Z M 33MM=
0093712230999992014010414004+51930-110720SAO  +077299999V020320190093199999999999999999-02431-02711999999ADDOD130101131310REMAWY067XCS SA 1400 AUTO8 M M M M/-24/-27/3218/M/ PK WND 3122 1359Z M 31MM=
0093712230999992014010415004+51930-110720SAO  +077299999V020310190108199999999999999999-02511-02791999999ADDOD130101181310REMAWY067XCS SA 1500 AUTO8 M M M M/-25/-28/3121/M/ PK WND 3123 1458Z M 19MM=
0093712230999992014010416004+51930-110720SAO  +077299999V020320190067199999999999999999-02591-02901999999ADDOD130101231310REMAWY067XCS SA 1600 AUTO8 M M M M/-26/-29/3213/M/ PK WND 3124 1502Z M 90MM=
0093712230999992014010417004+51930-110720SAO  +077299999V020280190072199999999999999999-02531-02751999999ADDOD130100871310REMAWY067XCS SA 1700 AUTO8 M M M M/-25/-28/2814/M/ PK WND 3117 1606Z M 35MM=
0118712230999992014010418004+51933-110700FM-12+077299999V0203001N007719999999N999999999-02451-02761999999ADDAA106000091AA224000091KA1120M-01741KA2120N-02621REMSYN05871223 15/// /3015 11245 21276 60001 333 11174 21262 70000=
0093712230999992014010418004+51930-110720SAO  +077299999V020300190077199999999999999999-02441-02761999999ADDOD130100931300REMAWY067XCS SA 1800 AUTO8 M M M M/-24/-28/3015/M/ PK WND 3018 1759Z M 46MM=
0093712230999992014010419004+51930-110720SAO  +077299999V020300190077199999999999999999-02351-02701999999ADDOD130100931320REMAWY067XCS SA 1900 AUTO8 M M M M/-24/-27/3015/M/ PK WND 3218 1815Z M 50MM=
0093712230999992014010420004+51930-110720SAO  +077299999V020300190098199999999999999999-02291-02631999999ADDOD130101181300REMAWY067XCS SA 2000 AUTO8 M M M M/-23/-26/3019/M/ PK WND 3023 1959Z M 93MM=
0093712230999992014010421004+51930-110720SAO  +077299999V020310190103199999999999999999-02261-02611999999ADDOD130101491310REMAWY067XCS SA 2100 AUTO8 M M M M/-23/-26/3120/M/ PK WND 3129 2037Z M 61MM=
0093712230999992014010422004+51930-110720SAO  +077299999V020310190113199999999999999999-02241-02551999999ADDOD130101441310REMAWY067XCS SA 2200 AUTO8 M M M M/-22/-26/3122/M/ PK WND 3128 2154Z M 45MM=
0093712230999992014010423004+51930-110720SAO  +077299999V020290190098199999999999999999-02311-02671999999ADDOD130101341310REMAWY067XCS SA 2300 AUTO8 M M M M/-23/-27/2919/M/ PK WND 3126 2209Z M 17MM=
0118712230999992014010500004+51933-110700FM-12+077299999V0203001N010819999999N999999999-02351-02721999999ADDAA106000091AA224000091KA1120M-02241KA2120N-02621REMSYN05871223 15/// /3021 11235 21272 60001 333 11224 21262 70000=
0093712230999992014010500004+51930-110720SAO  +077299999V020300190108199999999999999999-02351-02721999999ADDOD130101341280REMAWY067XCS SA 0000 AUTO8 M M M M/-24/-27/3021/M/ PK WND 2826 2333Z M 52MM=
0093712230999992014010501004+51930-110720SAO  +077299999V020290190098199999999999999999-02411-02741999999ADDOD130101341300REMAWY067XCS SA 0100 AUTO8 M M M M/-24/-27/2919/M/ PK WND 3026 0004Z M 14MM=
0093712230999992014010502004+51930-110720SAO  +077299999V020300190098199999999999999999-02351-02671999999ADDOD130101131290REMAWY067XCS SA 0200 AUTO8 M M M M/-24/-27/3019/M/ PK WND 2922 0101Z M 57MM=
0093712230999992014010503004+51930-110720SAO  +077299999V020330190123199999999999999999-02241-02531999999ADDOD130101591320REMAWY067XCS SA 0300 AUTO8 M M M M/-22/-25/3324/M/ PK WND 3231 0245Z M 43MM=
0093712230999992014010504004+51930-110720SAO  +077299999V020340190113199999999999999999-02381-02681999999ADDOD130101701330REMAWY067XCS SA 0400 AUTO8 M M M M/-24/-27/3422/M/ PK WND 3333 0310Z M 88MM=
0093712230999992014010505004+51930-110720SAO  +077299999V020360190134199999999999999999-02571-02921999999ADDOD130101701350REMAWY067XCS SA 0500 AUTO8 M M M M/-26/-29/3626/M/ PK WND 3533 0449Z M 72MM=
0134712230999992014010506004+51933-110700FM-12+077299999V0203501N008819999999N999999999-02741-03231999999ADDAA106000091AA224000091KA1240M-01741KA2240N-02741REMSYN07471223 15/// /3517 11274 21323 60001 333 11174 21274 70000 555 33533 40052=
0093712230999992014010506004+51930-110720SAO  +077299999V020350190087199999999999999999-02741-03231999999ADDOD130101441350REMAWY067XCS SA 0600 AUTO8 M M M M/-27/-32/3517/M/ PK WND 3528 0500Z M 43MM=
0093712230999992014010507004+51930-110720SAO  +077299999V020340190093199999999999999999-02861-03321999999ADDOD130101391350REMAWY067XCS SA 0700 AUTO8 M M M M/-29/-33/3418/M/ PK WND 3527 0622Z M 62MM=
0093712230999992014010508004+51930-110720SAO  +077299999V020340190087199999999999999999-02961-03411999999ADDOD130101181350REMAWY067XCS SA 0800 AUTO8 M M M M/-30/-34/3417/M/ PK WND 3523 0735Z M 61MM=
0093712230999992014010509004+51930-110720SAO  +077299999V020330190077199999999999999999-03021-03501999999ADDOD130101391350REMAWY067XCS SA 0900 AUTO8 M M M M/-30/-35/3315/M/ PK WND 3527 0829Z M 20MM=
0093712230999992014010510004+51930-110720SAO  +077299999V020330190077199999999999999999-03061-03541999999ADDOD130101031330REMAWY067XCS SA 1000 AUTO8 M M M M/-31/-35/3315/M/ PK WND 3320 0908Z M 64MM=
0093712230999992014010511004+51930-110720SAO  +077299999V020310190057199999999999999999-03141-03611999999ADDOD130101031330REMAWY067XCS SA 1100 AUTO8 M M M M/-31/-36/3111/M/ PK WND 3320 1018Z M 41MM=
0118712230999992014010512004+51933-110700FM-12+077299999V0203101N007219999999N999999999-03141-03561999999ADDAA106000091AA224000091KA1240M-01741KA2240N-03151REMSYN05871223 15/// /3114 11314 21356 60001 333 11174 21315 70000=
0093712230999992014010512004+51930-110720SAO  +077299999V020310190072199999999999999999-03141-03561999999ADDOD130100931320REMAWY067XCS SA 1200 AUTO8 M M M M/-31/-36/3114/M/ PK WND 3218 1141Z M 46MM=
0093712230999992014010513004+51930-110720SAO  +077299999V020310190098199999999999999999-03201-03591999999ADDOD130101131310REMAWY067XCS SA 1300 AUTO8 M M M M/-32/-36/3119/M/ PK WND 3122 1253Z M 09MM=
0093712230999992014010514004+51930-110720SAO  +077299999V020310190093199999999999999999-03181-03591999999ADDOD130101131310REMAWY067XCS SA 1400 AUTO8 M M M M/-32/-36/3118/M/ PK WND 3122 1332Z M 89MM=
0093712230999992014010515004+51930-110720SAO  +077299999V020300190062199999999999999999-03261-03671999999ADDOD130100981310REMAWY067XCS SA 1500 AUTO8 M M M M/-33/-37/3012/M/ PK WND 3119 1401Z M 67MM=
0058712230999992014010516004+51930-110720SAO  +077299999V020290190046199999999999999999-03191-03601999999REMAWY049XCS SA 1600 AUTO8 M M M M/-32/-36/2909/M/ M 90MM=
0058712230999992014010517004+51930-110720SAO  +077299999V020280190051199999999999999999-03111-03521999999REMAWY049XCS SA 1700 AUTO8 M M M M/-31/-35/2810/M/ M 12MM=
0118712230999992014010518004+51933-110700FM-12+077299999V0202801N007719999999N999999999-03041-03461999999ADDAA106000091AA224000091KA1120M-02741KA2120N-03291REMSYN05871223 15/// /2815 11304 21346 60001 333 11274 21329 70000=
0093712230999992014010518004+51930-110720SAO  +077299999V020280190077199999999999999999-03041-03461999999ADDOD130100871290REMAWY067XCS SA 1800 AUTO8 M M M M/-30/-35/2815/M/ PK WND 2917 1741Z M 46MM=
0093712230999992014010519004+51930-110720SAO  +077299999V020270190077199999999999999999-02981-03391999999ADDOD130100871270REMAWY067XCS SA 1900 AUTO8 M M M M/-30/-34/2715/M/ PK WND 2717 1850Z M 89MM=
0093712230999992014010520004+51930-110720SAO  +077299999V020270190067199999999999999999-02751-03311999999ADDOD130100981270REMAWY067XCS SA 2000 AUTO8 M M M M/-28/-33/2713/M/ PK WND 2719 1908Z M 51MM=
0058712230999992014010521004+51930-110720SAO  +077299999V020280190062199999999999999999-02771-03231999999REMAWY049XCS SA 2100 AUTO8 M M M M/-28/-32/2812/M/ M 73MM=
0058712230999992014010522004+51930-110720SAO  +077299999V020260190062199999999999999999-02771-03181999999REMAWY049XCS SA 2200 AUTO8 M M M M/-28/-32/2612/M/ M 78MM=
0058712230999992014010523004+51930-110720SAO  +077299999V020280190036199999999999999999-02721-03101999999REMAWY049XCS SA 2300 AUTO8 M M M M/-27/-31/2807/M/ M 20MM=
0118712230999992014010600004+51933-110700FM-12+077299999V0202701N002619999999N999999999-02741-03091999999ADDAA106000091AA224000091KA1120M-02681KA2120N-03291REMSYN05871223 15/// /2705 11274 21309 60001 333 11268 21329 70000=
0058712230999992014010600004+51930-110720SAO  +077299999V020270190026199999999999999999-02741-03091999999REMAWY049XCS SA 0000 AUTO8 M M M M/-27/-31/2705/M/ M 49MM=
0058712230999992014010601004+51930-110720SAO  +077299999V020230190036199999999999999999-02891-03241999999REMAWY049XCS SA 0100 AUTO8 M M M M/-29/-32/2307/M/ M 94MM=
0058712230999992014010602004+51930-110720SAO  +077299999V020230190046199999999999999999-02901-03241999999REMAWY049XCS SA 0200 AUTO8 M M M M/-29/-32/2309/M/ M 04MM=
0058712230999992014010603004+51930-110720SAO  +077299999V020250190036199999999999999999-02811-03121999999REMAWY049XCS SA 0300 AUTO8 M M M M/-28/-31/2507/M/ M 12MM=
0058712230999992014010604004+51930-110720SAO  +077299999V020250190015199999999999999999-02711-03011999999REMAWY049XCS SA 0400 AUTO8 M M M M/-27/-30/2503/M/ M 11MM=
0058712230999992014010605004+51930-110720SAO  +077299999V020220190031199999999999999999-02861-03171999999REMAWY049XCS SA 0500 AUTO8 M M M M/-29/-32/2206/M/ M 67MM=
0134712230999992014010606004+51933-110700FM-12+077299999V0202201N005119999999N999999999-02891-03221999999ADDAA106000091AA224000091KA1240M-02681KA2240N-03291REMSYN07471223 15/// /2210 11289 21322 60001 333 11268 21329 70000 555 33527 40071=
0058712230999992014010606004+51930-110720SAO  +077299999V020220190051199999999999999999-02891-03221999999REMAWY049XCS SA 0600 AUTO8 M M M M/-29/-32/2210/M/ M 92MM=
0058712230999992014010607004+51930-110720SAO  +077299999V020210190031199999999999999999-02911-03231999999REMAWY049XCS SA 0700 AUTO8 M M M M/-29/-32/2106/M/ M 13MM=
0058712230999992014010608004+51930-110720SAO  +077299999V020220190051199999999999999999-02861-03171999999REMAWY049XCS SA 0800 AUTO8 M M M M/-29/-32/2210/M/ M 67MM=
0058712230999992014010609004+51930-110720SAO  +077299999V020190190036199999999999999999-02761-03061999999REMAWY049XCS SA 0900 AUTO8 M M M M/-28/-31/1907/M/ M 66MM=
0058712230999992014010610004+51930-110720SAO  +077299999V020200190036199999999999999999-02611-02911999999REMAWY049XCS SA 1000 AUTO8 M M M M/-26/-29/2007/M/ M 11MM=
0058712230999992014010611004+51930-110720SAO  +077299999V020140190015199999999999999999-02641-02931999999REMAWY049XCS SA 1100 AUTO8 M M M M/-26/-29/1403/M/ M 43MM=
0118712230999992014010612004+51933-110700FM-12+077299999V0201201N002119999999N999999999-02661-02951999999ADDAA106000091AA224000091KA1240M-02681KA2240N-02921REMSYN05871223 15/// /1204 11266 21295 60001 333 11268 21292 70000=
0058712230999992014010612004+51930-110720SAO  +077299999V020120190021199999999999999999-02661-02951999999REMAWY049XCS SA 1200 AUTO8 M M M M/-27/-30/1204/M/ M 65MM=
0058712230999992014010613004+51930-110720SAO  +077299999V020100190021199999999999999999-02591-02861999999REMAWY049XCS SA 1300 AUTO8 M M M M/-26/-29/1004/M/ M 96MM=
0058712230999992014010614004+51930-110720SAO  +077299999V020160190026199999999999999999-02291-02521999999REMAWY049XCS SA 1400 AUTO8 M M M M/-23/-25/1605/M/ M 92MM=
0058712230999992014010615004+51930-110720SAO  +077299999V020120190031199999999999999999-02051-02411999999REMAWY049XCS SA 1500 AUTO8 M M M M/-21/-24/1206/M/ M 51MM=
0058712230999992014010616004+51930-110720SAO  +077299999V020140190036199999999999999999-02011-02311999999REMAWY049XCS SA 1600 AUTO8 M M M M/-20/-23/1407/M/ M 11MM=
0058712230999992014010617004+51930-110720SAO  +077299999V020180190057199999999999999999-01961-02321999999REMAWY049XCS SA 1700 AUTO8 M M M M/-20/-23/1811/M/ M 62MM=
0118712230999992014010618004+51933-110700FM-12+077299999V0201601N005119999999N999999999-01871-02291999999ADDAA106000091AA224000091KA1120M-01871KA2120N-03041REMSYN05871223 15/// /1610 11187 21229 60001 333 11187 21304 70000=
0058712230999992014010618004+51930-110720SAO  +077299999V020160190051199999999999999999-01871-02291999999REMAWY049XCS SA 1800 AUTO8 M M M M/-19/-23/1610/M/ M 79MM=
0058712230999992014010619004+51930-110720SAO  +077299999V020170190051199999999999999999-01871-02221999999REMAWY049XCS SA 1900 AUTO8 M M M M/-19/-22/1710/M/ M 72MM=
0058712230999992014010620004+51930-110720SAO  +077299999V020190190057199999999999999999-01771-02071999999REMAWY049XCS SA 2000 AUTO8 M M M M/-18/-21/1911/M/ M 77MM=
0058712230999992014010621004+51930-110720SAO  +077299999V020210190062199999999999999999-01681-01951999999REMAWY049XCS SA 2100 AUTO8 M M M M/-17/-20/2112/M/ M 85MM=
0093712230999992014010622004+51930-110720SAO  +077299999V020220190093199999999999999999-01581-01781999999ADDOD130101131220REMAWY067XCS SA 2200 AUTO8 M M M M/-16/-18/2218/M/ PK WND 2222 2142Z M 88MM=
0093712230999992014010623004+51930-110720SAO  +077299999V020230190062199999999999999999-01491-01711999999ADDOD130100871220REMAWY067XCS SA 2300 AUTO8 M M M M/-15/-17/2312/M/ PK WND 2217 2201Z M 91MM=
0118712230999992014010700004+51933-110700FM-12+077299999V0202201N004119999999N999999999-01331-01521999999ADDAA106000091AA224000091KA1120M-01321KA2120N-02921REMSYN05871223 15/// /2208 11133 21152 60001 333 11132 21292 70000=
0093712230999992014010700004+51930-110720SAO  +077299999V020220190041199999999999999999-01321-01521999999ADDOD130100931230REMAWY067XCS SA 0000 AUTO8 M M M M/-13/-15/2208/M/ PK WND 2318 2301Z M 22MM=
0093712230999992014010701004+51930-110720SAO  +077299999V020280190087199999999999999999-00751-01011999999ADDOD130101081270REMAWY067XCS SA 0100 AUTO8 M M M M/-08/-10/2817/M/ PK WND 2721 0055Z M 51MM=
0093712230999992014010702004+51930-110720SAO  +077299999V020320190062199999999999999999-00611-00831999999ADDOD130101031290REMAWY067XCS SA 0200 AUTO8 M M M M/-06/-08/3212/M/ PK WND 2920 0136Z M 13MM=
0093712230999992014010703004+51930-110720SAO  +077299999V020330190067199999999999999999-00761-01011999999ADDOD130101181330REMAWY067XCS SA 0300 AUTO8 M M M M/-08/-10/3313/M/ PK WND 3323 0224Z M 61MM=
0093712230999992014010704004+51930-110720SAO  +077299999V020330190067199999999999999999-00991-01241999999ADDOD130100981330REMAWY067XCS SA 0400 AUTO8 M M M M/-10/-12/3313/M/ PK WND 3319 0318Z M 94MM=
0093712230999992014010705004+51930-110720SAO  +077299999V020350190067199999999999999999-01191-01421999999ADDOD130100931330REMAWY067XCS SA 0500 AUTO8 M M M M/-12/-14/3513/M/ PK WND 3318 0402Z M 92MM=
0134712230999992014010706004+51933-110700FM-12+077299999V0203501N004619999999N999999999-01271-01481999999ADDAA106000091AA224000091KA1240M-00601KA2240N-02921REMSYN07471223 15/// /3509 11127 21148 60001 333 11060 21292 70000 555 33323 40031=
0058712230999992014010706004+51930-110720SAO  +077299999V020350190046199999999999999999-01271-01481999999REMAWY049XCS SA 0600 AUTO8 M M M M/-13/-15/3509/M/ M 78MM=
0058712230999992014010707004+51930-110720SAO  +077299999V020360190031199999999999999999-01281-01501999999REMAWY049XCS SA 0700 AUTO8 M M M M/-13/-15/3606/M/ M 80MM=
0058712230999992014010708004+51930-110720SAO  +077299999V020340190010199999999999999999-01291-01501999999REMAWY049XCS SA 0800 AUTO8 M M M M/-13/-15/3402/M/ M 90MM=
0058712230999992014010709004+51930-110720SAO  +077299999V020320190021199999999999999999-01301-01511999999REMAWY049XCS SA 0900 AUTO8 M M M M/-13/-15/3204/M/ M 01MM=
0058712230999992014010710004+51930-110720SAO  +077299999V020320190026199999999999999999-01261-01351999999REMAWY049XCS SA 1000 AUTO8 M M M M/-13/-14/3205/M/ M 65MM=
0058712230999992014010711004+51930-110720SAO  +077299999V020360190021199999999999999999-01281-01461999999REMAWY049XCS SA 1100 AUTO8 M M M M/-13/-15/3604/M/ M 86MM=
0118712230999992014010712004+51933-110700FM-12+077299999V0200101N002119999999N999999999-01341-01521999999ADDAA106000091AA224000091KA1240M-00601KA2240N-01341REMSYN05871223 15/// /0104 11134 21152 60001 333 11060 21134 70000=
0058712230999992014010712004+51930-110720SAO  +077299999V020010190021199999999999999999-01331-01521999999REMAWY049XCS SA 1200 AUTO8 M M M M/-13/-15/0104/M/ M 32MM=
0058712230999992014010713004+51930-110720SAO  +077299999V020060190031199999999999999999-01511-01641999999REMAWY049XCS SA 1300 AUTO8 M M M M/-15/-16/0606/M/ M 14MM=
0058712230999992014010714004+51930-110720SAO  +077299999V020070190031199999999999999999-01601-01761999999REMAWY049XCS SA 1400 AUTO8 M M M M/-16/-18/0706/M/ M 06MM=
0058712230999992014010715004+51930-110720SAO  +077299999V020060190026199999999999999999-01671-01841999999REMAWY049XCS SA 1500 AUTO8 M M M M/-17/-18/0605/M/ M 74MM=
0058712230999992014010716004+51930-110720SAO  +077299999V020070190041199999999999999999-01731-01901999999REMAWY049XCS SA 1600 AUTO8 M M M M/-17/-19/0708/M/ M 30MM=
0058712230999992014010717004+51930-110720SAO  +077299999V020070190031199999999999999999-01721-01901999999REMAWY049XCS SA 1700 AUTO8 M M M M/-17/-19/0706/M/ M 20MM=
0118712230999992014010718004+51933-110700FM-12+077299999V0200601N002619999999N999999999-01691-01871999999ADDAA106000091AA224000091KA1120M-01251KA2120N-01881REMSYN05871223 15/// /0605 11169 21187 60001 333 11125 21188 70000=
0058712230999992014010718004+51930-110720SAO  +077299999V020060190026199999999999999999-01691-01871999999REMAWY049XCS SA 1800 AUTO8 M M M M/-17/-19/0605/M/ M 97MM=
0058712230999992014010719004+51930-110720SAO  +077299999V020070190026199999999999999999-01681-01871999999REMAWY049XCS SA 1900 AUTO8 M M M M/-17/-19/0705/M/ M 87MM=
0058712230999992014010720004+51930-110720SAO  +077299999V020070190021199999999999999999-01691-01891999999REMAWY049XCS SA 2000 AUTO8 M M M M/-17/-19/0704/M/ M 99MM=
0058712230999992014010721004+51930-110720SAO  +077299999V020080190026199999999999999999-01671-01871999999REMAWY049XCS SA 2100 AUTO8 M M M M/-17/-19/0805/M/ M 77MM=
0058712230999992014010722004+51930-110720SAO  +077299999V020110190041199999999999999999-01711-01921999999REMAWY049XCS SA 2200 AUTO8 M M M M/-17/-19/1108/M/ M 12MM=
0058712230999992014010723004+51930-110720SAO  +077299999V020120190041199999999999999999-01791-01991999999REMAWY049XCS SA 2300 AUTO8 M M M M/-18/-20/1208/M/ M 99MM=
0118712230999992014010800004+51933-110700FM-12+077299999V0201201N003119999999N999999999-01851-02051999999ADDAA106000091AA224000091KA1120M-01341KA2120N-01851REMSYN05871223 15/// /1206 11185 21205 60001 333 11134 21185 70000=
0058712230999992014010800004+51930-110720SAO  +077299999V020120190031199999999999999999-01751-01951999999REMAWY049XCS SA 0000 AUTO8 M M M M/-18/-20/1206/M/ M 55MM=
0058712230999992014010801004+51930-110720SAO  +077299999V020120190041199999999999999999-01881-02081999999REMAWY049XCS SA 0100 AUTO8 M M M M/-19/-21/1208/M/ M 88MM=
0058712230999992014010802004+51930-110720SAO  +077299999V020120190041199999999999999999-01881-02081999999REMAWY049XCS SA 0200 AUTO8 M M M M/-19/-21/1208/M/ M 88MM=
0058712230999992014010803004+51930-110720SAO  +077299999V020120190041199999999999999999-01871-02061999999REMAWY049XCS SA 0300 AUTO8 M M M M/-19/-21/1208/M/ M 76MM=
0058712230999992014010804004+51930-110720SAO  +077299999V020130190036199999999999999999-01831-02011999999REMAWY049XCS SA 0400 AUTO8 M M M M/-18/-20/1307/M/ M 31MM=
0058712230999992014010805004+51930-110720SAO  +077299999V020130190041199999999999999999-01781-01961999999REMAWY049XCS SA 0500 AUTO8 M M M M/-18/-20/1308/M/ M 86MM=
0118712230999992014010806004+51933-110700FM-12+077299999V0201301N005719999999N999999999-01751-01931999999ADDAA106000091AA224000091KA1240M-01251KA2240N-01891REMSYN05871223 15/// /1311 11175 21193 60001 333 11125 21189 70000=
0058712230999992014010806004+51930-110720SAO  +077299999V020130190057199999999999999999-01651-01931999999REMAWY049XCS SA 0600 AUTO8 M M M M/-17/-19/1311/M/ M 53MM=
0058712230999992014010807004+51930-110720SAO  +077299999V020130190057199999999999999999-01731-01921999999REMAWY049XCS SA 0700 AUTO8 M M M M/-17/-19/1311/M/ M 32MM=
0058712230999992014010808004+51930-110720SAO  +077299999V020130190051199999999999999999-01691-01871999999REMAWY049XCS SA 0800 AUTO8 M M M M/-17/-19/1310/M/ M 97MM=
0058712230999992014010809004+51930-110720SAO  +077299999V020120190057199999999999999999-01641-01821999999REMAWY049XCS SA 0900 AUTO8 M M M M/-16/-18/1211/M/ M 42MM=
0093712230999992014010810004+51930-110720SAO  +077299999V020110190072199999999999999999-01621-01791999999ADDOD130100871120REMAWY067XCS SA 1000 AUTO8 M M M M/-16/-18/1114/M/ PK WND 1217 0957Z M 29MM=
0093712230999992014010811004+51930-110720SAO  +077299999V020110190057199999999999999999-01571-01741999999ADDOD130100931130REMAWY067XCS SA 1100 AUTO8 M M M M/-16/-17/1111/M/ PK WND 1318 1010Z M 74MM=
0118712230999992014010812004+51933-110700FM-12+077299999V0201201N006219999999N999999999-01501-01661999999ADDAA106000091AA224000091KA1240M-01251KA2240N-01891REMSYN05871223 15/// /1212 11150 21166 60001 333 11125 21189 70000=
0058712230999992014010812004+51930-110720SAO  +077299999V020120190062199999999999999999-01501-01661999999REMAWY049XCS SA 1200 AUTO8 M M M M/-15/-17/1212/M/ M 06MM=
0058712230999992014010813004+51930-110720SAO  +077299999V020100190041199999999999999999-01581-01741999999REMAWY049XCS SA 1300 AUTO8 M M M M/-16/-17/1008/M/ M 84MM=
0058712230999992014010814004+51930-110720SAO  +077299999V020120190041199999999999999999-01621-01781999999REMAWY049XCS SA 1400 AUTO8 M M M M/-16/-18/1208/M/ M 28MM=
0058712230999992014010815004+51930-110720SAO  +077299999V020140190051199999999999999999-01641-01811999999REMAWY049XCS SA 1500 AUTO8 M M M M/-16/-18/1410/M/ M 41MM=
0058712230999992014010816004+51930-110720SAO  +077299999V020130190041199999999999999999-01601-01771999999REMAWY049XCS SA 1600 AUTO8 M M M M/-16/-18/1308/M/ M 07MM=
0058712230999992014010817004+51930-110720SAO  +077299999V020100190021199999999999999999-01591-01751999999REMAWY049XCS SA 1700 AUTO8 M M M M/-16/-18/1004/M/ M 95MM=
0118712230999992014010818004+51933-110700FM-12+077299999V0201601N002619999999N999999999-01431-01591999999ADDAA106000091AA224000091KA1120M-01431KA2120N-01891REMSYN05871223 15/// /1605 11143 21159 60001 333 11143 21189 70000=
0058712230999992014010818004+51930-110720SAO  +077299999V020160190026199999999999999999-01431-01591999999REMAWY049XCS SA 1800 AUTO8 M M M M/-14/-16/1605/M/ M 39MM=
0058712230999992014010819004+51930-110720SAO  +077299999V020190190026199999999999999999-01421-01591999999REMAWY049XCS SA 1900 AUTO8 M M M M/-14/-16/1905/M/ M 29MM=
0058712230999992014010820004+51930-110720SAO  +077299999V020230190051199999999999999999-01301-01441999999REMAWY049XCS SA 2000 AUTO8 M M M M/-13/-14/2310/M/ M 04MM=
0058712230999992014010821004+51930-110720SAO  +077299999V020230190062199999999999999999-01151-01411999999REMAWY049XCS SA 2100 AUTO8 M M M M/-12/-14/2312/M/ M 51MM=
0058712230999992014010823004+51930-110720SAO  +077299999V020230190041199999999999999999-01331-01531999999REMAWY049XCS SA 2300 AUTO8 M M M M/-13/-15/2308/M/ M 33MM=
0058712230999992014010901004+51930-110720SAO  +077299999V020230190041199999999999999999-01441-01631999999REMAWY049XCS SA 0100 AUTO8 M M M M/-14/-16/2308/M/ M 43MM=
0058712230999992014010902004+51930-110720SAO  +077299999V020300190026199999999999999999-01431-01551999999REMAWY049XCS SA 0200 AUTO8 M M M M/-14/-16/3005/M/ M 35MM=
0058712230999992014010903004+51930-110720SAO  +077299999V020270190031199999999999999999-01441-01551999999REMAWY049XCS SA 0300 AUTO8 M M M M/-14/-16/2706/M/ M 45MM=
0058712230999992014010904004+51930-110720SAO  +077299999V020280190015199999999999999999-01321-01541999999REMAWY049XCS SA 0400 AUTO8 M M M M/-13/-15/2803/M/ M 24MM=
0058712230999992014010905004+51930-110720SAO  +077299999V020220190051199999999999999999-01581-01771999999REMAWY049XCS SA 0500 AUTO8 M M M M/-16/-18/2210/M/ M 87MM=
0118712230999992014010906004+51933-110700FM-12+077299999V0202701N001019999999N999999999-01561-01801999999ADDAA106000091AA224999919KA1240M-01201KA2240N-01751REMSYN05871223 15/// /2702 11156 21180 60001 333 11120 21175 7////=
0058712230999992014010906004+51930-110720SAO  +077299999V020270190010199999999999999999-01561-01801999999REMAWY049XCS SA 0600 AUTO8 M M M M/-16/-18/2702/M/ M 60MM=
0058712230999992014010907004+51930-110720SAO  +077299999V020220190026199999999999999999-01601-01791999999REMAWY049XCS SA 0700 AUTO8 M M M M/-16/-18/2205/M/ M 09MM=
0058712230999992014010908004+51930-110720SAO  +077299999V020360190000199999999999999999-01611-01821999999REMAWY049XCS SA 0800 AUTO8 M M M M/-16/-18/0000/M/ M 12MM=
0058712230999992014010909004+51930-110720SAO  +077299999V020220190021199999999999999999-01381-01601999999REMAWY049XCS SA 0900 AUTO8 M M M M/-14/-16/2204/M/ M 80MM=
0058712230999992014010910004+51930-110720SAO  +077299999V020110190015199999999999999999-01061-01291999999REMAWY049XCS SA 1000 AUTO8 M M M M/-11/-13/1103/M/ M 69MM=
0058712230999992014010911004+51930-110720SAO  +077299999V020080190005199999999999999999-01271-01441999999REMAWY049XCS SA 1100 AUTO8 M M M M/-13/-14/0801/M/ M 74MM=
0118712230999992014010912004+51933-110700FM-12+077299999V0201201N002619999999N999999999-01401-01571999999ADDAA106000091AA224999919KA1240M-01201KA2240N-01641REMSYN05871223 15/// /1205 11140 21157 60001 333 11120 21164 7////=
0058712230999992014010912004+51930-110720SAO  +077299999V020120190026199999999999999999-01401-01571999999REMAWY049XCS SA 1200 AUTO8 M M M M/-14/-16/1205/M/ M 07MM=
0058712230999992014010913004+51930-110720SAO  +077299999V020130190021199999999999999999-01491-01701999999REMAWY049XCS SA 1300 AUTO8 M M M M/-15/-17/1304/M/ M 90MM=
0058712230999992014010914004+51930-110720SAO  +077299999V020200190010199999999999999999-01581-01741999999REMAWY049XCS SA 1400 AUTO8 M M M M/-16/-17/2002/M/ M 84MM=
0058712230999992014010915004+51930-110720SAO  +077299999V020090190015199999999999999999-01621-01751999999REMAWY049XCS SA 1500 AUTO8 M M M M/-16/-18/0903/M/ M 25MM=
0058712230999992014010916004+51930-110720SAO  +077299999V020080190031199999999999999999-01781-01961999999REMAWY049XCS SA 1600 AUTO8 M M M M/-18/-20/0806/M/ M 86MM=
0058712230999992014010917004+51930-110720SAO  +077299999V020100190031199999999999999999-01511-01791999999REMAWY049XCS SA 1700 AUTO8 M M M M/-15/-18/1006/M/ M 19MM=
0118712230999992014010918004+51933-110700FM-12+077299999V0200901N001519999999N999999999-01471-01761999999ADDAA106000091AA224999919KA1120M-01041KA2120N-01801REMSYN05871223 15/// /0903 11147 21176 60001 333 11104 21180 7////=
0058712230999992014010918004+51930-110720SAO  +077299999V020090190015199999999999999999-01471-01761999999REMAWY049XCS SA 1800 AUTO8 M M M M/-15/-18/0903/M/ M 76MM=
0058712230999992014010919004+51930-110720SAO  +077299999V020090190026199999999999999999-01411-01721999999REMAWY049XCS SA 1900 AUTO8 M M M M/-14/-17/0905/M/ M 12MM=
0058712230999992014010920004+51930-110720SAO  +077299999V020130190005199999999999999999-01351-01621999999REMAWY049XCS SA 2000 AUTO8 M M M M/-14/-16/1301/M/ M 52MM=
0059712230999992014010922004+51930-110720SAO  +077299999V020240190021199999999999999999-01291-01411999999REMAWY050XCS SA 2200 AUTO8 M M M M/-13/-14/2404/M/M M 91MM=
0059712230999992014010923004+51930-110720SAO  +077299999V020190190021199999999999999999-01291-01431999999REMAWY050XCS SA 2300 AUTO8 M M M M/-13/-14/1904/M/M M 93MM=
0118712230999992014011000004+51933-110700FM-12+077299999V0203001N003619999999N999999999-01161-01291999999ADDAA106999919AA224999919KA1120M-01161KA2120N-01801REMSYN05871223 45/// /3007 11116 21129 6///1 333 11116 21180 7////=
0059712230999992014011000004+51930-110720SAO  +077299999V020300190036199999999999999999-01161-01291999999REMAWY050XCS SA 0000 AUTO8 M M M M/-12/-13/3007/M/M M 69MM=
0058712230999992014011001004+51930-110720SAO  +077299999V020300190057199999999999999999-00891-01081999999REMAWY049XCS SA 0100 AUTO8 M M M M/-09/-11/3011/M/ M 98MM=
0058712230999992014011002004+51930-110720SAO  +077299999V020290190046199999999999999999-00721-00941999999REMAWY049XCS SA 0200 AUTO8 M M M M/-07/-09/2909/M/ M 24MM=
0058712230999992014011003004+51930-110720SAO  +077299999V020300190046199999999999999999-00561-00791999999REMAWY049XCS SA 0300 AUTO8 M M M M/-06/-08/3009/M/ M 69MM=
0058712230999992014011004004+51930-110720SAO  +077299999V020310190041199999999999999999-00641-00871999999REMAWY049XCS SA 0400 AUTO8 M M M M/-06/-09/3108/M/ M 47MM=
0058712230999992014011005004+51930-110720SAO  +077299999V020160190015199999999999999999-00671-00911999999REMAWY049XCS SA 0500 AUTO8 M M M M/-07/-09/1603/M/ M 71MM=
0118712230999992014011006004+51933-110700FM-12+077299999V0202501N001519999999N999999999-00701-00861999999ADDAA106000091AA224999919KA1240M-00521KA2240N-01801REMSYN05871223 15/// /2503 11070 21086 60001 333 11052 21180 7////=
0058712230999992014011006004+51930-110720SAO  +077299999V020250190015199999999999999999-00701-00861999999REMAWY049XCS SA 0600 AUTO8 M M M M/-07/-09/2503/M/ M 06MM=
0058712230999992014011007004+51930-110720SAO  +077299999V020240190010199999999999999999-00671-00791999999REMAWY049XCS SA 0700 AUTO8 M M M M/-07/-08/2402/M/ M 79MM=
0058712230999992014011008004+51930-110720SAO  +077299999V020270190031199999999999999999-00541-00671999999REMAWY049XCS SA 0800 AUTO8 M M M M/-05/-07/2706/M/ M 47MM=
0058712230999992014011009004+51930-110720SAO  +077299999V020250190041199999999999999999-00621-00751999999REMAWY049XCS SA 0900 AUTO8 M M M M/-06/-08/2508/M/ M 25MM=
0058712230999992014011010004+51930-110720SAO  +077299999V020240190041199999999999999999-00541-00621999999REMAWY049XCS SA 1000 AUTO8 M M M M/-05/-06/2408/M/ M 42MM=
0058712230999992014011011004+51930-110720SAO  +077299999V020240190046199999999999999999-00521-00661999999REMAWY049XCS SA 1100 AUTO8 M M M M/-05/-07/2409/M/ M 26MM=
0118712230999992014011012004+51933-110700FM-12+077299999V0202301N002619999999N999999999-00931-01081999999ADDAA106000091AA224999919KA1240M-00521KA2240N-01201REMSYN05871223 15/// /2305 11093 21108 60001 333 11052 21120 7////=
0058712230999992014011012004+51930-110720SAO  +077299999V020230190026199999999999999999-00931-01081999999REMAWY049XCS SA 1200 AUTO8 M M M M/-09/-11/2305/M/ M 38MM=
0058712230999992014011013004+51930-110720SAO  +077299999V020210190015199999999999999999-00911-01021999999REMAWY049XCS SA 1300 AUTO8 M M M M/-09/-10/2103/M/ M 12MM=
0058712230999992014011014004+51930-110720SAO  +077299999V020310190010199999999999999999-00901-00961999999REMAWY049XCS SA 1400 AUTO8 M M M M/-09/-10/3102/M/ M 06MM=
0058712230999992014011015004+51930-110720SAO  +077299999V020240190036199999999999999999-01001-01071999999REMAWY049XCS SA 1500 AUTO8 M M M M/-10/-11/2407/M/ M 07MM=
0058712230999992014011016004+51930-110720SAO  +077299999V020240190021199999999999999999-01041-01141999999REMAWY049XCS SA 1600 AUTO8 M M M M/-10/-11/2404/M/ M 44MM=
0058712230999992014011017004+51930-110720SAO  +077299999V020240190051199999999999999999-01111-01241999999REMAWY049XCS SA 1700 AUTO8 M M M M/-11/-12/2410/M/ M 14MM=
0118712230999992014011018004+51933-110700FM-12+077299999V0202801N003619999999N999999999-00811-00921999999ADDAA106000091AA224999919KA1120M-00421KA2120N-01511REMSYN05871223 15/// /2807 11081 21092 60001 333 11042 21151 7////=
0058712230999992014011018004+51930-110720SAO  +077299999V020280190036199999999999999999-00811-00921999999REMAWY049XCS SA 1800 AUTO8 M M M M/-08/-09/2807/M/ M 12MM=
0058712230999992014011019004+51930-110720SAO  +077299999V020290190067199999999999999999-00841-01101999999REMAWY049XCS SA 1900 AUTO8 M M M M/-08/-11/2913/M/ M 40MM=
0058712230999992014011020004+51930-110720SAO  +077299999V020300190062199999999999999999-00661-00941999999REMAWY049XCS SA 2000 AUTO8 M M M M/-07/-09/3012/M/ M 64MM=
0058712230999992014011021004+51930-110720SAO  +077299999V020300190067199999999999999999-00501-00891999999REMAWY049XCS SA 2100 AUTO8 M M M M/-05/-09/3013/M/ M 09MM=
0058712230999992014011022004+51930-110720SAO  +077299999V020290190072199999999999999999-00411-00751999999REMAWY049XCS SA 2200 AUTO8 M M M M/-04/-08/2914/M/ M 15MM=
0093712230999992014011023004+51930-110720SAO  +077299999V020280190072199999999999999999-00481-00661999999ADDOD130100871290REMAWY067XCS SA 2300 AUTO8 M M M M/-05/-07/2814/M/ PK WND 2917 2258Z M 86MM=
0118712230999992014011100004+51933-110700FM-12+077299999V0202901N007719999999N999999999-00511-00621999999ADDAA106000091AA224000091KA1120M-00411KA2120N-01181REMSYN05871223 15/// /2915 11051 21062 60001 333 11041 21118 70000=
0093712230999992014011100004+51930-110720SAO  +077299999V020290190077199999999999999999-00511-00621999999ADDOD130100931280REMAWY067XCS SA 0000 AUTO8 M M M M/-05/-06/2915/M/ PK WND 2818 2343Z M 12MM=
0093712230999992014011101004+51930-110720SAO  +077299999V020280190087199999999999999999-00631-00731999999ADDOD130101081270REMAWY067XCS SA 0100 AUTO8 M M M M/-06/-07/2817/M/ PK WND 2721 0038Z M 33MM=
0093712230999992014011102004+51930-110720SAO  +077299999V020280190087199999999999999999-00591-00761999999ADDOD130100981280REMAWY067XCS SA 0200 AUTO8 M M M M/-06/-08/2817/M/ PK WND 2819 0142Z M 96MM=
0093712230999992014011103004+51930-110720SAO  +077299999V020270190093199999999999999999-00631-00811999999ADDOD130101081270REMAWY067XCS SA 0300 AUTO8 M M M M/-06/-08/2718/M/ PK WND 2721 0258Z M 31MM=
0093712230999992014011104004+51930-110720SAO  +077299999V020280190093199999999999999999-00681-00961999999ADDOD130101081270REMAWY067XCS SA 0400 AUTO8 M M M M/-07/-10/2818/M/ PK WND 2721 0302Z M 86MM=
0093712230999992014011105004+51930-110720SAO  +077299999V020280190072199999999999999999-00651-01011999999ADDOD130101031280REMAWY067XCS SA 0500 AUTO8 M M M M/-07/-10/2814/M/ PK WND 2820 0401Z M 51MM=
0134712230999992014011106004+51933-110700FM-12+077299999V0202801N008219999999N999999999-00631-00861999999ADDAA106000091AA224000091KA1240M-00411KA2240N-01181REMSYN07471223 15/// /2816 11063 21086 60001 333 11041 21118 70000 555 32721 40031=
0093712230999992014011106004+51930-110720SAO  +077299999V020280190082199999999999999999-00631-00861999999ADDOD130101031280REMAWY067XCS SA 0600 AUTO8 M M M M/-06/-09/2816/M/ PK WND 2820 0535Z M 36MM=
0093712230999992014011107004+51930-110720SAO  +077299999V020270190077199999999999999999-00691-00871999999ADDOD130100931280REMAWY067XCS SA 0700 AUTO8 M M M M/-07/-09/2715/M/ PK WND 2818 0600Z M 97MM=
0093712230999992014011108004+51930-110720SAO  +077299999V020230190072199999999999999999-00931-01071999999ADDOD130100981220REMAWY067XCS SA 0800 AUTO8 M M M M/-09/-11/2314/M/ PK WND 2219 0759Z M 37MM=
0093712230999992014011109004+51930-110720SAO  +077299999V020230190067199999999999999999-01091-01201999999ADDOD130100931230REMAWY067XCS SA 0900 AUTO8 M M M M/-11/-12/2313/M/ PK WND 2318 0823Z M 90MM=
0058712230999992014011110004+51930-110720SAO  +077299999V020220190067199999999999999999-01191-01291999999REMAWY049XCS SA 1000 AUTO8 M M M M/-12/-13/2213/M/ M 99MM=
0058712230999992014011111004+51930-110720SAO  +077299999V020220190057199999999999999999-01021-01121999999REMAWY049XCS SA 1100 AUTO8 M M M M/-10/-11/2211/M/ M 22MM=
0118712230999992014011112004+51933-110700FM-12+077299999V0201601N003119999999N999999999-00791-00871999999ADDAA106000091AA224000091KA1240M-00411KA2240N-01221REMSYN05871223 15/// /1606 11079 21087 60001 333 11041 21122 70000=
0058712230999992014011112004+51930-110720SAO  +077299999V020160190031199999999999999999-00791-00871999999REMAWY049XCS SA 1200 AUTO8 M M M M/-08/-09/1606/M/ M 97MM=
0093712230999992014011113004+51930-110720SAO  +077299999V020110190015199999999999999999-00651-00861999999ADDOD130100931170REMAWY067XCS SA 1300 AUTO8 M M M M/-07/-09/1103/M/ PK WND 1718 1232Z M 56MM=
0093712230999992014011114004+51930-110720SAO  +077299999V020140190087199999999999999999-00491-00611999999ADDOD130101081140REMAWY067XCS SA 1400 AUTO8 M M M M/-05/-06/1417/M/ PK WND 1421 1354Z M 91MM=
0093712230999992014011115004+51930-110720SAO  +077299999V020120190087199999999999999999-00441-00551999999ADDOD130101341120REMAWY067XCS SA 1500 AUTO8 M M M M/-04/-06/1217/M/ PK WND 1226 1459Z M 45MM=
0093712230999992014011116004+51930-110720SAO  +077299999V020130190108199999999999999999-00461-00731999999ADDOD130101391130REMAWY067XCS SA 1600 AUTO8 M M M M/-05/-07/1321/M/ PK WND 1327 1552Z M 63MM=
0093712230999992014011117004+51930-110720SAO  +077299999V020140190077199999999999999999-00351-00671999999ADDOD130101391130REMAWY067XCS SA 1700 AUTO8 M M M M/-04/-07/1415/M/ PK WND 1327 1615Z M 57MM=
0118712230999992014011118004+51933-110700FM-12+077299999V0201401N007219999999N999999999-00371-00571999999ADDAA106000091AA224000091KA1120M-00371KA2120N-01221REMSYN05871223 15/// /1414 11037 21057 60001 333 11037 21122 70000=
0093712230999992014011118004+51930-110720SAO  +077299999V020140190072199999999999999999-00371-00571999999ADDOD130101131140REMAWY067XCS SA 1800 AUTO8 M M M M/-04/-06/1414/M/ PK WND 1422 1744Z M 77MM=
0093712230999992014011119004+51930-110720SAO  +077299999V020140190051199999999999999999-00261-00471999999ADDOD130100981140REMAWY067XCS SA 1900 AUTO8 M M M M/-03/-05/1410/M/ PK WND 1419 1821Z M 67MM=
0093712230999992014011120004+51930-110720SAO  +077299999V020170190036199999999999999999-00111-00311999999ADDOD130100981170REMAWY067XCS SA 2000 AUTO8 M M M M/-01/-03/1707/M/ PK WND 1719 1910Z M 11MM=
0092712230999992014011121004+51930-110720SAO  +077299999V020220190103199999999999999999+00161-00081999999ADDOD130101131210REMAWY066XCS SA 2100 AUTO8 M M M M/02/-01/2220/M/ PK WND 2122 2058Z M 68MM=
0092712230999992014011122004+51930-110720SAO  +077299999V020230190139199999999999999999+00301-00031999999ADDOD130101541220REMAWY066XCS SA 2200 AUTO8 M M M M/03/00/2327/M/ PK WND 2230 2156Z M 0-3MM=
0092712230999992014011123004+51930-110720SAO  +077299999V020230190128199999999999999999+00221-00041999999ADDOD130101751230REMAWY066XCS SA 2300 AUTO8 M M M M/02/00/2325/M/ PK WND 2334 2224Z M 2-4MM=
0118712230999992014011200004+51933-110700FM-12+077299999V0202601N014919999999N999999999+00321-00081999999ADDAA106000091AA224000091KA1120M+00321KA2120N-01221REMSYN05871223 15/// /2629 10032 21008 60001 333 10032 21122 70000=
0092712230999992014011200004+51930-110720SAO  +077299999V020260190149199999999999999999+00321-00081999999ADDOD130101801260REMAWY066XCS SA 0000 AUTO8 M M M M/03/-01/2629/M/ PK WND 2635 2359Z M 28MM=
0092712230999992014011201004+51930-110720SAO  +077299999V020290190154199999999999999999+00221-00141999999ADDOD130101951280REMAWY066XCS SA 0100 AUTO8 M M M M/02/-01/2930/M/ PK WND 2838 0023Z M 24MM=
0092712230999992014011202004+51930-110720SAO  +077299999V020280190108199999999999999999+00111-00161999999ADDOD130101751300REMAWY066XCS SA 0200 AUTO8 M M M M/01/-02/2821/M/ PK WND 3034 0108Z M 16MM=
0092712230999992014011203004+51930-110720SAO  +077299999V020290190113199999999999999999-00051-00231999999ADDOD130101491290REMAWY066XCS SA 0300 AUTO8 M M M M/00/-02/2922/M/ PK WND 2929 0237Z M 53MM=
0093712230999992014011204004+51930-110720SAO  +077299999V020300190103199999999999999999-00061-00351999999ADDOD130101341290REMAWY067XCS SA 0400 AUTO8 M M M M/-01/-04/3020/M/ PK WND 2926 0312Z M 65MM=
0093712230999992014011205004+51930-110720SAO  +077299999V020290190093199999999999999999-00161-00441999999ADDOD130101081300REMAWY067XCS SA 0500 AUTO8 M M M M/-02/-04/2918/M/ PK WND 3021 0449Z M 64MM=
0134712230999992014011206004+51933-110700FM-12+077299999V0202801N008219999999N999999999-00301-00531999999ADDAA106000091AA224000091KA1240M+00371KA2240N-01221REMSYN07471223 15/// /2816 11030 21053 60001 333 10037 21122 70000 555 32838 40012=
0093712230999992014011206004+51930-110720SAO  +077299999V020280190082199999999999999999-00301-00531999999ADDOD130101081280REMAWY067XCS SA 0600 AUTO8 M M M M/-03/-05/2816/M/ PK WND 2821 0531Z M 03MM=
0093712230999992014011207004+51930-110720SAO  +077299999V020280190051199999999999999999-00321-00551999999ADDOD130100871280REMAWY067XCS SA 0700 AUTO8 M M M M/-03/-06/2810/M/ PK WND 2817 0601Z M 25MM=
0093712230999992014011208004+51930-110720SAO  +077299999V020300190067199999999999999999-00231-00521999999ADDOD130100871270REMAWY067XCS SA 0800 AUTO8 M M M M/-02/-05/3013/M/ PK WND 2717 0740Z M 32MM=
0058712230999992014011209004+51930-110720SAO  +077299999V020340190051199999999999999999-00391-00691999999REMAWY049XCS SA 0900 AUTO8 M M M M/-04/-07/3410/M/ M 99MM=
0058712230999992014011210004+51930-110720SAO  +077299999V020310190057199999999999999999-00501-00731999999REMAWY049XCS SA 1000 AUTO8 M M M M/-05/-07/3111/M/ M 03MM=
0058712230999992014011211004+51930-110720SAO  +077299999V020310190072199999999999999999-00441-00621999999REMAWY049XCS SA 1100 AUTO8 M M M M/-04/-06/3114/M/ M 42MM=
0118712230999992014011212004+51933-110700FM-12+077299999V0203001N007219999999N999999999-00381-00501999999ADDAA106000091AA224000091KA1240M+00371KA2240N-00521REMSYN05871223 15/// /3014 11038 21050 60001 333 10037 21052 70000=
0093712230999992014011212004+51930-110720SAO  +077299999V020300190072199999999999999999-00381-00501999999ADDOD130100931310REMAWY067XCS SA 1200 AUTO8 M M M M/-04/-05/3014/M/ PK WND 3118 1124Z M 80MM=
0058712230999992014011213004+51930-110720SAO  +077299999V020290190067199999999999999999-00361-00521999999REMAWY049XCS SA 1300 AUTO8 M M M M/-04/-05/2913/M/ M 62MM=
0093712230999992014011214004+51930-110720SAO  +077299999V020310190123199999999999999999-00401-00601999999ADDOD130101541320REMAWY067XCS SA 1400 AUTO8 M M M M/-04/-06/3124/M/ PK WND 3230 1347Z M 00MM=
0093712230999992014011215004+51930-110720SAO  +077299999V020320190103199999999999999999-00601-00801999999ADDOD130101641310REMAWY067XCS SA 1500 AUTO8 M M M M/-06/-08/3220/M/ PK WND 3132 1408Z M 00MM=
0093712230999992014011216004+51930-110720SAO  +077299999V020320190103199999999999999999-00941-01191999999ADDOD130101441310REMAWY067XCS SA 1600 AUTO8 M M M M/-09/-12/3220/M/ PK WND 3128 1540Z M 49MM=
0093712230999992014011217004+51930-110720SAO  +077299999V020300190098199999999999999999-01101-01411999999ADDOD130101491310REMAWY067XCS SA 1700 AUTO8 M M M M/-11/-14/3019/M/ PK WND 3129 1609Z M 01MM=
0118712230999992014011218004+51933-110700FM-12+077299999V0203101N009819999999N999999999-01161-01451999999ADDAA106000091AA224000091KA1120M-00221KA2120N-01171REMSYN05871223 15/// /3119 11116 21145 60001 333 11022 21117 70000=
0093712230999992014011218004+51930-110720SAO  +077299999V020310190098199999999999999999-01161-01351999999ADDOD130101391300REMAWY067XCS SA 1800 AUTO8 M M M M/-12/-14/3119/M/ PK WND 3027 1716Z M 65MM=
0093712230999992014011219004+51930-110720SAO  +077299999V020300190093199999999999999999-01141-01411999999ADDOD130101341310REMAWY067XCS SA 1900 AUTO8 M M M M/-11/-14/3018/M/ PK WND 3126 1808Z M 41MM=
0093712230999992014011220004+51930-110720SAO  +077299999V020290190067199999999999999999-01101-01391999999ADDOD130101181290REMAWY067XCS SA 2000 AUTO8 M M M M/-11/-14/2913/M/ PK WND 2923 1903Z M 09MM=
0058712230999992014011221004+51930-110720SAO  +077299999V020290190062199999999999999999-01021-01331999999REMAWY049XCS SA 2100 AUTO8 M M M M/-10/-13/2912/M/ M 23MM=
0058712230999992014011222004+51930-110720SAO  +077299999V020290190062199999999999999999-00991-01291999999REMAWY049XCS SA 2200 AUTO8 M M M M/-10/-13/2912/M/ M 99MM=
0093712230999992014011223004+51930-110720SAO  +077299999V020280190082199999999999999999-00961-01261999999ADDOD130100981280REMAWY067XCS SA 2300 AUTO8 M M M M/-10/-13/2816/M/ PK WND 2819 2212Z M 66MM=
0118712230999992014011300004+51933-110700FM-12+077299999V0202801N007219999999N999999999-00971-01271999999ADDAA106000091AA224000091KA1120M-00351KA2120N-01171REMSYN05871223 15/// /2814 11097 21127 60001 333 11035 21117 70000=
0093712230999992014011300004+51930-110720SAO  +077299999V020280190072199999999999999999-00971-01271999999ADDOD130100981280REMAWY067XCS SA 0000 AUTO8 M M M M/-10/-13/2814/M/ PK WND 2819 2335Z M 77MM=
0058712230999992014011301004+51930-110720SAO  +077299999V020250190057199999999999999999-01111-01321999999REMAWY049XCS SA 0100 AUTO8 M M M M/-11/-13/2511/M/ M 12MM=
0058712230999992014011302004+51930-110720SAO  +077299999V020240190051199999999999999999-01091-01151999999REMAWY049XCS SA 0200 AUTO8 M M M M/-11/-12/2410/M/ M 95MM=
0058712230999992014011303004+51930-110720SAO  +077299999V020220190072199999999999999999-01401-01531999999REMAWY049XCS SA 0300 AUTO8 M M M M/-14/-15/2214/M/ M 03MM=
0058712230999992014011304004+51930-110720SAO  +077299999V020220190046199999999999999999-01341-01491999999REMAWY049XCS SA 0400 AUTO8 M M M M/-13/-15/2209/M/ M 49MM=
0058712230999992014011305004+51930-110720SAO  +077299999V020190190057199999999999999999-01091-01221999999REMAWY049XCS SA 0500 AUTO8 M M M M/-11/-12/1911/M/ M 92MM=
0134712230999992014011306004+51933-110700FM-12+077299999V0202101N004619999999N999999999-01101-01241999999ADDAA106000091AA224000091KA1240M-00221KA2240N-01421REMSYN07471223 15/// /2109 11110 21124 60001 333 11022 21142 70000 555 33132 40151=
0058712230999992014011306004+51930-110720SAO  +077299999V020210190046199999999999999999-01101-01241999999REMAWY049XCS SA 0600 AUTO8 M M M M/-11/-12/2109/M/ M 04MM=
0093712230999992014011307004+51930-110720SAO  +077299999V020210190057199999999999999999-00901-01061999999ADDOD130100871180REMAWY067XCS SA 0700 AUTO8 M M M M/-09/-11/2111/M/ PK WND 1817 0640Z M 06MM=
0058712230999992014011308004+51930-110720SAO  +077299999V020220190051199999999999999999-00911-01061999999REMAWY049XCS SA 0800 AUTO8 M M M M/-09/-11/2210/M/ M 16MM=
0093712230999992014011309004+51930-110720SAO  +077299999V020270190077199999999999999999-00491-00671999999ADDOD130100931260REMAWY067XCS SA 0900 AUTO8 M M M M/-05/-07/2715/M/ PK WND 2618 0840Z M 97MM=
0093712230999992014011310004+51930-110720SAO  +077299999V020250190077199999999999999999-00351-00781999999ADDOD130100931250REMAWY067XCS SA 1000 AUTO8 M M M M/-04/-08/2515/M/ PK WND 2518 0956Z M 58MM=
0093712230999992014011311004+51930-110720SAO  +077299999V020250190103199999999999999999-00291-00631999999ADDOD130101181250REMAWY067XCS SA 1100 AUTO8 M M M M/-03/-06/2520/M/ PK WND 2523 1059Z M 93MM=
0124712230999992014011312004+51933-110700FM-12+077299999V0202701N011819999999N999999999+00041-00251999999ADDAA106000091AA224000091KA1240N-01401REMSYN05871223 15/// /2723 10004 21025 60001 333 11022 21142 70000=EQDQ01-2    2EATMX 
0092712230999992014011312004+51930-110720SAO  +077299999V020270190118199999999999999999+00041-00151999999ADDOD130101441270REMAWY066XCS SA 1200 AUTO8 M M M M/00/-02/2723/M/ PK WND 2728 1131Z M 45MM=
0092712230999992014011313004+51930-110720SAO  +077299999V020290190082199999999999999999+00111-00031999999ADDOD130101441280REMAWY066XCS SA 1300 AUTO8 M M M M/01/00/2916/M/ PK WND 2828 1211Z M 1-3MM=
0127712230999992014011314004+51930-110720SAO  +077299999V020270190093199999999999999999-00011-00061999999ADDAA101000731OD130101081270REMAWY090XCS SA 1400 AUTO8 M M M M/00/-01/2718/M/0007 PCPN 0.7MM PAST HR PK WND 2721 1356Z M -16MM=
0096712230999992014011315004+51930-110720SAO  +077299999V020300190087199999999999999999+00011-00021999999ADDOD130101081270REMAWY070XCS SA 1500 AUTO8 M M M M/00/00/3017/M/0007 PK WND 2721 1407Z M 1-2MM=
0126712230999992014011316004+51930-110720SAO  +077299999V020310190077199999999999999999+00021-00011999999ADDAA101000831OD130101081310REMAWY089XCS SA 1600 AUTO8 M M M M/00/00/3115/M/0015 PCPN 0.8MM PAST HR PK WND 3121 1543Z M 2-1MM=
0126712230999992014011317004+51930-110720SAO  +077299999V020290190082199999999999999999+00011-00011999999ADDAA101000531OD130100981290REMAWY089XCS SA 1700 AUTO8 M M M M/00/00/2916/M/0019 PCPN 0.5MM PAST HR PK WND 2919 1651Z M 1-1MM=
0132712230999992014011318004+51933-110700FM-12+077299999V0203001N012419999999N999999999+00031-00031999999ADDAA106002032AA224001932AZ141021KA1120M+00131KA2120N-01421REMSYN06471223 17/// /3024 10003 21003 60021 7//4/ 333 10013 21142 70019=
0096712230999992014011318004+51930-110720SAO  +077299999V020300190123199999999999999999+00031-00031999999ADDOD130101441300REMAWY070XCS SA 1800 AUTO8 M M M M/00/00/3024/M/0019 PK WND 3028 1751Z M 3-3MM=
0092712230999992014011319004+51930-110720SAO  +077299999V020320190108199999999999999999-00051-00131999999ADDOD130101641310REMAWY066XCS SA 1900 AUTO8 M M M M/00/-01/3221/M/ PK WND 3132 1808Z M 53MM=
0093712230999992014011320004+51930-110720SAO  +077299999V020320190103199999999999999999-00091-00371999999ADDOD130101441320REMAWY067XCS SA 2000 AUTO8 M M M M/-01/-04/3220/M/ PK WND 3228 1905Z M 97MM=
0093712230999992014011321004+51930-110720SAO  +077299999V020310190082199999999999999999-00231-00601999999ADDOD130101231320REMAWY067XCS SA 2100 AUTO8 M M M M/-02/-06/3116/M/ PK WND 3224 2002Z M 30MM=
0093712230999992014011322004+51930-110720SAO  +077299999V020300190098199999999999999999-00231-00551999999ADDOD130101391310REMAWY067XCS SA 2200 AUTO8 M M M M/-02/-06/3019/M/ PK WND 3127 2129Z M 35MM=
0093712230999992014011323004+51930-110720SAO  +077299999V020320190077199999999999999999-00321-00691999999ADDOD130101181310REMAWY067XCS SA 2300 AUTO8 M M M M/-03/-07/3215/M/ PK WND 3123 2200Z M 29MM=
0118712230999992014011400004+51933-110700FM-12+077299999V0202901N005719999999N999999999-00441-00671999999ADDAA106000091AA224001931KA1120M+00131KA2120N-01101REMSYN05871223 15/// /2911 11044 21067 60001 333 10013 21110 70019=
0093712230999992014011400004+51930-110720SAO  +077299999V020290190057199999999999999999-00441-00671999999ADDOD130100981300REMAWY067XCS SA 0000 AUTO8 M M M M/-04/-07/2911/M/ PK WND 3019 2309Z M 47MM=
0093712230999992014011401004+51930-110720SAO  +077299999V020300190087199999999999999999-00381-00531999999ADDOD130100981300REMAWY067XCS SA 0100 AUTO8 M M M M/-04/-05/3017/M/ PK WND 3019 0056Z M 83MM=
0093712230999992014011402004+51930-110720SAO  +077299999V020310190098199999999999999999-00271-00511999999ADDOD130101231310REMAWY067XCS SA 0200 AUTO8 M M M M/-03/-05/3119/M/ PK WND 3124 0151Z M 71MM=
0093712230999992014011403004+51930-110720SAO  +077299999V020270190057199999999999999999-00331-00471999999ADDOD130101031310REMAWY067XCS SA 0300 AUTO8 M M M M/-03/-05/2711/M/ PK WND 3120 0208Z M 37MM=
0093712230999992014011404004+51930-110720SAO  +077299999V020310190077199999999999999999-00211-00291999999ADDOD130101131320REMAWY067XCS SA 0400 AUTO8 M M M M/-02/-03/3115/M/ PK WND 3222 0333Z M 19MM=
0093712230999992014011405004+51930-110720SAO  +077299999V020280190072199999999999999999-00411-00671999999ADDOD130101031300REMAWY067XCS SA 0500 AUTO8 M M M M/-04/-07/2814/M/ PK WND 3020 0403Z M 17MM=
0134712230999992014011406004+51933-110700FM-12+077299999V0203001N010819999999N999999999-00311-00671999999ADDAA106000091AA224001931KA1240M+00131KA2240N-01101REMSYN07471223 15/// /3021 11031 21067 60001 333 10013 21110 70019 555 33132 40191=
0093712230999992014011406004+51930-110720SAO  +077299999V020300190108199999999999999999-00311-00671999999ADDOD130101281310REMAWY067XCS SA 0600 AUTO8 M M M M/-03/-07/3021/M/ PK WND 3125 0548Z M 17MM=
0093712230999992014011407004+51930-110720SAO  +077299999V020300190103199999999999999999-00411-00741999999ADDOD130101181290REMAWY067XCS SA 0700 AUTO8 M M M M/-04/-07/3020/M/ PK WND 2923 0632Z M 14MM=
0093712230999992014011408004+51930-110720SAO  +077299999V020290190072199999999999999999-00491-00801999999ADDOD130101081310REMAWY067XCS SA 0800 AUTO8 M M M M/-05/-08/2914/M/ PK WND 3121 0710Z M 90MM=
0093712230999992014011409004+51930-110720SAO  +077299999V020280190082199999999999999999-00581-00841999999ADDOD130100871270REMAWY067XCS SA 0900 AUTO8 M M M M/-06/-08/2816/M/ PK WND 2717 0857Z M 84MM=
0093712230999992014011411004+51930-110720SAO  +077299999V020270190098199999999999999999-00721-00991999999ADDOD130101081280REMAWY067XCS SA 1100 AUTO8 M M M M/-07/-10/2719/M/ PK WND 2821 1001Z M 29MM=
0118712230999992014011412004+51933-110700FM-12+077299999V0202801N008219999999N999999999-00751-01011999999ADDAA106000091AA224001931KA1240M+00131KA2240N-00761REMSYN05871223 15/// /2816 11075 21101 60001 333 10013 21076 70019=
0093712230999992014011412004+51930-110720SAO  +077299999V020280190082199999999999999999-00651-01011999999ADDOD130101031270REMAWY067XCS SA 1200 AUTO8 M M M M/-07/-10/2816/M/ PK WND 2720 1104Z M 51MM=
0093712230999992014011413004+51930-110720SAO  +077299999V020290190062199999999999999999-00641-00961999999ADDOD130100981280REMAWY067XCS SA 1300 AUTO8 M M M M/-06/-10/2912/M/ PK WND 2819 1204Z M 46MM=
0058712230999992014011414004+51930-110720SAO  +077299999V020270190067199999999999999999-00871-01131999999REMAWY049XCS SA 1400 AUTO8 M M M M/-09/-11/2713/M/ M 73MM=
0058712230999992014011415004+51930-110720SAO  +077299999V020280190062199999999999999999-00691-01001999999REMAWY049XCS SA 1500 AUTO8 M M M M/-07/-10/2812/M/ M 90MM=
0058712230999992014011416004+51930-110720SAO  +077299999V020270190062199999999999999999-00591-00911999999REMAWY049XCS SA 1600 AUTO8 M M M M/-06/-09/2712/M/ M 91MM=
0058712230999992014011417004+51930-110720SAO  +077299999V020220190057199999999999999999-00701-00961999999REMAWY049XCS SA 1700 AUTO8 M M M M/-07/-10/2211/M/ M 06MM=
0118712230999992014011418004+51933-110700FM-12+077299999V0202301N006719999999N999999999-00571-00831999999ADDAA106000091AA224000091KA1120M-00311KA2120N-00881REMSYN05871223 15/// /2313 11057 21083 60001 333 11031 21088 70000=
0058712230999992014011418004+51930-110720SAO  +077299999V020230190067199999999999999999-00571-00831999999REMAWY049XCS SA 1800 AUTO8 M M M M/-06/-08/2313/M/ M 73MM=
0058712230999992014011419004+51930-110720SAO  +077299999V020240190062199999999999999999-00331-00731999999REMAWY049XCS SA 1900 AUTO8 M M M M/-03/-07/2412/M/ M 33MM=
0093712230999992014011420004+51930-110720SAO  +077299999V020230190072199999999999999999-00261-00551999999ADDOD130100931240REMAWY067XCS SA 2000 AUTO8 M M M M/-03/-06/2314/M/ PK WND 2418 1920Z M 65MM=
0093712230999992014011421004+51930-110720SAO  +077299999V020230190103199999999999999999-00221-00551999999ADDOD130101231230REMAWY067XCS SA 2100 AUTO8 M M M M/-02/-06/2320/M/ PK WND 2324 2055Z M 25MM=
0093712230999992014011422004+51930-110720SAO  +077299999V020220190103199999999999999999-00281-00611999999ADDOD130101181230REMAWY067XCS SA 2200 AUTO8 M M M M/-03/-06/2220/M/ PK WND 2323 2152Z M 81MM=
0093712230999992014011423004+51930-110720SAO  +077299999V020230190098199999999999999999-00341-00631999999ADDOD130101131230REMAWY067XCS SA 2300 AUTO8 M M M M/-03/-06/2319/M/ PK WND 2322 2257Z M 43MM=
0118712230999992014011500004+51933-110700FM-12+077299999V0202301N010319999999N999999999-00371-00621999999ADDAA106000091AA224000091KA1120M-00201KA2120N-00881REMSYN05871223 15/// /2320 11037 21062 60001 333 11020 21088 70000=
0093712230999992014011500004+51930-110720SAO  +077299999V020230190103199999999999999999-00371-00621999999ADDOD130101231230REMAWY067XCS SA 0000 AUTO8 M M M M/-04/-06/2320/M/ PK WND 2324 2316Z M 72MM=
0093712230999992014011501004+51930-110720SAO  +077299999V020220190082199999999999999999-00361-00591999999ADDOD130101231220REMAWY067XCS SA 0100 AUTO8 M M M M/-04/-06/2216/M/ PK WND 2224 0011Z M 69MM=
0093712230999992014011502004+51930-110720SAO  +077299999V020220190077199999999999999999-00481-00671999999ADDOD130100981220REMAWY067XCS SA 0200 AUTO8 M M M M/-05/-07/2215/M/ PK WND 2219 0106Z M 87MM=
0093712230999992014011503004+51930-110720SAO  +077299999V020240190087199999999999999999-00111-00431999999ADDOD130100981240REMAWY067XCS SA 0300 AUTO8 M M M M/-01/-04/2417/M/ PK WND 2419 0243Z M 13MM=
0092712230999992014011504004+51930-110720SAO  +077299999V020250190098199999999999999999+00101-00301999999ADDOD130101131260REMAWY066XCS SA 0400 AUTO8 M M M M/01/-03/2519/M/ PK WND 2622 0330Z M 00MM=
0092712230999992014011505004+51930-110720SAO  +077299999V020260190108199999999999999999+00231-00171999999ADDOD130101181260REMAWY066XCS SA 0500 AUTO8 M M M M/02/-02/2621/M/ PK WND 2623 0455Z M 37MM=
0134712230999992014011506004+51933-110700FM-12+077299999V0202101N007719999999N999999999+00051-00111999999ADDAA106000091AA224000091KA1240M+00251KA2240N-00881REMSYN07471223 15/// /2115 10005 21011 60001 333 10025 21088 70000 555 32324 40001=
0092712230999992014011506004+51930-110720SAO  +077299999V020210190077199999999999999999+00051-00111999999ADDOD130101181260REMAWY066XCS SA 0600 AUTO8 M M M M/01/-01/2115/M/ PK WND 2623 0505Z M 51MM=
0092712230999992014011507004+51930-110720SAO  +077299999V020260190118199999999999999999+00301-00091999999ADDOD130101391260REMAWY066XCS SA 0700 AUTO8 M M M M/03/-01/2623/M/ PK WND 2627 0637Z M 09MM=
0092712230999992014011508004+51930-110720SAO  +077299999V020260190134199999999999999999+00361-00121999999ADDOD130101491250REMAWY066XCS SA 0800 AUTO8 M M M M/04/-01/2626/M/ PK WND 2529 0759Z M 62MM=
0092712230999992014011509004+51930-110720SAO  +077299999V020260190134199999999999999999+00321-00111999999ADDOD130101591260REMAWY066XCS SA 0900 AUTO8 M M M M/03/-01/2626/M/ PK WND 2631 0846Z M 21MM=
0092712230999992014011510004+51930-110720SAO  +077299999V020270190144199999999999999999+00391-00121999999ADDOD130101641270REMAWY066XCS SA 1000 AUTO8 M M M M/04/-01/2728/M/ PK WND 2732 0950Z M 92MM=
0092712230999992014011511004+51930-110720SAO  +077299999V020260190144199999999999999999+00411-00131999999ADDOD130101701260REMAWY066XCS SA 1100 AUTO8 M M M M/04/-01/2628/M/ PK WND 2633 1038Z M 13MM=
0124712230999992014011512004+51933-110700FM-12+077299999V0202701N013919999999N999999999+00461-00211999999ADDAA106000091AA224000091KA1240N-00501REMSYN05871223 15/// /2727 10046 21021 60001 333 10025 21050 70000=EQDQ012     2EATMX 
0092712230999992014011512004+51930-110720SAO  +077299999V020270190139199999999999999999+00461-00211999999ADDOD130101851270REMAWY066XCS SA 1200 AUTO8 M M M M/05/-02/2727/M/ PK WND 2736 1117Z M 61MM=
0092712230999992014011513004+51930-110720SAO  +077299999V020290190149199999999999999999+00601-00341999999ADDOD130102061280REMAWY066XCS SA 1300 AUTO8 M M M M/06/-03/2929/M/ PK WND 2840 1256Z M 04MM=
0126712230999992014011514004+51930-110720SAO  +077299999V020290190139199999999999999999+00521-00321999999ADDAA101001331OD130101951290REMAWY089XCS SA 1400 AUTO8 M M M M/05/-03/2927/M/0013 PCPN 1.3MM PAST HR PK WND 2938 1347Z M 22MM=
0096712230999992014011515004+51930-110720SAO  +077299999V020280190118199999999999999999+00251-00231999999ADDOD130101701290REMAWY070XCS SA 1500 AUTO8 M M M M/03/-02/2823/M/0013 PK WND 2933 1413Z M 53MM=
0096712230999992014011516004+51930-110720SAO  +077299999V020300190170199999999999999999+00481-00361999999ADDOD130102161300REMAWY070XCS SA 1600 AUTO8 M M M M/05/-04/3033/M/0013 PK WND 3042 1556Z M 86MM=
0096712230999992014011517004+51930-110720SAO  +077299999V020310190149199999999999999999+00251-00151999999ADDOD130102521320REMAWY070XCS SA 1700 AUTO8 M M M M/03/-02/3129/M/0013 PK WND 3249 1630Z M 55MM=
0132712230999992014011518004+51933-110700FM-12+077299999V0203001N017019999999N999999999+00371-00391999999ADDAA106001031AA224001331AZ141021KA1120M+00601KA2120N-00571REMSYN06471223 17/// /3033 10037 21039 60011 7//4/ 333 10060 21057 70013=
0096712230999992014011518004+51930-110720SAO  +077299999V020300190170199999999999999999+00371-00391999999ADDOD130102261300REMAWY070XCS SA 1800 AUTO8 M M M M/04/-04/3033/M/0013 PK WND 3044 1733Z M 79MM=
0092712230999992014011519004+51930-110720SAO  +077299999V020300190164199999999999999999+00351-00501999999ADDOD130102111300REMAWY066XCS SA 1900 AUTO8 M M M M/04/-05/3032/M/ PK WND 3041 1806Z M 50MM=
0092712230999992014011520004+51930-110720SAO  +077299999V020310190190199999999999999999+00331-00591999999ADDOD130102521310REMAWY066XCS SA 2000 AUTO8 M M M M/03/-06/3137/M/ PK WND 3149 1945Z M 39MM=
0092712230999992014011521004+51930-110720SAO  +077299999V020310190190199999999999999999+00291-00561999999ADDOD130102421310REMAWY066XCS SA 2100 AUTO8 M M M M/03/-06/3137/M/ PK WND 3147 2010Z M 96MM=
0092712230999992014011522004+51930-110720SAO  +077299999V020310190185199999999999999999+00251-00551999999ADDOD130102471310REMAWY066XCS SA 2200 AUTO8 M M M M/03/-06/3136/M/ PK WND 3148 2132Z M 55MM=
0092712230999992014011523004+51930-110720SAO  +077299999V020310190180199999999999999999+00201-00541999999ADDOD130102361310REMAWY066XCS SA 2300 AUTO8 M M M M/02/-05/3135/M/ PK WND 3146 2203Z M 04MM=
0118712230999992014011600004+51933-110700FM-12+077299999V0203001N016019999999N999999999+00111-00581999999ADDAA106000091AA224001331KA1120M+00601KA2120N+00051REMSYN05871223 15/// /3031 10011 21058 60001 333 10060 20005 70013=
0092712230999992014011600004+51930-110720SAO  +077299999V020300190159199999999999999999+00111-00581999999ADDOD130102001310REMAWY066XCS SA 0000 AUTO8 M M M M/01/-06/3031/M/ PK WND 3139 2311Z M 18MM=
0092712230999992014011601004+51930-110720SAO  +077299999V020300190144199999999999999999+00081-00591999999ADDOD130102001300REMAWY066XCS SA 0100 AUTO8 M M M M/01/-06/3028/M/ PK WND 3039 0005Z M 89MM=
0092712230999992014011602004+51930-110720SAO  +077299999V020310190149199999999999999999+00031-00611999999ADDOD130101901310REMAWY066XCS SA 0200 AUTO8 M M M M/00/-06/3129/M/ PK WND 3137 0143Z M 31MM=
0092712230999992014011603004+51930-110720SAO  +077299999V020310190144199999999999999999+00001-00641999999ADDOD130101801310REMAWY066XCS SA 0300 AUTO8 M M M M/00/-06/3128/M/ PK WND 3135 0220Z M 04MM=
0093712230999992014011604004+51930-110720SAO  +077299999V020310190139199999999999999999+00001-00551999999ADDOD130101701300REMAWY067XCS SA 0400 AUTO8 M M M M/00/-06/3127/M/ PK WND 3033 0343Z M -05MM=
0093712230999992014011605004+51930-110720SAO  +077299999V020310190139199999999999999999-00021-00681999999ADDOD130101801300REMAWY067XCS SA 0500 AUTO8 M M M M/00/-07/3127/M/ PK WND 3035 0450Z M -28MM=
0134712230999992014011606004+51933-110700FM-12+077299999V0203101N013919999999N999999999-00031-00681999999ADDAA106000091AA224001331KA1240M+00601KA2240N-00041REMSYN07471223 15/// /3127 11003 21068 60001 333 10060 21004 70013 555 33249 40173=
0093712230999992014011606004+51930-110720SAO  +077299999V020310190139199999999999999999-00031-00681999999ADDOD130101801320REMAWY067XCS SA 0600 AUTO8 M M M M/00/-07/3127/M/ PK WND 3235 0516Z M -38MM=
0093712230999992014011607004+51930-110720SAO  +077299999V020310190134199999999999999999-00081-00691999999ADDOD130101641300REMAWY067XCS SA 0700 AUTO8 M M M M/-01/-07/3126/M/ PK WND 3032 0651Z M 89MM=
0093712230999992014011608004+51930-110720SAO  +077299999V020310190113199999999999999999-00141-00691999999ADDOD130101591310REMAWY067XCS SA 0800 AUTO8 M M M M/-01/-07/3122/M/ PK WND 3131 0701Z M 49MM=
0093712230999992014011609004+51930-110720SAO  +077299999V020320190087199999999999999999-00211-00721999999ADDOD130101281310REMAWY067XCS SA 0900 AUTO8 M M M M/-02/-07/3217/M/ PK WND 3125 0803Z M 12MM=
0093712230999992014011610004+51930-110720SAO  +077299999V020320190082199999999999999999-00261-00721999999ADDOD130101031310REMAWY067XCS SA 1000 AUTO8 M M M M/-03/-07/3216/M/ PK WND 3120 0915Z M 62MM=
0093712230999992014011611004+51930-110720SAO  +077299999V020310190087199999999999999999-00261-00721999999ADDOD130101031310REMAWY067XCS SA 1100 AUTO8 M M M M/-03/-07/3117/M/ PK WND 3120 1010Z M 62MM=
0118712230999992014011612004+51933-110700FM-12+077299999V0203301N006219999999N999999999-00261-00771999999ADDAA106000091AA224001331KA1240M+00601KA2240N-00301REMSYN05871223 15/// /3312 11026 21077 60001 333 10060 21030 70013=
0093712230999992014011612004+51930-110720SAO  +077299999V020330190062199999999999999999-00261-00771999999ADDOD130101081310REMAWY067XCS SA 1200 AUTO8 M M M M/-03/-08/3312/M/ PK WND 3121 1101Z M 67MM=
0058712230999992014011613004+51930-110720SAO  +077299999V020280190051199999999999999999-00351-00791999999REMAWY049XCS SA 1300 AUTO8 M M M M/-04/-08/2810/M/ M 59MM=
0058712230999992014011614004+51930-110720SAO  +077299999V020270190072199999999999999999-00511-00841999999REMAWY049XCS SA 1400 AUTO8 M M M M/-05/-08/2714/M/ M 14MM=
0093712230999992014011615004+51930-110720SAO  +077299999V020270190082199999999999999999-00531-00891999999ADDOD130100931270REMAWY067XCS SA 1500 AUTO8 M M M M/-05/-09/2716/M/ PK WND 2718 1457Z M 39MM=
0093712230999992014011616004+51930-110720SAO  +077299999V020280190082199999999999999999-00581-00951999999ADDOD130100981270REMAWY067XCS SA 1600 AUTO8 M M M M/-06/-10/2816/M/ PK WND 2719 1557Z M 85MM=
0093712230999992014011617004+51930-110720SAO  +077299999V020270190087199999999999999999-00431-00751999999ADDOD130100981270REMAWY067XCS SA 1700 AUTO8 M M M M/-04/-08/2717/M/ PK WND 2719 1642Z M 35MM=
0118712230999992014011618004+51933-110700FM-12+077299999V0202801N007719999999N999999999-00361-00831999999ADDAA106000091AA224000091KA1120M-00031KA2120N-00621REMSYN05871223 15/// /2815 11036 21083 60001 333 11003 21062 70000=
0093712230999992014011618004+51930-110720SAO  +077299999V020280190077199999999999999999-00361-00831999999ADDOD130100981280REMAWY067XCS SA 1800 AUTO8 M M M M/-04/-08/2815/M/ PK WND 2819 1702Z M 63MM=
0093712230999992014011619004+51930-110720SAO  +077299999V020270190077199999999999999999-00181-00741999999ADDOD130100931270REMAWY067XCS SA 1900 AUTO8 M M M M/-02/-07/2715/M/ PK WND 2718 1856Z M 84MM=
0093712230999992014011620004+51930-110720SAO  +077299999V020270190087199999999999999999-00181-00691999999ADDOD130100981260REMAWY067XCS SA 2000 AUTO8 M M M M/-02/-07/2717/M/ PK WND 2619 1956Z M 89MM=
0093712230999992014011621004+51930-110720SAO  +077299999V020270190093199999999999999999-00161-00631999999ADDOD130101131270REMAWY067XCS SA 2100 AUTO8 M M M M/-02/-06/2718/M/ PK WND 2722 2017Z M 63MM=
0093712230999992014011622004+51930-110720SAO  +077299999V020270190103199999999999999999-00091-00611999999ADDOD130101181260REMAWY067XCS SA 2200 AUTO8 M M M M/-01/-06/2720/M/ PK WND 2623 2142Z M 91MM=
0093712230999992014011623004+51930-110720SAO  +077299999V020280190087199999999999999999-00151-00631999999ADDOD130101131270REMAWY067XCS SA 2300 AUTO8 M M M M/-02/-06/2817/M/ PK WND 2722 2225Z M 53MM=
0118712230999992014011700004+51933-110700FM-12+077299999V0202601N007719999999N999999999-00191-00641999999ADDAA106000091AA224000091KA1120M-00081KA2120N-00621REMSYN05871223 15/// /2615 11019 21064 60001 333 11008 21062 70000=
0093712230999992014011700004+51930-110720SAO  +077299999V020260190077199999999999999999-00191-00641999999ADDOD130101081270REMAWY067XCS SA 0000 AUTO8 M M M M/-02/-06/2615/M/ PK WND 2721 2313Z M 94MM=
0093712230999992014011701004+51930-110720SAO  +077299999V020260190087199999999999999999-00241-00671999999ADDOD130100981260REMAWY067XCS SA 0100 AUTO8 M M M M/-02/-07/2617/M/ PK WND 2619 0002Z M 47MM=
0093712230999992014011702004+51930-110720SAO  +077299999V020270190093199999999999999999-00311-00691999999ADDOD130101081270REMAWY067XCS SA 0200 AUTO8 M M M M/-03/-07/2718/M/ PK WND 2721 0125Z M 19MM=
0093712230999992014011703004+51930-110720SAO  +077299999V020270190077199999999999999999-00271-00601999999ADDOD130100931280REMAWY067XCS SA 0300 AUTO8 M M M M/-03/-06/2715/M/ PK WND 2818 0200Z M 70MM=
0093712230999992014011704004+51930-110720SAO  +077299999V020280190077199999999999999999-00171-00561999999ADDOD130100931270REMAWY067XCS SA 0400 AUTO8 M M M M/-02/-06/2815/M/ PK WND 2718 0332Z M 76MM=
0093712230999992014011705004+51930-110720SAO  +077299999V020280190077199999999999999999-00201-00571999999ADDOD130100871280REMAWY067XCS SA 0500 AUTO8 M M M M/-02/-06/2815/M/ PK WND 2817 0432Z M 07MM=
0134712230999992014011706004+51933-110700FM-12+077299999V0202801N008219999999N999999999-00221-00581999999ADDAA106000091AA224000091KA1240M-00031KA2240N-00621REMSYN07471223 15/// /2816 11022 21058 60001 333 11003 21062 70000 555 33032 40071=
0093712230999992014011706004+51930-110720SAO  +077299999V020280190082199999999999999999-00221-00581999999ADDOD130100931280REMAWY067XCS SA 0600 AUTO8 M M M M/-02/-06/2816/M/ PK WND 2818 0548Z M 28MM=
0058712230999992014011707004+51930-110720SAO  +077299999V020280190067199999999999999999-00181-00531999999REMAWY049XCS SA 0700 AUTO8 M M M M/-02/-05/2813/M/ M 83MM=
0093712230999992014011708004+51930-110720SAO  +077299999V020260190067199999999999999999-00091-00441999999ADDOD130100931260REMAWY067XCS SA 0800 AUTO8 M M M M/-01/-04/2613/M/ PK WND 2618 0715Z M 94MM=
0058712230999992014011709004+51930-110720SAO  +077299999V020220190057199999999999999999-00491-00701999999REMAWY049XCS SA 0900 AUTO8 M M M M/-05/-07/2211/M/ M 90MM=
0093712230999992014011710004+51930-110720SAO  +077299999V020250190077199999999999999999-00041-00511999999ADDOD130101031240REMAWY067XCS SA 1000 AUTO8 M M M M/00/-05/2515/M/ PK WND 2420 0949Z M -41MM=
0093712230999992014011711004+51930-110720SAO  +077299999V020250190108199999999999999999-00041-00541999999ADDOD130101181250REMAWY067XCS SA 1100 AUTO8 M M M M/00/-05/2521/M/ PK WND 2523 1051Z M -44MM=
0118712230999992014011712004+51933-110700FM-12+077299999V0202601N010319999999N999999999-00121-00551999999ADDAA106000091AA224000091KA1240M-00031KA2240N-00581REMSYN05871223 15/// /2620 11012 21055 60001 333 11003 21058 70000=
0093712230999992014011712004+51930-110720SAO  +077299999V020260190103199999999999999999-00121-00551999999ADDOD130101181260REMAWY067XCS SA 1200 AUTO8 M M M M/-01/-06/2620/M/ PK WND 2623 1144Z M 25MM=
0093712230999992014011713004+51930-110720SAO  +077299999V020270190098199999999999999999-00111-00581999999ADDOD130101181270REMAWY067XCS SA 1300 AUTO8 M M M M/-01/-06/2719/M/ PK WND 2723 1227Z M 18MM=
0092712230999992014011714004+51930-110720SAO  +077299999V020280190098199999999999999999+00001-00561999999ADDOD130101131280REMAWY066XCS SA 1400 AUTO8 M M M M/00/-06/2819/M/ PK WND 2822 1307Z M 06MM=
0092712230999992014011715004+51930-110720SAO  +077299999V020290190072199999999999999999+00101-00491999999ADDOD130101031290REMAWY066XCS SA 1500 AUTO8 M M M M/01/-05/2914/M/ PK WND 2920 1404Z M 09MM=
0092712230999992014011716004+51930-110720SAO  +077299999V020280190087199999999999999999+00101-00461999999ADDOD130101031280REMAWY066XCS SA 1600 AUTO8 M M M M/01/-05/2817/M/ PK WND 2820 1558Z M 06MM=
0092712230999992014011717004+51930-110720SAO  +077299999V020290190103199999999999999999+00131-00431999999ADDOD130101181290REMAWY066XCS SA 1700 AUTO8 M M M M/01/-04/2920/M/ PK WND 2923 1632Z M 33MM=
0118712230999992014011718004+51933-110700FM-12+077299999V0203001N009319999999N999999999+00161-00371999999ADDAA106000091AA224000091KA1120M+00161KA2120N-00581REMSYN05871223 15/// /3018 10016 21037 60001 333 10016 21058 70000=
0092712230999992014011718004+51930-110720SAO  +077299999V020300190093199999999999999999+00161-00371999999ADDOD130101181290REMAWY066XCS SA 1800 AUTO8 M M M M/02/-04/3018/M/ PK WND 2923 1700Z M 67MM=
0092712230999992014011719004+51930-110720SAO  +077299999V020300190103199999999999999999+00251-00151999999ADDOD130101181300REMAWY066XCS SA 1900 AUTO8 M M M M/03/-02/3020/M/ PK WND 3023 1855Z M 55MM=
0092712230999992014011720004+51930-110720SAO  +077299999V020290190082199999999999999999+00281-00201999999ADDOD130101391300REMAWY066XCS SA 2000 AUTO8 M M M M/03/-02/2916/M/ PK WND 3027 1917Z M 80MM=
0092712230999992014011721004+51930-110720SAO  +077299999V020300190103199999999999999999+00261-00151999999ADDOD130101181300REMAWY066XCS SA 2100 AUTO8 M M M M/03/-02/3020/M/ PK WND 3023 2050Z M 65MM=
0092712230999992014011722004+51930-110720SAO  +077299999V020300190087199999999999999999+00271-00141999999ADDOD130101081310REMAWY066XCS SA 2200 AUTO8 M M M M/03/-01/3017/M/ PK WND 3121 2113Z M 74MM=
0092712230999992014011723004+51930-110720SAO  +077299999V020290190087199999999999999999+00201-00161999999ADDOD130101081310REMAWY066XCS SA 2300 AUTO8 M M M M/02/-02/2917/M/ PK WND 3121 2214Z M 06MM=
0118712230999992014011800004+51933-110700FM-12+077299999V0203001N010319999999N999999999+00211-00191999999ADDAA106000091AA224000091KA1120M+00311KA2120N-00581REMSYN05871223 15/// /3020 10021 21019 60001 333 10031 21058 70000=
0092712230999992014011800004+51930-110720SAO  +077299999V020300190103199999999999999999+00211-00191999999ADDOD130101231300REMAWY066XCS SA 0000 AUTO8 M M M M/02/-02/3020/M/ PK WND 3024 2359Z M 19MM=
0092712230999992014011801004+51930-110720SAO  +077299999V020300190093199999999999999999+00151-00211999999ADDOD130101181300REMAWY066XCS SA 0100 AUTO8 M M M M/02/-02/3018/M/ PK WND 3023 0020Z M 51MM=
0092712230999992014011802004+51930-110720SAO  +077299999V020300190087199999999999999999+00161-00211999999ADDOD130101081300REMAWY066XCS SA 0200 AUTO8 M M M M/02/-02/3017/M/ PK WND 3021 0135Z M 61MM=
0092712230999992014011803004+51930-110720SAO  +077299999V020300190077199999999999999999+00101-00241999999ADDOD130101081310REMAWY066XCS SA 0300 AUTO8 M M M M/01/-02/3015/M/ PK WND 3121 0216Z M 04MM=
0093712230999992014011804004+51930-110720SAO  +077299999V020270190082199999999999999999-00081-00331999999ADDOD130100931270REMAWY067XCS SA 0400 AUTO8 M M M M/-01/-03/2716/M/ PK WND 2718 0347Z M 83MM=
0093712230999992014011805004+51930-110720SAO  +077299999V020290190093199999999999999999+00001-00311999999ADDOD130101031300REMAWY067XCS SA 0500 AUTO8 M M M M/00/-03/2918/M/ PK WND 3020 0456Z M -01MM=
0134712230999992014011806004+51933-110700FM-12+077299999V0202901N008219999999N999999999-00131-00401999999ADDAA106000091AA224000091KA1240M+00311KA2240N-00581REMSYN07471223 15/// /2916 11013 21040 60001 333 10031 21058 70000 555 33027 40201=
0093712230999992014011806004+51930-110720SAO  +077299999V020290190082199999999999999999-00131-00401999999ADDOD130101031290REMAWY067XCS SA 0600 AUTO8 M M M M/-01/-04/2916/M/ PK WND 2920 0513Z M 30MM=
0094712230999992014011808004+51930-110720SAO  +077299999V020290190051199999999999999999-00211-00471999999ADDOD130100871290REMAWY068XCS SA 0800 AUTO8 M M M M/-02/-05/2910/M/M PK WND 2917 0732Z M 17MM=
0059712230999992014011809004+51930-110720SAO  +077299999V020280190046199999999999999999-00211-00521999999REMAWY050XCS SA 0900 AUTO8 M M M M/-02/-05/2809/M/M M 12MM=
0094712230999992014011810004+51930-110720SAO  +077299999V020270190082199999999999999999-00321-00571999999ADDOD130100981230REMAWY068XCS SA 1000 AUTO8 M M M M/-03/-06/2716/M/M PK WND 2319 0928Z M 27MM=
0094712230999992014011811004+51930-110720SAO  +077299999V020270190051199999999999999999-00341-00591999999ADDOD130100871270REMAWY068XCS SA 1100 AUTO8 M M M M/-03/-06/2710/M/M PK WND 2717 1001Z M 49MM=
0118712230999992014011812004+51933-110700FM-12+077299999V0202301N003119999999N999999999-00581-00761999999ADDAA106999919AA224999919KA1240M+00311KA2240N-00671REMSYN05871223 45/// /2306 11058 21076 6///1 333 10031 21067 7////=
0059712230999992014011812004+51930-110720SAO  +077299999V020230190031199999999999999999-00581-00761999999REMAWY050XCS SA 1200 AUTO8 M M M M/-06/-08/2306/M/M M 86MM=
0093712230999992014011813004+51930-110720SAO  +077299999V020240190087199999999999999999-00471-00731999999ADDOD130100981240REMAWY067XCS SA 1300 AUTO8 M M M M/-05/-07/2417/M/ PK WND 2419 1259Z M 73MM=
0093712230999992014011814004+51930-110720SAO  +077299999V020250190072199999999999999999-00381-00631999999ADDOD130100981240REMAWY067XCS SA 1400 AUTO8 M M M M/-04/-06/2514/M/ PK WND 2419 1300Z M 83MM=
0093712230999992014011815004+51930-110720SAO  +077299999V020220190057199999999999999999-00711-00961999999ADDOD130101031240REMAWY067XCS SA 1500 AUTO8 M M M M/-07/-10/2211/M/ PK WND 2420 1429Z M 16MM=
0093712230999992014011816004+51930-110720SAO  +077299999V020230190093199999999999999999-00701-00891999999ADDOD130101031230REMAWY067XCS SA 1600 AUTO8 M M M M/-07/-09/2318/M/ PK WND 2320 1559Z M 09MM=
0093712230999992014011817004+51930-110720SAO  +077299999V020250190108199999999999999999-00391-00741999999ADDOD130101341250REMAWY067XCS SA 1700 AUTO8 M M M M/-04/-07/2521/M/ PK WND 2526 1621Z M 94MM=
0118712230999992014011818004+51933-110700FM-12+077299999V0202501N008819999999N999999999-00311-00661999999ADDAA106000091AA224999919KA1120M-00121KA2120N-00801REMSYN05871223 15/// /2517 11031 21066 60001 333 11012 21080 7////=
0093712230999992014011818004+51930-110720SAO  +077299999V020250190087199999999999999999-00311-00661999999ADDOD130101281240REMAWY067XCS SA 1800 AUTO8 M M M M/-03/-07/2517/M/ PK WND 2425 1708Z M 16MM=
0093712230999992014011819004+51930-110720SAO  +077299999V020260190098199999999999999999-00041-00511999999ADDOD130101231260REMAWY067XCS SA 1900 AUTO8 M M M M/00/-05/2619/M/ PK WND 2624 1819Z M -41MM=
0093712230999992014011820004+51930-110720SAO  +077299999V020230190062199999999999999999-00131-00471999999ADDOD130101081260REMAWY067XCS SA 2000 AUTO8 M M M M/-01/-05/2312/M/ PK WND 2621 1910Z M 37MM=
0092712230999992014011821004+51930-110720SAO  +077299999V020270190108199999999999999999+00141-00391999999ADDOD130101181270REMAWY066XCS SA 2100 AUTO8 M M M M/01/-04/2721/M/ PK WND 2723 2051Z M 49MM=
0092712230999992014011822004+51930-110720SAO  +077299999V020260190103199999999999999999+00241-00381999999ADDOD130101231260REMAWY066XCS SA 2200 AUTO8 M M M M/02/-04/2620/M/ PK WND 2624 2147Z M 48MM=
0092712230999992014011823004+51930-110720SAO  +077299999V020250190082199999999999999999+00061-00371999999ADDOD130101131260REMAWY066XCS SA 2300 AUTO8 M M M M/01/-04/2516/M/ PK WND 2622 2202Z M 67MM=
0118712230999992014011900004+51933-110700FM-12+077299999V0202301N007219999999N999999999-00291-00551999999ADDAA106000091AA224999919KA1120M+00311KA2120N-00801REMSYN05871223 15/// /2314 11029 21055 60001 333 10031 21080 7////=
0093712230999992014011900004+51930-110720SAO  +077299999V020230190072199999999999999999-00291-00551999999ADDOD130100981250REMAWY067XCS SA 0000 AUTO8 M M M M/-03/-06/2314/M/ PK WND 2519 2344Z M 95MM=
0093712230999992014011901004+51930-110720SAO  +077299999V020230190093199999999999999999-00351-00601999999ADDOD130101081230REMAWY067XCS SA 0100 AUTO8 M M M M/-04/-06/2318/M/ PK WND 2321 0046Z M 50MM=
0093712230999992014011902004+51930-110720SAO  +077299999V020220190103199999999999999999-00191-00521999999ADDOD130101081220REMAWY067XCS SA 0200 AUTO8 M M M M/-02/-05/2220/M/ PK WND 2221 0150Z M 92MM=
0093712230999992014011903004+51930-110720SAO  +077299999V020230190093199999999999999999-00401-00621999999ADDOD130101281240REMAWY067XCS SA 0300 AUTO8 M M M M/-04/-06/2318/M/ PK WND 2425 0224Z M 02MM=
0093712230999992014011904004+51930-110720SAO  +077299999V020240190103199999999999999999-00181-00511999999ADDOD130101281250REMAWY067XCS SA 0400 AUTO8 M M M M/-02/-05/2420/M/ PK WND 2525 0353Z M 81MM=
0092712230999992014011905004+51930-110720SAO  +077299999V020260190128199999999999999999+00161-00461999999ADDOD130101441260REMAWY066XCS SA 0500 AUTO8 M M M M/02/-05/2625/M/ PK WND 2628 0451Z M 66MM=
0118712230999992014011906004+51933-110700FM-12+077299999V0203101N014919999999N999999999+00441-00351999999ADDAA106000091AA224999919KA1240M+00461KA2240N-00801REMSYN05871223 15/// /3129 10044 21035 60001 333 10046 21080 7////=
0092712230999992014011906004+51930-110720SAO  +077299999V020310190149199999999999999999+00441-00351999999ADDOD130101801310REMAWY066XCS SA 0600 AUTO8 M M M M/04/-04/3129/M/ PK WND 3135 0544Z M 45MM=
0092712230999992014011907004+51930-110720SAO  +077299999V020310190103199999999999999999+00251-00401999999ADDOD130101591310REMAWY066XCS SA 0700 AUTO8 M M M M/03/-04/3120/M/ PK WND 3131 0600Z M 50MM=
0092712230999992014011908004+51930-110720SAO  +077299999V020300190087199999999999999999+00051-00351999999ADDOD130101131300REMAWY066XCS SA 0800 AUTO8 M M M M/01/-04/3017/M/ PK WND 3022 0700Z M 55MM=
0092712230999992014011909004+51930-110720SAO  +077299999V020280190082199999999999999999+00091-00541999999ADDOD130101031300REMAWY066XCS SA 0900 AUTO8 M M M M/01/-05/2816/M/ PK WND 3020 0801Z M 94MM=
0093712230999992014011910004+51930-110720SAO  +077299999V020270190093199999999999999999-00101-00601999999ADDOD130101181270REMAWY067XCS SA 1000 AUTO8 M M M M/-01/-06/2718/M/ PK WND 2723 0939Z M 00MM=
0093712230999992014011911004+51930-110720SAO  +077299999V020280190087199999999999999999-00051-00681999999ADDOD130101131280REMAWY067XCS SA 1100 AUTO8 M M M M/-01/-07/2817/M/ PK WND 2822 1010Z M 58MM=
0118712230999992014011912004+51933-110700FM-12+077299999V0202801N009319999999N999999999-00051-00661999999ADDAA106000091AA224000091KA1240M+00461KA2240N-00401REMSYN05871223 15/// /2818 11005 21066 60001 333 10046 21040 70000=
0093712230999992014011912004+51930-110720SAO  +077299999V020280190093199999999999999999+00051-00661999999ADDOD130101081290REMAWY067XCS SA 1200 AUTO8 M M M M/00/-07/2818/M/ PK WND 2921 1152Z M -56MM=
0092712230999992014011913004+51930-110720SAO  +077299999V020290190103199999999999999999+00041-00571999999ADDOD130101181290REMAWY066XCS SA 1300 AUTO8 M M M M/00/-06/2920/M/ PK WND 2923 1255Z M 47MM=
0092712230999992014011914004+51930-110720SAO  +077299999V020300190098199999999999999999+00031-00591999999ADDOD130101341300REMAWY066XCS SA 1400 AUTO8 M M M M/00/-06/3019/M/ PK WND 3026 1301Z M 39MM=
0093712230999992014011915004+51930-110720SAO  +077299999V020290190093199999999999999999-00041-00601999999ADDOD130101231300REMAWY067XCS SA 1500 AUTO8 M M M M/00/-06/2918/M/ PK WND 3024 1406Z M -40MM=
0093712230999992014011916004+51930-110720SAO  +077299999V020300190057199999999999999999-00211-00671999999ADDOD130100981290REMAWY067XCS SA 1600 AUTO8 M M M M/-02/-07/3011/M/ PK WND 2919 1500Z M 17MM=
0058712230999992014011917004+51930-110720SAO  +077299999V020300190067199999999999999999-00081-00581999999REMAWY049XCS SA 1700 AUTO8 M M M M/-01/-06/3013/M/ M 88MM=
0118712230999992014011918004+51933-110700FM-12+077299999V0203101N008219999999N999999999+00091-00491999999ADDAA106000091AA224000091KA1120M+00441KA2120N-00401REMSYN05871223 15/// /3116 10009 21049 60001 333 10044 21040 70000=
0092712230999992014011918004+51930-110720SAO  +077299999V020310190082199999999999999999+00091-00491999999ADDOD130101031310REMAWY066XCS SA 1800 AUTO8 M M M M/01/-05/3116/M/ PK WND 3120 1755Z M 99MM=
0092712230999992014011919004+51930-110720SAO  +077299999V020310190082199999999999999999+00171-00401999999ADDOD130101081310REMAWY066XCS SA 1900 AUTO8 M M M M/02/-04/3116/M/ PK WND 3121 1854Z M 70MM=
0092712230999992014011920004+51930-110720SAO  +077299999V020310190082199999999999999999+00051-00351999999ADDOD130101031310REMAWY066XCS SA 2000 AUTO8 M M M M/01/-04/3116/M/ PK WND 3120 1959Z M 55MM=
0092712230999992014011921004+51930-110720SAO  +077299999V020300190103199999999999999999+00161-00381999999ADDOD130101231300REMAWY066XCS SA 2100 AUTO8 M M M M/02/-04/3020/M/ PK WND 3024 2044Z M 68MM=
0093712230999992014011923004+51930-110720SAO  +077299999V020290190103199999999999999999+00051-00351999999ADDOD130101441300REMAWY067XCS SA 2300 AUTO8 M M M M/01/-04/2920/M/M PK WND 3028 2215Z M 55MM=
0118712230999992014012000004+51933-110700FM-12+077299999V0202901N011319999999N999999999-00011-00521999999ADDAA106999919AA224999919KA1120M+00211KA2120N-00211REMSYN05871223 45/// /2922 11001 21052 6///1 333 10021 21021 7////=
0094712230999992014012000004+51930-110720SAO  +077299999V020290190113199999999999999999-00011-00521999999ADDOD130101541290REMAWY068XCS SA 0000 AUTO8 M M M M/00/-05/2922/M/M PK WND 2930 2331Z M -12MM=
0093712230999992014012001004+51930-110720SAO  +077299999V020290190139199999999999999999+00001-00571999999ADDOD130101591290REMAWY067XCS SA 0100 AUTO8 M M M M/00/-06/2927/M/ PK WND 2931 0055Z M -07MM=
