0191723445939932014010100537+36010-094169FM-15+0384KFYV V0309999C000052200059N0160935N5+00225-00505102455ADDAA101000095GA1005+999999999GD10991+9999999GF100991999999999999999999MA1102345097775REMMET09612/31/13 18:53:03 METAR KFYV 010053Z 00000KT 10SM CLR 02/M05 A3022 RMK AO2 SLP245 T00221050 (XX)
0191723445939932014010101537+36010-094169FM-15+0384KFYV V0301805N004152200059N0160935N5+00395-00505102415ADDAA101000095GA1005+999999999GD10991+9999999GF100991999999999999999999MA1102305097745REMMET09612/31/13 19:53:03 METAR KFYV 010153Z 18008KT 10SM CLR 04/M05 A3021 RMK AO2 SLP241 T00391050 (XX)
0211723445939932014010102537+36010-094169FM-15+0384KFYV V0301805N004152200059N0160935N5+00395-00505102395ADDAA101000095GA1005+999999999GD10991+9999999GF100991999999999999999999MA1102305097745MD1690069+9999REMMET10212/31/13 20:53:03 METAR KFYV 010253Z 18008KT 10SM CLR 04/M05 A3021 RMK AO2 SLP239 T00391050 56006 (XX)
0186723445939932014010103537+36010-094169FM-15+0384KFYV V0301905N005752200059N0160935N5+00395-00565102315ADDAA101000095GA1005+999999999GD10991+9999999GF100991999999999999999999MA1102245097675REMMET09112/31/13 21:53:03 METAR KFYV 010353Z 19011KT 10SM CLR 04/M06 A3019 RMK AO2 SLP231 T00391056
0186723445939932014010104537+36010-094169FM-15+0384KFYV V0301905N004152200059N0160935N5+00335-00565102255ADDAA101000095GA1005+999999999GD10991+9999999GF100991999999999999999999MA1102205097645REMMET09112/31/13 22:53:03 METAR KFYV 010453Z 19008KT 10SM CLR 03/M06 A3018 RMK AO2 SLP225 T00331056
0280723445939932014010105537+36010-094169FM-15+0384KFYV V0301905N003152200059N0160935N5+00285-00505102175ADDAA101000095GA1005+999999999GD10991+9999999GF100991999999999999999999KA1060M+00501KA2060N+00171KA3240M+01221KA4240N-00831MA1102175097615MD1690149+9999REMMET11912/31/13 23:53:03 METAR KFYV 010553Z 19006KT 10SM CLR 03/M05 A3017 RMK AO2 SLP217 T00281050 10050 20017 401221083 56014
0968723445939932014010105596+36010-094169SOD  +0384KFYV V030999999999999999999999999999+99999+99999999999ADDAA124000095AJ100009599999999AN1024000095KA1240M+01225KA2240N-00825KG1024W-0017D4KG2024D-0067D4MF1097934102684MG1097934102174OE11240102821099995OE22240080520099995OE33240024199999995RH1024X092D4RH2024N032D4RH3024M062D4REMSOD73924 HR PRECIPITATION (IN): 0.00 SNOW DEPTH (IN):0     24 HR SNOWFALL (IN):0.0  24 HR MAX TEMP (F): 5424 HR MIN TEMP (F): 17AVERAGE STATION PRESSURE:28.920 MINIMUM SEA LEVEL PRESSURE:30.17 TIME OF OCCURRENCE:2359 PEAK WIND SPEED (MPH): 23 PEAK WIND DIR (DEG):210 PEAK WIND TIME (LST):      FASTEST 2MIN SPEED (MPH): 18FASTEST 2MIN DIR (DEG):200 FASTEST 2MIN TIME (LST):     AVERAGE WIND SPEED (MPH): 5.4 24 HR AVG TEMP (F): 36DEPART FROM NORMAL:  0  HEATING DEGREE DAYS: 29 COOLING DEGREE DAYS:  0 LATEST DAY MAX TEMP (0700-1900 LST):54  LATEST NIGHT MIN TEMP(1900-0800 LST):17 HOURLY INCREMENTAL PRECIPITATION VALUES (IN):.00 0.00 0.00 0.00 0.00 0.00 0.00 0.00 0.00 0.00 0.00 0.00 0.00 0.00 0.00 0.00 0.00 0.00 0.00 0.00 0.00 0.00 0.00 0.00
1311723445939932014010105596+36010-094169SOM  +0384KFYV V030999999999999999999999999999+99999+99999999999ADDAB1010419AAD1005439202199999999UAE1085065035015AH1005003692100495AH2010006992100155AH3015009192100175AH4020010792100205AH5030011492100235AH6045013792100495AI1060017592100585AI2080020892101215AI3100025992101415AI4120029592101595AI5150031592102275AI6180032092102535AK100159079999IAM101709060699999999IAN102401789IKB1744N-04785KB2744M+07505KB3744A+0133UKC1N9-01331207995KC2M9+02000399995KD1744H09385KD2744C00005KE105U00U23U00UMH109753U10217UMK110379112053U09986211808UREMSOM799PCP MTOT:4.10 PCP GT 24HRS:2.14 DATE(S):20-21 DAYS W/PCP >=.01:8  DAYS W/PCP >=.10:6  DAYS W/ PCP >=.50:3 DAYS W/PCP >=1.00:1 MSDP AMTS W/DATE-TIME TAGS:MIN:5 0.14  21/0049 MIN:10 0.27  21/0015 MIN:15 0.36  21/0017 MIN:20 0.42  21/0020 MIN:30 0.45  21/0023 MIN:45 0.54  21/0049 MIN:60 0.69  21/0058 MIN:80 0.82  21/0121 MIN:100 1.02  21/0141 MIN:120 1.16  21/0159 MIN:150 1.24  21/0227 MIN:180 1.26  21/0253 AVG DLY MIN:23.4  AVG DLY MAX:45.5  AVG MLY TMP:34.5  MIN TMP:8  DATE(S):12 07 MAX TMP:68  DATE(S):03 DAYS MAX <=32:5 DAYS MAX >=90:0  DAYS MIN <=32:23 DAYS MIN  <=0:0  AVG STP:28.795 LWST SLP:29.49 DATE/TIME:211808 HGST SLP:30.66 DATE/TIME:112106 HDD MTH TOT:938 DEP NORM:-2553 SEASON(JUL 1-JUN 30):1827 DEP NORM:-25536 CDD MTH TOT:0 DEP NORM:-2553 SEASON(JAN 1-DEC 31):1390 DEP NORM:-25536EQDR01  4.107ABP070R02  2.147ADP081
0186723445939932014010106537+36010-094169FM-15+0384KFYV V0309999C000052200059N0160935N5+00285-00505102155ADDAA101000095GA1005+999999999GD10991+9999999GF100991999999999999999999MA1102135097575REMMET09101/01/14 00:53:02 METAR KFYV 010653Z 00000KT 10SM CLR 03/M05 A3016 RMK AO2 SLP215 T00281050
0186723445939932014010107537+36010-094169FM-15+0384KFYV V0301705N001552200059N0160935N5+00175-00445102125ADDAA101000095GA1005+999999999GD10991+9999999GF100991999999999999999999MA1102105097545REMMET09101/01/14 01:53:02 METAR KFYV 010753Z 17003KT 10SM CLR 02/M04 A3015 RMK AO2 SLP212 T00171044
0206723445939932014010108537+36010-094169FM-15+0384KFYV V0309999C000052200059N0160935N5+00065-00445102065ADDAA101000095GA1005+999999999GD10991+9999999GF100991999999999999999999MA1102035097475MD1890139+9999REMMET09701/01/14 02:53:02 METAR KFYV 010853Z 00000KT 10SM CLR 01/M04 A3013 RMK AO2 SLP206 T00061044 58013
0186723445939932014010109537+36010-094169FM-15+0384KFYV V0309999C000052200059N0160935N5+00285-00445101975ADDAA101000095GA1005+999999999GD10991+9999999GF100991999999999999999999MA1101965097415REMMET09101/01/14 03:53:02 METAR KFYV 010953Z 00000KT 10SM CLR 03/M04 A3011 RMK AO2 SLP197 T00281044
0186723445939932014010110537+36010-094169FM-15+0384KFYV V0302005N003652200059N0160935N5+00225-00505101905ADDAA101000095GA1005+999999999GD10991+9999999GF100991999999999999999999MA1101865097315REMMET09101/01/14 04:53:02 METAR KFYV 011053Z 20007KT 10SM CLR 02/M05 A3008 RMK AO2 SLP190 T00221050
0249723445939932014010111537+36010-094169FM-15+0384KFYV V0302105N003652200059N0160935N5+00285-00615101865ADDAA101000095GA1005+999999999GD10991+9999999GF100991999999999999999999KA1060M+00331KA2060N+00061MA1101835097285MD1690219+9999REMMET11401/01/14 05:53:02 METAR KFYV 011153Z 21007KT 10SM CLR 03/M06 A3007 RMK AO2 SLP186 T00281061 10033 20006 56021 (MB)
0191723445939932014010112537+36010-094169FM-15+0384KFYV V0302105N002652200059N0160935N5+00225-00615101885ADDAA101000095GA1005+999999999GD10991+9999999GF100991999999999999999999MA1101835097285REMMET09601/01/14 06:53:02 METAR KFYV 011253Z 21005KT 10SM CLR 02/M06 A3007 RMK AO2 SLP188 T00221061 (MB)
0191723445939932014010113537+36010-094169FM-15+0384KFYV V0302105N002152200059N0160935N5+00225-00675101875ADDAA101000095GA1005+999999999GD10991+9999999GF100991999999999999999999MA1101835097285REMMET09601/01/14 07:53:02 METAR KFYV 011353Z 21004KT 10SM CLR 02/M07 A3007 RMK AO2 SLP187 T00221067 (MB)
0211723445939932014010114537+36010-094169FM-15+0384KFYV V0301905N001552200059N0160935N5+00505-00615101865ADDAA101000095GA1005+999999999GD10991+9999999GF100991999999999999999999MA1101835097285MD1190019+9999REMMET10201/01/14 08:53:02 METAR KFYV 011453Z 19003KT 10SM CLR 05/M06 A3007 RMK AO2 SLP186 T00501061 51001 (XX)
0191723445939932014010115537+36010-094169FM-15+0384KFYV V0301605N003152200059N0160935N5+00785-00505101795ADDAA101000095GA1005+999999999GD10991+9999999GF100991999999999999999999MA1101765097215REMMET09601/01/14 09:53:02 METAR KFYV 011553Z 16006KT 10SM CLR 08/M05 A3005 RMK AO2 SLP179 T00781050 (XX)
0191723445939932014010116537+36010-094169FM-15+0384KFYV V0301805N005752200059N0160935N5+01005-00445101715ADDAA101000095GA1005+999999999GD10991+9999999GF100991999999999999999999MA1101695097155REMMET09601/01/14 10:53:02 METAR KFYV 011653Z 18011KT 10SM CLR 10/M04 A3003 RMK AO2 SLP171 T01001044 (XX)
0249723445939932014010117537+36010-094169FM-15+0384KFYV V0301805N006252200059N0160935N5+01065-00285101565ADDAA101000095GA1005+999999999GD10991+9999999GF100991999999999999999999KA1060M+01111KA2060N+00171MA1101565097025MD1890269+9999REMMET11401/01/14 11:53:02 METAR KFYV 011753Z 18012KT 10SM CLR 11/M03 A2999 RMK AO2 SLP156 T01061028 10111 20017 58026 (XX)
0209723445939932014010118537+36010-094169FM-15+0384KFYV V0301805N008252200059N0160935N5+01175-00065101365ADDAA101000095GA1005+999999999GD10991+9999999GF100991999999999999999999MA1101355096825OC101085REMMET10601/01/14 12:53:02 METAR KFYV 011853Z 18016G21KT 10SM CLR 12/M01 A2993 RMK AO2 PRESFR SLP136 T01171006 (XX)
0190723445939932014010119537+36010-094169FM-15+0384KFYV V0301605N002652200059N0160935N5+01065+00005101265ADDAA101000095GA1005+999999999GD10991+9999999GF100991999999999999999999MA1101255096725REMMET09501/01/14 13:53:02 METAR KFYV 011953Z 16005KT 10SM CLR 11/00 A2990 RMK AO2 SLP126 T01060000 (XX)
0222723445939932014010120537+36010-094169FM-15+0384KFYV V0301505N005152200059N0160935N5+01005-00065101235ADDAA101000095GA1005+999999999GD10991+9999999GF100991999999999999999999MA1101225096695MD1690329+9999OC100885REMMET10501/01/14 14:53:02 METAR KFYV 012053Z 15010G17KT 10SM CLR 10/M01 A2989 RMK AO2 SLP123 T01001006 56032 (SN)
0190723445939932014010121537+36010-094169FM-15+0384KFYV V0301905N003652200059N0160935N5+01005+00005101285ADDAA101000095GA1005+999999999GD10991+9999999GF100991999999999999999999MA1101255096725REMMET09501/01/14 15:53:02 METAR KFYV 012153Z 19007KT 10SM CLR 10/00 A2990 RMK AO2 SLP128 T01000000 (SN)
0193723445939932014010122537+36010-094169FM-15+0384KFYV V0302605N00215014335MN0160935N5+00945+00005101365ADDAA101000095GA1085+014335991GD14991+0143359GF199999990990014331991991MA1101355096825REMMET09801/01/14 16:53:02 METAR KFYV 012253Z 26004KT 10SM OVC047 09/00 A2993 RMK AO2 SLP136 T00940000 (SN)
0289723445939932014010123537+36010-094169FM-15+0384KFYV V0309999C00005014945MN0160935N5+00835+00065101425ADDAA101000095GA1075+014945991GA2085+016765991GD13991+0149459GD24991+0167659GF199999990990014941991991KA1060M+01221KA2060N+00831MA1101395096855MD1190189+9999REMMET12301/01/14 17:53:02 METAR KFYV 012353Z 00000KT 10SM BKN049 OVC055 08/01 A2994 RMK AO2 SLP142 T00830006 10122 20083 51018 (SN)
0226723445939932014010200537+36010-094169FM-15+0384KFYV V0303005N00155013725MN0160935N5+00835+00065101475ADDAA101000095GA1075+013725991GA2085+016765991GD13991+0137259GD24991+0167659GF199999990990013721991991MA1101465096925REMMET10001/01/14 18:53:01 METAR KFYV 020053Z 30003KT 10SM BKN045 OVC055 08/01 A2996 RMK AO2 SLP147 T00830006
0188723445939932014010201537+36010-094169FM-15+0384KFYV V0303305N00515014335MN0160935N5+00725+00005101525ADDAA101000095GA1085+014335991GD14991+0143359GF199999990990014331991991MA1101495096955REMMET09301/01/14 19:53:01 METAR KFYV 020153Z 33010KT 10SM OVC047 07/00 A2997 RMK AO2 SLP152 T00720000
0216723445939932014010202537+36010-094169FM-15+0384KFYV V0303305N00625014335MN0160935N5+00445-00285101705ADDAA101000095GA1085+014335991GD14991+0143359GF199999990990014331991991MA1101665097125MD1390279+9999REMMET10701/01/14 20:53:01 METAR KFYV 020253Z 33012KT 10SM OVC047 04/M03 A3002 RMK AO2 PRESRR SLP170 T00441028 53027
0200723445939932014010203537+36010-094169FM-15+0384KFYV V0303405N00725013725MN0160935N5+00005-00395101845ADDAA101000095GA1085+013725991GD14991+0137259GF199999990990013721991991MA1101795097255OC101245REMMET09701/01/14 21:53:02 METAR KFYV 020353Z 34014G24KT 10SM OVC045 00/M04 A3006 RMK AO2 SLP184 T00001039
0260723445939932014010204537+36010-094169FM-15+0384KFYV V0303505N00575011895MN0160935N5-00225-00565101965ADDAA101000095GA1025+005185991GA2085+011895991GD11991+0051859GD24991+0118959GF199999990990005181991991MA1101905097345OD130101341330REMMET12001/01/14 22:53:02 METAR KFYV 020453Z 35011KT 10SM FEW017 OVC039 M02/M06 A3009 RMK AO2 PK WND 33026/0424 SLP196 T10221056
0211723445939932014010205117+36010-094169FM-16+0384KFYV V0303305N00885005185MN0160935N5-00305-00605999999ADDGA1075+005185991GA2085+011285991GD13991+0051859GD24991+0112859GF199999990990005181991991MA1101935097385OC101085REMMET08801/01/14 23:11:02 SPECI KFYV 020511Z 33017G21KT 10SM BKN017 OVC037 M03/M06 A3010 RMK AO2
0150723445939932014010205516+36010-094169FM-16+0384KFYV V0303305N00825003965MN0128755N5-00405-00705999999ADDGA1085+003965999GD14991+0039659MA1102005097445REMMET09201/01/14 23:51:03 SPECI KFYV 020551Z 33016KT 8SM OVC013 M04/M07 A3012 RMK AO2 401221039 FIBI
0294723445939932014010205537+36010-094169FM-15+0384KFYV V0303305N00775003965MN0128755N5-00395-00675102055ADDAA101000095GA1085+003965991GD14991+0039659GF199999990990003961991991KA1060M+00891KA2060N-00391KA3240M+01221KA4240N-00391MA1102005097445MD1190329+9999OC100935REMMET12501/01/14 23:53:02 METAR KFYV 020553Z 33015G18KT 8SM OVC013 M04/M07 A3012 RMK AO2 SLP205 T10391067 10089 21039 401221039 51032
0968723445939932014010205596+36010-094169SOD  +0384KFYV V030999999999999999999999999999+99999+99999999999ADDAA124000095AJ100009599999999AN1024000095KA1240M+01225KA2240N-00385KG1024W+0017D4KG2024D-0033D4MF1097164101694MG1097144101224OE11240134133099995OE22240107333099995OE33240035399999995RH1024X081D4RH2024N036D4RH3024M056D4REMSOD73924 HR PRECIPITATION (IN): 0.00 SNOW DEPTH (IN):0     24 HR SNOWFALL (IN):0.0  24 HR MAX TEMP (F): 5424 HR MIN TEMP (F): 25AVERAGE STATION PRESSURE:28.685 MINIMUM SEA LEVEL PRESSURE:29.89 TIME OF OCCURRENCE:1531 PEAK WIND SPEED (MPH): 30 PEAK WIND DIR (DEG):330 PEAK WIND TIME (LST):      FASTEST 2MIN SPEED (MPH): 24FASTEST 2MIN DIR (DEG):330 FASTEST 2MIN TIME (LST):     AVERAGE WIND SPEED (MPH): 7.9 24 HR AVG TEMP (F): 40DEPART FROM NORMAL:  5  HEATING DEGREE DAYS: 25 COOLING DEGREE DAYS:  0 LATEST DAY MAX TEMP (0700-1900 LST):54  LATEST NIGHT MIN TEMP(1900-0800 LST):33 HOURLY INCREMENTAL PRECIPITATION VALUES (IN):.00 0.00 0.00 0.00 0.00 0.00 0.00 0.00 0.00 0.00 0.00 0.00 0.00 0.00 0.00 0.00 0.00 0.00 0.00 0.00 0.00 0.00 0.00 0.00
0199723445939932014010206087+36010-094169FM-16+0384KFYV V0303405N00675004575MN0144845N5-00405-00705999999ADDGA1075+004575991GA2085+008845991GD13991+0045759GD24991+0088459GF199999990990004571991991MA1102035097475REMMET08401/02/14 00:08:02 SPECI KFYV 020608Z 34013KT 9SM BKN015 OVC029 M04/M07 A3013 RMK AO2
0283723445939932014010206387+36010-094169FM-16+0384KFYV V0309999N99999003965MN0064375N5-00405-00705999999ADDAA101000021AU110030015AW1715GA1075+003965991GA2075+005795991GA3085+009455991GD13991+0039659GD23991+0057959GD34991+0094559GF199999990990003961991991MA1102105097545REMMET10901/02/14 00:38:02 SPECI KFYV 020638Z      KT 4SM -SN BKN013 BKN019 OVC031 M04/M07 A3015 RMK AO2 SNB26 P0000 $
0311723445939932014010206537+36010-094169FM-15+0384KFYV V0303405N00825003965MN0064375N5-00505-00785102165ADDAA101000025AU110030015AW1715GA1075+003965991GA2075+005795991GA3085+007625991GD13991+0039659GD23991+0057959GD34991+0076259GF199999990990003961991991MA1102105097545OC101035REMMET12901/02/14 00:53:02 METAR KFYV 020653Z 34016G20KT 4SM -SN BKN013 BKN019 OVC025 M05/M08 A3015 RMK AO2 SNB26 SLP216 P0000 T10501078 $
0308723445939932014010207147+36010-094169FM-16+0384KFYV V0303305N00935003965MN0032195N5-00605-00805999999ADDAA101000021AU110030015AU200001015AW1105AW2715GA1075+003965991GA2075+005795991GA3085+007625991GD13991+0039659GD23991+0057959GD34991+0076259GF199999990990003961991991MA1102135097575OC101135REMMET10901/02/14 01:14:02 SPECI KFYV 020714Z 33018G22KT 2SM -SN BR BKN013 BKN019 OVC025 M06/M08 A3016 RMK AO2 P0000 $
0216723445939932014010207237+36010-094169FM-16+0384KFYV V0303405N00885003965MN0024145N5-00605-00905999999ADDAA101000021AU110030015AW1715GA1085+003965991GD14991+0039659GF199999990990003961991991MA1102135097575OC101295REMMET09601/02/14 01:23:02 SPECI KFYV 020723Z 34017G25KT 1 1/2SM -SN OVC013 M06/M09 A3016 RMK AO2 P0000 $
0286723445939932014010207337+36010-094169FM-16+0384KFYV V0303405N00825005495MN0024145N5-00705-00905999999ADDAA101000021AU110030015AW1715GA1045+003965991GA2085+005495991GD12991+0039659GD24991+0054959GF199999990990003961991991MA1102175097615OC101345OD130101341350REMMET12101/02/14 01:33:02 SPECI KFYV 020733Z 34016G26KT 1 1/2SM -SN SCT013 OVC018 M07/M09 A3017 RMK AO2 PK WND 35026/0730 P0000 $
0302723445939932014010207417+36010-094169FM-16+0384KFYV V0303405N00675007325MN0048285N5-00705-00905999999ADDAA101000021AU110030015AU200001015AW1105AW2715GA1025+003965991GA2085+007325991GD11991+0039659GD24991+0073259GF199999990990003961991991MA1102175097615OC100985OD130101341350REMMET12001/02/14 01:41:02 SPECI KFYV 020741Z 34013G19KT 3SM -SN BR FEW013 OVC024 M07/M09 A3017 RMK AO2 PK WND 35026/0730 P0000 $
0225723445939932014010207516+36010-094169FM-16+0384KFYV V0303405N00725009145MN0064375N5-00705-00905999999ADDAU110030015AW1715GA1025+003965999GA2085+009145999GD11991+0039659GD24991+0091459MA1102205097645REMMET11901/02/14 01:51:02 SPECI KFYV 020751Z 34014KT 4SM -SN FEW013 OVC030 M07/M09 A3018 RMK AO2 PK WND 35026/0730 P0000 $ FIBI
0288723445939932014010207537+36010-094169FM-15+0384KFYV V0303405N00675009755MN0064375N5-00675-00945102275ADDAA101000025AU110030015AW1715GA1025+003965991GA2085+009755991GD11991+0039659GD24991+0097559GF199999990990003961991991MA1102205097645OD130101341350REMMET13101/02/14 01:53:02 METAR KFYV 020753Z 34013KT 4SM -SN FEW013 OVC032 M07/M09 A3018 RMK AO2 PK WND 35026/0730 SLP227 P0000 T10671094 $
0259723445939932014010208107+36010-094169FM-16+0384KFYV V0303405N00515003965MN0096565N5-00705-00905999999ADDAA101000021AU110030015AU200001015AW1105AW2715GA1075+003965991GA2085+012805991GD13991+0039659GD24991+0128059GF199999990990003961991991MA1102245097675REMMET09901/02/14 02:10:02 SPECI KFYV 020810Z 34010KT 6SM -SN BR BKN013 OVC042 M07/M09 A3019 RMK AO2 P0000 $
0268723445939932014010208537+36010-094169FM-15+0384KFYV V0303305N00625003965MN0160935N5-00785-01065102425ADDAA101000025AA203000021GA1085+003965991GD14991+0039659GF199999990990003961991991MA1102345097775MD1390329+9990REMMET12901/02/14 02:53:02 METAR KFYV 020853Z 33012KT 10SM OVC013 M08/M11 A3022 RMK AO2 UPB24E40SNE24 SLP242 P0000 60000 T10781106 53032 $EQDQ01  00008PRCP03
0174723445939932014010209007+36010-094169FM-16+0384KFYV V0303205N00725004575MN0144845N5-00805-01105999999ADDGA1085+004575991GD14991+0045759GF199999990990004571991991MA1102345097775OC101085REMMET08201/02/14 03:00:02 SPECI KFYV 020900Z 32014G21KT 9SM OVC015 M08/M11 A3022 RMK AO2 $
0203723445939932014010209537+36010-094169FM-15+0384KFYV V0303405N00625004575MN0160935N5-00895-01175102545ADDAA101000095GA1085+004575991GD14991+0045759GF199999990990004571991991MA1102475097905OC101185REMMET10001/02/14 03:53:02 METAR KFYV 020953Z 34012G23KT 10SM OVC015 M09/M12 A3026 RMK AO2 SLP254 T10891117 $
0200723445939932014010210197+36010-094169FM-16+0384KFYV V0303205N00775003965MN0112655N5-00905-01205999999ADDAA101000021GA1085+003965991GD14991+0039659GF199999990990003961991991MA1102515097935OC100935REMMET09701/02/14 04:19:02 SPECI KFYV 021019Z 32015G18KT 7SM OVC013 M09/M12 A3027 RMK AO2 SNB09E18 P0000 $
0250723445939932014010210537+36010-094169FM-15+0384KFYV V0303305N00675003965MN0096565N5-01005-01225102625ADDAA101000025AU110030015AU200001015AW1105AW2715GA1085+003965991GD14991+0039659GF199999990990003961991991MA1102545097965REMMET12101/02/14 04:53:02 METAR KFYV 021053Z 33013KT 6SM -SN BR OVC013 M10/M12 A3028 RMK AO2 SNB09E18B49 SLP262 P0000 T11001122 $
0206723445939932014010211147+36010-094169FM-16+0384KFYV V0303305N00675004575MN0096565N5-01005-01305999999ADDAA101000021AU110030015AW1715GA1085+004575991GD14991+0045759GF199999990990004571991991MA1102575098005REMMET09401/02/14 05:14:02 SPECI KFYV 021114Z 33013KT 6SM -SN OVC015 M10/M13 A3029 RMK AO2 P0000 $ (MB)
0302723445939932014010211537+36010-094169FM-15+0384KFYV V0303305N00675004575MN0144845N5-01005-01285102705ADDAA101000025AA206000021GA1085+004575991GD14991+0045759GF199999990990004571991991KA1060M-00391KA2060N-01001MA1102615098035MD1190269+9990REMMET13701/02/14 05:53:02 METAR KFYV 021153Z 33013KT 9SM OVC015 M10/M13 A3030 RMK AO2 SNE33 SLP270 P0000 60000 T11001128 11039 21100 51026 $ (MB)EQDQ01  00008PRCP06
0169723445939932014010212377+36010-094169FM-16+0384KFYV V0303405N00625003965MN0160935N5-01105-01305999999ADDGA1085+003965991GD14991+0039659GF199999990990003961991991MA1102685098095REMMET08501/02/14 06:37:02 SPECI KFYV 021237Z 34012KT 10SM OVC013 M11/M13 A3032 RMK AO2 $ (MB)
0195723445939932014010212537+36010-094169FM-15+0384KFYV V0303305N00725003965MN0160935N5-01065-01285102825ADDAA101000095GA1085+003965991GD14991+0039659GF199999990990003961991991MA1102715098135REMMET10001/02/14 06:53:02 METAR KFYV 021253Z 33014KT 10SM OVC013 M11/M13 A3033 RMK AO2 SLP282 T11061128 (MB)
0229723445939932014010213537+36010-094169FM-15+0384KFYV V0303405N00415003965MN0096565N5-01065-01285102915ADDAA101000025AU100001015AW1105GA1085+003965991GD14991+0039659GF199999990990003961991991MA1102785098195REMMET11701/02/14 07:53:02 METAR KFYV 021353Z 34008KT 6SM BR OVC013 M11/M13 A3035 RMK AO2 SNB26E41 SLP291 P0000 T11061128 (MB)
0231723445939932014010214537+36010-094169FM-15+0384KFYV V0303405N00365003965MN0112655N5-01065-01285102945ADDAA101000095AA203000021GA1075+003965991GD13991+0039659GF199999990990003961991991MA1102815098235MD1190219+9999REMMET11101/02/14 08:53:02 METAR KFYV 021453Z 34007KT 7SM BKN013 M11/M13 A3036 RMK AO2 SLP294 60000 T11061128 51021 (XX)
0166723445939932014010215067+36010-094169FM-16+0384KFYV V0303505N004652200059N0144845N5-01105-01305999999ADDGA1045+003355991GD12991+0033559GF104991990990003351991991MA1102845098265REMMET08201/02/14 09:06:02 SPECI KFYV 021506Z 35009KT 9SM SCT011 M11/M13 A3037 RMK AO2 (XX)
0192723445939932014010215537+36010-094169FM-15+0384KFYV V0303605N003652200059N0160935N5-00835-01225103035ADDAA101000095GA1005+999999999GD10991+9999999GF100991999999999999999999MA1102915098325REMMET09701/02/14 09:53:02 METAR KFYV 021553Z 36007KT 10SM CLR M08/M12 A3039 RMK AO2 SLP303 T10831122 (XX)
0192723445939932014010216537+36010-094169FM-15+0384KFYV V0303505N004152200059N0160935N5-00725-01175103095ADDAA101000095GA1005+999999999GD10991+9999999GF100991999999999999999999MA1102955098365REMMET09701/02/14 10:53:02 METAR KFYV 021653Z 35008KT 10SM CLR M07/M12 A3040 RMK AO2 SLP309 T10721117 (XX)
0267723445939932014010217537+36010-094169FM-15+0384KFYV V0303405N004152200059N0160935N5-00565-01065103045ADDAA101000095AA206000021GA1005+999999999GD10991+9999999GF100991999999999999999999KA1060M-00561KA2060N-01061MA1102885098295MD1090079+9999REMMET12101/02/14 11:53:02 METAR KFYV 021753Z 34008KT 10SM CLR M06/M11 A3038 RMK AO2 SLP304 60000 T10561106 11056 21106 50007 (XX)
0192723445939932014010218537+36010-094169FM-15+0384KFYV V0303505N003652200059N0160935N5-00395-01115102975ADDAA101000095GA1005+999999999GD10991+9999999GF100991999999999999999999MA1102845098265REMMET09701/02/14 12:53:02 METAR KFYV 021853Z 35007KT 10SM CLR M04/M11 A3037 RMK AO2 SLP297 T10391111 (XX)
0192723445939932014010219537+36010-094169FM-15+0384KFYV V0303305N005752200059N0160935N5-00335-01065102945ADDAA101000095GA1005+999999999GD10991+9999999GF100991999999999999999999MA1102815098235REMMET09701/02/14 13:53:02 METAR KFYV 021953Z 33011KT 10SM CLR M03/M11 A3036 RMK AO2 SLP294 T10331106 (XX)
0212723445939932014010220537+36010-094169FM-15+0384KFYV V0303205N005752200059N0160935N5-00225-01065102955ADDAA101000095GA1005+999999999GD10991+9999999GF100991999999999999999999MA1102815098235MD1590089+9999REMMET10301/02/14 14:53:02 METAR KFYV 022053Z 32011KT 10SM CLR M02/M11 A3036 RMK AO2 SLP295 T10221106 55008 (SN)
0192723445939932014010221537+36010-094169FM-15+0384KFYV V0303505N004152200059N0160935N5-00285-01175103025ADDAA101000095GA1005+999999999GD10991+9999999GF100991999999999999999999MA1102885098295REMMET09701/02/14 15:53:02 METAR KFYV 022153Z 35008KT 10SM CLR M03/M12 A3038 RMK AO2 SLP302 T10281117 (SN)
0195723445939932014010222537+36010-094169FM-15+0384KFYV V0303205N00465010675MN0160935N5-00445-01175103045ADDAA101000095GA1075+010675991GD13991+0106759GF199999990990010671991991MA1102885098295REMMET10001/02/14 16:53:02 METAR KFYV 022253Z 32009KT 10SM BKN035 M04/M12 A3038 RMK AO2 SLP304 T10441117 (SN)
0250723445939932014010223537+36010-094169FM-15+0384KFYV V0303305N002652200059N0160935N5-00675-01175103075ADDAA101000095GA1005+999999999GD10991+9999999GF100991999999999999999999KA1060M-00221KA2060N-00671MA1102885098295MD1190079+9999REMMET11501/02/14 17:53:02 METAR KFYV 022353Z 33005KT 10SM CLR M07/M12 A3038 RMK AO2 SLP307 T10671117 11022 21067 51007 (SN)
0187723445939932014010300537+36010-094169FM-15+0384KFYV V0303205N002652200059N0160935N5-00725-01225103135ADDAA101000095GA1005+999999999GD10991+9999999GF100991999999999999999999MA1102955098365REMMET09201/02/14 18:53:01 METAR KFYV 030053Z 32005KT 10SM CLR M07/M12 A3040 RMK AO2 SLP313 T10721122
0187723445939932014010301537+36010-094169FM-15+0384KFYV V0303205N003652200059N0160935N5-00835-01285103175ADDAA101000095GA1005+999999999GD10991+9999999GF100991999999999999999999MA1102985098395REMMET09201/02/14 19:53:01 METAR KFYV 030153Z 32007KT 10SM CLR M08/M13 A3041 RMK AO2 SLP317 T10831128
0207723445939932014010302537+36010-094169FM-15+0384KFYV V0303305N002652200059N0160935N5-00945-01285103235ADDAA101000095GA1005+999999999GD10991+9999999GF100991999999999999999999MA1103015098425MD1390149+9999REMMET09801/02/14 20:53:01 METAR KFYV 030253Z 33005KT 10SM CLR M09/M13 A3042 RMK AO2 SLP323 T10941128 53014
0187723445939932014010303537+36010-094169FM-15+0384KFYV V0309999C000052200059N0160935N5-00945-01285103295ADDAA101000095GA1005+999999999GD10991+9999999GF100991999999999999999999MA1103085098495REMMET09201/02/14 21:53:02 METAR KFYV 030353Z 00000KT 10SM CLR M09/M13 A3044 RMK AO2 SLP329 T10941128
0187723445939932014010304537+36010-094169FM-15+0384KFYV V0309999C000052200059N0160935N5-01005-01285103305ADDAA101000095GA1005+999999999GD10991+9999999GF100991999999999999999999MA1103125098525REMMET09201/02/14 22:53:02 METAR KFYV 030453Z 00000KT 10SM CLR M10/M13 A3045 RMK AO2 SLP330 T11001128
0281723445939932014010305537+36010-094169FM-15+0384KFYV V0309999C000052200059N0160935N5-01065-01285103305ADDAA101000095GA1005+999999999GD10991+9999999GF100991999999999999999999KA1060M-00671KA2060N-01111KA3240M-00221KA4240N-01111MA1103125098525MD1190089+9999REMMET12001/02/14 23:53:02 METAR KFYV 030553Z 00000KT 10SM CLR M11/M13 A3045 RMK AO2 SLP330 T11061128 11067 21111 410221111 51008
1018723445939932014010305596+36010-094169SOD  +0384KFYV V030999999999999999999999999999+99999+99999999999ADDAA124000025AJ100009599999999AN1024000035AT1AU18SN  5AT2AU13BR  5AX1015245KA1240M-00215KA2240N-01105KG1024W-0083D4KG2024D-0117D4MF1098274102914MG1098274102074OE11240134135099995OE22240102834099995OE33240042599999995RH1024X084D4RH2024N051D4RH3024M073D4REMSOD75624 HR PRECIPITATION (IN):    T SNOW DEPTH (IN):0     24 HR SNOWFALL (IN):T    WEATHER(CODE):1  24 HR MAX TEMP (F): 2824 HR MIN TEMP (F): 12AVERAGE STATION PRESSURE:29.020 MINIMUM SEA LEVEL PRESSURE:30.14 TIME OF OCCURRENCE:0012 PEAK WIND SPEED (MPH): 30 PEAK WIND DIR (DEG):350 PEAK WIND TIME (LST):      FASTEST 2MIN SPEED (MPH): 23FASTEST 2MIN DIR (DEG):340 FASTEST 2MIN TIME (LST):     AVERAGE WIND SPEED (MPH): 9.5 24 HR AVG TEMP (F): 20DEPART FROM NORMAL:-15  HEATING DEGREE DAYS: 45 COOLING DEGREE DAYS:  0 LATEST DAY MAX TEMP (0700-1900 LST):28  LATEST NIGHT MIN TEMP(1900-0800 LST):13 HOURLY INCREMENTAL PRECIPITATION VALUES (IN):    T    T    0.00 T    T    0.00 T    0.00 0.00 0.00 0.00 0.00 0.00 0.00 0.00 0.00 0.00 0.00 0.00 0.00 0.00 0.00 0.00
0187723445939932014010306537+36010-094169FM-15+0384KFYV V0309999C000052200059N0160935N5-01065-01285103225ADDAA101000095GA1005+999999999GD10991+9999999GF100991999999999999999999MA1103055098455REMMET09201/03/14 00:53:02 METAR KFYV 030653Z 00000KT 10SM CLR M11/M13 A3043 RMK AO2 SLP322 T11061128
0187723445939932014010307537+36010-094169FM-15+0384KFYV V0309999C000052200059N0160935N5-01115-01285103275ADDAA101000095GA1005+999999999GD10991+9999999GF100991999999999999999999MA1103085098495REMMET09201/03/14 01:53:02 METAR KFYV 030753Z 00000KT 10SM CLR M11/M13 A3044 RMK AO2 SLP327 T11111128
0207723445939932014010308537+36010-094169FM-15+0384KFYV V0309999C000052200059N0160935N5-01175-01335103265ADDAA101000095GA1005+999999999GD10991+9999999GF100991999999999999999999MA1103125098525MD1690029+9999REMMET09801/03/14 02:53:02 METAR KFYV 030853Z 00000KT 10SM CLR M12/M13 A3045 RMK AO2 SLP326 T11171133 56002
0187723445939932014010309537+36010-094169FM-15+0384KFYV V0309999C000052200059N0160935N5-01225-01335103205ADDAA101000095GA1005+999999999GD10991+9999999GF100991999999999999999999MA1103015098425REMMET09201/03/14 03:53:02 METAR KFYV 030953Z 00000KT 10SM CLR M12/M13 A3042 RMK AO2 SLP320 T11221133
0187723445939932014010310537+36010-094169FM-15+0384KFYV V0309999C000052200059N0160935N5-01175-01335103145ADDAA101000095GA1005+999999999GD10991+9999999GF100991999999999999999999MA1102955098365REMMET09201/03/14 04:53:02 METAR KFYV 031053Z 00000KT 10SM CLR M12/M13 A3040 RMK AO2 SLP314 T11171133
0250723445939932014010311537+36010-094169FM-15+0384KFYV V0301905N001552200059N0160935N5-01175-01335103155ADDAA101000095GA1005+999999999GD10991+9999999GF100991999999999999999999KA1060M-01061KA2060N-01221MA1102955098365MD1690149+9999REMMET11501/03/14 05:53:02 METAR KFYV 031153Z 19003KT 10SM CLR M12/M13 A3040 RMK AO2 SLP315 T11171133 11106 21122 56014 (MB)
0192723445939932014010312537+36010-094169FM-15+0384KFYV V0309999C000052200059N0160935N5-01175-01335103115ADDAA101000095GA1005+999999999GD10991+9999999GF100991999999999999999999MA1102915098325REMMET09701/03/14 06:53:02 METAR KFYV 031253Z 00000KT 10SM CLR M12/M13 A3039 RMK AO2 SLP311 T11171133 (MB)
0191723445939932014010313537+36010-094169FM-15+0384KFYV V0309999C000052200059N0144845N5-01115-01285103035ADDAA101000095GA1005+999999999GD10991+9999999GF100991999999999999999999MA1102815098235REMMET09601/03/14 07:53:02 METAR KFYV 031353Z 00000KT 9SM CLR M11/M13 A3036 RMK AO2 SLP303 T11111128 (MB)
0212723445939932014010314537+36010-094169FM-15+0384KFYV V0309999C000052200059N0160935N5-00675-01065103005ADDAA101000095GA1005+999999999GD10991+9999999GF100991999999999999999999MA1102815098235MD1690139+9999REMMET10301/03/14 08:53:02 METAR KFYV 031453Z 00000KT 10SM CLR M07/M11 A3036 RMK AO2 SLP300 T10671106 56013 (MB)
0192723445939932014010315537+36010-094169FM-15+0384KFYV V0301805N002652200059N0160935N5-00285-00895102895ADDAA101000095GA1005+999999999GD10991+9999999GF100991999999999999999999MA1102745098165REMMET09701/03/14 09:53:02 METAR KFYV 031553Z 18005KT 10SM CLR M03/M09 A3034 RMK AO2 SLP289 T10281089 (SN)
0191723445939932014010316537+36010-094169FM-15+0384KFYV V0302005N006252200059N0160935N5+00005-00945102795ADDAA101000095GA1005+999999999GD10991+9999999GF100991999999999999999999MA1102645098065REMMET09601/03/14 10:53:02 METAR KFYV 031653Z 20012KT 10SM CLR 00/M09 A3031 RMK AO2 SLP279 T00001094 (SN)
0260723445939932014010317537+36010-094169FM-15+0384KFYV V0302005N006752200059N0160935N5+00175-00945102705ADDAA101000095GA1005+999999999GD10991+9999999GF100991999999999999999999KA1060M+00171KA2060N-01171MA1102545097965MD1890259+9999OC101035REMMET11701/03/14 11:53:02 METAR KFYV 031753Z 20013G20KT 10SM CLR 02/M09 A3028 RMK AO2 SLP270 T00171094 10017 21117 58025 (SN)
0191723445939932014010318537+36010-094169FM-15+0384KFYV V0301705N006752200059N0160935N5+00285-00895102515ADDAA101000095GA1005+999999999GD10991+9999999GF100991999999999999999999MA1102375097805REMMET09601/03/14 12:53:02 METAR KFYV 031853Z 17013KT 10SM CLR 03/M09 A3023 RMK AO2 SLP251 T00281089 (SN)
0202723445939932014010319537+36010-094169FM-15+0384KFYV V0301705N007252200059N0160935N5+00395-00835102375ADDAA101000095GA1005+999999999GD10991+9999999GF100991999999999999999999MA1102245097675OC100935REMMET09901/03/14 13:53:02 METAR KFYV 031953Z 17014G18KT 10SM CLR 04/M08 A3019 RMK AO2 SLP237 T00391083 (SN)
0211723445939932014010320537+36010-094169FM-15+0384KFYV V0301705N006252200059N0160935N5+00395-00895102265ADDAA101000095GA1005+999999999GD10991+9999999GF100991999999999999999999MA1102135097575MD1690419+9999REMMET10201/03/14 14:53:02 METAR KFYV 032053Z 17012KT 10SM CLR 04/M09 A3016 RMK AO2 SLP226 T00391089 56041 (SN)
0202723445939932014010321537+36010-094169FM-15+0384KFYV V0301605N005152200059N0160935N5+00225-00945102195ADDAA101000095GA1005+999999999GD10991+9999999GF100991999999999999999999MA1102075097515OC100935REMMET09901/03/14 15:53:02 METAR KFYV 032153Z 16010G18KT 10SM CLR 02/M09 A3014 RMK AO2 SLP219 T00221094 (TD)
0202723445939932014010322537+36010-094169FM-15+0384KFYV V0301705N006752200059N0160935N5+00065-00945102095ADDAA101000095GA1005+999999999GD10991+9999999GF100991999999999999999999MA1101935097385OC101085REMMET09901/03/14 16:53:02 METAR KFYV 032253Z 17013G21KT 10SM CLR 01/M09 A3010 RMK AO2 SLP209 T00061094 (TD)
0260723445939932014010323537+36010-094169FM-15+0384KFYV V0301405N004652200059N0160935N5+00065-00945101975ADDAA101000095GA1005+999999999GD10991+9999999GF100991999999999999999999KA1060M+00441KA2060N+00061MA1101835097285MD1890299+9999OC100775REMMET11701/03/14 17:53:02 METAR KFYV 032353Z 14009G15KT 10SM CLR 01/M09 A3007 RMK AO2 SLP197 T00061094 10044 20006 58029 (TD)
0197723445939932014010400537+36010-094169FM-15+0384KFYV V0301605N005752200059N0160935N5+00065-00945101905ADDAA101000095GA1005+999999999GD10991+9999999GF100991999999999999999999MA1101765097215OC100935REMMET09401/03/14 18:53:01 METAR KFYV 040053Z 16011G18KT 10SM CLR 01/M09 A3005 RMK AO2 SLP190 T00061094
0197723445939932014010401537+36010-094169FM-15+0384KFYV V0301705N007752200059N0160935N5+00065-00895101805ADDAA101000095GA1005+999999999GD10991+9999999GF100991999999999999999999MA1101665097125OC101135REMMET09401/03/14 19:53:01 METAR KFYV 040153Z 17015G22KT 10SM CLR 01/M09 A3002 RMK AO2 SLP180 T00061089
0249723445939932014010402537+36010-094169FM-15+0384KFYV V0301705N008252200059N0160935N5+00065-00895101665ADDAA101000095GA1005+999999999GD10991+9999999GF100991999999999999999999MA1101565097025MD1890279+9999OC101495OD149999990160REMMET11801/03/14 20:53:02 METAR KFYV 040253Z 17016G29KT 10SM CLR 01/M09 A2999 RMK AO2 PK WND 16029/0247 SLP166 T00061089 58027
0215723445939932014010403537+36010-094169FM-15+0384KFYV V0301705N007752200059N0160935N5+00005-00895101645ADDAA101000095GA1005+999999999GD10991+9999999GF100991999999999999999999MA1101565097025OC101295REMMET11201/03/14 21:53:02 METAR KFYV 040353Z 17015G25KT 10SM CLR 00/M09 A2999 RMK AO2 PK WND 19030/0316 SLP164 T00001089
0215723445939932014010404537+36010-094169FM-15+0384KFYV V0301905N007752200059N0160935N5+00005-00895101635ADDAA101000095GA1005+999999999GD10991+9999999GF100991999999999999999999MA1101565097025OC101035REMMET11201/03/14 22:53:02 METAR KFYV 040453Z 19015G20KT 10SM CLR 00/M09 A2999 RMK AO2 PK WND 18026/0419 SLP163 T00001089
0291723445939932014010405537+36010-094169FM-15+0384KFYV V0301905N008252200059N0160935N5+00005-00835101615ADDAA101000095GA1005+999999999GD10991+9999999GF100991999999999999999999KA1060M+00111KA2060N+00001KA3240M+00441KA4240N-01221MA1101525096995MD1890019+9999OC101085REMMET12201/03/14 23:53:02 METAR KFYV 040553Z 19016G21KT 10SM CLR 00/M08 A2998 RMK AO2 SLP161 T00001083 10011 20000 400441122 58001
0968723445939932014010405596+36010-094169SOD  +0384KFYV V030999999999999999999999999999+99999+99999999999ADDAA124000095AJ100009599999999AN1024000095KA1240M+00445KA2240N-01215KG1024W-0056D4KG2024D-0100D4MF1097664102474MG1097654101594OE11240156519099995OE22240116218099995OE33240041199999995RH1024X092D4RH2024N039D4RH3024M061D4REMSOD73924 HR PRECIPITATION (IN): 0.00 SNOW DEPTH (IN):0     24 HR SNOWFALL (IN):0.0  24 HR MAX TEMP (F): 4024 HR MIN TEMP (F): 10AVERAGE STATION PRESSURE:28.835 MINIMUM SEA LEVEL PRESSURE:30.00 TIME OF OCCURRENCE:2355 PEAK WIND SPEED (MPH): 35 PEAK WIND DIR (DEG):190 PEAK WIND TIME (LST):      FASTEST 2MIN SPEED (MPH): 26FASTEST 2MIN DIR (DEG):180 FASTEST 2MIN TIME (LST):     AVERAGE WIND SPEED (MPH): 9.2 24 HR AVG TEMP (F): 25DEPART FROM NORMAL:-10  HEATING DEGREE DAYS: 40 COOLING DEGREE DAYS:  0 LATEST DAY MAX TEMP (0700-1900 LST):40  LATEST NIGHT MIN TEMP(1900-0800 LST):10 HOURLY INCREMENTAL PRECIPITATION VALUES (IN):.00 0.00 0.00 0.00 0.00 0.00 0.00 0.00 0.00 0.00 0.00 0.00 0.00 0.00 0.00 0.00 0.00 0.00 0.00 0.00 0.00 0.00 0.00 0.00
0215723445939932014010406537+36010-094169FM-15+0384KFYV V0301905N006252200059N0160935N5+00005-00835101585ADDAA101000095GA1005+999999999GD10991+9999999GF100991999999999999999999MA1101525096995OC101035REMMET11201/04/14 00:53:02 METAR KFYV 040653Z 19012G20KT 10SM CLR 00/M08 A2998 RMK AO2 PK WND 21026/0555 SLP158 T00001083
0197723445939932014010407537+36010-094169FM-15+0384KFYV V0301905N007252200059N0160935N5+00065-00785101475ADDAA101000095GA1005+999999999GD10991+9999999GF100991999999999999999999MA1101425096895OC101035REMMET09401/04/14 01:53:02 METAR KFYV 040753Z 19014G20KT 10SM CLR 01/M08 A2995 RMK AO2 SLP147 T00061078
0217723445939932014010408537+36010-094169FM-15+0384KFYV V0301905N007252200059N0160935N5+00065-00725101405ADDAA101000095GA1005+999999999GD10991+9999999GF100991999999999999999999MA1101355096825MD1890189+9999OC101185REMMET10001/04/14 02:53:02 METAR KFYV 040853Z 19014G23KT 10SM CLR 01/M07 A2993 RMK AO2 SLP140 T00061072 58018
0215723445939932014010409537+36010-094169FM-15+0384KFYV V0301805N008852200059N0160935N5+00175-00675101265ADDAA101000095GA1005+999999999GD10991+9999999GF100991999999999999999999MA1101225096695OC101395REMMET11201/04/14 03:53:02 METAR KFYV 040953Z 18017G27KT 10SM CLR 02/M07 A2989 RMK AO2 PK WND 18027/0950 SLP126 T00171067
0215723445939932014010410537+36010-094169FM-15+0384KFYV V0301905N007752200059N0160935N5+00175-00675101235ADDAA101000095GA1005+999999999GD10991+9999999GF100991999999999999999999MA1101155096635OC101185REMMET11201/04/14 04:53:02 METAR KFYV 041053Z 19015G23KT 10SM CLR 02/M07 A2987 RMK AO2 PK WND 18028/1029 SLP123 T00171067
0292723445939932014010411537+36010-094169FM-15+0384KFYV V0301905N007752200059N0160935N5+00175-00565101235ADDAA101000095GA1005+999999999GD10991+9999999GF100991999999999999999999KA1060M+00171KA2060N+00001MA1101155096635MD1690199+9999OC101245OD149999990190REMMET13501/04/14 05:53:02 METAR KFYV 041153Z 19015G24KT 10SM CLR 02/M06 A2987 RMK AO2 PK WND 19026/1112 SLP123 T00171056 10017 20000 56019 (SN)
0234723445939932014010412537+36010-094169FM-15+0384KFYV V0302105N006252200059N0160935N5+00175-00445101175ADDAA101000095GA1005+999999999GD10991+9999999GF100991999999999999999999MA1101125096595OC101295OD149999990190REMMET11701/04/14 06:53:02 METAR KFYV 041253Z 21012G25KT 10SM CLR 02/M04 A2986 RMK AO2 PK WND 19026/1243 SLP117 T00171044 (SN)
0209723445939932014010413437+36010-094169FM-16+0384KFYV V0302005N00825006715MN0160935N5+00205-00305999999ADDGA1075+006715991GD13991+0067159GF199999990990006711991991MA1101155096635OC101135OD149999990200REMMET10301/04/14 07:43:02 SPECI KFYV 041343Z 20016G22KT 10SM BKN022 02/M03 A2987 RMK AO2 PK WND 20026/1319 (SN)
0237723445939932014010413537+36010-094169FM-15+0384KFYV V0301905N00725006715MN0160935N5+00285-00285101265ADDAA101000095GA1075+006715991GD13991+0067159GF199999990990006711991991MA1101195096665OC101085OD149999990200REMMET12001/04/14 07:53:02 METAR KFYV 041353Z 19014G21KT 10SM BKN022 03/M03 A2988 RMK AO2 PK WND 20026/1319 SLP126 T00281028 (SN)
0225723445939932014010414537+36010-094169FM-15+0384KFYV V0301905N00625006715MN0160935N5+00335-00175101235ADDAA101000095GA1085+006715991GD14991+0067159GF199999990990006711991991MA1101195096665MD1390029+9999OC101135REMMET10801/04/14 08:53:02 METAR KFYV 041453Z 19012G22KT 10SM OVC022 03/M02 A2988 RMK AO2 SLP123 T00331017 53002 (SN)
0205723445939932014010415537+36010-094169FM-15+0384KFYV V0301905N00725006105MN0160935N5+00395-00115101295ADDAA101000095GA1085+006105991GD14991+0061059GF199999990990006101991991MA1101255096725OC100935REMMET10201/04/14 09:53:02 METAR KFYV 041553Z 19014G18KT 10SM OVC020 04/M01 A2990 RMK AO2 SLP129 T00391011 (SN)
0204723445939932014010416537+36010-094169FM-15+0384KFYV V0301905N00775005495MN0160935N5+00505+00005101235ADDAA101000095GA1085+005495991GD14991+0054959GF199999990990005491991991MA1101195096665OC101295REMMET10101/04/14 10:53:02 METAR KFYV 041653Z 19015G25KT 10SM OVC018 05/00 A2988 RMK AO2 SLP123 T00500000 (SN)
0262723445939932014010417537+36010-094169FM-15+0384KFYV V0301805N00825005495MN0160935N5+00565+00115101115ADDAA101000095GA1085+005495991GD14991+0054959GF199999990990005491991991KA1060M+00561KA2060N+00111MA1101055096535MD1890129+9999OC101035REMMET11901/04/14 11:53:02 METAR KFYV 041753Z 18016G20KT 10SM OVC018 06/01 A2984 RMK AO2 SLP111 T00560011 10056 20011 58012 (SN)
0204723445939932014010418537+36010-094169FM-15+0384KFYV V0301805N00625005495MN0160935N5+00565+00115101015ADDAA101000095GA1085+005495991GD14991+0054959GF199999990990005491991991MA1100955096435OC100935REMMET10101/04/14 12:53:02 METAR KFYV 041853Z 18012G18KT 10SM OVC018 06/01 A2981 RMK AO2 SLP101 T00560011 (SN)
0193723445939932014010419537+36010-094169FM-15+0384KFYV V0301705N00415005495MN0160935N5+00565+00175100945ADDAA101000095GA1085+005495991GD14991+0054959GF199999990990005491991991MA1100915096405REMMET09801/04/14 13:53:02 METAR KFYV 041953Z 17008KT 10SM OVC018 06/02 A2980 RMK AO2 SLP094 T00560017 (SN)
0213723445939932014010420537+36010-094169FM-15+0384KFYV V0301605N00265005495MN0160935N5+00505+00175100985ADDAA101000095GA1085+005495991GD14991+0054959GF199999990990005491991991MA1100915096405MD1590139+9999REMMET10401/04/14 14:53:02 METAR KFYV 042053Z 16005KT 10SM OVC018 05/02 A2980 RMK AO2 SLP098 T00500017 55013 (TD)
0193723445939932014010421537+36010-094169FM-15+0384KFYV V0301605N00365005495MN0160935N5+00505+00175101035ADDAA101000095GA1085+005495991GD14991+0054959GF199999990990005491991991MA1100985096465REMMET09801/04/14 15:53:02 METAR KFYV 042153Z 16007KT 10SM OVC018 05/02 A2982 RMK AO2 SLP103 T00500017 (TD)
0193723445939932014010422537+36010-094169FM-15+0384KFYV V0301605N00215005495MN0160935N5+00505+00225101045ADDAA101000095GA1085+005495991GD14991+0054959GF199999990990005491991991MA1100985096465REMMET09801/04/14 16:53:02 METAR KFYV 042253Z 16004KT 10SM OVC018 05/02 A2982 RMK AO2 SLP104 T00500022 (TD)
0251723445939932014010423537+36010-094169FM-15+0384KFYV V0309999C00005005495MN0160935N5+00445+00225101055ADDAA101000095GA1085+005495991GD14991+0054959GF199999990990005491991991KA1060M+00561KA2060N+00441MA1101025096505MD1190089+9999REMMET11601/04/14 17:53:02 METAR KFYV 042353Z 00000KT 10SM OVC018 04/02 A2983 RMK AO2 SLP105 T00440022 10056 20044 51008 (TD)
0188723445939932014010500537+36010-094169FM-15+0384KFYV V0301605N00215007325MN0160935N5+00505+00225101105ADDAA101000095GA1085+007325991GD14991+0073259GF199999990990007321991991MA1101055096535REMMET09301/04/14 18:53:01 METAR KFYV 050053Z 16004KT 10SM OVC024 05/02 A2984 RMK AO2 SLP110 T00500022
0188723445939932014010501537+36010-094169FM-15+0384KFYV V0300905N00155007925MN0160935N5+00505+00285101135ADDAA101000025GA1085+007925991GD14991+0079259GF199999990990007921991991MA1101085096565REMMET09301/04/14 19:53:01 METAR KFYV 050153Z 09003KT 10SM OVC026 05/03 A2985 RMK AO2 SLP113 T00500028
0304723445939932014010502537+36010-094169FM-15+0384KFYV V0309999C00005007925MN0096565N5+00395+00285101125ADDAA101000396AA203000022AU110020015AU200001015AW1105AW2615GA1085+007925991GD14991+0079259GF199999990990007921991991MA1101085096565MD1090079+9999REMMET13101/04/14 20:53:02 METAR KFYV 050253Z 00000KT 6SM -RA BR OVC026 04/03 A2985 RMK AO2 RAB0157E06B22 SLP112 P0000 60000 T00390028 50007EQDQ01  00008PRCP03
0234723445939932014010503537+36010-094169FM-15+0384KFYV V0309999V00215007325MN0096565N5+00395+00335101095ADDAA101000395AU110020015AU200001015AW1105AW2615GA1085+007325991GD14991+0073259GF199999990990007321991991MA1101055096535REMMET10501/04/14 21:53:02 METAR KFYV 050353Z VRB04KT 6SM -RA BR OVC024 04/03 A2984 RMK AO2 SLP109 P0002 T00390033
0258723445939932014010504487+36010-094169FM-16+0384KFYV V0300905N00155004885MN0040235N5+00405+00305999999ADDAA101002031AU120020015AU200001015AW1105AW2625GA1045+001835991GA2085+004885991GD12991+0018359GD24991+0048859GF199999990990001831991991MA1101025096505REMMET09801/04/14 22:48:02 SPECI KFYV 050448Z 09003KT 2 1/2SM RA BR SCT006 OVC016 04/03 A2983 RMK AO2 P0008
0261723445939932014010504516+36010-094169FM-16+0384KFYV V0300605N00215004885MN0048285N5+00405+00305999999ADDAU110020015AU200001015AW1105AW2615GA1045+001835999GA2075+004885999GA3085+006405999GD12991+0018359GD23991+0048859GD34991+0064059MA1101025096505REMMET10701/04/14 22:51:03 SPECI KFYV 050451Z 06004KT 3SM -RA BR SCT006 BKN016 OVC021 04/03 A2983 RMK AO2 P0008 FIBI
0310723445939932014010504537+36010-094169FM-15+0384KFYV V0309999V00155004885MN0064375N5+00395+00335101055ADDAA101002095AU110020015AU200001015AW1105AW2615GA1045+001835991GA2075+004885991GA3085+006405991GD12991+0018359GD23991+0048859GD34991+0064059GF199999990990001831991991MA1101025096505REMMET11901/04/14 22:53:02 METAR KFYV 050453Z VRB03KT 4SM -RA BR SCT006 BKN016 OVC021 04/03 A2983 RMK AO2 SLP105 P0008 T00390033
0245723445939932014010505516+36010-094169FM-16+0384KFYV V0303605N00215001835MN0064375N5+00305+00305999999ADDAU110020015AU200001015AW1105AW2615GA1075+001835999GA2085+004885999GD13991+0018359GD24991+0048859MA1100985096465REMMET12201/04/14 23:51:03 SPECI KFYV 050551Z 36004KT 4SM -RA BR BKN006 OVC016 03/03 A2982 RMK AO2 CIG 004V008 P0002 400560000 FIBI
0414723445939932014010505537+36010-094169FM-15+0384KFYV V0309999C00005001835MN0064375N5+00335+00335101015ADDAA101000595AA206003091AU110020015AU200001015AW1105AW2615GA1075+001835991GA2085+004885991GD13991+0018351GD24991+0048859GF199999990990001831991991KA1060M+00501KA2060N+00331KA3240M+00561KA4240N+00001MA1100985096465MD1890069+9999REMMET15801/04/14 23:53:02 METAR KFYV 050553Z 00000KT 4SM -RA BR BKN006 OVC016 03/03 A2982 RMK AO2 CIG 004V008 SLP101 P0002 60012 T00330033 10050 20033 400560000 58006EQDQ01  00308PRCP06
1018723445939932014010505596+36010-094169SOD  +0384KFYV V030999999999999999999999999999+99999+99999999999ADDAA124003095AJ100009599999999AN1024000095AT1AU16RA  5AT2AU13BR  5AX1015245KA1240M+00565KA2240N+00005KG1024W+0017D4KG2024D-0011D4MF1096554101224MG1096534100954OE11240143118099995OE22240111819099995OE33240046999999995RH1024X100D4RH2024N054D4RH3024M075D4REMSOD75624 HR PRECIPITATION (IN): 0.12 SNOW DEPTH (IN):0     24 HR SNOWFALL (IN):0.0  WEATHER(CODE):1  24 HR MAX TEMP (F): 4224 HR MIN TEMP (F): 32AVERAGE STATION PRESSURE:28.505 MINIMUM SEA LEVEL PRESSURE:29.81 TIME OF OCCURRENCE:1441 PEAK WIND SPEED (MPH): 32 PEAK WIND DIR (DEG):180 PEAK WIND TIME (LST):      FASTEST 2MIN SPEED (MPH): 25FASTEST 2MIN DIR (DEG):190 FASTEST 2MIN TIME (LST):     AVERAGE WIND SPEED (MPH):10.5 24 HR AVG TEMP (F): 37DEPART FROM NORMAL:  2  HEATING DEGREE DAYS: 28 COOLING DEGREE DAYS:  0 LATEST DAY MAX TEMP (0700-1900 LST):42  LATEST NIGHT MIN TEMP(1900-0800 LST):32 HOURLY INCREMENTAL PRECIPITATION VALUES (IN):.00 0.00 0.00 0.00 0.00 0.00 0.00 0.00 0.00 0.00 0.00 0.00 0.00 0.00 0.00 0.00 0.00 0.00 0.00 T    0.01 0.01 0.08 0.02
0255723445939932014010506117+36010-094169FM-16+0384KFYV V0309999V00155001225MN0064375N5+00305+00305999999ADDAA101000231AU110020015AU200001015AW1105AW2615GA1075+001225991GA2085+004885991GD13991+0012259GD24991+0048859GF199999990990001221991991MA1100985096465REMMET09501/05/14 00:11:02 SPECI KFYV 050611Z VRB03KT 4SM -RA BR BKN004 OVC016 03/03 A2982 RMK AO2 P0001
0223723445939932014010506516+36010-094169FM-16+0384KFYV V0309999C00005004275MN0064375N5+00305+00305999999ADDAU110020015AU200001015AW1105AW2615GA1045+001225999GA2085+004275999GD12991+0012259GD24991+0042759MA1100915096405REMMET10001/05/14 00:51:02 SPECI KFYV 050651Z 00000KT 4SM -RA BR SCT004 OVC014 03/03 A2980 RMK AO2 P0002 FIBI
0272723445939932014010506537+36010-094169FM-15+0384KFYV V0300405N00155004275MN0064375N5+00335+00335100945ADDAA101000595AU110020015AU200001015AW1105AW2615GA1045+001225991GA2085+004275991GD12991+0012259GD24991+0042759GF199999990990001221991991MA1100915096405REMMET11201/05/14 00:53:02 METAR KFYV 050653Z 04003KT 4SM -RA BR SCT004 OVC014 03/03 A2980 RMK AO2 SLP094 P0002 T00330033
0255723445939932014010507007+36010-094169FM-16+0384KFYV V0309999V00155001835MN0048285N5+00305+00305999999ADDAA101000021AU110020015AU200001015AW1105AW2615GA1075+001835991GA2085+004275991GD13991+0018359GD24991+0042759GF199999990990001831991991MA1100915096405REMMET09501/05/14 01:00:02 SPECI KFYV 050700Z VRB03KT 3SM -RA BR BKN006 OVC014 03/03 A2980 RMK AO2 P0000
0259723445939932014010507247+36010-094169FM-16+0384KFYV V0309999V00155001835MN0040235N5+00305+00305999999ADDAA101000531AU110020015AU200001015AW1105AW2615GA1075+001835991GA2085+003665991GD13991+0018359GD24991+0036659GF199999990990001831991991MA1100885096375REMMET09901/05/14 01:24:02 SPECI KFYV 050724Z VRB03KT 2 1/2SM -RA BR BKN006 OVC012 03/03 A2979 RMK AO2 P0002
0255723445939932014010507407+36010-094169FM-16+0384KFYV V0300605N00215005795MN0048285N5+00305+00305999999ADDAA101000731AU110020015AU200001015AW1105AW2615GA1045+001835991GA2085+005795991GD12991+0018359GD24991+0057959GF199999990990001831991991MA1100855096335REMMET09501/05/14 01:40:02 SPECI KFYV 050740Z 06004KT 3SM -RA BR SCT006 OVC019 03/03 A2978 RMK AO2 P0003
0272723445939932014010507537+36010-094169FM-15+0384KFYV V0300405N00155005795MN0048285N5+00335+00285100855ADDAA101001595AU110020015AU200001015AW1105AW2615GA1025+001835991GA2085+005795991GD11991+0018359GD24991+0057959GF199999990990001831991991MA1100815096305REMMET11201/05/14 01:53:02 METAR KFYV 050753Z 04003KT 3SM -RA BR FEW006 OVC019 03/03 A2977 RMK AO2 SLP085 P0005 T00330028
0254723445939932014010508247+36010-094169FM-16+0384KFYV V0309999C00005001835MN0048285N5+00305+00305999999ADDAA101002231AU120020015AU200001015AW1105AW2625GA1075+001835991GA2085+005185991GD13991+0018359GD24991+0051859GF199999990990001831991991MA1100815096305REMMET09401/05/14 02:24:02 SPECI KFYV 050824Z 00000KT 3SM RA BR BKN006 OVC017 03/03 A2977 RMK AO2 P0009
0290723445939932014010508537+36010-094169FM-15+0384KFYV V0303505N00365001835MN0064375N5+00285+00285100875ADDAA101003395AA203005191AU110020015AU200001015AW1105AW2615GA1085+001835991GD14991+0018359GF199999990990001831991991MA1100855096335MD1590149+9999REMMET11701/05/14 02:53:02 METAR KFYV 050853Z 35007KT 4SM -RA BR OVC006 03/03 A2978 RMK AO2 SLP087 P0013 60020 T00280028 55014EQDQ01  00508PRCP03
0246723445939932014010509537+36010-094169FM-15+0384KFYV V0303505N00415001835MN0080475N5+00225+00175100935ADDAA101000895AU110020015AU200001015AW1105AW2615GA1085+001835991GD14991+0018351GF199999990990001831991991MA1100885096375REMMET11701/05/14 03:53:02 METAR KFYV 050953Z 35008KT 5SM -RA BR OVC006 02/02 A2979 RMK AO2 CIG 005V010 SLP093 P0004 T00220017
0254723445939932014010510407+36010-094169FM-16+0384KFYV V0303305N00775001835MN0096565N5-00105-00205999999ADDAA101000531AU128020015AU200001015AW1105AW2655GA1085+001835991GD14991+0018359GF199999990990001831991991MA1100915096405OC101035REMMET11701/05/14 04:40:02 SPECI KFYV 051040Z 33015G20KT 6SM FZRA BR OVC006 M01/M02 A2980 RMK AO2 RAE24UPB0958E37FZRAB37 P0002
0309723445939932014010510537+36010-094169FM-15+0384KFYV V0303405N00775002445MN0064375N5-00115-00225100965ADDAA101002095AU128020015AU200001015AW1105AW2655GA1075+002445991GA2085+004885991GD13991+0024459GD24991+0048859GF199999990990002441991991MA1100915096405OC101035REMMET14101/05/14 04:53:02 METAR KFYV 051053Z 34015G20KT 4SM FZRA BR BKN008 OVC016 M01/M02 A2980 RMK AO2 RAE24UPB0958E37FZRAB37 SLP096 P0006 T10111022
0223723445939932014010511516+36010-094169FM-16+0384KFYV V0303305N00775003055MN0080475N5-00305-00405999999ADDAU128020015AU200001015AW1105AW2655GA1085+003055999GD14991+0030559MA1101085096565OC100985REMMET12301/05/14 05:51:02 SPECI KFYV 051151Z 33015G19KT 5SM FZRA BR OVC010 M03/M04 A2985 RMK AO2 CIG 006V012 PRESRR P0014 FIBI (SN)
0399723445939932014010511537+36010-094169FM-15+0384KFYV V0303405N00725003055MN0080475N5-00335-00505101155ADDAA101003095AA206011291AA324014291AU128020015AU200001015AW1105AW2655GA1085+003055991GD14991+0030551GF199999990990003051991991KA1060M+00331KA2060N-00331MA1101085096565MD1390249+9999OC100985REMMET16501/05/14 05:53:02 METAR KFYV 051153Z 34014G19KT 5SM FZRA BR OVC010 M03/M05 A2985 RMK AO2 CIG 006V012 PRESRR SLP115 P0014 60044 70056 T10331050 10033 21033 53024 (SN)EQDQ01  01118PRCP06Q02  01428PRCP24
0267723445939932014010511567+36010-094169FM-16+0384KFYV V0303305N00775003055MN0096565N5-00405-00505999999ADDAA101000021AU110030015AU200001015AW1105AW2715GA1085+003055991GD14991+0030551GF199999990990003051991991MA1101085096565OC100985REMMET13001/05/14 05:56:02 SPECI KFYV 051156Z 33015G19KT 6SM -SN BR OVC010 M04/M05 A2985 RMK AO2 FZRAE56SNB56 CIG 006V012 PRESRR P0000 (SN)
0279723445939932014010512207+36010-094169FM-16+0384KFYV V0303305N00675003055MN0016095N5-00505-00605999999ADDAA101000531AU110030015AU200001015AW1105AW2715GA1075+003055991GA2085+005495991GD13991+0030559GD24991+0054959GF199999990990003051991991MA1101085096565REMMET11901/05/14 06:20:02 SPECI KFYV 051220Z 33013KT 1SM -SN BR BKN010 OVC018 M05/M06 A2985 RMK AO2 FZRAE1156SNB1156 P0002 (SN)
0311723445939932014010512537+36010-094169FM-15+0384KFYV V0303505N00675003055MN0020125N5-00615-00785101295ADDAA101000895AU110030015AU200001015AW1105AW2715GA1075+003055991GA2085+008535991GD13991+0030559GD24991+0085359GF199999990990003051991991MA1101225096695OC101245REMMET14301/05/14 06:53:02 METAR KFYV 051253Z 35013G24KT 1 1/4SM -SN BR BKN010 OVC028 M06/M08 A2989 RMK AO2 FZRAE1156SNB1156 SLP129 P0003 T10611078 (SN)
0290723445939932014010513537+36010-094169FM-15+0384KFYV V0303405N00625004575MN0016095N5-00725-00895101415ADDAA101000395AU110030015AU200001015AW1105AW2715GA1025+002445991GA2085+004575991GD11991+0024459GD24991+0045759GF199999990990002441991991MA1101325096795OC100985REMMET12201/05/14 07:53:02 METAR KFYV 051353Z 34012G19KT 1SM -SN BR FEW008 OVC015 M07/M09 A2992 RMK AO2 SLP141 P0001 T10721089 (SN)
0312723445939932014010514537+36010-094169FM-15+0384KFYV V0303505N00515004575MN0020125N5-00835-01005101625ADDAA101000395AA203001391AU110030015AU200001015AW1105AW2715GA1085+004575991GD14991+0045759GF199999990990004571991991MA1101525096995MD1390429+9999OC101035REMMET13101/05/14 08:53:02 METAR KFYV 051453Z 35010G20KT 1 1/4SM -SN BR OVC015 M08/M10 A2998 RMK AO2 SLP162 P0001 60005 T10831100 53042 (SN)EQDQ01  00128PRCP03
0273723445939932014010515227+36010-094169FM-16+0384KFYV V0303505N00465005185MN0080475N5-00805-01105999999ADDAA101000021AU110030015AU200001015AW1105AW2715GA1075+005185991GA2085+011895991GD13991+0051859GD24991+0118959GF199999990990005181991991MA1101565097025OC100935REMMET10501/05/14 09:22:02 SPECI KFYV 051522Z 35009G18KT 5SM -SN BR BKN017 OVC039 M08/M11 A2999 RMK AO2 P0000 (TD)
0241723445939932014010515516+36010-094169FM-16+0384KFYV V0303505N00725005185MN0032195N5-00805-01105999999ADDAU110030015AU200001015AW1105AW2715GA1075+005185999GA2085+010675999GD13991+0051859GD24991+0106759MA1101635097085OC101085REMMET11001/05/14 09:51:02 SPECI KFYV 051551Z 35014G21KT 2SM -SN BR BKN017 OVC035 M08/M11 A3001 RMK AO2 P0000 FIBI (TD)
0290723445939932014010515537+36010-094169FM-15+0384KFYV V0303405N00725005185MN0032195N5-00895-01115101735ADDAA101000025AU110030015AU200001015AW1105AW2715GA1075+005185991GA2085+010675991GD13991+0051859GD24991+0106759GF199999990990005181991991MA1101635097085OC101085REMMET12201/05/14 09:53:02 METAR KFYV 051553Z 34014G21KT 2SM -SN BR BKN017 OVC035 M09/M11 A3001 RMK AO2 SLP173 P0000 T10891111 (TD)
0263723445939932014010516516+36010-094169FM-16+0384KFYV V0303605N00575006405MN0024145N5-00905-01205999999ADDAU110030015AW1715GA1045+004575999GA2075+006405999GA3085+010065999GD12991+0045759GD23991+0064059GD34991+0100659MA1101735097185OC101035REMMET11801/05/14 10:51:02 SPECI KFYV 051651Z 36011G20KT 1 1/2SM -SN SCT015 BKN021 OVC033 M09/M12 A3004 RMK AO2 P0000 FIBI (TD)
0332723445939932014010516537+36010-094169FM-15+0384KFYV V0303505N00515006405MN0020125N5-00895-01115101815ADDAA101000025AU110030015AU200001015AW1105AW2715GA1045+004575991GA2075+006405991GA3085+010065991GD12991+0045759GD23991+0064059GD34991+0100659GF199999990990004571991991MA1101695097155OC101035REMMET13301/05/14 10:53:02 METAR KFYV 051653Z 35010G20KT 1 1/4SM -SN BR SCT015 BKN021 OVC033 M09/M11 A3003 RMK AO2 SLP181 P0000 T10891111 (TD)
0225723445939932014010517516+36010-094169FM-16+0384KFYV V0303505N00725006105MN0040235N5-00905-01205999999ADDAU110030015AW1715GA1025+004575999GA2085+006105999GD11991+0045759GD24991+0061059MA1101765097215OC101295REMMET11101/05/14 11:51:02 SPECI KFYV 051751Z 35014G25KT 2 1/2SM -SN FEW015 OVC020 M09/M12 A3005 RMK AO2 P0000 FIBI (TD)
0330723445939932014010517537+36010-094169FM-15+0384KFYV V0303505N00675006105MN0040235N5-00895-01225101895ADDAA101000025AA206001391AU110030015AW1715GA1085+006105991GD14991+0061059GF199999990990006101991991KA1060M-00331KA2060N-00941MA1101765097215MD1190259+9999OC101245REMMET14001/05/14 11:53:02 METAR KFYV 051753Z 35013G24KT 2 1/2SM -SN OVC020 M09/M12 A3005 RMK AO2 SLP189 P0000 60005 T10891122 11033 21094 51025 (TD)EQDQ01  00128PRCP06
0259723445939932014010518537+36010-094169FM-15+0384KFYV V0303205N00725006715MN0032195N5-00895-01175101905ADDAA101000025AU110030015AW1715GA1045+004885991GA2085+006715991GD12991+0048859GD24991+0067159GF199999990990004881991991MA1101795097255REMMET11601/05/14 12:53:02 METAR KFYV 051853Z 32014KT 2SM -SN SCT016 OVC022 M09/M12 A3006 RMK AO2 SLP190 P0000 T10891117 (TD)
0239723445939932014010519516+36010-094169FM-16+0384KFYV V0303305N00775006405MN0048285N5-00805-01105999999ADDAU110030015AW1715GA1075+006405999GA2085+007925999GD13991+0064059GD24991+0079259MA1101865097315OC101085REMMET12501/05/14 13:51:02 SPECI KFYV 051951Z 33015G21KT 3SM -SN BKN021 OVC026 M08/M11 A3008 RMK AO2 PK WND 34026/1933 P0000 FIBI (TD)
0302723445939932014010519537+36010-094169FM-15+0384KFYV V0303305N00725006405MN0048285N5-00835-01115102005ADDAA101000025AU110030015AW1715GA1075+006405991GA2085+007925991GD13991+0064059GD24991+0079259GF199999990990006401991991MA1101905097345OC101085OD130101341340REMMET13701/05/14 13:53:02 METAR KFYV 051953Z 33014G21KT 3SM -SN BKN021 OVC026 M08/M11 A3009 RMK AO2 PK WND 34026/1933 SLP200 P0000 T10831111 (TD)
0326723445939932014010520537+36010-094169FM-15+0384KFYV V0303405N00725007015MN0048285N5-00835-01175102165ADDAA101000025AA203000021AU110030015AW1715GA1075+007015991GA2085+008235991GD13991+0070159GD24991+0082359GF199999990990007011991991MA1102035097475MD1390259+9999OC101085REMMET13101/05/14 14:53:02 METAR KFYV 052053Z 34014G21KT 3SM -SN BKN023 OVC027 M08/M12 A3013 RMK AO2 SLP216 P0000 60000 T10831117 53025 (XX)EQDQ01  00008PRCP03
0257723445939932014010521417+36010-094169FM-16+0384KFYV V0303205N00825005795MN0028165N5-00905-01205999999ADDAA101000021AU110030015AW1715GA1075+005795991GA2085+007925991GD13991+0057959GD24991+0079259GF199999990990005791991991MA1102205097645OC101085REMMET10601/05/14 15:41:02 SPECI KFYV 052141Z 32016G21KT 1 3/4SM -SN BKN019 OVC026 M09/M12 A3018 RMK AO2 P0000 (XX)
0230723445939932014010521516+36010-094169FM-16+0384KFYV V0303305N00675005795MN0032195N5-00905-01205999999ADDAU110030015AU200001015AW1105AW2715GA1075+005795999GA2085+007925999GD13991+0057959GD24991+0079259MA1102245097675REMMET10701/05/14 15:51:02 SPECI KFYV 052151Z 33013KT 2SM -SN BR BKN019 OVC026 M09/M12 A3019 RMK AO2 P0000 FIBI (XX)
0283723445939932014010521537+36010-094169FM-15+0384KFYV V0303305N00625005795MN0040235N5-00945-01175102365ADDAA101000025AU110030015AU200001015AW1105AW2715GA1075+005795991GA2085+007925991GD13991+0057959GD24991+0079259GF199999990990005791991991MA1102245097675REMMET12301/05/14 15:53:02 METAR KFYV 052153Z 33012KT 2 1/2SM -SN BR BKN019 OVC026 M09/M12 A3019 RMK AO2 SLP236 P0000 T10941117 (XX)
0253723445939932014010522007+36010-094169FM-16+0384KFYV V0303405N00775005795MN0064375N5-00905-01205999999ADDAA101000021AU110030015AW1715GA1075+005795991GA2085+007925991GD13991+0057959GD24991+0079259GF199999990990005791991991MA1102275097705OC101085REMMET10201/05/14 16:00:02 SPECI KFYV 052200Z 34015G21KT 4SM -SN BKN019 OVC026 M09/M12 A3020 RMK AO2 P0000 (XX)
0232723445939932014010522537+36010-094169FM-15+0384KFYV V0303205N00935007325MN0064375N5-01005-01285102565ADDAA101000025AU110030015AW1715GA1085+007325991GD14991+0073259GF199999990990007321991991MA1102405097835OC101085REMMET11201/05/14 16:53:02 METAR KFYV 052253Z 32018G21KT 4SM -SN OVC024 M10/M13 A3024 RMK AO2 SLP256 P0000 T11001128 (XX)
0345723445939932014010523537+36010-094169FM-15+0384KFYV V0303305N00625008235MN0160935N5-01065-01445102785ADDAA101000025AA206000021GA1085+008235991GD14991+0082359GF199999990990008231991991KA1060M-00831KA2060N-01061MA1102615098035MD1390569+9999OC101085REMMET17201/05/14 17:53:02 METAR KFYV 052353Z 33012G21KT 10SM OVC027 M11/M14 A3030 RMK AO2 PK WND 32026/2304 UPB41E47SNE41 PRESRR SLP278 P0000 60000 T11061144 11083 21106 53056 (XX)EQDQ01  00008PRCP06
0201723445939932014010600537+36010-094169FM-15+0384KFYV V0303505N00725007625MN0160935N5-01175-01565102975ADDAA101000095GA1075+007625991GD13991+0076259GF199999990990007621991991MA1102785098195OC101135REMMET09801/05/14 18:53:01 METAR KFYV 060053Z 35014G22KT 10SM BKN025 M12/M16 A3035 RMK AO2 SLP297 T11171156
0173723445939932014010601047+36010-094169FM-16+0384KFYV V0303505N004652200059N0160935N5-01205-01605999999ADDGA1045+007625991GD12991+0076259GF104991990990007621991991MA1102785098195OC100935REMMET08101/05/14 19:04:01 SPECI KFYV 060104Z 35009G18KT 10SM SCT025 M12/M16 A3035 RMK AO2
0187723445939932014010601537+36010-094169FM-15+0384KFYV V0303405N003152200059N0160935N5-01285-01725103155ADDAA101000095GA1005+999999999GD10991+9999999GF100991999999999999999999MA1102955098365REMMET09201/05/14 19:53:01 METAR KFYV 060153Z 34006KT 10SM CLR M13/M17 A3040 RMK AO2 SLP315 T11281172
0210723445939932014010602537+36010-094169FM-15+0384KFYV V0303505N00465033535MN0160935N5-01285-01835103265ADDAA101000095GA1085+033535991GD14991+0335359GF199999990990033531991991MA1103055098455MD1190419+9999REMMET10101/05/14 20:53:02 METAR KFYV 060253Z 35009KT 10SM OVC110 M13/M18 A3043 RMK AO2 SLP326 T11281183 51041
0187723445939932014010603537+36010-094169FM-15+0384KFYV V0303605N003152200059N0160935N5-01335-01895103345ADDAA101000095GA1005+999999999GD10991+9999999GF100991999999999999999999MA1103125098525REMMET09201/05/14 21:53:02 METAR KFYV 060353Z 36006KT 10SM CLR M13/M19 A3045 RMK AO2 SLP334 T11331189
0187723445939932014010604537+36010-094169FM-15+0384KFYV V0303605N002652200059N0160935N5-01395-01945103385ADDAA101000095GA1005+999999999GD10991+9999999GF100991999999999999999999MA1103155098555REMMET09201/05/14 22:53:02 METAR KFYV 060453Z 36005KT 10SM CLR M14/M19 A3046 RMK AO2 SLP338 T11391194
0281723445939932014010605537+36010-094169FM-15+0384KFYV V0309999C000052200059N0160935N5-01505-02005103395ADDAA101000095GA1005+999999999GD10991+9999999GF100991999999999999999999KA1060M-01061KA2060N-01501KA3240M+00331KA4240N-01501MA1103185098585MD1190129+9999REMMET12001/05/14 23:53:02 METAR KFYV 060553Z 00000KT 10SM CLR M15/M20 A3047 RMK AO2 SLP339 T11501200 11106 21150 400331150 51012
1053723445939932014010605596+36010-094169SOD  +0384KFYV V030999999999999999999999999999+99999+99999999999ADDAA124012495AJ100003599999999AN1024004895AT1AU16RA  5AT2AU17FZRA5AT3AU18SN  5AT4AU13BR  5KA1240M+00335KA2240N-01495KG1024W-0083D4KG2024D-0106D4MF1097604102074MG1097604100784OE11240134132099995OE22240102834099995OE33240052899999995RH1024X100D4RH2024N054D4RH3024M081D4REMSOD75724 HR PRECIPITATION (IN): 0.49 SNOW DEPTH (IN):T     24 HR SNOWFALL (IN):1.9  WEATHER(CODE):16  24 HR MAX TEMP (F): 3824 HR MIN TEMP (F):  5AVERAGE STATION PRESSURE:28.820 MINIMUM SEA LEVEL PRESSURE:29.76 TIME OF OCCURRENCE:0215 PEAK WIND SPEED (MPH): 30 PEAK WIND DIR (DEG):320 PEAK WIND TIME (LST):      FASTEST 2MIN SPEED (MPH): 23FASTEST 2MIN DIR (DEG):340 FASTEST 2MIN TIME (LST):     AVERAGE WIND SPEED (MPH):11.8 24 HR AVG TEMP (F): 22DEPART FROM NORMAL:-13  HEATING DEGREE DAYS: 43 COOLING DEGREE DAYS:  0 LATEST DAY MAX TEMP (0700-1900 LST):21  LATEST NIGHT MIN TEMP(1900-0800 LST):19 HOURLY INCREMENTAL PRECIPITATION VALUES (IN):.02 0.06 0.13 0.03 0.08 0.12 0.03 0.01 0.01 T    T    T    T    T    T    T    T    T    0.00 0.00 0.00 0.00 0.00 0.00EQDR01    167AXW093
0187723445939932014010606537+36010-094169FM-15+0384KFYV V0309999C000052200059N0160935N5-01565-02005103485ADDAA101000095GA1005+999999999GD10991+9999999GF100991999999999999999999MA1103255098655REMMET09201/06/14 00:53:02 METAR KFYV 060653Z 00000KT 10SM CLR M16/M20 A3049 RMK AO2 SLP348 T11561200
0187723445939932014010607537+36010-094169FM-15+0384KFYV V0309999C000052200059N0160935N5-01615-02005103525ADDAA101000095GA1005+999999999GD10991+9999999GF100991999999999999999999MA1103285098685REMMET09201/06/14 01:53:02 METAR KFYV 060753Z 00000KT 10SM CLR M16/M20 A3050 RMK AO2 SLP352 T11611200
0207723445939932014010608537+36010-094169FM-15+0384KFYV V0303005N002652200059N0160935N5-01615-02115103565ADDAA101000095GA1005+999999999GD10991+9999999GF100991999999999999999999MA1103325098715MD1190159+9999REMMET09801/06/14 02:53:02 METAR KFYV 060853Z 30005KT 10SM CLR M16/M21 A3051 RMK AO2 SLP356 T11611211 51015
0187723445939932014010609537+36010-094169FM-15+0384KFYV V0303005N004152200059N0160935N5-01615-02065103605ADDAA101000095GA1005+999999999GD10991+9999999GF100991999999999999999999MA1103355098755REMMET09201/06/14 03:53:02 METAR KFYV 060953Z 30008KT 10SM CLR M16/M21 A3052 RMK AO2 SLP360 T11611206
0187723445939932014010610537+36010-094169FM-15+0384KFYV V0303105N003652200059N0160935N5-01675-02115103605ADDAA101000095GA1005+999999999GD10991+9999999GF100991999999999999999999MA1103355098755REMMET09201/06/14 04:53:02 METAR KFYV 061053Z 31007KT 10SM CLR M17/M21 A3052 RMK AO2 SLP360 T11671211
0267723445939932014010611537+36010-094169FM-15+0384KFYV V0303105N004652200059N0160935N5-01725-02225103645ADDAA101000095AA224001391GA1005+999999999GD10991+9999999GF100991999999999999999999KA1060M-01501KA2060N-01721MA1103395098785MD1190069+9999REMMET12101/06/14 05:53:02 METAR KFYV 061153Z 31009KT 10SM CLR M17/M22 A3053 RMK AO2 SLP364 70005 T11721222 11150 21172 51006 (TD)
0203723445939932014010612537+36010-094169FM-15+0384KFYV V0303205N006252200059N0160935N5-01785-02445103705ADDAA101000095GA1005+999999999GD10991+9999999GF100991999999999999999999MA1103425098815OC100885REMMET10001/06/14 06:53:02 METAR KFYV 061253Z 32012G17KT 10SM CLR M18/M24 A3054 RMK AO2 SLP370 T11781244 (TD)
0192723445939932014010613537+36010-094169FM-15+0384KFYV V0303205N006252200059N0160935N5-01895-02565103825ADDAA101000095GA1005+999999999GD10991+9999999GF100991999999999999999999MA1103565098945REMMET09701/06/14 07:53:02 METAR KFYV 061353Z 32012KT 10SM CLR M19/M26 A3058 RMK AO2 SLP382 T11891256 (TD)
0223723445939932014010614537+36010-094169FM-15+0384KFYV V0303505N004652200059N0160935N5-01895-02675103895ADDAA101000095GA1005+999999999GD10991+9999999GF100991999999999999999999MA1103625099015MD1390229+9999OC100775REMMET10601/06/14 08:53:02 METAR KFYV 061453Z 35009G15KT 10SM CLR M19/M27 A3060 RMK AO2 SLP389 T11891267 53022 (TD)
0192723445939932014010615537+36010-094169FM-15+0384KFYV V0303205N005752200059N0160935N5-01785-02565103975ADDAA101000095GA1005+999999999GD10991+9999999GF100991999999999999999999MA1103695099075REMMET09701/06/14 09:53:02 METAR KFYV 061553Z 32011KT 10SM CLR M18/M26 A3062 RMK AO2 SLP397 T11781256 (TD)
0192723445939932014010616537+36010-094169FM-15+0384KFYV V0303105N004152200059N0160935N5-01675-02335103935ADDAA101000095GA1005+999999999GD10991+9999999GF100991999999999999999999MA1103665099045REMMET09701/06/14 10:53:02 METAR KFYV 061653Z 31008KT 10SM CLR M17/M23 A3061 RMK AO2 SLP393 T11671233 (TD)
0250723445939932014010617537+36010-094169FM-15+0384KFYV V0303105N005752200059N0160935N5-01565-02285103795ADDAA101000095GA1005+999999999GD10991+9999999GF100991999999999999999999KA1060M-01561KA2060N-01891MA1103525098915MD1890099+9999REMMET11501/06/14 11:53:02 METAR KFYV 061753Z 31011KT 10SM CLR M16/M23 A3057 RMK AO2 SLP379 T11561228 11156 21189 58009 (TD)
0203723445939932014010618537+36010-094169FM-15+0384KFYV V0303005N004652200059N0160935N5-01445-02225103735ADDAA101000095GA1005+999999999GD10991+9999999GF100991999999999999999999MA1103455098855OC100985REMMET10001/06/14 12:53:02 METAR KFYV 061853Z 30009G19KT 10SM CLR M14/M22 A3055 RMK AO2 SLP373 T11441222 (TD)
0203723445939932014010619537+36010-094169FM-15+0384KFYV V0302805N005752200059N0160935N5-01395-02225103695ADDAA101000095GA1005+999999999GD10991+9999999GF100991999999999999999999MA1103425098815OC100885REMMET10001/06/14 13:53:02 METAR KFYV 061953Z 28011G17KT 10SM CLR M14/M22 A3054 RMK AO2 SLP369 T11391222 (TD)
0212723445939932014010620537+36010-094169FM-15+0384KFYV V0302405N003652200059N0160935N5-01285-02115103645ADDAA101000095GA1005+999999999GD10991+9999999GF100991999999999999999999MA1103395098785MD1690149+9999REMMET10301/06/14 14:53:02 METAR KFYV 062053Z 24007KT 10SM CLR M13/M21 A3053 RMK AO2 SLP364 T11281211 56014 (MB)
0192723445939932014010621537+36010-094169FM-15+0384KFYV V0302705N003652200059N0160935N5-01285-02115103635ADDAA101000095GA1005+999999999GD10991+9999999GF100991999999999999999999MA1103355098755REMMET09701/06/14 15:53:02 METAR KFYV 062153Z 27007KT 10SM CLR M13/M21 A3052 RMK AO2 SLP363 T11281211 (MB)
0192723445939932014010622537+36010-094169FM-15+0384KFYV V0302805N003652200059N0160935N5-01335-02115103585ADDAA101000095GA1005+999999999GD10991+9999999GF100991999999999999999999MA1103325098715REMMET09701/06/14 16:53:02 METAR KFYV 062253Z 28007KT 10SM CLR M13/M21 A3051 RMK AO2 SLP358 T11331211 (MB)
0250723445939932014010623537+36010-094169FM-15+0384KFYV V0302705N001552200059N0160935N5-01445-02065103545ADDAA101000095GA1005+999999999GD10991+9999999GF100991999999999999999999KA1060M-01281KA2060N-01561MA1103255098655MD1890109+9999REMMET11501/06/14 17:53:02 METAR KFYV 062353Z 27003KT 10SM CLR M14/M21 A3049 RMK AO2 SLP354 T11441206 11128 21156 58010 (MB)
0187723445939932014010700537+36010-094169FM-15+0384KFYV V0302005N002152200059N0160935N5-01725-01895103615ADDAA101000095GA1005+999999999GD10991+9999999GF100991999999999999999999MA1103325098715REMMET09201/06/14 18:53:01 METAR KFYV 070053Z 20004KT 10SM CLR M17/M19 A3051 RMK AO2 SLP361 T11721189
0187723445939932014010701537+36010-094169FM-15+0384KFYV V0301905N002152200059N0160935N5-01785-01945103685ADDAA101000095GA1005+999999999GD10991+9999999GF100991999999999999999999MA1103395098785REMMET09201/06/14 19:53:01 METAR KFYV 070153Z 19004KT 10SM CLR M18/M19 A3053 RMK AO2 SLP368 T11781194
0207723445939932014010702537+36010-094169FM-15+0384KFYV V0309999C000052200059N0160935N5-01725-01895103675ADDAA101000095GA1005+999999999GD10991+9999999GF100991999999999999999999MA1103355098755MD1090109+9999REMMET09801/06/14 20:53:02 METAR KFYV 070253Z 00000KT 10SM CLR M17/M19 A3052 RMK AO2 SLP367 T11721189 50010
0187723445939932014010703537+36010-094169FM-15+0384KFYV V0309999C000052200059N0160935N5-01785-02005103665ADDAA101000095GA1005+999999999GD10991+9999999GF100991999999999999999999MA1103355098755REMMET09201/06/14 21:53:02 METAR KFYV 070353Z 00000KT 10SM CLR M18/M20 A3052 RMK AO2 SLP366 T11781200
0187723445939932014010704537+36010-094169FM-15+0384KFYV V0309999C000052200059N0160935N5-01895-02065103605ADDAA101000095GA1005+999999999GD10991+9999999GF100991999999999999999999MA1103285098685REMMET09201/06/14 22:53:02 METAR KFYV 070453Z 00000KT 10SM CLR M19/M21 A3050 RMK AO2 SLP360 T11891206
0281723445939932014010705537+36010-094169FM-15+0384KFYV V0301805N001552200059N0160935N5-01835-02005103535ADDAA101000095GA1005+999999999GD10991+9999999GF100991999999999999999999KA1060M-01441KA2060N-01941KA3240M-01281KA4240N-01941MA1103255098655MD1890129+9999REMMET12001/06/14 23:53:02 METAR KFYV 070553Z 18003KT 10SM CLR M18/M20 A3049 RMK AO2 SLP353 T11831200 11144 21194 411281194 58012
0968723445939932014010705596+36010-094169SOD  +0384KFYV V030999999999999999999999999999+99999+99999999999ADDAA124000095AJ100059599999999AN1024000095KA1240M-01275KA2240N-01935KG1024W-0161D4KG2024D-0200D4MF1098714103564MG1098734103394OE11240098329099995OE22240076033099995OE33240031399999995RH1024X100D4RH2024N050D4RH3024M065D4REMSOD73924 HR PRECIPITATION (IN): 0.00 SNOW DEPTH (IN):2     24 HR SNOWFALL (IN):0.0  24 HR MAX TEMP (F):  924 HR MIN TEMP (F): -3AVERAGE STATION PRESSURE:29.155 MINIMUM SEA LEVEL PRESSURE:30.53 TIME OF OCCURRENCE:0018 PEAK WIND SPEED (MPH): 22 PEAK WIND DIR (DEG):290 PEAK WIND TIME (LST):      FASTEST 2MIN SPEED (MPH): 17FASTEST 2MIN DIR (DEG):330 FASTEST 2MIN TIME (LST):     AVERAGE WIND SPEED (MPH): 7.0 24 HR AVG TEMP (F):  3DEPART FROM NORMAL:-32  HEATING DEGREE DAYS: 62 COOLING DEGREE DAYS:  0 LATEST DAY MAX TEMP (0700-1900 LST):9   LATEST NIGHT MIN TEMP(1900-0800 LST):-2 HOURLY INCREMENTAL PRECIPITATION VALUES (IN):.00 0.00 0.00 0.00 0.00 0.00 0.00 0.00 0.00 0.00 0.00 0.00 0.00 0.00 0.00 0.00 0.00 0.00 0.00 0.00 0.00 0.00 0.00 0.00
0187723445939932014010706537+36010-094169FM-15+0384KFYV V0301905N001552200059N0160935N5-01835-02065103435ADDAA101000095GA1005+999999999GD10991+9999999GF100991999999999999999999MA1103155098555REMMET09201/07/14 00:53:02 METAR KFYV 070653Z 19003KT 10SM CLR M18/M21 A3046 RMK AO2 SLP343 T11831206
0187723445939932014010707537+36010-094169FM-15+0384KFYV V0309999C000052200059N0160935N5-01835-02065103395ADDAA101000095GA1005+999999999GD10991+9999999GF100991999999999999999999MA1103125098525REMMET09201/07/14 01:53:02 METAR KFYV 070753Z 00000KT 10SM CLR M18/M21 A3045 RMK AO2 SLP339 T11831206
0207723445939932014010708537+36010-094169FM-15+0384KFYV V0301705N001552200059N0160935N5-01835-02005103385ADDAA101000095GA1005+999999999GD10991+9999999GF100991999999999999999999MA1103125098525MD1690149+9999REMMET09801/07/14 02:53:02 METAR KFYV 070853Z 17003KT 10SM CLR M18/M20 A3045 RMK AO2 SLP338 T11831200 56014
0187723445939932014010709537+36010-094169FM-15+0384KFYV V0309999C000052200059N0160935N5-01785-02005103325ADDAA101000095GA1005+999999999GD10991+9999999GF100991999999999999999999MA1103055098455REMMET09201/07/14 03:53:02 METAR KFYV 070953Z 00000KT 10SM CLR M18/M20 A3043 RMK AO2 SLP332 T11781200
0187723445939932014010710537+36010-094169FM-15+0384KFYV V0309999C000052200059N0160935N5-01835-02005103275ADDAA101000095GA1005+999999999GD10991+9999999GF100991999999999999999999MA1102985098395REMMET09201/07/14 04:53:02 METAR KFYV 071053Z 00000KT 10SM CLR M18/M20 A3041 RMK AO2 SLP327 T11831200
0250723445939932014010711537+36010-094169FM-15+0384KFYV V0302005N002152200059N0160935N5-01565-01785103185ADDAA101000095GA1005+999999999GD10991+9999999GF100991999999999999999999KA1060M-01561KA2060N-01891MA1102915098325MD1890189+9999REMMET11501/07/14 05:53:02 METAR KFYV 071153Z 20004KT 10SM CLR M16/M18 A3039 RMK AO2 SLP318 T11561178 11156 21189 58018 (TD)
0192723445939932014010712537+36010-094169FM-15+0384KFYV V0301905N005152200059N0160935N5-01065-01565103155ADDAA101000095GA1005+999999999GD10991+9999999GF100991999999999999999999MA1102885098295REMMET09701/07/14 06:53:02 METAR KFYV 071253Z 19010KT 10SM CLR M11/M16 A3038 RMK AO2 SLP315 T11061156 (TD)
0192723445939932014010713537+36010-094169FM-15+0384KFYV V0302005N005152200059N0160935N5-00945-01565103155ADDAA101000095GA1005+999999999GD10991+9999999GF100991999999999999999999MA1102915098325REMMET09701/07/14 07:53:02 METAR KFYV 071353Z 20010KT 10SM CLR M09/M16 A3039 RMK AO2 SLP315 T10941156 (TD)
0212723445939932014010714537+36010-094169FM-15+0384KFYV V0302005N005152200059N0160935N5-00725-01395103165ADDAA101000095GA1005+999999999GD10991+9999999GF100991999999999999999999MA1102915098325MD1390019+9999REMMET10301/07/14 08:53:02 METAR KFYV 071453Z 20010KT 10SM CLR M07/M14 A3039 RMK AO2 SLP316 T10721139 53001 (TD)
0192723445939932014010715537+36010-094169FM-15+0384KFYV V0301905N005752200059N0160935N5-00505-01335103145ADDAA101000095GA1005+999999999GD10991+9999999GF100991999999999999999999MA1102915098325REMMET09701/07/14 09:53:02 METAR KFYV 071553Z 19011KT 10SM CLR M05/M13 A3039 RMK AO2 SLP314 T10501133 (TD)
0192723445939932014010716537+36010-094169FM-15+0384KFYV V0302005N005752200059N0160935N5-00335-01115103105ADDAA101000095GA1005+999999999GD10991+9999999GF100991999999999999999999MA1102885098295REMMET09701/07/14 10:53:02 METAR KFYV 071653Z 20011KT 10SM CLR M03/M11 A3038 RMK AO2 SLP310 T10331111 (TD)
0250723445939932014010717537+36010-094169FM-15+0384KFYV V0301905N004152200059N0160935N5-00115-00945102905ADDAA101000095GA1005+999999999GD10991+9999999GF100991999999999999999999KA1060M-00111KA2060N-01501MA1102715098135MD1890229+9999REMMET11501/07/14 11:53:02 METAR KFYV 071753Z 19008KT 10SM CLR M01/M09 A3033 RMK AO2 SLP290 T10111094 11011 21150 58022 (MB)
0202723445939932014010718537+36010-094169FM-15+0384KFYV V0302105N006752200059N0160935N5+00065-00945102735ADDAA101000095GA1005+999999999GD10991+9999999GF100991999999999999999999MA1102545097965OC100935REMMET09901/07/14 12:53:02 METAR KFYV 071853Z 21013G18KT 10SM CLR 01/M09 A3028 RMK AO2 SLP273 T00061094 (TD)
0202723445939932014010719537+36010-094169FM-15+0384KFYV V0302005N009352200059N0160935N5+00175-00895102605ADDAA101000095GA1005+999999999GD10991+9999999GF100991999999999999999999MA1102405097835OC101185REMMET09901/07/14 13:53:02 METAR KFYV 071953Z 20018G23KT 10SM CLR 02/M09 A3024 RMK AO2 SLP260 T00171089 (MB)
0289723445939932014010720537+36010-094169FM-15+0384KFYV V0302005N007752200059N0160935N5+00175-00785102575ADDAA10100009PAA203000021GA1005+999999999GD10991+9999999GF100991999999999999999999MA1102405097835MD1690309+9999OC101085REMMET12601/07/14 14:53:02 METAR KFYV 072053Z 20015G21KT 10SM CLR 02/M08 A3024 RMK AO2 SNB20E29 SLP257 P0000 60000 T00171078 56030 (XX)EQDQ01  00002PRCP03Q02  00008PRCP03
0206723445939932014010721537+36010-094169FM-15+0384KFYV V0301905N005752200059N0160935N5+00225-00675102545ADDAA10100009PGA1005+999999999GD10991+9999999GF100991999999999999999999MA1102375097805REMMET11101/07/14 15:53:02 METAR KFYV 072153Z 19011KT 10SM CLR 02/M07 A3023 RMK AO2 SNB03E12 SLP254 P0000 T00221067 (XX)
0202723445939932014010722537+36010-094169FM-15+0384KFYV V0302005N006252200059N0160935N5+00225-00835102555ADDAA101000095GA1005+999999999GD10991+9999999GF100991999999999999999999MA1102375097805OC100885REMMET09901/07/14 16:53:02 METAR KFYV 072253Z 20012G17KT 10SM CLR 02/M08 A3023 RMK AO2 SLP255 T00221083 (XX)
0266723445939932014010723537+36010-094169FM-15+0384KFYV V0301905N004652200059N0160935N5+00005-00835102545ADDAA101000095AA206000021GA1005+999999999GD10991+9999999GF100991999999999999999999KA1060M+00221KA2060N-00111MA1102375097805MD1690039+9999REMMET12001/07/14 17:53:02 METAR KFYV 072353Z 19009KT 10SM CLR 00/M08 A3023 RMK AO2 SLP254 60000 T00001083 10022 21011 56003 (XX)
0187723445939932014010800537+36010-094169FM-15+0384KFYV V0302005N004152200059N0160935N5-00065-00895102505ADDAA101000095GA1005+999999999GD10991+9999999GF100991999999999999999999MA1102345097775REMMET09201/07/14 18:53:01 METAR KFYV 080053Z 20008KT 10SM CLR M01/M09 A3022 RMK AO2 SLP250 T10061089
0186723445939932014010801537+36010-094169FM-15+0384KFYV V0301905N004152200059N0160935N5+00065-00895102485ADDAA101000095GA1005+999999999GD10991+9999999GF100991999999999999999999MA1102345097775REMMET09101/07/14 19:53:01 METAR KFYV 080153Z 19008KT 10SM CLR 01/M09 A3022 RMK AO2 SLP248 T00061089
0206723445939932014010802537+36010-094169FM-15+0384KFYV V0302005N003152200059N0160935N5+00005-00945102525ADDAA101000095GA1005+999999999GD10991+9999999GF100991999999999999999999MA1102405097835MD1390039+9999REMMET09701/07/14 20:53:01 METAR KFYV 080253Z 20006KT 10SM CLR 00/M09 A3024 RMK AO2 SLP252 T00001094 53003
0187723445939932014010803537+36010-094169FM-15+0384KFYV V0301905N003152200059N0160935N5-00065-00945102545ADDAA101000095GA1005+999999999GD10991+9999999GF100991999999999999999999MA1102445097875REMMET09201/07/14 21:53:02 METAR KFYV 080353Z 19006KT 10SM CLR M01/M09 A3025 RMK AO2 SLP254 T10061094
0187723445939932014010804537+36010-094169FM-15+0384KFYV V0302005N004152200059N0160935N5-00065-00945102565ADDAA101000095GA1005+999999999GD10991+9999999GF100991999999999999999999MA1102445097875REMMET09201/07/14 22:53:02 METAR KFYV 080453Z 20008KT 10SM CLR M01/M09 A3025 RMK AO2 SLP256 T10061094
0292723445939932014010805537+36010-094169FM-15+0384KFYV V0302005N005752200059N0160935N5-00065-01005102545ADDAA101000095GA1005+999999999GD10991+9999999GF100991999999999999999999KA1060M+00061KA2060N-00171KA3240M+00221KA4240N-01891MA1102445097875MD1190069+9999OC100825REMMET12301/07/14 23:53:02 METAR KFYV 080553Z 20011G16KT 10SM CLR M01/M10 A3025 RMK AO2 SLP254 T10061100 10006 21017 400221189 51006
1003723445939932014010805596+36010-094169SOD  +0384KFYV V030999999999999999999999999999+99999+99999999999ADDAA12400009AAJ100039599999999AN102400009AKA1240M+00225KA2240N-01885KG1024W-0078D4KG2024D-0128D4MF1098044102884MG1098024102474OE11240116220099995OE22240093920099995OE33240041699999995RH1024X087D4RH2024N046D4RH3024M060D4REMSOD73924 HR PRECIPITATION (IN): 0.00 SNOW DEPTH (IN):1     24 HR SNOWFALL (IN):0.0  24 HR MAX TEMP (F): 3624 HR MIN TEMP (F): -2AVERAGE STATION PRESSURE:28.945 MINIMUM SEA LEVEL PRESSURE:30.26 TIME OF OCCURRENCE:2010 PEAK WIND SPEED (MPH): 26 PEAK WIND DIR (DEG):200 PEAK WIND TIME (LST):      FASTEST 2MIN SPEED (MPH): 21FASTEST 2MIN DIR (DEG):200 FASTEST 2MIN TIME (LST):     AVERAGE WIND SPEED (MPH): 9.3 24 HR AVG TEMP (F): 17DEPART FROM NORMAL:-18  HEATING DEGREE DAYS: 48 COOLING DEGREE DAYS:  0 LATEST DAY MAX TEMP (0700-1900 LST):36  LATEST NIGHT MIN TEMP(1900-0800 LST):-3 HOURLY INCREMENTAL PRECIPITATION VALUES (IN):.00 0.00 0.00 0.00 0.00 0.00 0.00 0.00 0.00 0.00 0.00 0.00 0.00 0.00 T    T    0.00 0.00 0.00 0.00 0.00 0.00 0.00 0.00EQDR01  0.007AAP092R02   0.07ALS030
0187723445939932014010806537+36010-094169FM-15+0384KFYV V0309999C000052200059N0160935N5-00175-01065102495ADDAA101000095GA1005+999999999GD10991+9999999GF100991999999999999999999MA1102405097835REMMET09201/08/14 00:53:02 METAR KFYV 080653Z 00000KT 10SM CLR M02/M11 A3024 RMK AO2 SLP249 T10171106
0187723445939932014010807537+36010-094169FM-15+0384KFYV V0302105N005152200059N0160935N5-00115-01065102575ADDAA101000095GA1005+999999999GD10991+9999999GF100991999999999999999999MA1102475097905REMMET09201/08/14 01:53:02 METAR KFYV 080753Z 21010KT 10SM CLR M01/M11 A3026 RMK AO2 SLP257 T10111106
0207723445939932014010808537+36010-094169FM-15+0384KFYV V0309999C000052200059N0160935N5-00225-01065102565ADDAA101000095GA1005+999999999GD10991+9999999GF100991999999999999999999MA1102475097905MD1390029+9999REMMET09801/08/14 02:53:02 METAR KFYV 080853Z 00000KT 10SM CLR M02/M11 A3026 RMK AO2 SLP256 T10221106 53002
0187723445939932014010809537+36010-094169FM-15+0384KFYV V0301905N002652200059N0160935N5-00175-01005102485ADDAA101000095GA1005+999999999GD10991+9999999GF100991999999999999999999MA1102405097835REMMET09201/08/14 03:53:02 METAR KFYV 080953Z 19005KT 10SM CLR M02/M10 A3024 RMK AO2 SLP248 T10171100
0187723445939932014010810537+36010-094169FM-15+0384KFYV V0309999C000052200059N0160935N5-00115-01065102525ADDAA101000095GA1005+999999999GD10991+9999999GF100991999999999999999999MA1102445097875REMMET09201/08/14 04:53:02 METAR KFYV 081053Z 00000KT 10SM CLR M01/M11 A3025 RMK AO2 SLP252 T10111106
0250723445939932014010811537+36010-094169FM-15+0384KFYV V0309999C000052200059N0160935N5-00225-01005102525ADDAA101000095GA1005+999999999GD10991+9999999GF100991999999999999999999KA1060M+00001KA2060N-00281MA1102405097835MD1690049+9999REMMET11501/08/14 05:53:02 METAR KFYV 081153Z 00000KT 10SM CLR M02/M10 A3024 RMK AO2 SLP252 T10221100 10000 21028 56004 (MB)
0192723445939932014010812537+36010-094169FM-15+0384KFYV V0309999C000052200059N0160935N5-00175-01115102545ADDAA101000095GA1005+999999999GD10991+9999999GF100991999999999999999999MA1102445097875REMMET09701/08/14 06:53:02 METAR KFYV 081253Z 00000KT 10SM CLR M02/M11 A3025 RMK AO2 SLP254 T10171111 (MB)
0195723445939932014010813537+36010-094169FM-15+0384KFYV V0309999C000052200059N0160935N5-00115-01005102555ADDAA101000095GA1045+030485991GD12991+0304859GF104991990990030481991991MA1102475097905REMMET10001/08/14 07:53:02 METAR KFYV 081353Z 00000KT 10SM SCT100 M01/M10 A3026 RMK AO2 SLP255 T10111100 (MB)
0252723445939932014010814537+36010-094169FM-15+0384KFYV V0309999C00005009455MN0160935N5+00005-00835102645ADDAA101000095GA1075+009455991GA2085+013725991GD13991+0094559GD24991+0137259GF199999990990009451991991MA1102545097965MD1390129+9999REMMET11201/08/14 08:53:02 METAR KFYV 081453Z 00000KT 10SM BKN031 OVC045 00/M08 A3028 RMK AO2 SLP264 T00001083 53012 (MB)
0204723445939932014010815067+36010-094169FM-16+0384KFYV V0309999C00005008235MN0160935N5+00105-00905999999ADDGA1075+008235991GA2085+010065991GD13991+0082359GD24991+0100659GF199999990990008231991991MA1102545097965REMMET08901/08/14 09:06:02 SPECI KFYV 081506Z 00000KT 10SM BKN027 OVC033 01/M09 A3028 RMK AO2 (MB)
0194723445939932014010815537+36010-094169FM-15+0384KFYV V0309999C00005005795MN0160935N5+00115-00675102715ADDAA101000095GA1085+005795991GD14991+0057959GF199999990990005791991991MA1102615098035REMMET09901/08/14 09:53:02 METAR KFYV 081553Z 00000KT 10SM OVC019 01/M07 A3030 RMK AO2 SLP271 T00111067 (XX)
0219723445939932014010816537+36010-094169FM-15+0384KFYV V0301905N00265006405MN0080475N5+00005-00285102695ADDAA101000095AU100007015AW1051GA1085+006405991GD14991+0064059GF199999990990006401991991MA1102615098035MW1055REMMET10101/08/14 10:53:02 METAR KFYV 081653Z 19005KT 5SM HZ OVC021 00/M03 A3030 RMK AO2 SLP269 T00001028 (XX)
0190723445939932014010817327+36010-094169FM-16+0384KFYV V0309999C00005007015MN0040235N5-00105-00205999999ADDAU100001015AW1105GA1085+007015991GD14991+0070159GF199999990990007011991991MA1102545097965REMMET08901/08/14 11:32:02 SPECI KFYV 081732Z 00000KT 2 1/2SM BR OVC023 M01/M02 A3028 RMK AO2 (MB)
0311723445939932014010817477+36010-094169FM-16+0384KFYV V0309999C00005004275MN0032195N5-00105-00105999999ADDAA101000021AU120090015AU200001015AW1105AW2401AW3415GA1025+001835991GA2075+004275991GA3085+007015991GD11991+0018359GD23991+0042759GD34991+0070159GF199999990990001831991991MA1102515097935REMMET11401/08/14 11:47:02 SPECI KFYV 081747Z 00000KT 2SM UP BR FEW006 BKN014 OVC023 M01/M01 A3027 RMK AO2 UPB37 P0000 (MB)
0398723445939932014010817537+36010-094169FM-15+0384KFYV V0309999C00005004275MN0032195N5+00005-00115102595ADDAA101000025AA206000021AU100001015AW1105GA1045+002745991GA2075+004275991GA3085+007015991GD12991+0027459GD23991+0042759GD34991+0070159GF199999990990002741991991KA1060M+00111KA2060N-00391MA1102515097935MD1890049+9999REMMET15401/08/14 11:53:02 METAR KFYV 081753Z 00000KT 2SM BR SCT009 BKN014 OVC023 00/M01 A3027 RMK AO2 UPB37E53 SLP259 P0000 60000 T00001011 10011 21039 58004 (MB)EQDQ01  00008PRCP06
0265723445939932014010817587+36010-094169FM-16+0384KFYV V0309999C00005002135MN0028165N5+00005-00105999999ADDAU100001015AW1105GA1075+002135991GA2075+004275991GA3085+007015991GD13991+0021359GD23991+0042759GD34991+0070159GF199999990990002131991991MA1102475097905REMMET10201/08/14 11:58:02 SPECI KFYV 081758Z 00000KT 1 3/4SM BR BKN007 BKN014 OVC023 00/M01 A3026 RMK AO2 (MB)
0267723445939932014010818537+36010-094169FM-15+0384KFYV V0300705N00155001525MN0024145N5+00005-00065102485ADDAA101000595AU120090015AU200001015AW1105AW2401AW3415GA1085+001525991GD14991+0015251GF199999990990001521991991MA1102375097805REMMET13201/08/14 12:53:02 METAR KFYV 081853Z 07003KT 1 1/2SM UP BR OVC005 00/M01 A3023 RMK AO2 UPB04 CIG 004V009 SLP248 P0002 T00001006 (SN)
0274723445939932014010819537+36010-094169FM-15+0384KFYV V0309999C00005001525MN0028165N5+00065+00005102455ADDAA101000595AU100001015AW1105GA1075+001525991GA2085+003055991GD13991+0015259GD24991+0030559GF199999990990001521991991MA1102375097805REMMET13101/08/14 13:53:02 METAR KFYV 081953Z 00000KT 1 3/4SM BR BKN005 OVC010 01/00 A3023 RMK AO2 UPE27RAB27E44 SLP245 P0002 T00060000 (SN)
0327723445939932014010820537+36010-094169FM-15+0384KFYV V0301405N00265001525MN0028165N5+00065+00005102455ADDAA101000395AA203001391AU100001015AW1105GA1075+001525991GA2085+003055991GD13991+0015259GD24991+0030559GF199999990990001521991991MA1102375097805MD1690139+9999REMMET14001/08/14 14:53:02 METAR KFYV 082053Z 14005KT 1 3/4SM BR BKN005 OVC010 01/00 A3023 RMK AO2 UPB1954E47 SLP245 P0001 60005 T00060000 56013 (SN)EQDQ01  00128PRCP03
0248723445939932014010821516+36010-094169FM-16+0384KFYV V0301405N00215003965MN0028165N5+00105+00005999999ADDAU110020015AU200001015AW1105AW2615GA1075+003965999GA2085+006715999GD13991+0039659GD24991+0067159MA1102375097805REMMET12501/08/14 15:51:02 SPECI KFYV 082151Z 14004KT 1 3/4SM -RA BR BKN013 OVC022 01/00 A3023 RMK AO2 UPB2055E10RAB10 P0002 FIBI (SN)
0267723445939932014010821536+36010-094169FM-15+0384KFYV V0301405N00215001525MN0032195N5+00065+00005102445ADDAA101000895AU110020015AU200001015AW1105AW2615GA1075+001525999GA2085+003965999GD13991+0015259GD24991+0039659MA1102345097775REMMET13301/08/14 15:53:02 METAR KFYV 082153Z 14004KT 2SM -RA BR BKN005 OVC013 01/00 A3022 RMK AO2 UPB2055E10RAB10 SLP244 P0002 T00060000 (SN)
0277723445939932014010822537+36010-094169FM-15+0384KFYV V0309999C00005001525MN0032195N5+00065+00065102435ADDAA101001395AU110020015AU200001015AW1105AW2615GA1075+001525991GA2085+005495991GD13991+0015259GD24991+0054959GF199999990990001521991991MA1102345097775REMMET11701/08/14 16:53:02 METAR KFYV 082253Z 00000KT 2SM -RA BR BKN005 OVC018 01/01 A3022 RMK AO2 SLP243 P0005 T00060006 (SN)
0332723445939932014010823537+36010-094169FM-15+0384KFYV V0309999C00005001835MN0048285N5+00005+00005102485ADDAA101001395AA206004691AU120020015AU200001015AW1105AW2625GA1085+001835991GD14991+0018359GF199999990990001831991991KA1060M+00061KA2060N+00001MA1102375097805MD1390019+9999REMMET13301/08/14 17:53:02 METAR KFYV 082353Z 00000KT 3SM RA BR OVC006 00/00 A3023 RMK AO2 SLP248 P0006 60018 T00000000 10006 20000 53001 (SN)EQDQ01  00458PRCP06
0298723445939932014010900537+36010-094169FM-15+0384KFYV V0309999C00005001835MN0048285N5+00005+00005102525ADDAA101001095AU120090015AU200001015AW1105AW2401AW3415GA1075+001835991GA2085+004275991GD13991+0018359GD24991+0042759GF199999990990001831991991MA1102445097875REMMET13201/08/14 18:53:01 METAR KFYV 090053Z 00000KT 3SM UP BR BKN006 OVC014 00/00 A3025 RMK AO2 RAE2354B11E23UPB2354 SLP252 P0004 T00000000
0265723445939932014010901537+36010-094169FM-15+0384KFYV V0300605N00265004275MN0080475N5+00065+00005102585ADDAA101000395AU100001015AW1105GA1045+001835991GA2085+004275991GD12991+0018359GD24991+0042759GF199999990990001831991991MA1102475097905REMMET12201/08/14 19:53:01 METAR KFYV 090153Z 06005KT 5SM BR SCT006 OVC014 01/00 A3026 RMK AO2 UPE25RAB25E48 SLP258 P0001 T00060000
0246723445939932014010902537+36010-094169FM-15+0384KFYV V0301405N00215003665MN0096565N5+00065+00005102585ADDAA101000095AA203001391AU100001015AW1105GA1085+003665991GD14991+0036659GF199999990990003661991991MA1102515097935MD1190129+9990REMMET10901/08/14 20:53:01 METAR KFYV 090253Z 14004KT 6SM BR OVC012 01/00 A3027 RMK AO2 SLP258 60005 T00060000 51012 $
0227723445939932014010903537+36010-094169FM-15+0384KFYV V0301505N00365004275MN0160935N5+00065-00065102565ADDAA101000095GA1075+004275991GA2085+007625991GD13991+0042759GD24991+0076259GF199999990990004271991991MA1102475097905REMMET10101/08/14 21:53:02 METAR KFYV 090353Z 15007KT 10SM BKN014 OVC025 01/M01 A3026 RMK AO2 SLP256 T00061006
0189723445939932014010904537+36010-094169FM-15+0384KFYV V0301705N00215003665MN0160935N5+00005-00065102585ADDAA101000095GA1085+003665991GD14991+0036659GF199999990990003661991991MA1102475097905REMMET09401/08/14 22:53:02 METAR KFYV 090453Z 17004KT 10SM OVC012 00/M01 A3026 RMK AO2 SLP258 T00001006
0300723445939932014010905537+36010-094169FM-15+0384KFYV V0301605N00155003665MN0160935N5+00005-00115102545ADDAA101000095AA206001391GA1085+003665991GD14991+0036659GF199999990990003661991991KA1060M+00061KA2060N+00001KA3240M+00111KA4240N-00391MA1102445097875MD1890059+9999REMMET12801/08/14 23:53:02 METAR KFYV 090553Z 16003KT 10SM OVC012 00/M01 A3025 RMK AO2 SLP254 60005 T00001011 10006 20000 400111039 58005
1034723445939932014010905596+36010-094169SOD  +0384KFYV V030999999999999999999999999999+99999+99999999999ADDAA124005895AJ100009599999999AN1024000095AT1AU16RA  5AT2AU13BR  5AT3AU19UP  5AT4AU08HZ  5KA1240M+00115KA2240N-00385KG1024W-0022D4KG2024D-0050D4MF1097874102574MG1097854102444OE11240089404099995OE22240067119099995OE33240011699999995RH1024X100D4RH2024N049D4RH3024M078D4REMSOD75724 HR PRECIPITATION (IN): 0.23 SNOW DEPTH (IN):0     24 HR SNOWFALL (IN):0.0  WEATHER(CODE):18  24 HR MAX TEMP (F): 3424 HR MIN TEMP (F): 25AVERAGE STATION PRESSURE:28.895 MINIMUM SEA LEVEL PRESSURE:30.25 TIME OF OCCURRENCE:1739 PEAK WIND SPEED (MPH): 20 PEAK WIND DIR (DEG): 40 PEAK WIND TIME (LST):      FASTEST 2MIN SPEED (MPH): 15FASTEST 2MIN DIR (DEG):190 FASTEST 2MIN TIME (LST):     AVERAGE WIND SPEED (MPH): 2.6 24 HR AVG TEMP (F): 30DEPART FROM NORMAL: -5  HEATING DEGREE DAYS: 35 COOLING DEGREE DAYS:  0 LATEST DAY MAX TEMP (0700-1900 LST):34  LATEST NIGHT MIN TEMP(1900-0800 LST):25 HOURLY INCREMENTAL PRECIPITATION VALUES (IN):.00 0.00 0.00 0.00 0.00 0.00 0.00 0.00 0.00 0.00 0.00 T    0.02 0.02 0.01 0.03 0.05 0.05 0.04 0.01 0.00 0.00 0.00 0.00
0199723445939932014010906307+36010-094169FM-16+0384KFYV V0301505N00265007015MN0160935N5+00005-00105999999ADDGA1045+003665991GA2085+007015991GD12991+0036659GD24991+0070159GF199999990990003661991991MA1102445097875REMMET08401/09/14 00:30:02 SPECI KFYV 090630Z 15005KT 10SM SCT012 OVC023 00/M01 A3025 RMK AO2
0227723445939932014010906537+36010-094169FM-15+0384KFYV V0301505N00315006405MN0160935N5+00005-00175102495ADDAA101000095GA1045+004275991GA2085+006405991GD12991+0042759GD24991+0064059GF199999990990004271991991MA1102405097835REMMET10101/09/14 00:53:02 METAR KFYV 090653Z 15006KT 10SM SCT014 OVC021 00/M02 A3024 RMK AO2 SLP249 T00001017
0199723445939932014010907047+36010-094169FM-16+0384KFYV V0301505N00265004275MN0160935N5+00005-00205999999ADDGA1075+004275991GA2085+006405991GD13991+0042759GD24991+0064059GF199999990990004271991991MA1102405097835REMMET08401/09/14 01:04:02 SPECI KFYV 090704Z 15005KT 10SM BKN014 OVC021 00/M02 A3024 RMK AO2
0189723445939932014010907537+36010-094169FM-15+0384KFYV V0309999C00005003665MN0144845N5-00065-00115102525ADDAA101000095GA1085+003665991GD14991+0036659GF199999990990003661991991MA1102445097875REMMET09401/09/14 01:53:02 METAR KFYV 090753Z 00000KT 9SM OVC012 M01/M01 A3025 RMK AO2 SLP252 T10061011
0210723445939932014010908537+36010-094169FM-15+0384KFYV V0309999C00005003665MN0160935N5-00065-00115102515ADDAA101000095GA1085+003665991GD14991+0036659GF199999990990003661991991MA1102405097835MD1690039+9999REMMET10101/09/14 02:53:02 METAR KFYV 090853Z 00000KT 10SM OVC012 M01/M01 A3024 RMK AO2 SLP251 T10061011 56003
0189723445939932014010909537+36010-094169FM-15+0384KFYV V0301305N00215003055MN0160935N5+00005-00175102465ADDAA101000095GA1085+003055991GD14991+0030559GF199999990990003051991991MA1102375097805REMMET09401/09/14 03:53:02 METAR KFYV 090953Z 13004KT 10SM OVC010 00/M02 A3023 RMK AO2 SLP246 T00001017
0189723445939932014010910537+36010-094169FM-15+0384KFYV V0300905N00155003055MN0160935N5+00005-00115102395ADDAA101000095GA1085+003055991GD14991+0030559GF199999990990003051991991MA1102305097745REMMET09401/09/14 04:53:02 METAR KFYV 091053Z 09003KT 10SM OVC010 00/M01 A3021 RMK AO2 SLP239 T00001011
0301723445939932014010911537+36010-094169FM-15+0384KFYV V0300805N00155003355MN0128755N5+00005-00115102395ADDAA101000095AA224005891GA1075+003355991GA2085+004885991GD13991+0033559GD24991+0048859GF199999990990003351991991KA1060M+00001KA2060N-00061MA1102305097745MD1690129+9999REMMET12401/09/14 05:53:02 METAR KFYV 091153Z 08003KT 8SM BKN011 OVC016 00/M01 A3021 RMK AO2 SLP239 70023 T00001011 10000 21006 56012
0190723445939932014010912467+36010-094169FM-16+0384KFYV V0309999C00005003965MN0040235N5-00105-00105999999ADDAU100001015AW1105GA1085+003965991GD14991+0039659GF199999990990003961991991MA1102275097705REMMET08901/09/14 06:46:02 SPECI KFYV 091246Z 00000KT 2 1/2SM BR OVC013 M01/M01 A3020 RMK AO2 (MB)
0218723445939932014010912537+36010-094169FM-15+0384KFYV V0309999C00005003965MN0040235N5-00065-00065102415ADDAA101000095AU100001015AW1105GA1085+003965991GD14991+0039659GF199999990990003961991991MA1102305097745REMMET10601/09/14 06:53:02 METAR KFYV 091253Z 00000KT 2 1/2SM BR OVC013 M01/M01 A3021 RMK AO2 SLP241 T10061006 (MB)
0228723445939932014010912557+36010-094169FM-16+0384KFYV V0309999C00005004575MN0040235N5-00105-00105999999ADDAU100001015AW1105GA1045+002745991GA2085+004575991GD12991+0027459GD24991+0045759GF199999990990002741991991MA1102305097745REMMET09601/09/14 06:55:02 SPECI KFYV 091255Z 00000KT 2 1/2SM BR SCT009 OVC015 M01/M01 A3021 RMK AO2 (MB)
0236723445939932014010913017+36010-094169FM-16+0384KFYV V0309999C00005002745MN0048285N5-00105-00105999999ADDAU100001015AW1105GA1075+002745991GA2085+004575991GD13991+0027451GD24991+0045759GF199999990990002741991991MA1102345097775REMMET10401/09/14 07:01:02 SPECI KFYV 091301Z 00000KT 3SM BR BKN009 OVC015 M01/M01 A3022 RMK AO2 CIG 007V011 (MB)
0236723445939932014010913147+36010-094169FM-16+0384KFYV V0309999C00005003055MN0048285N5-00105-00105999999ADDAU100001015AW1105GA1075+003055991GA2085+004885991GD13991+0030551GD24991+0048859GF199999990990003051991991MA1102345097775REMMET10401/09/14 07:14:02 SPECI KFYV 091314Z 00000KT 3SM BR BKN010 OVC016 M01/M01 A3022 RMK AO2 CIG 007V013 (MB)
0218723445939932014010913516+36010-094169FM-16+0384KFYV V0309999C00005005495MN0048285N5-00105-00105999999ADDAU100001015AW1105GA1045+003665999GA2085+005495999GD12991+0036659GD24991+0054959MA1102345097775REMMET11201/09/14 07:51:02 SPECI KFYV 091351Z 00000KT 3SM BR SCT012 OVC018 M01/M01 A3022 RMK AO2 UPB39E46 P0000 FIBI (MB)
0267723445939932014010913537+36010-094169FM-15+0384KFYV V0309999C00005005495MN0048285N5-00065-00065102445ADDAA10100009PAU100001015AW1105GA1045+003665991GA2085+005495991GD12991+0036659GD24991+0054959GF199999990990003661991991MA1102345097775REMMET12401/09/14 07:53:02 METAR KFYV 091353Z 00000KT 3SM BR SCT012 OVC018 M01/M01 A3022 RMK AO2 UPB39E46 SLP244 P0000 T10061006 (MB)
0267723445939932014010914537+36010-094169FM-15+0384KFYV V0309999C00005006105MN0112655N5+00005+00005102465ADDAA101000095AA203000021GA1075+006105991GA2085+008845991GD13991+0061059GD24991+0088459GF199999990990006101991991MA1102375097805MD1190069+9999REMMET11601/09/14 08:53:02 METAR KFYV 091453Z 00000KT 7SM BKN020 OVC029 00/00 A3023 RMK AO2 SLP246 60000 T00000000 51006 (MB)
0232723445939932014010915537+36010-094169FM-15+0384KFYV V0309999C00005008235MN0160935N5+00065-00065102485ADDAA101000095GA1045+003665991GA2085+008235991GD12991+0036659GD24991+0082359GF199999990990003661991991MA1102405097835REMMET10601/09/14 09:53:02 METAR KFYV 091553Z 00000KT 10SM SCT012 OVC027 01/M01 A3024 RMK AO2 SLP248 T00061006 (MB)
0204723445939932014010916027+36010-094169FM-16+0384KFYV V0309999C00005003665MN0160935N5+00105-00105999999ADDGA1075+003665991GA2085+008235991GD13991+0036659GD24991+0082359GF199999990990003661991991MA1102405097835REMMET08901/09/14 10:02:02 SPECI KFYV 091602Z 00000KT 10SM BKN012 OVC027 01/M01 A3024 RMK AO2 (MB)
0231723445939932014010916537+36010-094169FM-15+0384KFYV V0302005N00265005185MN0160935N5+00175+00005102445ADDAA101000095GA1045+003055991GA2085+005185991GD12991+0030559GD24991+0051859GF199999990990003051991991MA1102375097805REMMET10501/09/14 10:53:02 METAR KFYV 091653Z 20005KT 10SM SCT010 OVC017 02/00 A3023 RMK AO2 SLP244 T00170000 (MB)
0203723445939932014010917207+36010-094169FM-16+0384KFYV V0301905N00155003055MN0160935N5+00205+00105999999ADDGA1075+003055991GA2085+005185991GD13991+0030559GD24991+0051859GF199999990990003051991991MA1102345097775REMMET08801/09/14 11:20:02 SPECI KFYV 091720Z 19003KT 10SM BKN010 OVC017 02/01 A3022 RMK AO2 (MB)
0268723445939932014010917537+36010-094169FM-15+0384KFYV V0302105N00265003055MN0160935N5+00225+00065102335ADDAA101000095AA206000021GA1085+003055991GD14991+0030559GF199999990990003051991991KA1060M+00221KA2060N-00061MA1102275097705MD1890139+9999REMMET12201/09/14 11:53:02 METAR KFYV 091753Z 21005KT 10SM OVC010 02/01 A3020 RMK AO2 SLP233 60000 T00220006 10022 21006 58013 (MB)
0193723445939932014010918537+36010-094169FM-15+0384KFYV V0301905N00265003055MN0160935N5+00225+00115102205ADDAA101000095GA1085+003055991GD14991+0030559GF199999990990003051991991MA1102135097575REMMET09801/09/14 12:53:02 METAR KFYV 091853Z 19005KT 10SM OVC010 02/01 A3016 RMK AO2 SLP220 T00220011 (MB)
0203723445939932014010919377+36010-094169FM-16+0384KFYV V0301905N00315004885MN0160935N5+00205+00105999999ADDGA1045+003055991GA2085+004885991GD12991+0030559GD24991+0048859GF199999990990003051991991MA1102035097475REMMET08801/09/14 13:37:02 SPECI KFYV 091937Z 19006KT 10SM SCT010 OVC016 02/01 A3013 RMK AO2 (MB)
