0121013590999992022010200004+60530+008195FM-12+077299999V0200741N0017199999999999999999-00171-00281100381ADDAA101999999AJ100003100003099KA1010M-00161KA2010N-00231MA1999999091201MD1610271+9999OC100521OD190600301999REMSYN004BUFR
0224013590999992022010406004+60530+008195FM-12+077299999V0202221N0041122000199075000199-00371-00761097881ADDAA101999999AA224000531AJ100003100000099AY101061AY201061GA1011+010001081GE19AGL   +99999+99999GF101991011999010001999999IA1279KA1120M-00311KA2120N-00661MA1999999088861MD1810201+9999MW1021OC100621OD190600411999REMSYN004BUFR
0245013590999992022010912004+60530+008195FM-12+077299999V0200521N0031199999999025000199-00601-00751100541ADDAA101999999AJ100003100000099AY171061AY221061GA1021+001001071GA2999+999999051GA3999+999999101GE19AGL   +99999+99999GF108991021999001001999999IA1239KA1010M-00601KA2010N-00621MA1999999091201MD1210201+9999MW1221OC100581OD190600341999REMSYN004BUFR
0104013590999992022010917004+60530+008195FM-12+077299999V0200461N0037199999999999999999-00571-00681100991ADDAA101000231KA1010M-00571KA2010N-00571MA1999999091621MD1210281+9999OC100681OD190100411999REMSYN004BUFR
0203013590999992022010918004+60530+008195FM-12+077299999V0200431N00391002001C9013000199-00571-00671101121ADDAA101999999AJ100003100001099AY171061AY221061GA1081+002001051GA2999+999999101GE19AGL   +99999+99999GF108991081999002001999999IA1239MA1999999091731MD1310311+9999MW1711OC100801OD190600441999REMSYN004BUFR
0104013590999992022010919004+60530+008195FM-12+077299999V0200421N0029199999999999999999-00551-00681101251ADDAA101999999KA1010M-00561KA2010N-00561MA1999999091861MD1210341+9999OC100811OD190100421999REMSYN004BUFR
0118013590999992022011603004+60530+008195FM-12+077299999V0202311N0029199999999999999999+00011-00331100591ADDAA101999999KA1010M+00031KA2010N-00011MA1999999091451MD1510341+9999OC101011OD140101011199OD299900731999REMSYN004BUFR
0104013590999992022011609004+60530+008195FM-12+077299999V0202471N0066199999999999999999+00121-00341099951ADDAA101999999KA1010M+00121KA2010N+00031MA1999999090911MD1510131+9999OC101531OD190100901999REMSYN004BUFR
0104013590999992022011809004+60530+008195FM-12+077299999V0202221N0061199999999999999999+00201-00241102541ADDAA101999999KA1010M+00211KA2010N+00181MA1999999093291MD1510011+9999OC101121OD190100721999REMSYN004BUFR
0118013590999992022012009004+60530+008195FM-12+077299999V0202611N0027199999999999999999-00721-01351101581ADDAA101999999KA1010M-00711KA2010N-00741MA1999999092101MD1110281+9999OC100661OD140100661296OD299900471999REMSYN004BUFR
0104013590999992022012415004+60530+008195FM-12+077299999V0202691N0059199999999999999999+00211-00331101771ADDAA101999999KA1010M+00381KA2010N+00211MA1999999092591MD1310101+9999OC101561OD190100801999REMSYN004BUFR
0110013590999992022020109004+60530+008195FM-12+077299999V0201251N0007199999999999999999-00741-00881099381ADDAA101000731KA1010M-00731KA2010N-00741MA1999999090101MD1610511+9999OD140100251183OD299900121999REMSYN004BUFR
0104013590999992022021303004+60530+008195FM-12+077299999V0202201N0055199999999999999999+00051-00321099421ADDAA101999999KA1010M+00121KA2010N+00041MA1999999090401MD1610211+9999OC101161OD190100621999REMSYN004BUFR
0104013590999992022021509004+60530+008195FM-12+077299999V0202781N0018199999999999999999-00421-00741098981ADDAA101999999KA1010M-00431KA2010N-00581MA1999999089841MD1210011+9999OC100541OD190100311999REMSYN004BUFR
0118013590999992022021717004+60530+008195FM-12+077299999V0202131N0013199999999999999999-00351-00771098111ADDAA101999999KA1010M-00261KA2010N-00351MA1999999089081MD1110101+9999OC100931OD140100931193OD299900471999REMSYN004BUFR
0213013590999992022021806004+60530+008195FM-12+077299999V0202511N0048122000199045000199-00291-00751098721ADDAA101999999AJ100003100000099AY181061AY231061GA1031+006001091GE19AGL   +99999+99999GF103991031999006001999999IA1289KA1120M-00171KA2120N-00521MA1999999089651MD1310131+9999MW1851OC101131OD190600651999REMSYN004BUFR
0240013590999992022022006004+60530+008195FM-12+077299999V0202871N0020122000199075000199-00741-01141099421ADDAA101999999AA224340092AJ199999999999999AY101061AY201061GA1011+015001081GA2999+999999031GE19AGL   +99999+99999GF102991011999015001999999IA1289KA1120M-00461KA2120N-01141MA1999999090141MD1810141+9999MW1021OC101161OD190600681999REMSYN004BUFR
0104013590999992022022009004+60530+008195FM-12+077299999V0202651N0013199999999999999999-00801-01201099341ADDAA101999999KA1010M-00771KA2010N-00881MA1999999090041MD1810091+9999OC100551OD190100391999REMSYN004BUFR
0096013590999992022022821004+60530+008195FM-12+077299999V0200841N0016199999999999999999-00221-00511102321ADDAA101000131KA1010M-00161KA2010N-00221MA1999999092951MD1810161+9999OD190100361999REMSYN004BUFR
0245013590999992022030618004+60530+008195FM-12+077299999V0202611N0029199999999055000199+00001-00631102741ADDAA101999999AJ100379100370099AY121061AY221061GA1011+010001081GA2999+999999031GA3999+999999021GE19AGL   +99999+99999GF108991011999010001999999IA1289KA1120M+00221KA2120N-00331MA1999999093401MD1310091+9999MW1021OC101281OD190600871999REMSYN004BUFR
0118013590999992022030715004+60530+008195FM-12+077299999V0202331N0044199999999999999999+00071-01031102441ADDAA101999999KA1010M+00171KA2010N+00071MA1999999093151MD1610081+9999OC100861OD140100861142OD299900441999REMSYN004BUFR
0110013590999992022031414004+60530+008195FM-12+077299999V0202141N0017199999999999999999+00321-00901102591ADDAA101999999KA1010M+00321KA2010N+00201MA1999999093371MD1710081+9999OD140100261136OD299900191999REMSYN004BUFR
0229013590999992022031818004+60530+008195FM-12+077299999V0202371N0042122000199075000199-00051-00481104531ADDAA101999999AJ100399100390099AY111061AY201061GA1031+010001061GA2999+999999031GE19AGL   +99999+99999GF104991031999010001999999IA1289KA1120M+00311KA2120N-00261MA1999999095011MD1310151+9999MW1021OC101061OD190600611999REMSYN004BUFR
0104013590999992022031909004+60530+008195FM-12+077299999V0202521N0049199999999999999999+00171-00721104951ADDAA101999999KA1010M+00171KA2010N+00101MA1999999095471MD1110231+9999OC100941OD190100581999REMSYN004BUFR
0167013590999992022032012004+60530+008195FM-12+077299999V0201381N0006122000199075000199+01101-00591103951ADDAA101999999AJ100369100360099AY101061AY201061GF100991999999999999999999IA1249KA1010M+01091KA2010N+00821MA1999999094861MD1810221+9999MW1021OD190600261999REMSYN004BUFR
0110013590999992022032103004+60530+008195FM-12+077299999V0202431N0010199999999999999999-01171-01371104371ADDAA101999999KA1010M-00871KA2010N-01191MA1999999094481MD1710121+9999OD140100161185OD299900211999REMSYN004BUFR
0104013590999992022032403004+60530+008195FM-12+077299999V0203521N0016199999999999999999+00321+00011102771ADDAA101999999KA1010M+00361KA2010N+00301MA1999999093541MD1610141+9999OC100701OD190100501999REMSYN004BUFR
0191013590999992022040418004+60530+008195FM-12+077299999V0201901N0018199999999075000199-00451-00971098981ADDAY171061AY221061GA1031+010001081GA2999+999999031GA3999+999999011GE19AGL   +99999+99999GF105991031999010001999999IA1249MA1999999089841MD1210191+9999MW1011OC100811OD140199999999REMSYN004BUFR
0232013590999992022040706004+60530+008195FM-12+077299999V0201011N00051025001C9040000199-00821-01281098481ADDAA124130092AA299999999AJ199999999999999AY121999AY221999GA1081+025001041GA2999+999999101GE19AGL   +99999+99999GF108991081999025001999999IA1199KA1120M-00451KA2120N-01171MA1999999089261MD1710111+9999MW1021OD199900221999REMSYN004BUFR
0118013590999992022040709004+60530+008195FM-12+077299999V0200331N0043199999999999999999-00321-01231098131ADDAA199999999KA1120M-00271KA2120N-00531MA1999999089111MD1810151+9999OC100721OD139900721289OD299900431999REMSYN004BUFR
0115013590999992022070300004+60530+008195FM-12+077299999V0201971N0006199999999999999999+00921+00631101301ADDAA199000531AA299999999KA1120M+01031KA2120N+00921MA1999999092391MD1710071+9999OC100701OD199900441999REMSYN004BUFR
0096013590999992022070409004+60530+008195FM-12+077299999V0202521N0014199999999999999999+01071+00741100741ADDAA199000431KA1120M+01121KA2120N+00921MA1999999091931MD1810201+9999OD199900141999REMSYN004BUFR
0104013590999992022070613004+60530+008195FM-12+077299999V0202291N0028199999999999999999+00801+00441101081ADDAA199000431KA1120M+00791KA2120N+00761MA1999999092151MD1710151+9999OC100931OD199900381999REMSYN004BUFR
0118013590999992022070710004+60530+008195FM-12+077299999V0202981N0033199999999999999999+01051+00261101571ADDAA199999999KA1120M+01061KA2120N+00991MA1999999092681MD1110221+9999OC100741OD139900741039OD299900351999REMSYN004BUFR
0176013590999992022070806004+60530+008195FM-12+077299999V0202251N00331006001C9050000199+01001+00451101891ADDAJ100009100000099AY121999AY221999GA1051+006001081GE19AGL   +99999+99999GF105991051999006001999999IA1009MA1999999092951MD1310061+9999MW1021OC100841OD139999999999REMSYN004BUFR
0121013590999992022071218004+60530+008195FM-12+077299999V0202221N0039199999999999999999+01621+00871101271ADDAA199999999AJ100029100020099KA1120M+01841KA2120N+01451MA1999999092601MD1710111+9999OC100761OD199900451999REMSYN004BUFR
0123013590999992022071500004+60530+008195FM-12+077299999V0203051N0028199999999999999999+00621-00031101371ADDAA199999999KA1120M+00631KA2120N+00511MA1999999092361MD1210081+9999OC100571OD199900411999REMSYN004BUFREQDQ01  99993PRCP99
0104013590999992022071511004+60530+008195FM-12+077299999V0202451N0025199999999999999999+00971+00271101041ADDAA199999999KA1120M+00991KA2120N+00871MA1999999092181MD1810081+9999OC100651OD199900341999REMSYN004BUFR
0256013590999992022071706004+60530+008195FM-12+077299999V0202321N00301010001C9050000199+00901+00391101831ADDAA124000091AA299999999AJ199999999999999AY121999AY201999GA1051+010001061GA2999+999999031GA3999+999999101GE19AGL   +99999+99999GF108991051999010001999999IA1009KA1120M+01211KA2120N+00711MA1999999092871MD1710071+9999MW1021OC100791OD199900411999REMSYN004BUFR
0229013590999992022071812004+60530+008195FM-12+077299999V0202221N00441010001C9055000199+01501+00821101321ADDAA199999999AJ100009100000099AY121999AY221999GA1061+010001081GA2999+999999001GE19AGL   +99999+99999GF107991061999010001999999IA1089KA1120M+01591KA2120N+01441MA1999999092601MD1510001+9999MW1021OC100981OD199900531999REMSYN004BUFR
0104013590999992022072209004+60530+008195FM-12+077299999V0200641N0020199999999999999999+01501+00791101501ADDAA199999999KA1120M+01531KA2120N+01341MA1999999092761MD1810051+9999OC100501OD199900301999REMSYN004BUFR
0096013590999992022080809004+60530+008195FM-12+077299999V0201991N0015199999999999999999+01221+00571102211ADDAA199999999KA1120M+01221KA2120N+01171MA1999999093321MD1210101+9999OD199900261999REMSYN004BUFR
0115013590999992022081300004+60530+008195FM-12+077299999V0202841N0023199999999999999999+01221+00891102151ADDAA199999999KA1120M+01271KA2120N+01211MA1999999093261MD1710021+9999OD199900281999REMSYN004BUFREQDQ01  99993PRCP99
0096013590999992022081509004+60530+008195FM-12+077299999V0201611N0005199999999999999999+01501+01261101081ADDAA199999999KA1120M+01491KA2120N+01441MA1999999092381MD1710031+9999OD199900081999REMSYN004BUFR
0096013590999992022081608004+60530+008195FM-12+077299999V0200641N0012199999999999999999+01321+01291100861ADDAA199001931KA1120M+01331KA2120N+01311MA1999999092121MD1310011+9999OD199900171999REMSYN004BUFR
0096013590999992022081609004+60530+008195FM-12+077299999V0200431N0010199999999999999999+01321+01261100841ADDAA199003531KA1120M+01361KA2120N+01321MA1999999092101MD1310011+9999OD199900181999REMSYN004BUFR
0110013590999992022081615004+60530+008195FM-12+077299999V0201881N0008199999999999999999+01571+01421100481ADDAA199999999KA1120M+01611KA2120N+01511MA1999999091851MD1610151+9999OD139900261188OD299900151999REMSYN004BUFR
0096013590999992022081903004+60530+008195FM-12+077299999V0202801N0008199999999999999999+00971+00871101081ADDAA199999999KA1120M+01021KA2120N+00971MA1999999092211MD1510021+9999OD199900161999REMSYN004BUFR
0104013590999992022081915004+60530+008195FM-12+077299999V0202131N0027199999999999999999+01701+01091100901ADDAA199999999KA1120M+01691KA2120N+01661MA1999999092281MD1710021+9999OC100841OD199900491999REMSYN004BUFR
0115013590999992022082000004+60530+008195FM-12+077299999V0202511N0010199999999999999999+01211+01161101001ADDAA199000831AA299000731KA1120M+01231KA2120N+01211MA1999999092221MD1710071+9999OC100521OD199900361999REMSYN004BUFR
0104013590999992022082515004+60530+008195FM-12+077299999V0201741N0029199999999999999999+01771+00981101981ADDAA199999999KA1120M+01811KA2120N+01771MA1999999093291MD1810071+9999OC100641OD199900381999REMSYN004BUFR
0096013590999992022082821004+60530+008195FM-12+077299999V0201101N0007199999999999999999+00701+00651102301ADDAA199999999KA1120M+00841KA2120N+00701MA1999999093231MD1210201+9999OD199900111999REMSYN004BUFR
0104013590999992022082913004+60530+008195FM-12+077299999V0201331N0006199999999999999999+01651+00711102171ADDAA199999999KA1120M+01871KA2120N+01641MA1999999093421MD1610081+9999OC100591OD199900271999REMSYN004BUFR
0096013590999992022083003004+60530+008195FM-12+077299999V0202691N0003199999999999999999+00271+00261102911ADDAA199999999KA1120M+00351KA2120N+00271MA1999999093651MD1210031+9999OD199900051999REMSYN004BUFR
0110013590999992022083115004+60530+008195FM-12+077299999V0201101N0010199999999999999999+01971+00451102421ADDAA199999999KA1120M+02001KA2120N+01871MA1999999093751MD1710081+9999OD139900341356OD299900161999REMSYN004BUFR
0096013590999992022090309004+60530+008195FM-12+077299999V0200881N0010199999999999999999+01061+00701102271ADDAA199999999KA1120M+01061KA2120N+00811MA1999999093321MD1810011+9999OD199900121999REMSYN004BUFR
0213013590999992022091818004+60530+008195FM-12+077299999V0202371N0023122000199075000199+00751+00031101061ADDAA199999999AJ100003100000099AY181999AY221999GA1031+010001061GE19AGL   +99999+99999GF103991031999010001999999IA1089KA1120M+01211KA2120N+00591MA1999999092121MD1310151+9999MW1021OC101101OD199900501999REMSYN004BUFR
0223013590999992022092312004+60530+008195FM-12+077299999V0200321N00131006001C9030000199+01021+00791100921ADDAA199000431AJ100003100004099AY161999AY221999GA1081+006001061GA2999+999999101GA3999+999999101GE19AGL   +99999+99999GF108991081999006001999999IA1089KA1120M+01031KA2120N+00871MA1999999092081MW1211OD199900141999REMSYN004BUFR
0096013590999992022100403004+60530+008195FM-12+077299999V0202581N0015199999999999999999+00301+00261101511ADDAA199999999KA1120M+00291KA2120N+00061MA1999999092381MD1710211+9999OD199900151999REMSYN004BUFR
0096013590999992022101908004+60530+008195FM-12+077299999V0201021N0005199999999999999999-00151-00441102971ADDAA199999999KA1120M-00151KA2120N-00471MA1999999093561MD1310011+9999OD199900061999REMSYN004BUFR
0110013590999992022101909004+60530+008195FM-12+077299999V0201821N0013199999999999999999+00311-00351102791ADDAA199999999KA1120M+00311KA2120N-00151MA1999999093551MD1210031+9999OD139900191199OD299900131999REMSYN004BUFR
0096013590999992022102509004+60530+008195FM-12+077299999V0201981N0012199999999999999999+00211+00191100421ADDAA199999999KA1120M+00221KA2120N+00161MA1999999091361MD1210081+9999OD199900121999REMSYN004BUFR
0096013590999992022121909004+60530+008195FM-12+077299999V0200551N0008199999999999999999-01021-01161101781ADDAA199999999KA1120M-01031KA2120N-01061MA1999999092171MD1610151+9999OD199900101999REMSYN004BUFR
0205013590999992022122112004+60530+008195FM-12+077299999V0201151N00081006001C9040000199-00251-00431099811ADDAA199999999AJ100289100280099AY121999AY221999GA1071+006001061GE19AGL   +99999+99999GF107991071999006001999999IA1289KA1120M-00251KA2120N-00411MA1999999090661MD1810081+9999MW1021OD199900151999REMSYN004BUFR
0232013590999992022122806004+60530+008195FM-12+077299999V0201551N0003199999999045000199-01501-01661100991ADDAA124000131AA299999999AJ100409100400099AY121999AY201999GA1021+010001081GA2999+999999021GE19AGL   +99999+99999GF106991021999010001999999IA1289KA1120M-00481KA2120N-01651MA1999999091291MD1610151+9999MW1021OD199900181999REMSYN004BUFR
0240013590999992022122906004+60530+008195FM-12+077299999V0200581N00201003001C9003700199-00851-01001099011ADDAA124004631AA299000231AJ100003100005099AY171999AY221999GA1081+003001051GA2999+999999101GE19AGL   +99999+99999GF108991081999003001999999IA1289KA1120M-00831KA2120N-00971MA1999999089721MD1610321+9999MW1711OC100521OD199900391999REMSYN004BUFR
