0138419410999992022010100004+23267+090700FM-12+000799999V0203601N001019999999N004000199+01601+01501102011ADDAA124000091AY101021AY201021MA1999999101951MD1999999+0101MW1051REMSYN06441941 31940 03602 10160 20150 30195 40201 70500 333 58010 70000=
0138419410999992022010103004+23267+090700FM-12+000799999V0203601N001519999999N004000199+01651+01601101981ADDAA124000091AY101021AY201021MA1999999101931MD1999999+0131MW1051REMSYN06441941 31940 03603 10165 20160 30193 40198 70500 333 58013 70000=
0110419410999992022010106004+23267+090700FM-12+000799999V0203601N001519999999N006000199+02301+01601101921ADDAA124000091MA1999999101871MD1999999-0111REMSYN05841941 32956 03603 10230 20160 30187 40192 333 59011 70000=
0110419410999992022010109004+23267+090700FM-12+000799999V0203601N001519999999N005000199+02501+01501101621ADDAA124000091MA1999999101571MD1999999-0131REMSYN05841941 32950 03603 10250 20150 30157 40162 333 59013 70000=
0129419410999992022010112004+23267+090700FM-12+000799999V0203601N001019999999N004000199+02201+01401101571ADDAA124000091KA1240M+02661MA1999999101511MD1999999-0331REMSYN06441941 32940 03602 10220 20140 30151 40157 333 10266 59033 70000=
0138419410999992022010115004+23267+090700FM-12+000799999V0203201N001019999999N004000199+01841+01501101891ADDAA124000091AY101021AY201021MA1999999101841MD1999999-0071MW1051REMSYN06441941 31940 03202 10184 20150 30184 40189 70500 333 59007 70000=
0138419410999992022010118004+23267+090700FM-12+000799999V0203201N001019999999N004000199+01801+01701101961ADDAA124000091AY101021AY201021MA1999999101911MD1999999-0081MW1051REMSYN06441941 31940 03202 10180 20170 30191 40196 70500 333 59008 70000=
0152419410999992022040900004+23267+090700FM-12+999999999V0201801N00151004805C9005000199+02601+02501101061ADDAA124999999GA1051+004801061GA2011+007501091GA3081+024001041GE19AGL   +99999+99999GF108991051999004801999999MA1999999101001MD1999999-0121REMSYN004BUFR
0136419410999992022041106004+23267+090700FM-12+999999999V0201801N0015102400199006000199+03121+02401100791ADDAA124999999GA1041+004801061GA2071+024001041GE19AGL   +99999+99999GF107991041999004801999999MA1999999100741MD1999999-0091REMSYN004BUFR
0136419410999992022041509004+23267+090700FM-12+999999999V0201801N0020102400199007000199+03351+02601100231ADDAA124999999GA1041+004801061GA2071+024001041GE19AGL   +99999+99999GF107991041999004801999999MA1999999100181MD1999999-0051REMSYN004BUFR
0187419410999992022070503004+23267+090700FM-12+999999999V0209999C00001004805C9005000199+02901+02701100161ADDAA124008031AY161999AY221999GA1051+004801061GA2011+009001091GA3081+024001041GE19AGL   +99999+99999GF108991051999004801999999KA1120N+02691MA1999999100101MD1999999+0031MW1021REMSYN004BUFR
0136419410999992022070612004+23267+090700FM-12+999999999V0201801N0015102400199006000199+03201+02601100121ADDAA124011031GA1041+004801061GA2071+024001041GE19AGL   +99999+99999GF107991041999004801999999MA1999999100071MD1999999+0231REMSYN004BUFR
0177419410999992022070706004+23267+090700FM-12+999999999V0201801N0010102400199006000199+03251+02801100571ADDAA124001031AY161999AY221999GA1041+004801061GA2061+024001041GE19AGL   +99999+99999GF106991041999004801999999MA1999999100521MD1999999+0251MW1021REMSYN004BUFREQDQ01  00103PRCP99
0136419410999992022070709004+23267+090700FM-12+999999999V0201801N0010102400199006000199+03301+02601100311ADDAA124001031GA1041+004801061GA2061+024001041GE19AGL   +99999+99999GF106991041999004801999999MA1999999100261MD1999999+0151REMSYN004BUFR
0136419410999992022070809004+23267+090700FM-12+999999999V0201801N0010102400199006000199+03321+02601100361ADDAA124999999GA1041+004801061GA2061+024001041GE19AGL   +99999+99999GF106991041999004801999999MA1999999100301MD1999999+0041REMSYN004BUFR
0136419410999992022071115004+23267+090700FM-12+999999999V0201801N0020102400199005000199+02901+02601100191ADDAA124999999GA1041+004801061GA2061+024001041GE19AGL   +99999+99999GF106991041999004801999999MA1999999100141MD1999999+0011REMSYN004BUFR
0136419410999992022071409004+23267+090700FM-12+999999999V0201401N0015102400199007000199+03501+02401099831ADDAA124999999GA1041+004801061GA2061+024001041GE19AGL   +99999+99999GF106991041999004801999999MA1999999099781MD1999999-0071REMSYN004BUFR
0149419410999992022071803004+23267+090700FM-12+999999999V0201801N0010102400199006000199+02821+02601100581ADDAA124999999GA1041+004801061GA2061+024001041GE19AGL   +99999+99999GF106991041999004801999999KA1120N+02751MA1999999100531MD1999999+0281REMSYN004BUFR
0136419410999992022081209004+23267+090700FM-12+999999999V0201801N0010102400199006000199+03321+02601100141ADDAA124999999GA1041+004801061GA2071+024001041GE19AGL   +99999+99999GF107991041999004801999999MA1999999100081MD1999999+0051REMSYN004BUFR
0136419410999992022081718004+23267+090700FM-12+999999999V0209999C0000102400199004000199+02971+02801100261ADDAA124001031GA1041+004801061GA2061+024001041GE19AGL   +99999+99999GF106991041999004801999999MA1999999100211MD1999999-0281REMSYN004BUFR
0149419410999992022082403004+23267+090700FM-12+999999999V0201401N0010102400199005000199+03021+02501100691ADDAA124010031GA1041+004801061GA2071+024001041GE19AGL   +99999+99999GF107991041999004801999999KA1120N+02521MA1999999100641MD1999999+0321REMSYN004BUFR
0169419410999992022082406004+23267+090700FM-12+999999999V0201801N0015102100199005000199+02951+02901100841ADDAA124011031AA299001031AY121999AY221999GA1041+004201061GA2071+021001041GE19AGL   +99999+99999GF107991041999004201999999MA1999999100791MD1999999+0361MW1611REMSYN004BUFR
0136419410999992022082506004+23267+090700FM-12+999999999V0209999C0000102400199006000199+03301+02501100581ADDAA124002031GA1041+004801061GA2061+024001041GE19AGL   +99999+99999GF106991041999004801999999MA1999999100531MD1999999-0261REMSYN004BUFR
0136419410999992022082521004+23267+090700FM-12+999999999V0209999C0000102400199004000199+02851+02701100441ADDAA124999999GA1041+004801061GA2061+024001041GE19AGL   +99999+99999GF106991041999004801999999MA1999999100391MD1999999-0131REMSYN004BUFR
0177419410999992022082806004+23267+090700FM-12+999999999V0201801N0010102400199006000199+03011+02601100761ADDAA124008031AY161999AY221999GA1041+004801061GA2071+024001041GE19AGL   +99999+99999GF107991041999004801999999MA1999999100711MD1999999+0451MW1211REMSYN004BUFREQDQ01  00803PRCP99
0155419410999992022082909004+23267+090700FM-12+999999999V0201801N00101999999C9007000199+03471+02401100821ADDAA124999999GA1031+005401061GA2041+036001031GE19AGL   +99999+99999GF104991031999005401999999MA1999999100771MD1999999+0351REMSYN004BUFREQDQ01 036003SCOCIG
0155419410999992022083012004+23267+090700FM-12+999999999V0209999C00001999999C9005000199+03221+02601100601ADDAA124999999GA1031+005401061GA2041+036001031GE19AGL   +99999+99999GF104991031999005401999999MA1999999100551MD1999999-0111REMSYN004BUFREQDQ01 036003SCOCIG
0136419410999992022090321004+23267+090700FM-12+999999999V0209999C0000102400199004000199+02821+02601100561ADDAA124004031GA1041+004801061GA2071+024001041GE19AGL   +99999+99999GF107991041999004801999999MA1999999100511MD1999999-0201REMSYN004BUFR
0136419410999992022090809004+23267+090700FM-12+999999999V0200901N0015102400199006000199+03501+02701100381ADDAA124011031GA1041+004801061GA2071+024001041GE19AGL   +99999+99999GF107991041999004801999999MA1999999100321MD1999999-0061REMSYN004BUFR
0152419410999992022091006004+23267+090700FM-12+999999999V0200901N00151004205C9004000199+03201+02701100781ADDAA124002031GA1051+004201061GA2011+007501091GA3081+021001041GE19AGL   +99999+99999GF108991051999004201999999MA1999999100721MD1999999-0091REMSYN004BUFR
0152419410999992022091221004+23267+090700FM-12+999999999V0209999C00001004205C9004000199+02551+02551100761ADDAA124010031GA1051+004201061GA2011+007501091GA3081+021001041GE19AGL   +99999+99999GF108991051999004201999999MA1999999100701MD1999999+0111REMSYN004BUFR
0185419410999992022091306004+23267+090700FM-12+999999999V0200901N00151003605C9005000199+02551+02501101001ADDAA124045031AA299047031AY161999AY261999GA1051+003601061GA2011+007501091GA3081+018001041GE19AGL   +99999+99999GF108991051999003601999999MA1999999100941MD1999999+0321MW1631REMSYN004BUFR
0136419410999992022091321004+23267+090700FM-12+999999999V0209999C0000102400199004000199+02551+02501100811ADDAA124062031GA1041+004801061GA2071+024001041GE19AGL   +99999+99999GF107991041999004801999999MA1999999100751MD1999999+0041REMSYN004BUFR
0187419410999992022091503004+23267+090700FM-12+999999999V0209999C00001003605C9004000199+02501+02501101031ADDAA124015031AY161999AY261999GA1051+003601061GA2011+007201091GA3081+018001041GE19AGL   +99999+99999GF108991051999003601999999KA1120N+02051MA1999999100971MD1999999-0111MW1631REMSYN004BUFR
0149419410999992022092003004+23267+090700FM-12+999999999V0201401N0015102400199006000199+03001+02501100701ADDAA124999999GA1041+004801061GA2071+024001041GE19AGL   +99999+99999GF107991041999004801999999KA1120N+02571MA1999999100641MD1999999+0151REMSYN004BUFR
0152419410999992022092300004+23267+090700FM-12+999999999V0209999C00001004205C9005000199+02751+02701100761ADDAA124020031GA1051+004201061GA2011+008401091GA3081+024001041GE19AGL   +99999+99999GF108991051999004201999999MA1999999100701MD1999999+0001REMSYN004BUFR
0136419410999992022100209004+23267+090700FM-12+999999999V0209999C0000102400199006000199+03201+02601100141ADDAA124046031GA1041+004801061GA2061+024001041GE19AGL   +99999+99999GF106991041999004801999999MA1999999100091MD1999999-0031REMSYN004BUFR
0120419410999992022101221004+23267+090700FM-12+999999999V0209999C0000122000199004000199+02551+02551101081ADDAA124002031GA1021+005401061GE19AGL   +99999+99999GF102991021999005401999999MA1999999101021MD1999999-0061REMSYN004BUFR
0133419410999992022101603004+23267+090700FM-12+999999999V0203601N0015122000199006000199+03051+02301101221ADDAA124999999GA1021+004801061GE19AGL   +99999+99999GF104991021999004801999999KA1120N+02481MA1999999101171MD1999999+0211REMSYN004BUFR
0136419410999992022102106004+23267+090700FM-12+999999999V0203601N00151024001C9006000199+03301+02401101311ADDAA124999999GA1031+004801061GA2051+024001041GE19AGL   +99999+99999GF105991031999004801999999MA1999999101251MD1999999+0141REMSYN004BUFR
0136419410999992022102212004+23267+090700FM-12+999999999V0203601N00151024001C9005000199+03101+02501100841ADDAA124999999GA1031+004801061GA2051+024001041GE19AGL   +99999+99999GF105991031999004801999999MA1999999100791MD1999999-0071REMSYN004BUFR
0190419410999992022102409004+23267+090700FM-12+999999999V0203601N00351003601C9004000199+02201+02201099931ADDAA124113031AY161999AY261999GA1021+002401071GA2041+003601061GA3011+007201091GA4081+018001041GE19AGL   +99999+99999GF108991021999002401999999MA1999999099881MD1999999-1011MW1651REMSYN004BUFR
0289419410999992022102418004+23267+090700FM-12+000799999V0201801N00361003601CN003000199+02201+02201099741ADDAA115031031AA224170031AY161021AY261021GA1021+002401071GA2041+003601061GA3011+007201091GA4081+018001041GE19AGL   +99999+99999GF108991021999002401999999MA1999999099691MW1651REMSYN10641941 11330 81807 10220 20220 39969 49974 60319 76566 8672/ 333 56399 59129 71700 82708 84612 81924 88456=
0289419410999992022102500004+23267+090700FM-12+000799999V0200901N00151003601CN004000199+02181+02181100581ADDAA115003031AA224145031AY161021AY261021GA1021+002401071GA2041+003601061GA3011+006901091GA4081+018001041GE19AGL   +99999+99999GF108991021999002401999999MA1999999100521MW1211REMSYN10641941 11440 80903 10218 20218 30052 40058 60039 72166 8672/ 333 56299 59028 71450 82708 84612 81923 88456=
0267419410999992022102506004+23267+090700FM-12+000799999V0203101N00151004501CN005000199+02551+02201101061ADDAA102001031AA224093031AY161021AY221021GA1051+004501061GA2011+008401091GA3081+024001041GE19AGL   +99999+99999GF108991051999004501999999MA1999999101011MW1021REMSYN10041941 11450 83103 10255 20220 30101 40106 60016 70262 8632/ 333 56999 58050 70930 85615 81928 88458=
0219419410999992022102512004+23267+090700FM-12+000799999V0209999C000010240019N004000199+02451+02301101021ADDAA124035031GA1041+004801061GA2061+024001041GE19AGL   +99999+99999GF106991041999004801999999KA1240M+02821MA1999999100971REMSYN08841941 32440 60000 10245 20230 30097 40102 85420 333 10282 56990 58144 70350 84616 86458=
0155419410999992022102515004+23267+090700FM-12+999999999V0209999C00001999999C9004000199+02251+02251101141ADDAA124006031GA1031+005401061GA2041+036001031GE19AGL   +99999+99999GF104991031999005401999999MA1999999101141MD1999999+2041REMSYN004BUFREQDQ01 036003SCOCIG
0219419410999992022102518004+23267+090700FM-12+000799999V0209999C00001999999CN004000199+02201+02201101281ADDAA124004031GA1031+005401061GA2041+036001031GE19AGL   +99999+99999GF104991031999005401999999MA1999999101231REMSYN08241941 32440 40000 10220 20220 30123 40128 83530 333 56990 58154 70040 83618 84362=EQDQ01 036003SCOCIG
0200419410999992022102521004+23267+090700FM-12+000799999V0209999C000010240019N004000199+02151+02151101291ADDAA124002031GA1041+004801061GA2061+024001041GE19AGL   +99999+99999GF106991041999004801999999MA1999999101231REMSYN08241941 32440 60000 10215 20215 30123 40129 85420 333 56990 58101 70020 84616 86458=
0200419410999992022102600004+23267+090700FM-12+000799999V0209999C000010240019N005000199+02091+02091101281ADDAA124001031GA1041+004801061GA2061+024001041GE19AGL   +99999+99999GF106991041999004801999999MA1999999101221REMSYN08241941 32450 60000 10209 20209 30122 40128 85420 333 56990 58070 70010 84616 86458=
0238419410999992022102603004+23267+090700FM-12+000799999V0209999C00001999999CN006000199+02851+02201101501ADDAA124000091GA1031+005401061GA2041+036001031GE19AGL   +99999+99999GF104991031999005401999999KA1240N+02081MA1999999101451REMSYN08841941 32456 40000 10285 20220 30145 40150 83530 333 20208 56990 58054 70000 83618 84362=EQDQ01 036003SCOCIG
0227419410999992022102606004+23267+090700FM-12+000799999V0203601N00151999999CN006000199+03051+02401101381ADDAA124000091GA1031+005401061GA2041+036001031GE19AGL   +99999+99999GF104991031999005401999999MA1999999101321MD1999999+0311REMSYN07641941 32456 43603 10305 20240 30132 40138 83530 333 58031 70000 83618 84362=EQDQ01 036003SCOCIG
0219419410999992022102609004+23267+090700FM-12+000799999V0203101N00261999999CN006000199+03081+02301101191ADDAA124000091GA1031+005401061GA2041+036001031GE19AGL   +99999+99999GF104991031999005401999999MA1999999101131REMSYN08241941 32456 43105 10308 20230 30113 40119 83530 333 56990 58030 70000 83618 84362=EQDQ01 036003SCOCIG
0219419410999992022102612004+23267+090700FM-12+000799999V0209999C000010240019N005000199+02751+02501101251ADDAA124000091GA1041+004801061GA2061+024001041GE19AGL   +99999+99999GF106991041999004801999999KA1240M+03181MA1999999101191REMSYN08841941 32450 60000 10275 20250 30119 40125 85420 333 10318 56990 58022 70000 84616 86458=
0219419410999992022102615004+23267+090700FM-12+000799999V0209999C00001999999CN004000199+02491+02401101321ADDAA124000091GA1031+005401061GA2041+036001031GE19AGL   +99999+99999GF104991031999005401999999MA1999999101261REMSYN08241941 32440 40000 10249 20240 30126 40132 83530 333 56990 58012 70000 83618 84362=EQDQ01 036003SCOCIG
0219419410999992022102618004+23267+090700FM-12+000799999V0209999C00001999999CN004000199+02451+02451101261ADDAA124000091GA1031+005401061GA2041+036001031GE19AGL   +99999+99999GF104991031999005401999999MA1999999101201REMSYN08241941 32440 40000 10245 20245 30120 40126 83530 333 56990 59003 70000 83618 84362=EQDQ01 036003SCOCIG
0219419410999992022102621004+23267+090700FM-12+000799999V0209999C00001999999CN004000199+02371+02371101251ADDAA124000091GA1031+005401061GA2041+036001031GE19AGL   +99999+99999GF104991031999005401999999MA1999999101201REMSYN08241941 32440 40000 10237 20237 30120 40125 83530 333 56990 59003 70000 83618 84362=EQDQ01 036003SCOCIG
0200419410999992022102700004+23267+090700FM-12+000799999V0209999C000010240019N005000199+02281+02281101241ADDAA124000091GA1041+004801061GA2061+024001041GE19AGL   +99999+99999GF106991041999004801999999MA1999999101191REMSYN08241941 32450 60000 10228 20228 30119 40124 85420 333 56990 59003 70000 84616 86458=
0219419410999992022102703004+23267+090700FM-12+000799999V0209999C000010240019N006000199+02701+02301101431ADDAA124000091GA1041+004801061GA2061+024001041GE19AGL   +99999+99999GF106991041999004801999999KA1240N+02281MA1999999101381REMSYN08841941 32456 60000 10270 20230 30138 40143 85420 333 20228 56990 59007 70000 84616 86458=
0200419410999992022102706004+23267+090700FM-12+000799999V0203601N001510240019N006000199+03051+02401101361ADDAA124000091GA1041+004801061GA2061+024001041GE19AGL   +99999+99999GF106991041999004801999999MA1999999101301REMSYN08241941 32456 63603 10305 20240 30130 40136 85420 333 56990 59002 70000 84616 86458=
0200419410999992022102709004+23267+090700FM-12+000799999V0203601N002110240019N006000199+03001+02101101131ADDAA124000091GA1041+004801061GA2061+024001041GE19AGL   +99999+99999GF106991041999004801999999MA1999999101071REMSYN08241941 32456 63604 10300 20210 30107 40113 85420 333 56990 59006 70000 84616 86458=
0219419410999992022102712004+23267+090700FM-12+000799999V0209999C000010240019N005000199+02751+02301101141ADDAA124000091GA1041+004801061GA2061+024001041GE19AGL   +99999+99999GF106991041999004801999999KA1240M+03171MA1999999101081REMSYN08841941 32450 60000 10275 20230 30108 40114 85420 333 10317 56990 59011 70000 84616 86458=
0200419410999992022102715004+23267+090700FM-12+000799999V0209999C000010240019N005000199+02401+02201101211ADDAA124000091GA1041+004801061GA2061+024001041GE19AGL   +99999+99999GF106991041999004801999999MA1999999101151REMSYN08241941 32450 60000 10240 20220 30115 40121 85420 333 56990 59011 70000 84616 86458=
0214419410999992022102718004+23267+090700FM-12+000799999V0209999C000010240019N004000199+02351+02301101191ADDAA124000091GA1041+004801061GA2061+024001041GE19AGL   +99999+99999GF106991041999004801999999MA1999999101131MD1814201+9999REMSYN08241941 32440 60000 10235 20230 30113 40119 58420 333 56990 59007 70000 84616 86458=
0200419410999992022102721004+23267+090700FM-12+000799999V0209999C000010240019N004000199+02301+02201101131ADDAA124000091GA1041+004801061GA2061+024001041GE19AGL   +99999+99999GF106991041999004801999999MA1999999101081REMSYN08241941 32440 60000 10230 20220 30108 40113 85420 333 56990 59012 70000 84616 86458=
0200419410999992022102800004+23267+090700FM-12+000799999V0209999C000010240019N004000199+02161+02161101121ADDAA124000091GA1041+004801061GA2061+024001041GE19AGL   +99999+99999GF106991041999004801999999MA1999999101071REMSYN08241941 32440 60000 10216 20216 30107 40112 85420 333 56990 59012 70000 84616 86458=
0219419410999992022102803004+23267+090700FM-12+000799999V0203101N001510240019N005000199+02751+02101101391ADDAA124000091GA1041+004801061GA2061+024001041GE19AGL   +99999+99999GF106991041999004801999999KA1240N+02141MA1999999101331REMSYN08841941 32450 63103 10275 20210 30133 40139 85420 333 20214 56990 59005 70000 84616 86458=
0200419410999992022102806004+23267+090700FM-12+000799999V0203101N001510240019N006000199+03001+02101101271ADDAA124000091GA1041+004801061GA2061+024001041GE19AGL   +99999+99999GF106991041999004801999999MA1999999101211REMSYN08241941 32456 63103 10300 20210 30121 40127 85420 333 56990 59009 70000 84616 86458=
0200419410999992022102809004+23267+090700FM-12+000799999V0203601N002110240019N006000199+03101+01901101041ADDAA124000091GA1041+004801061GA2061+024001041GE19AGL   +99999+99999GF106991041999004801999999MA1999999100981REMSYN08241941 32456 63604 10310 20190 30098 40104 85420 333 56990 59009 70000 84616 86458=
0219419410999992022102812004+23267+090700FM-12+000799999V0209999C000010240019N005000199+02701+02101100941ADDAA124000091GA1041+004801061GA2061+024001041GE19AGL   +99999+99999GF107991041999004801999999KA1240M+03201MA1999999100881REMSYN08841941 32450 70000 10270 20210 30088 40094 85420 333 10320 56990 59020 70000 84616 86458=
0200419410999992022102815004+23267+090700FM-12+000799999V0209999C000010240019N005000199+02401+02201101051ADDAA124000091GA1041+004801061GA2071+024001041GE19AGL   +99999+99999GF107991041999004801999999MA1999999100991REMSYN08241941 32450 70000 10240 20220 30099 40105 85420 333 56990 59016 70000 84616 87458=
0200419410999992022102818004+23267+090700FM-12+000799999V0209999C000010240019N004000199+02301+02201101081ADDAA124000091GA1041+004801061GA2071+024001041GE19AGL   +99999+99999GF107991041999004801999999MA1999999101031REMSYN08241941 32440 70000 10230 20220 30103 40108 85420 333 56990 59010 70000 84616 87458=
0200419410999992022102821004+23267+090700FM-12+000799999V0209999C000010240019N004000199+02261+02261101041ADDAA124000091GA1041+004801061GA2071+024001041GE19AGL   +99999+99999GF107991041999004801999999MA1999999100991REMSYN08241941 32440 70000 10226 20226 30099 40104 85420 333 56990 59009 70000 84616 87458=
0158419410999992022102900004+23267+090700FM-12+999999999V0209999C0000102400199003000199+02201+02201101161ADDAA124999999AY121999AY221999GA1041+004201061GA2061+024001041GE19AGL   +99999+99999GF106991041999004201999999MA1999999101111MD1999999+0041MW1051REMSYN004BUFR
0219419410999992022102903004+23267+090700FM-12+000799999V0203601N001510240019N006000199+02751+02401101351ADDAA124000091GA1041+004201061GA2061+024001041GE19AGL   +99999+99999GF106991041999004201999999KA1240N+02181MA1999999101301REMSYN08841941 32456 63603 10275 20240 30130 40135 85420 333 20218 56990 59003 70000 84614 86458=
0219419410999992022102906004+23267+090700FM-12+000799999V0203601N001510240019N006000199+02751+02401101351ADDAA124000091GA1041+004201061GA2061+024001041GE19AGL   +99999+99999GF106991041999004201999999KA1240N+02181MA1999999101301REMSYN08841941 32456 63603 10275 20240 30130 40135 85420 333 20218 56990 59003 70000 84614 86458=
0200419410999992022102909004+23267+090700FM-12+000799999V0203601N002110240019N006000199+03101+02201101031ADDAA124000091GA1041+004801061GA2061+024001041GE19AGL   +99999+99999GF106991041999004801999999MA1999999100971REMSYN08241941 32456 63604 10310 20220 30097 40103 85420 333 56990 59001 70000 84616 86458=
0219419410999992022102912004+23267+090700FM-12+000799999V0209999C000010240019N005000199+02781+02401100971ADDAA124000091GA1041+004801061GA2061+024001041GE19AGL   +99999+99999GF106991041999004801999999KA1240M+03181MA1999999100911REMSYN08841941 32450 60000 10278 20240 30091 40097 85420 333 10318 56990 58003 70000 84616 86458=
0200419410999992022102915004+23267+090700FM-12+000799999V0209999C000010240019N005000199+02651+02501101061ADDAA124000091GA1041+004801061GA2061+024001041GE19AGL   +99999+99999GF106991041999004801999999MA1999999101001REMSYN08241941 32450 60000 10265 20250 30100 40106 85420 333 56990 58001 70000 84616 86458=
0200419410999992022102918004+23267+090700FM-12+000799999V0203601N001510240019N004000199+02451+02301101191ADDAA124000091GA1041+004801061GA2061+024001041GE19AGL   +99999+99999GF106991041999004801999999MA1999999101131REMSYN08241941 32440 63603 10245 20230 30113 40119 85420 333 56990 58010 70000 84616 86458=
0200419410999992022102921004+23267+090700FM-12+000799999V0209999C000010240019N004000199+02301+02101101081ADDAA124000091GA1041+004801061GA2061+024001041GE19AGL   +99999+99999GF106991041999004801999999MA1999999101031REMSYN08241941 32440 60000 10230 20210 30103 40108 85420 333 56990 58004 70000 84616 86458=
0200419410999992022103000004+23267+090700FM-12+000799999V0203601N001510240019N005000199+02241+02201100961ADDAA124000091GA1041+004801061GA2071+024001041GE19AGL   +99999+99999GF107991041999004801999999MA1999999100911REMSYN08241941 32450 73603 10224 20220 30091 40096 85420 333 56990 59020 70000 84616 87458=
0286419410999992022103003004+23267+090700FM-12+000799999V0209999C00001004801CN005000199+02601+02601100511ADDAA103003031AA224046031AY161021AY221021GA1051+004801061GA2011+009001091GA3081+024001041GE19AGL   +99999+99999GF108991051999004801999999KA1240N+02461MA1999999100451MW1211REMSYN10641941 21450 80000 10260 20260 30045 40051 72162 8632/ 333 20246 56999 58003 6003/ 70460 85616 81930 88458=
0222419410999992022103006004+23267+090700FM-12+000799999V0203101N00211004201CN005000199+03101+02601101101ADDAA124000091GA1051+004201061GA2011+007501091GA3081+018001041GE19AGL   +99999+99999GF108991051999004201999999MA1999999101041REMSYN08841941 32450 83104 10310 20260 30104 40110 8632/ 333 56999 59024 70000 85614 81925 88456=
0222419410999992022103009004+23267+090700FM-12+000799999V0209999C00001004201CN005000199+02901+02601100941ADDAA124000091GA1051+004201061GA2011+007501091GA3081+018001041GE19AGL   +99999+99999GF108991051999004201999999MA1999999100891REMSYN08841941 32450 80000 10290 20260 30089 40094 8632/ 333 56999 59026 70000 85614 81925 88456=
0219419410999992022103012004+23267+090700FM-12+000799999V0209999C000010240019N005000199+02741+02301101031ADDAA124000091GA1041+004801061GA2061+024001041GE19AGL   +99999+99999GF106991041999004801999999KA1240M+03281MA1999999100971REMSYN08841941 32450 60000 10274 20230 30097 40103 85420 333 10328 56990 58006 70000 84616 86458=
0219419410999992022103015004+23267+090700FM-12+000799999V0209999C00001999999CN004000199+02561+02401101131ADDAA124000091GA1031+005401061GA2041+036001031GE19AGL   +99999+99999GF104991031999005401999999MA1999999101071REMSYN08241941 32440 40000 10256 20240 30107 40113 83530 333 56990 58007 70000 83618 84362=EQDQ01 036003SCOCIG
0219419410999992022103018004+23267+090700FM-12+000799999V0209999C00001999999CN004000199+02521+02401101181ADDAA124000091GA1031+005401061GA2041+036001031GE19AGL   +99999+99999GF104991031999005401999999MA1999999101121REMSYN08241941 32440 40000 10252 20240 30112 40118 83530 333 56990 59001 70000 83618 84362=EQDQ01 036003SCOCIG
0200419410999992022103021004+23267+090700FM-12+000799999V0203101N001010240019N004000199+02451+02401101181ADDAA124000091GA1041+004801061GA2061+024001041GE19AGL   +99999+99999GF106991041999004801999999MA1999999101121REMSYN08241941 32440 63102 10245 20240 30112 40118 85420 333 56990 58009 70000 84616 86458=
0200419410999992022103100004+23267+090700FM-12+000799999V0209999C000010240019N005000199+02401+02301101181ADDAA124000091GA1041+004801061GA2061+024001041GE19AGL   +99999+99999GF106991041999004801999999MA1999999101121REMSYN08241941 32450 60000 10240 20230 30112 40118 85420 333 56990 58021 70000 84616 86458=
0219419410999992022103103004+23267+090700FM-12+000799999V0209999C000010240019N006000199+02871+02401101371ADDAA124000091GA1041+004801061GA2061+024001041GE19AGL   +99999+99999GF106991041999004801999999KA1240N+02231MA1999999101311REMSYN08841941 32456 60000 10287 20240 30131 40137 85420 333 20223 56990 58032 70000 84616 86458=
0200419410999992022103106004+23267+090700FM-12+000799999V0203101N002110240019N006000199+03201+02401101221ADDAA124000091GA1041+004801061GA2061+024001041GE19AGL   +99999+99999GF106991041999004801999999MA1999999101161REMSYN08241941 32456 63104 10320 20240 30116 40122 85420 333 56990 59007 70000 84616 86458=
0200419410999992022103109004+23267+090700FM-12+000799999V0203101N002610240019N006000199+03251+02301101011ADDAA124000091GA1041+004801061GA2061+024001041GE19AGL   +99999+99999GF106991041999004801999999MA1999999100951REMSYN08241941 32456 63105 10325 20230 30095 40101 85420 333 56990 58004 70000 84616 86458=
0178419410999992022103121004+23267+090700FM-12+000799999V0209999C000012200019N004000199+02601+02401101211ADDAA124000091GA1031+005401061GE19AGL   +99999+99999GF103991031999005401999999MA1999999101151REMSYN07641941 32440 30000 10260 20240 30115 40121 83500 333 56900 58003 70000 83618=
0200419410999992022110100004+23267+090700FM-12+000799999V0203601N001010240019N005000199+02541+02401101251ADDAA124000091GA1041+004801061GA2061+024001041GE19AGL   +99999+99999GF106991041999004801999999MA1999999101191REMSYN08241941 32450 63602 10254 20240 30119 40125 85420 333 56990 58007 70000 84616 86458=
0178419410999992022110103004+23267+090700FM-12+000799999V0203601N001012200019N006000199+02991+02401101411ADDAA124000091GA1031+005401061GE19AGL   +99999+99999GF103991031999005401999999MA1999999101351REMSYN07641941 32456 33602 10299 20240 30135 40141 83500 333 56900 58004 70000 83618=
0178419410999992022110106004+23267+090700FM-12+000799999V0203601N001012200019N006000199+03201+02401101201ADDAA124000091GA1031+005401061GE19AGL   +99999+99999GF103991031999005401999999MA1999999101151REMSYN07641941 32456 33602 10320 20240 30115 40120 83500 333 56900 59001 70000 83618=
0178419410999992022110109004+23267+090700FM-12+000799999V0203601N001012200019N007000199+03281+02501101101ADDAA124000091GA1031+005401061GE19AGL   +99999+99999GF103991031999005401999999MA1999999101051REMSYN07641941 32457 33602 10328 20250 30105 40110 83500 333 56900 58010 70000 83618=
0197419410999992022110112004+23267+090700FM-12+000799999V0209999C000012200019N005000199+02901+02501101071ADDAA124000091GA1021+004801061GE19AGL   +99999+99999GF104991021999004801999999KA1240M+03371MA1999999101021REMSYN08241941 32450 40000 10290 20250 30102 40107 84400 333 10337 56900 58008 70000 82616=
0178419410999992022110115004+23267+090700FM-12+000799999V0209999C000012200019N004000199+02801+02501101191ADDAA124000091GA1021+004801061GE19AGL   +99999+99999GF104991021999004801999999MA1999999101131REMSYN07641941 32440 40000 10280 20250 30113 40119 84400 333 56900 59001 70000 82616=
0178419410999992022110118004+23267+090700FM-12+000799999V0203101N001512200019N004000199+02701+02501101261ADDAA124000091GA1021+004801061GE19AGL   +99999+99999GF104991021999004801999999MA1999999101201REMSYN07641941 32440 43103 10270 20250 30120 40126 84400 333 56900 58010 70000 82616=
0178419410999992022110121004+23267+090700FM-12+000799999V0209999C000012200019N004000199+02601+02501101221ADDAA124000091GA1021+004801061GE19AGL   +99999+99999GF104991021999004801999999MA1999999101161REMSYN07641941 32440 40000 10260 20250 30116 40122 84400 333 56990 58001 70000 82616=
0200419410999992022110200004+23267+090700FM-12+000799999V0209999C000010240019N005000199+02481+02481101331ADDAA124000091GA1041+004801061GA2061+024001041GE19AGL   +99999+99999GF106991041999004801999999MA1999999101271REMSYN08241941 32450 60000 10248 20248 30127 40133 85420 333 56990 58008 70000 84616 86458=
0219419410999992022110203004+23267+090700FM-12+000799999V0209999C000010240019N006000199+02921+02401101381ADDAA124000091GA1041+004801061GA2061+024001041GE19AGL   +99999+99999GF106991041999004801999999KA1240N+02451MA1999999101321REMSYN08841941 32456 60000 10292 20240 30132 40138 85420 333 20245 56990 59003 70000 84616 86458=
0200419410999992022110206004+23267+090700FM-12+000799999V0202701N001510240019N006000199+03101+02301101111ADDAA124000091GA1041+004801061GA2061+024001041GE19AGL   +99999+99999GF106991041999004801999999MA1999999101051REMSYN08241941 32456 62703 10310 20230 30105 40111 85420 333 56990 59010 70000 84616 86458=
0200419410999992022110209004+23267+090700FM-12+000799999V0203101N001510240019N006000199+03201+02401100881ADDAA124000091GA1041+004801061GA2061+024001041GE19AGL   +99999+99999GF106991041999004801999999MA1999999100821REMSYN08241941 32456 63103 10320 20240 30082 40088 85420 333 56990 59023 70000 84616 86458=
0219419410999992022110212004+23267+090700FM-12+000799999V0203101N001510240019N005000199+02901+02201100841ADDAA124000091GA1041+004801061GA2061+024001041GE19AGL   +99999+99999GF106991041999004801999999KA1240M+03301MA1999999100781REMSYN08841941 32450 63103 10290 20220 30078 40084 85420 333 10330 56990 59024 70000 84616 86458=
0178419410999992022110215004+23267+090700FM-12+000799999V0203101N001512200019N005000199+02681+02301101111ADDAA124000091GA1031+005401061GE19AGL   +99999+99999GF104991031999005401999999MA1999999101051REMSYN07641941 32450 43103 10268 20230 30105 40111 84400 333 56900 58008 70000 83618=
0178419410999992022110218004+23267+090700FM-12+000799999V0209999C000012200019N004000199+02601+02301101141ADDAA124000091GA1031+005401061GE19AGL   +99999+99999GF104991031999005401999999MA1999999101081REMSYN07641941 32440 40000 10260 20230 30108 40114 84400 333 56900 59012 70000 83618=
0167419410999992022110221004+23267+090700FM-12+000799999V0209999C000012200019N004000199+02551+02301101061ADDGA1041+000001041GE19AGL   +99999+99999GF104991041999000001999999MA1999999101001REMSYN07641941 32440 40000 10255 20230 30100 40106 333 84400 56900 59016 70000 83618=
0200419410999992022110300004+23267+090700FM-12+000799999V0203101N001510240019N005000199+02421+02301101231ADDAA124000091GA1041+004801061GA2061+024001041GE19AGL   +99999+99999GF106991041999004801999999MA1999999101171REMSYN08241941 32450 63103 10242 20230 30117 40123 85420 333 56990 59010 70000 84616 86458=
0219419410999992022110303004+23267+090700FM-12+000799999V0203101N002110240019N006000199+02751+02301101341ADDAA124000091GA1041+004801061GA2071+024001041GE19AGL   +99999+99999GF107991041999004801999999KA1240N+02421MA1999999101281REMSYN08841941 32456 73104 10275 20230 30128 40134 85420 333 20242 56990 59004 70000 84616 87458=
0200419410999992022110306004+23267+090700FM-12+000799999V0203601N001510240019N006000199+02851+02201101221ADDAA124000091GA1041+004801061GA2071+024001041GE19AGL   +99999+99999GF107991041999004801999999MA1999999101161REMSYN08241941 32456 73603 10285 20220 30116 40122 85420 333 56990 58011 70000 84616 87458=
0222419410999992022110309004+23267+090700FM-12+000799999V0203101N00151004501CN006000199+02851+02201100951ADDAA124000091GA1051+004501061GA2011+008401091GA3081+024001041GE19AGL   +99999+99999GF108991051999004501999999MA1999999100891REMSYN08841941 32456 83103 10285 20220 30089 40095 8632/ 333 56999 58007 70000 85615 81928 88458=
0241419410999992022110312004+23267+090700FM-12+000799999V0202701N00151004501CN005000199+02651+02101100911ADDAA124000091GA1051+004501061GA2011+008401091GA3081+024001041GE19AGL   +99999+99999GF108991051999004501999999KA1240M+02981MA1999999100851REMSYN09441941 32450 82703 10265 20210 30085 40091 8632/ 333 10298 56999 58007 70000 85615 81928 88458=
0200419410999992022110315004+23267+090700FM-12+000799999V0203101N001510240019N004000199+02451+02201101231ADDAA124000091GA1041+004801061GA2061+024001041GE19AGL   +99999+99999GF106991041999004801999999MA1999999101181REMSYN08241941 32440 63103 10245 20220 30118 40123 85420 333 56990 58013 70000 84616 86458=
0200419410999992022110318004+23267+090700FM-12+000799999V0209999C000010240019N004000199+02351+02201101281ADDAA124000091GA1041+004801061GA2061+024001041GE19AGL   +99999+99999GF106991041999004801999999MA1999999101221REMSYN08241941 32440 60000 10235 20220 30122 40128 85420 333 56990 58014 70000 84616 86458=
0200419410999992022110321004+23267+090700FM-12+000799999V0209999C000010240019N004000199+02301+02101101231ADDAA124000091GA1041+004801061GA2061+024001041GE19AGL   +99999+99999GF106991041999004801999999MA1999999101171REMSYN08241941 32440 60000 10230 20210 30117 40123 85420 333 56990 58017 70000 84616 86458=
0200419410999992022110400004+23267+090700FM-12+000799999V0209999C000010240019N005000199+02171+02101101331ADDAA124000091GA1041+004801061GA2061+024001041GE19AGL   +99999+99999GF106991041999004801999999MA1999999101271REMSYN08241941 32450 60000 10217 20210 30127 40133 85420 333 56990 58010 70000 84616 86458=
0219419410999992022110403004+23267+090700FM-12+000799999V0203101N001510240019N006000199+02651+02001101481ADDAA124000091GA1041+004801061GA2061+024001041GE19AGL   +99999+99999GF106991041999004801999999KA1240N+02161MA1999999101421REMSYN08841941 32456 63103 10265 20200 30142 40148 85420 333 20216 56990 58013 70000 84616 86458=
0200419410999992022110406004+23267+090700FM-12+000799999V0203601N001510240019N006000199+03051+01801101241ADDAA124000091GA1041+004801061GA2061+024001041GE19AGL   +99999+99999GF106991041999004801999999MA1999999101181REMSYN08241941 32456 63603 10305 20180 30118 40124 85420 333 56990 58002 70000 84616 86458=
0200419410999992022110409004+23267+090700FM-12+000799999V0203601N002110240019N006000199+03101+01601100931ADDAA124000091GA1041+004801061GA2061+024001041GE19AGL   +99999+99999GF106991041999004801999999MA1999999100871REMSYN08241941 32456 63604 10310 20160 30087 40093 85420 333 56990 59002 70000 84616 86458=
0219419410999992022110412004+23267+090700FM-12+000799999V0203101N001510240019N005000199+02601+02001101041ADDAA124000091GA1041+004801061GA2061+024001041GE19AGL   +99999+99999GF106991041999004801999999KA1240M+03201MA1999999100981REMSYN08841941 32450 63103 10260 20200 30098 40104 85420 333 10320 56990 58013 70000 84616 86458=
0200419410999992022110415004+23267+090700FM-12+000799999V0209999C000010240019N004000199+02351+02101101411ADDAA124000091GA1041+004801061GA2061+024001041GE19AGL   +99999+99999GF106991041999004801999999MA1999999101351REMSYN08241941 32440 60000 10235 20210 30135 40141 85420 333 56990 58017 70000 84616 86458=
0136419410999992022110418004+23267+090700FM-12+999999999V0209999C00001024001C9004000199+02351+02001101471ADDAA124999999GA1031+004501061GA2051+024001041GE19AGL   +99999+99999GF105991031999004501999999MA1999999101241MD1999999+0201REMSYN004BUFR
0200419410999992022110500004+23267+090700FM-12+000799999V0209999C000010240019N005000199+02271+02271101471ADDAA124000091GA1041+004201061GA2071+024001041GE19AGL   +99999+99999GF107991041999004201999999MA1999999101421REMSYN08241941 32450 70000 10227 20227 30142 40147 85420 333 56990 58015 70000 84614 87458=
0219419410999992022110503004+23267+090700FM-12+000799999V0209999C000010240019N006000199+02801+02201101581ADDAA124000091GA1041+004801061GA2061+024001041GE19AGL   +99999+99999GF106991041999004801999999KA1240N+02251MA1999999101521REMSYN08841941 32456 60000 10280 20220 30152 40158 85420 333 20225 56990 58010 70000 84616 86458=
0200419410999992022110506004+23267+090700FM-12+000799999V0203601N002110240019N006000199+03001+02401101431ADDAA124000091GA1041+004501061GA2071+024001041GE19AGL   +99999+99999GF107991041999004501999999MA1999999101371REMSYN08241941 32456 73604 10300 20240 30137 40143 85420 333 56990 58019 70000 84615 87458=
0241419410999992022110512004+23267+090700FM-12+000799999V0209999C00001004201CN005000199+02751+02501101321ADDAA124000091GA1051+004201061GA2011+007801091GA3081+024001041GE19AGL   +99999+99999GF108991051999004201999999KA1240M+03201MA1999999101261REMSYN09441941 32450 80000 10275 20250 30126 40132 8632/ 333 10320 56999 58028 70000 85614 81926 88458=
0200419410999992022110515004+23267+090700FM-12+000799999V0209999C000010240019N005000199+02551+02401101541ADDAA124000091GA1041+004801061GA2061+024001041GE19AGL   +99999+99999GF106991041999004801999999MA1999999101481REMSYN08241941 32450 60000 10255 20240 30148 40154 85420 333 56990 58007 70000 84616 86458=
0200419410999992022110518004+23267+090700FM-12+000799999V0209999C000010240019N004000199+02531+02301101601ADDAA124000091GA1041+004801061GA2061+024001041GE19AGL   +99999+99999GF106991041999004801999999MA1999999101541REMSYN08241941 32440 60000 10253 20230 30154 40160 85420 333 56990 58012 70000 84616 86458=
0200419410999992022110521004+23267+090700FM-12+000799999V0209999C00001024001CN004000199+02651+02601101181ADDAA124000091GA1031+004801061GA2051+024001041GE19AGL   +99999+99999GF105991031999004801999999MA1999999101131REMSYN08241941 32440 50000 10265 20260 30113 40118 84420 333 56990 50010 70000 83616 85458=
0200419410999992022110600004+23267+090700FM-12+000799999V0209999C000010240019N005000199+02151+02101101601ADDAA124000091GA1041+004801061GA2071+024001041GE19AGL   +99999+99999GF107991041999004801999999MA1999999101541REMSYN08241941 32450 70000 10215 20210 30154 40160 85420 333 56990 58012 70000 84616 87458=
0306419410999992022110603004+23267+090700FM-12+000799999V0209999C00001004801CN005000199+02601+02601999999ADDAA103003031AA224046031AY161021AY221021GA1051+004801061GA2011+009001091GA3081+024001041GE19AGL   +99999+99999GF108991051999004801999999KA1240N+02461MW1211REMSYN10641941 21450 80000 10260 20260 30045 40051 72162 8632/ 333 20246 56999 58003 6003/ 70460 85616 81930 88458=EQDQ011004.53APOSP Q021005.13APOSLP
0200419410999992022110606004+23267+090700FM-12+000799999V0203601N001010240019N006000199+03161+02101101511ADDAA124000091GA1041+004801061GA2061+024001041GE19AGL   +99999+99999GF106991041999004801999999MA1999999101451REMSYN08241941 32456 63602 10316 20210 30145 40151 85420 333 56990 58008 70000 84616 86458=
0200419410999992022110609004+23267+090700FM-12+000799999V0203601N001010240019N006000199+03201+02201100971ADDAA124000091GA1041+004801061GA2061+024001041GE19AGL   +99999+99999GF106991041999004801999999MA1999999100911REMSYN08241941 32456 63602 10320 20220 30091 40097 85420 333 56990 59006 70000 84616 86458=
0219419410999992022110612004+23267+090700FM-12+000799999V0209999C000010240019N005000199+02741+02301101031ADDAA124000091GA1041+004801061GA2061+024001041GE19AGL   +99999+99999GF106991041999004801999999KA1240M+03281MA1999999100971REMSYN08841941 32450 60000 10274 20230 30097 40103 85420 333 10328 56990 58006 70000 84616 86458=
0120419410999992022110615004+23267+090700FM-12+999999999V0209999C0000122000199004000199+02421+02301101451ADDAA124999999GA1031+005401061GE19AGL   +99999+99999GF103991031999005401999999MA1999999101391MD1999999-0091REMSYN004BUFR
0219419410999992022110618004+23267+090700FM-12+000799999V0203601N00101999999CN004000199+02731+02401101191ADDAA124000091GA1031+005401061GA2041+036001031GE19AGL   +99999+99999GF104991031999005401999999MA1999999101141REMSYN08241941 32440 43602 10273 20240 30114 40119 83530 333 56990 58022 70000 83618 84362=EQDQ01 036003SCOCIG
0178419410999992022110621004+23267+090700FM-12+000799999V0209999C000012200019N004000199+02301+02201101391ADDAA124000091GA1031+005401061GE19AGL   +99999+99999GF103991031999005401999999MA1999999101331REMSYN07641941 32440 30000 10230 20220 30133 40139 83500 333 56900 58004 70000 83618=
0200419410999992022110700004+23267+090700FM-12+000799999V0209999C000010240019N005000199+02131+02001101471ADDAA124000091GA1041+004801061GA2061+024001041GE19AGL   +99999+99999GF106991041999004801999999MA1999999101421REMSYN08241941 32450 60000 10213 20200 30142 40147 85420 333 56990 59012 70000 84616 86458=
0197419410999992022110703004+23267+090700FM-12+000799999V0209999C000012200019N006000199+02851+02201101631ADDAA124000091GA1031+005401061GE19AGL   +99999+99999GF103991031999005401999999KA1240N+02121MA1999999101581REMSYN08241941 32456 30000 10285 20220 30158 40163 83500 333 20212 56900 59011 70000 83618=
0200419410999992022110706004+23267+090700FM-12+000799999V0209999C000010240019N006000199+03061+02001101451ADDAA124000091GA1041+004801061GA2061+024001041GE19AGL   +99999+99999GF106991041999004801999999MA1999999101391REMSYN08241941 32456 60000 10306 20200 30139 40145 85420 333 56990 59006 70000 84616 86458=
0178419410999992022110709004+23267+090700FM-12+000799999V0209999C000012200019N006000199+03131+02001101181ADDAA124000091GA1031+005401061GE19AGL   +99999+99999GF103991031999005401999999MA1999999101121REMSYN07641941 32456 30000 10313 20200 30112 40118 83500 333 56900 59004 70000 83618=
0197419410999992022110712004+23267+090700FM-12+000799999V0209999C000012200019N005000199+02561+02301101231ADDAA124000091GA1031+005401061GE19AGL   +99999+99999GF103991031999005401999999KA1240M+03241MA1999999101171REMSYN08241941 32450 30000 10256 20230 30117 40123 83500 333 10324 56900 58001 70000 83618=
0178419410999992022110715004+23267+090700FM-12+000799999V0209999C000012200019N004000199+02401+02001101421ADDAA124000091GA1031+005401061GE19AGL   +99999+99999GF103991031999005401999999MA1999999101361REMSYN07641941 32440 30000 10240 20200 30136 40142 83500 333 56900 59003 70000 83618=
0178419410999992022110718004+23267+090700FM-12+000799999V0209999C000012200019N004000199+02201+02101101461ADDAA124000091GA1031+005401061GE19AGL   +99999+99999GF103991031999005401999999MA1999999101401REMSYN07641941 32440 30000 10220 20210 30140 40146 83500 333 56900 59003 70000 83618=
0178419410999992022110721004+23267+090700FM-12+000799999V0209999C000012200019N004000199+02151+02101101401ADDAA124000091GA1031+005401061GE19AGL   +99999+99999GF103991031999005401999999MA1999999101341REMSYN07641941 32440 30000 10215 20210 30134 40140 83500 333 56900 58001 70000 83618=
0200419410999992022110800004+23267+090700FM-12+000799999V0209999C00001024001CN005000199+02151+02151101431ADDAA124000091GA1031+004801061GA2051+024001041GE19AGL   +99999+99999GF105991031999004801999999MA1999999101381REMSYN08241941 32450 50000 10215 20215 30138 40143 84420 333 56990 59004 70000 83616 85458=
0219419410999992022110803004+23267+090700FM-12+000799999V0203101N00101024001CN006000199+02601+02101101651ADDAA124000091GA1031+004801061GA2051+024001041GE19AGL   +99999+99999GF105991031999004801999999KA1240N+02141MA1999999101601REMSYN08841941 32456 53102 10260 20210 30160 40165 84420 333 20214 56990 58002 70000 83616 85458=
0178419410999992022110806004+23267+090700FM-12+000799999V0203101N001012200019N006000199+03031+01801101451ADDAA124000091GA1031+005401061GE19AGL   +99999+99999GF103991031999005401999999MA1999999101391REMSYN07641941 32456 33102 10303 20180 30139 40145 83500 333 56900 58000 70000 83618=
0136419410999992022110809004+23267+090700FM-12+999999999V0209999C0000102400199006000199+03101+02001101231ADDAA124999999GA1041+004801061GA2061+024001041GE19AGL   +99999+99999GF106991041999004801999999MA1999999101191MD1999999+0061REMSYN004BUFR
0219419410999992022110812004+23267+090700FM-12+000799999V0209999C000010240019N005000199+02651+02201101281ADDAA124000091GA1041+004801061GA2061+024001041GE19AGL   +99999+99999GF106991041999004801999999KA1240M+03231MA1999999101221REMSYN08841941 32450 60000 10265 20220 30122 40128 85420 333 10323 56990 58005 70000 84616 86458=
0178419410999992022110815004+23267+090700FM-12+000799999V0209999C000012200019N005000199+02441+02201101411ADDAA124000091GA1031+005401061GE19AGL   +99999+99999GF103991031999005401999999MA1999999101351REMSYN07641941 32450 30000 10244 20220 30135 40141 83500 333 56900 59001 70000 83618=
0178419410999992022110818004+23267+090700FM-12+000799999V0209999C000012200019N004000199+02271+02201101441ADDAA124000091GA1031+005401061GE19AGL   +99999+99999GF103991031999005401999999MA1999999101391REMSYN07641941 32440 30000 10227 20220 30139 40144 83500 333 56900 58005 70000 83618=
0172419410999992022110821004+23267+090700FM-12+000799999V0209999C000012200019N004000199+02261+02201101411ADDAA124000091GA1031+004501061GE19AGL   +99999+99999GF103991031999004501999999MA1999999101361REMSYN07041941 32440 30000 10226 20220 30136 40141 83500 333 56900 58002 70000=
0200419410999992022110900004+23267+090700FM-12+000799999V0209999C000010240019N005000199+02241+02201101351ADDAA124000091GA1041+004801061GA2061+024001041GE19AGL   +99999+99999GF106991041999004801999999MA1999999101301REMSYN08241941 32450 60000 10224 20220 30130 40135 85420 333 56990 59008 70000 84616 86458=
0197419410999992022110903004+23267+090700FM-12+000799999V0209999C000012200019N006000199+02801+02301101531ADDAA124000091GA1031+005401061GE19AGL   +99999+99999GF103991031999005401999999KA1240N+02231MA1999999101481REMSYN08241941 32456 30000 10280 20230 30148 40153 83500 333 20223 56900 59012 70000 83618=
0178419410999992022110906004+23267+090700FM-12+000799999V0202701N001512200019N006000199+03121+02001101441ADDAA124000091GA1031+005401061GE19AGL   +99999+99999GF103991031999005401999999MA1999999101381REMSYN07641941 32456 32703 10312 20200 30138 40144 83500 333 56900 59001 70000 83618=
0200419410999992022110909004+23267+090700FM-12+000799999V0200901N001510240019N006000199+03081+01801101231ADDAA124000091GA1041+004801061GA2061+024001041GE19AGL   +99999+99999GF106991041999004801999999MA1999999101171REMSYN08241941 32456 60903 10308 20180 30117 40123 85420 333 56990 58000 70000 84616 86458=
0219419410999992022110912004+23267+090700FM-12+000799999V0209999C000010240019N005000199+02551+02301101281ADDAA124000091GA1041+004801061GA2061+024001041GE19AGL   +99999+99999GF106991041999004801999999KA1240M+03251MA1999999101221REMSYN08841941 32450 60000 10255 20230 30122 40128 85420 333 10325 56990 58000 70000 84616 86458=
0200419410999992022110915004+23267+090700FM-12+000799999V0200901N001510240019N005000199+02451+02201101351ADDAA124000091GA1041+004801061GA2071+024001041GE19AGL   +99999+99999GF107991041999004801999999MA1999999101291REMSYN08241941 32450 70903 10245 20220 30129 40135 85420 333 56990 59006 70000 84616 87458=
0200419410999992022110918004+23267+090700FM-12+000799999V0209999C000010240019N004000199+02401+02101101411ADDAA124000091GA1041+004801061GA2071+024001041GE19AGL   +99999+99999GF107991041999004801999999MA1999999101351REMSYN08241941 32440 70000 10240 20210 30135 40141 85420 333 56990 59004 70000 84616 87458=
0200419410999992022110921004+23267+090700FM-12+000799999V0209999C000010240019N004000199+02251+02251101331ADDAA124000091GA1041+004801061GA2071+024001041GE19AGL   +99999+99999GF107991041999004801999999MA1999999101281REMSYN08241941 32440 70000 10225 20225 30128 40133 85420 333 56990 59008 70000 84616 87458=
0200419410999992022111000004+23267+090700FM-12+000799999V0200901N001510240019N005000199+02151+02151101401ADDAA124000091GA1041+004501061GA2071+024001041GE19AGL   +99999+99999GF107991041999004501999999MA1999999101351REMSYN08241941 32450 70903 10215 20215 30135 40140 85420 333 56990 58005 70000 84615 87458=
0219419410999992022111003004+23267+090700FM-12+000799999V0200901N002110240019N006000199+02641+02201101551ADDAA124000091GA1041+004501061GA2061+024001041GE19AGL   +99999+99999GF106991041999004501999999KA1240N+02131MA1999999101501REMSYN08841941 32456 60904 10264 20220 30150 40155 85420 333 20213 56990 58002 70000 84615 86458=
0200419410999992022111006004+23267+090700FM-12+000799999V0209999C000010240019N006000199+03101+02001101341ADDAA124000091GA1041+004801061GA2061+024001041GE19AGL   +99999+99999GF106991041999004801999999MA1999999101281REMSYN08241941 32456 60000 10310 20200 30128 40134 85420 333 56990 59010 70000 84616 86458=
0200419410999992022111009004+23267+090700FM-12+000799999V0209999C000010240019N006000199+03101+01501101191ADDAA124000091GA1041+004801061GA2061+024001041GE19AGL   +99999+99999GF106991041999004801999999MA1999999101131REMSYN08241941 32456 60000 10310 20150 30113 40119 85420 333 56990 59004 70000 84616 86458=
0219419410999992022111012004+23267+090700FM-12+000799999V0209999C000010240019N005000199+02701+01901101091ADDAA124000091GA1041+004801061GA2061+024001041GE19AGL   +99999+99999GF106991041999004801999999KA1240M+03221MA1999999101031REMSYN08841941 32450 60000 10270 20190 30103 40109 85420 333 10322 56990 59019 70000 84616 86458=
0188419410999992022111015004+23267+090700FM-12+000799999V0209999C000019999999N005000199+02351+02201101351ADDAA124000091GA1051+004501061GA2999+999999051GE19AGL   +99999+99999GF106991051999004501999999MA1999999101291REMSYN07041941 32450 60000 10235 20220 30129 40135 85420 333 56990 58000 70000=
0200419410999992022111018004+23267+090700FM-12+000799999V0209999C000010240019N004000199+02301+02101101501ADDAA124000091GA1041+004501061GA2061+024001041GE19AGL   +99999+99999GF106991041999004501999999MA1999999101441REMSYN08241941 32440 60000 10230 20210 30144 40150 85420 333 56990 58009 70000 84615 86458=
0200419410999992022111021004+23267+090700FM-12+000799999V0209999C000010180019N004000199+02201+02101101401ADDAA124000091GA1041+004201061GA2071+018001041GE19AGL   +99999+99999GF107991041999004201999999MA1999999101351REMSYN08241941 32440 70000 10220 20210 30135 40140 85420 333 56990 58007 70000 84614 87456=
0200419410999992022111100004+23267+090700FM-12+000799999V0200901N001510240019N005000199+02151+02151101371ADDAA124000091GA1041+004501061GA2061+024001041GE19AGL   +99999+99999GF106991041999004501999999MA1999999101321REMSYN08241941 32450 60903 10215 20215 30132 40137 85420 333 56990 59003 70000 84615 86458=
0136419410999992022111112004+23267+090700FM-12+999999999V0209999C0000102100199005000199+02651+02101101151ADDAA124999999GA1041+004801061GA2061+021001041GE19AGL   +99999+99999GF106991041999004801999999MA1999999101091MD1999999+0061REMSYN004BUFR
0200419410999992022111200004+23267+090700FM-12+000799999V0201401N001510180019N004000199+02101+02001101431ADDAA124000091GA1031+003601061GA2071+018001041GE19AGL   +99999+99999GF107991031999003601999999MA1999999101371REMSYN08241941 32340 71403 10210 20200 30137 40143 85420 333 56199 58005 70000 83612 87456=
0219419410999992022111203004+23267+090700FM-12+000799999V0203601N001510210019N006000199+02621+02101101491ADDAA124000091GA1041+004201061GA2061+021001041GE19AGL   +99999+99999GF106991041999004201999999KA1240N+02081MA1999999101431REMSYN08841941 32456 63603 10262 20210 30143 40149 85420 333 20208 56990 59001 70000 84614 86457=
0200419410999992022111206004+23267+090700FM-12+000799999V0203601N001010240019N006000199+03021+01601101451ADDAA124000091GA1041+004801061GA2061+024001041GE19AGL   +99999+99999GF106991041999004801999999MA1999999101391REMSYN08241941 32456 63602 10302 20160 30139 40145 85420 333 56990 58000 70000 84616 86458=
0200419410999992022111209004+23267+090700FM-12+000799999V0203601N00151024001CN006000199+03051+01701101191ADDAA124000091GA1031+004801061GA2051+024001041GE19AGL   +99999+99999GF105991031999004801999999MA1999999101131REMSYN08241941 32456 53603 10305 20170 30113 40119 84420 333 56990 58005 70000 83616 85458=
0219419410999992022111212004+23267+090700FM-12+000799999V0209999C00001024001CN005000199+02601+01901101181ADDAA124000091GA1031+004801061GA2051+024001041GE19AGL   +99999+99999GF105991031999004801999999KA1240M+03171MA1999999101121REMSYN08841941 32450 50000 10260 20190 30112 40118 84420 333 10317 56990 58003 70000 83616 85458=
0200419410999992022111215004+23267+090700FM-12+000799999V0209999C000010240019N005000199+02301+02001101491ADDAA124000091GA1041+004201061GA2061+024001041GE19AGL   +99999+99999GF106991041999004201999999MA1999999101431REMSYN08241941 32450 60000 10230 20200 30143 40149 85420 333 56990 58006 70000 84614 86458=
0200419410999992022111218004+23267+090700FM-12+000799999V0209999C000010210019N004000199+02241+01901101601ADDAA124000091GA1041+004201061GA2061+021001041GE19AGL   +99999+99999GF106991041999004201999999MA1999999101541REMSYN08241941 32440 60000 10224 20190 30154 40160 85420 333 56990 58002 70000 84614 86457=
0200419410999992022111221004+23267+090700FM-12+000799999V0209999C000010240019N005000199+02151+02101101601ADDAA124000091GA1041+004801061GA2071+024001041GE19AGL   +99999+99999GF107991041999004801999999MA1999999101541REMSYN08241941 32450 70000 10215 20210 30154 40160 85420 333 56990 58012 70000 84616 87458=
0250419410999992022111300004+23267+090700FM-12+000799999V0203601N00151003601CN003000199+02201+02201101421ADDAA124000091AY121021AY221021GA1021+002401071GA2031+003601061GA3061+018001041GE19AGL   +99999+99999GF106991021999002401999999MA1999999101371MW1051REMSYN09441941 31330 63603 10220 20220 30137 40142 70522 85720 333 56980 58000 70000 82708 83612 86456=
0241419410999992022111303004+23267+090700FM-12+000799999V0203101N00151004201CN005000199+02881+02601101291ADDAA124000091GA1051+004201061GA2011+007801091GA3081+021001041GE19AGL   +99999+99999GF108991051999004201999999KA1240N+02681MA1999999101241REMSYN09441941 32450 83103 10288 20260 30124 40129 8632/ 333 20268 56999 59016 70000 85614 81926 88457=
0222419410999992022111306004+23267+090700FM-12+000799999V0203101N00211004201CN005000199+03101+02601101101ADDAA124000091GA1051+004201061GA2011+007501091GA3081+018001041GE19AGL   +99999+99999GF108991051999004201999999MA1999999101041REMSYN08841941 32450 83104 10310 20260 30104 40110 8632/ 333 56999 59024 70000 85614 81925 88456=
0178419410999992022111309004+23267+090700FM-12+000799999V0203101N001012200019N007000199+03231+01502101221ADDAA124000091GA1031+005401061GE19AGL   +99999+99999GF103991031999005401999999MA1999999101161REMSYN07641941 32457 33102 10323 20150 30116 40122 83500 333 56900 58000 70000 83618=
0238419410999992022111312004+23267+090700FM-12+000799999V0203101N00151999999CN005000199+02601+01901101151ADDAA124000091GA1031+005401061GA2041+036001031GE19AGL   +99999+99999GF104991031999005401999999KA1240M+03121MA1999999101091REMSYN08841941 32450 43103 10260 20190 30109 40115 83530 333 10312 56990 59003 70000 83618 84362=EQDQ01 036003SCOCIG
0219419410999992022111315004+23267+090700FM-12+000799999V0203601N00101999999CN004000199+02301+02001101391ADDAA124000091GA1031+005401061GA2041+036001031GE19AGL   +99999+99999GF104991031999005401999999MA1999999101341REMSYN08241941 32440 43602 10230 20200 30134 40139 83530 333 56990 59009 70000 83618 84362=EQDQ01 036003SCOCIG
0219419410999992022111318004+23267+090700FM-12+000799999V0209999C00001999999CN004000199+02521+02401101181ADDAA124000091GA1031+005401061GA2041+036001031GE19AGL   +99999+99999GF104991031999005401999999MA1999999101121REMSYN08241941 32440 40000 10252 20240 30112 40118 83530 333 56990 59001 70000 83618 84362=EQDQ01 036003SCOCIG
0219419410999992022111321004+23267+090700FM-12+000799999V0209999C00001999999CN004000199+02181+01801101351ADDAA124000091GA1031+005401061GA2041+036001031GE19AGL   +99999+99999GF104991031999005401999999MA1999999101301REMSYN08241941 32440 40000 10218 20180 30130 40135 83530 333 56990 59011 70000 83618 84362=EQDQ01 036003SCOCIG
0200419410999992022111400004+23267+090700FM-12+000799999V0203101N001010240019N005000199+01971+01901101421ADDAA124000091GA1041+004801061GA2061+024001041GE19AGL   +99999+99999GF106991041999004801999999MA1999999101361REMSYN08241941 32450 63102 10197 20190 30136 40142 85420 333 56990 59001 70000 84616 86458=
0219419410999992022111403004+23267+090700FM-12+000799999V0203101N001010240019N006000199+02551+02001101581ADDAA124000091GA1041+004801061GA2061+024001041GE19AGL   +99999+99999GF106991041999004801999999KA1240N+01961MA1999999101521REMSYN08841941 32456 63102 10255 20200 30152 40158 85420 333 20196 56990 58008 70000 84616 86458=
0200419410999992022111406004+23267+090700FM-12+000799999V0203601N00101036001CN006000199+02881+01801101411ADDAA124000091GA1031+005401061GA2041+036001031GE19AGL   +99999+99999GF106991031999005401999999MA1999999101361REMSYN08241941 32456 63602 10288 20180 30136 40141 83530 333 56990 58007 70000 83618 84362=
0219419410999992022111409004+23267+090700FM-12+000799999V0203601N00101999999CN006000199+02981+01401101151ADDAA124000091GA1031+005401061GA2041+036001031GE19AGL   +99999+99999GF104991031999005401999999MA1999999101091REMSYN08241941 32456 43602 10298 20140 30109 40115 83530 333 56990 58005 70000 83618 84362=EQDQ01 036003SCOCIG
0219419410999992022111415004+23267+090700FM-12+000799999V0209999C00001999999CN005000199+02161+01901101271ADDAA124000091GA1031+005401061GA2041+036001031GE19AGL   +99999+99999GF104991031999005401999999MA1999999101221REMSYN08241941 32450 40000 10216 20190 30122 40127 83530 333 56990 59012 70000 83618 84362=EQDQ01 036003SCOCIG
0219419410999992022111418004+23267+090700FM-12+000799999V0209999C00001999999CN004000199+02101+01801101351ADDAA124000091GA1031+005401061GA2041+036001031GE19AGL   +99999+99999GF104991031999005401999999MA1999999101301REMSYN08241941 32440 40000 10210 20180 30130 40135 83530 333 56990 58001 70000 83618 84362=EQDQ01 036003SCOCIG
0219419410999992022111421004+23267+090700FM-12+000799999V0209999C00001999999CN004000199+02041+01801101311ADDAA124000091GA1031+005401061GA2041+036001031GE19AGL   +99999+99999GF104991031999005401999999MA1999999101251REMSYN08241941 32440 40000 10204 20180 30125 40131 83530 333 56990 59005 70000 83618 84362=EQDQ01 036003SCOCIG
0200419410999992022111500004+23267+090700FM-12+000799999V0209999C000010240019N005000199+01951+01901101281ADDAA124000091GA1041+004801061GA2061+024001041GE19AGL   +99999+99999GF106991041999004801999999MA1999999101221REMSYN08241941 32450 60000 10195 20190 30122 40128 85420 333 56990 59014 70000 84616 86458=
0197419410999992022111503004+23267+090700FM-12+000799999V0209999C000012200019N006000199+02641+01901101481ADDAA124000091GA1031+005401061GE19AGL   +99999+99999GF103991031999005401999999KA1240N+01951MA1999999101421REMSYN08241941 32456 30000 10264 20190 30142 40148 83500 333 20195 56900 59010 70000 83618=
0178419410999992022111506004+23267+090700FM-12+000799999V0203601N001012200019N006000199+02951+02001101271ADDAA124000091GA1031+005401061GE19AGL   +99999+99999GF103991031999005401999999MA1999999101221REMSYN07641941 32456 33602 10295 20200 30122 40127 83500 333 56900 59014 70000 83618=
0178419410999992022111509004+23267+090700FM-12+000799999V0203601N001012200019N006000199+03001+01901101051ADDAA124000091GA1031+005401061GE19AGL   +99999+99999GF103991031999005401999999MA1999999101001REMSYN07641941 32456 33602 10300 20190 30100 40105 83500 333 56900 59009 70000 83618=
0238419410999992022111512004+23267+090700FM-12+000799999V0209999C00001999999CN005000199+02401+02001101041ADDAA124000091GA1031+005401061GA2041+036001031GE19AGL   +99999+99999GF104991031999005401999999KA1240M+03071MA1999999100991REMSYN08841941 32450 40000 10240 20200 30099 40104 83530 333 10307 56990 59008 70000 83618 84362=EQDQ01 036003SCOCIG
0200419410999992022111515004+23267+090700FM-12+000799999V0209999C000010240019N004000199+02301+01901101221ADDAA124000091GA1041+004801061GA2061+024001041GE19AGL   +99999+99999GF106991041999004801999999MA1999999101171REMSYN08241941 32440 60000 10230 20190 30117 40122 85420 333 56990 59005 70000 84616 86458=
0200419410999992022111518004+23267+090700FM-12+000799999V0209999C000010240019N004000199+02201+02101101271ADDAA124000091GA1041+004801061GA2061+024001041GE19AGL   +99999+99999GF106991041999004801999999MA1999999101221REMSYN08241941 32440 60000 10220 20210 30122 40127 85420 333 56990 59008 70000 84616 86458=
0200419410999992022111521004+23267+090700FM-12+000799999V0209999C000010240019N004000199+02151+02151101221ADDAA124000091GA1041+004801061GA2061+024001041GE19AGL   +99999+99999GF106991041999004801999999MA1999999101161REMSYN08241941 32440 60000 10215 20215 30116 40122 85420 333 56990 59009 70000 84616 86458=
0200419410999992022111600004+23267+090700FM-12+000799999V0209999C000010240019N005000199+02051+02001101201ADDAA124000091GA1041+004801061GA2061+024001041GE19AGL   +99999+99999GF106991041999004801999999MA1999999101141REMSYN08241941 32450 60000 10205 20200 30114 40120 85420 333 56990 59008 70000 84616 86458=
0197419410999992022111603004+23267+090700FM-12+000799999V0209999C000012200019N006000199+02551+02101101381ADDAA124000091GA1031+005401061GE19AGL   +99999+99999GF103991031999005401999999KA1240N+02001MA1999999101321REMSYN08241941 32456 30000 10255 20210 30132 40138 83500 333 20200 56900 59010 70000 83618=
0200419410999992022111606004+23267+090700FM-12+000799999V0203101N001510210019N006000199+02851+02401101171ADDAA124000091GA1041+004201061GA2061+021001041GE19AGL   +99999+99999GF106991041999004201999999MA1999999101171REMSYN08241941 32456 63103 10285 20240 30117 40117 85420 333 56990 59010 70000 84614 86457=
0200419410999992022111609004+23267+090700FM-12+000799999V0203601N001510210019N006000199+03001+01901100911ADDAA124000091GA1041+004201061GA2061+021001041GE19AGL   +99999+99999GF106991041999004201999999MA1999999100861REMSYN08241941 32456 63603 10300 20190 30086 40091 85420 333 56990 59014 70000 84614 86457=
0219419410999992022111612004+23267+090700FM-12+000799999V0209999C000010210019N005000199+02551+01701100971ADDAA124000091GA1041+004201061GA2061+021001041GE19AGL   +99999+99999GF106991041999004201999999KA1240M+03051MA1999999100911REMSYN08841941 32450 60000 10255 20170 30091 40097 85420 333 10305 56990 59008 70000 84614 86457=
0200419410999992022111615004+23267+090700FM-12+000799999V0209999C000010240019N005000199+02401+02101101161ADDAA124000091GA1041+004801061GA2061+024001041GE19AGL   +99999+99999GF106991041999004801999999MA1999999101111REMSYN08241941 32450 60000 10240 20210 30111 40116 85420 333 56990 59006 70000 84616 86458=
0200419410999992022111618004+23267+090700FM-12+000799999V0209999C000010240019N004000199+02301+02101101231ADDAA124000091GA1041+004801061GA2061+024001041GE19AGL   +99999+99999GF106991041999004801999999MA1999999101181REMSYN08241941 32440 60000 10230 20210 30118 40123 85420 333 56990 59004 70000 84616 86458=
0200419410999992022111621004+23267+090700FM-12+000799999V0209999C000010240019N004000199+02201+02101101161ADDAA124000091GA1041+004801061GA2061+024001041GE19AGL   +99999+99999GF106991041999004801999999MA1999999101101REMSYN08241941 32440 60000 10220 20210 30110 40116 85420 333 56990 59006 70000 84616 86458=
0110419410999992022111700004+23267+090700FM-12+000799999V0209999C000019999999N005000199+02001+02001101151ADDAA124000091MA1999999101091MD1999999-0051REMSYN05841941 32950 00000 10200 20200 30109 40115 333 59005 70000=
0219419410999992022111703004+23267+090700FM-12+000799999V0203601N001510180019N005000199+02561+02201101281ADDAA124000091GA1041+003901061GA2061+018001041GE19AGL   +99999+99999GF106991041999003901999999KA1240N+01981MA1999999101221REMSYN08841941 32450 63603 10256 20220 30122 40128 85420 333 20198 56990 59010 70000 84613 86456=
0200419410999992022111706004+23267+090700FM-12+000799999V0203601N001510240019N006000199+02951+01901101161ADDAA124000091GA1041+004801061GA2061+024001041GE19AGL   +99999+99999GF106991041999004801999999MA1999999101101REMSYN08241941 32456 63603 10295 20190 30110 40116 85420 333 56990 59002 70000 84616 86458=
0110419410999992022111709004+23267+090700FM-12+000799999V0203101N001519999999N006000199+03001+01601100961ADDAA124000091MA1999999100911MD1999999+0061REMSYN05841941 32956 03103 10300 20160 30091 40096 333 58006 70000=
0129419410999992022111712004+23267+090700FM-12+000799999V0203601N001519999999N005000199+02551+02001100961ADDAA124000091KA1240M+03101MA1999999100901MD1999999+0011REMSYN06441941 32950 03603 10255 20200 30090 40096 333 10310 58001 70000=
0110419410999992022111715004+23267+090700FM-12+000799999V0209999C000019999999N005000199+02401+02101101221ADDAA124000091MA1999999101171MD1999999+0061REMSYN05841941 32950 00000 10240 20210 30117 40122 333 58006 70000=
0110419410999992022111718004+23267+090700FM-12+000799999V0209999C000019999999N004000199+02201+02201101281ADDAA124000091MA1999999101221MD1999999+0041REMSYN05841941 32940 00000 10220 20220 30122 40128 333 58004 70000=
0110419410999992022111721004+23267+090700FM-12+000799999V0209999C000019999999N004000199+02101+02001101221ADDAA124000091MA1999999101161MD1999999+0061REMSYN05841941 32940 00000 10210 20200 30116 40122 333 58006 70000=
0110419410999992022111800004+23267+090700FM-12+000799999V0203601N001519999999N005000199+02051+01901101391ADDAA124000091MA1999999101331MD1999999+0241REMSYN05841941 32950 03603 10205 20190 30133 40139 333 58024 70000=
0129419410999992022111803004+23267+090700FM-12+000799999V0209999C000019999999N006000199+02451+02001101441ADDAA124000091KA1240N+02001MA1999999101381MD1999999+0161REMSYN06441941 32956 00000 10245 20200 30138 40144 333 20200 58016 70000=
0110419410999992022111809004+23267+090700FM-12+000799999V0203601N001519999999N006000199+03001+01801101051ADDAA124000091MA1999999100991MD1999999+0071REMSYN05841941 32456 03603 10300 20180 30099 40105 333 58007 70000=
0197419410999992022111812004+23267+090700FM-12+000799999V0209999C00001004501CN005000199+02501+01801101071ADDAA124000091GA1051+004501061GE19AGL   +99999+99999GF105991051999004501999999KA1240M+03131MA1999999101011REMSYN08241941 32450 50000 10250 20180 30101 40107 85500 333 10313 56900 58011 70000 85615=
0178419410999992022111815004+23267+090700FM-12+000799999V0209999C00001004501CN005000199+02201+02001101281ADDAA124000091GA1051+004501061GE19AGL   +99999+99999GF105991051999004501999999MA1999999101231REMSYN07641941 32450 50000 10220 20200 30123 40128 85500 333 56900 58006 70000 85615=
0178419410999992022111821004+23267+090700FM-12+000799999V0203601N00151004501CN004000199+02051+02001101261ADDAA124000091GA1051+004501061GE19AGL   +99999+99999GF105991051999004501999999MA1999999101201REMSYN07641941 32440 53603 10205 20200 30120 40126 85500 333 56990 58004 70000 85615=
0200419410999992022111900004+23267+090700FM-12+000799999V0209999C000010240019N005000199+01801+01701101351ADDAA124000091GA1041+004801061GA2061+024001041GE19AGL   +99999+99999GF106991041999004801999999MA1999999101291REMSYN08241941 32450 60000 10180 20170 30129 40135 85420 333 56990 59004 70000 84616 86458=
0219419410999992022111903004+23267+090700FM-12+000799999V0203601N001510240019N006000199+02401+01901101461ADDAA124000091GA1041+004801061GA2061+024001041GE19AGL   +99999+99999GF106991041999004801999999KA1240N+01781MA1999999101401REMSYN08841941 32456 63603 10240 20190 30140 40146 85420 333 20178 56990 59003 70000 84616 86458=
0219419410999992022111912004+23267+090700FM-12+000799999V0203601N001510210019N005000199+02501+01901100981ADDAA124000091GA1041+004501061GA2061+021001041GE19AGL   +99999+99999GF106991041999004501999999KA1240M+03051MA1999999100931REMSYN08841941 32450 63603 10250 20190 30093 40098 85420 333 10305 56990 59008 70000 84615 86457=
0110419410999992022111915004+23267+090700FM-12+000799999V0209999C000019999999N005000199+02301+02101101231ADDAA124000091MA1999999101181MD1999999-0051REMSYN05841941 32950 00000 10230 20210 30118 40123 333 59005 70000=
0110419410999992022111918004+23267+090700FM-12+000799999V0209999C000019999999N004000199+02201+02201101261ADDAA124000091MA1999999101201MD1999999-0081REMSYN05841941 32940 00000 10220 20220 30120 40126 333 59008 70000=
0200419410999992022111921004+23267+090700FM-12+000799999V0209999C000010210019N004000199+02201+02001101461ADDAA124000091GA1041+004201061GA2061+021001041GE19AGL   +99999+99999GF106991041999004201999999MA1999999101411REMSYN08241941 32440 60000 10220 20200 30141 40146 85420 333 56990 58002 70000 84614 86457=
0200419410999992022112000004+23267+090700FM-12+000799999V0203601N002110240019N005000199+02181+02001101191ADDAA124000091GA1041+004801061GA2061+024001041GE19AGL   +99999+99999GF106991041999004801999999MA1999999101131REMSYN08241941 32450 63604 10218 20200 30113 40119 85420 333 56990 59016 70000 84616 86458=
0219419410999992022112003004+23267+090700FM-12+000799999V0203601N001510210019N006000199+02601+01801101331ADDAA124000091GA1041+004501061GA2061+021001041GE19AGL   +99999+99999GF106991041999004501999999KA1240N+02141MA1999999101271REMSYN08841941 32456 63603 10260 20180 30127 40133 85420 333 20214 56990 59013 70000 84615 86457=
0222419410999992022112006004+23267+090700FM-12+000799999V0203101N00211004201CN005000199+03101+02601101101ADDAA124000091GA1051+004201061GA2011+007501091GA3081+018001041GE19AGL   +99999+99999GF108991051999004201999999MA1999999101041REMSYN08841941 32450 83104 10310 20260 30104 40110 8632/ 333 56999 59024 70000 85614 81925 88456=
0200419410999992022112009004+23267+090700FM-12+000799999V0203601N001010210019N005000199+02961+02001100931ADDAA124000091GA1041+004501061GA2061+021001041GE19AGL   +99999+99999GF106991041999004501999999MA1999999100881REMSYN08241941 32450 63602 10296 20200 30088 40093 85420 333 56990 59003 70000 84615 86457=
0238419410999992022112012004+23267+090700FM-12+000799999V0203101N00151999999CN005000199+02601+01901101151ADDAA124000091GA1031+005401061GA2041+036001031GE19AGL   +99999+99999GF104991031999005401999999KA1240M+03121MA1999999101091REMSYN08841941 32450 43103 10260 20190 30109 40115 83530 333 10312 56990 59003 70000 83618 84362=EQDQ01 036003SCOCIG
0200419410999992022112015004+23267+090700FM-12+000799999V0209999C000010240019N004000199+02901+02601101311ADDAA124000091GA1041+004801061GA2061+024001041GE19AGL   +99999+99999GF106991041999004801999999MA1999999101251REMSYN08241941 32440 60000 10290 20260 30125 40131 85420 333 56990 58019 70000 84616 86458=
0200419410999992022112018004+23267+090700FM-12+000799999V0209999C000010240019N004000199+02451+02101101161ADDAA124000091GA1041+004801061GA2061+024001041GE19AGL   +99999+99999GF106991041999004801999999MA1999999101111REMSYN08241941 32440 60000 10245 20210 30111 40116 85420 333 56990 59009 70000 84616 86458=
0200419410999992022112021004+23267+090700FM-12+000799999V0209999C000010240019N004000199+02401+02001101101ADDAA124000091GA1041+004801061GA2061+024001041GE19AGL   +99999+99999GF106991041999004801999999MA1999999101051REMSYN08241941 32440 60000 10240 20200 30105 40110 85420 333 56990 59006 70000 84616 86458=
0200419410999992022112100004+23267+090700FM-12+000799999V0203601N002110240019N005000199+02131+02001101011ADDAA124000091GA1041+004801061GA2061+024001041GE19AGL   +99999+99999GF106991041999004801999999MA1999999100951REMSYN08241941 32450 63604 10213 20200 30095 40101 85420 333 56990 59018 70000 84616 86458=
0238419410999992022112103004+23267+090700FM-12+000799999V0203101N00151999999CN006000199+02501+02001101271ADDAA124000091GA1031+005401061GA2041+036001031GE19AGL   +99999+99999GF104991031999005401999999KA1240N+02111MA1999999101221REMSYN08841941 32456 43103 10250 20200 30122 40127 83530 333 20211 56990 59005 70000 83618 84362=EQDQ01 036003SCOCIG
0219419410999992022112106004+23267+090700FM-12+000799999V0203601N00151999999CN006000199+02901+01901101191ADDAA124000091GA1031+005401061GA2041+036001031GE19AGL   +99999+99999GF104991031999005401999999MA1999999101141REMSYN08241941 32456 43603 10290 20190 30114 40119 83530 333 56990 58003 70000 83618 84362=EQDQ01 036003SCOCIG
0178419410999992022112109004+23267+090700FM-12+000799999V0203601N001012200019N006000199+02911+01301100951ADDAA124000091GA1031+005401061GE19AGL   +99999+99999GF103991031999005401999999MA1999999100891REMSYN07641941 32456 33602 10291 20130 30089 40095 83500 333 56900 58001 70000 83618=
0197419410999992022112112004+23267+090700FM-12+000799999V0203601N001012200019N005000199+02511+01701100971ADDAA124000091GA1031+005401061GE19AGL   +99999+99999GF103991031999005401999999KA1240M+03071MA1999999100921REMSYN08241941 32450 33602 10251 20170 30092 40097 83500 333 10307 56900 58001 70000 83618=
0178419410999992022112115004+23267+090700FM-12+000799999V0203101N001012200019N004000199+02361+02001101151ADDAA124000091GA1031+005401061GE19AGL   +99999+99999GF103991031999005401999999MA1999999101101REMSYN07641941 32440 33102 10236 20200 30110 40115 83500 333 56900 58001 70000 83618=
0178419410999992022112118004+23267+090700FM-12+000799999V0209999C000012200019N004000199+02181+01901101191ADDAA124000091GA1031+005401061GE19AGL   +99999+99999GF103991031999005401999999MA1999999101141REMSYN07641941 32440 30000 10218 20190 30114 40119 83500 333 56900 58003 70000 83618=
0178419410999992022112121004+23267+090700FM-12+000799999V0209999C000012200019N004000199+02101+01801101131ADDAA124000091GA1031+005401061GE19AGL   +99999+99999GF103991031999005401999999MA1999999101081REMSYN07641941 32440 30000 10210 20180 30108 40113 83500 333 56900 58003 70000 83618=
0178419410999992022112200004+23267+090700FM-12+000799999V0209999C000012200019N005000199+02051+01801101251ADDAA124000091GA1031+005401061GE19AGL   +99999+99999GF103991031999005401999999MA1999999101191REMSYN07641941 32450 30000 10205 20180 30119 40125 83500 333 56900 58024 70000 83618=
0129419410999992022112203004+23267+090700FM-12+000799999V0203101N001519999999N006000199+02501+01701101381ADDAA124000091KA1240N+02031MA1999999101321MD1999999+0101REMSYN06441941 32956 03103 10250 20170 30132 40138 333 20203 58010 70000=
0110419410999992022112209004+23267+090700FM-12+000799999V0203101N002119999999N006000199+02801+01501100981ADDAA124000091MA1999999100931MD1999999+0041REMSYN05841941 32956 03104 10280 20150 30093 40098 333 58004 70000=
0129419410999992022112212004+23267+090700FM-12+000799999V0203101N001019999999N005000199+02351+01801100941ADDAA124000091KA1240M+02921MA1999999100891MD1999999-0031REMSYN06441941 32950 03102 10235 20180 30089 40094 333 10292 59003 70000=
0219419410999992022112215004+23267+090700FM-12+000799999V0203101N00101999999CN004000199+02241+01901101101ADDAA124000091GA1031+005401061GA2041+036001031GE19AGL   +99999+99999GF104991031999005401999999MA1999999101051REMSYN08241941 32440 43102 10224 20190 30105 40110 83530 333 56990 59005 70000 83618 84362=EQDQ01 036003SCOCIG
0219419410999992022112218004+23267+090700FM-12+000799999V0203101N00101999999CN004000199+02191+01901101151ADDAA124000091GA1031+005401061GA2041+036001031GE19AGL   +99999+99999GF104991031999005401999999MA1999999101101REMSYN08241941 32440 43102 10219 20190 30110 40115 83530 333 56990 59004 70000 83618 84362=EQDQ01 036003SCOCIG
0219419410999992022112221004+23267+090700FM-12+000799999V0203101N00151999999CN004000199+02101+01801101141ADDAA124000091GA1031+005401061GA2041+036001031GE19AGL   +99999+99999GF104991031999005401999999MA1999999101081REMSYN08241941 32440 43103 10210 20180 30108 40114 83530 333 56990 58000 70000 83618 84362=EQDQ01 036003SCOCIG
0219419410999992022112300004+23267+090700FM-12+000799999V0203101N00151999999CN005000199+02051+01901101131ADDAA124000091GA1031+008401061GA2041+036001031GE19AGL   +99999+99999GF104991031999008401999999MA1999999101071REMSYN08241941 32450 43103 10205 20190 30107 40113 83530 333 56990 59012 70000 83628 84362=EQDQ01 036003SCOCIG
0238419410999992022112303004+23267+090700FM-12+000799999V0203101N00211999999CN006000199+02421+01901101381ADDAA124000091GA1031+005401061GA2041+036001031GE19AGL   +99999+99999GF104991031999005401999999KA1240N+01991MA1999999101321REMSYN08841941 32456 43104 10242 20190 30132 40138 83530 333 20199 56990 58000 70000 83618 84362=EQDQ01 036003SCOCIG
0200419410999992022112306004+23267+090700FM-12+000799999V0203101N002110210019N006000199+02801+01801101231ADDAA124000091GA1041+004501061GA2061+021001041GE19AGL   +99999+99999GF106991041999004501999999MA1999999101181REMSYN08241941 32456 63104 10280 20180 30118 40123 85420 333 56990 58004 70000 84615 86457=
0200419410999992022112309004+23267+090700FM-12+000799999V0203101N001510210019N006000199+02901+01601100991ADDAA124000091GA1041+004501061GA2061+021001041GE19AGL   +99999+99999GF106991041999004501999999MA1999999100941REMSYN08241941 32456 63103 10290 20160 30094 40099 85420 333 56990 58001 70000 84615 86457=
0219419410999992022112312004+23267+090700FM-12+000799999V0209999C000010240019N005000199+02321+01901101031ADDAA124000091GA1041+004501061GA2061+024001041GE19AGL   +99999+99999GF106991041999004501999999KA1240M+02981MA1999999100981REMSYN08841941 32450 60000 10232 20190 30098 40103 85420 333 10298 56990 58009 70000 84615 86458=
0200419410999992022112315004+23267+090700FM-12+000799999V0209999C000010210019N005000199+02151+01901101111ADDAA124000091GA1041+004501061GA2061+021001041GE19AGL   +99999+99999GF106991041999004501999999MA1999999101061REMSYN08241941 32450 60000 10215 20190 30106 40111 85420 333 56990 58001 70000 84615 86457=
0200419410999992022112318004+23267+090700FM-12+000799999V0209999C000010240019N004000199+02101+01901101191ADDAA124000091GA1041+004801061GA2061+024001041GE19AGL   +99999+99999GF106991041999004801999999MA1999999101141REMSYN08241941 32440 60000 10210 20190 30114 40119 85420 333 56990 58004 70000 84616 86458=
0200419410999992022112321004+23267+090700FM-12+000799999V0209999C000010240019N004000199+02081+02001101161ADDAA124000091GA1041+004801061GA2061+024001041GE19AGL   +99999+99999GF106991041999004801999999MA1999999101101REMSYN08241941 32440 60000 10208 20200 30110 40116 85420 333 56990 58002 70000 84616 86458=
0228419410999992022112400004+23267+090700FM-12+000799999V0203601N001510180019N003000199+01901+01801101091ADDAA124000091AY121021AY221021GA1041+003601061GA2061+018001041GE19AGL   +99999+99999GF106991041999003601999999MA1999999101031MW1051REMSYN08841941 31430 63603 10190 20180 30103 40109 70522 85420 333 56990 59004 70000 84612 86456=
0219419410999992022112403004+23267+090700FM-12+000799999V0203101N001510180019N005000199+02351+01901101191ADDAA124000091GA1041+003901061GA2061+018001041GE19AGL   +99999+99999GF106991041999003901999999KA1240N+01881MA1999999101131REMSYN08841941 32450 63103 10235 20190 30113 40119 85420 333 20188 56990 59019 70000 84613 86456=
0200419410999992022112406004+23267+090700FM-12+000799999V0203601N001510240019N006000199+02801+01701101221ADDAA124000091GA1041+004801061GA2061+024001041GE19AGL   +99999+99999GF106991041999004801999999MA1999999101161REMSYN08241941 32456 63603 10280 20170 30116 40122 85420 333 56990 59002 70000 84616 86458=
0200419410999992022112409004+23267+090700FM-12+000799999V0203101N001510240019N006000199+02901+01701100961ADDAA124000091GA1041+004801061GA2061+024001041GE19AGL   +99999+99999GF106991041999004801999999MA1999999100911REMSYN08241941 32456 63103 10290 20170 30091 40096 85420 333 56990 59003 70000 84616 86458=
0136419410999992022112415004+23267+090700FM-12+999999999V0203101N0010102400199004000199+02251+02201101261ADDAA124999999GA1041+004801061GA2061+024001041GE19AGL   +99999+99999GF106991041999004801999999MA1999999101201MD1999999+0141REMSYN004BUFR
0200419410999992022112418004+23267+090700FM-12+000799999V0209999C000010240019N004000199+02181+02001101181ADDAA124000091GA1041+004801061GA2061+024001041GE19AGL   +99999+99999GF106991041999004801999999MA1999999101121REMSYN08241941 32440 60000 10218 20200 30112 40118 85420 333 56990 59002 70000 84616 86458=
0228419410999992022112421004+23267+090700FM-12+000799999V0203101N001010240019N004000199+02081+01901101201ADDAA124000091AY121021AY221021GA1041+004801061GA2061+024001041GE19AGL   +99999+99999GF106991041999004801999999MA1999999101141MW1051REMSYN08841941 31440 63102 10208 20190 30114 40120 70522 85420 333 56990 58004 70000 84616 86458=
0228419410999992022112500004+23267+090700FM-12+000799999V0203101N001010240019N004000199+01921+01901101221ADDAA124000091AY121021AY221021GA1041+004801061GA2061+024001041GE19AGL   +99999+99999GF106991041999004801999999MA1999999101161MW1051REMSYN08841941 31440 63102 10192 20190 30116 40122 70522 85420 333 56990 58013 70000 84616 86458=
0238419410999992022112503004+23267+090700FM-12+000799999V0203101N00101999999CN006000199+02341+02001101401ADDAA124000091GA1031+005401061GA2041+036001031GE19AGL   +99999+99999GF104991031999005401999999KA1240N+01891MA1999999101341REMSYN08841941 32456 43102 10234 20200 30134 40140 83530 333 20189 56990 58021 70000 83618 84362=EQDQ01 036003SCOCIG
0219419410999992022112506004+23267+090700FM-12+000799999V0203101N00151999999CN006000199+02771+02001101281ADDAA124000091GA1031+005401061GA2041+036001031GE19AGL   +99999+99999GF104991031999005401999999MA1999999101221REMSYN08241941 32456 43103 10277 20200 30122 40128 83530 333 56990 58006 70000 83618 84362=EQDQ01 036003SCOCIG
0219419410999992022112509004+23267+090700FM-12+000799999V0203601N00151999999CN006000199+02951+01901101061ADDAA124000091GA1031+005401061GA2041+036001031GE19AGL   +99999+99999GF104991031999005401999999MA1999999101011REMSYN08241941 32456 43603 10295 20190 30101 40106 83530 333 56990 58010 70000 83618 84362=EQDQ01 036003SCOCIG
0238419410999992022112512004+23267+090700FM-12+000799999V0209999C00001999999CN005000199+02281+01901101101ADDAA124000091GA1031+005401061GA2041+036001031GE19AGL   +99999+99999GF104991031999005401999999KA1240M+03051MA1999999101041REMSYN08841941 32450 40000 10228 20190 30104 40110 83530 333 10305 56990 58002 70000 83618 84362=EQDQ01 036003SCOCIG
0110419410999992022112515004+23267+090700FM-12+000799999V0209999C000019999999N004000199+02151+02001101221ADDAA124000091MA1999999101161MD1999999-0041REMSYN05841941 32940 00000 10215 20200 30116 40122 333 59004 70000=
0110419410999992022112518004+23267+090700FM-12+000799999V0209999C000019999999N004000199+02131+01901101181ADDAA124000091MA1999999101121MD1999999+0001REMSYN05841941 32940 00000 10213 20190 30112 40118 333 58000 70000=
0110419410999992022112521004+23267+090700FM-12+000799999V0209999C000019999999N004000199+02061+02001101131ADDAA124000091MA1999999101071MD1999999-0071REMSYN05841941 32940 00000 10206 20200 30107 40113 333 59007 70000=
0138419410999992022112600004+23267+090700FM-12+000799999V0209999C000019999999N003000199+01851+01801101111ADDAA124000091AY101021AY201021MA1999999101051MD1999999-0111MW1051REMSYN06441941 31930 00000 10185 20180 30105 40111 70500 333 59011 70000=
0193419410999992022112603004+23267+090700FM-12+000799999V0203601N001519999999N006000199+02501+02001101191ADDAA124000091GA1999+004501999GE19AGL   +99999+99999GF106991999999004501999999KA1240N+01841MA1999999101131MD1999999-0211REMSYN06441941 32456 63603 10250 20200 30113 40119 333 20184 59021 70000=
0172419410999992022112606004+23267+090700FM-12+000799999V0203601N001512200019N006000199+02901+02001101181ADDAA124000091GA1021+004501061GE19AGL   +99999+99999GF103991021999004501999999MA1999999101121REMSYN07041941 32456 33603 10290 20200 30112 40118 83400 333 56900 70000 82615=
0178419410999992022112609004+23267+090700FM-12+000799999V0203101N001012200019N006000199+02981+01901100871ADDAA124000091GA1021+004501061GE19AGL   +99999+99999GF103991021999004501999999MA1999999100811REMSYN07641941 32456 33102 10298 20190 30081 40087 83400 333 56900 59020 70000 82615=
0129419410999992022112612004+23267+090700FM-12+000799999V0209999C000019999999N005000199+02351+02201100921ADDAA124000091KA1240M+03171MA1999999100861MD1999999-0181REMSYN06441941 32950 00000 10235 20220 30086 40092 333 10317 59018 70000=
0178419410999992022112615004+23267+090700FM-12+000799999V0203601N001512200019N005000199+02151+01901101001ADDAA124000091GA1041+004501061GE19AGL   +99999+99999GF104991041999004501999999MA1999999100941REMSYN07641941 32450 43603 10215 20190 30094 40100 84500 333 56900 59022 70000 84615=
0178419410999992022112618004+23267+090700FM-12+000799999V0209999C000012200019N004000199+02101+01901101061ADDAA124000091GA1041+004501061GE19AGL   +99999+99999GF104991041999004501999999MA1999999101001REMSYN07641941 32440 40000 10210 20190 30100 40106 84500 333 56900 59012 70000 84615=
0200419410999992022112621004+23267+090700FM-12+000799999V0209999C000010210019N004000199+02201+02001101461ADDAA124000091GA1041+004201061GA2061+021001041GE19AGL   +99999+99999GF106991041999004201999999MA1999999101411REMSYN08241941 32440 60000 10220 20200 30141 40146 85420 333 56990 58002 70000 84614 86457=
0178419410999992022112700004+23267+090700FM-12+000799999V0209999C00001004501CN003000199+02001+02001100921ADDAA124000091GA1051+004501061GE19AGL   +99999+99999GF105991051999004501999999MA1999999100871REMSYN07641941 31430 50000 10200 20200 30087 40092 85500 333 56900 59018 70000 85615=
0219419410999992022112703004+23267+090700FM-12+000799999V0203601N001510210019N006000199+02601+01801101331ADDAA124000091GA1041+004501061GA2061+021001041GE19AGL   +99999+99999GF106991041999004501999999KA1240N+02141MA1999999101271REMSYN08841941 32456 63603 10260 20180 30127 40133 85420 333 20214 56990 59013 70000 84615 86457=
0222419410999992022112706004+23267+090700FM-12+000799999V0203101N00211004201CN005000199+03101+02601101101ADDAA124000091GA1051+004201061GA2011+007501091GA3081+018001041GE19AGL   +99999+99999GF108991051999004201999999MA1999999101041REMSYN08841941 32450 83104 10310 20260 30104 40110 8632/ 333 56999 59024 70000 85614 81925 88456=
0219419410999992022112709004+23267+090700FM-12+000799999V0203601N00101999999CN006000199+02981+01302101101ADDAA124000091GA1031+005401061GA2041+036001031GE19AGL   +99999+99999GF104991031999005401999999MA1999999101041REMSYN08241941 32456 43602 10298 20130 30104 40110 83530 333 56990 59009 70000 83618 84362=EQDQ01 036003SCOCIG
0197419410999992022112712004+23267+090700FM-12+000799999V0209999C00001004501CN005000199+02321+01801100841ADDAA124000091GA1061+004501061GE19AGL   +99999+99999GF106991061999004501999999KA1240M+03131MA1999999100781REMSYN08241941 32450 60000 10232 20180 30078 40084 86500 333 10313 56900 59008 70000 86615=
0200419410999992022112715004+23267+090700FM-12+000799999V0209999C000010240019N004000199+02901+02601101311ADDAA124000091GA1041+004801061GA2061+024001041GE19AGL   +99999+99999GF106991041999004801999999MA1999999101251REMSYN08241941 32440 60000 10290 20260 30125 40131 85420 333 56990 58019 70000 84616 86458=
0200419410999992022112718004+23267+090700FM-12+000799999V0209999C000010240019N004000199+02451+02101101161ADDAA124000091GA1041+004801061GA2061+024001041GE19AGL   +99999+99999GF106991041999004801999999MA1999999101111REMSYN08241941 32440 60000 10245 20210 30111 40116 85420 333 56990 59009 70000 84616 86458=
0186419410999992022112721004+23267+090700FM-12+000799999V0209999C00001004501CN004000199+02051+02001100921ADDAA124000091GA1051+004501061GE19AGL   +99999+99999GF105991051999004501999999MA1999999100871MD1999999-0051REMSYN07041941 32440 50000 10205 20200 30087 40092 85500 333 59005 70000 85615=
0200419410999992022112800004+23267+090700FM-12+000799999V0203601N001510210019N004000199+02101+02001100851ADDAA124000091GA1041+004501061GA2061+021001041GE19AGL   +99999+99999GF106991041999004501999999MA1999999100791REMSYN08241941 32440 63603 10210 20200 30079 40085 85420 333 56990 59008 70000 84615 86457=
0197419410999992022112803004+23267+090700FM-12+000799999V0203101N00151004501CN006000199+02601+01801101141ADDAA124000091GA1051+004501061GE19AGL   +99999+99999GF105991051999004501999999KA1240N+02051MA1999999101081REMSYN08241941 32456 53103 10260 20180 30108 40114 85500 333 20205 56900 58008 70000 85615=
0200419410999992022112806004+23267+090700FM-12+000799999V0203101N001510210019N006000199+02951+01901101091ADDAA124000091GA1041+004501061GA2061+021001041GE19AGL   +99999+99999GF106991041999004501999999MA1999999101041REMSYN08241941 32456 63103 10295 20190 30104 40109 85420 333 56990 58012 70000 84615 86457=
0200419410999992022112809004+23267+090700FM-12+000799999V0203101N001510240019N006000199+02921+01701100961ADDAA124000091GA1041+004801061GA2071+024001041GE19AGL   +99999+99999GF107991041999004801999999MA1999999100911REMSYN08241941 32456 73103 10292 20170 30091 40096 85420 333 56990 58020 70000 84616 87458=
0219419410999992022112812004+23267+090700FM-12+000799999V0209999C000010240019N005000199+02451+02001100991ADDAA124000091GA1041+004801061GA2071+024001041GE19AGL   +99999+99999GF107991041999004801999999KA1240M+03071MA1999999100941REMSYN08841941 32450 70000 10245 20200 30094 40099 85420 333 10307 56990 58016 70000 84616 87458=
0110419410999992022112815004+23267+090700FM-12+000799999V0209999C000019999999N005000199+02501+01901101201ADDAA124000091MA1999999101151MD1999999+0281REMSYN05841941 32950 00000 10250 20190 30115 40120 333 58028 70000=
0110419410999992022112818004+23267+090700FM-12+000799999V0209999C000019999999N004000199+02351+02001101251ADDAA124000091MA1999999101201MD1999999+0251REMSYN05841941 32940 00000 10235 20200 30120 40125 333 58025 70000=
0110419410999992022112821004+23267+090700FM-12+000799999V0209999C000019999999N004000199+02201+02001101011ADDAA124000091MA1999999100951MD1999999+0081REMSYN05841941 32940 00000 10220 20200 30095 40101 333 58008 70000=
0200419410999992022112900004+23267+090700FM-12+000799999V0209999C000010240019N004000199+02201+01901101191ADDAA124000091GA1041+004801061GA2061+024001041GE19AGL   +99999+99999GF106991041999004801999999MA1999999101141REMSYN08241941 32440 60000 10220 20190 30114 40119 85420 333 56990 58035 70000 84616 86458=
0241419410999992022112903004+23267+090700FM-12+000799999V0203101N00151004501CN005000199+02451+01901101351ADDAA124000091GA1051+004501061GA2011+008401091GA3081+024001041GE19AGL   +99999+99999GF108991051999004501999999KA1240N+02201MA1999999101301REMSYN09441941 32450 83103 10245 20190 30130 40135 8632/ 333 20220 56999 58022 70000 85615 81928 88458=
0200419410999992022112906004+23267+090700FM-12+000799999V0203601N001510240019N006000199+03001+01801101331ADDAA124000091GA1041+004801061GA2061+024001041GE19AGL   +99999+99999GF106991041999004801999999MA1999999101281REMSYN08241941 32456 63603 10300 20180 30128 40133 85420 333 56990 58024 70000 84616 86458=
0110419410999992022112909004+23267+090700FM-12+000799999V0203601N001519999999N006000199+03041+01801100951ADDAA124000091MA1999999100891MD1999999-0021REMSYN05841941 32956 03603 10304 20180 30089 40095 333 59002 70000=
0219419410999992022112912004+23267+090700FM-12+000799999V0209999C000010240019N005000199+02651+02101100951ADDAA124000091GA1041+004801061GA2071+024001041GE19AGL   +99999+99999GF107991041999004801999999KA1240M+03151MA1999999100891REMSYN08841941 32450 70000 10265 20210 30089 40095 85420 333 10315 56990 59005 70000 84616 87458=
0200419410999992022112915004+23267+090700FM-12+000799999V0209999C00001004801CN005000199+02451+02101101261ADDAA124000091GA1031+004801061GA2051+004801061GE19AGL   +99999+99999GF105991031999004801999999MA1999999101211REMSYN08241941 32450 50000 10245 20210 30121 40126 84420 333 56990 58007 70000 83616 85616=
0200419410999992022112921004+23267+090700FM-12+000799999V0209999C00001024001CN004000199+02351+02101101251ADDAA124000091GA1031+004801061GA2051+024001041GE19AGL   +99999+99999GF105991031999004801999999MA1999999101201REMSYN08241941 32440 50000 10235 20210 30120 40125 84420 333 56990 58025 70000 83616 85458=
0228419410999992022113000004+23267+090700FM-12+000799999V0209999C000010210019N004000199+02301+02001101271ADDAA124000091AY121021AY221021GA1041+004501061GA2071+021001041GE19AGL   +99999+99999GF107991041999004501999999MA1999999101221MW1051REMSYN08841941 31440 70000 10230 20200 30122 40127 70522 85420 333 56990 58008 70000 84615 87457=
0178419410999992022113006004+23267+090700FM-12+000799999V0203601N001512200019N006000199+02951+01901101351ADDAA124000091GA1041+004501061GE19AGL   +99999+99999GF104991041999004501999999MA1999999101291REMSYN07641941 32456 43603 10295 20190 30129 40135 84500 333 56900 58001 70000 84615=
0222419410999992022113009004+23267+090700FM-12+000799999V0209999C00001004201CN005000199+02951+01901101051ADDAA124000091GA1051+004201061GA2011+007801091GA3081+018001041GE19AGL   +99999+99999GF108991051999004201999999MA1999999100991REMSYN08841941 32450 80000 10295 20190 30099 40105 8632/ 333 56999 58010 70000 85614 81926 88456=
0219419410999992022113012004+23267+090700FM-12+000799999V0203601N001510240019N005000199+02651+02201101081ADDAA124000091GA1041+004501061GA2071+024001041GE19AGL   +99999+99999GF107991041999004501999999KA1240M+03151MA1999999101021REMSYN08841941 32450 73603 10265 20220 30102 40108 85420 333 10315 56990 58013 70000 84615 87458=
0200419410999992022113015004+23267+090700FM-12+000799999V0203601N00151024001CN005000199+02431+01901101321ADDAA124000091GA1031+004501061GA2051+024001041GE19AGL   +99999+99999GF105991031999004501999999MA1999999101261REMSYN08241941 32450 53603 10243 20190 30126 40132 84420 333 56990 58004 70000 83615 85458=
0200419410999992022113018004+23267+090700FM-12+000799999V0209999C00001024001CN004000199+02381+01901101261ADDAA124000091GA1031+004501061GA2051+024001041GE19AGL   +99999+99999GF105991031999004501999999MA1999999101211REMSYN08241941 32440 50000 10238 20190 30121 40126 84420 333 56990 58003 70000 83615 85458=
0200419410999992022113021004+23267+090700FM-12+000799999V0209999C00001024001CN004000199+02301+01901101231ADDAA124000091GA1031+004501061GA2051+024001041GE19AGL   +99999+99999GF105991031990004501991991MA1999999101181REMSYN08241941 32440 50000 10230 20190 30118 40123 84420 333 56990 59002 70000 83615 85458=
0228419410999992022120100004+23267+090700FM-12+000799999V0203601N001510240019N005000199+02181+01901101311ADDAA124000091AY121021AY221021GA1041+004201061GA2061+024001041GE19AGL   +99999+99999GF106991041999004201999999MA1999999101251MW1051REMSYN08841941 31450 63603 10218 20190 30125 40131 70522 85420 333 56990 58003 70000 84614 86458=
0219419410999992022120103004+23267+090700FM-12+000799999V0203101N001510240019N006000199+02521+01901101491ADDAA124000091GA1041+004801061GA2061+024001041GE19AGL   +99999+99999GF106991041999004801999999KA1240N+02161MA1999999101441REMSYN08841941 32456 63103 10252 20190 30144 40149 85420 333 20216 56990 58003 70000 84616 86458=
0110419410999992022120106004+23267+090700FM-12+000799999V0203601N001519999999N006000199+02801+01701101271ADDAA124000091MA1999999101221MD1999999-0071REMSYN05841941 32956 03603 10280 20170 30122 40127 333 59007 70000=
0110419410999992022120109004+23267+090700FM-12+000799999V0203601N001519999999N006000199+03001+01601100951ADDAA124000091MA1999999100891MD1999999-0101REMSYN05841941 32956 03603 10300 20160 30089 40095 333 59010 70000=
0129419410999992022120112004+23267+090700FM-12+000799999V0203601N002119999999N005000199+02601+01601100981ADDAA124000091KA1240M+03101MA1999999100921MD1999999-0101REMSYN06441941 32950 03604 10260 20160 30092 40098 333 10310 59010 70000=
0110419410999992022120115004+23267+090700FM-12+000799999V0209999C000019999999N005000199+02251+02001101251ADDAA124000091MA1999999101201MD1999999+0061REMSYN05841941 32950 00000 10225 20200 30120 40125 333 58006 70000=
0110419410999992022120118004+23267+090700FM-12+000799999V0209999C000019999999N004000199+02151+02001101211ADDAA124000091MA1999999101151MD1999999-0061REMSYN05841941 32940 00000 10215 20200 30115 40121 333 59006 70000=
0110419410999992022120121004+23267+090700FM-12+000799999V0209999C000019999999N004000199+02081+02001101191ADDAA124000091MA1999999101131MD1999999-0051REMSYN05841941 32940 00000 10208 20200 30113 40119 333 59005 70000=
0110419410999992022120200004+23267+090700FM-12+000799999V0203101N001519999999N005000199+02021+01801101201ADDAA124000091MA1999999101141MD1999999-0111REMSYN05841941 32950 03103 10202 20180 30114 40120 333 59011 70000=
0129419410999992022120203004+23267+090700FM-12+000799999V0203101N001519999999N006000199+02381+01801101391ADDAA124000091KA1240N+01981MA1999999101331MD1999999-0111REMSYN06441941 32456 03103 10238 20180 30133 40139 333 20198 59011 70000=
0110419410999992022120206004+23267+090700FM-12+000799999V0203101N002119999999N006000199+02701+02001101261ADDAA124000091MA1999999101211MD1999999-0011REMSYN05841941 32956 03104 10270 20200 30121 40126 333 59001 70000=
0178419410999992022120209004+23267+090700FM-12+000799999V0203101N00151004501CN006000199+02851+01701100941ADDAA124000091GA1051+004501061GE19AGL   +99999+99999GF105991051999004501999999MA1999999100881REMSYN07641941 32456 53103 10285 20170 30088 40094 85500 333 56900 58001 70000 85615=
0129419410999992022120212004+23267+090700FM-12+000799999V0209999C000019999999N005000199+02351+01901101021ADDAA124000091KA1240M+02941MA1999999100971MD1999999+0051REMSYN06441941 32950 00000 10235 20190 30097 40102 333 10294 58005 70000=
0110419410999992022120215004+23267+090700FM-12+000799999V0209999C000019999999N005000199+02151+02001101271ADDAA124000091MA1999999101211MD1999999+0011REMSYN05841941 32950 00000 10215 20200 30121 40127 333 58001 70000=
0110419410999992022120218004+23267+090700FM-12+000799999V0209999C000019999999N004000199+02101+01901101301ADDAA124000091MA1999999101241MD1999999+0091REMSYN05841941 32940 00000 10210 20190 30124 40130 333 58009 70000=
0110419410999992022120221004+23267+090700FM-12+000799999V0209999C000019999999N004000199+02001+01901101251ADDAA124000091MA1999999101191MD1999999+0061REMSYN05841941 32940 00000 10200 20190 30119 40125 333 58006 70000=
0110419410999992022120300004+23267+090700FM-12+000799999V0203101N001519999999N005000199+02001+01701101341ADDAA124000091MA1999999101281MD1999999+0141REMSYN05841941 32450 03103 10200 20170 30128 40134 333 58014 70000=
0110419410999992022120306004+23267+090700FM-12+000799999V0203601N001019999999N006000199+02731+01701101261ADDAA124000091MA1999999101201MD1999999-0011REMSYN05841941 32956 03602 10273 20170 30120 40126 333 59001 70000=
0110419410999992022120309004+23267+090700FM-12+000799999V0203601N001019999999N006000199+02801+01501101501ADDAA124000091MA1999999100991MD1999999+0111REMSYN05841941 32956 03602 10280 20150 30099 40150 333 58011 70000=
0129419410999992022120312004+23267+090700FM-12+000799999V0209999C000019999999N005000199+02281+01701101061ADDAA124000091KA1240M+02931MA1999999101001MD1999999+0031REMSYN06441941 32950 00000 10228 20170 30100 40106 333 10293 58003 70000=
0110419410999992022120315004+23267+090700FM-12+000799999V0209999C000019999999N005000199+02081+01801101291ADDAA124000091MA1999999101231MD1999999+0021REMSYN05841941 32950 00000 10208 20180 30123 40129 333 58002 70000=
0110419410999992022120318004+23267+090700FM-12+000799999V0209999C000019999999N004000199+02001+01801101281ADDAA124000091MA1999999101221MD1999999-0021REMSYN05841941 32940 00000 10200 20180 30122 40128 333 59002 70000=
0110419410999992022120321004+23267+090700FM-12+000799999V0209999C000019999999N004000199+01901+01801101241ADDAA124000091MA1999999101181MD1999999-0011REMSYN05841941 32940 00000 10190 20180 30118 40124 333 59001 70000=
0110419410999992022120400004+23267+090700FM-12+000799999V0203101N001019999999N005000199+01921+01701101321ADDAA124000091MA1999999101261MD1999999-0021REMSYN05841941 32950 03102 10192 20170 30126 40132 333 59002 70000=
0129419410999992022120403004+23267+090700FM-12+000799999V0203601N001519999999N005000199+02271+01801101521ADDAA124000091KA1240N+01901MA1999999101461MD1999999+0051REMSYN06441941 32950 03603 10227 20180 30146 40152 333 20190 58005 70000=
0219419410999992022120418004+23267+090700FM-12+000799999V0203601N00101999999CN004000199+02731+02401101191ADDAA124000091GA1031+005401061GA2041+036001031GE19AGL   +99999+99999GF104991031999005401999999MA1999999101141REMSYN08241941 32440 43602 10273 20240 30114 40119 83530 333 56990 58022 70000 83618 84362=EQDQ01 036003SCOCIG
