0172483040999992022010100004+19867+099767FM-12+040199999V0209999C00001001201WN000400199+01691+01641101901ADDAY141021AY211021GF109991999999999999999999KA1120N+01641MA1999999097161MD1210091+0051MW1471REMSYN07048304 31/04 90000 10169 20164 39716 40190 52009 74741 333 20164 58005=
0142483040999992022010103004+19870+099774FM-12+039799999V0203601N0000122000199015000199+02021+01831102021ADDAA103999999AY141031AY201031GA1021+012501061GE19AGL   +99999+99999GF102991021999012501999999MA1999999097331MD1210171-0011MW1031REMSYN004BUFR
0229483040999992022010106004+19867+099767FM-12+040199999V0209999C000019999999N015000199+02541+01851101611ADDAY141021AY211021GA1021+012501061GA2999+999999031GA3999+999999021GE19AGL   +99999+99999GF105991021999012501999999MA1999999097021MD1710311-0101MW1031REMSYN07048304 31665 50000 10254 20185 39702 40161 57031 70341 82546 333 59010=
0169483040999992022010109004+19867+099767FM-12+040199999V0209999C000012200019N015000199+02851+01741101351ADDGA1021+012501061GE19AGL   +99999+99999GF102991021999012501999999MA1999999096811MD1710201-0081REMSYN06448304 32665 20000 10285 20174 39681 40135 57020 82500 333 59008=
0136483040999992022010112004+19870+099774FM-12+039799999V0203601N0000122000199015000199+02271+01931101521ADDAA106999999AZ101061AZ201061GA1031+030001031GE19AGL   +99999+99999GF103991031999030001999999MA1999999096891MD1210071-0061REMSYN004BUFR
0099483040999992022010115004+19867+099767FM-12+040199999V0209999C000019999999N015000199+01961+01801101761ADDMA1999999097071MD1210181-0081REMSYN05848304 32965 00000 10196 20180 39707 40176 52018 333 59008=
0099483040999992022010118004+19867+099767FM-12+040199999V0209999C000019999999N012000199+01871+01741101801ADDMA1999999097101MD1210031-0041REMSYN05848304 32962 00000 10187 20174 39710 40180 52003 333 59004=
0136483040999992022010121004+19870+099774FM-12+039799999V0203601N00001030001C9010000199+01771+01681101751ADDAA103999999AZ101031AZ201031GA1061+030001031GE19AGL   +99999+99999GF106991061999030001999999MA1999999097031MD1710061-0021REMSYN004BUFR
0188483040999992022010200004+19867+099767FM-12+040199999V0209999C000019999999N015000199+01751+01701101871ADDGA1051+999999031GE19AGL   +99999+99999GF105991051999999999999999KA1120N+01691MA1999999097141MD1210111-0021REMSYN07048304 32965 50000 10175 20170 39714 40187 52011 85040 333 20169 59002=
0169483040999992022010203004+19867+099767FM-12+040199999V0209999C000012200019N015000199+02451+01831101941ADDGA1021+999999031GE19AGL   +99999+99999GF102991021999999999999999MA1999999097321MD1210171-0081REMSYN06448304 32965 20000 10245 20183 39732 40194 52017 82040 333 59008=
0169483040999992022010206004+19867+099767FM-12+040199999V0209999C000012200019N015000199+02641+01711101641ADDGA1021+012501061GE19AGL   +99999+99999GF102991021999012501999999MA1999999097051MD1710261+0021REMSYN06448304 32665 20000 10264 20171 39705 40164 57026 82500 333 58002=
0169483040999992022010209004+19867+099767FM-12+040199999V0209999C000012200019N015000199+02851+01611101281ADDGA1021+999999031GE19AGL   +99999+99999GF102991021999999999999999MA1999999096741MD1710311-0071REMSYN06448304 32965 20000 10285 20161 39674 40128 57031 82040 333 59007=
0136483040999992022010212004+19870+099774FM-12+039799999V0203601N0000122000199015000199+02201+01851101491ADDAA106999999AZ101061AZ201061GA1021+030001031GE19AGL   +99999+99999GF102991021999030001999999MA1999999096851MD1210111-0031REMSYN004BUFR
0099483040999992022010215004+19867+099767FM-12+040199999V0209999C000019999999N012000199+01851+01671101671ADDMA1999999096971MD1210121-0081REMSYN05848304 32962 00000 10185 20167 39697 40167 52012 333 59008=
0099483040999992022010218004+19867+099767FM-12+040199999V0209999C000019999999N010000199+01671+01551101761ADDMA1999999097031MD1210061-0041REMSYN05848304 32960 00000 10167 20155 39703 40176 52006 333 59004=
0127483040999992022010221004+19867+099767FM-12+040199999V0209999C000019999999N008000199+01571+01481101701ADDAY101021AY201021MA1999999096951MD1710081-0051MW1101REMSYN06448304 31958 00000 10157 20148 39695 40170 57008 71000 333 59005=
0216483040999992022010300004+19867+099767FM-12+040199999V0209999C000012200019N007000199+01421+01351101761ADDAY101021AY201021GA1021+012501061GE19AGL   +99999+99999GF102991021999012501999999KA1120N+01371MA1999999096981MD1210031-0111MW1101REMSYN07648304 31657 20000 10142 20135 39698 40176 52003 71000 82500 333 20137 59011=
0099483040999992022010303004+19867+099767FM-12+040199999V0209999C000019999999N015000199+02181+01881101851ADDMA1999999097191MD1210211-0091REMSYN05848304 32965 00000 10218 20188 39719 40185 52021 333 59009=
0169483040999992022010306004+19867+099767FM-12+040199999V0201601N001512200019N015000199+02721+01681101411ADDGA1011+012501081GE19AGL   +99999+99999GF101991011999012501999999MA1999999096851MD1710341-0221REMSYN06448304 32665 11603 10272 20168 39685 40141 57034 81100 333 59022=
0169483040999992022010309004+19867+099767FM-12+040199999V0209999C000012200019N015000199+02901+01711101161ADDGA1011+012501081GE19AGL   +99999+99999GF101991011999012501999999MA1999999096631MD1710221-0121REMSYN06448304 32665 10000 10290 20171 39663 40116 57022 81100 333 59012=
0188483040999992022010312004+19867+099767FM-12+040199999V0209999C000012200019N012000199+02031+01721101371ADDGA1011+012501081GE19AGL   +99999+99999GF101991011999012501999999KA1240M+02941MA1999999096711MD1210081-0121REMSYN07048304 32662 10000 10203 20172 39671 40137 52008 81100 333 10294 59012=
0099483040999992022010315004+19867+099767FM-12+040199999V0209999C000019999999N012000199+01821+01641101571ADDMA1999999096871MD1210151-0101REMSYN05848304 32962 00000 10182 20164 39687 40157 52015 333 59010=
0099483040999992022010318004+19867+099767FM-12+040199999V0209999C000019999999N010000199+01631+01531101571ADDMA1999999096831MD1710031-0201REMSYN05848304 32960 00000 10163 20153 39683 40157 57003 333 59020=
0127483040999992022010321004+19867+099767FM-12+040199999V0209999C000019999999N007000199+01541+01471101591ADDAY101021AY201021MA1999999096841MD1210011-0111MW1101REMSYN06448304 31957 00000 10154 20147 39684 40159 52001 71000 333 59011=
0216483040999992022010400004+19867+099767FM-12+040199999V0209999C000012200019N007000199+01441+01391101711ADDAY101021AY201021GA1011+012501061GE19AGL   +99999+99999GF101991011999012501999999KA1120N+01361MA1999999096931MD1210101-0051MW1101REMSYN07648304 31657 10000 10144 20139 39693 40171 52010 71000 81500 333 20136 59005=
0185483040999992022010403004+19867+099767FM-12+040199999V0209999C000012200019N013000199+02121+01751101801ADDGA1011+012501081GA2999+999999031GE19AGL   +99999+99999GF101991011999012501999999MA1999999097131MD1210191-0051REMSYN06448304 32663 10000 10212 20175 39713 40180 52019 81140 333 59005=
0169483040999992022010406004+19867+099767FM-12+040199999V0201501N001512200019N015000199+02671+01691101371ADDGA1011+012501081GE19AGL   +99999+99999GF101991011999012501999999MA1999999096801MD1710331-0051REMSYN06448304 32665 11503 10267 20169 39680 40137 57033 81100 333 59005=
0169483040999992022010409004+19867+099767FM-12+040199999V0209999C000012200019N015000199+02911+01721101081ADDGA1011+008001081GE19AGL   +99999+99999GF101991011999008001999999MA1999999096571MD1710241-0071REMSYN06448304 32565 10000 10291 20172 39657 40108 57024 81200 333 59007=
0118483040999992022010412004+19867+099767FM-12+040199999V0209999C000019999999N012000199+02271+01961101281ADDKA1240M+02921MA1999999096651MD1210091-0101REMSYN06448304 32962 00000 10227 20196 39665 40128 52009 333 10292 59010=
0099483040999992022010415004+19867+099767FM-12+040199999V0209999C000019999999N012000199+01841+01691101531ADDMA1999999096831MD1210171-0041REMSYN05848304 32962 00000 10184 20169 39683 40153 52017 333 59004=
0099483040999992022010418004+19867+099767FM-12+040199999V0209999C000019999999N012000199+01651+01561101541ADDMA1999999096811MD1710021-0021REMSYN05848304 32962 00000 10165 20156 39681 40154 57002 333 59002=
0099483040999992022010421004+19867+099767FM-12+040199999V0209999C000019999999N012000199+01501+01431101521ADDMA1999999096761MD1710051-0071REMSYN05848304 32962 00000 10150 20143 39676 40152 57005 333 59007=
0117483040999992022010500004+19870+099774FM-12+039799999V0203601N0000122000199009000199+01451+01391101631ADDAA106999999AY101061AY201061GF100991999999999999999999KA1120N+01341MA1999999096861MD1210101-0081MW1101REMSYN004BUFR
0099483040999992022010503004+19867+099767FM-12+040199999V0209999C000019999999N012000199+02081+01741101651ADDMA1999999096981MD1210121-0151REMSYN05848304 32962 00000 10208 20174 39698 40165 52012 333 59015=
0099483040999992022010506004+19867+099767FM-12+040199999V0209999C000019999999N015000199+02671+01671101261ADDMA1999999096691MD1710291-0111REMSYN05848304 32965 00000 10267 20167 39669 40126 57029 333 59011=
0169483040999992022010509004+19867+099767FM-12+040199999V0209999C000012200019N015000199+02901+01711101031ADDGA1011+008001061GE19AGL   +99999+99999GF101991011999008001999999MA1999999096511MD1710181-0061REMSYN06448304 32565 10000 10290 20171 39651 40103 57018 81500 333 59006=
0118483040999992022010512004+19867+099767FM-12+040199999V0209999C000019999999N015000199+02271+01921101261ADDKA1240M+02951MA1999999096631MD1210121-0021REMSYN06448304 32965 00000 10227 20192 39663 40126 52012 333 10295 59002=
0099483040999992022010515004+19867+099767FM-12+040199999V0209999C000019999999N012000199+01831+01681101481ADDMA1999999096781MD1210141-0051REMSYN05848304 32962 00000 10183 20168 39678 40148 52014 333 59005=
0099483040999992022010518004+19867+099767FM-12+040199999V0209999C000019999999N012000199+01601+01511101511ADDMA1999999096771MD1710011-0031REMSYN05848304 32962 00000 10160 20151 39677 40151 57001 333 59003=
0099483040999992022010521004+19867+099767FM-12+040199999V0209999C000019999999N012000199+01451+01401101441ADDMA1999999096681MD1710091-0071REMSYN05848304 32962 00000 10145 20140 39668 40144 57009 333 59007=
0111483040999992022010600004+19870+099774FM-12+039799999V0203601N0000122000199012000199+01421+01371101571ADDAA106999999AZ101061AZ201061GF100991999999999999999999KA1120N+01301MA1999999096801MD1210121-0061REMSYN004BUFR
0099483040999992022010603004+19867+099767FM-12+040199999V0209999C000019999999N015000199+02101+01691101701ADDMA1999999097031MD1210231+0051REMSYN05848304 32965 00000 10210 20169 39703 40170 52023 333 58005=
0099483040999992022010606004+19867+099767FM-12+040199999V0209999C000019999999N015000199+02691+01661101291ADDMA1999999096731MD1710301+0041REMSYN05848304 32965 00000 10269 20166 39673 40129 57030 333 58004=
0099483040999992022010609004+19867+099767FM-12+040199999V0209999C000019999999N015000199+02941+01601101021ADDMA1999999096511MD1710231-0011REMSYN05848304 32965 00000 10294 20160 39651 40102 57023 333 59001=
0118483040999992022010612004+19867+099767FM-12+040199999V0209999C000019999999N015000199+02281+01921101231ADDKA1240M+03001MA1999999096611MD1210101-0031REMSYN06448304 32965 00000 10228 20192 39661 40123 52010 333 10300 59003=
0099483040999992022010615004+19867+099767FM-12+040199999V0209999C000019999999N015000199+01811+01661101501ADDMA1999999096801MD1210191+0031REMSYN05848304 32965 00000 10181 20166 39680 40150 52019 333 58003=
0099483040999992022010618004+19867+099767FM-12+040199999V0209999C000019999999N015000199+01671+01551101571ADDMA1999999096841MD1210041+0061REMSYN05848304 32965 00000 10167 20155 39684 40157 52004 333 58006=
0099483040999992022010621004+19867+099767FM-12+040199999V0209999C000019999999N010000199+01491+01401101531ADDMA1999999096771MD1710071+0081REMSYN05848304 32960 00000 10149 20140 39677 40153 57007 333 58008=
0111483040999992022010700004+19870+099774FM-12+039799999V0203601N0000122000199010000199+01351+01311101771ADDAA106999999AZ101061AZ201061GF100991999999999999999999KA1120N+01311MA1999999096981MD1210211+0201REMSYN004BUFR
0136483040999992022010703004+19870+099774FM-12+039799999V0203601N0000122000199015000199+02071+01611101841ADDAA103999999AZ101031AZ201031GA1021+012501061GE19AGL   +99999+99999GF102991021999012501999999MA1999999097171MD1210191+0141REMSYN004BUFR
0169483040999992022010706004+19867+099767FM-12+040199999V0201601N002112200019N015000199+02701+01711101451ADDGA1021+012501061GE19AGL   +99999+99999GF102991021999012501999999MA1999999096881MD1710291+0151REMSYN06448304 32665 21604 10270 20171 39688 40145 57029 82500 333 58015=
0169483040999992022010709004+19867+099767FM-12+040199999V0209999C000012200019N015000199+02951+01791101161ADDGA1021+012501061GE19AGL   +99999+99999GF102991021999012501999999MA1999999096641MD1710241+0141REMSYN06448304 32665 20000 10295 20179 39664 40116 57024 82500 333 58014=
0136483040999992022010712004+19870+099774FM-12+039799999V0203601N0000122000199015000199+02271+01741101361ADDAA106999999AZ101061AZ201061GA1011+012501061GE19AGL   +99999+99999GF101991011999012501999999MA1999999096731MD1210091+0131REMSYN004BUFR
0098483040999992022010715004+19870+099774FM-12+039799999V0203601N0000122000199015000199+02001+01711101571ADDAA103999999AZ101031AZ201031GF100991999999999999999999MA1999999096891MD1210161+0061REMSYN004BUFR
0099483040999992022010718004+19867+099767FM-12+040199999V0209999C000019999999N012000199+01721+01581101571ADDMA1999999096851MD1710041+0001REMSYN05848304 32962 00000 10172 20158 39685 40157 57004 333 58000=
0098483040999992022010721004+19870+099774FM-12+039799999V0203601N0000122000199010000199+01601+01501101481ADDAA103999999AZ101031AZ201031GF100991999999999999999999MA1999999096751MD1710101-0041REMSYN004BUFR
0091483040999992022010800004+19870+099774FM-12+039799999V0203601N0000199999999000100199+01501+01431101671ADDAA106999999AY141061AY201061KA1120N+01441MA1999999096911MD1210161-0101MW1471REMSYN004BUFR
0127483040999992022010803004+19867+099767FM-12+040199999V0209999C000019999999N008000199+02201+01821101701ADDAY141021AY201021MA1999999097051MD1210141-0141MW1101REMSYN06448304 31958 00000 10220 20182 39705 40170 52014 71040 333 59014=
0127483040999992022010806004+19867+099767FM-12+040199999V0209999C000019999999N015000199+02801+01791101331ADDAY141021AY201021MA1999999096781MD1710271-0121MW1021REMSYN06448304 31965 00000 10280 20179 39678 40133 57027 70240 333 59012=
0136483040999992022010809004+19870+099774FM-12+039799999V0203601N0000122000199015000199+02961+01651101031ADDAA103999999AZ101031AZ201031GA1021+012501061GE19AGL   +99999+99999GF102991021999012501999999MA1999999096521MD1710261-0131REMSYN004BUFR
0118483040999992022010812004+19867+099767FM-12+040199999V0209999C000019999999N015000199+02301+01861101261ADDKA1240M+03021MA1999999096641MD1210121-0101REMSYN06448304 32965 00000 10230 20186 39664 40126 52012 333 10302 59010=
0098483040999992022010815004+19870+099774FM-12+039799999V0203601N0000122000199012000199+01921+01721101471ADDAA103999999AZ101031AZ201031GF100991999999999999999999MA1999999096791MD1210151-0101REMSYN004BUFR
0098483040999992022010818004+19870+099774FM-12+039799999V0203601N0000122000199010000199+01761+01641101491ADDAA106999999AZ101061AZ201061GF100991999999999999999999MA1999999096771MD1710011-0081REMSYN004BUFR
0127483040999992022010821004+19867+099767FM-12+040199999V0209999C000019999999N008000199+01601+01511101421ADDAY101021AY201021MA1999999096681MD1710091-0071MW1101REMSYN06448304 31958 00000 10160 20151 39668 40142 57009 71000 333 59007=
0118483040999992022010900004+19867+099767FM-12+040199999V0209999C000019999999N010000199+01431+01381101531ADDKA1120N+01381MA1999999096771MD1210081-0141REMSYN06448304 32960 00000 10143 20138 39677 40153 52008 333 20138 59014=
0099483040999992022010903004+19867+099767FM-12+040199999V0209999C000019999999N015000199+02261+01831101561ADDMA1999999096931MD1210161-0141REMSYN05848304 32965 00000 10226 20183 39693 40156 52016 333 59014=
0099483040999992022010906004+19867+099767FM-12+040199999V0201701N002119999999N015000199+02881+01721101161ADDMA1999999096641MD1710291-0161REMSYN05848304 32965 01704 10288 20172 39664 40116 57029 333 59016=
0099483040999992022010909004+19867+099767FM-12+040199999V0209999C000019999999N015000199+03001+01761100911ADDMA1999999096411MD1710231-0131REMSYN05848304 32965 00000 10300 20176 39641 40091 57023 333 59013=
0118483040999992022010912004+19867+099767FM-12+040199999V0209999C000019999999N012000199+02321+01981101041ADDKA1240M+03031MA1999999096441MD1210031-0221REMSYN06448304 32962 00000 10232 20198 39644 40104 52003 333 10303 59022=
0099483040999992022010915004+19867+099767FM-12+040199999V0209999C000019999999N010000199+01941+01741101251ADDMA1999999096581MD1210141-0221REMSYN05848304 32960 00000 10194 20174 39658 40125 52014 333 59022=
0099483040999992022010918004+19867+099767FM-12+040199999V0209999C000019999999N010000199+01731+01631101341ADDMA1999999096631MD1210051-0151REMSYN05848304 32960 00000 10173 20163 39663 40134 52005 333 59015=
0099483040999992022010921004+19867+099767FM-12+040199999V0209999C000019999999N010000199+01541+01451101301ADDMA1999999096561MD1710071-0121REMSYN05848304 32960 00000 10154 20145 39656 40130 57007 333 59012=
0118483040999992022011000004+19867+099767FM-12+040199999V0209999C000019999999N010000199+01391+01331101481ADDKA1120N+01351MA1999999096711MD1210151-0061REMSYN06448304 32960 00000 10139 20133 39671 40148 52015 333 20135 59006=
0099483040999992022011003004+19867+099767FM-12+040199999V0209999C000019999999N015000199+02131+01691101571ADDMA1999999096921MD1210201+0011REMSYN05848304 32965 00000 10213 20169 39692 40157 52020 333 58001=
0169483040999992022011006004+19867+099767FM-12+040199999V0202001N001512200019N015000199+02811+01731101151ADDGA1011+012501081GE19AGL   +99999+99999GF101991011999012501999999MA1999999096611MD1710301-0011REMSYN06448304 32665 12003 10281 20173 39661 40115 57030 81100 333 59001=
0098483040999992022011009004+19870+099774FM-12+039799999V0203601N0000122000199015000199+03061+01721100901ADDAA103999999AZ101031AZ201031GF100991999999999999999999MA1999999096411MD1710201-0011REMSYN004BUFR
0118483040999992022011012004+19867+099767FM-12+040199999V0209999C000019999999N012000199+02471+02061101131ADDKA1240M+03091MA1999999096551MD1210141+0091REMSYN06448304 32962 00000 10247 20206 39655 40113 52014 333 10309 58009=
0099483040999992022011015004+19867+099767FM-12+040199999V0209999C000019999999N012000199+01911+01751101461ADDMA1999999096771MD1210221+0211REMSYN05848304 32962 00000 10191 20175 39677 40146 52022 333 58021=
0099483040999992022011018004+19867+099767FM-12+040199999V0209999C000019999999N012000199+01701+01601101501ADDMA1999999096781MD1210011+0161REMSYN05848304 32962 00000 10170 20160 39678 40150 52001 333 58016=
0188483040999992022011021004+19867+099767FM-12+040199999V0209999C000012200019N010000199+01551+01461101461ADDGA1999+999999021GE19AGL   +99999+99999GF102991001999999999999999MA1999999096711MD1710061+0161REMSYN06448304 32960 20000 10155 20146 39671 40146 57006 80005 333 58016=EQDQ01    003SCCGA1
0207483040999992022011100004+19867+099767FM-12+040199999V0209999C000012200019N012000199+01441+01371101611ADDGA1999+999999021GE19AGL   +99999+99999GF102991001999999999999999KA1120N+01341MA1999999096841MD1210131+0131REMSYN07048304 32962 20000 10144 20137 39684 40161 52013 80005 333 20134 58013=EQDQ01    003SCCGA1
0169483040999992022011103004+19867+099767FM-12+040199999V0209999C000012200019N015000199+02121+01761101681ADDGA1011+008001081GE19AGL   +99999+99999GF101991011999008001999999MA1999999097021MD1210181+0111REMSYN06448304 32565 10000 10212 20176 39702 40168 52018 81200 333 58011=
0169483040999992022011106004+19867+099767FM-12+040199999V0209999C000012200019N015000199+02751+01711101311ADDGA1021+008001061GE19AGL   +99999+99999GF102991021999008001999999MA1999999096761MD1710261+0161REMSYN06448304 32565 20000 10275 20171 39676 40131 57026 82500 333 58016=
0185483040999992022011109004+19867+099767FM-12+040199999V0209999C000019999999N015000199+02971+01681100961ADDGA1041+008001061GA2999+999999021GE19AGL   +99999+99999GF105991041999008001999999MA1999999096461MD1710301+0061REMSYN06448304 32565 50000 10297 20168 39646 40096 57030 84506 333 58006=
0204483040999992022011112004+19867+099767FM-12+040199999V0209999C000019999999N012000199+02381+01891101211ADDGA1041+008001061GA2999+999999021GE19AGL   +99999+99999GF105991041999008001999999KA1240M+03051MA1999999096611MD1210151+0081REMSYN07048304 32562 50000 10238 20189 39661 40121 52015 84506 333 10305 58008=
0185483040999992022011115004+19867+099767FM-12+040199999V0209999C000019999999N012000199+01941+01741101401ADDGA1041+008001061GA2999+999999021GE19AGL   +99999+99999GF105991041999008001999999MA1999999096721MD1210121-0061REMSYN06448304 32562 50000 10194 20174 39672 40140 52012 84506 333 59006=
0185483040999992022011118004+19867+099767FM-12+040199999V0209999C000012200019N012000199+01721+01601101411ADDGA1031+008001061GA2999+999999021GE19AGL   +99999+99999GF103991031999008001999999MA1999999096701MD1710021-0091REMSYN06448304 32562 30000 10172 20160 39670 40141 57002 83505 333 59009=
0185483040999992022011121004+19867+099767FM-12+040199999V0209999C000012200019N012000199+01581+01491101391ADDGA1031+008001061GA2999+999999021GE19AGL   +99999+99999GF103991031999008001999999MA1999999096651MD1710051-0071REMSYN06448304 32562 30000 10158 20149 39665 40139 57005 83505 333 59007=
0204483040999992022011200004+19867+099767FM-12+040199999V0209999C000019999999N012000199+01551+01461101521ADDGA1041+008001061GA2999+999999021GE19AGL   +99999+99999GF105991041999008001999999KA1120N+01441MA1999999096781MD1210121-0091REMSYN07048304 32562 50000 10155 20146 39678 40152 52012 84506 333 20144 59009=
0185483040999992022011203004+19867+099767FM-12+040199999V0209999C000019999999N012000199+02011+01801101751ADDGA1041+008001061GA2999+999999021GE19AGL   +99999+99999GF105991041999008001999999MA1999999097071MD1210291+0071REMSYN06448304 32562 50000 10201 20180 39707 40175 52029 84506 333 58007=
0185483040999992022011206004+19867+099767FM-12+040199999V0209999C000019999999N015000199+02621+01801101351ADDGA1041+008001061GA2999+999999021GE19AGL   +99999+99999GF105991041999008001999999MA1999999096781MD1710291+0041REMSYN06448304 32565 50000 10262 20180 39678 40135 57029 84506 333 58004=
0201483040999992022011209004+19867+099767FM-12+040199999V0209999C000019999999N015000199+02661+01911101101ADDGA1051+008001061GA2999+999999031GA3999+999999021GE19AGL   +99999+99999GF107991051999008001999999MA1999999096551MD1710231+0141REMSYN06448304 32565 70000 10266 20191 39655 40110 57023 85576 333 58014=
0204483040999992022011212004+19867+099767FM-12+040199999V0209999C000019999999N012000199+02301+01991101301ADDGA1061+008001061GA2999+999999031GE19AGL   +99999+99999GF108991061999008001999999KA1240M+02721MA1999999096691MD1210141+0091REMSYN07048304 32562 80000 10230 20199 39669 40130 52014 8657/ 333 10272 58009=
0168483040999992022011215004+19870+099774FM-12+039799999V0203601N0000199999999012000199+02121+01911101621ADDAA103999999AZ101031AZ201031GA1021+012501061GA2999+999999031GA3999+999999021GE19AGL   +99999+99999GF108991021999012501999999MA1999999096961MD1210271+0221REMSYN004BUFR
0201483040999992022011218004+19867+099767FM-12+040199999V0209999C000019999999N012000199+02001+01871101561ADDGA1021+012501061GA2999+999999031GA3999+999999021GE19AGL   +99999+99999GF108991021999012501999999MA1999999096881MD1710081+0151REMSYN06448304 32662 80000 10200 20187 39688 40156 57008 82546 333 58015=
0201483040999992022011221004+19867+099767FM-12+040199999V0209999C000019999999N010000199+01921+01821101461ADDGA1021+012501061GA2999+999999031GA3999+999999021GE19AGL   +99999+99999GF106991021999012501999999MA1999999096781MD1710101+0071REMSYN06448304 32660 60000 10192 20182 39678 40146 57010 82546 333 58007=
0181483040999992022011300004+19870+099774FM-12+039799999V0203601N0000199999999012000199+01851+01781101541ADDAA106999999AZ101061AZ201061GA1021+012501061GA2999+999999031GA3999+999999021GE19AGL   +99999+99999GF106991021999012501999999KA1120N+01811MA1999999096841MD1210061+0021REMSYN004BUFR
0169483040999992022011303004+19867+099767FM-12+040199999V0209999C000019999999N015000199+02101+01891101671ADDGA1061+999999031GE19AGL   +99999+99999GF106991061999999999999999MA1999999097001MD1210161-0091REMSYN06448304 32965 60000 10210 20189 39700 40167 52016 86050 333 59009=
0185483040999992022011306004+19867+099767FM-12+040199999V0209999C000019999999N015000199+02631+01881101331ADDGA1031+999999031GA2999+999999021GE19AGL   +99999+99999GF106991031999999999999999MA1999999096761MD1710241-0021REMSYN06448304 32965 60000 10263 20188 39676 40133 57024 83046 333 59002=
0201483040999992022011309004+19867+099767FM-12+040199999V0209999C000019999999N015000199+02761+02031101061ADDGA1021+012501061GA2999+999999031GA3999+999999021GE19AGL   +99999+99999GF106991021999012501999999MA1999999096521MD1710241-0051REMSYN06448304 32665 60000 10276 20203 39652 40106 57024 82546 333 59005=
0152483040999992022011312004+19870+099774FM-12+039799999V0203601N0000199999999015000199+02371+01961101221ADDAA106999999AZ101061AZ201061GA1031+030001031GA2999+999999021GE19AGL   +99999+99999GF106991031999030001999999MA1999999096611MD1210101-0091REMSYN004BUFR
0185483040999992022011315004+19867+099767FM-12+040199999V0209999C000019999999N015000199+02171+01971101451ADDGA1031+999999031GA2999+999999021GE19AGL   +99999+99999GF106991031999999999999999MA1999999096801MD1210191-0171REMSYN06448304 32965 60000 10217 20197 39680 40145 52019 83046 333 59017=
0152483040999992022011318004+19870+099774FM-12+039799999V0203601N0000122000199012000199+02001+01861101461ADDAA106999999AZ101061AZ201061GA1031+030001031GA2999+999999001GE19AGL   +99999+99999GF104991031999030001999999MA1999999096781MD1710021-0101REMSYN004BUFR
0169483040999992022011321004+19867+099767FM-12+040199999V0209999C000012200019N010000199+01821+01721101411ADDGA1031+999999031GE19AGL   +99999+99999GF103991031999999999999999MA1999999096711MD1710071-0051REMSYN06448304 32960 30000 10182 20172 39671 40141 57007 83040 333 59005=
0117483040999992022011400004+19870+099774FM-12+039799999V0203601N0000122000199004000199+01701+01621101621ADDAA106999999AY101061AY201061GF100991999999999999999999KA1120N+01641MA1999999096891MD1210181+0081MW1101REMSYN004BUFR
0136483040999992022011403004+19870+099774FM-12+039799999V0203601N00001030001C9015000199+02171+01961101721ADDAA103999999AZ101031AZ201031GA1051+030001031GE19AGL   +99999+99999GF105991051999030001999999MA1999999097061MD1210171+0051REMSYN004BUFR
0169483040999992022011406004+19867+099767FM-12+040199999V0209999C000012200019N015000199+02801+01871101241ADDGA1021+012501061GE19AGL   +99999+99999GF102991021999012501999999MA1999999096701MD1710361-0081REMSYN06448304 32665 20000 10280 20187 39670 40124 57036 82500 333 59008=
0169483040999992022011409004+19867+099767FM-12+040199999V0209999C000019999999N015000199+02901+01801100971ADDGA1061+999999031GE19AGL   +99999+99999GF106991061999999999999999MA1999999096461MD1710241-0081REMSYN06448304 32965 60000 10290 20180 39646 40097 57024 86040 333 59008=
0188483040999992022011412004+19867+099767FM-12+040199999V0209999C000019999999N015000199+02421+01921101131ADDGA1061+999999031GE19AGL   +99999+99999GF106991061999999999999999KA1240M+03021MA1999999096531MD1210081-0091REMSYN07048304 32965 60000 10242 20192 39653 40113 52008 86040 333 10302 59009=
0169483040999992022011415004+19867+099767FM-12+040199999V0209999C000012200019N012000199+02131+01921101341ADDGA1021+999999031GE19AGL   +99999+99999GF102991021999999999999999MA1999999096701MD1210161-0111REMSYN06448304 32962 20000 10213 20192 39670 40134 52016 82040 333 59011=
0169483040999992022011418004+19867+099767FM-12+040199999V0209999C000012200019N010000199+01941+01781101381ADDGA1021+999999031GE19AGL   +99999+99999GF102991021999999999999999MA1999999096701MD1410001-0081REMSYN06448304 32960 20000 10194 20178 39670 40138 54000 82040 333 59008=
0169483040999992022011421004+19867+099767FM-12+040199999V0209999C000012200019N010000199+01831+01751101321ADDGA1021+999999031GE19AGL   +99999+99999GF102991021999999999999999MA1999999096631MD1710071-0091REMSYN06448304 32960 20000 10183 20175 39663 40132 57007 82040 333 59009=
0220483040999992022011500004+19867+099767FM-12+040199999V0209999C000019999999N010000199+01821+01751101491ADDGA1021+012501061GA2999+999999031GA3999+999999021GE19AGL   +99999+99999GF107991021999012501999999KA1120N+01801MA1999999096791MD1210161-0131REMSYN07048304 32660 70000 10182 20175 39679 40149 52016 82546 333 20180 59013=
0185483040999992022011503004+19867+099767FM-12+040199999V0209999C000019999999N015000199+02181+01881101651ADDGA1031+012501061GA2999+999999031GE19AGL   +99999+99999GF108991031999012501999999MA1999999097001MD1210211-0071REMSYN06448304 32665 80000 10218 20188 39700 40165 52021 8353/ 333 59007=
0185483040999992022011506004+19867+099767FM-12+040199999V0201001N001019999999N012000199+02821+01761101281ADDGA1021+012501061GA2999+999999031GE19AGL   +99999+99999GF106991021999012501999999MA1999999096741MD1710261+0031REMSYN06448304 32662 61002 10282 20176 39674 40128 57026 82530 333 58003=
0169483040999992022011509004+19867+099767FM-12+040199999V0203501N001519999999N012000199+02871+01801101011ADDGA1061+999999031GE19AGL   +99999+99999GF106991061999999999999999MA1999999096491MD1710251+0041REMSYN06448304 32962 63503 10287 20180 39649 40101 57025 86030 333 58004=
0220483040999992022011512004+19867+099767FM-12+040199999V0200701N002619999999N012000199+02351+01961101211ADDGA1041+012501061GA2999+999999031GA3999+999999021GE19AGL   +99999+99999GF107991041999012501999999KA1240M+02931MA1999999096611MD1210111+0091REMSYN07048304 32662 70705 10235 20196 39661 40121 52011 84556 333 10293 58009=
0201483040999992022011515004+19867+099767FM-12+040199999V0209999C000019999999N010000199+02141+01921101381ADDGA1031+012501061GA2999+999999031GA3999+999999021GE19AGL   +99999+99999GF107991031999012501999999MA1999999096731MD1210131+0041REMSYN06448304 32660 70000 10214 20192 39673 40138 52013 83546 333 58004=
0201483040999992022011518004+19867+099767FM-12+040199999V0209999C000019999999N010000199+01941+01831101391ADDGA1031+012501061GA2999+999999031GA3999+999999021GE19AGL   +99999+99999GF107991031999012501999999MA1999999096721MD1710021+0021REMSYN06448304 32660 70000 10194 20183 39672 40139 57002 83546 333 58002=
0185483040999992022011521004+19867+099767FM-12+040199999V0209999C000019999999N010000199+01901+01821101271ADDGA1051+012501061GA2999+999999031GE19AGL   +99999+99999GF108991051999012501999999MA1999999096591MD1710131-0051REMSYN06448304 32660 80000 10190 20182 39659 40127 57013 8555/ 333 59005=
0283483040999992022011600004+19867+099767FM-12+040199999V0209999C000019999999N002000199+01921+01871101561ADDAA102025031AA224025032AA324024632AY161021AY221021GA1061+999999061GA2999+999999031GE19AGL   +99999+99999GF108991061999999999999999KA1120N+01801MA1999999096881MD1210291+0071MW1611REMSYN09448304 01920 80000 10192 20187 39688 40156 52029 60254 76162 8657/ 333 20180 58007 60256 70246=
0230483040999992022011603004+19867+099767FM-12+040199999V0209999C000019999999N004000199+01931+01881101831ADDAA103011031AY161021AY261021GA1061+008001061GA2999+999999031GE19AGL   +99999+99999GF108991061999008001999999MA1999999097131MD1210261+0181MW1611REMSYN07648304 21540 80000 10193 20188 39713 40183 52026 76166 8657/ 333 58018 60117=
0264483040999992022011606004+19867+099767FM-12+040199999V0209999C000019999999N006000199+02041+01881101621ADDAA103001031AA206012031AA324036831AY161021AY261021GA1061+008001061GA2999+999999031GE19AGL   +99999+99999GF108991061999008001999999MA1999999096941MD1710191+0341MW1611REMSYN08848304 01556 80000 10204 20188 39694 40162 57019 60121 76166 8657/ 333 58034 60017 70368=
0230483040999992022011609004+19867+099767FM-12+040199999V0209999C000019999999N012000199+02181+01911101441ADDAA103000431AY161021AY221021GA1061+008001061GA2999+999999031GE19AGL   +99999+99999GF108991061999008001999999MA1999999096801MD1710141+0431MW1021REMSYN07648304 21562 80000 10218 20191 39680 40144 57014 70262 8657/ 333 58043 69947=
0283483040999992022011612004+19867+099767FM-12+040199999V0200401N001519999999N003000199+01971+01861101461ADDAA103004031AA212017031AA324041431AY191021AY261021GA1061+008001061GA2999+999999031GE19AGL   +99999+99999GF108991061999008001999999KA1240M+02211MA1999999096781MD1710021+0241MW1601REMSYN09448304 01530 80403 10197 20186 39678 40146 57002 60172 76096 8657/ 333 10221 58024 60047 70414=
0230483040999992022011615004+19867+099767FM-12+040199999V0209999C000019999999N003000199+01881+01811101651ADDAA103000931AY161021AY221021GA1061+008001061GA2999+999999031GE19AGL   +99999+99999GF108991061999008001999999MA1999999096951MD1110171+0271MW1101REMSYN07648304 21530 80000 10188 20181 39695 40165 51017 71062 8657/ 333 58027 69997=
0264483040999992022011618004+19867+099767FM-12+040199999V0209999C000019999999N003000199+01731+01681101651ADDAA101007031AA218024031AA324049031AY161021AY221021GA1061+008001061GA2999+999999031GE19AGL   +99999+99999GF108991061999008001999999MA1999999096931MD1710021+0261MW1211REMSYN08848304 01530 80000 10173 20168 39693 40165 57002 60243 72162 8657/ 333 58026 60075 70490=
0174483040999992022011621004+19870+099774FM-12+039799999V0203601N00001008001C9003000199+01701+01651101531ADDAA103007031AY161031AY261031GA1061+008001061GA2999+999999031GA3999+999999101GE19AGL   +99999+99999GF108991061999008001999999MA1999999096801MD1710131+0261MW1211REMSYN004BUFR
0255483040999992022011700004+19867+099767FM-12+040199999V0209999C000019999999N007000199+01701+01651101691ADDAA124031031AY161021AY221021GA1061+008001061GA2999+999999031GE19AGL   +99999+99999GF108991061999008001999999KA1120N+01651MA1999999096961MD1210161+0131MW1101REMSYN08848304 11557 80000 10170 20165 39696 40169 52016 60314 71062 8657/ 333 20165 58013 70310=
0201483040999992022011703004+19867+099767FM-12+040199999V0209999C000019999999N012000199+02121+01851101841ADDGA1051+008001061GA2999+999999031GA3999+999999021GE19AGL   +99999+99999GF107991051999008001999999MA1999999097171MD1210211+0011REMSYN06448304 32562 70000 10212 20185 39717 40184 52021 85576 333 58001=
0218483040999992022011706004+19867+099767FM-12+040199999V0209999C000019999999N015000199+02491+01841101551ADDAA124018831GA1041+008001061GA2999+999999031GA3999+999999021GE19AGL   +99999+99999GF106991041999008001999999MA1999999096951MD1710221-0071REMSYN07048304 32565 60000 10249 20184 39695 40155 57022 84576 333 59007 70188=
0185483040999992022011709004+19867+099767FM-12+040199999V0209999C000012200019N015000199+02601+01721101271ADDGA1031+008001061GA2999+999999021GE19AGL   +99999+99999GF103991031999008001999999MA1999999096701MD1710251-0171REMSYN06448304 32565 30000 10260 20172 39670 40127 57025 83505 333 59017=
0205483040999992022011712004+19867+099767FM-12+040199999V0209999C000012200019N015000199+02171+01901101431ADDAA124014231GA1021+008001061GE19AGL   +99999+99999GF102991021999008001999999KA1240M+02651MA1999999096781MD1210081-0031REMSYN07648304 32565 20000 10217 20190 39678 40143 52008 82500 333 10265 59003 70142=
0136483040999992022011715004+19870+099774FM-12+039799999V0203601N0000122000199012000199+01851+01711101671ADDAA103999999AZ101031AZ201031GA1021+008001061GE19AGL   +99999+99999GF102991021999008001999999MA1999999096961MD1210181+0011REMSYN004BUFR
0186483040999992022011718004+19867+099767FM-12+040199999V0209999C000012200019N012000199+01651+01561101691ADDAA124006631GA1021+008001061GE19AGL   +99999+99999GF102991021999008001999999MA1999999096951MD1710011+0041REMSYN07048304 32562 20000 10165 20156 39695 40169 57001 82500 333 58004 70066=
0169483040999992022011721004+19867+099767FM-12+040199999V0209999C000012200019N012000199+01521+01471101641ADDGA1011+008001061GE19AGL   +99999+99999GF101991011999008001999999MA1999999096881MD1710071+0111REMSYN06448304 32562 10000 10152 20147 39688 40164 57007 81500 333 58011=
0149483040999992022011800004+19870+099774FM-12+039799999V0203601N0000122000199015000199+01501+01451101731ADDAA106999999AZ101061AZ201061GA1031+008001061GE19AGL   +99999+99999GF103991031999008001999999KA1120N+01431MA1999999096971MD1210091+0041REMSYN004BUFR
0136483040999992022011803004+19870+099774FM-12+039799999V0203601N0000122000199015000199+02071+01721101771ADDAA103999999AZ101031AZ201031GA1031+008001061GE19AGL   +99999+99999GF103991031999008001999999MA1999999097091MD1210121-0071REMSYN004BUFR
0185483040999992022011806004+19867+099767FM-12+040199999V0200201N001019999999N015000199+02491+01701101491ADDGA1041+008001061GA2999+999999021GE19AGL   +99999+99999GF105991041999008001999999MA1999999096891MD1710201-0061REMSYN06448304 32565 50202 10249 20170 39689 40149 57020 84505 333 59006=
0169483040999992022011809004+19867+099767FM-12+040199999V0209999C000012200019N015000199+02621+01711101171ADDGA1031+008001061GE19AGL   +99999+99999GF103991031999008001999999MA1999999096611MD1710291-0101REMSYN06448304 32565 30000 10262 20171 39661 40117 57029 83500 333 59010=
0220483040999992022011812004+19867+099767FM-12+040199999V0209999C000019999999N015000199+02251+01941101311ADDGA1041+008001081GA2999+999999031GA3999+999999021GE19AGL   +99999+99999GF106991041999008001999999KA1240M+02671MA1999999096681MD1210081-0111REMSYN07048304 32565 60000 10225 20194 39668 40131 52008 84876 333 10267 59011=
0168483040999992022011815004+19870+099774FM-12+039799999V0203601N0000199999999012000199+02071+01921101491ADDAA103999999AZ101031AZ201031GA1031+012501061GA2999+999999031GA3999+999999021GE19AGL   +99999+99999GF106991031999012501999999MA1999999096821MD1210141-0181REMSYN004BUFR
0264483040999992022011818004+19867+099767FM-12+040199999V0200401N001519999999N001000199+01801+01701101611ADDAA102003031AA218003032AA324002632AY191021AY221021GA1061+008001091GA2999+999999031GE19AGL   +99999+99999GF108991061999008001999999MA1999999096901MD1210071-0081MW1951REMSYN08848304 01510 80403 10180 20170 39690 40161 52007 60033 79592 8697/ 333 59008 60036 70026=
0174483040999992022011821004+19870+099774FM-12+039799999V0203601N0000199999999012000199+01771+01711101431ADDAA103000231AY191031AY221031GA1031+008001061GA2999+999999031GA3999+999999021GE19AGL   +99999+99999GF106991031999008001999999MA1999999096731MD1710171-0201MW1011REMSYN004BUFR
0198483040999992022011900004+19870+099774FM-12+039799999V0203601N00001008001C9008000199+01821+01791101501ADDAA101000231AA224003031AY191061AY221061GA1051+008001061GA2999+999999031GA3999+999999021GE19AGL   +99999+99999GF106991051999008001999999KA1120N+01741MA1999999096791MD1210071-0241MW1601REMSYN004BUFR
0174483040999992022011903004+19870+099774FM-12+039799999V0203601N0000199999999015000199+02001+01841101651ADDAA103010031AY191031AY261031GA1021+012501061GA2999+999999031GA3999+999999021GE19AGL   +99999+99999GF105991021999012501999999MA1999999096971MD1210171-0121MW1011REMSYN004BUFR
0263483040999992022011906004+19867+099767FM-12+040199999V0209999C000019999999N015000199+02221+01801101371ADDAA106010031AA224012631AY191021AY261021GA1021+012501061GA2999+999999031GA3999+999999021GE19AGL   +99999+99999GF105991021999012501999999MA1999999096731MD1710231-0131MW1021REMSYN08248304 11665 50000 10222 20180 39673 40137 57023 60101 70296 82546 333 59013 70126=
0201483040999992022011909004+19867+099767FM-12+040199999V0209999C000019999999N015000199+02401+01851101001ADDGA1031+012501061GA2999+999999031GA3999+999999021GE19AGL   +99999+99999GF106991031999012501999999MA1999999096411MD1710331-0181REMSYN06448304 32665 60000 10240 20185 39641 40100 57033 83446 333 59018=
0196483040999992022011912004+19870+099774FM-12+039799999V0200201N00151008001C9002000199+02101+01921101101ADDAA101000431AA212010031AA324013031AY121061AY221061GA1061+008001061GA2999+999999031GA3999+999999021GE19AGL   +99999+99999GF108991061999008001999999MA1999999096461MD1210051-0211MW1601REMSYN004BUFR
0174483040999992022011915004+19870+099774FM-12+039799999V0203601N00001008001C9001000199+01871+01801101421ADDAA103004031AY161031AY221031GA1061+008001091GA2999+999999031GA3999+999999101GE19AGL   +99999+99999GF108991061999008001999999MA1999999096731MD1210271-0071MW1951REMSYN004BUFR
0185483040999992022011918004+19870+099774FM-12+039799999V0203601N0000199999999012000199+01671+01591101381ADDAA118014031AA224014431AY191061AY261061GA1031+008001061GA2999+999999031GA3999+999999021GE19AGL   +99999+99999GF106991031999008001999999MA1999999096661MD1710061-0221MW1011REMSYN004BUFR
0174483040999992022011921004+19870+099774FM-12+039799999V0203601N0000199999999008000199+01671+01611101261ADDAA103999999AY121031AY221031GA1041+008001061GA2999+999999031GA3999+999999021GE19AGL   +99999+99999GF108991041999008001999999MA1999999096551MD1710121-0171MW1101REMSYN004BUFR
0198483040999992022012000004+19870+099774FM-12+039799999V0203601N00001008001C9004000199+01701+01641101361ADDAA106999999AA224014031AY121061AY221061GA1051+008001061GA2999+999999031GA3999+999999021GE19AGL   +99999+99999GF108991051999008001999999KA1120N+01611MA1999999096641MD1210091-0141MW1101REMSYN004BUFR
0229483040999992022012003004+19867+099767FM-12+040199999V0209999C000019999999N015000199+01861+01731101491ADDAY121021AY221021GA1051+008001091GA2999+999999031GA3999+999999021GE19AGL   +99999+99999GF106991051999008001999999MA1999999096791MD1210151-0161MW1171REMSYN07048304 31565 60000 10186 20173 39679 40149 52015 71722 85946 333 59016=
0280483040999992022012006004+19867+099767FM-12+040199999V0209999C000019999999N015000199+02171+01731101271ADDAA103000231AA206000231AA324004631AY191021AY221021GA1031+008001061GA2999+999999031GA3999+999999021GE19AGL   +99999+99999GF106991031999008001999999MA1999999096631MD1710161-0091MW1021REMSYN08848304 01565 60000 10217 20173 39663 40127 57016 69921 70292 83546 333 59009 69927 70046=
0169483040999992022012009004+19867+099767FM-12+040199999V0209999C000012200019N015000199+02401+01781100861ADDGA1021+012501061GE19AGL   +99999+99999GF102991021999012501999999MA1999999096281MD1710361-0141REMSYN06448304 32665 20000 10240 20178 39628 40086 57036 82500 333 59014=
0205483040999992022012012004+19867+099767FM-12+040199999V0209999C000012200019N015000199+02101+01881100941ADDAA124004231GA1021+012501061GE19AGL   +99999+99999GF102991021999012501999999KA1240M+02461MA1999999096311MD1210031-0161REMSYN07648304 32665 20000 10210 20188 39631 40094 52003 82500 333 10246 59016 70042=
0201483040999992022012015004+19867+099767FM-12+040199999V0209999C000019999999N012000199+01851+01671101191ADDGA1051+008001061GA2999+999999031GA3999+999999021GE19AGL   +99999+99999GF106991051999008001999999MA1999999096511MD1210201-0231REMSYN06448304 32562 60000 10185 20167 39651 40119 52020 85546 333 59023=
0280483040999992022012018004+19867+099767FM-12+040199999V0209999C000019999999N010000199+01801+01701101251ADDAA103001031AA218001031AA324001231AY161021AY211021GA1061+012501061GA2999+999999031GA3999+999999021GE19AGL   +99999+99999GF106991061999012501999999MA1999999096551MD1210051-0141MW1021REMSYN08848304 01660 60000 10180 20170 39655 40125 52005 60013 70261 86546 333 59014 60017 70012=
0201483040999992022012021004+19867+099767FM-12+040199999V0209999C000019999999N010000199+01771+01671101101ADDGA1051+012501061GA2999+999999031GA3999+999999021GE19AGL   +99999+99999GF106991051999012501999999MA1999999096411MD1710151-0161REMSYN06448304 32660 60000 10177 20167 39641 40110 57015 85546 333 59016=
0272483040999992022012100004+19867+099767FM-12+040199999V0209999C000019999999N003000199+01711+01641101101ADDAA101004031AA224005031AY121021AY221021GA1061+008001091GA2999+999999031GE19AGL   +99999+99999GF108991061999008001999999KA1120N+01701MA1999999096401MD1410001-0251MW1951REMSYN09448304 01530 80000 10171 20164 39640 40110 54000 60054 79522 8697/ 333 20170 59025 60045 70050=
0230483040999992022012103004+19867+099767FM-12+040199999V0209999C000019999999N006000199+01901+01821101321ADDAA103001031AY161021AY261021GA1061+008001061GA2999+999999031GE19AGL   +99999+99999GF108991061999008001999999MA1999999096641MD1210241-0171MW1511REMSYN07648304 21556 80000 10190 20182 39664 40132 52024 75166 8657/ 333 59017 60017=
0231483040999992022012106004+19867+099767FM-12+040199999V0201401N001019999999N015000199+02291+01851101061ADDAA106001031AA224005831AY161021AY251021GA1051+008001081GE19AGL   +99999+99999GF105991051999008001999999MA1999999096451MD1710181-0211MW1011REMSYN08248304 11565 51402 10229 20185 39645 40106 57018 60011 70165 85200 333 59021 70058=
0169483040999992022012109004+19867+099767FM-12+040199999V0201401N001519999999N015000199+02571+01931100751ADDGA1051+008001091GE19AGL   +99999+99999GF105991051999008001999999MA1999999096191MD1710261-0111REMSYN06448304 32565 51403 10257 20193 39619 40075 57026 85900 333 59011=
0237483040999992022012112004+19867+099767FM-12+040199999V0209999C000012200019N012000199+02161+01911100861ADDAA124005831GA1021+012501061GA2999+999999031GA3999+999999021GE19AGL   +99999+99999GF103991021999012501999999KA1240M+02621MA1999999096241MD1210051-0071REMSYN07648304 32662 30000 10216 20191 39624 40086 52005 82545 333 10262 59007 70058=
0201483040999992022012115004+19867+099767FM-12+040199999V0209999C000019999999N012000199+01871+01691101091ADDGA1021+012501061GA2999+999999031GA3999+999999021GE19AGL   +99999+99999GF105991021999012501999999MA1999999096421MD1210171-0101REMSYN06448304 32662 50000 10187 20169 39642 40109 52017 82546 333 59010=
0218483040999992022012118004+19867+099767FM-12+040199999V0209999C000019999999N010000199+01781+01681101081ADDAA124004831GA1031+012501061GA2999+999999031GA3999+999999021GE19AGL   +99999+99999GF105991031999012501999999MA1999999096391MD1710031-0171REMSYN07048304 32660 50000 10178 20168 39639 40108 57003 83546 333 59017 70048=
0213483040999992022012121004+19867+099767FM-12+040199999V0209999C000019999999N007000199+01701+01611100941ADDAY121021AY221021GA1061+012501061GA2999+999999031GE19AGL   +99999+99999GF108991061999012501999999MA1999999096241MD1710151-0161MW1101REMSYN07048304 31657 80000 10170 20161 39624 40094 57015 71022 8657/ 333 59016=
0189483040999992022012200004+19867+099767FM-12+040199999V0209999C00001000001WN000000199+01741+01711101101ADDAA124001031AY141021AY221021GF109991999999999999999999KA1120N+01701MA1999999096401MD1210161+0001MW1471REMSYN07648304 31/00 90000 10174 20171 39640 40110 52016 74742 333 20170 58000 70010=
0213483040999992022012203004+19867+099767FM-12+040199999V0200601N001019999999N012000199+02001+01871101241ADDAY141021AY221021GA1061+012501061GA2999+999999031GE19AGL   +99999+99999GF108991061999012501999999MA1999999096581MD1210181-0071MW1021REMSYN07048304 31662 80602 10200 20187 39658 40124 52018 70242 8657/ 333 59007=
0197483040999992022012206004+19867+099767FM-12+040199999V0201801N001512200019N015000199+02471+01711100881ADDAY141021AY211021GA1021+008001081GE19AGL   +99999+99999GF102991021999008001999999MA1999999096311MD1710271-0181MW1011REMSYN07048304 31565 21803 10247 20171 39631 40088 57027 70141 82200 333 59018=
0169483040999992022012209004+19867+099767FM-12+040199999V0209999C000012200019N015000199+02781+01821100521ADDGA1011+008001081GE19AGL   +99999+99999GF101991011999008001999999MA1999999096001MD1710301-0231REMSYN06448304 32565 10000 10278 20182 39600 40052 57030 81200 333 59023=
0188483040999992022012212004+19867+099767FM-12+040199999V0209999C000012200019N012000199+02221+01891100691ADDGA1011+012501081GE19AGL   +99999+99999GF101991011999012501999999KA1240M+02801MA1999999096081MD1210081-0181REMSYN07048304 32662 10000 10222 20189 39608 40069 52008 81100 333 10280 59018=
0169483040999992022012215004+19867+099767FM-12+040199999V0209999C000012200019N012000199+01841+01721100921ADDGA1021+008001061GE19AGL   +99999+99999GF102991021999008001999999MA1999999096241MD1210161-0181REMSYN06448304 32562 20000 10184 20172 39624 40092 52016 82500 333 59018=
0169483040999992022012218004+19867+099767FM-12+040199999V0209999C000012200019N010000199+01681+01591100981ADDGA1011+008001061GE19AGL   +99999+99999GF101991011999008001999999MA1999999096281MD1210041-0101REMSYN06448304 32560 10000 10168 20159 39628 40098 52004 81500 333 59010=
0099483040999992022012221004+19867+099767FM-12+040199999V0209999C000019999999N010000199+01501+01411101001ADDMA1999999096271MD1710011+0071REMSYN05848304 32960 00000 10150 20141 39627 40100 57001 333 58007=
0118483040999992022012300004+19867+099767FM-12+040199999V0209999C000019999999N012000199+01401+01361101201ADDKA1120N+01341MA1999999096451MD1210181+0111REMSYN06448304 32962 00000 10140 20136 39645 40120 52018 333 20134 58011=
0099483040999992022012303004+19867+099767FM-12+040199999V0209999C000019999999N015000199+02051+01671101291ADDMA1999999096631MD1210181+0041REMSYN05848304 32965 00000 10205 20167 39663 40129 52018 333 58004=
0169483040999992022012306004+19867+099767FM-12+040199999V0209999C000012200019N015000199+02601+01511101011ADDGA1011+008001061GE19AGL   +99999+99999GF101991011999008001999999MA1999999096451MD1710181+0131REMSYN06448304 32565 10000 10260 20151 39645 40101 57018 81500 333 58013=
0169483040999992022012309004+19867+099767FM-12+040199999V0209999C000012200019N015000199+02771+01241100761ADDGA1011+008001061GE19AGL   +99999+99999GF101991011999008001999999MA1999999096241MD1710211+0251REMSYN06448304 32565 10000 10277 20124 39624 40076 57021 81500 333 58025=
0118483040999992022012312004+19867+099767FM-12+040199999V0209999C000019999999N015000199+02171+01771100921ADDKA1240M+02811MA1999999096301MD1210061+0241REMSYN06448304 32965 00000 10217 20177 39630 40092 52006 333 10281 58024=
0099483040999992022012315004+19867+099767FM-12+040199999V0209999C000019999999N012000199+01681+01541101151ADDMA1999999096441MD1210141+0231REMSYN05848304 32962 00000 10168 20154 39644 40115 52014 333 58023=
0099483040999992022012318004+19867+099767FM-12+040199999V0209999C000019999999N012000199+01451+01401101201ADDMA1999999096461MD1210021+0221REMSYN05848304 32962 00000 10145 20140 39646 40120 52002 333 58022=
0099483040999992022012321004+19867+099767FM-12+040199999V0209999C000019999999N012000199+01301+01241101191ADDMA1999999096421MD1710031+0191REMSYN05848304 32962 00000 10130 20124 39642 40119 57003 333 58019=
0118483040999992022012400004+19867+099767FM-12+040199999V0209999C000019999999N012000199+01281+01221101351ADDKA1120N+01201MA1999999096571MD1210151+0151REMSYN06448304 32962 00000 10128 20122 39657 40135 52015 333 20120 58015=
0098483040999992022012403004+19870+099774FM-12+039799999V0203601N0000122000199015000199+01921+01551101441ADDAA103999999AZ101031AZ201031GF100991999999999999999999MA1999999096751MD1210181+0151REMSYN004BUFR
0099483040999992022012406004+19867+099767FM-12+040199999V0209999C000019999999N015000199+02501+01501101101ADDMA1999999096521MD1710231+0091REMSYN05848304 32965 00000 10250 20150 39652 40110 57023 333 58009=
0169483040999992022012409004+19867+099767FM-12+040199999V0209999C000012200019N015000199+02801+01481100791ADDGA1011+008001061GE19AGL   +99999+99999GF101991011999008001999999MA1999999096271MD1710251+0031REMSYN06448304 32565 10000 10280 20148 39627 40079 57025 81500 333 58003=
0118483040999992022012412004+19867+099767FM-12+040199999V0209999C000019999999N012000199+02221+01841100941ADDKA1240M+02851MA1999999096321MD1210061+0011REMSYN06448304 32962 00000 10222 20184 39632 40094 52006 333 10285 58001=
0099483040999992022012415004+19867+099767FM-12+040199999V0209999C000019999999N012000199+01721+01551101211ADDMA1999999096511MD1210191+0071REMSYN05848304 32962 00000 10172 20155 39651 40121 52019 333 58007=
0099483040999992022012418004+19867+099767FM-12+040199999V0209999C000019999999N012000199+01541+01431101241ADDMA1999999096511MD1410001+0041REMSYN05848304 32962 00000 10154 20143 39651 40124 54000 333 58004=
0098483040999992022012421004+19870+099774FM-12+039799999V0203601N0000122000199012000199+01321+01241101201ADDAA103999999AZ101031AZ201031GF100991999999999999999999MA1999999096431MD1710071+0011REMSYN004BUFR
0111483040999992022012500004+19870+099774FM-12+039799999V0203601N0000122000199012000199+01251+01191101441ADDAA106999999AZ101061AZ201061GF100991999999999999999999KA1120N+01191MA1999999096651MD1210221+0091REMSYN004BUFR
0098483040999992022012503004+19870+099774FM-12+039799999V0203601N0000122000199015000199+02001+01581101481ADDAA103999999AZ101031AZ201031GF100991999999999999999999MA1999999096811MD1210151+0041REMSYN004BUFR
0136483040999992022012506004+19870+099774FM-12+039799999V0203601N0000122000199015000199+02611+01581101041ADDAA106999999AZ101061AZ201061GA1021+012501061GE19AGL   +99999+99999GF102991021999012501999999MA1999999096481MD1710321-0061REMSYN004BUFR
0136483040999992022012509004+19870+099774FM-12+039799999V0203601N0000122000199015000199+02921+01611100761ADDAA103999999AZ101031AZ201031GA1021+012501061GE19AGL   +99999+99999GF102991021999012501999999MA1999999096261MD1710221-0031REMSYN004BUFR
0118483040999992022012512004+19867+099767FM-12+040199999V0209999C000019999999N015000199+02181+01741100951ADDKA1240M+02941MA1999999096331MD1210071+0011REMSYN06448304 32965 00000 10218 20174 39633 40095 52007 333 10294 58001=
0098483040999992022012515004+19870+099774FM-12+039799999V0203601N0000122000199015000199+01771+01611101191ADDAA103999999AZ101031AZ201031GF100991999999999999999999MA1999999096501MD1210171-0021REMSYN004BUFR
0099483040999992022012518004+19867+099767FM-12+040199999V0209999C000019999999N012000199+01601+01481101221ADDMA1999999096491MD1710011-0021REMSYN05848304 32962 00000 10160 20148 39649 40122 57001 333 59002=
0099483040999992022012521004+19867+099767FM-12+040199999V0209999C000019999999N010000199+01421+01351101191ADDMA1999999096441MD1710061-0011REMSYN05848304 32960 00000 10142 20135 39644 40119 57006 333 59001=
0111483040999992022012600004+19870+099774FM-12+039799999V0203601N0000122000199012000199+01261+01221101401ADDAA106999999AZ101061AZ201061GF100991999999999999999999KA1120N+01211MA1999999096611MD1210181-0041REMSYN004BUFR
0099483040999992022012603004+19867+099767FM-12+040199999V0209999C000019999999N015000199+02051+01601101461ADDMA1999999096801MD1210191-0021REMSYN05848304 32965 00000 10205 20160 39680 40146 52019 333 59002=
0136483040999992022012606004+19870+099774FM-12+039799999V0203601N0000122000199015000199+02671+01571101071ADDAA106999999AZ101061AZ201061GA1021+012501061GE19AGL   +99999+99999GF102991021999012501999999MA1999999096521MD1710281+0031REMSYN004BUFR
0098483040999992022012609004+19870+099774FM-12+039799999V0203601N0000122000199015000199+02951+01361100771ADDAA103999999AZ101031AZ201031GF100991999999999999999999MA1999999096271MD1710241+0011REMSYN004BUFR
0098483040999992022012612004+19870+099774FM-12+039799999V0203601N0000122000199015000199+02201+01681100921ADDAA106999999AZ101061AZ201061GF100991999999999999999999MA1999999096311MD1210031-0031REMSYN004BUFR
0099483040999992022012615004+19867+099767FM-12+040199999V0209999C000019999999N012000199+01851+01651101151ADDMA1999999096471MD1210161-0041REMSYN05848304 32962 00000 10185 20165 39647 40115 52016 333 59004=
0099483040999992022012618004+19867+099767FM-12+040199999V0209999C000019999999N010000199+01641+01521101241ADDMA1999999096521MD1210051+0021REMSYN05848304 32960 00000 10164 20152 39652 40124 52005 333 58002=
0099483040999992022012621004+19867+099767FM-12+040199999V0209999C000019999999N010000199+01531+01461101251ADDMA1999999096521MD1410001+0071REMSYN05848304 32960 00000 10153 20146 39652 40125 54000 333 58007=
0146483040999992022012700004+19867+099767FM-12+040199999V0209999C000019999999N007000199+01341+01271101371ADDAY101021AY201021KA1120N+01281MA1999999096601MD1710081-0021MW1101REMSYN07048304 31957 00000 10134 20127 39660 40137 57008 71000 333 20128 59002=
0099483040999992022012703004+19867+099767FM-12+040199999V0209999C000019999999N012000199+02061+01681101431ADDMA1999999096771MD1210171-0031REMSYN05848304 32962 00000 10206 20168 39677 40143 52017 333 59003=
0099483040999992022012706004+19867+099767FM-12+040199999V0209999C000019999999N015000199+02711+01631101031ADDMA1999999096491MD1710281-0031REMSYN05848304 32965 00000 10271 20163 39649 40103 57028 333 59003=
0169483040999992022012709004+19867+099767FM-12+040199999V0201401N001012200019N015000199+02981+01321100781ADDGA1011+012501081GE19AGL   +99999+99999GF101991011999012501999999MA1999999096291MD1710201+0011REMSYN06448304 32665 11402 10298 20132 39629 40078 57020 81100 333 58001=
0118483040999992022012712004+19867+099767FM-12+040199999V0209999C000019999999N012000199+02231+01781100931ADDKA1240M+03021MA1999999096321MD1210031+0011REMSYN06448304 32962 00000 10223 20178 39632 40093 52003 333 10302 58001=
0099483040999992022012715004+19867+099767FM-12+040199999V0209999C000019999999N010000199+01841+01621101191ADDMA1999999096501MD1210181+0041REMSYN05848304 32960 00000 10184 20162 39650 40119 52018 333 58004=
0099483040999992022012718004+19867+099767FM-12+040199999V0209999C000019999999N010000199+01541+01431101281ADDMA1999999096551MD1210041+0041REMSYN05848304 32960 00000 10154 20143 39655 40128 52004 333 58004=
0099483040999992022012721004+19867+099767FM-12+040199999V0209999C000019999999N010000199+01431+01361101221ADDMA1999999096471MD1710081-0031REMSYN05848304 32960 00000 10143 20136 39647 40122 57008 333 59003=
0118483040999992022012800004+19867+099767FM-12+040199999V0209999C000019999999N010000199+01251+01171101341ADDKA1120N+01201MA1999999096561MD1210091-0031REMSYN06448304 32960 00000 10125 20117 39656 40134 52009 333 20120 59003=
0099483040999992022012803004+19867+099767FM-12+040199999V0209999C000019999999N015000199+02071+01581101401ADDMA1999999096741MD1210191-0031REMSYN05848304 32965 00000 10207 20158 39674 40140 52019 333 59003=
0169483040999992022012806004+19867+099767FM-12+040199999V0200801N001012200019N015000199+02781+01411101011ADDGA1011+012501081GE19AGL   +99999+99999GF101991011999012501999999MA1999999096481MD1710261-0021REMSYN06448304 32665 10802 10278 20141 39648 40101 57026 81100 333 59002=
0169483040999992022012809004+19867+099767FM-12+040199999V0203101N001512200019N015000199+03031+01131100651ADDGA1021+012501081GE19AGL   +99999+99999GF102991021999012501999999MA1999999096171MD1710311-0141REMSYN06448304 32665 23103 10303 20113 39617 40065 57031 82100 333 59014=
0136483040999992022012812004+19870+099774FM-12+039799999V0203601N0000122000199012000199+02321+01841100821ADDAA106999999AZ101061AZ201061GA1011+012501081GE19AGL   +99999+99999GF101991011999012501999999MA1999999096221MD1210061-0121REMSYN004BUFR
0099483040999992022012815004+19867+099767FM-12+040199999V0209999C000019999999N012000199+01731+01511101091ADDMA1999999096391MD1210171-0101REMSYN05848304 32962 00000 10173 20151 39639 40109 52017 333 59010=
0099483040999992022012818004+19867+099767FM-12+040199999V0209999C000019999999N012000199+01501+01361101121ADDMA1999999096391MD1710011-0161REMSYN05848304 32962 00000 10150 20136 39639 40112 57001 333 59016=
0099483040999992022012821004+19867+099767FM-12+040199999V0209999C000019999999N012000199+01371+01301101111ADDMA1999999096351MD1710041-0111REMSYN05848304 32962 00000 10137 20130 39635 40111 57004 333 59011=
0149483040999992022012900004+19870+099774FM-12+039799999V0203601N0000122000199015000199+01311+01251101181ADDAA106999999AZ101061AZ201061GA1011+008001061GE19AGL   +99999+99999GF101991011999008001999999KA1120N+01241MA1999999096421MD1210061-0161REMSYN004BUFR
0169483040999992022012903004+19867+099767FM-12+040199999V0209999C000012200019N015000199+02061+01441101291ADDGA1021+008001061GE19AGL   +99999+99999GF102991021999008001999999MA1999999096631MD1210211-0121REMSYN06448304 32565 20000 10206 20144 39663 40129 52021 82500 333 59012=
0185483040999992022012906004+19867+099767FM-12+040199999V0209999C000012200019N015000199+02801+01371100841ADDGA1021+008001061GA2999+999999021GE19AGL   +99999+99999GF103991021999008001999999MA1999999096311MD1710321-0181REMSYN06448304 32565 30000 10280 20137 39631 40084 57032 82505 333 59018=
0185483040999992022012909004+19867+099767FM-12+040199999V0209999C000012200019N015000199+02861+01391100531ADDGA1021+008001061GA2999+999999021GE19AGL   +99999+99999GF103991021999008001999999MA1999999096031MD1710291-0121REMSYN06448304 32565 30000 10286 20139 39603 40053 57029 82505 333 59012=
0188483040999992022012912004+19867+099767FM-12+040199999V0209999C000012200019N015000199+02301+01911100671ADDGA1011+008001061GE19AGL   +99999+99999GF101991011999008001999999KA1240M+03001MA1999999096081MD1210051-0151REMSYN07048304 32565 10000 10230 20191 39608 40067 52005 81500 333 10300 59015=
0099483040999992022012915004+19867+099767FM-12+040199999V0209999C000019999999N012000199+01741+01571100961ADDMA1999999096271MD1210191-0131REMSYN05848304 32962 00000 10174 20157 39627 40096 52019 333 59013=
0099483040999992022012918004+19867+099767FM-12+040199999V0209999C000019999999N012000199+01501+01371100971ADDMA1999999096241MD1710031-0151REMSYN05848304 32962 00000 10150 20137 39624 40097 57003 333 59015=
0099483040999992022012921004+19867+099767FM-12+040199999V0209999C000019999999N012000199+01351+01291100961ADDMA1999999096211MD1710031-0151REMSYN05848304 32962 00000 10135 20129 39621 40096 57003 333 59015=
0111483040999992022013000004+19870+099774FM-12+039799999V0203601N0000122000199015000199+01221+01141101021ADDAA106999999AZ101061AZ201061GF100991999999999999999999KA1120N+01141MA1999999096241MD1210031-0171REMSYN004BUFR
0099483040999992022013003004+19867+099767FM-12+040199999V0209999C000019999999N015000199+02011+01521101111ADDMA1999999096461MD1210221-0171REMSYN05848304 32965 00000 10201 20152 39646 40111 52022 333 59017=
0099483040999992022013006004+19867+099767FM-12+040199999V0202101N002619999999N015000199+02671+01191100721ADDMA1999999096181MD1710281-0121REMSYN05848304 32965 02105 10267 20119 39618 40072 57028 333 59012=
0099483040999992022013009004+19867+099767FM-12+040199999V0202401N002119999999N015000199+02851+01221100381ADDMA1999999095891MD1710291-0141REMSYN05848304 32965 02404 10285 20122 39589 40038 57029 333 59014=
0118483040999992022013012004+19867+099767FM-12+040199999V0209999C000019999999N015000199+02201+01621100541ADDKA1240M+02901MA1999999095941MD1210051-0131REMSYN06448304 32965 00000 10220 20162 39594 40054 52005 333 10290 59013=
0099483040999992022013015004+19867+099767FM-12+040199999V0209999C000019999999N012000199+01741+01501100841ADDMA1999999096151MD1210211-0121REMSYN05848304 32962 00000 10174 20150 39615 40084 52021 333 59012=
0099483040999992022013018004+19867+099767FM-12+040199999V0209999C000019999999N010000199+01521+01361100961ADDMA1999999096231MD1210081-0011REMSYN05848304 32960 00000 10152 20136 39623 40096 52008 333 59001=
0099483040999992022013021004+19867+099767FM-12+040199999V0209999C000019999999N010000199+01321+01211100961ADDMA1999999096201MD1710041+0001REMSYN05848304 32960 00000 10132 20121 39620 40096 57004 333 58000=
0118483040999992022013100004+19867+099767FM-12+040199999V0209999C000019999999N010000199+01071+00991101111ADDKA1120N+01011MA1999999096301MD1210101+0091REMSYN06448304 32960 00000 10107 20099 39630 40111 52010 333 20101 58009=
0099483040999992022013103004+19867+099767FM-12+040199999V0209999C000019999999N015000199+01941+01361101231ADDMA1999999096561MD1210261+0121REMSYN05848304 32965 00000 10194 20136 39656 40123 52026 333 58012=
0099483040999992022013106004+19867+099767FM-12+040199999V0209999C000019999999N015000199+02661+01131100871ADDMA1999999096331MD1710241+0161REMSYN05848304 32965 00000 10266 20113 39633 40087 57024 333 58016=
0099483040999992022013109004+19867+099767FM-12+040199999V0202501N001519999999N015000199+02931+00971100501ADDMA1999999096011MD1710321+0121REMSYN05848304 32965 02503 10293 20097 39601 40050 57032 333 58012=
0118483040999992022013112004+19867+099767FM-12+040199999V0209999C000019999999N013000199+02201+01531100701ADDKA1240M+02961MA1999999096091MD1210081+0161REMSYN06448304 32963 00000 10220 20153 39609 40070 52008 333 10296 58016=
0099483040999992022013115004+19867+099767FM-12+040199999V0209999C000019999999N012000199+01671+01371100991ADDMA1999999096291MD1210201+0151REMSYN05848304 32962 00000 10167 20137 39629 40099 52020 333 58015=
0099483040999992022013118004+19867+099767FM-12+040199999V0209999C000019999999N010000199+01341+01191101081ADDMA1999999096321MD1210041+0131REMSYN05848304 32960 00000 10134 20119 39632 40108 52004 333 58013=
0099483040999992022013121004+19867+099767FM-12+040199999V0209999C000019999999N010000199+01171+01071101081ADDMA1999999096301MD1710031+0131REMSYN05848304 32960 00000 10117 20107 39630 40108 57003 333 58013=
0118483040999992022020100004+19867+099767FM-12+040199999V0209999C000019999999N010000199+00941+00881101241ADDKA1120N+00901MA1999999096411MD1210111+0141REMSYN06448304 32960 00000 10094 20088 39641 40124 52011 333 20090 58014=
0099483040999992022020103004+19867+099767FM-12+040199999V0209999C000019999999N015000199+01861+01251101331ADDMA1999999096641MD1210241+0101REMSYN05848304 32965 00000 10186 20125 39664 40133 52024 333 58010=
0099483040999992022020106004+19867+099767FM-12+040199999V0201101N002119999999N015000199+02681+01111100871ADDMA1999999096331MD1710321+0001REMSYN05848304 32965 01104 10268 20111 39633 40087 57032 333 58000=
0098483040999992022020109004+19870+099774FM-12+039799999V0203601N0000122000199015000199+03051+00881100441ADDAA103999999AZ101031AZ201031GF100991999999999999999999MA1999999095971MD1710361-0061REMSYN004BUFR
0118483040999992022020112004+19867+099767FM-12+040199999V0209999C000019999999N013000199+02161+01501100701ADDKA1240M+03061MA1999999096091MD1210121+0011REMSYN06448304 32963 00000 10216 20150 39609 40070 52012 333 10306 58001=
0099483040999992022020115004+19867+099767FM-12+040199999V0209999C000019999999N012000199+01681+01421100971ADDMA1999999096271MD1210181-0021REMSYN05848304 32962 00000 10168 20142 39627 40097 52018 333 59002=
0098483040999992022020118004+19870+099774FM-12+039799999V0203601N0000122000199012000199+01401+01241101141ADDAA106999999AZ101061AZ201061GF100991999999999999999999MA1999999096391MD1210111+0061REMSYN004BUFR
0098483040999992022020121004+19870+099774FM-12+039799999V0203601N0000122000199010000199+01221+01121101211ADDAA103999999AZ101031AZ201031GF100991999999999999999999MA1999999096421MD1210041+0121REMSYN004BUFR
0111483040999992022020200004+19870+099774FM-12+039799999V0203601N0000122000199012000199+01051+00991101401ADDAA106999999AZ101061AZ201061GF100991999999999999999999KA1120N+00991MA1999999096581MD1210161+0161REMSYN004BUFR
0098483040999992022020203004+19870+099774FM-12+039799999V0203601N0000122000199015000199+02071+01061101441ADDAA103999999AZ101031AZ201031GF100991999999999999999999MA1999999096781MD1210201+0111REMSYN004BUFR
0169483040999992022020206004+19867+099767FM-12+040199999V0202501N003112200019N015000199+02801+01171100981ADDGA1021+012501061GE19AGL   +99999+99999GF102991021999012501999999MA1999999096451MD1710331+0111REMSYN06448304 32665 22506 10280 20117 39645 40098 57033 82500 333 58011=
0099483040999992022020209004+19867+099767FM-12+040199999V0202101N003119999999N015000199+03051+00761100721ADDMA1999999096231MD1710221+0281REMSYN05848304 32965 02106 10305 20076 39623 40072 57022 333 58028=
0098483040999992022020212004+19870+099774FM-12+039799999V0203601N0000122000199015000199+02221+01481100851ADDAA106999999AZ101061AZ201061GF100991999999999999999999MA1999999096241MD1210011+0151REMSYN004BUFR
0098483040999992022020215004+19870+099774FM-12+039799999V0203601N0000122000199015000199+01771+01281101221ADDAA103999999AZ101031AZ201031GF100991999999999999999999MA1999999096531MD1210281+0251REMSYN004BUFR
0098483040999992022020218004+19870+099774FM-12+039799999V0203601N0000122000199012000199+01411+01241101341ADDAA106999999AZ101061AZ201061GF100991999999999999999999MA1999999096581MD1210061+0201REMSYN004BUFR
0098483040999992022020221004+19870+099774FM-12+039799999V0203601N0000122000199012000199+01171+01081101411ADDAA103999999AZ101031AZ201031GF100991999999999999999999MA1999999096611MD1210021+0201REMSYN004BUFR
0111483040999992022020300004+19870+099774FM-12+039799999V0203601N0000122000199015000199+01001+00911101571ADDAA106999999AZ101061AZ201061GF100991999999999999999999KA1120N+00921MA1999999096741MD1210131+0171REMSYN004BUFR
0098483040999992022020303004+19870+099774FM-12+039799999V0203601N0000122000199015000199+01971+01141101601ADDAA103999999AZ101031AZ201031GF100991999999999999999999MA1999999096921MD1210181+0161REMSYN004BUFR
0098483040999992022020306004+19870+099774FM-12+039799999V0203601N0000122000199015000199+02701+01121101171ADDAA106999999AZ101061AZ201061GF100991999999999999999999MA1999999096611MD1710311+0191REMSYN004BUFR
0099483040999992022020309004+19867+099767FM-12+040199999V0209999C000019999999N015000199+02891+00961100881ADDMA1999999096371MD1710251+0171REMSYN05848304 32965 00000 10289 20096 39637 40088 57025 333 58017=
0098483040999992022020312004+19870+099774FM-12+039799999V0203601N0000122000199015000199+02001+01291101041ADDAA106999999AZ101061AZ201061GF100991999999999999999999MA1999999096391MD1210021+0191REMSYN004BUFR
0099483040999992022020315004+19867+099767FM-12+040199999V0209999C000019999999N012000199+01571+01391101311ADDMA1999999096581MD1210191+0091REMSYN05848304 32962 00000 10157 20139 39658 40131 52019 333 58009=
0099483040999992022020318004+19867+099767FM-12+040199999V0209999C000019999999N012000199+01321+01231101421ADDMA1999999096641MD1210061+0081REMSYN05848304 32962 00000 10132 20123 39664 40142 52006 333 58008=
0099483040999992022020321004+19867+099767FM-12+040199999V0209999C000019999999N012000199+01221+01161101431ADDMA1999999096641MD1710011+0021REMSYN05848304 32962 00000 10122 20116 39664 40143 57001 333 58002=
0111483040999992022020400004+19870+099774FM-12+039799999V0203601N0000122000199012000199+01201+01131101561ADDAA106999999AZ101061AZ201061GF100991999999999999999999KA1120N+01081MA1999999096751MD1210121-0011REMSYN004BUFR
0099483040999992022020403004+19867+099767FM-12+040199999V0209999C000019999999N015000199+01931+01351101601ADDMA1999999096911MD1210151+0001REMSYN05848304 32965 00000 10193 20135 39691 40160 52015 333 58000=
0169483040999992022020406004+19867+099767FM-12+040199999V0201501N001012200019N015000199+02651+01391101241ADDGA1011+008001081GE19AGL   +99999+99999GF101991011999008001999999MA1999999096681MD1710231+0081REMSYN06448304 32565 11502 10265 20139 39668 40124 57023 81200 333 58008=
0169483040999992022020409004+19867+099767FM-12+040199999V0209999C000012200019N015000199+02901+01531100931ADDGA1011+008001081GE19AGL   +99999+99999GF101991011999008001999999MA1999999096421MD1710261+0051REMSYN06448304 32565 10000 10290 20153 39642 40093 57026 81200 333 58005=
0188483040999992022020412004+19867+099767FM-12+040199999V0209999C000012200019N015000199+02401+01911101001ADDGA1011+008001081GE19AGL   +99999+99999GF101991011999008001999999KA1240M+02951MA1999999096411MD1710011-0041REMSYN07048304 32565 10000 10240 20191 39641 40100 57001 81200 333 10295 59004=
0099483040999992022020415004+19867+099767FM-12+040199999V0209999C000019999999N012000199+01891+01711101281ADDMA1999999096601MD1210191-0041REMSYN05848304 32962 00000 10189 20171 39660 40128 52019 333 59004=
0185483040999992022020418004+19867+099767FM-12+040199999V0209999C000012200019N012000199+01701+01561101361ADDGA1021+008001061GA2999+999999021GE19AGL   +99999+99999GF102991021999008001999999MA1999999096651MD1210051-0061REMSYN06448304 32562 20000 10170 20156 39665 40136 52005 82505 333 59006=
0201483040999992022020421004+19867+099767FM-12+040199999V0209999C000019999999N010000199+01601+01501101271ADDGA1031+008001061GA2999+999999031GA3999+999999021GE19AGL   +99999+99999GF106991031999008001999999MA1999999096551MD1710101-0161REMSYN06448304 32560 60000 10160 20150 39655 40127 57010 83576 333 59016=
0220483040999992022020500004+19867+099767FM-12+040199999V0209999C000019999999N012000199+01601+01501101411ADDGA1051+008001061GA2999+999999031GA3999+999999021GE19AGL   +99999+99999GF107991051999008001999999KA1120N+01521MA1999999096681MD1210131-0151REMSYN07048304 32562 70000 10160 20150 39668 40141 52013 85576 333 20152 59015=
0201483040999992022020503004+19867+099767FM-12+040199999V0209999C000019999999N015000199+02031+01741101571ADDGA1041+008001061GA2999+999999031GA3999+999999021GE19AGL   +99999+99999GF106991041999008001999999MA1999999096901MD1210221-0021REMSYN06448304 32565 60000 10203 20174 39690 40157 52022 84576 333 59002=
0201483040999992022020506004+19867+099767FM-12+040199999V0209999C000019999999N015000199+02491+01901101321ADDGA1051+008001061GA2999+999999031GA3999+999999021GE19AGL   +99999+99999GF107991051999008001999999MA1999999096731MD1710171+0081REMSYN06448304 32565 70000 10249 20190 39673 40132 57017 85576 333 58008=
0201483040999992022020509004+19867+099767FM-12+040199999V0209999C000019999999N015000199+02591+01891101011ADDGA1051+008001061GA2999+999999031GA3999+999999021GE19AGL   +99999+99999GF107991051999008001999999MA1999999096441MD1710291+0071REMSYN06448304 32565 70000 10259 20189 39644 40101 57029 85576 333 58007=
0196483040999992022020512004+19870+099774FM-12+039799999V0203601N00001008001C9002000199+02101+01951101221ADDAA102003031AA212003031AA324003431AY191061AY221061GA1061+008001091GA2999+999999031GA3999+999999101GE19AGL   +99999+99999GF108991061999008001999999MA1999999096571MD1210131+0221MW1951REMSYN004BUFR
0201483040999992022020515004+19867+099767FM-12+040199999V0209999C000019999999N015000199+01961+01831101481ADDGA1031+008001061GA2999+999999031GA3999+999999021GE19AGL   +99999+99999GF106991031999008001999999MA1999999096801MD1210231+0201REMSYN06448304 32565 60000 10196 20183 39680 40148 52023 83546 333 58020=
0202483040999992022020518004+19867+099767FM-12+040199999V0209999C000019999999N015000199+01931+01821101461ADDAA124003431GA1031+999999031GA2999+999999021GE19AGL   +99999+99999GF106991031999999999999999MA1999999096781MD1710021+0101REMSYN07048304 32965 60000 10193 20182 39678 40146 57002 83046 333 58010 70034=
0168483040999992022020521004+19870+099774FM-12+039799999V0203601N0000199999999015000199+01911+01811101301ADDAA103999999AZ101031AZ201031GA1021+008001061GA2999+999999031GA3999+999999021GE19AGL   +99999+99999GF106991021999008001999999MA1999999096621MD1710161+0031REMSYN004BUFR
0209483040999992022020600004+19870+099774FM-12+039799999V0203601N00001008001C9002000199+01901+01821101411ADDAA102004031AA224008032AA324007632AY191061AY221061GA1061+008001091GA2999+999999031GA3999+999999101GE19AGL   +99999+99999GF108991061999008001999999KA1120N+01671MA1999999096731MD1210101+0001MW1951REMSYN004BUFR
0246483040999992022020603004+19867+099767FM-12+040199999V0209999C000019999999N015000199+02031+01751101511ADDAA103010031AY191021AY221021GA1021+008001061GA2999+999999031GA3999+999999021GE19AGL   +99999+99999GF105991021999008001999999MA1999999096841MD1210121-0061MW1011REMSYN07648304 21565 50000 10203 20175 39684 40151 52012 70192 82546 333 59006 60107=
0185483040999992022020606004+19870+099774FM-12+039799999V0202701N0021199999999015000199+02621+01901101061ADDAA106010031AA224017631AY191061AY221061GA1021+008001061GA2999+999999031GA3999+999999021GE19AGL   +99999+99999GF105991021999008001999999MA1999999096501MD1710341-0261MW1021REMSYN004BUFR
0201483040999992022020609004+19867+099767FM-12+040199999V0202701N002619999999N015000199+02701+01861100671ADDGA1021+008001091GA2999+999999031GA3999+999999021GE19AGL   +99999+99999GF105991021999008001999999MA1999999096141MD1710361-0331REMSYN06448304 32565 52705 10270 20186 39614 40067 57036 82946 333 59033=
0221483040999992022020612004+19867+099767FM-12+040199999V0209999C000012200019N015000199+02121+01911100951ADDAA124014231GA1021+999999031GA2999+999999001GE19AGL   +99999+99999GF103991021999999999999999KA1240M+02821MA1999999096321MD1210181-0271REMSYN07648304 32965 30000 10212 20191 39632 40095 52018 82041 333 10282 59027 70142=
0098483040999992022020615004+19870+099774FM-12+039799999V0203601N0000122000199015000199+01901+01771101231ADDAA103999999AZ101031AZ201031GF100991999999999999999999MA1999999096551MD1210231-0261REMSYN004BUFR
0116483040999992022020618004+19867+099767FM-12+040199999V0209999C000019999999N015000199+01801+01701101291ADDAA124014231MA1999999096591MD1210041-0181REMSYN06448304 32965 00000 10180 20170 39659 40129 52004 333 59018 70142=
0099483040999992022020621004+19867+099767FM-12+040199999V0209999C000019999999N012000199+01611+01521101301ADDMA1999999096571MD1710021-0011REMSYN05848304 32962 00000 10161 20152 39657 40130 57002 333 59001=
0192483040999992022020700004+19870+099774FM-12+039799999V0203601N0000199999999015000199+01451+01401101441ADDAA106999999AA224010031AZ101061AZ201061GA1021+008001061GA2999+999999031GA3999+999999021GE19AGL   +99999+99999GF105991021999008001999999KA1120N+01411MA1999999096681MD1210111+0031REMSYN004BUFR
0136483040999992022020703004+19870+099774FM-12+039799999V0203601N0000122000199015000199+02101+01721101451ADDAA103999999AZ101031AZ201031GA1021+008001081GE19AGL   +99999+99999GF102991021999008001999999MA1999999096801MD1210111-0061REMSYN004BUFR
0136483040999992022020706004+19870+099774FM-12+039799999V0201801N0021122000199015000199+02701+01901101011ADDAA106999999AZ101061AZ201061GA1021+008001061GE19AGL   +99999+99999GF102991021999008001999999MA1999999096471MD1710331-0051REMSYN004BUFR
0136483040999992022020709004+19870+099774FM-12+039799999V0202201N0031122000199015000199+03001+01231100691ADDAA103999999AZ101031AZ201031GA1021+008001061GE19AGL   +99999+99999GF102991021999008001999999MA1999999096211MD1710261+0021REMSYN004BUFR
0098483040999992022020712004+19870+099774FM-12+039799999V0203601N0000122000199015000199+02251+01711100851ADDAA106999999AZ101061AZ201061GF100991999999999999999999MA1999999096251MD1210041-0101REMSYN004BUFR
0099483040999992022020715004+19867+099767FM-12+040199999V0209999C000019999999N012000199+01841+01661101101ADDMA1999999096421MD1210171-0131REMSYN05848304 32962 00000 10184 20166 39642 40110 52017 333 59013=
0099483040999992022020718004+19867+099767FM-12+040199999V0209999C000019999999N012000199+01651+01511101221ADDMA1999999096501MD1210081-0071REMSYN05848304 32962 00000 10165 20151 39650 40122 52008 333 59007=
0099483040999992022020721004+19867+099767FM-12+040199999V0209999C000019999999N010000199+01441+01371101241ADDMA1999999096491MD1710011-0061REMSYN05848304 32960 00000 10144 20137 39649 40124 57001 333 59006=
0118483040999992022020800004+19867+099767FM-12+040199999V0209999C000019999999N015000199+01281+01221101421ADDKA1120N+01241MA1999999096641MD1210151-0021REMSYN06448304 32965 00000 10128 20122 39664 40142 52015 333 20124 59002=
0099483040999992022020803004+19867+099767FM-12+040199999V0209999C000019999999N015000199+02131+01621101481ADDMA1999999096821MD1210191+0021REMSYN05848304 32965 00000 10213 20162 39682 40148 52019 333 58002=
0099483040999992022020806004+19867+099767FM-12+040199999V0201501N002119999999N015000199+02761+01381101091ADDMA1999999096551MD1710271+0081REMSYN05848304 32965 01504 10276 20138 39655 40109 57027 333 58008=
0099483040999992022020809004+19867+099767FM-12+040199999V0201901N001019999999N015000199+03111+01051100711ADDMA1999999096241MD1710311+0021REMSYN05848304 32965 01902 10311 20105 39624 40071 57031 333 58002=
0118483040999992022020812004+19867+099767FM-12+040199999V0209999C000019999999N015000199+02241+01571100841ADDKA1240M+03161MA1999999096231MD1410001-0011REMSYN06448304 32965 00000 10224 20157 39623 40084 54000 333 10316 59001=
0099483040999992022020815004+19867+099767FM-12+040199999V0209999C000019999999N012000199+01761+01451101101ADDMA1999999096401MD1210171+0001REMSYN05848304 32962 00000 10176 20145 39640 40110 52017 333 58000=
0099483040999992022020818004+19867+099767FM-12+040199999V0209999C000019999999N012000199+01521+01361101251ADDMA1999999096511MD1210111+0031REMSYN05848304 32962 00000 10152 20136 39651 40125 52011 333 58003=
0099483040999992022020821004+19867+099767FM-12+040199999V0209999C000019999999N012000199+01331+01241101281ADDMA1999999096511MD1410001+0041REMSYN05848304 32962 00000 10133 20124 39651 40128 54000 333 58004=
0118483040999992022020900004+19867+099767FM-12+040199999V0209999C000019999999N015000199+01161+01081101481ADDKA1120N+01101MA1999999096671MD1210171+0061REMSYN06448304 32965 00000 10116 20108 39667 40148 52017 333 20110 58006=
0099483040999992022020903004+19867+099767FM-12+040199999V0209999C000019999999N015000199+02051+01451101501ADDMA1999999096841MD1210161+0031REMSYN05848304 32965 00000 10205 20145 39684 40150 52016 333 58003=
0099483040999992022020906004+19867+099767FM-12+040199999V0200901N001019999999N015000199+02811+01591101081ADDMA1999999096551MD1710291-0011REMSYN05848304 32965 00902 10281 20159 39655 40108 57029 333 59001=
0099483040999992022020909004+19867+099767FM-12+040199999V0209999C000019999999N015000199+03161+01351100711ADDMA1999999096241MD1710311+0001REMSYN05848304 32965 00000 10316 20135 39624 40071 57031 333 58000=
0118483040999992022020912004+19867+099767FM-12+040199999V0209999C000019999999N015000199+02331+01731100921ADDKA1240M+03211MA1999999096331MD1210081+0081REMSYN06448304 32965 00000 10233 20173 39633 40092 52008 333 10321 58008=
0099483040999992022020915004+19867+099767FM-12+040199999V0209999C000019999999N012000199+01671+01461101221ADDMA1999999096511MD1210181+0121REMSYN05848304 32962 00000 10167 20146 39651 40122 52018 333 58012=
0099483040999992022020918004+19867+099767FM-12+040199999V0209999C000019999999N012000199+01481+01341101321ADDMA1999999096571MD1210061+0071REMSYN05848304 32962 00000 10148 20134 39657 40132 52006 333 58007=
0098483040999992022020921004+19870+099774FM-12+039799999V0203601N0000122000199012000199+01271+01201101311ADDAA103999999AZ101031AZ201031GF100991999999999999999999MA1999999096531MD1710041+0041REMSYN004BUFR
0111483040999992022021000004+19870+099774FM-12+039799999V0203601N0000122000199012000199+01101+01011101511ADDAA106999999AZ101061AZ201061GF100991999999999999999999KA1120N+01021MA1999999096691MD1210151+0031REMSYN004BUFR
0099483040999992022021003004+19867+099767FM-12+040199999V0209999C000019999999N015000199+02051+01391101481ADDMA1999999096811MD1210131-0031REMSYN05848304 32965 00000 10205 20139 39681 40148 52013 333 59003=
0098483040999992022021006004+19870+099774FM-12+039799999V0203601N0000122000199015000199+02821+01271101061ADDAA106999999AZ101061AZ201061GF100991999999999999999999MA1999999096531MD1710291-0021REMSYN004BUFR
0098483040999992022021009004+19870+099774FM-12+039799999V0203601N0000122000199015000199+03101+01091100721ADDAA103999999AZ101031AZ201031GF100991999999999999999999MA1999999096241MD1710281+0011REMSYN004BUFR
0118483040999992022021012004+19867+099767FM-12+040199999V0209999C000019999999N015000199+02361+01821100881ADDKA1240M+03151MA1999999096291MD1210051-0041REMSYN06448304 32965 00000 10236 20182 39629 40088 52005 333 10315 59004=
0099483040999992022021015004+19867+099767FM-12+040199999V0209999C000019999999N012000199+01661+01471101131ADDMA1999999096421MD1210131-0091REMSYN05848304 32962 00000 10166 20147 39642 40113 52013 333 59009=
0099483040999992022021018004+19867+099767FM-12+040199999V0209999C000019999999N012000199+01401+01271101241ADDMA1999999096481MD1210061-0081REMSYN05848304 32962 00000 10140 20127 39648 40124 52006 333 59008=
0099483040999992022021021004+19867+099767FM-12+040199999V0209999C000019999999N012000199+01221+01121101211ADDMA1999999096421MD1710061-0111REMSYN05848304 32962 00000 10122 20112 39642 40121 57006 333 59011=
0111483040999992022021100004+19870+099774FM-12+039799999V0203601N0000122000199015000199+01121+01051101401ADDAA106999999AZ101061AZ201061GF100991999999999999999999KA1120N+01041MA1999999096591MD1210171-0111REMSYN004BUFR
0099483040999992022021103004+19867+099767FM-12+040199999V0209999C000019999999N015000199+02001+01351101451ADDMA1999999096771MD1210181-0031REMSYN05848304 32965 00000 10200 20135 39677 40145 52018 333 59003=
0099483040999992022021106004+19867+099767FM-12+040199999V0201401N001019999999N015000199+02681+01321101041ADDMA1999999096491MD1710291-0021REMSYN05848304 32965 01402 10268 20132 39649 40104 57029 333 59002=
0099483040999992022021109004+19867+099767FM-12+040199999V0201701N001019999999N015000199+03061+01341100651ADDMA1999999096171MD1710321-0071REMSYN05848304 32965 01702 10306 20134 39617 40065 57032 333 59007=
0118483040999992022021112004+19867+099767FM-12+040199999V0209999C000019999999N015000199+02381+01891100751ADDKA1240M+03101MA1999999096171MD1410001-0131REMSYN06448304 32965 00000 10238 20189 39617 40075 54000 333 10310 59013=
0099483040999992022021115004+19867+099767FM-12+040199999V0209999C000019999999N012000199+01881+01611101001ADDMA1999999096331MD1210161-0131REMSYN05848304 32962 00000 10188 20161 39633 40100 52016 333 59013=
0099483040999992022021118004+19867+099767FM-12+040199999V0209999C000019999999N012000199+01621+01501101071ADDMA1999999096351MD1210031-0171REMSYN05848304 32962 00000 10162 20150 39635 40107 52003 333 59017=
0098483040999992022021121004+19870+099774FM-12+039799999V0203601N0000122000199012000199+01451+01351101051ADDAA103999999AZ101031AZ201031GF100991999999999999999999MA1999999096311MD1710041-0151REMSYN004BUFR
0149483040999992022021200004+19870+099774FM-12+039799999V0203601N0000122000199012000199+01321+01261101191ADDAA106999999AZ101061AZ201061GA1999+030001001GE19AGL   +99999+99999GF103991999999030001999999KA1120N+01271MA1999999096431MD1210111-0211REMSYN004BUFR
0188483040999992022021203004+19867+099767FM-12+040199999V0209999C000012200019N015000199+02201+01531101201ADDGA1999+999999001GE19AGL   +99999+99999GF102991001999999999999999MA1999999096571MD1210151-0241REMSYN06448304 32965 20000 10220 20153 39657 40120 52015 80001 333 59024=EQDQ01    003SCCGA1
0188483040999992022021206004+19867+099767FM-12+040199999V0201201N002612200019N015000199+02821+01631100761ADDGA1999+999999001GE19AGL   +99999+99999GF102991001999999999999999MA1999999096251MD1710331-0281REMSYN06448304 32965 21205 10282 20163 39625 40076 57033 80001 333 59028=EQDQ01    003SCCGA1
0136483040999992022021209004+19870+099774FM-12+039799999V0203601N0000122000199015000199+03201+01521100361ADDAA103999999AZ101031AZ201031GA1999+030001001GE19AGL   +99999+99999GF102991999999030001999999MA1999999095921MD1710331-0291REMSYN004BUFR
0098483040999992022021212004+19870+099774FM-12+039799999V0203601N0000122000199015000199+02401+01711100471ADDAA106999999AZ101061AZ201061GF100991999999999999999999MA1999999095901MD1710011-0281REMSYN004BUFR
0099483040999992022021215004+19867+099767FM-12+040199999V0209999C000019999999N015000199+01801+01631100701ADDMA1999999096031MD1210131-0301REMSYN05848304 32965 00000 10180 20163 39603 40070 52013 333 59030=
0099483040999992022021218004+19867+099767FM-12+040199999V0209999C000019999999N012000199+01621+01501100801ADDMA1999999096091MD1210061-0271REMSYN05848304 32962 00000 10162 20150 39609 40080 52006 333 59027=
0098483040999992022021221004+19870+099774FM-12+039799999V0203601N0015122000199012000199+01361+01191100871ADDAA103999999AZ101031AZ201031GF100991999999999999999999MA1999999096131MD1210031-0181REMSYN004BUFR
0111483040999992022021300004+19870+099774FM-12+039799999V0203601N0000122000199015000199+01151+01071101201ADDAA106999999AZ101061AZ201061GF100991999999999999999999KA1120N+01091MA1999999096401MD1210271+0001REMSYN004BUFR
0098483040999992022021303004+19870+099774FM-12+039799999V0203601N0000122000199015000199+02302+01361101221ADDAA103999999AZ101031AZ201031GF100991999999999999999999MA1999999096611MD1210211+0021REMSYN004BUFR
0098483040999992022021306004+19870+099774FM-12+039799999V0201001N0021122000199015000199+02911+01311100821ADDAA106999999AZ101061AZ201061GF100991999999999999999999MA1999999096311MD1710301+0061REMSYN004BUFR
0098483040999992022021309004+19870+099774FM-12+039799999V0203601N0015122000199015000199+03051+01121100481ADDAA103999999AZ101031AZ201031GF100991999999999999999999MA1999999096011MD1710311+0121REMSYN004BUFR
0098483040999992022021312004+19870+099774FM-12+039799999V0203601N0000122000199015000199+02201+01431100671ADDAA106999999AZ101061AZ201061GF100991999999999999999999MA1999999096061MD1210061+0201REMSYN004BUFR
0099483040999992022021315004+19867+099767FM-12+040199999V0209999C000019999999N012000199+01741+01551101031ADDMA1999999096331MD1210271+0331REMSYN05848304 32962 00000 10174 20155 39633 40103 52027 333 58033=
0099483040999992022021318004+19867+099767FM-12+040199999V0209999C000019999999N012000199+01481+01341101151ADDMA1999999096411MD1210081+0361REMSYN05848304 32962 00000 10148 20134 39641 40115 52008 333 58036=
0099483040999992022021321004+19867+099767FM-12+040199999V0209999C000019999999N012000199+01291+01181101151ADDMA1999999096381MD1710031+0281REMSYN05848304 32962 00000 10129 20118 39638 40115 57003 333 58028=
0118483040999992022021400004+19867+099767FM-12+040199999V0209999C000019999999N012000199+01111+01011101331ADDKA1120N+01061MA1999999096531MD1210141+0141REMSYN06448304 32962 00000 10111 20101 39653 40133 52014 333 20106 58014=
0099483040999992022021403004+19867+099767FM-12+040199999V0209999C000019999999N013000199+01861+01331101431ADDMA1999999096741MD1210211+0211REMSYN05848304 32963 00000 10186 20133 39674 40143 52021 333 58021=
0099483040999992022021406004+19867+099767FM-12+040199999V0201001N001519999999N015000199+02691+01221101031ADDMA1999999096481MD1710261+0211REMSYN05848304 32965 01003 10269 20122 39648 40103 57026 333 58021=
0099483040999992022021409004+19867+099767FM-12+040199999V0209999C000019999999N012000199+03011+01341100651ADDMA1999999096171MD1710321+0181REMSYN05848304 32962 00000 10301 20134 39617 40065 57032 333 58018=
0098483040999992022021412004+19870+099774FM-12+039799999V0203601N0000122000199010000199+02251+01591100751ADDAA106999999AZ101061AZ201061GF100991999999999999999999MA1999999096141MD1710021+0081REMSYN004BUFR
0099483040999992022021415004+19867+099767FM-12+040199999V0209999C000019999999N010000199+01931+01661101031ADDMA1999999096371MD1210221+0001REMSYN05848304 32960 00000 10193 20166 39637 40103 52022 333 58000=
0099483040999992022021418004+19867+099767FM-12+040199999V0209999C000019999999N010000199+01671+01511101121ADDMA1999999096411MD1210041-0041REMSYN05848304 32960 00000 10167 20151 39641 40112 52004 333 59004=
0099483040999992022021421004+19867+099767FM-12+040199999V0209999C000019999999N010000199+01481+01371101101ADDMA1999999096371MD1710041-0051REMSYN05848304 32960 00000 10148 20137 39637 40110 57004 333 59005=
0188483040999992022021500004+19867+099767FM-12+040199999V0209999C000012200019N010000199+01361+01291101321ADDGA1021+012501061GE19AGL   +99999+99999GF102991021999012501999999KA1120N+01291MA1999999096551MD1210191-0011REMSYN07048304 32660 20000 10136 20129 39655 40132 52019 82500 333 20129 59001=
0213483040999992022021503004+19867+099767FM-12+040199999V0209999C000012200019N008000199+02011+01551101411ADDAY101021AY201021GA1021+012501061GA2999+999999031GE19AGL   +99999+99999GF102991021999012501999999MA1999999096741MD1210191-0031MW1101REMSYN07048304 31658 20000 10201 20155 39674 40141 52019 71000 82540 333 59003=
0104483040999992022021506004+19870+099774FM-12+039799999V0201401N0010122000199007000199+02721+01751100991ADDAA106999999AY101061AY201061GF100991999999999999999999MA1999999096451MD1710291-0041MW1051REMSYN004BUFR
0142483040999992022021509004+19870+099774FM-12+039799999V0202401N0010122000199007000199+03011+01961100591ADDAA103999999AY101031AY201031GA1011+012501081GE19AGL   +99999+99999GF101991011999012501999999MA1999999096111MD1710351-0071MW1051REMSYN004BUFR
0146483040999992022021512004+19867+099767FM-12+040199999V0209999C000019999999N007000199+02611+02001100691ADDAY101021AY201021KA1240M+03051MA1999999096151MD1210041-0061MW1101REMSYN07048304 31957 00000 10261 20200 39615 40069 52004 71000 333 10305 59006=
0197483040999992022021515004+19867+099767FM-12+040199999V0209999C000012200019N006000199+02211+01941100941ADDAY101021AY201021GA1021+008001061GE19AGL   +99999+99999GF102991021999008001999999MA1999999096331MD1210181-0091MW1101REMSYN07048304 31556 20000 10221 20194 39633 40094 52018 71000 82500 333 59009=
0197483040999992022021518004+19867+099767FM-12+040199999V0209999C000012200019N006000199+02001+01841101041ADDAY101021AY201021GA1021+008001061GE19AGL   +99999+99999GF102991021999008001999999MA1999999096391MD1210061-0081MW1101REMSYN07048304 31556 20000 10200 20184 39639 40104 52006 71000 82500 333 59008=
0127483040999992022021521004+19867+099767FM-12+040199999V0209999C000019999999N006000199+01881+01781100981ADDAY101021AY201021MA1999999096311MD1710071-0121MW1101REMSYN06448304 31956 00000 10188 20178 39631 40098 57007 71000 333 59012=
0118483040999992022021600004+19867+099767FM-12+040199999V0209999C000019999999N010000199+01701+01611101021ADDKA1120N+01601MA1999999096321MD1410001-0301REMSYN06448304 32960 00000 10170 20161 39632 40102 54000 333 20160 59030=
0169483040999992022021603004+19867+099767FM-12+040199999V0209999C000012200019N012000199+02421+01921101081ADDGA1031+008001061GE19AGL   +99999+99999GF103991031999008001999999MA1999999096491MD1210171-0331REMSYN06448304 32562 30000 10242 20192 39649 40108 52017 83500 333 59033=
0169483040999992022021606004+19867+099767FM-12+040199999V0201201N001012200019N015000199+02871+02001100701ADDGA1031+008001061GE19AGL   +99999+99999GF103991031999008001999999MA1999999096201MD1710291-0291REMSYN06448304 32565 31202 10287 20200 39620 40070 57029 83500 333 59029=
0169483040999992022021609004+19867+099767FM-12+040199999V0209999C000012200019N015000199+03181+01721100281ADDGA1021+008001061GE19AGL   +99999+99999GF102991021999008001999999MA1999999095831MD1710361-0311REMSYN06448304 32565 20000 10318 20172 39583 40028 57036 82500 333 59031=
0188483040999992022021612004+19867+099767FM-12+040199999V0209999C000012200019N015000199+02651+02121100371ADDGA1011+008001061GE19AGL   +99999+99999GF101991011999008001999999KA1240M+03251MA1999999095841MD1210011-0321REMSYN07048304 32565 10000 10265 20212 39584 40037 52001 81500 333 10325 59032=
0099483040999992022021615004+19867+099767FM-12+040199999V0209999C000019999999N012000199+02111+01921100671ADDMA1999999096051MD1210211-0271REMSYN05848304 32962 00000 10211 20192 39605 40067 52021 333 59027=
0098483040999992022021618004+19870+099774FM-12+039799999V0203601N0000122000199012000199+01971+01851100751ADDAA106999999AZ101061AZ201061GF100991999999999999999999MA1999999096111MD1210061-0291REMSYN004BUFR
0099483040999992022021621004+19867+099767FM-12+040199999V0209999C000019999999N012000199+01901+01791100691ADDMA1999999096041MD1710081-0301REMSYN05848304 32962 00000 10190 20179 39604 40069 57008 333 59030=
0220483040999992022021700004+19867+099767FM-12+040199999V0209999C000019999999N010000199+01801+01721100791ADDGA1031+008001061GA2999+999999031GA3999+999999021GE19AGL   +99999+99999GF106991031999008001999999KA1120N+01701MA1999999096121MD1210091-0221REMSYN07048304 32560 60000 10180 20172 39612 40079 52009 83576 333 20170 59022=
0136483040999992022021703004+19870+099774FM-12+039799999V0203601N0000122000199015000199+02371+02031100941ADDAA103999999AZ101031AZ201031GA1021+008001061GE19AGL   +99999+99999GF102991021999008001999999MA1999999096351MD1210231-0141REMSYN004BUFR
0169483040999992022021706004+19867+099767FM-12+040199999V0201601N002612200019N015000199+02881+02001100691ADDGA1021+008001061GE19AGL   +99999+99999GF102991021999008001999999MA1999999096181MD1710171-0021REMSYN06448304 32565 21605 10288 20200 39618 40069 57017 82500 333 59002=
0201483040999992022021709004+19867+099767FM-12+040199999V0202101N002619999999N012000199+02941+01941100361ADDGA1041+008001081GA2999+999999031GA3999+999999021GE19AGL   +99999+99999GF106991041999008001999999MA1999999095881MD1710311+0081REMSYN06448304 32562 62105 10294 20194 39588 40036 57031 84876 333 58008=
0220483040999992022021712004+19867+099767FM-12+040199999V0209999C000019999999N012000199+02711+02121100421ADDGA1051+008001081GA2999+999999031GA3999+999999021GE19AGL   +99999+99999GF107991051999008001999999KA1240M+03051MA1999999095901MD1210031+0051REMSYN07048304 32562 70000 10271 20212 39590 40042 52003 85876 333 10305 58005=
0169483040999992022021715004+19867+099767FM-12+040199999V0209999C000012200019N012000199+02331+02081100691ADDGA1031+008001061GE19AGL   +99999+99999GF103991031999008001999999MA1999999096101MD1210201+0021REMSYN06448304 32562 30000 10233 20208 39610 40069 52020 83500 333 58002=
0185483040999992022021718004+19867+099767FM-12+040199999V0209999C000012200019N012000199+02171+02031100771ADDGA1021+008001061GA2999+999999001GE19AGL   +99999+99999GF103991021999008001999999MA1999999096161MD1210061+0021REMSYN06448304 32562 30000 10217 20203 39616 40077 52006 82501 333 58002=
0201483040999992022021721004+19867+099767FM-12+040199999V0209999C000019999999N012000199+02001+01901100731ADDGA1031+008001061GA2999+999999031GA3999+999999021GE19AGL   +99999+99999GF106991031999008001999999MA1999999096091MD1710071+0041REMSYN06448304 32562 60000 10200 20190 39609 40073 57007 83546 333 58004=
0181483040999992022021800004+19870+099774FM-12+039799999V0203601N0000199999999015000199+01951+01871100901ADDAA106999999AZ101061AZ201061GA1021+008001061GA2999+999999031GA3999+999999021GE19AGL   +99999+99999GF105991021999008001999999KA1120N+01911MA1999999096251MD1210161+0111REMSYN004BUFR
0201483040999992022021803004+19867+099767FM-12+040199999V0209999C000019999999N015000199+02691+02131100951ADDGA1021+008001061GA2999+999999031GA3999+999999021GE19AGL   +99999+99999GF105991021999008001999999MA1999999096401MD1210151+0011REMSYN06448304 32565 50000 10269 20213 39640 40095 52015 82546 333 58001=
0168483040999992022021806004+19870+099774FM-12+039799999V0202001N0031199999999015000199+03001+02101100661ADDAA106999999AZ101061AZ201061GA1031+008001081GA2999+999999031GA3999+999999021GE19AGL   +99999+99999GF105991031999008001999999MA1999999096181MD1710231-0021REMSYN004BUFR
0201483040999992022021809004+19867+099767FM-12+040199999V0209999C000019999999N015000199+02881+02081100431ADDGA1031+008001061GA2999+999999031GA3999+999999021GE19AGL   +99999+99999GF105991031999008001999999MA1999999095941MD1710241+0071REMSYN06448304 32565 50000 10288 20208 39594 40043 57024 83546 333 58007=
0220483040999992022021812004+19867+099767FM-12+040199999V0209999C000019999999N015000199+02611+02191100501ADDGA1031+008001061GA2999+999999031GA3999+999999021GE19AGL   +99999+99999GF106991031999008001999999KA1240M+03151MA1999999095961MD1210021+0081REMSYN07048304 32565 60000 10261 20219 39596 40050 52002 83546 333 10315 58008=
0168483040999992022021815004+19870+099774FM-12+039799999V0203601N00001008001C9015000199+02371+02231100881ADDAA103999999AZ101031AZ201031GA1051+008001061GA2999+999999031GA3999+999999021GE19AGL   +99999+99999GF108991051999008001999999MA1999999096291MD1210331+0191REMSYN004BUFR
0201483040999992022021818004+19867+099767FM-12+040199999V0202201N002619999999N015000199+02371+02231100911ADDGA1051+008001061GA2999+999999031GA3999+999999021GE19AGL   +99999+99999GF108991051999008001999999MA1999999096321MD1210031+0141REMSYN06448304 32565 82205 10237 20223 39632 40091 52003 85576 333 58014=
0174483040999992022021821004+19870+099774FM-12+039799999V0203601N00001008001C9001000199+02201+02091100871ADDAA103012031AY161031AY221031GA1061+008001061GA2999+999999031GA3999+999999101GE19AGL   +99999+99999GF108991061999008001999999MA1999999096261MD1710061+0151MW1611REMSYN004BUFR
0209483040999992022021900004+19870+099774FM-12+039799999V0203601N0000199999999012000199+02211+02161100941ADDAA103001031AA224013032AA324012832AY161061AY221061GA1041+008001061GA2999+999999031GA3999+999999021GE19AGL   +99999+99999GF108991041999008001999999KA1120N+02181MA1999999096321MD1210061+0041MW1021REMSYN004BUFR
0230483040999992022021903004+19867+099767FM-12+040199999V0209999C000019999999N001000199+02301+02221101131ADDAA101001031AY121021AY221021GA1061+008001061GA2999+999999031GE19AGL   +99999+99999GF108991061999008001999999MA1999999096521MD1210201+0181MW1601REMSYN07648304 21510 80000 10230 20222 39652 40113 52020 76022 8657/ 333 58018 60015=
0196483040999992022021906004+19870+099774FM-12+039799999V0203601N00001008001C9002000199+02401+02251100901ADDAA103003031AA206004031AA324016831AY161061AY221061GA1061+008001061GA2999+999999031GA3999+999999101GE19AGL   +99999+99999GF108991061999008001999999MA1999999096321MD1710201+0241MW1611REMSYN004BUFR
0246483040999992022021909004+19867+099767FM-12+040199999V0209999C000019999999N015000199+02401+02131100661ADDAA103002031AY161021AY221021GA1031+008001061GA2999+999999031GA3999+999999021GE19AGL   +99999+99999GF108991031999008001999999MA1999999096091MD1710231+0231MW1021REMSYN07648304 21565 80000 10240 20213 39609 40066 57023 70262 83546 333 58023 60027=
0185483040999992022021912004+19870+099774FM-12+039799999V0203601N0000199999999015000199+02201+02031100691ADDAA112006031AA224018631AY161061AY221061GA1041+008001061GA2999+999999031GA3999+999999021GE19AGL   +99999+99999GF108991041999008001999999MA1999999096081MD1710011+0191MW1021REMSYN004BUFR
0201483040999992022021915004+19867+099767FM-12+040199999V0209999C000019999999N012000199+02071+01941100861ADDGA1041+008001061GA2999+999999031GA3999+999999021GE19AGL   +99999+99999GF108991041999008001999999MA1999999096231MD1210151-0011REMSYN06448304 32562 80000 10207 20194 39623 40086 52015 84546 333 59001=
