0087583670999992022010100004+31198+121336FM-15+000399999V0201101V003019999999Y009900599+00801+00101999999ADDMA1103001999999REMMET060METAR ZSSS 010000Z 11003MPS 070V130 CAVOK 08/01 Q1030 NOSIG=
0087583670999992022010100304+31198+121336FM-15+000399999V0201201V002019999999Y009900599+00801+00101999999ADDMA1103001999999REMMET060METAR ZSSS 010030Z 12002MPS 080V150 CAVOK 08/01 Q1030 NOSIG=
0087583670999992022010101004+31198+121336FM-15+000399999V0201101V003019999999Y009900599+00901+00101999999ADDMA1103001999999REMMET060METAR ZSSS 010100Z 11003MPS 070V150 CAVOK 09/01 Q1030 NOSIG=
0087583670999992022010101304+31198+121336FM-15+000399999V0201301V003019999999Y009900599+00901+00101999999ADDMA1103001999999REMMET060METAR ZSSS 010130Z 13003MPS 100V160 CAVOK 09/01 Q1030 NOSIG=
0079583670999992022010102004+31198+121336FM-15+000399999V0201401N004019999999Y009900599+01001+00201999999ADDMA1103001999999REMMET052METAR ZSSS 010200Z 14004MPS CAVOK 10/02 Q1030 NOSIG=
0079583670999992022010102304+31198+121336FM-15+000399999V0201301N005019999999Y009900599+01101+00201999999ADDMA1103001999999REMMET052METAR ZSSS 010230Z 13005MPS CAVOK 11/02 Q1030 NOSIG=
0079583670999992022010103004+31198+121336FM-15+000399999V0201501N004019999999Y009900599+01001+00201999999ADDMA1102901999999REMMET052METAR ZSSS 010300Z 15004MPS CAVOK 10/02 Q1029 NOSIG=
0079583670999992022010103304+31198+121336FM-15+000399999V0201501N005019999999Y009900599+01001+00201999999ADDMA1102901999999REMMET052METAR ZSSS 010330Z 15005MPS CAVOK 10/02 Q1029 NOSIG=
0079583670999992022010104004+31198+121336FM-15+000399999V0201801N004019999999Y009900599+01001+00201999999ADDMA1102801999999REMMET052METAR ZSSS 010400Z 18004MPS CAVOK 10/02 Q1028 NOSIG=
0079583670999992022010104304+31198+121336FM-15+000399999V0201601N004019999999Y009900599+01001+00201999999ADDMA1102801999999REMMET052METAR ZSSS 010430Z 16004MPS CAVOK 10/02 Q1028 NOSIG=
0079583670999992022010105004+31198+121336FM-15+000399999V0201601N004019999999Y009900599+01001+00201999999ADDMA1102701999999REMMET052METAR ZSSS 010500Z 16004MPS CAVOK 10/02 Q1027 NOSIG=
0079583670999992022010105304+31198+121336FM-15+000399999V0201701N004019999999Y009900599+01001+00201999999ADDMA1102701999999REMMET052METAR ZSSS 010530Z 17004MPS CAVOK 10/02 Q1027 NOSIG=
0079583670999992022010106004+31198+121336FM-15+000399999V0201701N004019999999Y009900599+01001+00301999999ADDMA1102701999999REMMET052METAR ZSSS 010600Z 17004MPS CAVOK 10/03 Q1027 NOSIG=
0079583670999992022010106304+31198+121336FM-15+000399999V0201601N004019999999Y009900599+01001+00301999999ADDMA1102701999999REMMET052METAR ZSSS 010630Z 16004MPS CAVOK 10/03 Q1027 NOSIG=
0079583670999992022010107004+31198+121336FM-15+000399999V0201601N003019999999Y009900599+01001+00301999999ADDMA1102701999999REMMET052METAR ZSSS 010700Z 16003MPS CAVOK 10/03 Q1027 NOSIG=
0079583670999992022010107304+31198+121336FM-15+000399999V0201701N004019999999Y009900599+01001+00401999999ADDMA1102701999999REMMET052METAR ZSSS 010730Z 17004MPS CAVOK 10/04 Q1027 NOSIG=
0079583670999992022010108004+31198+121336FM-15+000399999V0201801N003019999999Y009900599+01001+00401999999ADDMA1102701999999REMMET052METAR ZSSS 010800Z 18003MPS CAVOK 10/04 Q1027 NOSIG=
0079583670999992022010108304+31198+121336FM-15+000399999V0201801N003019999999Y009900599+01001+00401999999ADDMA1102701999999REMMET052METAR ZSSS 010830Z 18003MPS CAVOK 10/04 Q1027 NOSIG=
0079583670999992022010109004+31198+121336FM-15+000399999V0201901N002019999999Y009900599+00901+00401999999ADDMA1102701999999REMMET052METAR ZSSS 010900Z 19002MPS CAVOK 09/04 Q1027 NOSIG=
0079583670999992022010109304+31198+121336FM-15+000399999V0201901N003019999999Y009900599+00901+00401999999ADDMA1102701999999REMMET052METAR ZSSS 010930Z 19003MPS CAVOK 09/04 Q1027 NOSIG=
0079583670999992022010110004+31198+121336FM-15+000399999V0201901N003019999999Y009900599+00901+00401999999ADDMA1102701999999REMMET052METAR ZSSS 011000Z 19003MPS CAVOK 09/04 Q1027 NOSIG=
0079583670999992022010110304+31198+121336FM-15+000399999V0201901N003019999999Y009900599+00901+00401999999ADDMA1102701999999REMMET052METAR ZSSS 011030Z 19003MPS CAVOK 09/04 Q1027 NOSIG=
0079583670999992022010111004+31198+121336FM-15+000399999V0201901N003019999999Y009900599+00901+00401999999ADDMA1102701999999REMMET052METAR ZSSS 011100Z 19003MPS CAVOK 09/04 Q1027 NOSIG=
0079583670999992022010111304+31198+121336FM-15+000399999V0202001N003019999999Y009900599+00901+00401999999ADDMA1102701999999REMMET052METAR ZSSS 011130Z 20003MPS CAVOK 09/04 Q1027 NOSIG=
0079583670999992022010112004+31198+121336FM-15+000399999V0202001N003019999999Y009900599+00901+00401999999ADDMA1102701999999REMMET052METAR ZSSS 011200Z 20003MPS CAVOK 09/04 Q1027 NOSIG=
0079583670999992022010112304+31198+121336FM-15+000399999V0202001N002019999999Y009900599+00801+00401999999ADDMA1102701999999REMMET052METAR ZSSS 011230Z 20002MPS CAVOK 08/04 Q1027 NOSIG=
0079583670999992022010113004+31198+121336FM-15+000399999V0202401N002019999999Y009900599+00801+00401999999ADDMA1102801999999REMMET052METAR ZSSS 011300Z 24002MPS CAVOK 08/04 Q1028 NOSIG=
0079583670999992022010113304+31198+121336FM-15+000399999V0202301N002019999999Y009900599+00801+00301999999ADDMA1102801999999REMMET052METAR ZSSS 011330Z 23002MPS CAVOK 08/03 Q1028 NOSIG=
0079583670999992022010114004+31198+121336FM-15+000399999V0202301N003019999999Y009900599+00801+00301999999ADDMA1102801999999REMMET052METAR ZSSS 011400Z 23003MPS CAVOK 08/03 Q1028 NOSIG=
0079583670999992022010114304+31198+121336FM-15+000399999V0202401N002019999999Y009900599+00801+00301999999ADDMA1102801999999REMMET052METAR ZSSS 011430Z 24002MPS CAVOK 08/03 Q1028 NOSIG=
0079583670999992022010115004+31198+121336FM-15+000399999V0202301N002019999999Y009900599+00801+00301999999ADDMA1102801999999REMMET052METAR ZSSS 011500Z 23002MPS CAVOK 08/03 Q1028 NOSIG=
0079583670999992022010115304+31198+121336FM-15+000399999V0202801N002019999999Y009900599+00801+00201999999ADDMA1102801999999REMMET052METAR ZSSS 011530Z 28002MPS CAVOK 08/02 Q1028 NOSIG=
0079583670999992022010116004+31198+121336FM-15+000399999V0209999V001019999999Y009900599+00701+00201999999ADDMA1102801999999REMMET052METAR ZSSS 011600Z VRB01MPS CAVOK 07/02 Q1028 NOSIG=
0079583670999992022010116304+31198+121336FM-15+000399999V0202801N002019999999Y009900599+00701+00201999999ADDMA1102801999999REMMET052METAR ZSSS 011630Z 28002MPS CAVOK 07/02 Q1028 NOSIG=
0079583670999992022010117004+31198+121336FM-15+000399999V0209999V001019999999Y009900599+00601+00101999999ADDMA1102801999999REMMET052METAR ZSSS 011700Z VRB01MPS CAVOK 06/01 Q1028 NOSIG=
0079583670999992022010117304+31198+121336FM-15+000399999V0209999V001019999999Y009900599+00501+00101999999ADDMA1102801999999REMMET052METAR ZSSS 011730Z VRB01MPS CAVOK 05/01 Q1028 NOSIG=
0079583670999992022010118004+31198+121336FM-15+000399999V0202901N002019999999Y009900599+00601+00201999999ADDMA1102801999999REMMET052METAR ZSSS 011800Z 29002MPS CAVOK 06/02 Q1028 NOSIG=
0079583670999992022010118304+31198+121336FM-15+000399999V0202801N002019999999Y009900599+00501+00101999999ADDMA1102801999999REMMET052METAR ZSSS 011830Z 28002MPS CAVOK 05/01 Q1028 NOSIG=
0079583670999992022010119004+31198+121336FM-15+000399999V0203001N002019999999Y009900599+00501+00101999999ADDMA1102801999999REMMET052METAR ZSSS 011900Z 30002MPS CAVOK 05/01 Q1028 NOSIG=
0079583670999992022010119304+31198+121336FM-15+000399999V0203101N001019999999Y009900599+00401+00001999999ADDMA1102801999999REMMET052METAR ZSSS 011930Z 31001MPS CAVOK 04/00 Q1028 NOSIG=
0108583670999992022010120004+31198+121336FM-15+000399999V0203401N002012200019N008000199+00301+00001999999ADDGF100991999999999999999999MA1102801999999REMMET055METAR ZSSS 012000Z 34002MPS 8000 NSC 03/00 Q1028 NOSIG=
0108583670999992022010120304+31198+121336FM-15+000399999V0203501N002012200019N008000199+00301+00001999999ADDGF100991999999999999999999MA1102801999999REMMET055METAR ZSSS 012030Z 35002MPS 8000 NSC 03/00 Q1028 NOSIG=
0109583670999992022010121004+31198+121336FM-15+000399999V0203501N002012200019N008000199+00301+00001999999ADDGF100991999999999999999999MA1102801999999REMMET056METAR ZSSS 012100Z 35002MPS 8000 NSC 03/M00 Q1028 NOSIG=
0117583670999992022010121304+31198+121336FM-15+000399999V0203501V002012200019N008000199+00201-00101999999ADDGF100991999999999999999999MA1102901999999REMMET064METAR ZSSS 012130Z 35002MPS 320V020 8000 NSC 02/M01 Q1029 NOSIG=
0116583670999992022010122004+31198+121336FM-15+000399999V0203101V002012200019N008000199+00401+00001999999ADDGF100991999999999999999999MA1102901999999REMMET063METAR ZSSS 012200Z 31002MPS 280V340 8000 NSC 04/00 Q1029 NOSIG=
0117583670999992022010122304+31198+121336FM-15+000399999V0203301V002012200019N007000199+00301+00001999999ADDGF100991999999999999999999MA1102901999999REMMET064METAR ZSSS 012230Z 33002MPS 310V010 7000 NSC 03/M00 Q1029 NOSIG=
0118583670999992022010123004+31198+121336FM-15+000399999V0200101N002012200019N005000199+00201+00001999999ADDGF100991999999999999999999MA1102901999999MW1101REMMET059METAR ZSSS 012300Z 01002MPS 5000 BR NSC 02/M00 Q1029 NOSIG=
0117583670999992022010123304+31198+121336FM-15+000399999V0203601N002012200019N005000199+00301+00101999999ADDGF100991999999999999999999MA1102901999999MW1101REMMET058METAR ZSSS 012330Z 36002MPS 5000 BR NSC 03/01 Q1029 NOSIG=
0117583670999992022010200004+31198+121336FM-15+000399999V0203401N002012200019N005000199+00501+00201999999ADDGF100991999999999999999999MA1103001999999MW1101REMMET058METAR ZSSS 020000Z 34002MPS 5000 BR NSC 05/02 Q1030 NOSIG=
0117583670999992022010200304+31198+121336FM-15+000399999V0203301N003012200019N005000199+00601+00201999999ADDGF100991999999999999999999MA1103101999999MW1101REMMET058METAR ZSSS 020030Z 33003MPS 5000 BR NSC 06/02 Q1031 NOSIG=
0117583670999992022010201004+31198+121336FM-15+000399999V0203501N002012200019N005000199+00601+00201999999ADDGF100991999999999999999999MA1103101999999MW1101REMMET058METAR ZSSS 020100Z 35002MPS 5000 BR NSC 06/02 Q1031 NOSIG=
0117583670999992022010201304+31198+121336FM-15+000399999V0203501N003012200019N005000199+00801+00201999999ADDGF100991999999999999999999MA1103101999999MW1051REMMET058METAR ZSSS 020130Z 35003MPS 5000 HZ NSC 08/02 Q1031 NOSIG=
0117583670999992022010202004+31198+121336FM-15+000399999V0203401N004012200019N005000199+00901+00201999999ADDGF100991999999999999999999MA1103101999999MW1051REMMET058METAR ZSSS 020200Z 34004MPS 5000 HZ NSC 09/02 Q1031 NOSIG=
0108583670999992022010202304+31198+121336FM-15+000399999V0203501N004012200019N006000199+01001+00101999999ADDGF100991999999999999999999MA1103001999999REMMET055METAR ZSSS 020230Z 35004MPS 6000 NSC 10/01 Q1030 NOSIG=
0116583670999992022010203004+31198+121336FM-15+000399999V0200101V005012200019N006000199+01001+00101999999ADDGF100991999999999999999999MA1103001999999REMMET063METAR ZSSS 020300Z 01005MPS 340V040 6000 NSC 10/01 Q1030 NOSIG=
0108583670999992022010203304+31198+121336FM-15+000399999V0203601N005012200019N006000199+01001+00001999999ADDGF100991999999999999999999MA1103001999999REMMET055METAR ZSSS 020330Z 36005MPS 6000 NSC 10/00 Q1030 NOSIG=
0116583670999992022010204004+31198+121336FM-15+000399999V0203601V004012200019N006000199+01101+00101999999ADDGF100991999999999999999999MA1102901999999REMMET063METAR ZSSS 020400Z 36004MPS 330V040 6000 NSC 11/01 Q1029 NOSIG=
0116583670999992022010204304+31198+121336FM-15+000399999V0203601V003012200019N007000199+01101+00001999999ADDGF100991999999999999999999MA1102801999999REMMET063METAR ZSSS 020430Z 36003MPS 340V040 7000 NSC 11/00 Q1028 NOSIG=
0117583670999992022010205004+31198+121336FM-15+000399999V0200301V004012200019N008000199+01201+00001999999ADDGF100991999999999999999999MA1102801999999REMMET064METAR ZSSS 020500Z 03004MPS 010V070 8000 NSC 12/M00 Q1028 NOSIG=
0117583670999992022010205304+31198+121336FM-15+000399999V0203501V004012200019N008000199+01201+00001999999ADDGF100991999999999999999999MA1102801999999REMMET064METAR ZSSS 020530Z 35004MPS 320V030 8000 NSC 12/M00 Q1028 NOSIG=
0117583670999992022010206004+31198+121336FM-15+000399999V0200201V004012200019N008000199+01201-00101999999ADDGF100991999999999999999999MA1102801999999REMMET064METAR ZSSS 020600Z 02004MPS 350V050 8000 NSC 12/M01 Q1028 NOSIG=
0088583670999992022010206304+31198+121336FM-15+000399999V0203601V004019999999Y009900599+01201+00001999999ADDMA1102701999999REMMET061METAR ZSSS 020630Z 36004MPS 330V030 CAVOK 12/M00 Q1027 NOSIG=
0088583670999992022010207004+31198+121336FM-15+000399999V0200101V003019999999Y009900599+01201-00201999999ADDMA1102801999999REMMET061METAR ZSSS 020700Z 01003MPS 330V040 CAVOK 12/M02 Q1028 NOSIG=
0088583670999992022010207304+31198+121336FM-15+000399999V0200101V004019999999Y009900599+01101-00201999999ADDMA1102701999999REMMET061METAR ZSSS 020730Z 01004MPS 340V040 CAVOK 11/M02 Q1027 NOSIG=
0079583670999992022010208004+31198+121336FM-15+000399999V0203601N004019999999Y009900599+01101+00001999999ADDMA1102801999999REMMET052METAR ZSSS 020800Z 36004MPS CAVOK 11/00 Q1028 NOSIG=
0079583670999992022010208304+31198+121336FM-15+000399999V0200101N004019999999Y009900599+01101+00001999999ADDMA1102801999999REMMET052METAR ZSSS 020830Z 01004MPS CAVOK 11/00 Q1028 NOSIG=
0088583670999992022010209004+31198+121336FM-15+000399999V0200301V004019999999Y009900599+01001+00001999999ADDMA1102801999999REMMET061METAR ZSSS 020900Z 03004MPS 010V070 CAVOK 10/M00 Q1028 NOSIG=
0080583670999992022010209304+31198+121336FM-15+000399999V0200401N004019999999Y009900599+01001+00001999999ADDMA1102801999999REMMET053METAR ZSSS 020930Z 04004MPS CAVOK 10/M00 Q1028 NOSIG=
0079583670999992022010210004+31198+121336FM-15+000399999V0200201N003019999999Y009900599+00901+00001999999ADDMA1102801999999REMMET052METAR ZSSS 021000Z 02003MPS CAVOK 09/00 Q1028 NOSIG=
0079583670999992022010210304+31198+121336FM-15+000399999V0200201N004019999999Y009900599+00901+00001999999ADDMA1102901999999REMMET052METAR ZSSS 021030Z 02004MPS CAVOK 09/00 Q1029 NOSIG=
0079583670999992022010211004+31198+121336FM-15+000399999V0200301N005019999999Y009900599+00901+00201999999ADDMA1102901999999REMMET052METAR ZSSS 021100Z 03005MPS CAVOK 09/02 Q1029 NOSIG=
0079583670999992022010211304+31198+121336FM-15+000399999V0200401N003019999999Y009900599+00801+00201999999ADDMA1102901999999REMMET052METAR ZSSS 021130Z 04003MPS CAVOK 08/02 Q1029 NOSIG=
0079583670999992022010212004+31198+121336FM-15+000399999V0200501N003019999999Y009900599+00801+00201999999ADDMA1102901999999REMMET052METAR ZSSS 021200Z 05003MPS CAVOK 08/02 Q1029 NOSIG=
0079583670999992022010212304+31198+121336FM-15+000399999V0200601N003019999999Y009900599+00801+00201999999ADDMA1102901999999REMMET052METAR ZSSS 021230Z 06003MPS CAVOK 08/02 Q1029 NOSIG=
0079583670999992022010213004+31198+121336FM-15+000399999V0200501N003019999999Y009900599+00801+00301999999ADDMA1102901999999REMMET052METAR ZSSS 021300Z 05003MPS CAVOK 08/03 Q1029 NOSIG=
0108583670999992022010213304+31198+121336FM-15+000399999V0200601N003012200019N008000199+00701+00301999999ADDGF100991999999999999999999MA1102801999999REMMET055METAR ZSSS 021330Z 06003MPS 8000 NSC 07/03 Q1028 NOSIG=
0108583670999992022010214004+31198+121336FM-15+000399999V0209999V001012200019N008000199+00701+00201999999ADDGF100991999999999999999999MA1102901999999REMMET055METAR ZSSS 021400Z VRB01MPS 8000 NSC 07/02 Q1029 NOSIG=
0108583670999992022010214304+31198+121336FM-15+000399999V0200701N002012200019N008000199+00701+00301999999ADDGF100991999999999999999999MA1102801999999REMMET055METAR ZSSS 021430Z 07002MPS 8000 NSC 07/03 Q1028 NOSIG=
0108583670999992022010215004+31198+121336FM-15+000399999V0200701N001012200019N008000199+00701+00301999999ADDGF100991999999999999999999MA1102801999999REMMET055METAR ZSSS 021500Z 07001MPS 8000 NSC 07/03 Q1028 NOSIG=
0108583670999992022010215304+31198+121336FM-15+000399999V0200401N001012200019N007000199+00701+00301999999ADDGF100991999999999999999999MA1102801999999REMMET055METAR ZSSS 021530Z 04001MPS 7000 NSC 07/03 Q1028 NOSIG=
0108583670999992022010216004+31198+121336FM-15+000399999V0209999V001012200019N007000199+00501+00201999999ADDGF100991999999999999999999MA1102801999999REMMET055METAR ZSSS 021600Z VRB01MPS 7000 NSC 05/02 Q1028 NOSIG=
0108583670999992022010216304+31198+121336FM-15+000399999V0203601N002012200019N007000199+00501+00201999999ADDGF100991999999999999999999MA1102701999999REMMET055METAR ZSSS 021630Z 36002MPS 7000 NSC 05/02 Q1027 NOSIG=
0108583670999992022010217004+31198+121336FM-15+000399999V0203501N002012200019N007000199+00401+00201999999ADDGF100991999999999999999999MA1102801999999REMMET055METAR ZSSS 021700Z 35002MPS 7000 NSC 04/02 Q1028 NOSIG=
0108583670999992022010217304+31198+121336FM-15+000399999V0200101N001012200019N007000199+00401+00201999999ADDGF100991999999999999999999MA1102801999999REMMET055METAR ZSSS 021730Z 01001MPS 7000 NSC 04/02 Q1028 NOSIG=
0108583670999992022010218004+31198+121336FM-15+000399999V0200101N001012200019N006000199+00401+00201999999ADDGF100991999999999999999999MA1102701999999REMMET055METAR ZSSS 021800Z 01001MPS 6000 NSC 04/02 Q1027 NOSIG=
0108583670999992022010218304+31198+121336FM-15+000399999V0203601N001012200019N006000199+00401+00201999999ADDGF100991999999999999999999MA1102701999999REMMET055METAR ZSSS 021830Z 36001MPS 6000 NSC 04/02 Q1027 NOSIG=
0117583670999992022010219004+31198+121336FM-15+000399999V0209999V001012200019N005000199+00301+00201999999ADDGF100991999999999999999999MA1102701999999MW1101REMMET058METAR ZSSS 021900Z VRB01MPS 5000 BR NSC 03/02 Q1027 NOSIG=
0117583670999992022010219304+31198+121336FM-15+000399999V0209999C000012200019N005000199+00301+00201999999ADDGF100991999999999999999999MA1102601999999MW1101REMMET058METAR ZSSS 021930Z 00000MPS 5000 BR NSC 03/02 Q1026 NOSIG=
0117583670999992022010220004+31198+121336FM-15+000399999V0209999C000012200019N005000199+00301+00201999999ADDGF100991999999999999999999MA1102601999999MW1101REMMET058METAR ZSSS 022000Z 00000MPS 5000 BR NSC 03/02 Q1026 NOSIG=
0128583670999992022010220304+31198+121336FM-15+000399999V0209999C000012200019N005000199+00201+00201999999ADDGF100991999999999999999999MA1102601999999MW1101MW2121REMMET063METAR ZSSS 022030Z 00000MPS 5000 MIFG BR NSC 02/02 Q1026 NOSIG=
0178583670999992022010221004+31198+121336FM-15+000399999V0200501N001012200019N004000199+00201+00101999999ADDED136R99999GF100991999999999999999999MA1102601999999MW1101MW2121REMMET102METAR ZSSS 022100Z 05001MPS 4000 R36R/1000V1800U R36L/1700D MIFG BR NSC 02/01 Q1026 BECMG TL2230 2800=
0128583670999992022010221304+31198+121336FM-15+000399999V0200101N001012200019N004000199+00201+00201999999ADDGF100991999999999999999999MA1102601999999MW1101MW2111REMMET063METAR ZSSS 022130Z 01001MPS 4000 BCFG BR NSC 02/02 Q1026 NOSIG=
0117583670999992022010222004+31198+121336FM-15+000399999V0200201N001012200019N004000199+00201+00101999999ADDGF100991999999999999999999MA1102601999999MW1101REMMET058METAR ZSSS 022200Z 02001MPS 4000 BR NSC 02/01 Q1026 NOSIG=
0117583670999992022010222304+31198+121336FM-15+000399999V0203501N001012200019N004000199+00201+00201999999ADDGF100991999999999999999999MA1102601999999MW1101REMMET058METAR ZSSS 022230Z 35001MPS 4000 BR NSC 02/02 Q1026 NOSIG=
0128583670999992022010223004+31198+121336FM-15+000399999V0200101N001012200019N004000199+00301+00201999999ADDGF100991999999999999999999MA1102601999999MW1101MW2121REMMET063METAR ZSSS 022300Z 01001MPS 4000 MIFG BR NSC 03/02 Q1026 NOSIG=
0128583670999992022010223304+31198+121336FM-15+000399999V0209999C000012200019N004000199+00401+00301999999ADDGF100991999999999999999999MA1102701999999MW1101MW2121REMMET063METAR ZSSS 022330Z 00000MPS 4000 MIFG BR NSC 04/03 Q1027 NOSIG=
0128583670999992022010300004+31198+121336FM-15+000399999V0209999C000012200019N004000199+00501+00401999999ADDGF100991999999999999999999MA1102701999999MW1101MW2121REMMET063METAR ZSSS 030000Z 00000MPS 4000 MIFG BR NSC 05/04 Q1027 NOSIG=
0117583670999992022010300304+31198+121336FM-15+000399999V0209999V001012200019N004000199+00801+00501999999ADDGF100991999999999999999999MA1102701999999MW1101REMMET058METAR ZSSS 030030Z VRB01MPS 4000 BR NSC 08/05 Q1027 NOSIG=
0117583670999992022010301004+31198+121336FM-15+000399999V0209999V001012200019N004000199+01001+00501999999ADDGF100991999999999999999999MA1102701999999MW1101REMMET058METAR ZSSS 030100Z VRB01MPS 4000 BR NSC 10/05 Q1027 NOSIG=
0117583670999992022010301304+31198+121336FM-15+000399999V0209999V001012200019N005000199+01001+00401999999ADDGF100991999999999999999999MA1102701999999MW1051REMMET058METAR ZSSS 030130Z VRB01MPS 5000 HZ NSC 10/04 Q1027 NOSIG=
0116583670999992022010302004+31198+121336FM-15+000399999V0201401V002012200019N006000199+01101+00401999999ADDGF100991999999999999999999MA1102701999999REMMET063METAR ZSSS 030200Z 14002MPS 090V220 6000 NSC 11/04 Q1027 NOSIG=
0116583670999992022010302304+31198+121336FM-15+000399999V0201301V002012200019N008000199+01201+00301999999ADDGF100991999999999999999999MA1102701999999REMMET063METAR ZSSS 030230Z 13002MPS 060V190 8000 NSC 12/03 Q1027 NOSIG=
0116583670999992022010303004+31198+121336FM-15+000399999V0201901V002012200019N008000199+01201+00301999999ADDGF100991999999999999999999MA1102601999999REMMET063METAR ZSSS 030300Z 19002MPS 130V250 8000 NSC 12/03 Q1026 NOSIG=
0087583670999992022010303304+31198+121336FM-15+000399999V0202101V002019999999Y009900599+01301+00301999999ADDMA1102601999999REMMET060METAR ZSSS 030330Z 21002MPS 140V260 CAVOK 13/03 Q1026 NOSIG=
0079583670999992022010304004+31198+121336FM-15+000399999V0209999V002019999999Y009900599+01301+00301999999ADDMA1102501999999REMMET052METAR ZSSS 030400Z VRB02MPS CAVOK 13/03 Q1025 NOSIG=
0087583670999992022010304304+31198+121336FM-15+000399999V0202401V002019999999Y009900599+01401+00301999999ADDMA1102501999999REMMET060METAR ZSSS 030430Z 24002MPS 200V320 CAVOK 14/03 Q1025 NOSIG=
0079583670999992022010305004+31198+121336FM-15+000399999V0209999V001019999999Y009900599+01401+00301999999ADDMA1102401999999REMMET052METAR ZSSS 030500Z VRB01MPS CAVOK 14/03 Q1024 NOSIG=
0079583670999992022010305304+31198+121336FM-15+000399999V0209999V001019999999Y009900599+01401+00301999999ADDMA1102401999999REMMET052METAR ZSSS 030530Z VRB01MPS CAVOK 14/03 Q1024 NOSIG=
0087583670999992022010306004+31198+121336FM-15+000399999V0201801V002019999999Y009900599+01401+00201999999ADDMA1102401999999REMMET060METAR ZSSS 030600Z 18002MPS 140V210 CAVOK 14/02 Q1024 NOSIG=
0079583670999992022010306304+31198+121336FM-15+000399999V0209999V001019999999Y009900599+01401+00201999999ADDMA1102401999999REMMET052METAR ZSSS 030630Z VRB01MPS CAVOK 14/02 Q1024 NOSIG=
0079583670999992022010307004+31198+121336FM-15+000399999V0209999V001019999999Y009900599+01501+00101999999ADDMA1102401999999REMMET052METAR ZSSS 030700Z VRB01MPS CAVOK 15/01 Q1024 NOSIG=
0079583670999992022010307304+31198+121336FM-15+000399999V0209999V001019999999Y009900599+01401+00201999999ADDMA1102401999999REMMET052METAR ZSSS 030730Z VRB01MPS CAVOK 14/02 Q1024 NOSIG=
0087583670999992022010308004+31198+121336FM-15+000399999V0203001V002019999999Y009900599+01401+00101999999ADDMA1102401999999REMMET060METAR ZSSS 030800Z 30002MPS 220V350 CAVOK 14/01 Q1024 NOSIG=
0087583670999992022010308304+31198+121336FM-15+000399999V0203501V002019999999Y009900599+01301+00101999999ADDMA1102401999999REMMET060METAR ZSSS 030830Z 35002MPS 290V020 CAVOK 13/01 Q1024 NOSIG=
0087583670999992022010309004+31198+121336FM-15+000399999V0203601V002019999999Y009900599+01301+00101999999ADDMA1102401999999REMMET060METAR ZSSS 030900Z 36002MPS 330V030 CAVOK 13/01 Q1024 NOSIG=
0079583670999992022010309304+31198+121336FM-15+000399999V0203401N002019999999Y009900599+01201+00101999999ADDMA1102501999999REMMET052METAR ZSSS 030930Z 34002MPS CAVOK 12/01 Q1025 NOSIG=
0087583670999992022010310004+31198+121336FM-15+000399999V0203501V002019999999Y009900599+01101+00301999999ADDMA1102501999999REMMET060METAR ZSSS 031000Z 35002MPS 300V020 CAVOK 11/03 Q1025 NOSIG=
0079583670999992022010310304+31198+121336FM-15+000399999V0201301N003019999999Y009900599+01101+00301999999ADDMA1102501999999REMMET052METAR ZSSS 031030Z 13003MPS CAVOK 11/03 Q1025 NOSIG=
0079583670999992022010311004+31198+121336FM-15+000399999V0201001N002019999999Y009900599+01101+00301999999ADDMA1102501999999REMMET052METAR ZSSS 031100Z 10002MPS CAVOK 11/03 Q1025 NOSIG=
0087583670999992022010311304+31198+121336FM-15+000399999V0201401V002019999999Y009900599+01001+00401999999ADDMA1102501999999REMMET060METAR ZSSS 031130Z 14002MPS 100V160 CAVOK 10/04 Q1025 NOSIG=
0079583670999992022010312004+31198+121336FM-15+000399999V0201501N002019999999Y009900599+01001+00401999999ADDMA1102601999999REMMET052METAR ZSSS 031200Z 15002MPS CAVOK 10/04 Q1026 NOSIG=
0079583670999992022010312304+31198+121336FM-15+000399999V0201501N003019999999Y009900599+00901+00401999999ADDMA1102601999999REMMET052METAR ZSSS 031230Z 15003MPS CAVOK 09/04 Q1026 NOSIG=
0087583670999992022010313004+31198+121336FM-15+000399999V0201501V002019999999Y009900599+00801+00401999999ADDMA1102601999999REMMET060METAR ZSSS 031300Z 15002MPS 110V200 CAVOK 08/04 Q1026 NOSIG=
0079583670999992022010313304+31198+121336FM-15+000399999V0201301N001019999999Y009900599+00901+00401999999ADDMA1102601999999REMMET052METAR ZSSS 031330Z 13001MPS CAVOK 09/04 Q1026 NOSIG=
0087583670999992022010314004+31198+121336FM-15+000399999V0201201V002019999999Y009900599+00901+00401999999ADDMA1102601999999REMMET060METAR ZSSS 031400Z 12002MPS 090V150 CAVOK 09/04 Q1026 NOSIG=
0087583670999992022010314304+31198+121336FM-15+000399999V0201201V002019999999Y009900599+00801+00401999999ADDMA1102601999999REMMET060METAR ZSSS 031430Z 12002MPS 090V150 CAVOK 08/04 Q1026 NOSIG=
0079583670999992022010315004+31198+121336FM-15+000399999V0201201N002019999999Y009900599+00801+00401999999ADDMA1102601999999REMMET052METAR ZSSS 031500Z 12002MPS CAVOK 08/04 Q1026 NOSIG=
0079583670999992022010315304+31198+121336FM-15+000399999V0209999V001019999999Y009900599+00801+00501999999ADDMA1102601999999REMMET052METAR ZSSS 031530Z VRB01MPS CAVOK 08/05 Q1026 NOSIG=
0079583670999992022010316004+31198+121336FM-15+000399999V0209999C000019999999Y009900599+00701+00401999999ADDMA1102601999999REMMET052METAR ZSSS 031600Z 00000MPS CAVOK 07/04 Q1026 NOSIG=
0079583670999992022010316304+31198+121336FM-15+000399999V0209999V001019999999Y009900599+00501+00301999999ADDMA1102601999999REMMET052METAR ZSSS 031630Z VRB01MPS CAVOK 05/03 Q1026 NOSIG=
0079583670999992022010317004+31198+121336FM-15+000399999V0203401N001019999999Y009900599+00501+00301999999ADDMA1102601999999REMMET052METAR ZSSS 031700Z 34001MPS CAVOK 05/03 Q1026 NOSIG=
0079583670999992022010317304+31198+121336FM-15+000399999V0209999C000019999999Y009900599+00501+00301999999ADDMA1102601999999REMMET052METAR ZSSS 031730Z 00000MPS CAVOK 05/03 Q1026 NOSIG=
0079583670999992022010318004+31198+121336FM-15+000399999V0200101N001019999999Y009900599+00401+00301999999ADDMA1102601999999REMMET052METAR ZSSS 031800Z 01001MPS CAVOK 04/03 Q1026 NOSIG=
0108583670999992022010318304+31198+121336FM-15+000399999V0200201N001012200019N008000199+00401+00201999999ADDGF100991999999999999999999MA1102601999999REMMET055METAR ZSSS 031830Z 02001MPS 8000 NSC 04/02 Q1026 NOSIG=
0108583670999992022010319004+31198+121336FM-15+000399999V0203601N001012200019N006000199+00401+00301999999ADDGF100991999999999999999999MA1102601999999REMMET055METAR ZSSS 031900Z 36001MPS 6000 NSC 04/03 Q1026 NOSIG=
0108583670999992022010319304+31198+121336FM-15+000399999V0200101N001012200019N006000199+00401+00301999999ADDGF100991999999999999999999MA1102601999999REMMET055METAR ZSSS 031930Z 01001MPS 6000 NSC 04/03 Q1026 NOSIG=
0108583670999992022010320004+31198+121336FM-15+000399999V0209999C000012200019N006000199+00401+00301999999ADDGF100991999999999999999999MA1102601999999REMMET055METAR ZSSS 032000Z 00000MPS 6000 NSC 04/03 Q1026 NOSIG=
0155583670999992022010320304+31198+121336FM-15+000399999V0209999C000012200019N004000199+00401+00301999999ADDED136R99999GF100991999999999999999999MA1102601999999MW1101REMMET085METAR ZSSS 032030Z 00000MPS 4000 R36R/1300N R36L/1300V1900D BR NSC 04/03 Q1026 NOSIG=
0117583670999992022010321004+31198+121336FM-15+000399999V0200201N001012200019N004000199+00301+00301999999ADDGF100991999999999999999999MA1102601999999MW1101REMMET058METAR ZSSS 032100Z 02001MPS 4000 BR NSC 03/03 Q1026 NOSIG=
0117583670999992022010321304+31198+121336FM-15+000399999V0203601N002012200019N004000199+00301+00201999999ADDGF100991999999999999999999MA1102701999999MW1101REMMET058METAR ZSSS 032130Z 36002MPS 4000 BR NSC 03/02 Q1027 NOSIG=
0117583670999992022010322004+31198+121336FM-15+000399999V0203601N002012200019N004000199+00301+00201999999ADDGF100991999999999999999999MA1102701999999MW1101REMMET058METAR ZSSS 032200Z 36002MPS 4000 BR NSC 03/02 Q1027 NOSIG=
0117583670999992022010322304+31198+121336FM-15+000399999V0200201N003012200019N004000199+00301+00201999999ADDGF100991999999999999999999MA1102701999999MW1101REMMET058METAR ZSSS 032230Z 02003MPS 4000 BR NSC 03/02 Q1027 NOSIG=
0117583670999992022010323004+31198+121336FM-15+000399999V0203401N002012200019N004000199+00501+00501999999ADDGF100991999999999999999999MA1102701999999MW1101REMMET058METAR ZSSS 032300Z 34002MPS 4000 BR NSC 05/05 Q1027 NOSIG=
0117583670999992022010323304+31198+121336FM-15+000399999V0200601N002012200019N004000199+00601+00601999999ADDGF100991999999999999999999MA1102701999999MW1101REMMET058METAR ZSSS 032330Z 06002MPS 4000 BR NSC 06/06 Q1027 NOSIG=
0117583670999992022010400004+31198+121336FM-15+000399999V0200101N003012200019N004000199+00701+00701999999ADDGF100991999999999999999999MA1102701999999MW1101REMMET058METAR ZSSS 040000Z 01003MPS 4000 BR NSC 07/07 Q1027 NOSIG=
0117583670999992022010400304+31198+121336FM-15+000399999V0200501N003012200019N004000199+00901+00801999999ADDGF100991999999999999999999MA1102701999999MW1101REMMET058METAR ZSSS 040030Z 05003MPS 4000 BR NSC 09/08 Q1027 NOSIG=
0117583670999992022010401004+31198+121336FM-15+000399999V0200601N004012200019N005000199+01001+00701999999ADDGF100991999999999999999999MA1102701999999MW1101REMMET058METAR ZSSS 040100Z 06004MPS 5000 BR NSC 10/07 Q1027 NOSIG=
0117583670999992022010401304+31198+121336FM-15+000399999V0200701N005012200019N005000199+01101+00701999999ADDGF100991999999999999999999MA1102701999999MW1101REMMET058METAR ZSSS 040130Z 07005MPS 5000 BR NSC 11/07 Q1027 NOSIG=
0108583670999992022010402004+31198+121336FM-15+000399999V0200701N005012200019N006000199+01201+00701999999ADDGF100991999999999999999999MA1102701999999REMMET055METAR ZSSS 040200Z 07005MPS 6000 NSC 12/07 Q1027 NOSIG=
0108583670999992022010402304+31198+121336FM-15+000399999V0200801N005012200019N006000199+01201+00601999999ADDGF100991999999999999999999MA1102701999999REMMET055METAR ZSSS 040230Z 08005MPS 6000 NSC 12/06 Q1027 NOSIG=
0116583670999992022010403004+31198+121336FM-15+000399999V0200801V004012200019N008000199+01301+00601999999ADDGF100991999999999999999999MA1102701999999REMMET063METAR ZSSS 040300Z 08004MPS 050V110 8000 NSC 13/06 Q1027 NOSIG=
0157583670999992022010403304+31198+121336FM-15+000399999V0201001V00501007011CN009999199+01301+00601999999ADDGA1071+007011999GE19AGL   +99999+99999GF199999071999007011999999MA1102601999999REMMET066METAR ZSSS 040330Z 10005MPS 060V130 9999 BKN023 13/06 Q1026 NOSIG=
0157583670999992022010404004+31198+121336FM-15+000399999V0201001V005019999999N009999199+01301+00601999999ADDGA1041+007921999GE19AGL   +99999+99999GF199999041999007921999999MA1102601999999REMMET066METAR ZSSS 040400Z 10005MPS 060V130 9999 SCT026 13/06 Q1026 NOSIG=
0149583670999992022010404304+31198+121336FM-15+000399999V0201001N00401007921CN009999199+01301+00601999999ADDGA1071+007921999GE19AGL   +99999+99999GF199999071999007921999999MA1102501999999REMMET058METAR ZSSS 040430Z 10004MPS 9999 BKN026 13/06 Q1025 NOSIG=
0157583670999992022010405004+31198+121336FM-15+000399999V0200901V004019999999N009999199+01401+00601999999ADDGA1041+007921999GE19AGL   +99999+99999GF199999041999007921999999MA1102501999999REMMET066METAR ZSSS 040500Z 09004MPS 060V120 9999 SCT026 14/06 Q1025 NOSIG=
0149583670999992022010405304+31198+121336FM-15+000399999V0200901N005019999999N009999199+01401+00601999999ADDGA1041+007921999GE19AGL   +99999+99999GF199999041999007921999999MA1102401999999REMMET058METAR ZSSS 040530Z 09005MPS 9999 SCT026 14/06 Q1024 NOSIG=
0157583670999992022010406004+31198+121336FM-15+000399999V0201001V005019999999N009999199+01301+00601999999ADDGA1041+007921999GE19AGL   +99999+99999GF199999041999007921999999MA1102401999999REMMET066METAR ZSSS 040600Z 10005MPS 060V130 9999 SCT026 13/06 Q1024 NOSIG=
0149583670999992022010406304+31198+121336FM-15+000399999V0200701N005019999999N009999199+01301+00601999999ADDGA1041+007921999GE19AGL   +99999+99999GF199999041999007921999999MA1102401999999REMMET058METAR ZSSS 040630Z 07005MPS 9999 SCT026 13/06 Q1024 NOSIG=
0149583670999992022010407004+31198+121336FM-15+000399999V0200801N005019999999N009999199+01301+00601999999ADDGA1041+007921999GE19AGL   +99999+99999GF199999041999007921999999MA1102401999999REMMET058METAR ZSSS 040700Z 08005MPS 9999 SCT026 13/06 Q1024 NOSIG=
0149583670999992022010407304+31198+121336FM-15+000399999V0200501N00501007921CN009999199+01201+00601999999ADDGA1071+007921999GE19AGL   +99999+99999GF199999071999007921999999MA1102401999999REMMET058METAR ZSSS 040730Z 05005MPS 9999 BKN026 12/06 Q1024 NOSIG=
0149583670999992022010408004+31198+121336FM-15+000399999V0200701N00501007921CN009999199+01201+00601999999ADDGA1071+007921999GE19AGL   +99999+99999GF199999071999007921999999MA1102401999999REMMET058METAR ZSSS 040800Z 07005MPS 9999 BKN026 12/06 Q1024 NOSIG=
0157583670999992022010408304+31198+121336FM-15+000399999V0200801V005019999999N009999199+01201+00601999999ADDGA1041+007921999GE19AGL   +99999+99999GF199999041999007921999999MA1102401999999REMMET066METAR ZSSS 040830Z 08005MPS 050V110 9999 SCT026 12/06 Q1024 NOSIG=
0149583670999992022010409004+31198+121336FM-15+000399999V0200801N006019999999N009999199+01201+00601999999ADDGA1041+007921999GE19AGL   +99999+99999GF199999041999007921999999MA1102401999999REMMET058METAR ZSSS 040900Z 08006MPS 9999 SCT026 12/06 Q1024 NOSIG=
0157583670999992022010409304+31198+121336FM-15+000399999V0200801V005019999999N009999199+01201+00601999999ADDGA1041+007921999GE19AGL   +99999+99999GF199999041999007921999999MA1102401999999REMMET066METAR ZSSS 040930Z 08005MPS 060V120 9999 SCT026 12/06 Q1024 NOSIG=
0157583670999992022010410004+31198+121336FM-15+000399999V0200801V004019999999N009999199+01201+00601999999ADDGA1041+007921999GE19AGL   +99999+99999GF199999041999007921999999MA1102501999999REMMET066METAR ZSSS 041000Z 08004MPS 060V120 9999 SCT026 12/06 Q1025 NOSIG=
0157583670999992022010410304+31198+121336FM-15+000399999V0200901V005019999999N009999199+01201+00601999999ADDGA1041+009141999GE19AGL   +99999+99999GF199999041999009141999999MA1102501999999REMMET066METAR ZSSS 041030Z 09005MPS 060V120 9999 SCT030 12/06 Q1025 NOSIG=
0149583670999992022010411004+31198+121336FM-15+000399999V0200901N006019999999N009999199+01101+00601999999ADDGA1041+009141999GE19AGL   +99999+99999GF199999041999009141999999MA1102501999999REMMET058METAR ZSSS 041100Z 09006MPS 9999 SCT030 11/06 Q1025 NOSIG=
0167583670999992022010411304+31198+121336FM-15+000399999V0200901V00501009141CN009999199+01101+00601999999ADDGA1081+009141999GE19AGL   +99999+99999GF199999081999009141999999MA1102501999999MW1611REMMET070METAR ZSSS 041130Z 09005MPS 070V130 9999 -RA OVC030 11/06 Q1025 NOSIG=
0167583670999992022010412004+31198+121336FM-15+000399999V0200901V00501009141CN009999199+01101+00701999999ADDGA1081+009141999GE19AGL   +99999+99999GF199999081999009141999999MA1102501999999MW1611REMMET070METAR ZSSS 041200Z 09005MPS 060V120 9999 -RA OVC030 11/07 Q1025 NOSIG=
0159583670999992022010412304+31198+121336FM-15+000399999V0201001N00601009141CN009999199+01101+00701999999ADDGA1081+009141999GE19AGL   +99999+99999GF199999081999009141999999MA1102401999999MW1611REMMET062METAR ZSSS 041230Z 10006MPS 9999 -RA OVC030 11/07 Q1024 NOSIG=
0149583670999992022010413004+31198+121336FM-15+000399999V0201001N00601009141CN009999199+01101+00701999999ADDGA1081+009141999GE19AGL   +99999+99999GF199999081999009141999999MA1102401999999REMMET058METAR ZSSS 041300Z 10006MPS 9999 OVC030 11/07 Q1024 NOSIG=
0149583670999992022010413304+31198+121336FM-15+000399999V0201101N00601009141CN009999199+01101+00701999999ADDGA1071+009141999GE19AGL   +99999+99999GF199999071999009141999999MA1102501999999REMMET058METAR ZSSS 041330Z 11006MPS 9999 BKN030 11/07 Q1025 NOSIG=
0149583670999992022010414004+31198+121336FM-15+000399999V0201101N00601009141CN009999199+01101+00701999999ADDGA1071+009141999GE19AGL   +99999+99999GF199999071999009141999999MA1102401999999REMMET058METAR ZSSS 041400Z 11006MPS 9999 BKN030 11/07 Q1024 NOSIG=
0149583670999992022010414304+31198+121336FM-15+000399999V0201101N00601009141CN009999199+01101+00601999999ADDGA1071+009141999GE19AGL   +99999+99999GF199999071999009141999999MA1102401999999REMMET058METAR ZSSS 041430Z 11006MPS 9999 BKN030 11/06 Q1024 NOSIG=
0149583670999992022010415004+31198+121336FM-15+000399999V0201101N00601012191CN009999199+01101+00601999999ADDGA1071+012191999GE19AGL   +99999+99999GF199999071999012191999999MA1102401999999REMMET058METAR ZSSS 041500Z 11006MPS 9999 BKN040 11/06 Q1024 NOSIG=
0149583670999992022010415304+31198+121336FM-15+000399999V0201101N00601012191CN009999199+01101+00601999999ADDGA1071+012191999GE19AGL   +99999+99999GF199999071999012191999999MA1102301999999REMMET058METAR ZSSS 041530Z 11006MPS 9999 BKN040 11/06 Q1023 NOSIG=
0159583670999992022010416004+31198+121336FM-15+000399999V0201001N00401009141CN009999199+01101+00601999999ADDGA1081+009141999GE19AGL   +99999+99999GF199999081999009141999999MA1102301999999MW1611REMMET062METAR ZSSS 041600Z 10004MPS 9999 -RA OVC030 11/06 Q1023 NOSIG=
0159583670999992022010416304+31198+121336FM-15+000399999V0201001N00501009141CN009999199+01101+00701999999ADDGA1081+009141999GE19AGL   +99999+99999GF199999081999009141999999MA1102301999999MW1611REMMET062METAR ZSSS 041630Z 10005MPS 9999 -RA OVC030 11/07 Q1023 NOSIG=
0159583670999992022010417004+31198+121336FM-15+000399999V0201101N00601009141CN009999199+01101+00701999999ADDGA1081+009141999GE19AGL   +99999+99999GF199999081999009141999999MA1102201999999MW1611REMMET062METAR ZSSS 041700Z 11006MPS 9999 -RA OVC030 11/07 Q1022 NOSIG=
0157583670999992022010417304+31198+121336FM-15+000399999V0201101V00501009141CN009999199+01101+00701999999ADDGA1081+009141999GE19AGL   +99999+99999GF199999081999009141999999MA1102201999999REMMET066METAR ZSSS 041730Z 11005MPS 070V130 9999 OVC030 11/07 Q1022 NOSIG=
0149583670999992022010418004+31198+121336FM-15+000399999V0201101N00401009141CN009999199+01101+00701999999ADDGA1071+009141999GE19AGL   +99999+99999GF199999071999009141999999MA1102201999999REMMET058METAR ZSSS 041800Z 11004MPS 9999 BKN030 11/07 Q1022 NOSIG=
0149583670999992022010418304+31198+121336FM-15+000399999V0201101N00401009141CN009999199+01101+00701999999ADDGA1071+009141999GE19AGL   +99999+99999GF199999071999009141999999MA1102201999999REMMET058METAR ZSSS 041830Z 11004MPS 9999 BKN030 11/07 Q1022 NOSIG=
0149583670999992022010419004+31198+121336FM-15+000399999V0201101N00501009141CN009999199+01101+00701999999ADDGA1071+009141999GE19AGL   +99999+99999GF199999071999009141999999MA1102101999999REMMET058METAR ZSSS 041900Z 11005MPS 9999 BKN030 11/07 Q1021 NOSIG=
0149583670999992022010419304+31198+121336FM-15+000399999V0201101N00601009141CN009999199+01101+00601999999ADDGA1071+009141999GE19AGL   +99999+99999GF199999071999009141999999MA1102101999999REMMET058METAR ZSSS 041930Z 11006MPS 9999 BKN030 11/06 Q1021 NOSIG=
0149583670999992022010420004+31198+121336FM-15+000399999V0201101N00601009141CN009999199+01101+00601999999ADDGA1071+009141999GE19AGL   +99999+99999GF199999071999009141999999MA1102101999999REMMET058METAR ZSSS 042000Z 11006MPS 9999 BKN030 11/06 Q1021 NOSIG=
0157583670999992022010420304+31198+121336FM-15+000399999V0201201V00601009141CN009999199+01101+00601999999ADDGA1071+009141999GE19AGL   +99999+99999GF199999071999009141999999MA1102101999999REMMET066METAR ZSSS 042030Z 12006MPS 090V150 9999 BKN030 11/06 Q1021 NOSIG=
0149583670999992022010421004+31198+121336FM-15+000399999V0201101N00501009141CN009999199+01101+00601999999ADDGA1071+009141999GE19AGL   +99999+99999GF199999071999009141999999MA1102001999999REMMET058METAR ZSSS 042100Z 11005MPS 9999 BKN030 11/06 Q1020 NOSIG=
0149583670999992022010421304+31198+121336FM-15+000399999V0201101N00501009141CN009999199+01101+00601999999ADDGA1071+009141999GE19AGL   +99999+99999GF199999071999009141999999MA1102101999999REMMET058METAR ZSSS 042130Z 11005MPS 9999 BKN030 11/06 Q1021 NOSIG=
0149583670999992022010422004+31198+121336FM-15+000399999V0201101N00601009141CN009999199+01201+00701999999ADDGA1071+009141999GE19AGL   +99999+99999GF199999071999009141999999MA1102101999999REMMET058METAR ZSSS 042200Z 11006MPS 9999 BKN030 12/07 Q1021 NOSIG=
0149583670999992022010422304+31198+121336FM-15+000399999V0201101N00601009141CN009999199+01201+00701999999ADDGA1071+009141999GE19AGL   +99999+99999GF199999071999009141999999MA1102001999999REMMET058METAR ZSSS 042230Z 11006MPS 9999 BKN030 12/07 Q1020 NOSIG=
0149583670999992022010423004+31198+121336FM-15+000399999V0201001N00501010061CN009999199+01201+00701999999ADDGA1081+010061999GE19AGL   +99999+99999GF199999081999010061999999MA1102001999999REMMET058METAR ZSSS 042300Z 10005MPS 9999 OVC033 12/07 Q1020 NOSIG=
0149583670999992022010423304+31198+121336FM-15+000399999V0201001N00501010061CN009999199+01201+00701999999ADDGA1081+010061999GE19AGL   +99999+99999GF199999081999010061999999MA1102101999999REMMET058METAR ZSSS 042330Z 10005MPS 9999 OVC033 12/07 Q1021 NOSIG=
0157583670999992022010500004+31198+121336FM-15+000399999V0201101V00501010061CN009999199+01201+00701999999ADDGA1081+010061999GE19AGL   +99999+99999GF199999081999010061999999MA1102101999999REMMET066METAR ZSSS 050000Z 11005MPS 070V130 9999 OVC033 12/07 Q1021 NOSIG=
0167583670999992022010500304+31198+121336FM-15+000399999V0201101V00601010061CN009999199+01201+00701999999ADDGA1081+010061999GE19AGL   +99999+99999GF199999081999010061999999MA1102101999999MW1611REMMET070METAR ZSSS 050030Z 11006MPS 070V130 9999 -RA OVC033 12/07 Q1021 NOSIG=
0173583670999992022010501004+31198+121336FM-15+000399999V0201001N00601010061CN009999199+01101+00701999999ADDGA1081+010061999GE19AGL   +99999+99999GF199999081999010061999999MA1102001999999MW1611REMMET076METAR ZSSS 050100Z 10006MPS 9999 -RA OVC033 11/07 Q1020 BECMG TL0240 BKN010=
0172583670999992022010501304+31198+121336FM-15+000399999V0200901N006010100619N009999199+01101+00801999999ADDGA1021+004881999GA2081+010061999GE19AGL   +99999+99999GF199999021999004881999999MA1102001999999REMMET065METAR ZSSS 050130Z 09006MPS 9999 FEW016 OVC033 11/08 Q1020 NOSIG=
0191583670999992022010502004+31198+121336FM-15+000399999V0200901N00601004881CN009999199+01101+00801999999ADDGA1071+004881999GA2081+010061999GE19AGL   +99999+99999GF199999071999004881999999MA1102101999999REMMET084METAR ZSSS 050200Z 09006MPS 9999 BKN016 OVC033 11/08 Q1021 BECMG TL0350 SHRA BKN010=
0182583670999992022010502304+31198+121336FM-15+000399999V0200801N00401004881CN009999199+01101+00801999999ADDGA1071+004881999GA2081+010061999GE19AGL   +99999+99999GF199999071999004881999999MA1102101999999MW1611REMMET069METAR ZSSS 050230Z 08004MPS 9999 -RA BKN016 OVC033 11/08 Q1021 NOSIG=
0204583670999992022010503004+31198+121336FM-15+000399999V0200601V00301003961CN009999199+01001+00901999999ADDGA1071+003961999GA2081+010061999GE19AGL   +99999+99999GF199999071999003961999999MA1102101999999MW1611REMMET091METAR ZSSS 050300Z 06003MPS 030V090 9999 -RA BKN013 OVC033 10/09 Q1021 BECMG TL0450 BKN009=
0190583670999992022010503304+31198+121336FM-15+000399999V0200401V00401003351CN007000199+01001+00901999999ADDGA1071+003351999GA2081+010061999GE19AGL   +99999+99999GF199999071999003351999999MA1102101999999MW1611REMMET077METAR ZSSS 050330Z 04004MPS 010V070 7000 -RA BKN011 OVC033 10/09 Q1021 NOSIG=
0196583670999992022010504004+31198+121336FM-15+000399999V0200301N00501003351CN006000199+01001+00901999999ADDGA1071+003351999GA2081+010061999GE19AGL   +99999+99999GF199999071999003351999999MA1102001999999MW1611REMMET083METAR ZSSS 050400Z 03005MPS 6000 -RA BKN011 OVC033 10/09 Q1020 BECMG TL0450 BKN009=
0182583670999992022010504304+31198+121336FM-15+000399999V0200601N00501002741CN007000199+01001+00901999999ADDGA1071+002741999GA2081+010061999GE19AGL   +99999+99999GF199999071999002741999999MA1102001999999MW1611REMMET069METAR ZSSS 050430Z 06005MPS 7000 -RA BKN009 OVC033 10/09 Q1020 NOSIG=
0211583670999992022010505004+31198+121336FM-15+000399999V0200701V00401002741CN008000199+01001+00901999999ADDGA1071+002741999GA2081+010061999GE19AGL   +99999+99999GF199999071999002741999999MA1102001999999MW1611REMMET098METAR ZSSS 050500Z 07004MPS 030V110 8000 -RA BKN009 OVC033 10/09 Q1020 BECMG TL0640 BKN010 OVC040=
0190583670999992022010505304+31198+121336FM-15+000399999V0200801V00501002741CN008000199+01001+00901999999ADDGA1071+002741999GA2081+010061999GE19AGL   +99999+99999GF199999071999002741999999MA1101901999999MW1611REMMET077METAR ZSSS 050530Z 08005MPS 060V120 8000 -RA BKN009 OVC033 10/09 Q1019 NOSIG=
0211583670999992022010506004+31198+121336FM-15+000399999V0200501V00401002741CN008000199+01001+00901999999ADDGA1071+002741999GA2081+010061999GE19AGL   +99999+99999GF199999071999002741999999MA1101901999999MW1611REMMET098METAR ZSSS 050600Z 05004MPS 030V090 8000 -RA BKN009 OVC033 10/09 Q1019 BECMG TL0730 BKN011 OVC040=
0190583670999992022010506304+31198+121336FM-15+000399999V0200401V00501002741CN009999199+00901+00901999999ADDGA1071+002741999GA2081+010061999GE19AGL   +99999+99999GF199999071999002741999999MA1102001999999MW1611REMMET077METAR ZSSS 050630Z 04005MPS 030V090 9999 -RA BKN009 OVC033 09/09 Q1020 NOSIG=
0203583670999992022010507004+31198+121336FM-15+000399999V0200601N00501002741CN009999199+01001+00901999999ADDGA1071+002741999GA2081+010061999GE19AGL   +99999+99999GF199999071999002741999999MA1102001999999MW1611REMMET090METAR ZSSS 050700Z 06005MPS 9999 -RA BKN009 OVC033 10/09 Q1020 BECMG TL0850 BKN010 OVC040=
0172583670999992022010507304+31198+121336FM-15+000399999V0200601N00501002741CN009999199+01001+00801999999ADDGA1071+002741999GA2081+010061999GE19AGL   +99999+99999GF199999071999002741999999MA1102001999999REMMET065METAR ZSSS 050730Z 06005MPS 9999 BKN009 OVC033 10/08 Q1020 NOSIG=
0203583670999992022010508004+31198+121336FM-15+000399999V0203601N00601002441CN009999199+00901+00801999999ADDGA1071+002441999GA2081+010061999GE19AGL   +99999+99999GF199999071999002441999999MA1102201999999MW1611REMMET090METAR ZSSS 050800Z 36006MPS 9999 -RA BKN008 OVC033 09/08 Q1022 BECMG TL0950 BKN010 OVC040=
0182583670999992022010508304+31198+121336FM-15+000399999V0200201N00601002131CN006000199+00901+00801999999ADDGA1071+002131999GA2081+010061999GE19AGL   +99999+99999GF199999071999002131999999MA1102201999999MW1611REMMET069METAR ZSSS 050830Z 02006MPS 6000 -RA BKN007 OVC033 09/08 Q1022 NOSIG=
0191583670999992022010509004+31198+121336FM-15+000399999V0200301N00601001831CN005000199+00801+00801999999ADDGA1071+001831999GA2081+010061999GE19AGL   +99999+99999GF199999071999001831999999MA1102301999999MW1101MW2611REMMET072METAR ZSSS 050900Z 03006MPS 5000 -RA BR BKN006 OVC033 08/08 Q1023 NOSIG=
0172583670999992022010509304+31198+121336FM-15+000399999V0200201N00801001831CN007000199+00801+00701999999ADDGA1071+001831999GA2081+010061999GE19AGL   +99999+99999GF199999071999001831999999MA1102301999999REMMET065METAR ZSSS 050930Z 02008MPS 7000 BKN006 OVC033 08/07 Q1023 NOSIG=
0203583670999992022010510004+31198+121336FM-15+000399999V0200301N00601002441CN008000199+00701+00601999999ADDGA1071+002441999GA2081+010061999GE19AGL   +99999+99999GF199999071999002441999999MA1102401999999MW1611REMMET090METAR ZSSS 051000Z 03006MPS 8000 -RA BKN008 OVC033 07/06 Q1024 BECMG TL1150 BKN010 OVC040=
0172583670999992022010510304+31198+121336FM-15+000399999V0200301N00701002741CN009999199+00701+00601999999ADDGA1071+002741999GA2081+010061999GE19AGL   +99999+99999GF199999071999002741999999MA1102401999999REMMET065METAR ZSSS 051030Z 03007MPS 9999 BKN009 OVC033 07/06 Q1024 NOSIG=
0193583670999992022010511004+31198+121336FM-15+000399999V0200301N00601002741CN009999199+00701+00601999999ADDGA1071+002741999GA2081+010061999GE19AGL   +99999+99999GF199999071999002741999999MA1102401999999REMMET086METAR ZSSS 051100Z 03006MPS 9999 BKN009 OVC033 07/06 Q1024 BECMG TL1130 BKN010 OVC040=
0182583670999992022010511304+31198+121336FM-15+000399999V0200201N00601003051CN009999199+00701+00601999999ADDGA1071+003051999GA2081+010061999GE19AGL   +99999+99999GF199999071999003051999999MA1102501999999MW1611REMMET069METAR ZSSS 051130Z 02006MPS 9999 -RA BKN010 OVC033 07/06 Q1025 NOSIG=
0196583670999992022010512004+31198+121336FM-15+000399999V0200201N00601003051CN009999199+00701+00701999999ADDGA1071+003051999GA2081+010061999GE19AGL   +99999+99999GF199999071999003051999999MA1102501999999MW1611REMMET083METAR ZSSS 051200Z 02006MPS 9999 -RA BKN010 OVC033 07/07 Q1025 BECMG TL1230 BKN009=
0182583670999992022010512304+31198+121336FM-15+000399999V0200201N00601002741CN009999199+00701+00601999999ADDGA1071+002741999GA2081+010061999GE19AGL   +99999+99999GF199999071999002741999999MA1102501999999MW1611REMMET069METAR ZSSS 051230Z 02006MPS 9999 -RA BKN009 OVC033 07/06 Q1025 NOSIG=
0203583670999992022010513004+31198+121336FM-15+000399999V0200301N00601002741CN009999199+00701+00601999999ADDGA1071+002741999GA2081+010061999GE19AGL   +99999+99999GF199999071999002741999999MA1102501999999MW1611REMMET090METAR ZSSS 051300Z 03006MPS 9999 -RA BKN009 OVC033 07/06 Q1025 BECMG TL1430 BKN011 OVC040=
0182583670999992022010513304+31198+121336FM-15+000399999V0200201N00601002741CN009999199+00701+00601999999ADDGA1071+002741999GA2081+010061999GE19AGL   +99999+99999GF199999071999002741999999MA1102601999999MW1611REMMET069METAR ZSSS 051330Z 02006MPS 9999 -RA BKN009 OVC033 07/06 Q1026 NOSIG=
0203583670999992022010514004+31198+121336FM-15+000399999V0200201N00401002741CN009999199+00701+00701999999ADDGA1071+002741999GA2081+010061999GE19AGL   +99999+99999GF199999071999002741999999MA1102601999999MW1611REMMET090METAR ZSSS 051400Z 02004MPS 9999 -RA BKN009 OVC033 07/07 Q1026 BECMG TL1530 BKN011 OVC040=
0172583670999992022010514304+31198+121336FM-15+000399999V0200201N00401002741CN009999199+00701+00601999999ADDGA1071+002741999GA2081+010061999GE19AGL   +99999+99999GF199999071999002741999999MA1102701999999REMMET065METAR ZSSS 051430Z 02004MPS 9999 BKN009 OVC033 07/06 Q1027 NOSIG=
0193583670999992022010515004+31198+121336FM-15+000399999V0203601N00501002741CN009999199+00701+00601999999ADDGA1071+002741999GA2081+010061999GE19AGL   +99999+99999GF199999071999002741999999MA1102701999999REMMET086METAR ZSSS 051500Z 36005MPS 9999 BKN009 OVC033 07/06 Q1027 BECMG TL1550 BKN011 OVC040=
0172583670999992022010515304+31198+121336FM-15+000399999V0203601N00501003351CN009999199+00701+00701999999ADDGA1071+003351999GA2081+010061999GE19AGL   +99999+99999GF199999071999003351999999MA1102701999999REMMET065METAR ZSSS 051530Z 36005MPS 9999 BKN011 OVC033 07/07 Q1027 NOSIG=
0186583670999992022010516004+31198+121336FM-15+000399999V0203601N00501003961CN009999199+00701+00601999999ADDGA1071+003961999GA2081+010061999GE19AGL   +99999+99999GF199999071999003961999999MA1102701999999REMMET079METAR ZSSS 051600Z 36005MPS 9999 BKN013 OVC033 07/06 Q1027 BECMG TL1720 BKN015=
0182583670999992022010516304+31198+121336FM-15+000399999V0203601N00501003961CN009999199+00701+00601999999ADDGA1071+003961999GA2081+010061999GE19AGL   +99999+99999GF199999071999003961999999MA1102801999999MW1611REMMET069METAR ZSSS 051630Z 36005MPS 9999 -RA BKN013 OVC033 07/06 Q1028 NOSIG=
0182583670999992022010517004+31198+121336FM-15+000399999V0203601N00401003351CN009999199+00701+00601999999ADDGA1071+003351999GA2081+010061999GE19AGL   +99999+99999GF199999071999003351999999MA1102801999999MW1611REMMET069METAR ZSSS 051700Z 36004MPS 9999 -RA BKN011 OVC033 07/06 Q1028 NOSIG=
0172583670999992022010517304+31198+121336FM-15+000399999V0200101N00501003351CN009999199+00701+00601999999ADDGA1071+003351999GA2081+010061999GE19AGL   +99999+99999GF199999071999003351999999MA1102801999999REMMET065METAR ZSSS 051730Z 01005MPS 9999 BKN011 OVC033 07/06 Q1028 NOSIG=
0172583670999992022010518004+31198+121336FM-15+000399999V0200101N00501004571CN009999199+00701+00501999999ADDGA1071+004571999GA2081+010061999GE19AGL   +99999+99999GF199999071999004571999999MA1102801999999REMMET065METAR ZSSS 051800Z 01005MPS 9999 BKN015 OVC033 07/05 Q1028 NOSIG=
0172583670999992022010518304+31198+121336FM-15+000399999V0200101N00501004571CN009999199+00701+00501999999ADDGA1071+004571999GA2081+010061999GE19AGL   +99999+99999GF199999071999004571999999MA1102801999999REMMET065METAR ZSSS 051830Z 01005MPS 9999 BKN015 OVC033 07/05 Q1028 NOSIG=
0149583670999992022010519004+31198+121336FM-15+000399999V0200101N00501004881CN009999199+00701+00501999999ADDGA1071+004881999GE19AGL   +99999+99999GF199999071999004881999999MA1102801999999REMMET058METAR ZSSS 051900Z 01005MPS 9999 BKN016 07/05 Q1028 NOSIG=
0149583670999992022010519304+31198+121336FM-15+000399999V0203601N00501006101CN009999199+00701+00401999999ADDGA1071+006101999GE19AGL   +99999+99999GF199999071999006101999999MA1102801999999REMMET058METAR ZSSS 051930Z 36005MPS 9999 BKN020 07/04 Q1028 NOSIG=
0149583670999992022010520004+31198+121336FM-15+000399999V0203601N00501007011CN009999199+00701+00401999999ADDGA1071+007011999GE19AGL   +99999+99999GF199999071999007011999999MA1102801999999REMMET058METAR ZSSS 052000Z 36005MPS 9999 BKN023 07/04 Q1028 NOSIG=
0149583670999992022010520304+31198+121336FM-15+000399999V0203601N00501007011CN009999199+00701+00401999999ADDGA1071+007011999GE19AGL   +99999+99999GF199999071999007011999999MA1102901999999REMMET058METAR ZSSS 052030Z 36005MPS 9999 BKN023 07/04 Q1029 NOSIG=
0149583670999992022010521004+31198+121336FM-15+000399999V0203601N00501007921CN009999199+00701+00401999999ADDGA1071+007921999GE19AGL   +99999+99999GF199999071999007921999999MA1102901999999REMMET058METAR ZSSS 052100Z 36005MPS 9999 BKN026 07/04 Q1029 NOSIG=
0149583670999992022010521304+31198+121336FM-15+000399999V0200101N00601009141CN009999199+00701+00401999999ADDGA1071+009141999GE19AGL   +99999+99999GF199999071999009141999999MA1102901999999REMMET058METAR ZSSS 052130Z 01006MPS 9999 BKN030 07/04 Q1029 NOSIG=
0149583670999992022010522004+31198+121336FM-15+000399999V0200101N00601009141CN009999199+00701+00301999999ADDGA1071+009141999GE19AGL   +99999+99999GF199999071999009141999999MA1103001999999REMMET058METAR ZSSS 052200Z 01006MPS 9999 BKN030 07/03 Q1030 NOSIG=
0149583670999992022010522304+31198+121336FM-15+000399999V0200101N00601010061CN009999199+00601+00301999999ADDGA1071+010061999GE19AGL   +99999+99999GF199999071999010061999999MA1103001999999REMMET058METAR ZSSS 052230Z 01006MPS 9999 BKN033 06/03 Q1030 NOSIG=
0149583670999992022010523004+31198+121336FM-15+000399999V0200101N00601010061CN009999199+00601+00201999999ADDGA1071+010061999GE19AGL   +99999+99999GF199999071999010061999999MA1103001999999REMMET058METAR ZSSS 052300Z 01006MPS 9999 BKN033 06/02 Q1030 NOSIG=
0149583670999992022010523304+31198+121336FM-15+000399999V0200101N00601010061CN009999199+00701+00201999999ADDGA1071+010061999GE19AGL   +99999+99999GF199999071999010061999999MA1103001999999REMMET058METAR ZSSS 052330Z 01006MPS 9999 BKN033 07/02 Q1030 NOSIG=
0149583670999992022010600004+31198+121336FM-15+000399999V0200101N00601010061CN009999199+00701+00201999999ADDGA1071+010061999GE19AGL   +99999+99999GF199999071999010061999999MA1103101999999REMMET058METAR ZSSS 060000Z 01006MPS 9999 BKN033 07/02 Q1031 NOSIG=
0149583670999992022010600304+31198+121336FM-15+000399999V0200101N00501010061CN009999199+00701+00201999999ADDGA1071+010061999GE19AGL   +99999+99999GF199999071999010061999999MA1103101999999REMMET058METAR ZSSS 060030Z 01005MPS 9999 BKN033 07/02 Q1031 NOSIG=
0149583670999992022010601004+31198+121336FM-15+000399999V0200101N00501012191CN009999199+00801+00201999999ADDGA1071+012191999GE19AGL   +99999+99999GF199999071999012191999999MA1103101999999REMMET058METAR ZSSS 060100Z 01005MPS 9999 BKN040 08/02 Q1031 NOSIG=
0149583670999992022010601304+31198+121336FM-15+000399999V0200101N00601012191CN009999199+00801+00201999999ADDGA1071+012191999GE19AGL   +99999+99999GF199999071999012191999999MA1103201999999REMMET058METAR ZSSS 060130Z 01006MPS 9999 BKN040 08/02 Q1032 NOSIG=
0172583670999992022010602004+31198+121336FM-15+000399999V0203601N006010121919N009999199+00801+00301999999ADDGA1021+007921999GA2071+012191999GE19AGL   +99999+99999GF199999021999007921999999MA1103201999999REMMET065METAR ZSSS 060200Z 36006MPS 9999 FEW026 BKN040 08/03 Q1032 NOSIG=
0149583670999992022010602304+31198+121336FM-15+000399999V0200201N00601012191CN009999199+00901+00001999999ADDGA1071+012191999GE19AGL   +99999+99999GF199999071999012191999999MA1103201999999REMMET058METAR ZSSS 060230Z 02006MPS 9999 BKN040 09/00 Q1032 NOSIG=
0149583670999992022010603004+31198+121336FM-15+000399999V0200301N00601012191CN009999199+00901+00101999999ADDGA1071+012191999GE19AGL   +99999+99999GF199999071999012191999999MA1103101999999REMMET058METAR ZSSS 060300Z 03006MPS 9999 BKN040 09/01 Q1031 NOSIG=
0149583670999992022010603304+31198+121336FM-15+000399999V0200501N00601012191CN009999199+00901+00101999999ADDGA1071+012191999GE19AGL   +99999+99999GF199999071999012191999999MA1103101999999REMMET058METAR ZSSS 060330Z 05006MPS 9999 BKN040 09/01 Q1031 NOSIG=
0157583670999992022010604004+31198+121336FM-15+000399999V0200301V00501012191CN009999199+00901+00101999999ADDGA1071+012191999GE19AGL   +99999+99999GF199999071999012191999999MA1103001999999REMMET066METAR ZSSS 060400Z 03005MPS 360V070 9999 BKN040 09/01 Q1030 NOSIG=
0149583670999992022010604304+31198+121336FM-15+000399999V0200401N00701010061CN009999199+00901+00101999999ADDGA1071+010061999GE19AGL   +99999+99999GF199999071999010061999999MA1103001999999REMMET058METAR ZSSS 060430Z 04007MPS 9999 BKN033 09/01 Q1030 NOSIG=
0157583670999992022010605004+31198+121336FM-15+000399999V0200401V00501010061CN009999199+00901+00101999999ADDGA1081+010061999GE19AGL   +99999+99999GF199999081999010061999999MA1103001999999REMMET066METAR ZSSS 060500Z 04005MPS 360V080 9999 OVC033 09/01 Q1030 NOSIG=
0157583670999992022010605304+31198+121336FM-15+000399999V0200301V00501010061CN009999199+00901+00101999999ADDGA1081+010061999GE19AGL   +99999+99999GF199999081999010061999999MA1103001999999REMMET066METAR ZSSS 060530Z 03005MPS 360V060 9999 OVC033 09/01 Q1030 NOSIG=
0157583670999992022010606004+31198+121336FM-15+000399999V0200401V00501010061CN009999199+00901+00101999999ADDGA1081+010061999GE19AGL   +99999+99999GF199999081999010061999999MA1103001999999REMMET066METAR ZSSS 060600Z 04005MPS 020V080 9999 OVC033 09/01 Q1030 NOSIG=
0149583670999992022010606304+31198+121336FM-15+000399999V0200401N00401010061CN009999199+00901+00101999999ADDGA1081+010061999GE19AGL   +99999+99999GF199999081999010061999999MA1103001999999REMMET058METAR ZSSS 060630Z 04004MPS 9999 OVC033 09/01 Q1030 NOSIG=
0157583670999992022010607004+31198+121336FM-15+000399999V0200301V00501010061CN009999199+00901+00001999999ADDGA1071+010061999GE19AGL   +99999+99999GF199999071999010061999999MA1103001999999REMMET066METAR ZSSS 060700Z 03005MPS 360V070 9999 BKN033 09/00 Q1030 NOSIG=
0158583670999992022010607304+31198+121336FM-15+000399999V0200501V00501010061CN009999199+00901+00001999999ADDGA1071+010061999GE19AGL   +99999+99999GF199999071999010061999999MA1103001999999REMMET067METAR ZSSS 060730Z 05005MPS 020V080 9999 BKN033 09/M00 Q1030 NOSIG=
0158583670999992022010608004+31198+121336FM-15+000399999V0200401V00401012191CN009999199+00801+00001999999ADDGA1071+012191999GE19AGL   +99999+99999GF199999071999012191999999MA1103001999999REMMET067METAR ZSSS 060800Z 04004MPS 030V090 9999 BKN040 08/M00 Q1030 NOSIG=
0150583670999992022010608304+31198+121336FM-15+000399999V0200501N00401012191CN009999199+00801-00101999999ADDGA1071+012191999GE19AGL   +99999+99999GF199999071999012191999999MA1103001999999REMMET059METAR ZSSS 060830Z 05004MPS 9999 BKN040 08/M01 Q1030 NOSIG=
0150583670999992022010609004+31198+121336FM-15+000399999V0200301N005019999999N009999199+00801-00101999999ADDGA1041+012191999GE19AGL   +99999+99999GF199999041999012191999999MA1103101999999REMMET059METAR ZSSS 060900Z 03005MPS 9999 SCT040 08/M01 Q1031 NOSIG=
0150583670999992022010609304+31198+121336FM-15+000399999V0200401N004019999999N009999199+00701-00101999999ADDGA1041+012191999GE19AGL   +99999+99999GF199999041999012191999999MA1103101999999REMMET059METAR ZSSS 060930Z 04004MPS 9999 SCT040 07/M01 Q1031 NOSIG=
0150583670999992022010610004+31198+121336FM-15+000399999V0200401N00501012191CN009999199+00701+00001999999ADDGA1071+012191999GE19AGL   +99999+99999GF199999071999012191999999MA1103101999999REMMET059METAR ZSSS 061000Z 04005MPS 9999 BKN040 07/M00 Q1031 NOSIG=
0149583670999992022010610304+31198+121336FM-15+000399999V0200201N005019999999N009999199+00701+00001999999ADDGA1041+012191999GE19AGL   +99999+99999GF199999041999012191999999MA1103101999999REMMET058METAR ZSSS 061030Z 02005MPS 9999 SCT040 07/00 Q1031 NOSIG=
0150583670999992022010611004+31198+121336FM-15+000399999V0200401N00401012191CN009999199+00701+00001999999ADDGA1071+012191999GE19AGL   +99999+99999GF199999071999012191999999MA1103101999999REMMET059METAR ZSSS 061100Z 04004MPS 9999 BKN040 07/M00 Q1031 NOSIG=
0149583670999992022010611304+31198+121336FM-15+000399999V0200101N00401010061CN009999199+00601+00001999999ADDGA1071+010061999GE19AGL   +99999+99999GF199999071999010061999999MA1103201999999REMMET058METAR ZSSS 061130Z 01004MPS 9999 BKN033 06/00 Q1032 NOSIG=
0149583670999992022010612004+31198+121336FM-15+000399999V0203601N00401010061CN009999199+00601+00001999999ADDGA1071+010061999GE19AGL   +99999+99999GF199999071999010061999999MA1103201999999REMMET058METAR ZSSS 061200Z 36004MPS 9999 BKN033 06/00 Q1032 NOSIG=
0149583670999992022010612304+31198+121336FM-15+000399999V0203601N00401010061CN009999199+00601+00001999999ADDGA1071+010061999GE19AGL   +99999+99999GF199999071999010061999999MA1103201999999REMMET058METAR ZSSS 061230Z 36004MPS 9999 BKN033 06/00 Q1032 NOSIG=
0149583670999992022010613004+31198+121336FM-15+000399999V0203501N00301010061CN009999199+00701+00001999999ADDGA1071+010061999GE19AGL   +99999+99999GF199999071999010061999999MA1103201999999REMMET058METAR ZSSS 061300Z 35003MPS 9999 BKN033 07/00 Q1032 NOSIG=
0149583670999992022010613304+31198+121336FM-15+000399999V0203501N00501010061CN009999199+00601+00001999999ADDGA1071+010061999GE19AGL   +99999+99999GF199999071999010061999999MA1103201999999REMMET058METAR ZSSS 061330Z 35005MPS 9999 BKN033 06/00 Q1032 NOSIG=
0149583670999992022010614004+31198+121336FM-15+000399999V0203401N00401012191CN009999199+00601+00001999999ADDGA1071+012191999GE19AGL   +99999+99999GF199999071999012191999999MA1103301999999REMMET058METAR ZSSS 061400Z 34004MPS 9999 BKN040 06/00 Q1033 NOSIG=
0157583670999992022010614304+31198+121336FM-15+000399999V0203201V00301012191CN009999199+00601+00001999999ADDGA1071+012191999GE19AGL   +99999+99999GF199999071999012191999999MA1103301999999REMMET066METAR ZSSS 061430Z 32003MPS 290V350 9999 BKN040 06/00 Q1033 NOSIG=
0157583670999992022010615004+31198+121336FM-15+000399999V0203201V00201012191CN009999199+00601+00001999999ADDGA1071+012191999GE19AGL   +99999+99999GF199999071999012191999999MA1103301999999REMMET066METAR ZSSS 061500Z 32002MPS 280V340 9999 BKN040 06/00 Q1033 NOSIG=
0149583670999992022010615304+31198+121336FM-15+000399999V0203001N00301012191CN009999199+00601+00001999999ADDGA1071+012191999GE19AGL   +99999+99999GF199999071999012191999999MA1103301999999REMMET058METAR ZSSS 061530Z 30003MPS 9999 BKN040 06/00 Q1033 NOSIG=
0149583670999992022010616004+31198+121336FM-15+000399999V0202801N00301012191CN009999199+00601+00001999999ADDGA1071+012191999GE19AGL   +99999+99999GF199999071999012191999999MA1103301999999REMMET058METAR ZSSS 061600Z 28003MPS 9999 BKN040 06/00 Q1033 NOSIG=
0079583670999992022010616304+31198+121336FM-15+000399999V0203301N002019999999Y009900599+00601+00001999999ADDMA1103301999999REMMET052METAR ZSSS 061630Z 33002MPS CAVOK 06/00 Q1033 NOSIG=
0079583670999992022010617004+31198+121336FM-15+000399999V0203101N003019999999Y009900599+00601+00001999999ADDMA1103301999999REMMET052METAR ZSSS 061700Z 31003MPS CAVOK 06/00 Q1033 NOSIG=
0079583670999992022010617304+31198+121336FM-15+000399999V0203301N002019999999Y009900599+00601+00001999999ADDMA1103301999999REMMET052METAR ZSSS 061730Z 33002MPS CAVOK 06/00 Q1033 NOSIG=
0079583670999992022010618004+31198+121336FM-15+000399999V0203501N002019999999Y009900599+00601+00101999999ADDMA1103201999999REMMET052METAR ZSSS 061800Z 35002MPS CAVOK 06/01 Q1032 NOSIG=
0079583670999992022010618304+31198+121336FM-15+000399999V0200101N005019999999Y009900599+00501+00101999999ADDMA1103201999999REMMET052METAR ZSSS 061830Z 01005MPS CAVOK 05/01 Q1032 NOSIG=
0080583670999992022010619004+31198+121336FM-15+000399999V0200101N005019999999Y009900599+00501+00001999999ADDMA1103201999999REMMET053METAR ZSSS 061900Z 01005MPS CAVOK 05/M00 Q1032 NOSIG=
0080583670999992022010619304+31198+121336FM-15+000399999V0200101N003019999999Y009900599+00401+00001999999ADDMA1103201999999REMMET053METAR ZSSS 061930Z 01003MPS CAVOK 04/M00 Q1032 NOSIG=
0080583670999992022010620004+31198+121336FM-15+000399999V0200101N003019999999Y009900599+00401+00001999999ADDMA1103201999999REMMET053METAR ZSSS 062000Z 01003MPS CAVOK 04/M00 Q1032 NOSIG=
0080583670999992022010620304+31198+121336FM-15+000399999V0200101N002019999999Y009900599+00301+00001999999ADDMA1103201999999REMMET053METAR ZSSS 062030Z 01002MPS CAVOK 03/M00 Q1032 NOSIG=
0080583670999992022010621004+31198+121336FM-15+000399999V0203601N002019999999Y009900599+00301+00001999999ADDMA1103201999999REMMET053METAR ZSSS 062100Z 36002MPS CAVOK 03/M00 Q1032 NOSIG=
0079583670999992022010621304+31198+121336FM-15+000399999V0203601N003019999999Y009900599+00401+00101999999ADDMA1103201999999REMMET052METAR ZSSS 062130Z 36003MPS CAVOK 04/01 Q1032 NOSIG=
0079583670999992022010622004+31198+121336FM-15+000399999V0203601N003019999999Y009900599+00401+00101999999ADDMA1103201999999REMMET052METAR ZSSS 062200Z 36003MPS CAVOK 04/01 Q1032 NOSIG=
0079583670999992022010622304+31198+121336FM-15+000399999V0203601N003019999999Y009900599+00401+00101999999ADDMA1103201999999REMMET052METAR ZSSS 062230Z 36003MPS CAVOK 04/01 Q1032 NOSIG=
0079583670999992022010623004+31198+121336FM-15+000399999V0203601N003019999999Y009900599+00401+00101999999ADDMA1103201999999REMMET052METAR ZSSS 062300Z 36003MPS CAVOK 04/01 Q1032 NOSIG=
0079583670999992022010623304+31198+121336FM-15+000399999V0203501N003019999999Y009900599+00501+00101999999ADDMA1103201999999REMMET052METAR ZSSS 062330Z 35003MPS CAVOK 05/01 Q1032 NOSIG=
0079583670999992022010700004+31198+121336FM-15+000399999V0203601N003019999999Y009900599+00501+00201999999ADDMA1103201999999REMMET052METAR ZSSS 070000Z 36003MPS CAVOK 05/02 Q1032 NOSIG=
0079583670999992022010700304+31198+121336FM-15+000399999V0200101N003019999999Y009900599+00701+00201999999ADDMA1103201999999REMMET052METAR ZSSS 070030Z 01003MPS CAVOK 07/02 Q1032 NOSIG=
0087583670999992022010701004+31198+121336FM-15+000399999V0200301V004019999999Y009900599+00801+00101999999ADDMA1103201999999REMMET060METAR ZSSS 070100Z 03004MPS 360V060 CAVOK 08/01 Q1032 NOSIG=
0079583670999992022010701304+31198+121336FM-15+000399999V0200401N005019999999Y009900599+00901+00201999999ADDMA1103201999999REMMET052METAR ZSSS 070130Z 04005MPS CAVOK 09/02 Q1032 NOSIG=
0079583670999992022010702004+31198+121336FM-15+000399999V0200601N005019999999Y009900599+00901+00101999999ADDMA1103201999999REMMET052METAR ZSSS 070200Z 06005MPS CAVOK 09/01 Q1032 NOSIG=
0087583670999992022010702304+31198+121336FM-15+000399999V0200401V004019999999Y009900599+01001+00101999999ADDMA1103101999999REMMET060METAR ZSSS 070230Z 04004MPS 010V130 CAVOK 10/01 Q1031 NOSIG=
0087583670999992022010703004+31198+121336FM-15+000399999V0200501V004019999999Y009900599+01001+00101999999ADDMA1103101999999REMMET060METAR ZSSS 070300Z 05004MPS 350V070 CAVOK 10/01 Q1031 NOSIG=
0087583670999992022010703304+31198+121336FM-15+000399999V0200801V004019999999Y009900599+01001+00001999999ADDMA1103001999999REMMET060METAR ZSSS 070330Z 08004MPS 040V130 CAVOK 10/00 Q1030 NOSIG=
0087583670999992022010704004+31198+121336FM-15+000399999V0200701V003019999999Y009900599+01001+00001999999ADDMA1103001999999REMMET060METAR ZSSS 070400Z 07003MPS 020V120 CAVOK 10/00 Q1030 NOSIG=
0087583670999992022010704304+31198+121336FM-15+000399999V0200301V003019999999Y009900599+01001+00001999999ADDMA1102901999999REMMET060METAR ZSSS 070430Z 03003MPS 360V070 CAVOK 10/00 Q1029 NOSIG=
0079583670999992022010705004+31198+121336FM-15+000399999V0209999V001019999999Y009900599+01101+00001999999ADDMA1102901999999REMMET052METAR ZSSS 070500Z VRB01MPS CAVOK 11/00 Q1029 NOSIG=
0079583670999992022010705304+31198+121336FM-15+000399999V0209999V001019999999Y009900599+01101+00001999999ADDMA1102901999999REMMET052METAR ZSSS 070530Z VRB01MPS CAVOK 11/00 Q1029 NOSIG=
0087583670999992022010706004+31198+121336FM-15+000399999V0203501V003019999999Y009900599+01101+00001999999ADDMA1102901999999REMMET060METAR ZSSS 070600Z 35003MPS 320V080 CAVOK 11/00 Q1029 NOSIG=
0080583670999992022010706304+31198+121336FM-15+000399999V0203501N003019999999Y009900599+01001+00001999999ADDMA1102801999999REMMET053METAR ZSSS 070630Z 35003MPS CAVOK 10/M00 Q1028 NOSIG=
0088583670999992022010707004+31198+121336FM-15+000399999V0200401V003019999999Y009900599+01001+00001999999ADDMA1102801999999REMMET061METAR ZSSS 070700Z 04003MPS 020V080 CAVOK 10/M00 Q1028 NOSIG=
0080583670999992022010707304+31198+121336FM-15+000399999V0200301N003019999999Y009900599+01001+00001999999ADDMA1102801999999REMMET053METAR ZSSS 070730Z 03003MPS CAVOK 10/M00 Q1028 NOSIG=
0079583670999992022010708004+31198+121336FM-15+000399999V0200201N004019999999Y009900599+01001+00001999999ADDMA1102801999999REMMET052METAR ZSSS 070800Z 02004MPS CAVOK 10/00 Q1028 NOSIG=
0079583670999992022010708304+31198+121336FM-15+000399999V0200301N003019999999Y009900599+01001+00001999999ADDMA1102801999999REMMET052METAR ZSSS 070830Z 03003MPS CAVOK 10/00 Q1028 NOSIG=
0079583670999992022010709004+31198+121336FM-15+000399999V0200301N003019999999Y009900599+00901+00001999999ADDMA1102901999999REMMET052METAR ZSSS 070900Z 03003MPS CAVOK 09/00 Q1029 NOSIG=
0079583670999992022010709304+31198+121336FM-15+000399999V0200401N004019999999Y009900599+00901+00101999999ADDMA1102901999999REMMET052METAR ZSSS 070930Z 04004MPS CAVOK 09/01 Q1029 NOSIG=
0079583670999992022010710004+31198+121336FM-15+000399999V0200301N005019999999Y009900599+00901+00101999999ADDMA1102901999999REMMET052METAR ZSSS 071000Z 03005MPS CAVOK 09/01 Q1029 NOSIG=
0079583670999992022010710304+31198+121336FM-15+000399999V0200501N004019999999Y009900599+00801+00101999999ADDMA1102901999999REMMET052METAR ZSSS 071030Z 05004MPS CAVOK 08/01 Q1029 NOSIG=
0079583670999992022010711004+31198+121336FM-15+000399999V0200501N005019999999Y009900599+00801+00101999999ADDMA1103001999999REMMET052METAR ZSSS 071100Z 05005MPS CAVOK 08/01 Q1030 NOSIG=
0079583670999992022010711304+31198+121336FM-15+000399999V0200401N004019999999Y009900599+00701+00101999999ADDMA1103001999999REMMET052METAR ZSSS 071130Z 04004MPS CAVOK 07/01 Q1030 NOSIG=
0087583670999992022010712004+31198+121336FM-15+000399999V0200601V003019999999Y009900599+00701+00101999999ADDMA1103001999999REMMET060METAR ZSSS 071200Z 06003MPS 030V090 CAVOK 07/01 Q1030 NOSIG=
0079583670999992022010712304+31198+121336FM-15+000399999V0200501N003019999999Y009900599+00701+00101999999ADDMA1103001999999REMMET052METAR ZSSS 071230Z 05003MPS CAVOK 07/01 Q1030 NOSIG=
0079583670999992022010713004+31198+121336FM-15+000399999V0200601N002019999999Y009900599+00701+00101999999ADDMA1103001999999REMMET052METAR ZSSS 071300Z 06002MPS CAVOK 07/01 Q1030 NOSIG=
0079583670999992022010713304+31198+121336FM-15+000399999V0200401N003019999999Y009900599+00701+00101999999ADDMA1103001999999REMMET052METAR ZSSS 071330Z 04003MPS CAVOK 07/01 Q1030 NOSIG=
0087583670999992022010714004+31198+121336FM-15+000399999V0200401V002019999999Y009900599+00701+00101999999ADDMA1103001999999REMMET060METAR ZSSS 071400Z 04002MPS 020V090 CAVOK 07/01 Q1030 NOSIG=
0079583670999992022010714304+31198+121336FM-15+000399999V0200301N003019999999Y009900599+00601+00101999999ADDMA1102901999999REMMET052METAR ZSSS 071430Z 03003MPS CAVOK 06/01 Q1029 NOSIG=
0079583670999992022010715004+31198+121336FM-15+000399999V0200301N003019999999Y009900599+00601+00201999999ADDMA1102901999999REMMET052METAR ZSSS 071500Z 03003MPS CAVOK 06/02 Q1029 NOSIG=
0079583670999992022010715304+31198+121336FM-15+000399999V0200301N003019999999Y009900599+00601+00201999999ADDMA1102901999999REMMET052METAR ZSSS 071530Z 03003MPS CAVOK 06/02 Q1029 NOSIG=
0079583670999992022010716004+31198+121336FM-15+000399999V0200301N002019999999Y009900599+00601+00201999999ADDMA1102901999999REMMET052METAR ZSSS 071600Z 03002MPS CAVOK 06/02 Q1029 NOSIG=
0079583670999992022010716304+31198+121336FM-15+000399999V0200101N002019999999Y009900599+00501+00101999999ADDMA1102901999999REMMET052METAR ZSSS 071630Z 01002MPS CAVOK 05/01 Q1029 NOSIG=
0079583670999992022010717004+31198+121336FM-15+000399999V0203501N002019999999Y009900599+00601+00201999999ADDMA1102901999999REMMET052METAR ZSSS 071700Z 35002MPS CAVOK 06/02 Q1029 NOSIG=
0079583670999992022010717304+31198+121336FM-15+000399999V0203401N002019999999Y009900599+00501+00201999999ADDMA1102901999999REMMET052METAR ZSSS 071730Z 34002MPS CAVOK 05/02 Q1029 NOSIG=
0079583670999992022010718004+31198+121336FM-15+000399999V0203501N002019999999Y009900599+00401+00101999999ADDMA1102901999999REMMET052METAR ZSSS 071800Z 35002MPS CAVOK 04/01 Q1029 NOSIG=
0149583670999992022010718304+31198+121336FM-15+000399999V0203501N00301012191CN009999199+00501+00301999999ADDGA1071+012191999GE19AGL   +99999+99999GF199999071999012191999999MA1102901999999REMMET058METAR ZSSS 071830Z 35003MPS 9999 BKN040 05/03 Q1029 NOSIG=
0149583670999992022010719004+31198+121336FM-15+000399999V0203601N00201012191CN009999199+00501+00301999999ADDGA1071+012191999GE19AGL   +99999+99999GF199999071999012191999999MA1102801999999REMMET058METAR ZSSS 071900Z 36002MPS 9999 BKN040 05/03 Q1028 NOSIG=
0149583670999992022010719304+31198+121336FM-15+000399999V0203501N00201012191CN009999199+00601+00201999999ADDGA1071+012191999GE19AGL   +99999+99999GF199999071999012191999999MA1102801999999REMMET058METAR ZSSS 071930Z 35002MPS 9999 BKN040 06/02 Q1028 NOSIG=
0079583670999992022010720004+31198+121336FM-15+000399999V0200101N002019999999Y009900599+00601+00301999999ADDMA1102801999999REMMET052METAR ZSSS 072000Z 01002MPS CAVOK 06/03 Q1028 NOSIG=
0079583670999992022010720304+31198+121336FM-15+000399999V0203501N003019999999Y009900599+00601+00201999999ADDMA1102801999999REMMET052METAR ZSSS 072030Z 35003MPS CAVOK 06/02 Q1028 NOSIG=
0079583670999992022010721004+31198+121336FM-15+000399999V0203601N003019999999Y009900599+00601+00201999999ADDMA1102801999999REMMET052METAR ZSSS 072100Z 36003MPS CAVOK 06/02 Q1028 NOSIG=
0079583670999992022010721304+31198+121336FM-15+000399999V0203601N003019999999Y009900599+00601+00301999999ADDMA1102801999999REMMET052METAR ZSSS 072130Z 36003MPS CAVOK 06/03 Q1028 NOSIG=
0079583670999992022010722004+31198+121336FM-15+000399999V0203601N003019999999Y009900599+00601+00301999999ADDMA1102801999999REMMET052METAR ZSSS 072200Z 36003MPS CAVOK 06/03 Q1028 NOSIG=
0079583670999992022010722304+31198+121336FM-15+000399999V0200301N003019999999Y009900599+00601+00201999999ADDMA1102801999999REMMET052METAR ZSSS 072230Z 03003MPS CAVOK 06/02 Q1028 NOSIG=
0079583670999992022010723004+31198+121336FM-15+000399999V0200201N002019999999Y009900599+00601+00201999999ADDMA1102801999999REMMET052METAR ZSSS 072300Z 02002MPS CAVOK 06/02 Q1028 NOSIG=
0079583670999992022010723304+31198+121336FM-15+000399999V0200201N002019999999Y009900599+00601+00201999999ADDMA1102801999999REMMET052METAR ZSSS 072330Z 02002MPS CAVOK 06/02 Q1028 NOSIG=
0079583670999992022010800004+31198+121336FM-15+000399999V0200301N003019999999Y009900599+00701+00201999999ADDMA1102801999999REMMET052METAR ZSSS 080000Z 03003MPS CAVOK 07/02 Q1028 NOSIG=
0079583670999992022010800304+31198+121336FM-15+000399999V0200401N003019999999Y009900599+00701+00101999999ADDMA1102801999999REMMET052METAR ZSSS 080030Z 04003MPS CAVOK 07/01 Q1028 NOSIG=
0079583670999992022010801004+31198+121336FM-15+000399999V0200501N003019999999Y009900599+00701+00101999999ADDMA1102901999999REMMET052METAR ZSSS 080100Z 05003MPS CAVOK 07/01 Q1029 NOSIG=
0079583670999992022010801304+31198+121336FM-15+000399999V0200301N003019999999Y009900599+00801+00101999999ADDMA1102901999999REMMET052METAR ZSSS 080130Z 03003MPS CAVOK 08/01 Q1029 NOSIG=
0079583670999992022010802004+31198+121336FM-15+000399999V0200401N003019999999Y009900599+00801+00101999999ADDMA1102801999999REMMET052METAR ZSSS 080200Z 04003MPS CAVOK 08/01 Q1028 NOSIG=
0079583670999992022010802304+31198+121336FM-15+000399999V0200801N003019999999Y009900599+00801+00101999999ADDMA1102801999999REMMET052METAR ZSSS 080230Z 08003MPS CAVOK 08/01 Q1028 NOSIG=
0087583670999992022010803004+31198+121336FM-15+000399999V0203601V002019999999Y009900599+00801+00001999999ADDMA1102801999999REMMET060METAR ZSSS 080300Z 36002MPS 300V060 CAVOK 08/00 Q1028 NOSIG=
0087583670999992022010803304+31198+121336FM-15+000399999V0200501V002019999999Y009900599+00801+00001999999ADDMA1102701999999REMMET060METAR ZSSS 080330Z 05002MPS 010V110 CAVOK 08/00 Q1027 NOSIG=
0087583670999992022010804004+31198+121336FM-15+000399999V0203401V002019999999Y009900599+00901+00001999999ADDMA1102701999999REMMET060METAR ZSSS 080400Z 34002MPS 300V030 CAVOK 09/00 Q1027 NOSIG=
0087583670999992022010804304+31198+121336FM-15+000399999V0203601V002019999999Y009900599+00901+00001999999ADDMA1102701999999REMMET060METAR ZSSS 080430Z 36002MPS 300V030 CAVOK 09/00 Q1027 NOSIG=
0087583670999992022010805004+31198+121336FM-15+000399999V0200301V002019999999Y009900599+00901+00001999999ADDMA1102601999999REMMET060METAR ZSSS 080500Z 03002MPS 340V110 CAVOK 09/00 Q1026 NOSIG=
0080583670999992022010805304+31198+121336FM-15+000399999V0203601N004019999999Y009900599+00901+00001999999ADDMA1102601999999REMMET053METAR ZSSS 080530Z 36004MPS CAVOK 09/M00 Q1026 NOSIG=
0080583670999992022010806004+31198+121336FM-15+000399999V0203601N003019999999Y009900599+00801-00101999999ADDMA1102601999999REMMET053METAR ZSSS 080600Z 36003MPS CAVOK 08/M01 Q1026 NOSIG=
0080583670999992022010806304+31198+121336FM-15+000399999V0200101N003019999999Y009900599+00801+00001999999ADDMA1102501999999REMMET053METAR ZSSS 080630Z 01003MPS CAVOK 08/M00 Q1025 NOSIG=
0088583670999992022010807004+31198+121336FM-15+000399999V0200201V002019999999Y009900599+00801+00001999999ADDMA1102501999999REMMET061METAR ZSSS 080700Z 02002MPS 340V060 CAVOK 08/M00 Q1025 NOSIG=
0088583670999992022010807304+31198+121336FM-15+000399999V0200101V003019999999Y009900599+00801+00001999999ADDMA1102501999999REMMET061METAR ZSSS 080730Z 01003MPS 340V060 CAVOK 08/M00 Q1025 NOSIG=
0080583670999992022010808004+31198+121336FM-15+000399999V0200101N002019999999Y009900599+00801+00001999999ADDMA1102501999999REMMET053METAR ZSSS 080800Z 01002MPS CAVOK 08/M00 Q1025 NOSIG=
0080583670999992022010808304+31198+121336FM-15+000399999V0203401N003019999999Y009900599+00801+00001999999ADDMA1102501999999REMMET053METAR ZSSS 080830Z 34003MPS CAVOK 08/M00 Q1025 NOSIG=
0080583670999992022010809004+31198+121336FM-15+000399999V0200201N003019999999Y009900599+00801+00001999999ADDMA1102501999999REMMET053METAR ZSSS 080900Z 02003MPS CAVOK 08/M00 Q1025 NOSIG=
0088583670999992022010809304+31198+121336FM-15+000399999V0200201V003019999999Y009900599+00801+00001999999ADDMA1102601999999REMMET061METAR ZSSS 080930Z 02003MPS 010V070 CAVOK 08/M00 Q1026 NOSIG=
0079583670999992022010810004+31198+121336FM-15+000399999V0200101N004019999999Y009900599+00801+00001999999ADDMA1102601999999REMMET052METAR ZSSS 081000Z 01004MPS CAVOK 08/00 Q1026 NOSIG=
0080583670999992022010810304+31198+121336FM-15+000399999V0203601N003019999999Y009900599+00801+00001999999ADDMA1102601999999REMMET053METAR ZSSS 081030Z 36003MPS CAVOK 08/M00 Q1026 NOSIG=
0079583670999992022010811004+31198+121336FM-15+000399999V0203601N002019999999Y009900599+00801+00001999999ADDMA1102601999999REMMET052METAR ZSSS 081100Z 36002MPS CAVOK 08/00 Q1026 NOSIG=
0079583670999992022010811304+31198+121336FM-15+000399999V0203501N003019999999Y009900599+00801+00001999999ADDMA1102701999999REMMET052METAR ZSSS 081130Z 35003MPS CAVOK 08/00 Q1027 NOSIG=
0079583670999992022010812004+31198+121336FM-15+000399999V0200201N004019999999Y009900599+00701+00001999999ADDMA1102701999999REMMET052METAR ZSSS 081200Z 02004MPS CAVOK 07/00 Q1027 NOSIG=
0079583670999992022010812304+31198+121336FM-15+000399999V0200301N004019999999Y009900599+00701+00101999999ADDMA1102601999999REMMET052METAR ZSSS 081230Z 03004MPS CAVOK 07/01 Q1026 NOSIG=
0087583670999992022010813004+31198+121336FM-15+000399999V0200401V002019999999Y009900599+00701+00101999999ADDMA1102701999999REMMET060METAR ZSSS 081300Z 04002MPS 010V070 CAVOK 07/01 Q1027 NOSIG=
0079583670999992022010813304+31198+121336FM-15+000399999V0200401N003019999999Y009900599+00701+00101999999ADDMA1102601999999REMMET052METAR ZSSS 081330Z 04003MPS CAVOK 07/01 Q1026 NOSIG=
0079583670999992022010814004+31198+121336FM-15+000399999V0200801N002019999999Y009900599+00701+00101999999ADDMA1102601999999REMMET052METAR ZSSS 081400Z 08002MPS CAVOK 07/01 Q1026 NOSIG=
0079583670999992022010814304+31198+121336FM-15+000399999V0200601N002019999999Y009900599+00701+00101999999ADDMA1102601999999REMMET052METAR ZSSS 081430Z 06002MPS CAVOK 07/01 Q1026 NOSIG=
0087583670999992022010815004+31198+121336FM-15+000399999V0200401V002019999999Y009900599+00701+00101999999ADDMA1102601999999REMMET060METAR ZSSS 081500Z 04002MPS 020V080 CAVOK 07/01 Q1026 NOSIG=
0079583670999992022010815304+31198+121336FM-15+000399999V0200301N003019999999Y009900599+00701+00001999999ADDMA1102601999999REMMET052METAR ZSSS 081530Z 03003MPS CAVOK 07/00 Q1026 NOSIG=
0079583670999992022010816004+31198+121336FM-15+000399999V0200301N005019999999Y009900599+00701+00001999999ADDMA1102501999999REMMET052METAR ZSSS 081600Z 03005MPS CAVOK 07/00 Q1025 NOSIG=
0079583670999992022010816304+31198+121336FM-15+000399999V0200301N004019999999Y009900599+00701+00001999999ADDMA1102501999999REMMET052METAR ZSSS 081630Z 03004MPS CAVOK 07/00 Q1025 NOSIG=
0088583670999992022010817004+31198+121336FM-15+000399999V0200501V004019999999Y009900599+00701+00001999999ADDMA1102501999999REMMET061METAR ZSSS 081700Z 05004MPS 020V090 CAVOK 07/M00 Q1025 NOSIG=
0080583670999992022010817304+31198+121336FM-15+000399999V0200401N003019999999Y009900599+00601+00001999999ADDMA1102501999999REMMET053METAR ZSSS 081730Z 04003MPS CAVOK 06/M00 Q1025 NOSIG=
0080583670999992022010818004+31198+121336FM-15+000399999V0200401N003019999999Y009900599+00601+00001999999ADDMA1102501999999REMMET053METAR ZSSS 081800Z 04003MPS CAVOK 06/M00 Q1025 NOSIG=
0080583670999992022010818304+31198+121336FM-15+000399999V0203601N002019999999Y009900599+00601+00001999999ADDMA1102501999999REMMET053METAR ZSSS 081830Z 36002MPS CAVOK 06/M00 Q1025 NOSIG=
0080583670999992022010819004+31198+121336FM-15+000399999V0200101N002019999999Y009900599+00601+00001999999ADDMA1102501999999REMMET053METAR ZSSS 081900Z 01002MPS CAVOK 06/M00 Q1025 NOSIG=
0080583670999992022010819304+31198+121336FM-15+000399999V0203601N003019999999Y009900599+00601+00001999999ADDMA1102501999999REMMET053METAR ZSSS 081930Z 36003MPS CAVOK 06/M00 Q1025 NOSIG=
0080583670999992022010820004+31198+121336FM-15+000399999V0200201N003019999999Y009900599+00601+00001999999ADDMA1102401999999REMMET053METAR ZSSS 082000Z 02003MPS CAVOK 06/M00 Q1024 NOSIG=
0080583670999992022010820304+31198+121336FM-15+000399999V0200201N002019999999Y009900599+00601+00001999999ADDMA1102401999999REMMET053METAR ZSSS 082030Z 02002MPS CAVOK 06/M00 Q1024 NOSIG=
0079583670999992022010821004+31198+121336FM-15+000399999V0203601N002019999999Y009900599+00601+00001999999ADDMA1102401999999REMMET052METAR ZSSS 082100Z 36002MPS CAVOK 06/00 Q1024 NOSIG=
0079583670999992022010821304+31198+121336FM-15+000399999V0200101N001019999999Y009900599+00601+00001999999ADDMA1102401999999REMMET052METAR ZSSS 082130Z 01001MPS CAVOK 06/00 Q1024 NOSIG=
0079583670999992022010822004+31198+121336FM-15+000399999V0203301N002019999999Y009900599+00601+00001999999ADDMA1102501999999REMMET052METAR ZSSS 082200Z 33002MPS CAVOK 06/00 Q1025 NOSIG=
0079583670999992022010822304+31198+121336FM-15+000399999V0203401N001019999999Y009900599+00601+00001999999ADDMA1102501999999REMMET052METAR ZSSS 082230Z 34001MPS CAVOK 06/00 Q1025 NOSIG=
0079583670999992022010823004+31198+121336FM-15+000399999V0203601N002019999999Y009900599+00601+00001999999ADDMA1102501999999REMMET052METAR ZSSS 082300Z 36002MPS CAVOK 06/00 Q1025 NOSIG=
0079583670999992022010823304+31198+121336FM-15+000399999V0203401N003019999999Y009900599+00601+00001999999ADDMA1102501999999REMMET052METAR ZSSS 082330Z 34003MPS CAVOK 06/00 Q1025 NOSIG=
0079583670999992022010900004+31198+121336FM-15+000399999V0203301N003019999999Y009900599+00601+00001999999ADDMA1102501999999REMMET052METAR ZSSS 090000Z 33003MPS CAVOK 06/00 Q1025 NOSIG=
0159583670999992022010900304+31198+121336FM-15+000399999V0203301N00301012191CN009999199+00601+00101999999ADDGA1081+012191999GE19AGL   +99999+99999GF199999081999012191999999MA1102601999999MW1611REMMET062METAR ZSSS 090030Z 33003MPS 9999 -RA OVC040 06/01 Q1026 NOSIG=
0159583670999992022010901004+31198+121336FM-15+000399999V0203501N00201010061CN009999199+00601+00101999999ADDGA1081+010061999GE19AGL   +99999+99999GF199999081999010061999999MA1102601999999MW1611REMMET062METAR ZSSS 090100Z 35002MPS 9999 -RA OVC033 06/01 Q1026 NOSIG=
0157583670999992022010901304+31198+121336FM-15+000399999V0203401V00301010061CN009999199+00701+00101999999ADDGA1081+010061999GE19AGL   +99999+99999GF199999081999010061999999MA1102601999999REMMET066METAR ZSSS 090130Z 34003MPS 310V010 9999 OVC033 07/01 Q1026 NOSIG=
0087583670999992022010902004+31198+121336FM-15+000399999V0203501V002019999999Y009900599+00701+00101999999ADDMA1102501999999REMMET060METAR ZSSS 090200Z 35002MPS 300V030 CAVOK 07/01 Q1025 NOSIG=
0087583670999992022010902304+31198+121336FM-15+000399999V0203401V002019999999Y009900599+00801+00101999999ADDMA1102501999999REMMET060METAR ZSSS 090230Z 34002MPS 310V020 CAVOK 08/01 Q1025 NOSIG=
0108583670999992022010903004+31198+121336FM-15+000399999V0203601N003012200019N007000199+00701+00001999999ADDGF100991999999999999999999MA1102501999999REMMET055METAR ZSSS 090300Z 36003MPS 7000 NSC 07/00 Q1025 NOSIG=
0116583670999992022010903304+31198+121336FM-15+000399999V0203401V002012200019N007000199+00701+00001999999ADDGF100991999999999999999999MA1102401999999REMMET063METAR ZSSS 090330Z 34002MPS 250V010 7000 NSC 07/00 Q1024 NOSIG=
0116583670999992022010904004+31198+121336FM-15+000399999V0203401V004012200019N007000199+00801+00001999999ADDGF100991999999999999999999MA1102401999999REMMET063METAR ZSSS 090400Z 34004MPS 320V020 7000 NSC 08/00 Q1024 NOSIG=
0126583670999992022010904304+31198+121336FM-15+000399999V0203301V003012200019N007000199+00801+00001999999ADDGF100991999999999999999999MA1102401999999MW1611REMMET067METAR ZSSS 090430Z 33003MPS 290V360 7000 -RA NSC 08/00 Q1024 NOSIG=
0159583670999992022010905004+31198+121336FM-15+000399999V0203601N005019999999N006000199+00701+00101999999ADDGA1021+007011999GE19AGL   +99999+99999GF199999021999007011999999MA1102301999999MW1611REMMET062METAR ZSSS 090500Z 36005MPS 6000 -RA FEW023 07/01 Q1023 NOSIG=
0159583670999992022010905304+31198+121336FM-15+000399999V0209999V001019999999N006000199+00701+00101999999ADDGA1021+009141999GE19AGL   +99999+99999GF199999021999009141999999MA1102301999999MW1611REMMET062METAR ZSSS 090530Z VRB01MPS 6000 -RA FEW030 07/01 Q1023 NOSIG=
0149583670999992022010906004+31198+121336FM-15+000399999V0209999V001019999999N006000199+00701+00101999999ADDGA1021+009141999GE19AGL   +99999+99999GF199999021999009141999999MA1102301999999REMMET058METAR ZSSS 090600Z VRB01MPS 6000 FEW030 07/01 Q1023 NOSIG=
0157583670999992022010906304+31198+121336FM-15+000399999V0203401V002019999999N006000199+00701+00101999999ADDGA1021+009141999GE19AGL   +99999+99999GF199999021999009141999999MA1102301999999REMMET066METAR ZSSS 090630Z 34002MPS 270V040 6000 FEW030 07/01 Q1023 NOSIG=
0116583670999992022010907004+31198+121336FM-15+000399999V0200201V002012200019N006000199+00701+00101999999ADDGF100991999999999999999999MA1102301999999REMMET063METAR ZSSS 090700Z 02002MPS 330V060 6000 NSC 07/01 Q1023 NOSIG=
0108583670999992022010907304+31198+121336FM-15+000399999V0209999V001012200019N006000199+00801+00101999999ADDGF100991999999999999999999MA1102301999999REMMET055METAR ZSSS 090730Z VRB01MPS 6000 NSC 08/01 Q1023 NOSIG=
0108583670999992022010908004+31198+121336FM-15+000399999V0209999V001012200019N006000199+00701+00101999999ADDGF100991999999999999999999MA1102301999999REMMET055METAR ZSSS 090800Z VRB01MPS 6000 NSC 07/01 Q1023 NOSIG=
0116583670999992022010908304+31198+121336FM-15+000399999V0203101V002012200019N006000199+00801+00101999999ADDGF100991999999999999999999MA1102301999999REMMET063METAR ZSSS 090830Z 31002MPS 220V350 6000 NSC 08/01 Q1023 NOSIG=
0125583670999992022010909004+31198+121336FM-15+000399999V0203001V002012200019N005000199+00701+00101999999ADDGF100991999999999999999999MA1102301999999MW1051REMMET066METAR ZSSS 090900Z 30002MPS 270V340 5000 HZ NSC 07/01 Q1023 NOSIG=
0116583670999992022010909304+31198+121336FM-15+000399999V0200101V002012200019N006000199+00701+00101999999ADDGF100991999999999999999999MA1102301999999REMMET063METAR ZSSS 090930Z 01002MPS 320V060 6000 NSC 07/01 Q1023 NOSIG=
0108583670999992022010910004+31198+121336FM-15+000399999V0200301N002012200019N006000199+00701+00001999999ADDGF100991999999999999999999MA1102401999999REMMET055METAR ZSSS 091000Z 03002MPS 6000 NSC 07/00 Q1024 NOSIG=
0108583670999992022010910304+31198+121336FM-15+000399999V0200101N002012200019N006000199+00701+00101999999ADDGF100991999999999999999999MA1102401999999REMMET055METAR ZSSS 091030Z 01002MPS 6000 NSC 07/01 Q1024 NOSIG=
0108583670999992022010911004+31198+121336FM-15+000399999V0203501N002012200019N006000199+00701+00101999999ADDGF100991999999999999999999MA1102401999999REMMET055METAR ZSSS 091100Z 35002MPS 6000 NSC 07/01 Q1024 NOSIG=
0116583670999992022010911304+31198+121336FM-15+000399999V0203501V002012200019N006000199+00701+00101999999ADDGF100991999999999999999999MA1102401999999REMMET063METAR ZSSS 091130Z 35002MPS 320V020 6000 NSC 07/01 Q1024 NOSIG=
0108583670999992022010912004+31198+121336FM-15+000399999V0203001N002012200019N006000199+00701+00101999999ADDGF100991999999999999999999MA1102501999999REMMET055METAR ZSSS 091200Z 30002MPS 6000 NSC 07/01 Q1025 NOSIG=
0108583670999992022010912304+31198+121336FM-15+000399999V0203401N002012200019N006000199+00701+00101999999ADDGF100991999999999999999999MA1102501999999REMMET055METAR ZSSS 091230Z 34002MPS 6000 NSC 07/01 Q1025 NOSIG=
0108583670999992022010913004+31198+121336FM-15+000399999V0203501N002012200019N006000199+00701+00101999999ADDGF100991999999999999999999MA1102501999999REMMET055METAR ZSSS 091300Z 35002MPS 6000 NSC 07/01 Q1025 NOSIG=
0117583670999992022010913304+31198+121336FM-15+000399999V0203401N003012200019N005000199+00701+00101999999ADDGF100991999999999999999999MA1102501999999MW1051REMMET058METAR ZSSS 091330Z 34003MPS 5000 HZ NSC 07/01 Q1025 NOSIG=
0117583670999992022010914004+31198+121336FM-15+000399999V0203501N003012200019N005000199+00701+00101999999ADDGF100991999999999999999999MA1102401999999MW1051REMMET058METAR ZSSS 091400Z 35003MPS 5000 HZ NSC 07/01 Q1024 NOSIG=
0117583670999992022010914304+31198+121336FM-15+000399999V0203601N002012200019N005000199+00701+00101999999ADDGF100991999999999999999999MA1102401999999MW1051REMMET058METAR ZSSS 091430Z 36002MPS 5000 HZ NSC 07/01 Q1024 NOSIG=
0117583670999992022010915004+31198+121336FM-15+000399999V0203501N002012200019N005000199+00701+00101999999ADDGF100991999999999999999999MA1102401999999MW1051REMMET058METAR ZSSS 091500Z 35002MPS 5000 HZ NSC 07/01 Q1024 NOSIG=
0117583670999992022010915304+31198+121336FM-15+000399999V0203601N002012200019N004500199+00701+00101999999ADDGF100991999999999999999999MA1102401999999MW1051REMMET058METAR ZSSS 091530Z 36002MPS 4500 HZ NSC 07/01 Q1024 NOSIG=
0125583670999992022010916004+31198+121336FM-15+000399999V0203401V002012200019N004200199+00701+00101999999ADDGF100991999999999999999999MA1102401999999MW1051REMMET066METAR ZSSS 091600Z 34002MPS 310V010 4200 HZ NSC 07/01 Q1024 NOSIG=
0117583670999992022010916304+31198+121336FM-15+000399999V0203401N003012200019N004200199+00701+00201999999ADDGF100991999999999999999999MA1102401999999MW1051REMMET058METAR ZSSS 091630Z 34003MPS 4200 HZ NSC 07/02 Q1024 NOSIG=
0117583670999992022010917004+31198+121336FM-15+000399999V0200301N002012200019N004000199+00701+00201999999ADDGF100991999999999999999999MA1102401999999MW1051REMMET058METAR ZSSS 091700Z 03002MPS 4000 HZ NSC 07/02 Q1024 NOSIG=
0117583670999992022010917304+31198+121336FM-15+000399999V0200201N002012200019N004000199+00701+00201999999ADDGF100991999999999999999999MA1102301999999MW1051REMMET058METAR ZSSS 091730Z 02002MPS 4000 HZ NSC 07/02 Q1023 NOSIG=
0117583670999992022010918004+31198+121336FM-15+000399999V0200201N002012200019N004000199+00601+00201999999ADDGF100991999999999999999999MA1102301999999MW1101REMMET058METAR ZSSS 091800Z 02002MPS 4000 BR NSC 06/02 Q1023 NOSIG=
0117583670999992022010918304+31198+121336FM-15+000399999V0200301N002012200019N004000199+00601+00201999999ADDGF100991999999999999999999MA1102301999999MW1101REMMET058METAR ZSSS 091830Z 03002MPS 4000 BR NSC 06/02 Q1023 NOSIG=
0117583670999992022010919004+31198+121336FM-15+000399999V0203401N001012200019N004000199+00601+00201999999ADDGF100991999999999999999999MA1102301999999MW1101REMMET058METAR ZSSS 091900Z 34001MPS 4000 BR NSC 06/02 Q1023 NOSIG=
0117583670999992022010919304+31198+121336FM-15+000399999V0200101N001012200019N004000199+00601+00201999999ADDGF100991999999999999999999MA1102301999999MW1101REMMET058METAR ZSSS 091930Z 01001MPS 4000 BR NSC 06/02 Q1023 NOSIG=
0117583670999992022010920004+31198+121336FM-15+000399999V0209999V001012200019N004000199+00601+00201999999ADDGF100991999999999999999999MA1102301999999MW1101REMMET058METAR ZSSS 092000Z VRB01MPS 4000 BR NSC 06/02 Q1023 NOSIG=
0117583670999992022010920304+31198+121336FM-15+000399999V0203401N001012200019N004000199+00601+00201999999ADDGF100991999999999999999999MA1102301999999MW1101REMMET058METAR ZSSS 092030Z 34001MPS 4000 BR NSC 06/02 Q1023 NOSIG=
0129583670999992022010921004+31198+121336FM-15+000399999V0200101N002012200019N004000199+00601+00201999999ADDGF100991999999999999999999MA1102301999999MW1101REMMET070METAR ZSSS 092100Z 01002MPS 4000 BR NSC 06/02 Q1023 BECMG TL2250 2500=
0117583670999992022010921304+31198+121336FM-15+000399999V0200101N002012200019N004000199+00501+00301999999ADDGF100991999999999999999999MA1102301999999MW1101REMMET058METAR ZSSS 092130Z 01002MPS 4000 BR NSC 05/03 Q1023 NOSIG=
0129583670999992022010922004+31198+121336FM-15+000399999V0200101N002012200019N004000199+00501+00201999999ADDGF100991999999999999999999MA1102201999999MW1101REMMET070METAR ZSSS 092200Z 01002MPS 4000 BR NSC 05/02 Q1022 BECMG TL2310 2500=
0117583670999992022010922304+31198+121336FM-15+000399999V0203601N002012200019N004000199+00601+00201999999ADDGF100991999999999999999999MA1102301999999MW1101REMMET058METAR ZSSS 092230Z 36002MPS 4000 BR NSC 06/02 Q1023 NOSIG=
0117583670999992022010923004+31198+121336FM-15+000399999V0203601N001012200019N003500199+00601+00301999999ADDGF100991999999999999999999MA1102301999999MW1101REMMET058METAR ZSSS 092300Z 36001MPS 3500 BR NSC 06/03 Q1023 NOSIG=
0117583670999992022010923304+31198+121336FM-15+000399999V0200101N002012200019N002800199+00701+00201999999ADDGF100991999999999999999999MA1102301999999MW1101REMMET058METAR ZSSS 092330Z 01002MPS 2800 BR NSC 07/02 Q1023 NOSIG=
0129583670999992022011000004+31198+121336FM-15+000399999V0200101N002012200019N002800199+00701+00201999999ADDGF100991999999999999999999MA1102301999999MW1051REMMET070METAR ZSSS 100000Z 01002MPS 2800 HZ NSC 07/02 Q1023 BECMG TL0040 5000=
0117583670999992022011000304+31198+121336FM-15+000399999V0200101N002012200019N002800199+00701+00101999999ADDGF100991999999999999999999MA1102401999999MW1051REMMET058METAR ZSSS 100030Z 01002MPS 2800 HZ NSC 07/01 Q1024 NOSIG=
0117583670999992022011001004+31198+121336FM-15+000399999V0200101N003012200019N004000199+00801+00101999999ADDGF100991999999999999999999MA1102301999999MW1051REMMET058METAR ZSSS 100100Z 01003MPS 4000 HZ NSC 08/01 Q1023 NOSIG=
0125583670999992022011001304+31198+121336FM-15+000399999V0200101V003012200019N004000199+00801+00101999999ADDGF100991999999999999999999MA1102401999999MW1051REMMET066METAR ZSSS 100130Z 01003MPS 330V050 4000 HZ NSC 08/01 Q1024 NOSIG=
0117583670999992022011002004+31198+121336FM-15+000399999V0203501N003012200019N004000199+00901+00101999999ADDGF100991999999999999999999MA1102301999999MW1051REMMET058METAR ZSSS 100200Z 35003MPS 4000 HZ NSC 09/01 Q1023 NOSIG=
0125583670999992022011002304+31198+121336FM-15+000399999V0203501V003012200019N004000199+00801+00101999999ADDGF100991999999999999999999MA1102301999999MW1051REMMET066METAR ZSSS 100230Z 35003MPS 320V060 4000 HZ NSC 08/01 Q1023 NOSIG=
0117583670999992022011003004+31198+121336FM-15+000399999V0203601N003012200019N003500199+00801+00001999999ADDGF100991999999999999999999MA1102301999999MW1051REMMET058METAR ZSSS 100300Z 36003MPS 3500 HZ NSC 08/00 Q1023 NOSIG=
0117583670999992022011003304+31198+121336FM-15+000399999V0203501N003012200019N003500199+00801+00001999999ADDGF100991999999999999999999MA1102301999999MW1051REMMET058METAR ZSSS 100330Z 35003MPS 3500 HZ NSC 08/00 Q1023 NOSIG=
0125583670999992022011004004+31198+121336FM-15+000399999V0203101V003012200019N003500199+00801+00101999999ADDGF100991999999999999999999MA1102301999999MW1051REMMET066METAR ZSSS 100400Z 31003MPS 270V350 3500 HZ NSC 08/01 Q1023 NOSIG=
0125583670999992022011004304+31198+121336FM-15+000399999V0203101V003012200019N003500199+00801+00001999999ADDGF100991999999999999999999MA1102201999999MW1051REMMET066METAR ZSSS 100430Z 31003MPS 280V360 3500 HZ NSC 08/00 Q1022 NOSIG=
0118583670999992022011005004+31198+121336FM-15+000399999V0203401N002012200019N003500199+00801+00001999999ADDGF100991999999999999999999MA1102201999999MW1051REMMET059METAR ZSSS 100500Z 34002MPS 3500 HZ NSC 08/M00 Q1022 NOSIG=
0125583670999992022011005304+31198+121336FM-15+000399999V0203201V003012200019N003500199+00801+00001999999ADDGF100991999999999999999999MA1102101999999MW1051REMMET066METAR ZSSS 100530Z 32003MPS 300V360 3500 HZ NSC 08/00 Q1021 NOSIG=
0129583670999992022011006004+31198+121336FM-15+000399999V0203401N004012200019N003500199+00801+00001999999ADDGF100991999999999999999999MA1102101999999MW1051REMMET070METAR ZSSS 100600Z 34004MPS 3500 HZ NSC 08/00 Q1021 BECMG TL0730 2500=
0117583670999992022011006304+31198+121336FM-15+000399999V0203401N004012200019N003500199+00801+00101999999ADDGF100991999999999999999999MA1102101999999MW1051REMMET058METAR ZSSS 100630Z 34004MPS 3500 HZ NSC 08/01 Q1021 NOSIG=
0129583670999992022011007004+31198+121336FM-15+000399999V0203501N003012200019N003500199+00801+00001999999ADDGF100991999999999999999999MA1102101999999MW1051REMMET070METAR ZSSS 100700Z 35003MPS 3500 HZ NSC 08/00 Q1021 BECMG TL0830 2500=
0117583670999992022011007304+31198+121336FM-15+000399999V0203401N003012200019N003500199+00801+00101999999ADDGF100991999999999999999999MA1102101999999MW1051REMMET058METAR ZSSS 100730Z 34003MPS 3500 HZ NSC 08/01 Q1021 NOSIG=
0117583670999992022011008004+31198+121336FM-15+000399999V0203401N004012200019N003500199+00801+00101999999ADDGF100991999999999999999999MA1102101999999MW1051REMMET058METAR ZSSS 100800Z 34004MPS 3500 HZ NSC 08/01 Q1021 NOSIG=
0117583670999992022011008304+31198+121336FM-15+000399999V0203501N003012200019N003500199+00801+00101999999ADDGF100991999999999999999999MA1102101999999MW1051REMMET058METAR ZSSS 100830Z 35003MPS 3500 HZ NSC 08/01 Q1021 NOSIG=
0117583670999992022011009004+31198+121336FM-15+000399999V0203601N003012200019N003500199+00701+00101999999ADDGF100991999999999999999999MA1102101999999MW1051REMMET058METAR ZSSS 100900Z 36003MPS 3500 HZ NSC 07/01 Q1021 NOSIG=
0117583670999992022011009304+31198+121336FM-15+000399999V0203301N004012200019N003500199+00801+00101999999ADDGF100991999999999999999999MA1102201999999MW1051REMMET058METAR ZSSS 100930Z 33004MPS 3500 HZ NSC 08/01 Q1022 NOSIG=
0158583670999992022011010004+31198+121336FM-15+000399999V0203301N004019999999N004000199+00701+00001999999ADDGA1021+010061999GE19AGL   +99999+99999GF199999021999010061999999MA1102201999999MW1051REMMET061METAR ZSSS 101000Z 33004MPS 4000 HZ FEW033 07/00 Q1022 NOSIG=
