0118712230999992022010100004+51933-110700FM-12+077299999V0202401N003619999999N999999999-03151-03681999999ADDAA106999919AA224999919KA1120M-02741KA2120N-03431REMSYN05871223 46/// /2407 11315 21368 6///1 333 11274 21343 7////=
0059712230999992022010100004+51930-110720SAO  +077299999V020240190036199999999999999999-03151-03681999999REMAWY050XCS SA 0000 AUTO8 M M M M/-32/-37/2407/M/M M 58MM=
0059712230999992022010101004+51930-110720SAO  +077299999V020250190041199999999999999999-03121-03551999999REMAWY050XCS SA 0100 AUTO8 M M M M/-31/-36/2508/M/M M 25MM=
0059712230999992022010102004+51930-110720SAO  +077299999V020240190046199999999999999999-03081-03601999999REMAWY050XCS SA 0200 AUTO8 M M M M/-31/-36/2409/M/M M 80MM=
0063712230999992022010103004+51933-110700FM-12+077299999V0202401N003119999999N999999999-03221-03761999999ADDAA103999999REMSYN04071223 46/// /2406 11322 21376 333 6///7=
0059712230999992022010103004+51930-110720SAO  +077299999V020240190031199999999999999999-03221-03761999999REMAWY050XCS SA 0300 AUTO8 M M M M/-32/-38/2406/M/M M 26MM=
0092712230999992022010104004+51930-110720SAO  +077299999V020240190051199999999999999999-03061-03571999999ADDAA101001331REMAWY069XCS SA 0400 AUTO8 M M M M/-31/-36/2410/M/M PCPN 1.3MM PAST HR M 67MM=
0059712230999992022010105004+51930-110720SAO  +077299999V020250190046199999999999999999-03101-03621999999REMAWY050XCS SA 0500 AUTO8 M M M M/-31/-36/2509/M/M M 02MM=
0118712230999992022010106004+51933-110700FM-12+077299999V0202301N004619999999N999999999-03141-03661999999ADDAA106999919AA224999919KA1240M-02741KA2240N-03431REMSYN05871223 46/// /2309 11314 21366 6///1 333 11274 21343 7////=
0092712230999992022010106004+51930-110720SAO  +077299999V020230190046199999999999999999-03141-03661999999ADDAA101000731REMAWY069XCS SA 0600 AUTO8 M M M M/-31/-37/2309/M/M PCPN 0.7MM PAST HR M 46MM=
0059712230999992022010107004+51930-110720SAO  +077299999V020220190041199999999999999999-03281-03821999999REMAWY050XCS SA 0700 AUTO8 M M M M/-33/-38/2208/M/M M 82MM=
0059712230999992022010108004+51930-110720SAO  +077299999V020220190046199999999999999999-03261-03801999999REMAWY050XCS SA 0800 AUTO8 M M M M/-33/-38/2209/M/M M 60MM=
0063712230999992022010109004+51933-110700FM-12+077299999V0202301N004119999999N999999999-03321-03871999999ADDAA103999999REMSYN04071223 46/// /2308 11332 21387 333 6///7=
0059712230999992022010109004+51930-110720SAO  +077299999V020230190041199999999999999999-03321-03871999999REMAWY050XCS SA 0900 AUTO8 M M M M/-33/-39/2308/M/M M 27MM=
0059712230999992022010110004+51930-110720SAO  +077299999V020220190046199999999999999999-03331-03891999999REMAWY050XCS SA 1000 AUTO8 M M M M/-33/-39/2209/M/M M 39MM=
0092712230999992022010111004+51930-110720SAO  +077299999V020220190041199999999999999999-03221-03761999999ADDAA101000931REMAWY069XCS SA 1100 AUTO8 M M M M/-32/-38/2208/M/M PCPN 0.9MM PAST HR M 26MM=
0118712230999992022010112004+51933-110700FM-12+077299999V0202301N004119999999N999999999-03171-03701999999ADDAA106999919AA224999919KA1240M-02741KA2240N-03361REMSYN05871223 46/// /2308 11317 21370 6///1 333 11274 21336 7////=
0092712230999992022010112004+51930-110720SAO  +077299999V020230190041199999999999999999-03171-03701999999ADDAA101001331REMAWY069XCS SA 1200 AUTO8 M M M M/-32/-37/2308/M/M PCPN 1.3MM PAST HR M 70MM=
0095712230999992022010113004+51930-110720SAO  +077299999V020220190031199999999999999999-03211-03751999999ADDAA101000731REMAWY072XCS SA 1300 AUTO8 M M M M/-32/-38/2206/M/0007 PCPN 0.7MM PAST HR M 15MM=
0059712230999992022010114004+51930-110720SAO  +077299999V020210190026199999999999999999-03231-03771999999REMAWY050XCS SA 1400 AUTO8 M M M M/-32/-38/2105/M/M M 37MM=
0063712230999992022010115004+51933-110700FM-12+077299999V0202001N003119999999N999999999-03141-03671999999ADDAA103999999REMSYN04071223 46/// /2006 11314 21367 333 6///7=
0059712230999992022010115004+51930-110720SAO  +077299999V020200190031199999999999999999-03141-03671999999REMAWY050XCS SA 1500 AUTO8 M M M M/-31/-37/2006/M/M M 47MM=
0092712230999992022010116004+51930-110720SAO  +077299999V020210190021199999999999999999-03071-03591999999ADDAA101002631REMAWY069XCS SA 1600 AUTO8 M M M M/-31/-36/2104/M/M PCPN 2.6MM PAST HR M 79MM=
0059712230999992022010117004+51930-110720SAO  +077299999V020220190031199999999999999999-02881-03371999999REMAWY050XCS SA 1700 AUTO8 M M M M/-29/-34/2206/M/M M 87MM=
0118712230999992022010118004+51933-110700FM-12+077299999V0202001N002619999999N999999999-02691-03151999999ADDAA106999919AA224999919KA1120M-02691KA2120N-03361REMSYN05871223 46/// /2005 11269 21315 6///1 333 11269 21336 7////=
0059712230999992022010118004+51930-110720SAO  +077299999V020200190026199999999999999999-02691-03151999999REMAWY050XCS SA 1800 AUTO8 M M M M/-27/-32/2005/M/M M 95MM=
0058712230999992022010119004+51930-110720SAO  +077299999V020190190031199999999999999999-02531-02981999999REMAWY049XCS SA 1900 AUTO8 M M M M/-25/-30/1906/M/ M 38MM=
0058712230999992022010120004+51930-110720SAO  +077299999V020170190026199999999999999999-02511-02951999999REMAWY049XCS SA 2000 AUTO8 M M M M/-25/-30/1705/M/ M 15MM=
0063712230999992022010121004+51933-110700FM-12+077299999V0201501N001519999999N999999999-02431-02851999999ADDAA103000091REMSYN04071223 26/// /1503 11243 21285 333 60007=
0058712230999992022010121004+51930-110720SAO  +077299999V020150190015199999999999999999-02431-02751999999REMAWY049XCS SA 2100 AUTO8 M M M M/-24/-28/1503/M/ M 35MM=
0058712230999992022010122004+51930-110720SAO  +077299999V020160190036199999999999999999-02401-02831999999REMAWY049XCS SA 2200 AUTO8 M M M M/-24/-28/1607/M/ M 03MM=
0058712230999992022010123004+51930-110720SAO  +077299999V020170190036199999999999999999-02391-02811999999REMAWY049XCS SA 2300 AUTO8 M M M M/-24/-28/1707/M/ M 91MM=
0118712230999992022010200004+51933-110700FM-12+077299999V0201601N002119999999N999999999-02491-02931999999ADDAA106999919AA224999919KA1120M-02351KA2120N-03361REMSYN05871223 46/// /1604 11249 21293 6///1 333 11235 21336 7////=
0059712230999992022010200004+51930-110720SAO  +077299999V020160190021199999999999999999-02491-02931999999REMAWY050XCS SA 0000 AUTO8 M M M M/-25/-29/1604/M/M M 93MM=
0095712230999992022010201004+51930-110720SAO  +077299999V020160190031199999999999999999-02421-02861999999ADDAA101001231REMAWY072XCS SA 0100 AUTO8 M M M M/-24/-29/1606/M/0012 PCPN 1.2MM PAST HR M 26MM=
0062712230999992022010202004+51930-110720SAO  +077299999V020180190031199999999999999999-02381-02801999999REMAWY053XCS SA 0200 AUTO8 M M M M/-24/-28/1806/M/0012 M 80MM=
0063712230999992022010203004+51933-110700FM-12+077299999V0201701N002619999999N999999999-02441-02871999999ADDAA103001031REMSYN04071223 26/// /1705 11244 21287 333 60017=
0062712230999992022010203004+51930-110720SAO  +077299999V020170190026199999999999999999-02441-02871999999REMAWY053XCS SA 0300 AUTO8 M M M M/-24/-29/1705/M/0012 M 47MM=
0062712230999992022010204004+51930-110720SAO  +077299999V020170190026199999999999999999-02311-02711999999REMAWY053XCS SA 0400 AUTO8 M M M M/-23/-27/1705/M/0012 M 11MM=
0062712230999992022010205004+51930-110720SAO  +077299999V020180190031199999999999999999-02081-02471999999REMAWY053XCS SA 0500 AUTO8 M M M M/-21/-25/1806/M/0012 M 87MM=
0118712230999992022010206004+51933-110700FM-12+077299999V0202001N003119999999N999999999-01651-01971999999ADDAA106001031AA224999919KA1240M-01651KA2240N-03361REMSYN05871223 16/// /2006 11165 21197 60011 333 11165 21336 7////=
0062712230999992022010206004+51930-110720SAO  +077299999V020200190031199999999999999999-01651-01971999999REMAWY053XCS SA 0600 AUTO8 M M M M/-17/-20/2006/M/0012 M 57MM=
0058712230999992022010207004+51930-110720SAO  +077299999V020210190036199999999999999999-01561-01861999999REMAWY049XCS SA 0700 AUTO8 M M M M/-16/-19/2107/M/ M 66MM=
0059712230999992022010208004+51930-110720SAO  +077299999V020220190041199999999999999999-01531-01831999999REMAWY050XCS SA 0800 AUTO8 M M M M/-15/-18/2208/M/M M 33MM=
0063712230999992022010209004+51933-110700FM-12+077299999V0202201N007219999999N999999999-01571-01881999999ADDAA103999999REMSYN04071223 46/// /2214 11157 21188 333 6///7=
0059712230999992022010209004+51930-110720SAO  +077299999V020220190072199999999999999999-01571-01881999999REMAWY050XCS SA 0900 AUTO8 M M M M/-16/-19/2214/M/M M 78MM=
0094712230999992022010210004+51930-110720SAO  +077299999V020230190062199999999999999999-01501-01801999999ADDOD130100871230REMAWY068XCS SA 1000 AUTO8 M M M M/-15/-18/2312/M/M PK WND 2317 0910Z M 00MM=
0094712230999992022010211004+51930-110720SAO  +077299999V020230190082199999999999999999-01241-01541999999ADDOD130101031220REMAWY068XCS SA 1100 AUTO8 M M M M/-12/-15/2316/M/M PK WND 2220 1028Z M 44MM=
0124712230999992022010212004+51933-110700FM-12+077299999V0202201N008819999999N999999999-01351-01651999999ADDAA106999919AA224999919KA1240N-02501REMSYN05871223 46/// /2217 11135 21165 6///1 333 11165 21250 7////=EQDQ01-16.5 2EATMX 
0094712230999992022010212004+51930-110720SAO  +077299999V020220190087199999999999999999-01351-01551999999ADDOD130101031220REMAWY068XCS SA 1200 AUTO8 M M M M/-14/-16/2217/M/M PK WND 2220 1148Z M 55MM=
0093712230999992022010213004+51930-110720SAO  +077299999V020220190077199999999999999999-01331-01641999999ADDOD130100871220REMAWY067XCS SA 1300 AUTO8 M M M M/-13/-16/2215/M/ PK WND 2217 1203Z M 34MM=
0093712230999992022010214004+51930-110720SAO  +077299999V020220190077199999999999999999-01371-01731999999ADDOD130100871220REMAWY067XCS SA 1400 AUTO8 M M M M/-14/-17/2215/M/ PK WND 2217 1349Z M 73MM=
0063712230999992022010215004+51933-110700FM-12+077299999V0202601N009819999999N999999999-00781-01251999999ADDAA103000091REMSYN04071223 26/// /2619 11078 21125 333 60007=
0093712230999992022010215004+51930-110720SAO  +077299999V020260190098199999999999999999-00781-01151999999ADDOD130101131250REMAWY067XCS SA 1500 AUTO8 M M M M/-08/-12/2619/M/ PK WND 2522 1451Z M 85MM=
0093712230999992022010216004+51930-110720SAO  +077299999V020270190103199999999999999999-00491-00991999999ADDOD130101231270REMAWY067XCS SA 1600 AUTO8 M M M M/-05/-10/2720/M/ PK WND 2724 1511Z M 99MM=
0093712230999992022010217004+51930-110720SAO  +077299999V020270190077199999999999999999-00491-01041999999ADDOD130101181270REMAWY067XCS SA 1700 AUTO8 M M M M/-05/-10/2715/M/ PK WND 2723 1608Z M 94MM=
0118712230999992022010218004+51933-110700FM-12+077299999V0203101N007219999999N999999999-00721-01221999999ADDAA106000091AA224999919KA1120M-00471KA2120N-02691REMSYN05871223 16/// /3114 11072 21122 60001 333 11047 21269 7////=
0058712230999992022010218004+51930-110720SAO  +077299999V020310190072199999999999999999-00721-01221999999REMAWY049XCS SA 1800 AUTO8 M M M M/-07/-12/3114/M/ M 22MM=
0093712230999992022010219004+51930-110720SAO  +077299999V020280190082199999999999999999-00361-01011999999ADDOD130100981270REMAWY067XCS SA 1900 AUTO8 M M M M/-04/-10/2816/M/ PK WND 2719 1857Z M 61MM=
0093712230999992022010220004+51930-110720SAO  +077299999V020280190067199999999999999999-00421-01061999999ADDOD130100981270REMAWY067XCS SA 2000 AUTO8 M M M M/-04/-11/2813/M/ PK WND 2719 1902Z M 26MM=
0063712230999992022010221004+51933-110700FM-12+077299999V0202901N005719999999N999999999-00541-01091999999ADDAA103000091REMSYN04071223 26/// /2911 11054 21109 333 60007=
0058712230999992022010221004+51930-110720SAO  +077299999V020290190057199999999999999999-00541-01091999999REMAWY049XCS SA 2100 AUTO8 M M M M/-05/-11/2911/M/ M 49MM=
0058712230999992022010222004+51930-110720SAO  +077299999V020290190062199999999999999999-00501-01121999999REMAWY049XCS SA 2200 AUTO8 M M M M/-05/-11/2912/M/ M 02MM=
0093712230999992022010223004+51930-110720SAO  +077299999V020340190087199999999999999999-00701-00981999999ADDOD130101131330REMAWY067XCS SA 2300 AUTO8 M M M M/-07/-10/3417/M/ PK WND 3322 2258Z M 08MM=
0118712230999992022010300004+51933-110700FM-12+077299999V0203401N006719999999N999999999-00791-01031999999ADDAA106000091AA224999919KA1120M-00351KA2120N-01651REMSYN05871223 16/// /3413 11079 21103 60001 333 11035 21165 7////=
0093712230999992022010300004+51930-110720SAO  +077299999V020340190067199999999999999999-00791-01031999999ADDOD130101281330REMAWY067XCS SA 0000 AUTO8 M M M M/-08/-10/3413/M/ PK WND 3325 2314Z M 93MM=
0093712230999992022010301004+51930-110720SAO  +077299999V020350190062199999999999999999-01111-01391999999ADDOD130100981350REMAWY067XCS SA 0100 AUTO8 M M M M/-11/-14/3512/M/ PK WND 3519 0014Z M 19MM=
0058712230999992022010302004+51930-110720SAO  +077299999V020350190067199999999999999999-01261-01541999999REMAWY049XCS SA 0200 AUTO8 M M M M/-13/-15/3513/M/ M 64MM=
0063712230999992022010303004+51933-110700FM-12+077299999V0203501N005119999999N999999999-01531-01891999999ADDAA103000091REMSYN04071223 26/// /3510 11153 21189 333 60007=
0093712230999992022010303004+51930-110720SAO  +077299999V020350190051199999999999999999-01531-01891999999ADDOD130100981350REMAWY067XCS SA 0300 AUTO8 M M M M/-15/-19/3510/M/ PK WND 3519 0223Z M 39MM=
0058712230999992022010304004+51930-110720SAO  +077299999V020350190041199999999999999999-01631-02011999999REMAWY049XCS SA 0400 AUTO8 M M M M/-16/-20/3508/M/ M 31MM=
0058712230999992022010305004+51930-110720SAO  +077299999V020010190046199999999999999999-01761-02131999999REMAWY049XCS SA 0500 AUTO8 M M M M/-18/-21/0109/M/ M 63MM=
0134712230999992022010306004+51933-110700FM-12+077299999V0203601N004619999999N999999999-01951-02321999999ADDAA106999919AA224999919KA1240M-00351KA2240N-01951REMSYN07471223 46/// /3609 11195 21232 6///1 333 11035 21195 7//// 555 33325 40001=
0059712230999992022010306004+51930-110720SAO  +077299999V020360190046199999999999999999-01851-02321999999REMAWY050XCS SA 0600 AUTO8 M M M M/-19/-23/3609/M/M M 52MM=
0095712230999992022010307004+51930-110720SAO  +077299999V020020190057199999999999999999-01891-02151999999ADDAA101000531REMAWY072XCS SA 0700 AUTO8 M M M M/-19/-22/0211/M/0005 PCPN 0.5MM PAST HR M 95MM=
0097712230999992022010308004+51930-110720SAO  +077299999V020040190062199999999999999999-01961-02321999999ADDOD130100871040REMAWY071XCS SA 0800 AUTO8 M M M M/-20/-23/0412/M/0005 PK WND 0417 0713Z M 62MM=
0063712230999992022010309004+51933-110700FM-12+077299999V0200501N007219999999N999999999-01981-02321999999ADDAA103000531REMSYN04071223 26/// /0514 11198 21232 333 69957=
0062712230999992022010309004+51930-110720SAO  +077299999V020050190072199999999999999999-01981-02321999999REMAWY053XCS SA 0900 AUTO8 M M M M/-20/-23/0514/M/0005 M 82MM=
0097712230999992022010310004+51930-110720SAO  +077299999V020060190072199999999999999999-01951-02431999999ADDOD130101081060REMAWY071XCS SA 1000 AUTO8 M M M M/-20/-24/0614/M/0005 PK WND 0621 0911Z M 53MM=
0062712230999992022010311004+51930-110720SAO  +077299999V020070190062199999999999999999-02081-02501999999REMAWY053XCS SA 1100 AUTO8 M M M M/-21/-25/0712/M/0005 M 80MM=
0118712230999992022010312004+51933-110700FM-12+077299999V0200701N005719999999N999999999-02111-02481999999ADDAA106000531AA224999919KA1240M-00351KA2240N-02111REMSYN05871223 16/// /0711 11211 21248 69951 333 11035 21211 7////=
0097712230999992022010312004+51930-110720SAO  +077299999V020070190057199999999999999999-02111-02481999999ADDOD130100871060REMAWY071XCS SA 1200 AUTO8 M M M M/-21/-25/0711/M/0005 PK WND 0617 1109Z M 18MM=
0093712230999992022010313004+51930-110720SAO  +077299999V020080190077199999999999999999-02111-02461999999ADDOD130100981080REMAWY067XCS SA 1300 AUTO8 M M M M/-21/-25/0815/M/ PK WND 0819 1256Z M 16MM=
0093712230999992022010314004+51930-110720SAO  +077299999V020080190072199999999999999999-02091-02351999999ADDOD130101031070REMAWY067XCS SA 1400 AUTO8 M M M M/-21/-24/0814/M/ PK WND 0720 1332Z M 95MM=
0063712230999992022010315004+51933-110700FM-12+077299999V0200801N007719999999N999999999-02061-02431999999ADDAA103000091REMSYN04071223 26/// /0815 11206 21243 333 60007=
0093712230999992022010315004+51930-110720SAO  +077299999V020080190077199999999999999999-02061-02431999999ADDOD130100981080REMAWY067XCS SA 1500 AUTO8 M M M M/-21/-24/0815/M/ PK WND 0819 1455Z M 63MM=
0093712230999992022010316004+51930-110720SAO  +077299999V020090190087199999999999999999-02051-02411999999ADDOD130101081090REMAWY067XCS SA 1600 AUTO8 M M M M/-21/-24/0917/M/ PK WND 0921 1541Z M 51MM=
0127712230999992022010317004+51930-110720SAO  +077299999V020080190072199999999999999999-02071-02431999999ADDAA101000631OD130101081080REMAWY090XCS SA 1700 AUTO8 M M M M/-21/-24/0814/M/0006 PCPN 0.6MM PAST HR PK WND 0821 1616Z M 73MM=
0132712230999992022010318004+51933-110700FM-12+077299999V0200801N006719999999N999999999-02061-02421999999ADDAA106001031AA224999919AZ141021KA1120M-01881KA2120N-02111REMSYN06471223 17/// /0813 11206 21242 60011 7//4/ 333 11188 21211 7////=
0127712230999992022010318004+51930-110720SAO  +077299999V020080190067199999999999999999-02061-02421999999ADDAA101000631OD130100981080REMAWY090XCS SA 1800 AUTO8 M M M M/-21/-24/0813/M/0012 PCPN 0.6MM PAST HR PK WND 0819 1701Z M 62MM=
0093712230999992022010319004+51930-110720SAO  +077299999V020060190072199999999999999999-01951-02411999999ADDOD130101031080REMAWY067XCS SA 1900 AUTO8 M M M M/-20/-24/0614/M/ PK WND 0820 1832Z M 51MM=
0093712230999992022010320004+51930-110720SAO  +077299999V020060190082199999999999999999-02131-02511999999ADDOD130100981060REMAWY067XCS SA 2000 AUTO8 M M M M/-21/-25/0616/M/ PK WND 0619 1956Z M 31MM=
0063712230999992022010321004+51933-110700FM-12+077299999V0200601N008819999999N999999999-02141-02521999999ADDAA103000091REMSYN04071223 26/// /0617 11214 21252 333 60007=
0093712230999992022010321004+51930-110720SAO  +077299999V020060190087199999999999999999-02141-02521999999ADDOD130101081050REMAWY067XCS SA 2100 AUTO8 M M M M/-21/-25/0617/M/ PK WND 0521 2036Z M 42MM=
0093712230999992022010322004+51930-110720SAO  +077299999V020050190093199999999999999999-02161-02561999999ADDOD130101231060REMAWY067XCS SA 2200 AUTO8 M M M M/-22/-26/0518/M/ PK WND 0624 2124Z M 66MM=
0093712230999992022010323004+51930-110720SAO  +077299999V020040190082199999999999999999-02181-02601999999ADDOD130101081050REMAWY067XCS SA 2300 AUTO8 M M M M/-22/-26/0416/M/ PK WND 0521 2246Z M 80MM=
0118712230999992022010400004+51933-110700FM-12+077299999V0200401N007719999999N999999999-02211-02641999999ADDAA106000091AA224999919KA1120M-02041KA2120N-02211REMSYN05871223 16/// /0415 11221 21264 60001 333 11204 21221 7////=
0093712230999992022010400004+51930-110720SAO  +077299999V020040190077199999999999999999-02211-02641999999ADDOD130101131050REMAWY067XCS SA 0000 AUTO8 M M M M/-22/-26/0415/M/ PK WND 0522 2307Z M 14MM=
0093712230999992022010401004+51930-110720SAO  +077299999V020050190077199999999999999999-02181-02591999999ADDOD130101031050REMAWY067XCS SA 0100 AUTO8 M M M M/-22/-26/0515/M/ PK WND 0520 0040Z M 89MM=
0093712230999992022010402004+51930-110720SAO  +077299999V020040190046199999999999999999-02201-02631999999ADDOD130100981070REMAWY067XCS SA 0200 AUTO8 M M M M/-22/-26/0409/M/ PK WND 0719 0117Z M 03MM=
0063712230999992022010403004+51933-110700FM-12+077299999V0200201N004619999999N999999999-02211-02631999999ADDAA103000091REMSYN04071223 26/// /0209 11221 21263 333 60007=
0058712230999992022010403004+51930-110720SAO  +077299999V020020190046199999999999999999-02211-02631999999REMAWY049XCS SA 0300 AUTO8 M M M M/-22/-26/0209/M/ M 13MM=
0058712230999992022010404004+51930-110720SAO  +077299999V020020190057199999999999999999-02221-02551999999REMAWY049XCS SA 0400 AUTO8 M M M M/-22/-26/0211/M/ M 25MM=
0093712230999992022010405004+51930-110720SAO  +077299999V020010190072199999999999999999-02261-02691999999ADDOD130100871010REMAWY067XCS SA 0500 AUTO8 M M M M/-23/-27/0114/M/ PK WND 0117 0457Z M 69MM=
0134712230999992022010406004+51933-110700FM-12+077299999V0203401N005719999999N999999999-02311-02751999999ADDAA106000091AA224001831KA1240M-01881KA2240N-02311REMSYN07471223 16/// /3411 11231 21275 60001 333 11188 21231 70018 555 30624 40221=
0093712230999992022010406004+51930-110720SAO  +077299999V020340190057199999999999999999-02311-02751999999ADDOD130100871999REMAWY067XCS SA 0600 AUTO8 M M M M/-23/-28/3411/M/ PK WND MM17 0514Z M 15MM=
0059712230999992022010407004+51930-110720SAO  +077299999V020330190057199999999999999999-02251-02791999999REMAWY050XCS SA 0700 AUTO8 M M M M/-23/-28/3311/M/M M 59MM=
0059712230999992022010408004+51930-110720SAO  +077299999V020340190057199999999999999999-02421-02881999999REMAWY050XCS SA 0800 AUTO8 M M M M/-24/-29/3411/M/M M 28MM=
0063712230999992022010409004+51933-110700FM-12+077299999V0203301N005119999999N999999999-02441-02891999999ADDAA103999999REMSYN04071223 46/// /3310 11244 21289 333 6///7=
0059712230999992022010409004+51930-110720SAO  +077299999V020330190051199999999999999999-02441-02891999999REMAWY050XCS SA 0900 AUTO8 M M M M/-24/-29/3310/M/M M 49MM=
0092712230999992022010410004+51930-110720SAO  +077299999V020320190067199999999999999999-02471-02931999999ADDAA101000931REMAWY069XCS SA 1000 AUTO8 M M M M/-25/-29/3213/M/M PCPN 0.9MM PAST HR M 73MM=
0094712230999992022010411004+51930-110720SAO  +077299999V020340190072199999999999999999-02631-03011999999ADDOD130101031340REMAWY068XCS SA 1100 AUTO8 M M M M/-26/-30/3414/M/M PK WND 3420 1042Z M 31MM=
0118712230999992022010412004+51933-110700FM-12+077299999V0203301N006719999999N999999999-02511-02991999999ADDAA106999919AA224999919KA1240M-01881KA2240N-02631REMSYN05871223 46/// /3313 11251 21299 6///1 333 11188 21263 7////=
0094712230999992022010412004+51930-110720SAO  +077299999V020330190067199999999999999999-02511-02991999999ADDOD130100871330REMAWY068XCS SA 1200 AUTO8 M M M M/-25/-30/3313/M/M PK WND 3317 1133Z M 19MM=
0127712230999992022010413004+51930-110720SAO  +077299999V020330190062199999999999999999-02521-02991999999ADDAA101000531OD130100931330REMAWY090XCS SA 1300 AUTO8 M M M M/-25/-30/3312/M/0005 PCPN 0.5MM PAST HR PK WND 3318 1205Z M 29MM=
0127712230999992022010414004+51930-110720SAO  +077299999V020330190072199999999999999999-02461-02941999999ADDAA101000531OD130100931330REMAWY090XCS SA 1400 AUTO8 M M M M/-25/-29/3314/M/0010 PCPN 0.5MM PAST HR PK WND 3318 1353Z M 64MM=
0063712230999992022010415004+51933-110700FM-12+077299999V0203301N007219999999N999999999-02421-02901999999ADDAA103002031REMSYN04071223 26/// /3314 11242 21290 333 60027=
0127712230999992022010415004+51930-110720SAO  +077299999V020340190072199999999999999999-02421-02901999999ADDAA101000731OD130100981340REMAWY090XCS SA 1500 AUTO8 M M M M/-24/-29/3414/M/0017 PCPN 0.7MM PAST HR PK WND 3419 1449Z M 20MM=
0097712230999992022010416004+51930-110720SAO  +077299999V020330190067199999999999999999-02411-02881999999ADDOD130100871330REMAWY071XCS SA 1600 AUTO8 M M M M/-24/-29/3313/M/0017 PK WND 3317 1501Z M 18MM=
0097712230999992022010417004+51930-110720SAO  +077299999V020330190067199999999999999999-02411-02901999999ADDOD130100931350REMAWY071XCS SA 1700 AUTO8 M M M M/-24/-29/3313/M/0017 PK WND 3518 1642Z M 10MM=
0132712230999992022010418004+51933-110700FM-12+077299999V0203301N007219999999N999999999-02441-02931999999ADDAA106002031AA224999919AZ141021KA1120M-02311KA2120N-02631REMSYN06471223 17/// /3314 11244 21293 60021 7//4/ 333 11231 21263 7////=
0097712230999992022010418004+51930-110720SAO  +077299999V020330190072199999999999999999-02441-02931999999ADDOD130100981330REMAWY071XCS SA 1800 AUTO8 M M M M/-24/-29/3314/M/0017 PK WND 3319 1738Z M 43MM=
0093712230999992022010419004+51930-110720SAO  +077299999V020330190072199999999999999999-02431-02951999999ADDOD130101031330REMAWY067XCS SA 1900 AUTO8 M M M M/-24/-30/3314/M/ PK WND 3320 1858Z M 35MM=
0093712230999992022010420004+51930-110720SAO  +077299999V020340190087199999999999999999-02411-02921999999ADDOD130101081340REMAWY067XCS SA 2000 AUTO8 M M M M/-24/-29/3417/M/ PK WND 3421 1955Z M 12MM=
0063712230999992022010421004+51933-110700FM-12+077299999V0203401N008819999999N999999999-02451-02961999999ADDAA103000091REMSYN04071223 26/// /3417 11245 21296 333 60007=
0093712230999992022010421004+51930-110720SAO  +077299999V020340190087199999999999999999-02451-02961999999ADDOD130101131340REMAWY067XCS SA 2100 AUTO8 M M M M/-25/-30/3417/M/ PK WND 3422 2021Z M 56MM=
0093712230999992022010422004+51930-110720SAO  +077299999V020330190077199999999999999999-02521-03031999999ADDOD130101181340REMAWY067XCS SA 2200 AUTO8 M M M M/-25/-30/3315/M/ PK WND 3423 2113Z M 23MM=
0093712230999992022010423004+51930-110720SAO  +077299999V020340190072199999999999999999-02561-02951999999ADDOD130101031330REMAWY067XCS SA 2300 AUTO8 M M M M/-26/-30/3414/M/ PK WND 3320 2207Z M 65MM=
0118712230999992022010500004+51933-110700FM-12+077299999V0203101N008219999999N999999999-02881-03391999999ADDAA106999919AA224999919KA1120M-02401KA2120N-02881REMSYN05871223 46/// /3116 11288 21339 6///1 333 11240 21288 7////=
0094712230999992022010500004+51930-110720SAO  +077299999V020310190082199999999999999999-02881-03391999999ADDOD130101031330REMAWY068XCS SA 0000 AUTO8 M M M M/-29/-34/3116/M/M PK WND 3320 2309Z M 89MM=
0094712230999992022010501004+51930-110720SAO  +077299999V020320190072199999999999999999-03021-03541999999ADDOD130100931310REMAWY068XCS SA 0100 AUTO8 M M M M/-30/-35/3214/M/M PK WND 3118 0004Z M 24MM=
0059712230999992022010502004+51930-110720SAO  +077299999V020310190057199999999999999999-03111-03641999999REMAWY050XCS SA 0200 AUTO8 M M M M/-31/-36/3111/M/M M 14MM=
0063712230999992022010503004+51933-110700FM-12+077299999V0203001N007219999999N999999999-03191-03731999999ADDAA103999999REMSYN04071223 46/// /3014 11319 21373 333 6///7=
0059712230999992022010503004+51930-110720SAO  +077299999V020300190072199999999999999999-03191-03731999999REMAWY050XCS SA 0300 AUTO8 M M M M/-32/-37/3014/M/M M 93MM=
0094712230999992022010504004+51930-110720SAO  +077299999V020320190077199999999999999999-03221-03761999999ADDOD130100871310REMAWY068XCS SA 0400 AUTO8 M M M M/-32/-38/3215/M/M PK WND 3117 0350Z M 26MM=
0094712230999992022010505004+51930-110720SAO  +077299999V020310190062199999999999999999-03301-03751999999ADDOD130100981320REMAWY068XCS SA 0500 AUTO8 M M M M/-33/-38/3112/M/M PK WND 3219 0407Z M 05MM=
0134712230999992022010506004+51933-110700FM-12+077299999V0203101N004619999999N999999999-03361-03921999999ADDAA106999919AA224999919KA1240M-02311KA2240N-03361REMSYN07471223 46/// /3109 11336 21392 6///1 333 11231 21336 7//// 555 33423 40221=
0059712230999992022010506004+51930-110720SAO  +077299999V020310190046199999999999999999-03361-03921999999REMAWY050XCS SA 0600 AUTO8 M M M M/-34/-39/3109/M/M M 62MM=
0059712230999992022010507004+51930-110720SAO  +077299999V020270190026199999999999999999-03341-03901999999REMAWY050XCS SA 0700 AUTO8 M M M M/-33/-39/2705/M/M M 40MM=
0092712230999992022010508004+51930-110720SAO  +077299999V020290190041199999999999999999-03331-03881999999ADDAA101000631REMAWY069XCS SA 0800 AUTO8 M M M M/-33/-39/2908/M/M PCPN 0.6MM PAST HR M 38MM=
0063712230999992022010509004+51933-110700FM-12+077299999V0203101N007219999999N999999999-03451-04011999999ADDAA103999999REMSYN04071223 46/// /3114 11345 21401 333 6///7=
0059712230999992022010509004+51930-110720SAO  +077299999V020310190072199999999999999999-03351-04011999999REMAWY050XCS SA 0900 AUTO8 M M M M/-34/-40/3114/M/M M 51MM=
0059712230999992022010510004+51930-110720SAO  +077299999V020310190057199999999999999999-03511-04091999999REMAWY050XCS SA 1000 AUTO8 M M M M/-35/-41/3111/M/M M 19MM=
0059712230999992022010511004+51930-110720SAO  +077299999V020300190041199999999999999999-03511-04091999999REMAWY050XCS SA 1100 AUTO8 M M M M/-35/-41/3008/M/M M 19MM=
0118712230999992022010512004+51933-110700FM-12+077299999V0203001N004619999999N999999999-03511-04091999999ADDAA106999919AA224999919KA1240M-02311KA2240N-03591REMSYN05871223 46/// /3009 11351 21409 6///1 333 11231 21359 7////=
0059712230999992022010512004+51930-110720SAO  +077299999V020300190046199999999999999999-03511-04091999999REMAWY050XCS SA 1200 AUTO8 M M M M/-35/-41/3009/M/M M 19MM=
0095712230999992022010513004+51930-110720SAO  +077299999V020290190031199999999999999999-03481-04061999999ADDAA101000731REMAWY072XCS SA 1300 AUTO8 M M M M/-35/-41/2906/M/0007 PCPN 0.7MM PAST HR M 86MM=
0062712230999992022010514004+51930-110720SAO  +077299999V020300190046199999999999999999-03511-04081999999REMAWY053XCS SA 1400 AUTO8 M M M M/-35/-41/3009/M/0007 M 18MM=
0063712230999992022010515004+51933-110700FM-12+077299999V0203001N005119999999N999999999-03471-04041999999ADDAA103002031REMSYN04071223 26/// /3010 11347 21404 333 60027=
0095712230999992022010515004+51930-110720SAO  +077299999V020300190051199999999999999999-03461-04041999999ADDAA101000831REMAWY072XCS SA 1500 AUTO8 M M M M/-35/-40/3010/M/0015 PCPN 0.8MM PAST HR M 64MM=
0095712230999992022010516004+51930-110720SAO  +077299999V020250190031199999999999999999-03441-04021999999ADDAA101000531REMAWY072XCS SA 1600 AUTO8 M M M M/-34/-40/2506/M/0019 PCPN 0.5MM PAST HR M 42MM=
0095712230999992022010517004+51930-110720SAO  +077299999V020300190046199999999999999999-03471-03951999999ADDAA101003031REMAWY072XCS SA 1700 AUTO8 M M M M/-35/-40/3009/M/0049 PCPN 3.0MM PAST HR M 75MM=
0132712230999992022010518004+51933-110700FM-12+077299999V0203001N003619999999N999999999-03361-03921999999ADDAA106009031AA224999919AZ141021KA1120M-03311KA2120N-03591REMSYN06471223 17/// /3007 11336 21392 60091 7//4/ 333 11331 21359 7////=
0095712230999992022010518004+51930-110720SAO  +077299999V020300190036199999999999999999-03351-03921999999ADDAA101004231REMAWY072XCS SA 1800 AUTO8 M M M M/-34/-39/3007/M/0091 PCPN 4.2MM PAST HR M 52MM=
0059712230999992022010519004+51930-110720SAO  +077299999V020300190046199999999999999999-03261-03811999999REMAWY050XCS SA 1900 AUTO8 M M M M/-33/-38/3009/M/M M 61MM=
0059712230999992022010520004+51930-110720SAO  +077299999V020310190072199999999999999999-03191-03731999999REMAWY050XCS SA 2000 AUTO8 M M M M/-32/-37/3114/M/M M 93MM=
0063712230999992022010521004+51933-110700FM-12+077299999V0203001N006219999999N999999999-03141-03681999999ADDAA103999999REMSYN04071223 46/// /3012 11314 21368 333 6///7=
0094712230999992022010521004+51930-110720SAO  +077299999V020300190062199999999999999999-03141-03681999999ADDOD130100871310REMAWY068XCS SA 2100 AUTO8 M M M M/-31/-37/3012/M/M PK WND 3117 2021Z M 48MM=
0059712230999992022010522004+51930-110720SAO  +077299999V020300190057199999999999999999-03101-03641999999REMAWY050XCS SA 2200 AUTO8 M M M M/-31/-36/3011/M/M M 04MM=
0059712230999992022010523004+51930-110720SAO  +077299999V020290190036199999999999999999-03171-03711999999REMAWY050XCS SA 2300 AUTO8 M M M M/-32/-37/2907/M/M M 71MM=
0118712230999992022010600004+51933-110700FM-12+077299999V0202901N004619999999N999999999-03311-03861999999ADDAA106999919AA224999919KA1120M-03101KA2120N-03591REMSYN05871223 46/// /2909 11331 21386 6///1 333 11310 21359 7////=
0059712230999992022010600004+51930-110720SAO  +077299999V020290190046199999999999999999-03301-03861999999REMAWY050XCS SA 0000 AUTO8 M M M M/-33/-39/2909/M/M M 06MM=
0059712230999992022010601004+51930-110720SAO  +077299999V020290190031199999999999999999-03421-03991999999REMAWY050XCS SA 0100 AUTO8 M M M M/-34/-40/2906/M/M M 29MM=
0092712230999992022010602004+51930-110720SAO  +077299999V020290190031199999999999999999-03291-03841999999ADDAA101000631REMAWY069XCS SA 0200 AUTO8 M M M M/-33/-38/2906/M/M PCPN 0.6MM PAST HR M 94MM=
0063712230999992022010603004+51933-110700FM-12+077299999V0203001N004619999999N999999999-03181-03721999999ADDAA103999999REMSYN04071223 46/// /3009 11318 21372 333 6///7=
0092712230999992022010603004+51930-110720SAO  +077299999V020310190046199999999999999999-03181-03721999999ADDAA101002631REMAWY069XCS SA 0300 AUTO8 M M M M/-32/-37/3109/M/M PCPN 2.6MM PAST HR M 82MM=
0092712230999992022010604004+51930-110720SAO  +077299999V020310190031199999999999999999-03091-03621999999ADDAA101002631REMAWY069XCS SA 0400 AUTO8 M M M M/-31/-36/3106/M/M PCPN 2.6MM PAST HR M 92MM=
0059712230999992022010605004+51930-110720SAO  +077299999V020250190031199999999999999999-03101-03631999999REMAWY050XCS SA 0500 AUTO8 M M M M/-31/-36/2506/M/M M 03MM=
0134712230999992022010606004+51933-110700FM-12+077299999V0202601N002119999999N999999999-03031-03551999999ADDAA106999919AA224999919KA1240M-03031KA2240N-03591REMSYN07471223 46/// /2604 11303 21355 6///1 333 11303 21359 7//// 555 33117 40210=
0059712230999992022010606004+51930-110720SAO  +077299999V020260190021199999999999999999-03031-03551999999REMAWY050XCS SA 0600 AUTO8 M M M M/-30/-36/2604/M/M M 35MM=
0058712230999992022010607004+51930-110720SAO  +077299999V020290190036199999999999999999-02991-03511999999REMAWY049XCS SA 0700 AUTO8 M M M M/-30/-35/2907/M/ M 91MM=
0058712230999992022010608004+51930-110720SAO  +077299999V020280190015199999999999999999-02961-03491999999REMAWY049XCS SA 0800 AUTO8 M M M M/-30/-35/2803/M/ M 69MM=
0063712230999992022010609004+51933-110700FM-12+077299999V0202601N001019999999N999999999-02941-03471999999ADDAA103000091REMSYN04071223 26/// /2602 11294 21347 333 60007=
0058712230999992022010609004+51930-110720SAO  +077299999V020260190010199999999999999999-02941-03471999999REMAWY049XCS SA 0900 AUTO8 M M M M/-29/-35/2602/M/ M 47MM=
0058712230999992022010610004+51930-110720SAO  +077299999V020340190005199999999999999999-02921-03351999999REMAWY049XCS SA 1000 AUTO8 M M M M/-29/-34/3401/M/ M 25MM=
0059712230999992022010611004+51930-110720SAO  +077299999V020130190015199999999999999999-02951-03461999999REMAWY050XCS SA 1100 AUTO8 M M M M/-30/-35/1303/M/M M 56MM=
0124712230999992022010612004+51933-110700FM-12+077299999V0201701N001019999999N999999999-02941-03451999999ADDAA106999919AA224999919KA1240N-03451REMSYN05871223 46/// /1702 11294 21345 6///1 333 11303 21345 7////=EQDQ01-30.3 2EATMX 
0059712230999992022010612004+51930-110720SAO  +077299999V020170190010199999999999999999-02941-03351999999REMAWY050XCS SA 1200 AUTO8 M M M M/-29/-34/1702/M/M M 45MM=
0058712230999992022010613004+51930-110720SAO  +077299999V020140190015199999999999999999-02941-03351999999REMAWY049XCS SA 1300 AUTO8 M M M M/-29/-34/1403/M/ M 45MM=
0127712230999992022010808004+51930-110720SAO  +077299999V020310190118199999999999999999-02591-03081999999ADDAA101000831OD130101491320REMAWY090XCS SA 0800 AUTO8 M M M M/-26/-31/3123/M/0015 PCPN 0.8MM PAST HR PK WND 3229 0745Z M 98MM=
0077712230999992022010809004+51933-110700FM-12+077299999V0203101N009819999999N999999999-02591-03081999999ADDAA103002031AZ141021REMSYN04671223 27/// /3119 11259 21308 7//4/ 333 60027=
0097712230999992022010809004+51930-110720SAO  +077299999V020310190098199999999999999999-02591-03081999999ADDOD130101391320REMAWY071XCS SA 0900 AUTO8 M M M M/-26/-31/3119/M/0015 PK WND 3227 0807Z M 98MM=
0097712230999992022010810004+51930-110720SAO  +077299999V020310190098199999999999999999-02571-03061999999ADDOD130101281310REMAWY071XCS SA 1000 AUTO8 M M M M/-26/-31/3119/M/0015 PK WND 3125 0943Z M 76MM=
0097712230999992022010811004+51930-110720SAO  +077299999V020310190113199999999999999999-02571-03061999999ADDOD130101341310REMAWY071XCS SA 1100 AUTO8 M M M M/-26/-31/3122/M/0015 PK WND 3126 1018Z M 76MM=
0118712230999992022010812004+51933-110700FM-12+077299999V0203101N009819999999N999999999-02671-03171999999ADDAA106999919AA224999919KA1240M-02381KA2240N-02761REMSYN05871223 46/// /3119 11267 21317 6///1 333 11238 21276 7////=
0094712230999992022010812004+51930-110720SAO  +077299999V020310190098199999999999999999-02671-03171999999ADDOD130101281310REMAWY068XCS SA 1200 AUTO8 M M M M/-27/-32/3119/M/M PK WND 3125 1116Z M 77MM=
0094712230999992022010813004+51930-110720SAO  +077299999V020310190098199999999999999999-02741-03261999999ADDOD130101341320REMAWY068XCS SA 1300 AUTO8 M M M M/-27/-33/3119/M/M PK WND 3226 1219Z M 46MM=
0094712230999992022010814004+51930-110720SAO  +077299999V020300190082199999999999999999-02831-03361999999ADDOD130101131310REMAWY068XCS SA 1400 AUTO8 M M M M/-28/-34/3016/M/M PK WND 3122 1315Z M 36MM=
0063712230999992022010815004+51933-110700FM-12+077299999V0202801N006719999999N999999999-02891-03411999999ADDAA103999999REMSYN04071223 46/// /2813 11289 21341 333 6///7=
0094712230999992022010815004+51930-110720SAO  +077299999V020280190067199999999999999999-02891-03411999999ADDOD130101031300REMAWY068XCS SA 1500 AUTO8 M M M M/-29/-34/2813/M/M PK WND 3020 1420Z M 91MM=
0094712230999992022010816004+51930-110720SAO  +077299999V020300190072199999999999999999-02871-03401999999ADDOD130100871310REMAWY068XCS SA 1600 AUTO8 M M M M/-29/-34/3014/M/M PK WND 3117 1544Z M 70MM=
0124712230999992022010817004+51930-110720SAO  +077299999V020300190093199999999999999999-02781-03311999999ADDAA101002631OD130101081300REMAWY087XCS SA 1700 AUTO8 M M M M/-28/-33/3018/M/M PCPN 2.6MM PAST HR PK WND 3021 1652Z M 81MM=
0118712230999992022010818004+51933-110700FM-12+077299999V0202901N006719999999N999999999-02711-03251999999ADDAA106999919AA224999919KA1120M-02541KA2120N-02891REMSYN05871223 46/// /2913 11271 21325 6///1 333 11254 21289 7////=
0124712230999992022010818004+51930-110720SAO  +077299999V020290190067199999999999999999-02711-03151999999ADDAA101001231OD130101031300REMAWY087XCS SA 1800 AUTO8 M M M M/-27/-32/2913/M/M PCPN 1.2MM PAST HR PK WND 3020 1721Z M 15MM=
0093712230999992022010819004+51930-110720SAO  +077299999V020280190072199999999999999999-02551-03191999999ADDOD130100871280REMAWY067XCS SA 1900 AUTO8 M M M M/-26/-32/2814/M/ PK WND 2817 1854Z M 59MM=
0093712230999992022010820004+51930-110720SAO  +077299999V020290190072199999999999999999-02601-03161999999ADDOD130100931270REMAWY067XCS SA 2000 AUTO8 M M M M/-26/-32/2914/M/ PK WND 2718 1906Z M 06MM=
0063712230999992022010821004+51933-110700FM-12+077299999V0202801N005719999999N999999999-02551-03131999999ADDAA103000091REMSYN04071223 26/// /2811 11255 21313 333 60007=
0058712230999992022010821004+51930-110720SAO  +077299999V020280190057199999999999999999-02551-03131999999REMAWY049XCS SA 2100 AUTO8 M M M M/-26/-31/2811/M/ M 53MM=
0058712230999992022010822004+51930-110720SAO  +077299999V020290190062199999999999999999-02601-03171999999REMAWY049XCS SA 2200 AUTO8 M M M M/-26/-32/2912/M/ M 07MM=
0059712230999992022010823004+51930-110720SAO  +077299999V020280190057199999999999999999-02561-03131999999REMAWY050XCS SA 2300 AUTO8 M M M M/-26/-31/2811/M/M M 63MM=
0118712230999992022010900004+51933-110700FM-12+077299999V0202901N004619999999N999999999-02601-03171999999ADDAA106999919AA224999919KA1120M-02511KA2120N-02891REMSYN05871223 46/// /2909 11260 21317 6///1 333 11251 21289 7////=
0059712230999992022010900004+51930-110720SAO  +077299999V020290190046199999999999999999-02601-03171999999REMAWY050XCS SA 0000 AUTO8 M M M M/-26/-32/2909/M/M M 07MM=
0059712230999992022010901004+51930-110720SAO  +077299999V020250190051199999999999999999-02581-03141999999REMAWY050XCS SA 0100 AUTO8 M M M M/-26/-31/2510/M/M M 84MM=
0059712230999992022010902004+51930-110720SAO  +077299999V020250190051199999999999999999-02661-03221999999REMAWY050XCS SA 0200 AUTO8 M M M M/-27/-32/2510/M/M M 62MM=
0063712230999992022010903004+51933-110700FM-12+077299999V0202401N003119999999N999999999-02791-03301999999ADDAA103999999REMSYN04071223 46/// /2406 11279 21330 333 6///7=
0059712230999992022010903004+51930-110720SAO  +077299999V020240190031199999999999999999-02791-03301999999REMAWY050XCS SA 0300 AUTO8 M M M M/-28/-33/2406/M/M M 90MM=
0059712230999992022010904004+51930-110720SAO  +077299999V020270190021199999999999999999-02631-03151999999REMAWY050XCS SA 0400 AUTO8 M M M M/-26/-32/2704/M/M M 35MM=
0092712230999992022010905004+51930-110720SAO  +077299999V020100190015199999999999999999-02711-03311999999ADDAA101001531REMAWY069XCS SA 0500 AUTO8 M M M M/-27/-33/1003/M/M PCPN 1.5MM PAST HR M 11MM=
0134712230999992022010906004+51933-110700FM-12+077299999V0200701N003119999999N999999999-02721-03241999999ADDAA106999919AA224999919KA1240M-02511KA2240N-02891REMSYN07471223 46/// /0706 11272 21324 6///1 333 11251 21289 7//// 555 33229 40081=
0059712230999992022010906004+51930-110720SAO  +077299999V020070190031199999999999999999-02721-03241999999REMAWY050XCS SA 0600 AUTO8 M M M M/-27/-32/0706/M/M M 24MM=
0059712230999992022010907004+51930-110720SAO  +077299999V020090190021199999999999999999-02831-03321999999REMAWY050XCS SA 0700 AUTO8 M M M M/-28/-33/0904/M/M M 32MM=
0092712230999992022010908004+51930-110720SAO  +077299999V020080190015199999999999999999-02701-03201999999ADDAA101000731REMAWY069XCS SA 0800 AUTO8 M M M M/-27/-32/0803/M/M PCPN 0.7MM PAST HR M 00MM=
0063712230999992022010909004+51933-110700FM-12+077299999V0201201N001019999999N999999999-02741-03231999999ADDAA103999999REMSYN04071223 46/// /1202 11274 21323 333 6///7=
0092712230999992022010909004+51930-110720SAO  +077299999V020120190010199999999999999999-02741-03231999999ADDAA101000731REMAWY069XCS SA 0900 AUTO8 M M M M/-27/-32/1202/M/M PCPN 0.7MM PAST HR M 43MM=
0092712230999992022010910004+51930-110720SAO  +077299999V020060190015199999999999999999-02691-03201999999ADDAA101000631REMAWY069XCS SA 1000 AUTO8 M M M M/-27/-32/0603/M/M PCPN 0.6MM PAST HR M 90MM=
0092712230999992022010911004+51930-110720SAO  +077299999V020060190015199999999999999999-02691-03201999999ADDAA101001131REMAWY069XCS SA 1100 AUTO8 M M M M/-27/-32/0603/M/M PCPN 1.1MM PAST HR M 90MM=
0118712230999992022010912004+51933-110700FM-12+077299999V0200801N002119999999N999999999-02701-03201999999ADDAA106999919AA224999919KA1240M-02511KA2240N-02841REMSYN05871223 46/// /0804 11270 21320 6///1 333 11251 21284 7////=
0092712230999992022010912004+51930-110720SAO  +077299999V020080190021199999999999999999-02691-03201999999ADDAA101000631REMAWY069XCS SA 1200 AUTO8 M M M M/-27/-32/0804/M/M PCPN 0.6MM PAST HR M 90MM=
0058712230999992022010913004+51930-110720SAO  +077299999V020090190021199999999999999999-02731-03231999999REMAWY049XCS SA 1300 AUTO8 M M M M/-27/-32/0904/M/ M 33MM=
0059712230999992022010914004+51930-110720SAO  +077299999V020120190021199999999999999999-02661-03151999999REMAWY050XCS SA 1400 AUTO8 M M M M/-27/-32/1204/M/M M 65MM=
0063712230999992022010915004+51933-110700FM-12+077299999V0201201N002619999999N999999999-02691-03171999999ADDAA103999999REMSYN04071223 46/// /1205 11269 21317 333 6///7=
0059712230999992022010915004+51930-110720SAO  +077299999V020120190026199999999999999999-02691-03171999999REMAWY050XCS SA 1500 AUTO8 M M M M/-27/-32/1205/M/M M 97MM=
0092712230999992022010916004+51930-110720SAO  +077299999V020130190031199999999999999999-02641-03121999999ADDAA101000631REMAWY069XCS SA 1600 AUTO8 M M M M/-26/-31/1306/M/M PCPN 0.6MM PAST HR M 42MM=
0092712230999992022010917004+51930-110720SAO  +077299999V020100190036199999999999999999-02611-03091999999ADDAA101000631REMAWY069XCS SA 1700 AUTO8 M M M M/-26/-31/1007/M/M PCPN 0.6MM PAST HR M 19MM=
0118712230999992022010918004+51933-110700FM-12+077299999V0201201N002619999999N999999999-02531-03041999999ADDAA106999919AA224999919KA1120M-02531KA2120N-02841REMSYN05871223 46/// /1205 11253 21304 6///1 333 11253 21284 7////=
0059712230999992022010918004+51930-110720SAO  +077299999V020120190026199999999999999999-02531-03041999999REMAWY050XCS SA 1800 AUTO8 M M M M/-25/-30/1205/M/M M 34MM=
0058712230999992022010919004+51930-110720SAO  +077299999V020110190026199999999999999999-02401-02921999999REMAWY049XCS SA 1900 AUTO8 M M M M/-24/-29/1105/M/ M 02MM=
0058712230999992022010920004+51930-110720SAO  +077299999V020100190036199999999999999999-02371-02881999999REMAWY049XCS SA 2000 AUTO8 M M M M/-24/-29/1007/M/ M 78MM=
0063712230999992022010921004+51933-110700FM-12+077299999V0201001N003619999999N999999999-02211-02761999999ADDAA103000091REMSYN04071223 26/// /1007 11221 21276 333 60007=
0058712230999992022010921004+51930-110720SAO  +077299999V020100190036199999999999999999-02211-02761999999REMAWY049XCS SA 2100 AUTO8 M M M M/-22/-28/1007/M/ M 16MM=
0059712230999992022010922004+51930-110720SAO  +077299999V020110190031199999999999999999-02231-02781999999REMAWY050XCS SA 2200 AUTO8 M M M M/-22/-28/1106/M/M M 38MM=
0059712230999992022010923004+51930-110720SAO  +077299999V020120190026199999999999999999-02201-02741999999REMAWY050XCS SA 2300 AUTO8 M M M M/-22/-27/1205/M/M M 04MM=
0118712230999992022011000004+51933-110700FM-12+077299999V0201401N003119999999N999999999-02161-02671999999ADDAA106999919AA224999919KA1120M-02161KA2120N-02841REMSYN05871223 46/// /1406 11216 21267 6///1 333 11216 21284 7////=
0059712230999992022011000004+51930-110720SAO  +077299999V020140190031199999999999999999-02161-02671999999REMAWY050XCS SA 0000 AUTO8 M M M M/-22/-27/1406/M/M M 67MM=
0058712230999992022011001004+51930-110720SAO  +077299999V020140190051199999999999999999-02091-02661999999REMAWY049XCS SA 0100 AUTO8 M M M M/-21/-27/1410/M/ M 96MM=
0058712230999992022011002004+51930-110720SAO  +077299999V020130190051199999999999999999-02071-02581999999REMAWY049XCS SA 0200 AUTO8 M M M M/-21/-26/1310/M/ M 78MM=
0063712230999992022011003004+51933-110700FM-12+077299999V0201701N005119999999N999999999-01971-02491999999ADDAA103000091REMSYN04071223 26/// /1710 11197 21249 333 60007=
0058712230999992022011003004+51930-110720SAO  +077299999V020170190051199999999999999999-01971-02491999999REMAWY049XCS SA 0300 AUTO8 M M M M/-20/-25/1710/M/ M 79MM=
0058712230999992022011004004+51930-110720SAO  +077299999V020170190041199999999999999999-02061-02561999999REMAWY049XCS SA 0400 AUTO8 M M M M/-21/-26/1708/M/ M 66MM=
0058712230999992022011005004+51930-110720SAO  +077299999V020160190031199999999999999999-02191-02671999999REMAWY049XCS SA 0500 AUTO8 M M M M/-22/-27/1606/M/ M 97MM=
0118712230999992022011006004+51933-110700FM-12+077299999V0201401N003119999999N999999999-02221-02691999999ADDAA106999919AA224999919KA1240M-01971KA2240N-02841REMSYN05871223 46/// /1406 11222 21269 6///1 333 11197 21284 7////=
0059712230999992022011006004+51930-110720SAO  +077299999V020140190031199999999999999999-02221-02691999999REMAWY050XCS SA 0600 AUTO8 M M M M/-22/-27/1406/M/M M 29MM=
0095712230999992022011007004+51930-110720SAO  +077299999V020170190031199999999999999999-02231-02681999999ADDAA101001031REMAWY072XCS SA 0700 AUTO8 M M M M/-22/-27/1706/M/0010 PCPN 1.0MM PAST HR M 38MM=
0062712230999992022011008004+51930-110720SAO  +077299999V020170190031199999999999999999-02161-02611999999REMAWY053XCS SA 0800 AUTO8 M M M M/-22/-26/1706/M/0010 M 61MM=
0063712230999992022011009004+51933-110700FM-12+077299999V0201401N003119999999N999999999-02261-02681999999ADDAA103001031REMSYN04071223 26/// /1406 11226 21268 333 60017=
0062712230999992022011009004+51930-110720SAO  +077299999V020140190031199999999999999999-02261-02681999999REMAWY053XCS SA 0900 AUTO8 M M M M/-23/-27/1406/M/0010 M 68MM=
0062712230999992022011010004+51930-110720SAO  +077299999V020180190036199999999999999999-02161-02621999999REMAWY053XCS SA 1000 AUTO8 M M M M/-22/-26/1807/M/0010 M 62MM=
0062712230999992022011011004+51930-110720SAO  +077299999V020090190026199999999999999999-02281-02711999999REMAWY053XCS SA 1100 AUTO8 M M M M/-23/-27/0905/M/0010 M 81MM=
0118712230999992022011012004+51933-110700FM-12+077299999V0201101N002619999999N999999999-02241-02651999999ADDAA106999919AA224999919KA1240M-01971KA2240N-02291REMSYN05871223 46/// /1105 11224 21265 6///1 333 11197 21229 7////=
0059712230999992022011012004+51930-110720SAO  +077299999V020110190026199999999999999999-02241-02551999999REMAWY050XCS SA 1200 AUTO8 M M M M/-22/-26/1105/M/M M 45MM=
0058712230999992022011013004+51930-110720SAO  +077299999V020090190021199999999999999999-02241-02641999999REMAWY049XCS SA 1300 AUTO8 M M M M/-22/-26/0904/M/ M 44MM=
0095712230999992022011014004+51930-110720SAO  +077299999V020120190015199999999999999999-02161-02571999999ADDAA101001431REMAWY072XCS SA 1400 AUTO8 M M M M/-22/-26/1203/M/0014 PCPN 1.4MM PAST HR M 67MM=
0077712230999992022011015004+51933-110700FM-12+077299999V0201701N001519999999N999999999-01981-02431999999ADDAA103001031AZ141021REMSYN04671223 27/// /1703 11198 21243 7//4/ 333 60017=
0062712230999992022011015004+51930-110720SAO  +077299999V020170190015199999999999999999-01981-02431999999REMAWY053XCS SA 1500 AUTO8 M M M M/-20/-24/1703/M/0014 M 83MM=
0062712230999992022011016004+51930-110720SAO  +077299999V020090190026199999999999999999-02071-02471999999REMAWY053XCS SA 1600 AUTO8 M M M M/-21/-25/0905/M/0014 M 77MM=
0062712230999992022011017004+51930-110720SAO  +077299999V020150190010199999999999999999-01921-02361999999REMAWY053XCS SA 1700 AUTO8 M M M M/-19/-24/1502/M/0014 M 26MM=
0132712230999992022011018004+51933-110700FM-12+077299999V0201601N001019999999N999999999-01721-02231999999ADDAA106001031AA224999919AZ141021KA1120M-01671KA2120N-02531REMSYN06471223 17/// /1602 11172 21223 60011 7//4/ 333 11167 21253 7////=
0062712230999992022011018004+51930-110720SAO  +077299999V020160190010199999999999999999-01721-02231999999REMAWY053XCS SA 1800 AUTO8 M M M M/-17/-22/1602/M/0014 M 23MM=
0059712230999992022011019004+51930-110720SAO  +077299999V020220190031199999999999999999-01391-01831999999REMAWY050XCS SA 1900 AUTO8 M M M M/-14/-18/2206/M/M M 93MM=
0059712230999992022011020004+51930-110720SAO  +077299999V020240190026199999999999999999-01181-01601999999REMAWY050XCS SA 2000 AUTO8 M M M M/-12/-16/2405/M/M M 80MM=
0063712230999992022011021004+51933-110700FM-12+077299999V0202301N005119999999N999999999-00921-01341999999ADDAA103999999REMSYN04071223 46/// /2310 11092 21134 333 6///7=
0094712230999992022011021004+51930-110720SAO  +077299999V020230190051199999999999999999-00921-01341999999ADDOD130100931230REMAWY068XCS SA 2100 AUTO8 M M M M/-09/-13/2310/M/M PK WND 2318 2036Z M 24MM=
0094712230999992022011022004+51930-110720SAO  +077299999V020220190077199999999999999999-00911-01321999999ADDOD130101031220REMAWY068XCS SA 2200 AUTO8 M M M M/-09/-13/2215/M/M PK WND 2220 2147Z M 12MM=
0094712230999992022011023004+51930-110720SAO  +077299999V020230190077199999999999999999-00761-01171999999ADDOD130101081230REMAWY068XCS SA 2300 AUTO8 M M M M/-08/-12/2315/M/M PK WND 2321 2213Z M 67MM=
0118712230999992022011100004+51933-110700FM-12+077299999V0202301N009319999999N999999999-00711-01111999999ADDAA106999919AA224999919KA1120M-00681KA2120N-02291REMSYN05871223 46/// /2318 11071 21111 6///1 333 11068 21229 7////=
0094712230999992022011100004+51930-110720SAO  +077299999V020230190093199999999999999999-00711-01111999999ADDOD130101081230REMAWY068XCS SA 0000 AUTO8 M M M M/-07/-11/2318/M/M PK WND 2321 2338Z M 11MM=
0093712230999992022011101004+51930-110720SAO  +077299999V020220190036199999999999999999-00671-01081999999ADDOD130100931230REMAWY067XCS SA 0100 AUTO8 M M M M/-07/-11/2207/M/ PK WND 2318 0000Z M 78MM=
0093712230999992022011102004+51930-110720SAO  +077299999V020260190062199999999999999999-00211-00781999999ADDOD130100871260REMAWY067XCS SA 0200 AUTO8 M M M M/-02/-08/2612/M/ PK WND 2617 0158Z M 18MM=
0063712230999992022011103004+51933-110700FM-12+077299999V0202801N007219999999N999999999-00221-00751999999ADDAA103000091REMSYN04071223 26/// /2814 11022 21075 333 60007=
0093712230999992022011103004+51930-110720SAO  +077299999V020280190072199999999999999999-00221-00751999999ADDOD130101031270REMAWY067XCS SA 0300 AUTO8 M M M M/-02/-08/2814/M/ PK WND 2720 0213Z M 25MM=
0093712230999992022011104004+51930-110720SAO  +077299999V020290190093199999999999999999-00121-00671999999ADDOD130101131280REMAWY067XCS SA 0400 AUTO8 M M M M/-01/-07/2918/M/ PK WND 2822 0308Z M 27MM=
0092712230999992022011105004+51930-110720SAO  +077299999V020280190077199999999999999999+00101-00641999999ADDOD130100981290REMAWY066XCS SA 0500 AUTO8 M M M M/01/-06/2815/M/ PK WND 2919 0415Z M 04MM=
0134712230999992022011106004+51933-110700FM-12+077299999V0203101N007219999999N999999999+00261-00391999999ADDAA106000091AA224999919KA1240M+00301KA2240N-02291REMSYN07471223 16/// /3114 10026 21039 60001 333 10030 21229 7//// 555 32822 40041=
0092712230999992022011106004+51930-110720SAO  +077299999V020310190072199999999999999999+00261-00391999999ADDOD130101131290REMAWY066XCS SA 0600 AUTO8 M M M M/03/-04/3114/M/ PK WND 2922 0504Z M 69MM=
0092712230999992022011107004+51930-110720SAO  +077299999V020270190087199999999999999999+00021-00511999999ADDOD130100981270REMAWY066XCS SA 0700 AUTO8 M M M M/00/-05/2717/M/ PK WND 2719 0638Z M 21MM=
0092712230999992022011108004+51930-110720SAO  +077299999V020270190072199999999999999999+00071-00501999999ADDOD130100931270REMAWY066XCS SA 0800 AUTO8 M M M M/01/-05/2714/M/ PK WND 2718 0701Z M 70MM=
0063712230999992022011109004+51933-110700FM-12+077299999V0202501N008819999999N999999999-00121-00651999999ADDAA103000091REMSYN04071223 26/// /2517 11012 21065 333 60007=
0093712230999992022011109004+51930-110720SAO  +077299999V020250190087199999999999999999-00121-00551999999ADDOD130101031250REMAWY067XCS SA 0900 AUTO8 M M M M/-01/-06/2517/M/ PK WND 2520 0859Z M 25MM=
0093712230999992022011110004+51930-110720SAO  +077299999V020240190103199999999999999999-00051-00711999999ADDOD130101131250REMAWY067XCS SA 1000 AUTO8 M M M M/-01/-07/2420/M/ PK WND 2522 0935Z M 51MM=
0093712230999992022011111004+51930-110720SAO  +077299999V020260190098199999999999999999-00181-00771999999ADDOD130101181250REMAWY067XCS SA 1100 AUTO8 M M M M/-02/-08/2619/M/ PK WND 2523 1006Z M 87MM=
0118712230999992022011112004+51933-110700FM-12+077299999V0202601N008819999999N999999999-00261-00861999999ADDAA106000091AA224999919KA1240M+00301KA2240N-00731REMSYN05871223 16/// /2617 11026 21086 60001 333 10030 21073 7////=
0093712230999992022011112004+51930-110720SAO  +077299999V020260190087199999999999999999-00261-00861999999ADDOD130101131260REMAWY067XCS SA 1200 AUTO8 M M M M/-03/-09/2617/M/ PK WND 2622 1135Z M 66MM=
0094712230999992022011113004+51930-110720SAO  +077299999V020240190062199999999999999999-00421-00941999999ADDOD130101031250REMAWY068XCS SA 1300 AUTO8 M M M M/-04/-09/2412/M/M PK WND 2520 1201Z M 24MM=
0094712230999992022011114004+51930-110720SAO  +077299999V020250190093199999999999999999-00201-00911999999ADDOD130101031250REMAWY068XCS SA 1400 AUTO8 M M M M/-02/-09/2518/M/M PK WND 2520 1358Z M 01MM=
0063712230999992022011115004+51933-110700FM-12+077299999V0202201N007719999999N999999999-00631-01011999999ADDAA103999999REMSYN04071223 46/// /2215 11063 21101 333 6///7=
0094712230999992022011115004+51930-110720SAO  +077299999V020220190077199999999999999999-00631-01011999999ADDOD130101031250REMAWY068XCS SA 1500 AUTO8 M M M M/-06/-10/2215/M/M PK WND 2520 1402Z M 31MM=
0094712230999992022011116004+51930-110720SAO  +077299999V020220190077199999999999999999-00381-00831999999ADDOD130100981230REMAWY068XCS SA 1600 AUTO8 M M M M/-04/-08/2215/M/M PK WND 2319 1503Z M 83MM=
0059712230999992022011117004+51930-110720SAO  +077299999V020220190072199999999999999999-00411-00801999999REMAWY050XCS SA 1700 AUTO8 M M M M/-04/-08/2214/M/M M 10MM=
0118712230999992022011118004+51933-110700FM-12+077299999V0202201N007719999999N999999999-00071-00501999999ADDAA106999919AA224999919KA1120M+00261KA2120N-01721REMSYN05871223 46/// /2215 11007 21050 6///1 333 10026 21172 7////=
0094712230999992022011118004+51930-110720SAO  +077299999V020220190077199999999999999999-00071-00501999999ADDOD130101031230REMAWY068XCS SA 1800 AUTO8 M M M M/-01/-05/2215/M/M PK WND 2320 1724Z M 70MM=
0092712230999992022011119004+51930-110720SAO  +077299999V020240190077199999999999999999+00081-00361999999ADDOD130100981220REMAWY066XCS SA 1900 AUTO8 M M M M/01/-04/2415/M/ PK WND 2219 1833Z M 86MM=
0092712230999992022011120004+51930-110720SAO  +077299999V020260190082199999999999999999+00201-00341999999ADDOD130101031250REMAWY066XCS SA 2000 AUTO8 M M M M/02/-03/2616/M/ PK WND 2520 1940Z M 04MM=
0063712230999992022011121004+51933-110700FM-12+077299999V0202501N006219999999N999999999+00191-00331999999ADDAA103000091REMSYN04071223 26/// /2512 10019 21033 333 60007=
0057712230999992022011121004+51930-110720SAO  +077299999V020250190062199999999999999999+00191-00331999999REMAWY048XCS SA 2100 AUTO8 M M M M/02/-03/2512/M/ M 93MM=
0092712230999992022011122004+51930-110720SAO  +077299999V020270190093199999999999999999+00151-00331999999ADDOD130101081270REMAWY066XCS SA 2200 AUTO8 M M M M/02/-03/2718/M/ PK WND 2721 2155Z M 53MM=
0092712230999992022011123004+51930-110720SAO  +077299999V020280190087199999999999999999+00171-00361999999ADDOD130101081270REMAWY066XCS SA 2300 AUTO8 M M M M/02/-04/2817/M/ PK WND 2721 2212Z M 76MM=
0118712230999992022011200004+51933-110700FM-12+077299999V0203001N007219999999N999999999-00071-00501999999ADDAA106000091AA224999919KA1120M+00281KA2120N-00671REMSYN05871223 16/// /3014 11007 21050 60001 333 10028 21067 7////=
0093712230999992022011200004+51930-110720SAO  +077299999V020300190072199999999999999999-00071-00501999999ADDOD130101031270REMAWY067XCS SA 0000 AUTO8 M M M M/-01/-05/3014/M/ PK WND 2720 2324Z M 70MM=
0058712230999992022011201004+51930-110720SAO  +077299999V020290190072199999999999999999-00041-00521999999REMAWY049XCS SA 0100 AUTO8 M M M M/00/-05/2914/M/ M -42MM=
0058712230999992022011202004+51930-110720SAO  +077299999V020280190072199999999999999999-00021-00561999999REMAWY049XCS SA 0200 AUTO8 M M M M/00/-06/2814/M/ M -26MM=
0063712230999992022011203004+51933-110700FM-12+077299999V0202801N006219999999N999999999-00081-00601999999ADDAA103000091REMSYN04071223 26/// /2812 11008 21060 333 60007=
0058712230999992022011203004+51930-110720SAO  +077299999V020280190062199999999999999999-00081-00601999999REMAWY049XCS SA 0300 AUTO8 M M M M/-01/-06/2812/M/ M 80MM=
0057712230999992022011204004+51930-110720SAO  +077299999V020270190067199999999999999999+00011-00601999999REMAWY048XCS SA 0400 AUTO8 M M M M/00/-06/2713/M/ M 10MM=
0058712230999992022011205004+51930-110720SAO  +077299999V020270190067199999999999999999-00071-00621999999REMAWY049XCS SA 0500 AUTO8 M M M M/-01/-06/2713/M/ M 72MM=
0134712230999992022011206004+51933-110700FM-12+077299999V0202501N005119999999N999999999-00231-00641999999ADDAA106000091AA224999919KA1240M+00281KA2240N-00671REMSYN07471223 16/// /2510 11023 21064 60001 333 10028 21067 7//// 555 32523 40111=
0058712230999992022011206004+51930-110720SAO  +077299999V020250190051199999999999999999-00231-00641999999REMAWY049XCS SA 0600 AUTO8 M M M M/-02/-06/2510/M/ M 34MM=
0058712230999992022011207004+51930-110720SAO  +077299999V020230190057199999999999999999-00491-00781999999REMAWY049XCS SA 0700 AUTO8 M M M M/-05/-08/2311/M/ M 98MM=
0058712230999992022011208004+51930-110720SAO  +077299999V020230190057199999999999999999-00261-00661999999REMAWY049XCS SA 0800 AUTO8 M M M M/-03/-07/2311/M/ M 66MM=
0063712230999992022011209004+51933-110700FM-12+077299999V0202301N005719999999N999999999-00331-00691999999ADDAA103000091REMSYN04071223 26/// /2311 11033 21069 333 60007=
0058712230999992022011209004+51930-110720SAO  +077299999V020230190057199999999999999999-00331-00691999999REMAWY049XCS SA 0900 AUTO8 M M M M/-03/-07/2311/M/ M 39MM=
0058712230999992022011210004+51930-110720SAO  +077299999V020220190057199999999999999999-00521-00831999999REMAWY049XCS SA 1000 AUTO8 M M M M/-05/-08/2211/M/ M 23MM=
0059712230999992022011211004+51930-110720SAO  +077299999V020210190026199999999999999999-00631-00941999999REMAWY050XCS SA 1100 AUTO8 M M M M/-06/-09/2105/M/M M 34MM=
0118712230999992022011212004+51933-110700FM-12+077299999V0202201N005119999999N999999999-00531-00881999999ADDAA106999919AA224999919KA1240M+00281KA2240N-00631REMSYN05871223 46/// /2210 11053 21088 6///1 333 10028 21063 7////=
0092712230999992022011212004+51930-110720SAO  +077299999V020230190051199999999999999999-00531-00881999999ADDAA101000631REMAWY069XCS SA 1200 AUTO8 M M M M/-05/-09/2310/M/M PCPN 0.6MM PAST HR M 38MM=
0093712230999992022011213004+51930-110720SAO  +077299999V020230190082199999999999999999-00221-00631999999ADDOD130100931230REMAWY067XCS SA 1300 AUTO8 M M M M/-02/-06/2316/M/ PK WND 2318 1257Z M 23MM=
0093712230999992022011214004+51930-110720SAO  +077299999V020250190062199999999999999999-00231-00551999999ADDOD130100871240REMAWY067XCS SA 1400 AUTO8 M M M M/-02/-06/2512/M/ PK WND 2417 1312Z M 35MM=
0063712230999992022011215004+51933-110700FM-12+077299999V0202301N005119999999N999999999-00401-00851999999ADDAA103000091REMSYN04071223 26/// /2310 11040 21085 333 60007=
0058712230999992022011215004+51930-110720SAO  +077299999V020230190051199999999999999999-00401-00751999999REMAWY049XCS SA 1500 AUTO8 M M M M/-04/-08/2310/M/ M 05MM=
0058712230999992022011216004+51930-110720SAO  +077299999V020290190036199999999999999999-00481-00861999999REMAWY049XCS SA 1600 AUTO8 M M M M/-05/-09/2907/M/ M 86MM=
0058712230999992022011217004+51930-110720SAO  +077299999V020260190046199999999999999999-00151-00701999999REMAWY049XCS SA 1700 AUTO8 M M M M/-02/-07/2609/M/ M 50MM=
0118712230999992022011218004+51933-110700FM-12+077299999V0202801N002619999999N999999999-00191-00681999999ADDAA106000091AA224999919KA1120M+00021KA2120N-00631REMSYN05871223 16/// /2805 11019 21068 60001 333 10002 21063 7////=
0058712230999992022011218004+51930-110720SAO  +077299999V020280190026199999999999999999-00191-00681999999REMAWY049XCS SA 1800 AUTO8 M M M M/-02/-07/2805/M/ M 98MM=
0058712230999992022011219004+51930-110720SAO  +077299999V020250190031199999999999999999-00151-00631999999REMAWY049XCS SA 1900 AUTO8 M M M M/-02/-06/2506/M/ M 53MM=
0058712230999992022011220004+51930-110720SAO  +077299999V020260190046199999999999999999-00221-00691999999REMAWY049XCS SA 2000 AUTO8 M M M M/-02/-07/2609/M/ M 29MM=
0063712230999992022011221004+51933-110700FM-12+077299999V0203001N004619999999N999999999-00171-00621999999ADDAA103000091REMSYN04071223 26/// /3009 11017 21062 333 60007=
0058712230999992022011221004+51930-110720SAO  +077299999V020300190046199999999999999999-00171-00621999999REMAWY049XCS SA 2100 AUTO8 M M M M/-02/-06/3009/M/ M 72MM=
0058712230999992022011222004+51930-110720SAO  +077299999V020310190057199999999999999999-00161-00621999999REMAWY049XCS SA 2200 AUTO8 M M M M/-02/-06/3111/M/ M 62MM=
0058712230999992022011223004+51930-110720SAO  +077299999V020280190041199999999999999999+00001-00571999999REMAWY049XCS SA 2300 AUTO8 M M M M/00/-06/2808/M/ M -07MM=
0118712230999992022011300004+51933-110700FM-12+077299999V0202801N004619999999N999999999+00071-00481999999ADDAA106000091AA224999919KA1120M+00171KA2120N-00631REMSYN05871223 16/// /2809 10007 21048 60001 333 10017 21063 7////=
0057712230999992022011300004+51930-110720SAO  +077299999V020280190046199999999999999999+00071-00481999999REMAWY048XCS SA 0000 AUTO8 M M M M/01/-05/2809/M/ M 78MM=
0058712230999992022011301004+51930-110720SAO  +077299999V020270190041199999999999999999-00031-00411999999REMAWY049XCS SA 0100 AUTO8 M M M M/00/-04/2708/M/ M -31MM=
0058712230999992022011302004+51930-110720SAO  +077299999V020260190051199999999999999999-00091-00401999999REMAWY049XCS SA 0200 AUTO8 M M M M/-01/-04/2610/M/ M 90MM=
0063712230999992022011303004+51933-110700FM-12+077299999V0202601N005719999999N999999999-00091-00391999999ADDAA103000091REMSYN04071223 26/// /2611 11009 21039 333 60007=
0058712230999992022011303004+51930-110720SAO  +077299999V020260190057199999999999999999-00091-00391999999REMAWY049XCS SA 0300 AUTO8 M M M M/-01/-04/2611/M/ M 99MM=
0058712230999992022011304004+51930-110720SAO  +077299999V020280190051199999999999999999-00211-00481999999REMAWY049XCS SA 0400 AUTO8 M M M M/-02/-05/2810/M/ M 18MM=
0058712230999992022011305004+51930-110720SAO  +077299999V020240190046199999999999999999-00371-00641999999REMAWY049XCS SA 0500 AUTO8 M M M M/-04/-06/2409/M/ M 74MM=
0134712230999992022011306004+51933-110700FM-12+077299999V0202701N005719999999N999999999-00221-00481999999ADDAA106000091AA224999919KA1240M+00171KA2240N-00631REMSYN07471223 16/// /2711 11022 21048 60001 333 10017 21063 7//// 555 32318 40130=
0058712230999992022011306004+51930-110720SAO  +077299999V020270190057199999999999999999-00221-00481999999REMAWY049XCS SA 0600 AUTO8 M M M M/-02/-05/2711/M/ M 28MM=
0058712230999992022011307004+51930-110720SAO  +077299999V020240190021199999999999999999-00431-00641999999REMAWY049XCS SA 0700 AUTO8 M M M M/-04/-06/2404/M/ M 34MM=
0059712230999992022011308004+51930-110720SAO  +077299999V020240190021199999999999999999-00621-00751999999REMAWY050XCS SA 0800 AUTO8 M M M M/-06/-08/2404/M/M M 25MM=
0063712230999992022011309004+51933-110700FM-12+077299999V0203401N001519999999N999999999-00271-00561999999ADDAA103999999REMSYN04071223 46/// /3403 11027 21056 333 6///7=
0092712230999992022011309004+51930-110720SAO  +077299999V020340190015199999999999999999-00271-00561999999ADDAA101000931REMAWY069XCS SA 0900 AUTO8 M M M M/-03/-06/3403/M/M PCPN 0.9MM PAST HR M 76MM=
0059712230999992022011310004+51930-110720SAO  +077299999V020160190010199999999999999999-00331-00541999999REMAWY050XCS SA 1000 AUTO8 M M M M/-03/-05/1602/M/M M 34MM=
0059712230999992022011311004+51930-110720SAO  +077299999V020190190026199999999999999999-00361-00521999999REMAWY050XCS SA 1100 AUTO8 M M M M/-04/-05/1905/M/M M 62MM=
0118712230999992022011312004+51933-110700FM-12+077299999V0200801N002619999999N999999999-00391-00551999999ADDAA106999919AA224999919KA1240M+00171KA2240N-00631REMSYN05871223 46/// /0805 11039 21055 6///1 333 10017 21063 7////=
0059712230999992022011312004+51930-110720SAO  +077299999V020080190026199999999999999999-00391-00551999999REMAWY050XCS SA 1200 AUTO8 M M M M/-04/-06/0805/M/M M 95MM=
0058712230999992022011313004+51930-110720SAO  +077299999V020090190021199999999999999999-00491-00611999999REMAWY049XCS SA 1300 AUTO8 M M M M/-05/-06/0904/M/ M 91MM=
0058712230999992022011314004+51930-110720SAO  +077299999V020090190021199999999999999999-00491-00621999999REMAWY049XCS SA 1400 AUTO8 M M M M/-05/-06/0904/M/ M 92MM=
0063712230999992022011315004+51933-110700FM-12+077299999V0200801N002619999999N999999999-00591-00731999999ADDAA103999999REMSYN04071223 46/// /0805 11059 21073 333 6///7=
0059712230999992022011315004+51930-110720SAO  +077299999V020080190026199999999999999999-00591-00731999999REMAWY050XCS SA 1500 AUTO8 M M M M/-06/-07/0805/M/M M 93MM=
0059712230999992022011316004+51930-110720SAO  +077299999V020090190026199999999999999999-00601-00721999999REMAWY050XCS SA 1600 AUTO8 M M M M/-06/-07/0905/M/M M 02MM=
0092712230999992022011317004+51930-110720SAO  +077299999V020070190021199999999999999999-00501-00621999999ADDAA101001031REMAWY069XCS SA 1700 AUTO8 M M M M/-05/-06/0704/M/M PCPN 1.0MM PAST HR M 02MM=
0118712230999992022011318004+51933-110700FM-12+077299999V0200601N002619999999N999999999-00381-00491999999ADDAA106999919AA224999919KA1120M-00181KA2120N-00631REMSYN05871223 46/// /0605 11038 21049 6///1 333 11018 21063 7////=
0059712230999992022011318004+51930-110720SAO  +077299999V020060190026199999999999999999-00381-00491999999REMAWY050XCS SA 1800 AUTO8 M M M M/-04/-05/0605/M/M M 89MM=
0058712230999992022011319004+51930-110720SAO  +077299999V020090190026199999999999999999-00231-00421999999REMAWY049XCS SA 1900 AUTO8 M M M M/-02/-04/0905/M/ M 32MM=
0058712230999992022011320004+51930-110720SAO  +077299999V020020190051199999999999999999-00111-00321999999REMAWY049XCS SA 2000 AUTO8 M M M M/-01/-03/0210/M/ M 12MM=
0063712230999992022011321004+51933-110700FM-12+077299999V0203601N007719999999N999999999-00141-00371999999ADDAA103000091REMSYN04071223 26/// /3615 11014 21037 333 60007=
0093712230999992022011321004+51930-110720SAO  +077299999V020360190077199999999999999999-00141-00371999999ADDOD130100931350REMAWY067XCS SA 2100 AUTO8 M M M M/-01/-04/3615/M/ PK WND 3518 2043Z M 47MM=
0058712230999992022011322004+51930-110720SAO  +077299999V020340190057199999999999999999-00131-00381999999REMAWY049XCS SA 2200 AUTO8 M M M M/-01/-04/3411/M/ M 38MM=
0058712230999992022011323004+51930-110720SAO  +077299999V020320190041199999999999999999-00151-00291999999REMAWY049XCS SA 2300 AUTO8 M M M M/00/-03/3208/M/ M -59MM=
0118712230999992022011400004+51933-110700FM-12+077299999V0203401N005119999999N999999999-00021-00161999999ADDAA106000091AA224999919KA1120M+00021KA2120N-00631REMSYN05871223 16/// /3410 11002 21016 60001 333 10002 21063 7////=
0058712230999992022011400004+51930-110720SAO  +077299999V020340190051199999999999999999-00021-00161999999REMAWY049XCS SA 0000 AUTO8 M M M M/00/-02/3410/M/ M -26MM=
0058712230999992022011401004+51930-110720SAO  +077299999V020320190057199999999999999999-00041-00191999999REMAWY049XCS SA 0100 AUTO8 M M M M/00/-02/3211/M/ M -49MM=
0058712230999992022011402004+51930-110720SAO  +077299999V020310190062199999999999999999-00021-00141999999REMAWY049XCS SA 0200 AUTO8 M M M M/00/-01/3112/M/ M -24MM=
0063712230999992022011403004+51933-110700FM-12+077299999V0203201N005119999999N999999999+00001-00091999999ADDAA103000091REMSYN04071223 26/// /3210 10000 21009 333 60007=
0057712230999992022011403004+51930-110720SAO  +077299999V020320190051199999999999999999+00001-00091999999REMAWY048XCS SA 0300 AUTO8 M M M M/00/-01/3210/M/ M 09MM=
0092712230999992022011404004+51930-110720SAO  +077299999V020320190072199999999999999999+00031-00081999999ADDOD130100981320REMAWY066XCS SA 0400 AUTO8 M M M M/00/-01/3214/M/ PK WND 3219 0351Z M 38MM=
0092712230999992022011405004+51930-110720SAO  +077299999V020300190067199999999999999999+00041-00091999999ADDOD130100871310REMAWY066XCS SA 0500 AUTO8 M M M M/00/-01/3013/M/ PK WND 3117 0401Z M 49MM=
0134712230999992022011406004+51933-110700FM-12+077299999V0202901N005719999999N999999999+00011-00111999999ADDAA106000091AA224999919KA1240M+00041KA2240N-00631REMSYN07471223 16/// /2911 10001 21011 60001 333 10004 21063 7//// 555 33219 40040=
0057712230999992022011406004+51930-110720SAO  +077299999V020300190057199999999999999999+00011-00111999999REMAWY048XCS SA 0600 AUTO8 M M M M/00/-01/3011/M/ M 11MM=
0057712230999992022011407004+51930-110720SAO  +077299999V020300190062199999999999999999+00051-00041999999REMAWY048XCS SA 0700 AUTO8 M M M M/01/00/3012/M/ M 5-4MM=
0092712230999992022011408004+51930-110720SAO  +077299999V020320190072199999999999999999+00031-00061999999ADDOD130100981300REMAWY066XCS SA 0800 AUTO8 M M M M/00/-01/3214/M/ PK WND 3019 0750Z M 36MM=
0063712230999992022011409004+51933-110700FM-12+077299999V0203301N007219999999N999999999+00041-00101999999ADDAA103000091REMSYN04071223 26/// /3314 10004 21010 333 60007=
0092712230999992022011409004+51930-110720SAO  +077299999V020330190072199999999999999999+00041-00101999999ADDOD130101031350REMAWY066XCS SA 0900 AUTO8 M M M M/00/-01/3314/M/ PK WND 3520 0843Z M 40MM=
0093712230999992022011410004+51930-110720SAO  +077299999V020310190062199999999999999999-00081-00291999999ADDOD130101031330REMAWY067XCS SA 1000 AUTO8 M M M M/-01/-03/3112/M/ PK WND 3320 0912Z M 89MM=
0093712230999992022011411004+51930-110720SAO  +077299999V020320190062199999999999999999-00151-00341999999ADDOD130101231320REMAWY067XCS SA 1100 AUTO8 M M M M/00/-03/3212/M/ PK WND 3224 1028Z M -54MM=
0118712230999992022011412004+51933-110700FM-12+077299999V0203101N006719999999N999999999-00121-00341999999ADDAA106000091AA224999919KA1240M+00041KA2240N-00121REMSYN05871223 16/// /3113 11012 21034 60001 333 10004 21012 7////=
0093712230999992022011412004+51930-110720SAO  +077299999V020310190067199999999999999999-00121-00341999999ADDOD130100871320REMAWY067XCS SA 1200 AUTO8 M M M M/-01/-03/3113/M/ PK WND 3217 1119Z M 24MM=
0058712230999992022011413004+51930-110720SAO  +077299999V020320190057199999999999999999-00121-00411999999REMAWY049XCS SA 1300 AUTO8 M M M M/-01/-04/3211/M/ M 21MM=
0058712230999992022011414004+51930-110720SAO  +077299999V020330190041199999999999999999-00161-00471999999REMAWY049XCS SA 1400 AUTO8 M M M M/-02/-05/3308/M/ M 67MM=
0063712230999992022011415004+51933-110700FM-12+077299999V0203301N003619999999N999999999-00241-00541999999ADDAA103000091REMSYN04071223 26/// /3307 11024 21054 333 60007=
0058712230999992022011415004+51930-110720SAO  +077299999V020330190036199999999999999999-00241-00541999999REMAWY049XCS SA 1500 AUTO8 M M M M/-02/-05/3307/M/ M 44MM=
0058712230999992022011416004+51930-110720SAO  +077299999V020300190036199999999999999999-00361-00641999999REMAWY049XCS SA 1600 AUTO8 M M M M/-04/-06/3007/M/ M 64MM=
0058712230999992022011417004+51930-110720SAO  +077299999V020280190031199999999999999999-00331-00581999999REMAWY049XCS SA 1700 AUTO8 M M M M/-03/-06/2806/M/ M 38MM=
0118712230999992022011418004+51933-110700FM-12+077299999V0202501N002619999999N999999999-00321-00571999999ADDAA106000091AA224000091KA1120M+00061KA2120N-00441REMSYN05871223 16/// /2505 11032 21057 60001 333 10006 21044 70000=
0058712230999992022011418004+51930-110720SAO  +077299999V020250190026199999999999999999-00321-00571999999REMAWY049XCS SA 1800 AUTO8 M M M M/-03/-06/2505/M/ M 27MM=
0058712230999992022011419004+51930-110720SAO  +077299999V020220190031199999999999999999-00331-00561999999REMAWY049XCS SA 1900 AUTO8 M M M M/-03/-06/2206/M/ M 36MM=
0058712230999992022011420004+51930-110720SAO  +077299999V020220190057199999999999999999-00331-00531999999REMAWY049XCS SA 2000 AUTO8 M M M M/-03/-05/2211/M/ M 33MM=
0063712230999992022011421004+51933-110700FM-12+077299999V0202001N006719999999N999999999-00331-00541999999ADDAA103000091REMSYN04071223 26/// /2013 11033 21054 333 60007=
0058712230999992022011421004+51930-110720SAO  +077299999V020200190067199999999999999999-00331-00541999999REMAWY049XCS SA 2100 AUTO8 M M M M/-03/-05/2013/M/ M 34MM=
0058712230999992022011422004+51930-110720SAO  +077299999V020210190067199999999999999999-00401-00601999999REMAWY049XCS SA 2200 AUTO8 M M M M/-04/-06/2113/M/ M 00MM=
0058712230999992022011423004+51930-110720SAO  +077299999V020200190046199999999999999999-00501-00681999999REMAWY049XCS SA 2300 AUTO8 M M M M/-05/-07/2009/M/ M 08MM=
0118712230999992022011500004+51933-110700FM-12+077299999V0202001N004619999999N999999999-00581-00751999999ADDAA106000091AA224000091KA1120M-00101KA2120N-00581REMSYN05871223 16/// /2009 11058 21075 60001 333 11010 21058 70000=
0058712230999992022011500004+51930-110720SAO  +077299999V020200190046199999999999999999-00581-00751999999REMAWY049XCS SA 0000 AUTO8 M M M M/-06/-08/2009/M/ M 85MM=
0093712230999992022011501004+51930-110720SAO  +077299999V020200190082199999999999999999-00451-00711999999ADDOD130100981200REMAWY067XCS SA 0100 AUTO8 M M M M/-05/-07/2016/M/ PK WND 2019 0057Z M 51MM=
0093712230999992022011502004+51930-110720SAO  +077299999V020190190072199999999999999999-00461-00621999999ADDOD130101031200REMAWY067XCS SA 0200 AUTO8 M M M M/-05/-06/1914/M/ PK WND 2020 0108Z M 62MM=
0063712230999992022011503004+51933-110700FM-12+077299999V0202001N008819999999N999999999-00431-00621999999ADDAA103000091REMSYN04071223 26/// /2017 11043 21062 333 60007=
0093712230999992022011503004+51930-110720SAO  +077299999V020200190087199999999999999999-00431-00621999999ADDOD130101131190REMAWY067XCS SA 0300 AUTO8 M M M M/-04/-06/2017/M/ PK WND 1922 0249Z M 32MM=
0093712230999992022011504004+51930-110720SAO  +077299999V020200190077199999999999999999-00441-00691999999ADDOD130101131210REMAWY067XCS SA 0400 AUTO8 M M M M/-04/-07/2015/M/ PK WND 2122 0308Z M 49MM=
0093712230999992022011505004+51930-110720SAO  +077299999V020210190087199999999999999999-00411-00681999999ADDOD130101081210REMAWY067XCS SA 0500 AUTO8 M M M M/-04/-07/2117/M/ PK WND 2121 0406Z M 18MM=
0134712230999992022011506004+51933-110700FM-12+077299999V0202201N008819999999N999999999-00371-00611999999ADDAA106000091AA224000091KA1240M+00061KA2240N-00601REMSYN07471223 16/// /2217 11037 21061 60001 333 10006 21060 70000 555 33224 40111=
0093712230999992022011506004+51930-110720SAO  +077299999V020220190087199999999999999999-00371-00611999999ADDOD130101131200REMAWY067XCS SA 0600 AUTO8 M M M M/-04/-06/2217/M/ PK WND 2022 0508Z M 71MM=
0093712230999992022011507004+51930-110720SAO  +077299999V020230190103199999999999999999-00221-00351999999ADDOD130101181230REMAWY067XCS SA 0700 AUTO8 M M M M/-02/-04/2320/M/ PK WND 2323 0637Z M 25MM=
0093712230999992022011508004+51930-110720SAO  +077299999V020230190046199999999999999999-00281-00481999999ADDOD130101181220REMAWY067XCS SA 0800 AUTO8 M M M M/-03/-05/2309/M/ PK WND 2223 0704Z M 88MM=
0063712230999992022011509004+51933-110700FM-12+077299999V0202401N007219999999N999999999-00371-00561999999ADDAA103000091REMSYN04071223 26/// /2414 11037 21056 333 60007=
0093712230999992022011509004+51930-110720SAO  +077299999V020240190072199999999999999999-00371-00561999999ADDOD130101031240REMAWY067XCS SA 0900 AUTO8 M M M M/-04/-06/2414/M/ PK WND 2420 0831Z M 76MM=
0093712230999992022011510004+51930-110720SAO  +077299999V020230190046199999999999999999-00441-00551999999ADDOD130100871240REMAWY067XCS SA 1000 AUTO8 M M M M/-04/-06/2309/M/ PK WND 2417 0902Z M 45MM=
0093712230999992022011511004+51930-110720SAO  +077299999V020260190072199999999999999999-00221-00591999999ADDOD130100931260REMAWY067XCS SA 1100 AUTO8 M M M M/-02/-06/2614/M/ PK WND 2618 1014Z M 29MM=
0118712230999992022011512004+51933-110700FM-12+077299999V0202701N007219999999N999999999-00091-00521999999ADDAA106000091AA224000091KA1240M+00061KA2240N-00601REMSYN05871223 16/// /2714 11009 21052 60001 333 10006 21060 70000=
0093712230999992022011512004+51930-110720SAO  +077299999V020270190072199999999999999999-00091-00521999999ADDOD130100871270REMAWY067XCS SA 1200 AUTO8 M M M M/-01/-05/2714/M/ PK WND 2717 1158Z M 92MM=
0092712230999992022011513004+51930-110720SAO  +077299999V020290190067199999999999999999+00011-00501999999ADDOD130100871280REMAWY066XCS SA 1300 AUTO8 M M M M/00/-05/2913/M/ PK WND 2817 1217Z M 10MM=
0057712230999992022011514004+51930-110720SAO  +077299999V020310190036199999999999999999+00071-00521999999REMAWY048XCS SA 1400 AUTO8 M M M M/01/-05/3107/M/ M 72MM=
0063712230999992022011515004+51933-110700FM-12+077299999V0202701N004619999999N999999999-00111-00521999999ADDAA103000091REMSYN04071223 26/// /2709 11011 21052 333 60007=
0058712230999992022011515004+51930-110720SAO  +077299999V020270190046199999999999999999-00111-00521999999REMAWY049XCS SA 1500 AUTO8 M M M M/-01/-05/2709/M/ M 12MM=
0057712230999992022011516004+51930-110720SAO  +077299999V020290190067199999999999999999+00011-00501999999REMAWY048XCS SA 1600 AUTO8 M M M M/00/-05/2913/M/ M 10MM=
0058712230999992022011517004+51930-110720SAO  +077299999V020310190057199999999999999999-00021-00471999999REMAWY049XCS SA 1700 AUTO8 M M M M/00/-05/3111/M/ M -27MM=
0118712230999992022011518004+51933-110700FM-12+077299999V0203001N005119999999N999999999+00071-00391999999ADDAA106000091AA224000091KA1120M+00091KA2120N-00601REMSYN05871223 16/// /3010 10007 21039 60001 333 10009 21060 70000=
0057712230999992022011518004+51930-110720SAO  +077299999V020300190051199999999999999999+00071-00391999999REMAWY048XCS SA 1800 AUTO8 M M M M/01/-04/3010/M/ M 79MM=
0013712230999992022011521004+51775-111176FM-12+077299999V0202751N0049199999999999999999+00321-00161999999REMSYN004BUFR
0053712230999992022011600004+51775-111176FM-12+077299999V0202781N0059199999999999999999+00251-00241999999ADDAA101999999KA1120M+00431KA2180N-00551REMSYN004BUFR
0038712230999992022011603004+51775-111176FM-12+077299999V0202711N0069199999999999999999-00051-00521999999ADDAA101999999AA206999999REMSYN004BUFR
0134712230999992022011606004+51933-110700FM-12+077299999V0202801N007719999999N999999999-00161-00701999999ADDAA106000091AA224999919KA1240M+00451KA2240N-00451REMSYN07471223 16/// /2815 11016 21070 60001 333 10045 21045 7//// 555 32323 40071=
0093712230999992022011608004+51930-110720SAO  +077299999V020290190098199999999999999999-00131-00731999999ADDOD130101181300REMAWY067XCS SA 0800 AUTO8 M M M M/-01/-07/2919/M/ PK WND 3023 0703Z M 33MM=
0063712230999992022011609004+51933-110700FM-12+077299999V0203001N009319999999N999999999-00131-00741999999ADDAA103000091REMSYN04071223 26/// /3018 11013 21074 333 60007=
0093712230999992022011609004+51930-110720SAO  +077299999V020300190093199999999999999999-00131-00741999999ADDOD130101181290REMAWY067XCS SA 0900 AUTO8 M M M M/-01/-07/3018/M/ PK WND 2923 0819Z M 34MM=
0093712230999992022011610004+51930-110720SAO  +077299999V020290190082199999999999999999-00151-00811999999ADDOD130101131290REMAWY067XCS SA 1000 AUTO8 M M M M/-02/-08/2916/M/ PK WND 2922 0912Z M 51MM=
0093712230999992022011611004+51930-110720SAO  +077299999V020290190077199999999999999999-00321-00831999999ADDOD130100871290REMAWY067XCS SA 1100 AUTO8 M M M M/-03/-08/2915/M/ PK WND 2917 1058Z M 23MM=
0118712230999992022011612004+51933-110700FM-12+077299999V0202901N008819999999N999999999-00351-00831999999ADDAA106000091AA224999919KA1240M+00451KA2240N-00451REMSYN05871223 16/// /2917 11035 21083 60001 333 10045 21045 7////=
0093712230999992022011612004+51930-110720SAO  +077299999V020290190087199999999999999999-00251-00831999999ADDOD130100981290REMAWY067XCS SA 1200 AUTO8 M M M M/-03/-08/2917/M/ PK WND 2919 1152Z M 53MM=
0093712230999992022011613004+51930-110720SAO  +077299999V020280190072199999999999999999-00411-00871999999ADDOD130100871290REMAWY067XCS SA 1300 AUTO8 M M M M/-04/-09/2814/M/ PK WND 2917 1218Z M 17MM=
0058712230999992022011614004+51930-110720SAO  +077299999V020290190051199999999999999999-00451-00961999999REMAWY049XCS SA 1400 AUTO8 M M M M/-05/-10/2910/M/ M 56MM=
0063712230999992022011615004+51933-110700FM-12+077299999V0202901N004119999999N999999999-00601-01041999999ADDAA103999999REMSYN04071223 46/// /2908 11060 21104 333 6///7=
0059712230999992022011615004+51930-110720SAO  +077299999V020290190041199999999999999999-00601-01041999999REMAWY050XCS SA 1500 AUTO8 M M M M/-06/-10/2908/M/M M 04MM=
0092712230999992022011616004+51930-110720SAO  +077299999V020260190041199999999999999999-00621-01011999999ADDAA101000531REMAWY069XCS SA 1600 AUTO8 M M M M/-06/-10/2608/M/M PCPN 0.5MM PAST HR M 21MM=
0059712230999992022011617004+51930-110720SAO  +077299999V020280190072199999999999999999-00431-00941999999REMAWY050XCS SA 1700 AUTO8 M M M M/-04/-09/2814/M/M M 34MM=
0118712230999992022011618004+51933-110700FM-12+077299999V0202801N005719999999N999999999-00361-00881999999ADDAA106999919AA224999919KA1120M+00041KA2120N-00831REMSYN05871223 46/// /2811 11036 21088 6///1 333 10004 21083 7////=
0094712230999992022011618004+51930-110720SAO  +077299999V020280190057199999999999999999-00361-00881999999ADDOD130100931280REMAWY068XCS SA 1800 AUTO8 M M M M/-04/-09/2811/M/M PK WND 2818 1703Z M 68MM=
0058712230999992022011619004+51930-110720SAO  +077299999V020230190041199999999999999999-00461-00921999999REMAWY049XCS SA 1900 AUTO8 M M M M/-05/-09/2308/M/ M 62MM=
0058712230999992022011620004+51930-110720SAO  +077299999V020230190057199999999999999999-00431-00831999999REMAWY049XCS SA 2000 AUTO8 M M M M/-04/-08/2311/M/ M 33MM=
0063712230999992022011621004+51933-110700FM-12+077299999V0202601N007219999999N999999999-00151-00701999999ADDAA103000091REMSYN04071223 26/// /2614 11015 21070 333 60007=
0093712230999992022011621004+51930-110720SAO  +077299999V020260190072199999999999999999-00151-00701999999ADDOD130100871250REMAWY067XCS SA 2100 AUTO8 M M M M/-02/-07/2614/M/ PK WND 2517 2026Z M 50MM=
0058712230999992022011622004+51930-110720SAO  +077299999V020250190041199999999999999999-00141-00661999999REMAWY049XCS SA 2200 AUTO8 M M M M/-01/-07/2508/M/ M 46MM=
0058712230999992022011623004+51930-110720SAO  +077299999V020240190041199999999999999999-00321-00791999999REMAWY049XCS SA 2300 AUTO8 M M M M/-03/-08/2408/M/ M 29MM=
0118712230999992022011700004+51933-110700FM-12+077299999V0202201N005719999999N999999999-00521-00831999999ADDAA106000091AA224999919KA1120M-00111KA2120N-00831REMSYN05871223 16/// /2211 11052 21083 60001 333 11011 21083 7////=
0058712230999992022011700004+51930-110720SAO  +077299999V020220190057199999999999999999-00521-00831999999REMAWY049XCS SA 0000 AUTO8 M M M M/-05/-08/2211/M/ M 23MM=
0095712230999992022011701004+51930-110720SAO  +077299999V020240190036199999999999999999-00331-00741999999ADDAA101000431REMAWY072XCS SA 0100 AUTO8 M M M M/-03/-07/2407/M/0004 PCPN 0.4MM PAST HR M 34MM=
0062712230999992022011702004+51930-110720SAO  +077299999V020160190015199999999999999999-00251-00741999999REMAWY053XCS SA 0200 AUTO8 M M M M/-03/-07/1603/M/0004 M 54MM=
0063712230999992022011703004+51933-110700FM-12+077299999V0201001N002119999999N999999999-00361-00751999999ADDAA103000431REMSYN04071223 26/// /1004 11036 21075 333 69947=
0062712230999992022011703004+51930-110720SAO  +077299999V020100190021199999999999999999-00361-00751999999REMAWY053XCS SA 0300 AUTO8 M M M M/-04/-08/1004/M/0004 M 65MM=
0059712230999992022011704004+51930-110720SAO  +077299999V020070190031199999999999999999-00371-00741999999REMAWY050XCS SA 0400 AUTO8 M M M M/-04/-07/0706/M/M M 74MM=
0059712230999992022011705004+51930-110720SAO  +077299999V020090190015199999999999999999-00361-00781999999REMAWY050XCS SA 0500 AUTO8 M M M M/-04/-08/0903/M/M M 68MM=
0134712230999992022011706004+51933-110700FM-12+077299999V0200801N001019999999N999999999-00401-00781999999ADDAA106999919AA224999919KA1240M+00041KA2240N-00831REMSYN07471223 46/// /0802 11040 21078 6///1 333 10004 21083 7//// 555 32923 40091=
0092712230999992022011706004+51930-110720SAO  +077299999V020080190010199999999999999999-00401-00781999999ADDAA101000631REMAWY069XCS SA 0600 AUTO8 M M M M/-04/-08/0802/M/M PCPN 0.6MM PAST HR M 08MM=
0058712230999992022011707004+51930-110720SAO  +077299999V020090190036199999999999999999-00521-00771999999REMAWY049XCS SA 0700 AUTO8 M M M M/-05/-08/0907/M/ M 27MM=
0059712230999992022011708004+51930-110720SAO  +077299999V020100190026199999999999999999-00591-00811999999REMAWY050XCS SA 0800 AUTO8 M M M M/-06/-08/1005/M/M M 91MM=
0063712230999992022011709004+51933-110700FM-12+077299999V0201501N003119999999N999999999-00311-00711999999ADDAA103999999REMSYN04071223 46/// /1506 11031 21071 333 6///7=
0092712230999992022011709004+51930-110720SAO  +077299999V020150190031199999999999999999-00311-00711999999ADDAA101000831REMAWY069XCS SA 0900 AUTO8 M M M M/-03/-07/1506/M/M PCPN 0.8MM PAST HR M 11MM=
0059712230999992022011710004+51930-110720SAO  +077299999V020120190021199999999999999999-00471-00771999999REMAWY050XCS SA 1000 AUTO8 M M M M/-05/-08/1204/M/M M 77MM=
0059712230999992022011711004+51930-110720SAO  +077299999V020190190021199999999999999999-00471-00731999999REMAWY050XCS SA 1100 AUTO8 M M M M/-05/-07/1904/M/M M 73MM=
0118712230999992022011712004+51933-110700FM-12+077299999V0202001N002619999999N999999999-00431-00721999999ADDAA106999919AA224999919KA1240M+00041KA2240N-00591REMSYN05871223 46/// /2005 11043 21072 6///1 333 10004 21059 7////=
0059712230999992022011712004+51930-110720SAO  +077299999V020210190026199999999999999999-00431-00721999999REMAWY050XCS SA 1200 AUTO8 M M M M/-04/-07/2105/M/M M 32MM=
0058712230999992022011713004+51930-110720SAO  +077299999V020220190036199999999999999999-00581-00831999999REMAWY049XCS SA 1300 AUTO8 M M M M/-06/-08/2207/M/ M 83MM=
0058712230999992022011714004+51930-110720SAO  +077299999V020210190036199999999999999999-00561-00761999999REMAWY049XCS SA 1400 AUTO8 M M M M/-06/-08/2107/M/ M 66MM=
0063712230999992022011715004+51933-110700FM-12+077299999V0202201N003119999999N999999999-00531-00741999999ADDAA103000531REMSYN04071223 26/// /2206 11053 21074 333 69957=
0095712230999992022011715004+51930-110720SAO  +077299999V020220190031199999999999999999-00531-00741999999ADDAA101000531REMAWY072XCS SA 1500 AUTO8 M M M M/-05/-07/2206/M/0005 PCPN 0.5MM PAST HR M 34MM=
0062712230999992022011716004+51930-110720SAO  +077299999V020190190015199999999999999999-00451-00761999999REMAWY053XCS SA 1600 AUTO8 M M M M/-05/-08/1903/M/0005 M 56MM=
0062712230999992022011717004+51930-110720SAO  +077299999V020130190005199999999999999999-00341-00721999999REMAWY053XCS SA 1700 AUTO8 M M M M/-03/-07/1301/M/0005 M 42MM=
0132712230999992022011718004+51933-110700FM-12+077299999V0202001N003619999999N999999999-00411-00691999999ADDAA106000531AA224999919AZ141021KA1120M-00251KA2120N-00621REMSYN06471223 17/// /2007 11041 21069 69951 7//4/ 333 11025 21062 7////=
0062712230999992022011718004+51930-110720SAO  +077299999V020200190036199999999999999999-00411-00691999999REMAWY053XCS SA 1800 AUTO8 M M M M/-04/-07/2007/M/0005 M 19MM=
0058712230999992022011719004+51930-110720SAO  +077299999V020110190015199999999999999999-00261-00631999999REMAWY049XCS SA 1900 AUTO8 M M M M/-03/-06/1103/M/ M 63MM=
0058712230999992022011720004+51930-110720SAO  +077299999V020150190015199999999999999999-00211-00571999999REMAWY049XCS SA 2000 AUTO8 M M M M/-02/-06/1503/M/ M 17MM=
0063712230999992022011721004+51933-110700FM-12+077299999V0201801N002119999999N999999999-00201-00541999999ADDAA103000091REMSYN04071223 26/// /1804 11020 21054 333 60007=
0058712230999992022011721004+51930-110720SAO  +077299999V020180190021199999999999999999-00201-00541999999REMAWY049XCS SA 2100 AUTO8 M M M M/-02/-05/1804/M/ M 04MM=
0058712230999992022011722004+51930-110720SAO  +077299999V020220190031199999999999999999-00241-00541999999REMAWY049XCS SA 2200 AUTO8 M M M M/-02/-05/2206/M/ M 44MM=
0059712230999992022011723004+51930-110720SAO  +077299999V020280190041199999999999999999-00421-00661999999REMAWY050XCS SA 2300 AUTO8 M M M M/-04/-07/2808/M/M M 26MM=
0118712230999992022011800004+51933-110700FM-12+077299999V0202801N004119999999N999999999-00401-00671999999ADDAA106999919AA224999919KA1120M-00181KA2120N-00601REMSYN05871223 46/// /2808 11040 21067 6///1 333 11018 21060 7////=
0092712230999992022011800004+51930-110720SAO  +077299999V020280190041199999999999999999-00401-00671999999ADDAA101000431REMAWY069XCS SA 0000 AUTO8 M M M M/-04/-07/2808/M/M PCPN 0.4MM PAST HR M 07MM=
0058712230999992022011801004+51930-110720SAO  +077299999V020320190051199999999999999999-00561-00771999999REMAWY049XCS SA 0100 AUTO8 M M M M/-06/-08/3210/M/ M 67MM=
0058712230999992022011802004+51930-110720SAO  +077299999V020310190057199999999999999999-00501-00741999999REMAWY049XCS SA 0200 AUTO8 M M M M/-05/-07/3111/M/ M 04MM=
0063712230999992022011803004+51933-110700FM-12+077299999V0203201N008219999999N999999999-00281-00431999999ADDAA103000091REMSYN04071223 26/// /3216 11028 21043 333 60007=
0093712230999992022011803004+51930-110720SAO  +077299999V020320190082199999999999999999-00281-00431999999ADDOD130101081310REMAWY067XCS SA 0300 AUTO8 M M M M/-03/-04/3216/M/ PK WND 3121 0240Z M 83MM=
0093712230999992022011804004+51930-110720SAO  +077299999V020340190154199999999999999999-00561-00701999999ADDOD130102161330REMAWY067XCS SA 0400 AUTO8 M M M M/-06/-07/3430/M/ PK WND 3342 0346Z M 60MM=
0127712230999992022011805004+51930-110720SAO  +077299999V020330190180199999999999999999-01321-01572999999ADDAA101000431OD130102261320REMAWY090XCS SA 0500 AUTO8 M M M M/-13/-16/3335/M/0004 PCPN 0.4MM PAST HR PK WND 3244 0402Z M 27MM=
0148712230999992022011806004+51933-110700FM-12+077299999V0203201N016519999999N999999999-01491-01811999999ADDAA106000431AA224999919AZ141021KA1240M-00101KA2240N-01491REMSYN08071223 17/// /3232 11149 21181 69941 7//4/ 333 11010 21149 7//// 555 33244 40053=
0097712230999992022011806004+51930-110720SAO  +077299999V020320190164199999999999999999-01491-01811999999ADDOD130102161330REMAWY071XCS SA 0600 AUTO8 M M M M/-15/-18/3232/M/0004 PK WND 3342 0557Z M 91MM=
0093712230999992022011807004+51930-110720SAO  +077299999V020330190134199999999999999999-01561-01861999999ADDOD130102211330REMAWY067XCS SA 0700 AUTO8 M M M M/-16/-19/3326/M/ PK WND 3343 0600Z M 66MM=
0093712230999992022011808004+51930-110720SAO  +077299999V020320190164199999999999999999-01731-02131999999ADDOD130102061320REMAWY067XCS SA 0800 AUTO8 M M M M/-17/-21/3232/M/ PK WND 3240 0744Z M 33MM=
0063712230999992022011809004+51933-110700FM-12+077299999V0203201N015419999999N999999999-01861-02301999999ADDAA103000091REMSYN04071223 26/// /3230 11186 21230 333 60007=
0093712230999992022011809004+51930-110720SAO  +077299999V020320190154199999999999999999-01861-02301999999ADDOD130102211330REMAWY067XCS SA 0900 AUTO8 M M M M/-19/-23/3230/M/ PK WND 3343 0818Z M 60MM=
0093712230999992022011810004+51930-110720SAO  +077299999V020320190149199999999999999999-01991-02431999999ADDOD130101951330REMAWY067XCS SA 1000 AUTO8 M M M M/-20/-24/3229/M/ PK WND 3338 0948Z M 93MM=
0093712230999992022011811004+51930-110720SAO  +077299999V020320190139199999999999999999-02091-02531999999ADDOD130102001330REMAWY067XCS SA 1100 AUTO8 M M M M/-21/-25/3227/M/ PK WND 3339 1022Z M 93MM=
0118712230999992022011812004+51933-110700FM-12+077299999V0203201N014419999999N999999999-02091-02531999999ADDAA106000091AA224999919KA1240M-00101KA2240N-02121REMSYN05871223 16/// /3228 11209 21253 60001 333 11010 21212 7////=
0093712230999992022011812004+51930-110720SAO  +077299999V020320190144199999999999999999-02091-02531999999ADDOD130101851320REMAWY067XCS SA 1200 AUTO8 M M M M/-21/-25/3228/M/ PK WND 3236 1104Z M 93MM=
0093712230999992022011813004+51930-110720SAO  +077299999V020320190108199999999999999999-02091-02531999999ADDOD130101751320REMAWY067XCS SA 1300 AUTO8 M M M M/-21/-25/3221/M/ PK WND 3234 1203Z M 93MM=
0093712230999992022011814004+51930-110720SAO  +077299999V020320190093199999999999999999-02141-02611999999ADDOD130101281320REMAWY067XCS SA 1400 AUTO8 M M M M/-21/-26/3218/M/ PK WND 3225 1307Z M 41MM=
0063712230999992022011815004+51933-110700FM-12+077299999V0203101N009819999999N999999999-02181-02631999999ADDAA103000091REMSYN04071223 26/// /3119 11218 21263 333 60007=
0093712230999992022011815004+51930-110720SAO  +077299999V020310190098199999999999999999-02181-02631999999ADDOD130101281310REMAWY067XCS SA 1500 AUTO8 M M M M/-22/-26/3119/M/ PK WND 3125 1436Z M 83MM=
0093712230999992022011816004+51930-110720SAO  +077299999V020310190093199999999999999999-02231-02701999999ADDOD130101181310REMAWY067XCS SA 1600 AUTO8 M M M M/-22/-27/3118/M/ PK WND 3123 1506Z M 30MM=
0093712230999992022011817004+51930-110720SAO  +077299999V020330190098199999999999999999-02251-02761999999ADDOD130101281320REMAWY067XCS SA 1700 AUTO8 M M M M/-23/-28/3319/M/ PK WND 3225 1607Z M 56MM=
0118712230999992022011818004+51933-110700FM-12+077299999V0203201N009819999999N999999999-02251-02741999999ADDAA106000091AA224999919KA1120M-01491KA2120N-02261REMSYN05871223 16/// /3219 11225 21274 60001 333 11149 21226 7////=
0093712230999992022011818004+51930-110720SAO  +077299999V020320190098199999999999999999-02151-02741999999ADDOD130101231320REMAWY067XCS SA 1800 AUTO8 M M M M/-22/-27/3219/M/ PK WND 3224 1754Z M 54MM=
0093712230999992022011819004+51930-110720SAO  +077299999V020330190098199999999999999999-02241-02761999999ADDOD130101281320REMAWY067XCS SA 1900 AUTO8 M M M M/-22/-28/3319/M/ PK WND 3225 1857Z M 46MM=
0093712230999992022011820004+51930-110720SAO  +077299999V020330190082199999999999999999-02241-02771999999ADDOD130101281330REMAWY067XCS SA 2000 AUTO8 M M M M/-22/-28/3316/M/ PK WND 3325 1906Z M 47MM=
0063712230999992022011821004+51933-110700FM-12+077299999V0203301N007719999999N999999999-02231-02751999999ADDAA103000091REMSYN04071223 26/// /3315 11223 21275 333 60007=
0093712230999992022011821004+51930-110720SAO  +077299999V020330190077199999999999999999-02231-02751999999ADDOD130101131320REMAWY067XCS SA 2100 AUTO8 M M M M/-22/-28/3315/M/ PK WND 3222 2033Z M 35MM=
0093712230999992022011822004+51930-110720SAO  +077299999V020330190057199999999999999999-02241-02761999999ADDOD130100871320REMAWY067XCS SA 2200 AUTO8 M M M M/-22/-28/3311/M/ PK WND 3217 2119Z M 46MM=
0058712230999992022011823004+51930-110720SAO  +077299999V020320190062199999999999999999-02291-02811999999REMAWY049XCS SA 2300 AUTO8 M M M M/-23/-28/3212/M/ M 91MM=
0118712230999992022011900004+51933-110700FM-12+077299999V0203101N006719999999N999999999-02461-02931999999ADDAA106000091AA224000431KA1120M-02071KA2120N-02461REMSYN05871223 16/// /3113 11246 21293 60001 333 11207 21246 70004=
0093712230999992022011900004+51930-110720SAO  +077299999V020310190067199999999999999999-02461-02931999999ADDOD130100871320REMAWY067XCS SA 0000 AUTO8 M M M M/-25/-29/3113/M/ PK WND 3217 2301Z M 63MM=
0093712230999992022011901004+51930-110720SAO  +077299999V020310190067199999999999999999-02541-02991999999ADDOD130100931300REMAWY067XCS SA 0100 AUTO8 M M M M/-25/-30/3113/M/ PK WND 3018 0029Z M 49MM=
0059712230999992022011902004+51930-110720SAO  +077299999V020300190046199999999999999999-02621-03081999999REMAWY050XCS SA 0200 AUTO8 M M M M/-26/-31/3009/M/M M 28MM=
0063712230999992022011903004+51933-110700FM-12+077299999V0203101N005719999999N999999999-02711-03161999999ADDAA103999999REMSYN04071223 46/// /3111 11271 21316 333 6///7=
0092712230999992022011903004+51930-110720SAO  +077299999V020310190057199999999999999999-02711-03161999999ADDAA101000731REMAWY069XCS SA 0300 AUTO8 M M M M/-27/-32/3111/M/M PCPN 0.7MM PAST HR M 16MM=
0059712230999992022011904004+51930-110720SAO  +077299999V020310190051199999999999999999-02801-03271999999REMAWY050XCS SA 0400 AUTO8 M M M M/-28/-33/3110/M/M M 07MM=
0059712230999992022011905004+51930-110720SAO  +077299999V020310190046199999999999999999-02861-03331999999REMAWY050XCS SA 0500 AUTO8 M M M M/-29/-33/3109/M/M M 63MM=
0134712230999992022011906004+51933-110700FM-12+077299999V0203001N002619999999N999999999-02741-03181999999ADDAA106999919AA224999919KA1240M-01491KA2240N-02891REMSYN07471223 46/// /3005 11274 21318 6///1 333 11149 21289 7//// 555 33343 40063=
0059712230999992022011906004+51930-110720SAO  +077299999V020300190026199999999999999999-02741-03181999999REMAWY050XCS SA 0600 AUTO8 M M M M/-27/-32/3005/M/M M 48MM=
0058712230999992022011907004+51930-110720SAO  +077299999V020230190036199999999999999999-03061-03551999999REMAWY049XCS SA 0700 AUTO8 M M M M/-31/-36/2307/M/ M 65MM=
0059712230999992022011908004+51930-110720SAO  +077299999V020280190031199999999999999999-03041-03521999999REMAWY050XCS SA 0800 AUTO8 M M M M/-30/-35/2806/M/M M 42MM=
0063712230999992022011909004+51933-110700FM-12+077299999V0202801N002119999999N999999999-02851-03321999999ADDAA103999999REMSYN04071223 46/// /2804 11285 21332 333 6///7=
0092712230999992022011909004+51930-110720SAO  +077299999V020280190021199999999999999999-02851-03321999999ADDAA101001231REMAWY069XCS SA 0900 AUTO8 M M M M/-29/-33/2804/M/M PCPN 1.2MM PAST HR M 52MM=
0059712230999992022011910004+51930-110720SAO  +077299999V020220190036199999999999999999-03271-03791999999REMAWY050XCS SA 1000 AUTO8 M M M M/-33/-38/2207/M/M M 79MM=
0059712230999992022011911004+51930-110720SAO  +077299999V020220190031199999999999999999-03251-03761999999REMAWY050XCS SA 1100 AUTO8 M M M M/-33/-38/2206/M/M M 56MM=
0118712230999992022011912004+51933-110700FM-12+077299999V0202301N003119999999N999999999-03271-03791999999ADDAA106999919AA224999919KA1240M-01491KA2240N-03291REMSYN05871223 46/// /2306 11327 21379 6///1 333 11149 21329 7////=
0092712230999992022011912004+51930-110720SAO  +077299999V020230190031199999999999999999-03271-03791999999ADDAA101001131REMAWY069XCS SA 1200 AUTO8 M M M M/-33/-38/2306/M/M PCPN 1.1MM PAST HR M 79MM=
0059712230999992022011913004+51930-110720SAO  +077299999V020260190026199999999999999999-03131-03641999999REMAWY050XCS SA 1300 AUTO8 M M M M/-31/-36/2605/M/M M 34MM=
0092712230999992022011914004+51930-110720SAO  +077299999V020250190026199999999999999999-02951-03551999999ADDAA101000531REMAWY069XCS SA 1400 AUTO8 M M M M/-30/-36/2505/M/M PCPN 0.5MM PAST HR M 55MM=
0063712230999992022011915004+51933-110700FM-12+077299999V0202001N002619999999N999999999-03311-03851999999ADDAA103999999REMSYN04071223 46/// /2005 11331 21385 333 6///7=
0059712230999992022011915004+51930-110720SAO  +077299999V020200190026199999999999999999-03311-03751999999REMAWY050XCS SA 1500 AUTO8 M M M M/-33/-38/2005/M/M M 15MM=
0092712230999992022011916004+51930-110720SAO  +077299999V020210190021199999999999999999-03211-03741999999ADDAA101000731REMAWY069XCS SA 1600 AUTO8 M M M M/-32/-37/2104/M/M PCPN 0.7MM PAST HR M 14MM=
0092712230999992022011917004+51930-110720SAO  +077299999V020160190010199999999999999999-02951-03351999999ADDAA101004631REMAWY069XCS SA 1700 AUTO8 M M M M/-30/-34/1602/M/M PCPN 4.6MM PAST HR M 55MM=
0118712230999992022011918004+51933-110700FM-12+077299999V0202001N002619999999N999999999-02761-03231999999ADDAA106999919AA224999919KA1120M-02741KA2120N-03331REMSYN05871223 46/// /2005 11276 21323 6///1 333 11274 21333 7////=
0059712230999992022011918004+51930-110720SAO  +077299999V020200190026199999999999999999-02761-03231999999REMAWY050XCS SA 1800 AUTO8 M M M M/-28/-32/2005/M/M M 63MM=
0058712230999992022011919004+51930-110720SAO  +077299999V020200190031199999999999999999-02521-02961999999REMAWY049XCS SA 1900 AUTO8 M M M M/-25/-30/2006/M/ M 26MM=
0058712230999992022011920004+51930-110720SAO  +077299999V020170190026199999999999999999-02341-02761999999REMAWY049XCS SA 2000 AUTO8 M M M M/-23/-28/1705/M/ M 46MM=
0063712230999992022011921004+51933-110700FM-12+077299999V0201701N003119999999N999999999-02261-02681999999ADDAA103000091REMSYN04071223 26/// /1706 11226 21268 333 60007=
0058712230999992022011921004+51930-110720SAO  +077299999V020170190031199999999999999999-02261-02681999999REMAWY049XCS SA 2100 AUTO8 M M M M/-23/-27/1706/M/ M 68MM=
0058712230999992022011922004+51930-110720SAO  +077299999V020130190015199999999999999999-02361-02801999999REMAWY049XCS SA 2200 AUTO8 M M M M/-24/-28/1303/M/ M 60MM=
